:100000000C949A140C9403150C9403150C9403157A
:100010000C9403150C9403150C9403150C94031500
:100020000C9403150C9403150C9403150C940315F0
:100030000C9400B90C9403150C9403150C9433B96B
:100040000C9403150C9403150C940EB80C94AEB7D5
:100050000C94E5B70C9403150C9403150C9403153C
:100060000C9403150C9403150C9403150C940315B0
:100070000C9403150C9403150C9478B80C9477B772
:100080000C94B7B80C9403150C940315566972744C
:1000900075616C00C0C2C0CDD220CECFD2CE2D258E
:1000A00064256425642DCE00C0C2C0CDD220CA34E0
:1000B00030302D25642564C200C0C2C0CDD220D00E
:1000C000C7D1CA2D2564256425642DC200C0C2C0D5
:1000D000CDD220D0343030EC2D3130302DC200C2A2
:1000E000FBE2E5E4E5ED00C3EEF2EEE2000000C263
:1000F000E2E5E4E5ED0000D0E5F7FC00000000D209
:10010000E5F1F200000000D2E5F1F200000000EE9F
:10011000F8E8E1EAE00000CDE5E8F1EFF02E202577
:10012000632D2530345800CFF0E5E4F3EFF02E20B6
:1001300025632D2530345800253032753A2530326C
:10014000753A2530327500253032752E25303275DE
:100150002E253032750053E43D25303275B0005500
:10016000F8323D25303264E4C10055F8313D253088
:100170003264E4C10055F83D25303264E4C10055D5
:10018000EA323D25303264E4C10055EA313D253084
:100190003264E4C10055EA3D25303264E4C10055C3
:1001A000E7323D25303264E4C10055E7313D25306A
:1001B0003264E4C10055E73D25303264E4C10052A9
:1001C0003D25303375CEEC00493D25303375ECC00C
:1001D00000553D253032752E25303175C200CDEEEB
:1001E000E2FBE920EFE0F0EEEBFC3A20253034753D
:1001F00000CFE0F0EEEBFC3A2025303475002020F3
:100200002020202020C2E2E5E4E5ED20202020206F
:1002100020200020202020EDE5EFF0E0E2E8EBFCDC
:10022000EDFBE9202020200020202020202020EFAE
:10023000E0F0EEEBFC202020202020200020C8E76A
:10024000ECE5EDE8F2FC20EFE0F0E0ECE5F2F02088
:1002500020002020ECEEE6EDEE20F2EEEBFCEAEEE4
:1002600020E220202020002020F0E5E6E8ECE52038
:10027000C2DBC2C5C4C5CD2020202000C2E2EEE40E
:100280003A20253031752E2530317500C2E2EEE47A
:100290003A202530317500C2E2EEE43A20255300C1
:1002A000E2FBEAEB2E000000000000CAD7000000CD
:1002B000000000000000CAD731000000000000006C
:1002C00000CAD7320000000000000000CAD7330087
:1002D00000000000000000CAD73400000000000049
:1002E0000000CAD7310000000000000000CAD7316A
:1002F00020F120E1EBEEEA00CAD732000000000056
:10030000000000CAD73220F120E1EBEEEA00D0C7AE
:10031000000000000000000000CAEEECE0EDE4E0A8
:1003200031000000CAEEECE0EDE4E032000000CA6B
:10033000EEECE0EDE4E033000000CAEEECE0EDE4CA
:10034000E034000000CAEEEC312BE1EBEEEA0000F5
:10035000CAEEEC322BE1EBEEEA0000CAEEEC332BF6
:10036000E1EBEEEA0000CAEEEC342BE1EBEEEA0042
:1003700000CAEEECE0EDE4E031000000CAEEECE093
:10038000EDE4E032000000CAEEECE0EDE4E0330022
:100390000000CAEEECE0EDE4E034000000CAEEEC50
:1003A000E0EDE4E035000000CAEEECE0EDE4E0361C
:1003B000000000CAEEECE0EDE4E037000000CAEE19
:1003C000ECE0EDE4E038000000CAEEECE0EDE4E043
:1003D00039000000CAEEECE0EDE4E031300000CA84
:1003E000EEECE0EDE4E031310000CAEEECE0EDE4EB
:1003F000E031320000CAEEECE0EDE4E03133000021
:10040000CAEEECE0EDE4E031340000CAEEECE0EDE1
:10041000E4E031350000CAEEECE0EDE4E031360016
:1004200000CAEEECE0EDE4E031370000CAEEECE0AB
:10043000EDE4E031380000CAEEECE0EDE4E0313903
:100440000000CAEEECE0EDE4E032300000CAEEEC71
:10045000E0EDE4E032310000CAEEECE0EDE4E03241
:10046000320000CAEEECE0EDE4E032330000CAEE08
:10047000ECE0EDE4E032340000CAEEECE0EDE4E064
:1004800032350000CAEEECE0EDE4E032360000CA9E
:10049000EEECE0EDE4E032370000CAEEECE0EDE433
:1004A000E032380000CAEEECE0EDE4E03239000062
:1004B000CAEEECE0EDE4E033300000CAEEECE0ED33
:1004C000E4E033310000CAEEECE0EDE4E03332006A
:1004D00000CAD720E820D0C700000000CAD73120CA
:1004E000E820D0C7000000CAD73220E820D0C700DB
:1004F0000000CAD73320E820D0C7000000CAD73494
:1005000020E820D0C7000000EEF8E8E1EAE00000B3
:10051000000000C7EDE0F7E5EDE8E53A2000CFD0B8
:10052000CC323A2000CFD0CC313A2000D1E8E3EDF4
:10053000E0EBFB20EFF0E8E5ECEDE8EAE000D2E5E7
:10054000F1F2FB5CCFF0E8E5ECEDE8EA00D1E8E39E
:10055000EDE0EBFB20EFE5F0E5E4E0F2F7E8EAE0C0
:1005600000D2E5F1F2FB5CCFE5F0E5E4E0F2F7E87C
:10057000EA0020202020CFE5F0E5E9E4E8F2E520DC
:10058000E2202020202000202020F0E5E6E8EC20DA
:10059000C2DBC2C5C4C5CD202020200025642E208A
:1005A000D2E5F1F220EFF0E8E5ECEDE8EAE0002535
:1005B000642E20D2E5F1F220EFE5F0E5E4E0F2F779
:1005C000E8EAE000CDE0F1F2F0EEE9EAE05CD2E545
:1005D000F1F2FB00CFE0F0E0ECE5F2F03A25752017
:1005E000C2F1E5E3EE3A257500C4E8E0EFE0E7EE9E
:1005F000ED3A200025642E2E2564257300F1EFE8E6
:10060000F1EEEA00555342000000000000000052E5
:1006100053343835000000000000EEF8E8E1EAE06D
:100620000000000000D1D2C0CDC4C0D0D200000074
:100630004D4F444255530000000000CCDDCA2D311F
:10064000303100000000EEF8E8E1EAE000000000D0
:100650000036303000000000000000003132303041
:1006600000000000000000323430300000000000C4
:10067000000034383030000000000000003936300F
:10068000300000000000000031393230300000003E
:10069000000000EEF8E8E1EAE000000000003800A9
:1006A000000000000000000000EEF8E8E1EAE000D1
:1006B00000000000EDE5F20000000000000000F77F
:1006C000E5F20000000000000000EDE5F7E5F200B3
:1006D0000000000000EEF8E8E1EAE00000000000A1
:1006E00031000000000000000000003200000000A7
:1006F000000000000000EEF8E8E1EAE00000000081
:1007000000D1E5F2E5E2EEE920E0E4F0E5F100D128
:10071000F2EEEFEEE2FBE520E1E8F2FB00D7E5F2D6
:10072000EDEEF1F2FC00C1E8F2FB20E4E0EDEDFBC0
:10073000F500D1EAEEF0EEF1F2FC20EFE5F0E5E4B1
:10074000E0F7E800CFF0EEF2EEEAEEEB00C8EDF2F3
:10075000E5F0F4E5E9F120F1E2FFE7E800CDE0F1B2
:10076000F2F0EEE9EAE05CC8EDF2E5F0F4E5E9F17B
:100770000025642E20D1E5EAF3EDE4FB0025642E8C
:1007800020CCE8EDF3F2FB0025642E20D7E0F1FB4E
:100790000025642E20C4E5EDFC0025642E20CCE568
:1007A000F1FFF60025642E20C3EEE400CDE0F1F267
:1007B000F0EEE9EAE05CC2F0E5ECFF26E4E0F2E00E
:1007C00000CDEEECE5F020CFD0CC3A2025752F25DA
:1007D0007500E2EAEB2E2FE2FBEAEB2E00E2FBEAE9
:1007E000EB2E000000000000E2EAEB2E000000000B
:1007F000000000EEF8E8E1EAE00000000000C0C2FE
:10080000C0CDD220D034303000CFC2C72D39300017
:1008100000000000C0C2C7CA2D383000000000CF61
:10082000C2C7D32DC50000000000CFC2C7CB000057
:100830000000000000CBC8CDC8DF2DD000000000B4
:10084000EEF8E8E1EAE00000000000EEF8E8E1EA96
:10085000E00000000000E1FBF1F2F0FBE900000025
:1008600000ECE5E4EBE5EDEDFBE90000EEF8E8E196
:10087000EAE00000000000EEF8E8E1EAE000000035
:100880000000E2EAEB2E00000000000000E2FBEABC
:10089000EB2E000000000000EEF8E8E1EAE00000C6
:1008A000000000EEF8E8E1EAE00000000000F2F0ED
:1008B000E5E2EEE6EDFBE90000EDEEF0ECE0EBFC4E
:1008C000EDFBE900F1EFEEEAEEE9EDFBE90000EE09
:1008D000F8E8E1EAE00000000000C0C2C0CDD200AC
:1008E0000000000000C0C2C0CDD220CFD0C40000A4
:1008F000C0C2C0CDD220CFD0CC0000C0CACFC02053
:10090000CFD0C4000000C0CACFC020CFD0CC0000E0
:1009100000CAC5C4D020CFD0C4000000CAC5C4D00E
:1009200020CFD0CC000000D3CFCA2DD620CFD0C44A
:100930000000D3CFCA2DD620CFD0CC0000C2D7D252
:10094000CE20CFD0C4000000C2D7D2CE20CFD0CC92
:10095000000000EEF8E8E1EAE00000000000EEF838
:10096000E8E1EAE000000000003220EAEEEDF6E502
:10097000E2E0FF003320EAEEEDF6E5E2E0FF00EE14
:10098000F8E8E1EAE00000000000D2E5EBE5ECE584
:10099000F5E0EDE8EAE000D2E8EF20EBE8EDE8E88A
:1009A00000D1EEE2ECE5F1F2E8ECEEF1F2FC00D081
:1009B000E5E7E5F0E2E8F0EEE2E0EDE8E500D2E8B8
:1009C000EF20E0E2F2EEEAEEEDF2F0EEEBFF00C433
:1009D000EEEFF3F1F2E8ECE0FF20EFEEECE5F5E00E
:1009E00000CFEEF0EEE320EFEE20EFEEECE5F5E5E4
:1009F00000C4EEEFF3F1F2E8ECFBE520EFF0EEE2FD
:100A0000E0EBFB00CFF0E8E7EDE0EA20F7E5F2ED00
:100A1000EEF1F2E800CFF0EEF2EEEAEEEB20EEE1DE
:100A2000ECE5EDE000CAEEF0F0E5EAF6E8FF20F2D2
:100A3000EEEAE000CAEEF0F0E5EAF6E8FF20EDE0CD
:100A4000EFF0FFE6E5EDE8FF00D2E8EF20E4E5F2A5
:100A5000E5EAF2EEF0E000D1EDE8E6E5EDE8E520CC
:100A6000EEF2E2E5F2E020C0CA00D1EEE2ECE5F100
:100A7000F2E8ECEEF1F2FC00D7E0F1F2EEF2E00089
:100A800055E2FBF520EDEEECE8EDE0EBFCEDEEE5FC
:100A900000C7E0E3F0F3E1EB2E20F7F3E2F1F2E23E
:100AA0002E20CFD0CC00D3E4E5F0E62E20F0E5EB0D
:100AB000E520EAEEEC2E20CFD0CC00D3E4E5F0E642
:100AC0002E20F0E5EBE520EAEEEC2E20CFD0C4009E
:100AD000C2F0E5ECFF20EFE5F0E5E7E0EFF3F1EA47
:100AE000E000CFEEF0EEE320EFF0E5E4F3EFF02EE0
:100AF00020EFEE20CAD700CFEEF0EEE320EFF0E5D6
:100B0000E4F3EFF0E5E6E4E5EDE8FF00CAEEEDF230
:100B1000F0EEEBFC20E2FBF52EF1E8E3EDE0EBE09C
:100B200000CDEEECE5F020E0EFEFE0F0E0F2E000E9
:100B3000D1E8EDF5F0EEEDE8E7E0F6E8FF20F7E0CC
:100B4000F1EEE200CFE0F0E0ECE5F2F0FB5CCEE1AC
:100B5000F9E8E500CDEEECE5F020EAEEECE0EDE4BE
:100B6000FB3A2025752F257500300000000000009D
:100B70000000000034000000000000000000003809
:100B80000000000000000000000031320000000002
:100B900000000000003136000000000000000000EE
:100BA000323400000000000000000033320000007A
:100BB000000000000000EEF8E8E1EAE000000000BC
:100BC00000CAEEEBE8F7E5F1F2E2EE20EAEEECE047
:100BD000EDE400CAEEEBE8F7E5F1F2E2EE20EAEE32
:100BE000ECE0EDE420C000C1EBEEEAE8F0EEE22E2E
:100BF00020EAEEECE0EDE4FB20D6D100D2F0E0ED0F
:100C0000F1EBFFF6E8FF20D6D100C1EBEEEAE8F009
:100C1000EEE22E20EAEEECE0EDE4FB00D1EBE5E4C1
:100C2000FFF9E8E520EAEEECE0EDE4FB00D2E5F1C7
:100C3000F2EEE2E0FF20EAEEECE0EDE4E000C4EBEF
:100C4000E8F2E5EBFCEDEEF1F2FC20EAEEECE0ED93
:100C5000E4FB00C4EBE8F2E5EBFCEDEEF1F2FC2086
:100C6000EAEEECE0EDE4FB00C7E0E4E5F0E6EAE004
:100C700020F1F0E0E1E0F22E20CFD0C400CFE0F090
:100C8000E0ECE5F2F0FB5CCFE5F0E5E4E0F2F7E85C
:100C9000EA00CAEEEBE8F7E5F1F2E2EE20EAEEEC6C
:100CA000E0EDE400CAEEECE0EDE4E020C2D720E2A3
:100CB00020D6D100C1EBEEEAE8F0EEE22E20EAEE1B
:100CC000ECE0EDE4FB20D6D100D2F0E0EDF1EBFF5B
:100CD000F6E8FF20D6D100C7E0E4E5F0E6EAE02040
:100CE000EDE020E2FBEAEB2EEAEEEC00C1EBEEEAEF
:100CF000E8F0EEE22E20EAEEECE0EDE4FB00C7E0E7
:100D0000E4E5F0E6EAE020EDE020F4E8EAF12EEA9E
:100D1000EEEC00CFE0F0E0ECE5F2F0FB5CCFF0E8C9
:100D2000E5ECEDE8EA00C4D4C72DCFF0CFE4000035
:100D300000C4D4C72DCCCA3100000000C4D4C72DD4
:100D4000CCCA3200000000C4D4C72D4C363000009D
:100D50000000CDC72DCFF0CFE400000000CDC72D9F
:100D6000CCCA000000000000CFCFC72DCFF0CFE4E9
:100D7000000000CFCFC72DCCCA0000000000EEF865
:100D8000E8E1EAE00000000000E0EAF22BEFE0F129
:100D9000F1000000E0EAF2E8E2EDFBE9000000EF1C
:100DA000E0F1F1E8E2EDFBE90000EEF8E8E1EAE06D
:100DB00000000000002D31303030C3F6000000008C
:100DC0002D353030C3F6000000000030C3F60000BF
:100DD0000000000000002B353030C3F6000000009A
:100DE000002B31303030C3F600000000EEF8E8E1AF
:100DF000EAE00000000000D1E4E2E8E320C2D720EE
:100E0000CFD0C420EEF220CFD3D1CA00D1E4E2E8A3
:100E1000E320CFD0CC00D1E4E2E8E320E7E0E42E09
:100E2000F4F0EEEDF2E020CFD0C400D1E4E2E8E34C
:100E300020EFE5F02EF4F0EEEDF2E020CFD0C4008C
:100E4000C7E0E3F0F3E1EB2E20F7F3E2F1F2E22E5C
:100E500020D0C700D7E0F1F2EEF2E020CFD0CC00F6
:100E6000D7E0F1F2EEF2E020CFD0C400D1EDE8E619
:100E7000E5EDE8E520F3F0EEE2EDFF20C0CA00D298
:100E8000E8EF20EFF0E8E5ECEDE8EAE000C7E0E3AA
:100E9000F0F3E1EBE5EDE8E520F7F3E2F1F2E2E86B
:100EA000F200CFEEF0EEE320EFF0E5E4F3EFF02E0A
:100EB00020EFEE20D0C700CAEEECEFE5EDF1E0F652
:100EC000E8FF20E7E0E4E5F0E6EAE800CFE5F0E55A
:100ED000EAF0FBF2E8E520E8ECEFF3EBFCF1EEE200
:100EE00000C4EEEF2E20E2F0E5ECFF20E1E5E72084
:100EF000ECE0ED2E00D2E8EF20EBE8EDE8E800D2E0
:100F0000E8EF20E7E0F9E8F2FB00CFE0F0E0ECE505
:100F1000F2F0FB5CC7E0F9E8F2E00025642E20CE99
:100F2000E1F9E8E50025642E20CFE5F0E5E4E0F204
:100F3000F7E8EA0025642E20CFF0E8E5ECEDE8EADA
:100F40000025642E20C7E0F9E8F2E000CDE0F1F2E0
:100F5000F0EEE9EAE05CCFE0F0E0ECE5F2F0FB0077
:100F6000C2FBE2E5E4E5ED00000000C2E2E5E4E5F5
:100F7000ED0000000000D2E5F1F220310000000099
:100F800000D2E5F1F220320000000000CDE0F1F2E5
:100F9000F0EEE9EAE05CD0E5E6E8EC0025642E201E
:100FA000C8EDF2E5F0F4E5E9F10025642E20CFE08C
:100FB000F0EEEBFC0025642E20CFE0F0E0ECE5F253
:100FC000F0FB0025642E20C2F0E5ECFF20E820E4D1
:100FD000E0F2E00025642E20D0E5E6E8EC00CCE568
:100FE000EDFE5CCDE0F1F2F0EEE9EAE00025642EE2
:100FF00020D1E1F0EEF120F3E4E0EBE5ED2E20333B
:101000000025642E20D1E1F0EEF120F3E4E0EBE5E1
:10101000ED2E20320025642E20D1E1F0EEF120F3F8
:10102000E4E0EBE5ED2E20310025642E20C0CA203F
:10103000E2EAEBFEF7E5ED0025642E20CFF3F1EABE
:1010400020F3E4E0EB2DFBF520CCC0CD0025642E91
:1010500020CFF3F1EA20F3E4E0EB2E20CCC0CD204A
:10106000330025642E20CFF3F1EA20F3E4E0EB2EE9
:1010700020CCC0CD20320025642E20CFF3F1EA2011
:10108000F3E4E0EB2E20CCC0CD20310025642E20EF
:10109000CFF3F1EA20F3E4E0EBE5EDEDFBF500251D
:1010A000642E20CFF3F1EA20F3E4E0EBE5EDED2E42
:1010B00020330025642E20CFF3F1EA20F3E4E0EBA7
:1010C000E5EDED2E20320025642E20CFF3F1EA204D
:1010D000F3E4E0EBE5EDED2E20310025642E20D188
:1010E000E1F0EEF120F3E4E0EBE5EDEDFBF50025BA
:1010F000642E20C0CA20E1E5E3EBFBE90025642E65
:1011000020C0CA20EDEEF0ECE0EBFCEDFBE90025A1
:10111000642E20C0CA20E8F1EFFBF2E0EDE8FF000A
:1011200025642E20C0CA20E2FBEAEBFEF7E5ED00C5
:1011300025642E20C0CA20F3F1EAEEF0E5EDEDFBC8
:10114000E90025642E20C0CA20E0E2F2EEECE0F2D5
:10115000E8F7E5F1EA2E0025642E20CFF3F1EA202E
:10116000CFD0C40025642E20CFF3F1EA20C0CA20DE
:10117000F3E4E0EBE5EDED2E0025642E20CFF3F156
:10118000EA20C0CA20F1E2EEE90025642E20D1E178
:10119000F0EEF120C0CA0025642E20C0CA20EAEE7D
:1011A000EDF2F02EEFF0EEE2E5F02E0025642E20B9
:1011B000CFF3F1EA20F3E4E0EBE5ED2E20CCC0CD57
:1011C0000025642E20C0CA20EFF3F1EA0025642E2A
:1011D00020CFF3F1EA20EDE0EBE0E42E20E2FBEAA1
:1011E000EB0025642E20CFF3F1EA20EDE0EBE0E404
:1011F0002E20E2EAEB2E0025642E20C2FBE7EEE271
:101200000025642E20D1E1F0EEF120F3E4E0EBE5DF
:10121000EDEDEEE3EE0025642E20D1E1F0EEF120BD
:10122000F1E2EEE5E3EE0025642E20CFF3F1EA20B3
:10123000F3E4E0EBE5EDEDEEE3EE00CCE5EDFE5C96
:10124000D3EFF0E0E2EBE5EDE8E500C7E0EFE8F131
:10125000FC202575202F202575202825752900C7FD
:10126000E0EFE8F1FC202575202F20257500C6D37E
:10127000D0CDC0CB20CFD3D1D200D1D7C8D2DBC202
:10128000C0CDC8C520C7C0CFC8D1C800CAEEECE0E9
:10129000EDE4E03A20257500000000000028D6D1DA
:1012A000290028CED82900C4E0F2E03A20253032C7
:1012B000752E253032752E2530327500C2F0E5ECE2
:1012C000FF3A20253032753A253032753A253032D2
:1012D000752E2530337500CAEEECE0EDE4E020EF2A
:1012E000E5F0E5E4E0E5F2F1FF00CAEEECE0EDE464
:1012F00020EDE5F200CEEAEEEDF7E0EDE8E520EADC
:10130000EEECE0EDE4FB00000000CDE0F7E0EBEEFA
:1013100020EAEEECE0EDE4FB00000000000000CE6F
:10132000F8E8E1EEF7EDEEE520E7EDE0F7E5EDE8D2
:10133000E5000000C6F3F0EDE0EB5CCFE5F0E5E49E
:10134000E0F2F7E8EA00C6F3F0EDE0EB5CCFF0E89E
:10135000E5ECEDE8EA00D1EEF1F2EEFFEDE8E53A7A
:1013600000CF2564D12564CC256420CFC42564CF6B
:10137000CC2564C2DBD5256400C6F3F0EDE0EB5C60
:10138000C7E0F9E8F2E000D0E5E6E8EC3A00D1EE9B
:10139000E1FBF2E8E5202D202564000000000000BC
:1013A000000000CDE5E8F1EFF020F7F22FE7E0EFE5
:1013B00020464C4153480000C2D720F2F0E0EAF248
:1013C00020E2EEF1F1F2E0EDEEE2EB2E00CDE5E809
:1013D000F1EFF020F7F22FE7E0EF20CFCBC8D100FC
:1013E0000000C0E2F2EEEAEEEDF2F0EEEBFC0000FF
:1013F00000000000000000D2EEEA20EFEEEAEEFF6F
:10140000000000000000000000000000CDE5E8F151
:10141000EFF020F7F22FE7E0EF203252414D0000CD
:1014200000CDE5E8F1EFF020F0E0E1EEF2FB204442
:10143000535000000000C2EEF1F1F2E0ED2DE52086
:10144000F0E0E1EEF2FB2044535000CDE8E7EAEE95
:10145000E520EDE0EFF02E20E2FBF5EEE4E0000009
:10146000C2FBF1EEEAEEE520EDE0EFF02E20E2FB2C
:10147000F5EEE4E000CDE0F0F3F8E5ED20EEE1EC90
:10148000E5ED20F120D3CC000000CDE5E8F1EFF050
:10149000E0E2EDEEF1F2FC20F7E0F1EEE20000CD4B
:1014A000E5F220E1EBEEEAE020C1D1C70000000048
:1014B00000000000CEF8E8E1EAE020E2E5F0F1E823
:1014C000E820C1D1C700000000CDE5E8F1EFF02031
:1014D000EFE5F0E5EAEB2DE5E920C1D1C700CDE568
:1014E000F220F1E8E3EDE0EBE020CCC0CD0000001D
:1014F000000000C2EAEB2EEFE8F22FCFE5F0E5E7BF
:10150000E0EFF3F1EA000000C8E7ECE5EDE5EDE817
:10151000E520F0E5E6E8ECE00000000000CDE5E8BD
:10152000F1EFF020E7E0EF2E20E2FBF52EF6E5EFFD
:10153000E800CEF8E8E120EAEEEDF2F02E20E2FB42
:10154000F52EF6E5EFE800C0CA202D20D1EDE8E643
:10155000E5EDE8E520E7E0EFE0F1E000C0CA202D8E
:1015600020CDE5F220EEF2E2E5F2E000000000001E
:1015700000CEF2F1F3F22DE520F1E8E3EDE0EBE04F
:1015800020CFF3F1EA00CEF2F1F3F22DE520F1E8FD
:10159000E3ED20CEF1F2E0EDEEE200C2FBEAEBFE7D
:1015A000F7E5EDE8E520E0EFEFE0F0E0F2E0000045
:1015B000CFEEECE5F5E020E220EFEEEBEEF1E5001A
:1015C0000000000000CDE5E8F1EFF0E0E2EDEEF123
:1015D000F2FC20C4D4C700000000D3E43A20C0CA03
:1015E000202D20EDE5F220EEF2E2E5F2E00000D35E
:1015F000E43A20CFEEECE5F5E020E220EFEEEBEE72
:10160000F1E50000D3E43A20CDE5E8F1EFF02E203B
:10161000C4D4C7000000000000D3E43A20CDE5E8C0
:10162000F1EFF02E20F6E5EFE820E2FBF500CFEE3B
:10163000F0EEE320EFEE20EFEEECE5F5E500000044
:10164000000000D1EEE1FBF2E8E5202D202564004A
:101650000000000000000000D1EEE1FBF2E8E52010
:101660002D203000000000000000000000C2EAEB66
:101670002E20EFE8F2E0EDE8FF2FEFE5F0E5E7E000
:10168000EF00C2FBEAEBFEF7E5EDE8E520EFE8F25C
:10169000E0EDE8FF000000C8E7ECE5EDE5EDE8E58A
:1016A00020F0E5E6E8ECE020F0E0E100C8E7ECE55A
:1016B000EDE5EDE8E520EFE0F0E0ECE5F2F0EEE25C
:1016C00000CDE5E8F1EFF020F2E5F1F2E020CFD037
:1016D000C40000000000CDE5E8F1EFF020F2E5F1F4
:1016E000F2E020CFD0CC0000000000CDE5E8F1EF23
:1016F000F020E1EBEEEAE020C1D1C70000000000DD
:10170000CDE5E8F1EFF020E1EBEEEAE020C1D1CA4F
:101710000000000000C8E7ECE5EDE5EDE8E520E4B9
:10172000E0F2E02FE2F0E5ECFF00CDE5F220F1E899
:10173000E3EDE0EBE020ECE0EDE8EFF3EB2E00CDA5
:10174000E5E8F1EFF020E2FBF5EEE4EDEEE920F65E
:10175000E5EFE800CDE5F220F1E8E3EDE0EBE02095
:10176000D0C700000000000000CEF2F1F3F22DE53A
:1017700020F1E8E3EDE0EBE020CFF3F1EA00CEF278
:10178000F1F3F22DE520F1E8E3EDE0EBE020D1F21A
:10179000EEEF00CDE5E8F1EFF020F7F2E5EDE8FF40
:1017A00020EAEEECE0EDE400D1EEE1FBF2E8E5202A
:1017B0002D203136000000000000000000CDE5E8DB
:1017C000F1EFF02E20F0E0E1EEF2FB204453500068
:1017D0000000C2EEF1F1F2E0ED2DE520F0E0E1EEE7
:1017E000F2FB2044535000CDE8E7EAEEE520EDE0BF
:1017F000EFF02E20E2FBF5EEE4E00000C2FBF1EE9C
:10180000EAEEE520EDE0EFF02E20E2FBF5EEE4E07D
:1018100000CDE5F220CAD7203520F1E5EA20EDE041
:10182000202553000000CDE5F220CAD720EDE020AE
:101830002553000000000000000000C2EEF1F1F2AC
:10184000E0ED2DE520CAD720EDE020255300000073
:10185000C2EEF1F1F22EF3F02E20CAD720EDE020F7
:101860002553000000CDE5E8F1EFF020F7F22FE777
:10187000E0EF203252414D000000CDE5E8F1EFF0FD
:1018800020F7F22FE7E0EF20CFCBC8D1000000CD4A
:10189000E5E8F1EFF020F7F22FE7E0EF20464C41CA
:1018A00053480000CDE5E8F1EFF0E0E2EDEEF1F2B3
:1018B000FC20F7E0F1EEE20000D1EDE8E62EF3F0D7
:1018C0002E20CAD720EDE020255300000000CEF8DE
:1018D000E8E1EAE020F0E0E1EEF2FB20D6D1000002
:1018E000000000C2F5EEE420525820D6D120EFF3DC
:1018F000F1F2000000000000D0E0E1EEF2E020D6BE
:10190000D120E2EEF1F1F2E0EDEEE2EB00D1EEE11A
:10191000FBF2E8E5202D2025640000000000000017
:101920000000C7C0D90000CFD0CC3100CFD0CC321E
:1019300000CFD0C40000CEC1D90000CF312C32007E
:10194000CED8C10000D1EEE1FBF2E8E5202D202544
:1019500064000000000000000000C2EAEB2E20EF4F
:10196000E8F2E0EDE8FF2FEFE5F0E5E7E0EF00C299
:10197000FBEAEBFEF7E5EDE8E520EFE8F2E0EDE865
:10198000FF000000C8E7ECE5EDE5EDE8E520F0E557
:10199000E6E8ECE020F0E0E100D1EEE1FBF2E8E582
:1019A000202D202564000000000000000000CDE58F
:1019B000E8F1EFF020F2E5F1F2E020CFD0C4000032
:1019C000000000CDE5E8F1EFF020F2E5F1F2E020D3
:1019D000CFD0CC0000000000CDE5E8F1EFF020E131
:1019E000EBEEEAE020C1D1C70000000000CDE5E841
:1019F000F1EFF020E1EBEEEAE020C1D1CA000000F7
:101A00000000CDE5E8F1EFF020EFE5F0E5EAEB2DA1
:101A1000E5E920C1D1C700CDE5F220F1E8E3EDE032
:101A2000EBE020ECE0EDE8EFF3EB2E00CDE5E8F1A4
:101A3000EFF020E2FBF5EEE4EDEEE920F6E5EFE86D
:101A400000CDE5F220D0C7203520F1E5EA20EDE019
:101A5000202553000000CEF2F1F3F22DE520F1E84D
:101A6000E3EDE0EBE020CFF3F1EA00CEF2F1F3F2A8
:101A70002DE520F1E8E3EDE0EBE020D1F2EEEF0020
:101A8000CDE5E8F1EFF020F7F2E5EDE8FF20EAEE32
:101A9000ECE0EDE400D1EDE8E62E20F3F02E20CAD4
:101AA000D720EDE0202553000000CDE5E8F1EFF070
:101AB0002E20F0E0E1EEF2FB20445350000000C283
:101AC000EEF1F1F2E0ED2DE520F0E0E1EEF2FB20A9
:101AD00044535000CDE8E7EAEEE520EDE0EFF02ECC
:101AE00020E2FBF5EEE4E00000C2FBF1EEEAEEE5F9
:101AF00020EDE0EFF02E20E2FBF5EEE4E000CDE596
:101B0000F220CAD7203520F1E5EA20EDE020255368
:101B1000000000CDE5F220CAD720EDE020255300DB
:101B20000000000000000000C2EEF1F1F2E0ED2D37
:101B3000E520CAD720EDE0202553000000C2EEF1D9
:101B4000F1F22E20F3F02ECAD720EDE0202553002D
:101B50000000CDE5E8F1EFF020F7F22FE7E0EF200D
:101B60003252414D000000CDE5E8F1EFF020F7F2F0
:101B70002FE7E0EF20CFCBC8D1000000CDE5E8F1A2
:101B8000EFF020F7F22FE7E0EF20464C41534800FA
:101B900000CDE5E8F1EFF0E0E2EDEEF1F2FC20F748
:101BA000E0F1EEE20000D1EDE8E62E20F3F02E2089
:101BB000D0C720EDE0202553000000C2EEF1F1F285
:101BC000E0ED2DE520D0C720EDE0202553000000FA
:101BD000CDE5F220D0C720EDE02025530000000025
:101BE0000000000000C2EEF1F1F22E20F3F02ED042
:101BF000C720EDE0202553000000D1EEE1FBF2E824
:101C0000E5202D202564000000000000000000D128
:101C1000EEE1FBF2E8E5202D202564000000000045
:101C200000000000CDE5E8F1EFF020F7F22FE7E04B
:101C3000EF20464C4153480000CDE5E8F1EFF0209D
:101C4000F7F22FE7E0EF203252414D000000CDE5E2
:101C5000E8F1EFF020F7F22FE7E0EF20CFCBC8D18B
:101C6000000000D1EEE1FBF2E8E5202D2025640024
:101C70000000000000000000CDE5E8F1EFF020F2E8
:101C8000E5F1F2E020CFD0C40000000000CDE5E88F
:101C9000F1EFF020E2FBEAEB2EF2E5F1F220CFD0FB
:101CA000C400CDE5E8F1EFF020F2E5F1F2E020CF5D
:101CB000D0CC0000000000CDE5E8F1EFF020F7F215
:101CC0002EEAEEECE0EDE420C1D1CA00CDE5F22031
:101CD000E1EBEEEAE020C1D1CA0000000000000004
:101CE00000CEF8E8E1EAE020E2E5F0F1E8E820C122
:101CF000D1CA00000000CEF2EAE0E720F0E5E7E517
:101D0000F0E22E20EBE8EDE8E80000CDE5E8F1EFA9
:101D1000F0E0E2EDEEF1F2FC20F7E0F1EEE200009F
:101D2000CDE5F220E1EBEEEAE020C1D1C7000000F2
:101D30000000000000CEF8E8E1EAE020E2E5F0F182
:101D4000E8E820C1D1C700000000CDE5E8F1EFF0E0
:101D500020EFE5F0E5EAEB2DE5E920C1D1C700CDA4
:101D6000E5F220F1E8E3EDE0EBE020CCC0CD0000AF
:101D700000000000C2EAEB2EEFE8F22FCFE5F0E51D
:101D8000E7E0EFF3F1EA000000C8E7ECE5EDE5ED90
:101D9000E8E520F0E5E6E8ECE00000000000CDE535
:101DA000E8F1EFF020E7E0EF2E20E2FBF52EF6E57C
:101DB000EFE800CEF8E8E120EAEEEDF2F02E20E2C6
:101DC000FBF52EF6E5EFE800CFF0EEEFE0EBE020DC
:101DD000CAD70000000000000000000000CDE5F2BE
:101DE00020CAD7203520F1E5EAF3EDE40000000039
:101DF0000000CEF2F1F3F22DE520F1E8E3EDE0EBA7
:101E0000E020CFF3F1EA00CEF2F1F3F22DE520F17C
:101E1000E8E3ED20CEF1F2E0EDEEE200C2FBEAEB0A
:101E2000FEF7E5EDE8E520EFE8F2E0EDE8FF000081
:101E300000CFF0EEEFE0EBE020CAD700000000009A
:101E4000000000000000CDE5F220CAD7203520F1C7
:101E5000E5EAF3EDE4000000000000D3E43A20EFEF
:101E6000EEF1F220EDE5E8F1EFF0E0E2E5ED000063
:101E7000D3E43A20CFD0C420EDE5E8F1EFF0E0E282
:101E8000E5ED000000D3E43A20CFD0CC20EDE5E82A
:101E9000F1EFF0E0E2E5ED000000D1EEE1FBF2E869
:101EA000E5202D202564000000000000000000D186
:101EB000EEE1FBF2E8E5202D2025640000000000A3
:101EC00000000000D1EEE1FBF2E8E5202D202564C2
:101ED000000000000000000000C6F3F0EDE0EB5C45
:101EE000D1EEE1FBF2E8FF0025642E20CFE5F0E51E
:101EF000E4E0F2F7E8EA0025642E20CFF0E8E5EC14
:101F0000EDE8EA0025642E20C7E0F9E8F2E00025BC
:101F1000642E20D1EEE1FBF2E8FF00CCE5EDFE5CA3
:101F2000C6F3F0EDE0EB00C1D1CF204D43552000CA
:101F3000C1D1CF204453502000CFC820204D43555D
:101F40002000C1D1CA20CFD0C43100C1D1CA20CF16
:101F5000D0C43200C1D1CA20CFD0CC3100C1D1CA47
:101F600020CFD0CC3200C1D1C720CFCBC8D100EE1A
:101F7000F8E8E1EAE000000025533A202530325825
:101F80002E2530325800CCE5EDFE5CC8EDF4EEF0C5
:101F9000ECE0F6E8FF0025642E20C8EDF4EEF0EC4E
:101FA000E0F6E8FF0025642E20D2E5F1F2FB0025E3
:101FB000642E20CDE0F1F2F0EEE9EAE00025642E97
:101FC00020D3EFF0E0E2EBE5EDE8E50025642E201C
:101FD000C6F3F0EDE0EB00CCE5EDFE00C0CA2DEE5F
:101FE000F8E8E10000C0CA2DEDEEF0EC0000C0CA38
:101FF0002DEDEEF0EC0000C0CA2DF3F1EAEEF0009A
:10200000C0CA2DE2FBEAEB0000C0CA2DE1E5E3EB1C
:102010000000C0CA2DE8F1EFFBF200C0CA2DEFF3BB
:10202000F1EA0000C0CA2DEEE4EDEEF100C0CA2DC9
:10203000EEF8E8E10000C0CA2DE0E2F2EE0000D1C7
:10204000EEE2ECE5F1F2E8EC2E20255300253032EB
:10205000643A253032643A25303264002020202052
:10206000C8EDE8F6E8E0EBE8E7E0F6E8FF2020203E
:1020700000202020EDE520EEEFF0E5E4E5EBE5EDD6
:1020800021212120200020202020D2E8EF20E0EF95
:10209000EFE0F0E0F2E02020202000CDE5E8F1EFD5
:1020A000F0E0E2EDEEF1F2FC00CFF0E5E4F3EFF06A
:1020B000E5E6E4E5EDE8E500CDE5E8F1EFF02EF743
:1020C000F22E20464C41534800CDE5E8F1EFF02ECA
:1020D000E7E0EF2E464C41534800CDE5E8F1EFF044
:1020E0002EF7F22E20504C495300CDE5E8F1EFF0E9
:1020F0002EE7E0EF2E504C495300CDE5E8F1EFF02C
:102100002EE7E0EF2E3252414D00CDE5E8F1EFF041
:102110002EF7F22E203252414D2000D3F1F2E0EDA5
:10212000EEE2E8F2E520F7E0F1FB00CEF2EAE0E7CC
:1021300020F0E5E7E5F0E22EEBE8ED00D3E4E0EB9C
:102140002ECFCED1D220EDE5E8F1EFF000D3E4E0E0
:10215000EB2ECFD0C420EDE5E8F1EFF000D3E4E0C2
:10216000EB2ECFD0CC20EDE5E8F1EFF000CDE5F29D
:1021700020E1EBEEEAE020C1D1C700CDE5E8F1EFC8
:10218000F02EE2E5F0F12EC1D1C700CDE5E8F1EF88
:10219000F02EEFE5F0E5EAEB2E00CDE5F220F1E8D8
:1021A000E3EDE0EBE020CFD0CC00CDE5E8F1EFF0BF
:1021B0002EE2F5EEE42ECFD3D1CA00CDE5E8F1EF63
:1021C000F02EE2F5EEE42ED1D2CECF00CDE5E8F14F
:1021D000EFF02EF6E5EFFC2E20C2DBD500CDE5E8D2
:1021E000F1EFF02EE7E0EF2E20C2DBD500CDE5F2D7
:1021F00020CAD700CDE5F220F1E8E3EDE0EBE020E6
:10220000CCC0CD00CDE5F220E1EBEEEAE020C1D17B
:10221000CA00CDE5E8F1EFF02EE2E5F0F12E20C1A5
:10222000D1CA00CDE5F220CAD700CDE5E8F1EFF044
:102230002EE7E0EF2E20C1D1CA00CDE5E8F1EFF0A6
:102240002EE2FBEAEB2E20CAD1CA00CDE5E8F1EF81
:10225000F02EE2EAEB2E20CAD1CA00CDE5E8F1EF7C
:10226000F02EEAEEEDF2F02ECAD1CA00CDE5F22052
:10227000CAD700CDE5F220E1EBEEEAE020C1D1CAF9
:1022800000CDE5E8F1EFF02EE2E5F0F12E20C1D12E
:10229000CA00CDE5E8F1EFF02EF7F22EEAEEECE021
:1022A000EDE400CDE5E8F1EFF02EE2FBEAEB2ED213
:1022B000E5F1F200CDE5E8F1EFF02EE2EAEB2E20B9
:1022C000D2E5F1F200CDE5E8F1EFF02EE2F5EEE433
:1022D0002E20CAD1CA00C0CA2DCDE5F220EEF2E20E
:1022E000E5F2E000C0CA2DD1EDE8E6E5ED2EE7E02D
:1022F000EFE0F1E000CFEEECE5F5E020E220EBE8E6
:10230000EDE8E800CDE5E8F1EFF02E44535020323F
:1023100052414D2000D2EEEA20EFEEEAEEFF00CD72
:10232000E8E7EAEEE520EDE0EFF02EE2FBF500C293
:10233000FBF1EEEAEEE520EDE0EFF02EE2FBF5003A
:10234000CDE5E8F1EFF02E20CCCA20D3CC00C2D7E7
:1023500020F2F0E0EAF220E2EEF1F1F22E00C0CA43
:102360002DCDE5F220EEF2E2E5F2E000CDE5E8F178
:10237000EFF02EF3E4E0EB2E20C4D4C700CDE5E867
:10238000F1EFF02EF3E4E0EB2E20C2DBD500D3E436
:102390002ECFCED1D220E1E5E720EEF2E22E00D31F
:1023A000E42ECFCED1D220EEE1ED2EEFEEEC2E00DA
:1023B000C4EBE8F2E5EBFCED2E20EFEEECE5F5E00A
:1023C00000CDE5E8F1EFF02E20C4D4C700C0CA2D3F
:1023D000D1EDE8E6E5ED2EE7E0EFE0F1E000CFEE4D
:1023E000F0EEE320EFEE20EFEEECE5F5E500C0E2E5
:1023F000F2EEEAEEEDF2F0EEEBFC00CDE5F220F1CC
:10240000E8E3EDE0EBE020D0C700CDE8E7EAE8E95B
:1024100020F3F0EEE22E20D0C700D1EDE8E62E202A
:10242000F3F0EEE2EDFF20CFD0CC00CEF8E8E1EA09
:10243000E020F0E0E1EEF2FB20D6D100C2F5EEE4C0
:1024400020525820D6D120EFF3F1F200CEF8E8E187
:10245000EAE020F0E0E1EEF2FB20D6D100C2F5EE9A
:10246000E420525820D6D120EFF3F1F20020CDE540
:10247000F220F1E2FFE7E820F120C1D1CF212121B4
:102480002000C8F1F5EEE4ED2E00CAEEEDF2F0EE1C
:10249000EBFC00CFF3F1EA00CEF1F2E0EDEEE2006A
:1024A000CDE5E8F1EFF02E00CF2EEDE5E8F1EFF00D
:1024B00000CEE6E8E4E0EDE8E500CDE0EB2EEFF35A
:1024C000F1EA00D3E42EEFF3F1EA00CDE5F220D0FB
:1024D000C700D0E5F7FC00CFD0C400CFD0CC00CEF1
:1024E000F8E8E1EAE000C8F1F5EEE4ED2E00CFD027
:1024F000CC20CAD72530317500CFD0CC20CFC02515
:1025000030327500CDE5F220CAD700CDE5E8F1EF15
:10251000F02E00CF2EEDE5E8F1EFF000CEE6E8E496
:10252000E0EDE8E500C1CBCA20CACC253032750009
:102530003F307830383F003F307830393F00D0E5C9
:10254000F7FC00CFD0C400CFD0CC00C8F1F5EEE44A
:10255000ED2E00CFD0C420CAD72530317500CFD0A2
:10256000C420CFC02530327500CDE5F220CAD70097
:10257000CDE5E8F1EFF02E00CF2EEDE5E8F1EFF03C
:1025800000CEE6E8E4E0EDE8E5003F307830373FA4
:1025900000CFD0C420D6D12530327500D1E8F1F279
:1025A000E5EC2E00D0E5F7FC00CFD0C400CFD0CCB6
:1025B00000C7C0D900CFD0CC00CFD0C400CDC5D289
:1025C00000000000000000004F00000007000700AE
:1025D000147F147F14242A7F2A122313086462367E
:1025E000495522400005030000001C224100004123
:1025F000221C0014083E081408083E080800503049
:1026000000000808080808006060000020100804A6
:10261000023E5149453E00427F40004261514946D9
:102620002141454B311814127F1027454545393C4F
:102630004A49493001710905033649494936064975
:1026400049291E00363600000056360000081422C4
:1026500041001414141414004122140802015109F9
:1026600006324971413E7E1111117E7F494949363A
:102670003E414141227F4141221C7F494949417FDE
:10268000090909013E4149493A7F0808087F00418C
:102690007F41002040413F017F081422417F40409C
:1026A00040407F020C027F7F0408107F3E41414181
:1026B0003E7F090909063E4151215E7F09192946DD
:1026C000464949493101017F01013F4040403F1FD8
:1026D0002040201F3F4070403F63140814630708E8
:1026E0007008076151494543007F414100020408D9
:1026F00010200041417F000402010204404040409C
:1027000040000102040020545454787F4844443867
:102710003844444420384444487F385454541808BA
:102720007E0901020C5252523E7F08040478004494
:102730007D40002040443D007F1028440000417F40
:1027400040007C041804787C08040478384444442D
:10275000387C14141408081414187C7C0804040829
:102760004854545420043F4440203C4040207C1CAA
:102770002040201C3C4030403C44281028440C5051
:1027800050503C4464544C44000836410000007FE3
:102790000000004136080002010202011414141462
:1027A000140E0A0E00007F7F7F7F7F7F7F7F7F7FF9
:1027B0007F7F7F7F7F7F7F7F7F7F7F7F7F7F7F7F29
:1027C0007F7F7F7F7F7F7F7F7F7F7F7F7F7F7F7F19
:1027D0007F7F7F7F7F7F7F7F7F7F7F7F7F7F7F7F09
:1027E0007F7F7F7F7F7F7F7F7F7F7F7F7F7F7F7FF9
:1027F0007F7E1111117E7F494949337F494949360E
:102800007F01010103E0514F41FF7F494949417771
:10281000087F087741494949367F1008047F7C21A9
:1028200012097C7F0814224120413F017F7F020C66
:10283000027F7F0808087F3E4141413E7F01010140
:102840007F7F090909063E4141412201017F0101C3
:1028500047281008071C227F221C63140814637F7A
:10286000404040FF070808087F7F407F407F7F404F
:102870007F40FF017F4848307F4830007F007F481D
:102880004830224149493E7F083E413E46291909C8
:102890007F20545454783C4A4A49317C545428008F
:1028A0007C0404040CE0544C44FC38545454186C1C
:1028B000107C106C44445454287C2010087C7C41CB
:1028C00022117C7C1028440020443C047C7C0810AD
:1028D000087C7C1010107C38444444387C04040488
:1028E0007C7C14141408384444442004047C0404FC
:1028F0000C5050503C3048FC483044281028447C50
:10290000404040FC0C1010107C7C407C407C7C40A3
:102910007C40FC047C5050207C5050207C7C5050EB
:10292000200028445454387C103844380854341457
:102930007C003EB811241FBECFEFD0E1DEBFCDBF7B
:1029400080B58B7F80BD9FEF9ABB1BBA17BA98BB2F
:1029500080EE84BB8FE185BB80E381BB8FEC82BBC3
:1029600080EC82B993B98EE08093610081EF80930F
:102970006200109264009093650082B1806C82B90D
:1029800017BE8BE083BF88E181BF87B7826087BFB6
:102990001FBC8CE08EBD10927A001DBC1CBC80E771
:1029A00092E09BBD8ABD87B7806187BF2CE088E13C
:1029B00090E00FB6F894A89581BD0FBE21BD13E03D
:1029C000A0E0B1E0EAE2FEE701E00BBF02C0079041
:1029D0000D92AE3EB107D9F71DE0AEEEB3E001C0F7
:1029E0001D92AC33B107E1F719E2C4E3D9E204C0A8
:1029F0002297FE010E94CCBBC233D107C9F70E94C7
:102A000043BA0C9413BF0C940000FC01662311F12F
:102A1000278180852430C1F02630B1F02930A1F023
:102A20002B3091F0223049F490E083709070892B24
:102A300011F08CE10AC08DE108C021502C3010F457
:102A40008FE103C080E001C08EE1861718F0668335
:102A500081E0089580E2868380E00895FC01CB0147
:102A600020E005C080FD05C02F5F969587950097F3
:102A7000C9F7E25AFF4F219371836083EF55F0400D
:102A800080E004C060FD8F5F7695679561157105E4
:102A9000C9F7EF59FF4F808381E00895FC01CB0116
:102AA00020E005C080FD05C02F5F969587950097B3
:102AB000C9F7EE59FF4F219371836083E356F040CD
:102AC00080E004C060FD8F5F7695679561157105A4
:102AD000C9F7EB59FF4F808381E00895FC018185A0
:102AE000833019F491E081E208C0823091F08130A6
:102AF00081F0882361F09FEF80E0691728F0861746
:102B000018F0638781E00895838780E008958DE061
:102B1000F6CF82E0F4CF0F931F93CF93DF938C0116
:102B2000EB01FC01A0E050E08991848B41E020E0C2
:102B300030E0682F70E0842F90E086239723892B64
:102B400009F0AF5F440F2F5F3F4F2830310599F7F1
:102B50005F5F3196543041F7F801A08F81E0DF913B
:102B6000CF911F910F910895FC0120E0CB0180705F
:102B7000907C892B09F021E0258F7F73838D948DC4
:102B80008617970710F480E00895222331F0928F82
:102B9000818F778F668F81E00895728F618F178E96
:102BA000168E81E00895662379F020E031E070E030
:102BB0002F5F832F90E086239723892B11F0822F9C
:102BC0000895330F2830A1F780E00895EF92FF9227
:102BD0000F931F93CF93DF93EC01FB01808180FF64
:102BE00002C082E02CC081FF02C083E028C07B01CC
:102BF0000894E11CF11CCE016181D5DF882311F01E
:102C00008E5E1DC087010F5F1F4FCE01F7016181EE
:102C1000CADF882311F0865E12C078010894E11C97
:102C2000F11CCE01F8016181BEDF882311F08E5DB9
:102C300006C0CE01F7016181B6DF8111865DDF91AB
:102C4000CF911F910F91FF90EF9008951F93FB017B
:102C500010811F7061816F7049F0A5DF12FF02C003
:102C6000865F24C013FF21C0825F20C01123E9F0DA
:102C7000E12FF0E0CF0186709070069711F488E0A4
:102C800015C0CF018A7090700A9711F489E00EC0C8
:102C9000CF0185709070059711F486E007C0E97048
:102CA000F070399711F487E001C080E01F9108951A
:102CB000FC018285868380E00895FF920F931F9325
:102CC000CF93DF93EC01AC81BD8111968C9111976C
:102CD000613069F4EA81FB818481FD01E957FF4F8E
:102CE000883010F4808396C288E0808392C262307C
:102CF00071F5EA81FB818481882349F0833038F4BF
:102D0000A857BF4F8C93A858B04061E002C083E041
:102D100060E0A857BF4F8C932C813D81EA81FB81F5
:102D20009481892F8150823010F084E00AC0F9012B
:102D3000E15AFD4F8081891711F481E002C0908330
:102D400082E081FF67C2EC81FD81108263C2633043
:102D500049F4EA81FB818481843608F05AC2A7577E
:102D6000BF4FD7C06430F1F4EA81FB81848186953E
:102D700090E0880F991F833110F060E004C0A557E0
:102D8000BF4F8C9361E0AC81BD81EA81FB8185817D
:102D9000869590E0880F991F833108F03BC2A457B5
:102DA000BF4F78C0653009F05EC0843019F08130C3
:102DB00009F04CC0EA81FB818481893410F090E0F5
:102DC00004C0A456BF4F8C9391E0AC81BD81EA81D1
:102DD000FB812581293410F020E004C0A356BF4FA9
:102DE0002C9321E0AC81BD81EA81FB81468149348D
:102DF00010F040E004C0A256BF4F4C9341E0AC81BC
:102E0000BD81EA81FB818781893410F070E004C0C4
:102E1000A156BF4F8C9371E030E0892F90E0282BB2
:102E2000392B50E080E090E0232B11F081E090E01E
:102E3000482B592B60E0872F90E020E030E0452BB5
:102E400011F021E030E0822B932B9BC0EA81FB81C3
:102E50008481869590E0880F991F873308F0D9C147
:102E6000A657BF4F56C06630B9F4EA81FB81848112
:102E7000813210F060E004C0A257BF4F8C9361E034
:102E8000AC81BD81EA81FB818581813208F0C2C1BC
:102E9000A157BF4F8C93BEC16730E1F4823049F433
:102EA000EA81FB818481833008F0B3C1A057BF4F12
:102EB00030C0843009F0ADC1EA81FB818481823069
:102EC00008F0A7C1FD01EC56FF4F1082882309F4DA
:102ED0009EC19BC1683049F4EA81FB8184818630C0
:102EE00008F097C1A556BF4F0CC06930A1F4EA8124
:102EF000FB81843041F48481863008F08AC1A65673
:102F0000BF4F8C9386C18481813108F082C1A35761
:102F1000BF4F8C937CC16A30C1F5EA81FB819481FB
:102F2000892F8150893010F0FF2405C0AF56BF4F64
:102F30009C93FF24F3940C811D81EA81FB816581C0
:102F400076818781908528EE33E040E050E00E9452
:102F5000A8BBC901DA0181362AEE920720E0A20758
:102F600020E0B20710F080E006C00E561F4FF801B7
:102F70009183808381E090E02F2D30E0822B932B92
:102F800060E0892B09F446C142C1613C69F4EA81E1
:102F9000FB81758160E08481680F711DCD018656CB
:102FA0009D4FE2DD682F36C1623C09F032C1AD555C
:102FB000BD4F8C91A35AB240882309F02AC1442303
:102FC00009F027C1EA81FB814389842F90E074E0F6
:102FD000959587957A95E1F79C0163E0220F331F61
:102FE0006A95E1F7880F991F280F391F4F70420F1C
:102FF000FD01EE55FD4F443610F4408301C01082B0
:10300000AC81BD81EA81FB814289842F90E004E09C
:10301000959587950A95E1F79C0113E0220F331FE0
:103020001A95E1F7880F991F280F391F4F70420F2B
:10303000842F8150AF55BD4F8C3010F44C9302C09B
:103040008DE08C93EA81FB8161898C819D81262FA3
:1030500030E0E4E035952795EA95E1F7A90173E0C2
:10306000440F551F7A95E1F7220F331F420F531F6C
:103070006F70640F86569D4FC8DCAC81BD81EA81BC
:10308000FB814785842F90E014E0959587951A95EC
:10309000E1F79C01F3E0220F331FFA95E1F7880F67
:1030A000991F280F391F4F70420FA256BD4F48314C
:1030B00010F44C9302C089E18C93AC81BD81EA810C
:1030C000FB814685842F90E074E0959587957A95ED
:1030D000E1F79C0163E0220F331F6A95E1F7880F47
:1030E000991F280F391F4F70420FA356BD4F4C3305
:1030F00010F44C9302C08DE38C93AC81BD81EA81C6
:10310000FB814585842F90E024E0959587952A954D
:10311000E1F79C0103E0220F331F0A95E1F7880FC6
:10312000991F280F391F4F70420FA456BD4F4C33C3
:1031300010F44C9302C08DE38C93EA81FB8194855B
:1031400080E02385820F911DEC81FD81E656FD4FC5
:1031500023E0883E920710F088EE93E0918380830D
:10316000AC81BD81EA81FB818481AC55BD4F863045
:1031700008F086E08C93AC81BD81EA81FB814781B8
:103180004F7085818295807F480F242F30E0A955AC
:10319000BD4FC901F4E096958795FA95E1F78170E6
:1031A0008D93C901E5E096958795EA95E1F78170E1
:1031B0008D93C90176E0969587957A95E1F78170B0
:1031C0008D93C901817090708D93C90196958795F3
:1031D00081708C93AB5AB240FD01E455FD4F1082D3
:1031E00023703070232B11F081E08083A355BD4FF5
:1031F0004C938C819D81EA81FB8186569D4F66812F
:103200006DDCEC81FD81E154FD4F81E0808361E064
:1032100001C060E0862FDF91CF911F910F91FF9049
:1032200008950F931F93CF93DF93EC01683109F456
:1032300085C0693178F4633109F448C0643120F401
:10324000613109F0E3C216C0643101F1673109F060
:10325000DDC264C06C3109F4B7C06D3120F469314E
:1032600009F0D4C28FC0613D09F4DBC0623D09F0B2
:10327000CDC2EEC0AC81BD81EA81FB8184818B30FF
:1032800008F0C4C2A55FBE4F8C93D0C1EC81FD8114
:10329000E45FFE4FAA81BB8114968C918083EC8100
:1032A000FD81E35FFE4FAA81BB8115968C918083DF
:1032B000EC81FD81E25FFE4FAA81BB8116968C9165
:1032C0008083EC81FD81E15FFE4F57C04C815D81C1
:1032D0001A81812F9B819C01D90121E0EA01C65FFF
:1032E000DE4F05E015C014968C91149765E00E949E
:1032F00068BB809FC00111248536910510F020E045
:1033000006C0FA01E30FF11DE05FFE4F80831196C6
:103310003A2F311B8881381730F379C22C813D81D7
:10332000EA81FB818481823008F070C2F901E05D9E
:10333000FE4F1082882309F479C176C1EC81FD81AA
:10334000EF5CFE4FAA81BB8114968C918083EC8147
:10335000FD81EE5CFE4FAA81BB8115968C91808326
:10336000EC81FD81ED5CFE4FAA81BB8116968C91AC
:103370008083EC81FD81EC5CFE4FAA81BB811796B6
:103380008C9153C14C815D816A81862F9B819C0108
:10339000D90121E0EA01C65FDE4F10C014968C917E
:1033A0001497882349F0813238F4FA01E90FF11DAE
:1033B000EB5CFE4F808301C020E011969A2F961B94
:1033C0008881981758F323C2AC81BD8111968C91E6
:1033D0001197833011F080E01EC0EA81FB81948157
:1033E000990F990F913210F024E001C020E0FD0107
:1033F000E65FFE4F8081891719F4822F81600BC030
:103400009083FD01E75FFE4F1082992311F081E068
:103410008083822F826081FFF9C1EC81FD8110825F
:10342000F5C1AC81BD81AD55BD4F8C91A35AB24061
:10343000813009F0EBC1EA81FB81758160E0848114
:10344000680F711DCD0186569D4F8EDB282FDFC181
:10345000EC81FD81ED55FD4F8081E35AF2408130D2
:1034600009F0D4C1442309F0D1C18181AA81BB8173
:10347000853009F0DDC018968C91282F30E074E07B
:10348000359527957A95E1F7A90163E0440F551F1B
:103490006A95E1F7220F331F420F531F8F70840F7D
:1034A000EE55FD4F843610F4808301C01082AC814C
:1034B000BD81EA81FB814185842F90E004E09595F0
:1034C00087950A95E1F79C0113E0220F331F1A95A7
:1034D000E1F7880F991F280F391F4F70420F842F73
:1034E0008150AF55BD4F8C3010F44C9302C08DE02D
:1034F0008C93EA81FB8162858C819D81262F30E04F
:10350000E4E035952795EA95E1F7A90173E0440FCA
:10351000551F7A95E1F7220F331F420F531F6F702B
:10352000640F86569D4F71DAAC81BD81EA81FB81C3
:103530004385842F90E014E0959587951A95E1F7DF
:103540009C01F3E0220F331FFA95E1F7880F991FD2
:10355000280F391F4F70420FA256BD4F483110F44B
:103560004C9302C089E18C93AC81BD81EA81FB81DF
:103570004485842F90E074E0959587957A95E1F7DE
:103580009C0163E0220F331F6A95E1F7880F991FB2
:10359000280F391F4F70420FA356BD4F4C3310F404
:1035A0004C9302C08DE38C93AC81BD81EA81FB8199
:1035B0004585842F90E024E0959587952A95E1F73D
:1035C0009C0103E0220F331F0A95E1F7880F991F32
:1035D000280F391F4F70420FA456BD4F4C3310F4C3
:1035E0004C9302C08DE38C93EA81FB81968580E049
:1035F0002785820F911DEC81FD81E656FD4F23E06A
:10360000883E920710F088EE93E0918380838C814E
:103610009D816A817B816C5F7F4F86569D4F7BDAEF
:10362000EC81FD81E154FD4F81E0808321E0EFC01A
:1036300053968C91282F30E0A4E035952795AA95D4
:10364000E1F7A90173E0440F551F7A95E1F7220FC6
:10365000331F420F531F8F70840FEE55FD4F84367A
:1036600010F4808301C01082AC81BD81EA81FB81AE
:103670004289842F90E024E0959587952A95E1F77B
:103680009C0103E0220F331F0A95E1F7880F991F71
:10369000280F391F4F70420F842F8150AF55BD4FF7
:1036A0008C3010F44C9302C08DE08C93EA81FB8146
:1036B00061898C819D81262F30E0F4E03595279536
:1036C000FA95E1F7A901E3E0440F551FEA95E1F708
:1036D000220F331F420F531F6F70640F86569D4F8A
:1036E00094D9AC81BD81EA81FB814785842F90E02C
:1036F00024E0959587952A95E1F79C0103E0220F38
:10370000331F0A95E1F7880F991F280F391F4F7053
:10371000420FA256BD4F483110F44C9302C089E1CC
:103720008C93AC81BD81EA81FB814685842F90E03A
:10373000F4E095958795FA95E1F79C01E3E0220F77
:10374000331FEA95E1F7880F991F280F391F4F7033
:10375000420FA356BD4F4C3310F44C9302C08DE37F
:103760008C93AC81BD81EA81FB814585842F90E0FB
:1037700064E0959587956A95E1F79C0153E0220FE7
:10378000331F5A95E1F7880F991F280F391F4F7083
:10379000420FA456BD4F4C3310F44C9302C08DE33E
:1037A0008C93EA81FB81948580E02385820F911DB3
:1037B000EC81FD81E656FD4F23E0883E920710F034
:1037C00088EE93E091838083AC81BD81EA81FB81A7
:1037D0008481AC55BD4F863008F086E08C932C81F7
:1037E0003D81EA81FB819581892F8150803228F4C7
:1037F000F901E454FD4F908311828C819D81EA810F
:10380000FB8186569D4F668169D90ACF20E0822FC1
:10381000DF91CF911F910F910895CF93DF93EC012A
:10382000673209F4A3C0683290F4643209F458C0D6
:10383000653230F46132F1F0623209F008C326C01B
:10384000653209F473C0663209F001C33DC06C32C1
:1038500009F4CDC06D3238F4683209F497C069328A
:1038600009F0F5C2B3C0613E09F4EFC0623E09F051
:10387000EEC201C1AC81BD81EA81FB8184818531C9
:1038800008F0E5C2A753BE4F8C934EC0EC81FD817A
:10389000E05AFD4F8081E056F240AA81BB81823020
:1038A00041F414968C91823008F4D1C2833348F0ED
:1038B000CEC214968C91843108F4C9C2853608F0C2
:1038C000C6C2ED52FE4F2FC02C813D81EA81FB81A3
:1038D0008481823008F0BBC2F901EE52FE4F51C024
:1038E000EC81FD81E653FE4FAA81BB8114968C9139
:1038F0008083EC81FD81E553FE4FAA81BB81159643
:103900008C918083EC81FD81E453FE4FAA81BB81C1
:1039100016968C918083EC81FD81E353FE4FAA8142
:10392000BB8117968C91808381E092C2EC81FD81EE
:10393000E253FE4FAA81BB8114968C918083EC8167
:10394000FD81E153FE4FAA81BB8115968C91808346
:10395000EC81FD81E053FE4FAA81BB8116968C91CC
:103960008083EC81FD81EF52FE4FD9CF2C813D81C8
:10397000EA81FB818481823008F069C2F901EB524F
:10398000FE4F1082882381F281E0CDCFEC81FD8152
:10399000E952FE4FAA81BB8114968C918083EC8101
:1039A000FD81E852FE4FAA81BB8115968C918083E0
:1039B000EC81FD81E752FE4FAA81BB8116968C9166
:1039C0008083EC81FD81E652FE4FA9CFAC81BD81A1
:1039D000EA81FB818481813210F080E004C0AA5228
:1039E000BE4F8C9381E0882309F432C29DCFAC8115
:1039F000BD8111968C911197833011F080E01FC02A
:103A0000EA81FB819481990F990F913218F024E09B
:103A100090E001C020E0FD01E853FE4F808189174E
:103A200019F4822F81600BC09083FD01E953FE4F92
:103A30001082992311F081E08083822F826081FFC0
:103A400006C2EC81FD81108202C2AC81BD81AD5500
:103A5000BD4F8C91A35AB240823009F0F8C1EA817F
:103A6000FB81758160E08481680F711DCD018656F0
:103A70009D4F7AD8EDC1EC81FD81ED55FD4F8081E0
:103A8000E35AF240823009F0E2C1442309F0DFC179
:103A90008181AA81BB81853009F0D8C018968C91AC
:103AA000282F30E094E0359527959A95E1F7A90104
:103AB000B3E0440F551FBA95E1F7220F331F420FB1
:103AC000531F8F70840FEE55FD4F843610F48083A2
:103AD00001C01082AC81BD81EA81FB814185842FC8
:103AE00090E074E0959587957A95E1F79C0163E005
:103AF000220F331F6A95E1F7880F991F280F391F8E
:103B00004F70420F842F8150AF55BD4F8C3010F451
:103B10004C9302C08DE08C93EA81FB8162858C819D
:103B20009D81262F30E0A4E035952795AA95E1F7F1
:103B3000A901F3E0440F551FFA95E1F7220F331F57
:103B4000420F531F6F70640F86569D4F0E940515DC
:103B5000AC81BD81EA81FB814385842F90E074E0D4
:103B6000959587957A95E1F79C0163E0220F331FC5
:103B70006A95E1F7880F991F280F391F4F70420F80
:103B8000A256BD4F483110F44C9302C089E18C938A
:103B9000AC81BD81EA81FB814485842F90E024E0E3
:103BA000959587952A95E1F79C01F3E0220F331F45
:103BB000FA95E1F7880F991F280F391F4F70420FB0
:103BC000A356BD4F4C3310F44C9302C08DE38C933D
:103BD000AC81BD81EA81FB814585842F90E074E052
:103BE000959587957A95E1F79C0163E0220F331F45
:103BF0006A95E1F7880F991F280F391F4F70420F00
:103C0000A456BD4F4C3310F44C9302C08DE38C93FB
:103C1000EA81FB81968580E02785820F911DEC81EA
:103C2000FD81E656FD4F23E0883E920710F088EEB6
:103C300093E0918380838C819D816A817B816C5F1D
:103C40007F4F86569D4F0E948B15FAC053968C91DC
:103C5000282F30E094E0359527959A95E1F7A90152
:103C6000B3E0440F551FBA95E1F7220F331F420FFF
:103C7000531F8F70840FEE55FD4F843610F48083F0
:103C800001C01082AC81BD81EA81FB814289842F11
:103C900090E074E0959587957A95E1F79C0163E053
:103CA000220F331F6A95E1F7880F991F280F391FDC
:103CB0004F70420F842F8150AF55BD4F8C3010F4A0
:103CC0004C9302C08DE08C93EA81FB8161898C81E9
:103CD0009D81262F30E0F4E035952795FA95E1F7A0
:103CE000A901E3E0440F551FEA95E1F7220F331FC6
:103CF000420F531F6F70640F86569D4F0E9405152B
:103D0000AC81BD81EA81FB814785842F90E024E06E
:103D1000959587952A95E1F79C01F3E0220F331FD3
:103D2000FA95E1F7880F991F280F391F4F70420F3E
:103D3000A256BD4F483110F44C9302C089E18C93D8
:103D4000AC81BD81EA81FB814685842F90E074E0DF
:103D5000959587957A95E1F79C0163E0220F331FD3
:103D60006A95E1F7880F991F280F391F4F70420F8E
:103D7000A356BD4F4C3310F44C9302C08DE38C938B
:103D8000AC81BD81EA81FB814585842F90E024E0F0
:103D9000959587952A95E1F79C01F3E0220F331F53
:103DA000FA95E1F7880F991F280F391F4F70420FBE
:103DB000A456BD4F4C3310F44C9302C08DE38C934A
:103DC000EA81FB81948580E02385820F911DEC813F
:103DD000FD81E656FD4F23E0883E920710F088EE05
:103DE00093E091838083AC81BD81EA81FB818481F2
:103DF000AC55BD4F863008F086E08C932C813D8118
:103E0000EA81FB819581892F8150803228F4F90164
:103E1000E454FD4F908311828C819D81EA81FB8166
:103E200086569D4F66810E946E15AC81BD81EA81E8
:103E3000FB818781833008F082E0A254BD4F8C93D0
:103E4000EC81FD81E154FD4F81E0808301C080E081
:103E5000DF91CF910895CF92DF92EF92FF920F936F
:103E60001F93CF93DF93EC01683309F4D5C5693311
:103E7000E8F4633309F4DEC5643350F4613309F4C4
:103E8000FAC16233A0F5603311F00C943128EDC013
:103E9000653309F437C4653308F454C2663309F452
:103EA00028C5673311F00C9431283EC56D3309F4F1
:103EB0006BC46E3370F46A3309F404C56A3308F4D2
:103EC0008EC46B3309F447C46C3311F00C94312861
:103ED00067C46F3309F4C9C26F3308F400C6613F89
:103EE00009F4A1C6623F11F00C943128B4C6AC812C
:103EF000BD81EA81FB814481842F90E074E0959537
:103F000087957A95E1F79C0163E0220F331F6A954C
:103F1000E1F7880F991F280F391F4F70420F443661
:103F200018F41E964C9302C01E961C92AC81BD8163
:103F3000EA81FB814581842F90E004E09595879587
:103F40000A95E1F79C0113E0220F331F1A95E1F760
:103F5000880F991F280F391F4F70420F842F8150EF
:103F60008C3018F41D964C9303C08DE01D968C93F5
:103F7000EA81FB8166818C819D81262F30E0E4E01F
:103F800035952795EA95E1F7A90173E0440F551F90
:103F90007A95E1F7220F331F420F531F6F70640FA2
:103FA00006960E940515AC81BD81EA81FB8147819F
:103FB000842F90E014E0959587951A95E1F79C0180
:103FC000F3E0220F331FFA95E1F7880F991F280FAE
:103FD000391F4F70420F483118F41A964C9303C0A2
:103FE00089E11A968C93AC81BD81EA81FB81408581
:103FF000842F90E074E0959587957A95E1F79C0180
:1040000063E0220F331F6A95E1F7880F991F280F8D
:10401000391F4F70420F4C3318F419964C9303C05C
:104020008DE319968C93AC81BD81EA81FB8141853A
:10403000842F90E024E0959587952A95E1F79C01DF
:1040400003E0220F331F0A95E1F7880F991F280F0D
:10405000391F4F70420F4C3320F418964C930C9438
:1040600033288DE318968C93FEC7EA81FB81AC81DF
:10407000BD81AD57BF4F8481873008F086E08C93B7
:10408000AC81BD81EA81FB8185818D3008F08DE0B6
:10409000AC57BF4F8C93EC81FD81EB57FF4FAA814A
:1040A000BB8116968C918083EA81FB81AC81BD81B6
:1040B000AA5FBE4F8781873008F086E08C93AC8181
:1040C000BD81EA81FB8180858D3008F08DE0A95F9C
:1040D000BE4F8C93EC81FD81E85FFE4FAA81BB81CE
:1040E00019968C918083EA81FB81AC81BD81AC53B0
:1040F000BE4F8285873008F086E08C93AC81BD810D
:10410000EA81FB8183858D3008F08DE0AB53BE4F93
:104110008C93EC81FD81EA53FE4FAA81BB811C96F2
:104120008C918083EC81FD818181833009F066C0B0
:10413000AA81BB8113969C911397E75FFE4F808104
:10414000E950F140882341F19D3030F1EB5AFE4FA8
:1041500050968C9180839D30F9F0EC81FD81EA5A74
:10416000FE4FAA81BB8151968C9180839E30A1F035
:10417000EC81FD81E95AFE4FAA81BB8152968C9158
:1041800080839F3049F0EC81FD81E85AFE4FAA817F
:10419000BB8153968C918083AC81BD81A953BE4F66
:1041A0008C91A75CB140882349F1913138F1A55237
:1041B000BE4FEA81FB8184898C939131F9F0EC81C7
:1041C000FD81E452FE4FAA81BB8155968C9180837C
:1041D0009231A1F0EC81FD81E352FE4FAA81BB81B7
:1041E00056968C918083933149F0EC81FD81E252A7
:1041F000FE4FAA81BB8157968C918083EC81FD8113
:10420000E953FE4F8081E75CF140882311F496E08A
:1042100005C0EC53FE4F9081E45CF140E75FFE4F38
:104220008081E950F140882359F0EA5FFE4F808198
:10423000E650F140963011F4982F02C0981392E0A6
:10424000EA57FF4F8081E658F040882369F0ED5728
:10425000FF4F8081E358F040963011F4982F04C04E
:10426000981711F092E003C0973008F096E0E65BF3
:10427000FD4F9083F8C6EA81FB818C819D8174811A
:1042800060E02581620F711D4D960E942E15EA8116
:10429000FB818C819D81768160E02781620F711D99
:1042A0004D960E944E15EA81FB818C819D8170851F
:1042B00060E02185620F711D80569F4F0E942E1570
:1042C000EA81FB818C819D81728560E02385620F8C
:1042D000711D80569F4F0E944E15EA81FB818C8193
:1042E0009D81748560E02585620F711D825A9E4F05
:1042F0000E942E15EA81FB818C819D81768560E08C
:104300002785620F711D825A9E4F0E944E15EA81C9
:10431000FB818C819D81708960E02189620F711D14
:104320008C519E4F0E942E15EA81FB818C819D81CC
:10433000728960E02389620F711D8C519E4F0E942B
:104340004E1591C6EA81FB818481882309F089C6D4
:10435000AC81BD81958180E02681820F911D23E093
:10436000883E920720F45A969C938E935997AC817D
:10437000BD81EA81FB81978180E02085820F911DBC
:1043800033E0883E930720F458969C938E9357977A
:10439000AC81BD81EA81FB8131858285343680F430
:1043A0006AE00E9468BB282F8A3050F48AE0389F68
:1043B000C0011124820F911D56969C938E935597A0
:1043C000AC81BD81EA81FB819385892F8D59873C22
:1043D00010F41F969C93AC81BD81EA81FB8194858A
:1043E000892F8D59873C10F450969C93AC81BD81E8
:1043F000EA81FB819585892F8D59873C10F4519670
:104400009C93AC81BD81EA81FB819685892F8D5972
:10441000873C10F452969C93AC81BD81EA81FB816C
:104420009785892F8D59873C10F453969C93AC81C6
:10443000BD81EA81FB819089892F8D59873C10F4D9
:1044400054969C93AC81BD81EA81FB81918980E087
:104450002289820F911DE1E089369E0708F003C68C
:104460005C969C938E935B97FEC5AC81BD81AA57E9
:10447000BF4F90E0EA81FB818481813009F491E0B3
:104480009C934C815D81EA81FB819581990F990F05
:10449000913210F024E001C020E0FA01E65FFE4F07
:1044A0008081891719F4022F01600BC09083FA01F3
:1044B000E75FFE4F1082992311F081E08083022F85
:1044C00002604C815D81EA81FB819781990F990F90
:1044D000913218F024E090E001C020E0FA01E853A6
:1044E000FE4F8081891719F4122F11600BC0908341
:1044F000FA01E953FE4F1082992311F081E0808385
:10450000122F12602C813D81EA81FB8190859150B0
:10451000892F8150823010F074E00AC0F901E15A0D
:10452000FD4F8081891711F471E002C0908372E021
:10453000AC81BD81EA81FB818085815011F483E0EB
:1045400007C0833029F0A857BF4F8C93A858B040BC
:10455000A857BF4F8C932C813D81EA81FB819185C7
:10456000892F8150833010F064E00AC0F901E05ACD
:10457000FD4F8081891711F461E002C0908362E0F1
:104580004C815D81EA81FB81425B5D4F928580E0D9
:104590002385820F911DDA018D939D93AD01948542
:1045A00080E02585820F911D8D939C93405552404C
:1045B0009685963018F024E096E001C020E0FA01DC
:1045C000EF59FD4F8081891719F4822F816003C054
:1045D0009083822F8260302F3160312B372B362B26
:1045E000382B4E5A5D4F84E191E0FA01819391930B
:1045F000AF01EA81FB812785922F92959F7080E021
:104600002F70820F911DDA018D939D932089922F37
:1046100092959F7080E02F70820F911D8D939D93D6
:104620002189922F92959F7080E02F70820F911DAB
:104630008D939D932289922F92959F7080E02F7089
:10464000820F911D8D939D93AD012389922F929599
:104650009F7080E02F70820F911D8D939C934C551D
:104660005240AC81BD81AA57BF4F8C91A658B04033
:104670009685882351F0963018F024E096E001C02A
:1046800020E0FD01EF59FD4F09C09B3018F024E0F8
:104690009BE001C020E0FD01EE59FD4F80818917AC
:1046A00019F4822F816003C09083822F8260282FAB
:1046B000232BEA81FB818381813188F094899730B3
:1046C00010F084E00AC0FA01E25AFD4F8081891798
:1046D00011F481E002C0908382E0282B06C0FA0129
:1046E000E25AFD4F80818111108230E021FF03C02A
:1046F000EC81FD811082369527953695279520957A
:104700002170B2C48C819D81EA81FB812481223099
:1047100010F020E009C0FC01ED59FD4F108222236A
:1047200011F081E0808321E0AC81BD8111968C91F4
:104730001197823009F098C4EA81FB818581882332
:1047400039F0843028F4A758BD4F8C9381E001C024
:1047500080E090E0BCC1AC81BD81EA81FB819481A5
:10476000992309F47EC4A15ABD4F8C91AF55B24034
:10477000823011F082E001C083E0891708F471C42F
:10478000AA59BD4F9C936FC42C813D81EA81FB8166
:104790008481823008F065C4F901E959FD4F5AC19E
:1047A000AC81BD81EA81FB818481873118F4A859ED
:1047B000BD4F8C93AC81BD81EA81FB8185818731BE
:1047C00018F4A459BD4F8C93AC81BD81EA81FB8163
:1047D0008681873108F047C4A359BD4F64C0AC81BE
:1047E000BD8111968C911197843009F062C0AF5948
:1047F000BD4F8C91A156B240843049F4EA81FB81CF
:104800008481853108F02DC4AE58BD4F4CC0833033
:1048100009F027C4EA81FB818481FD01ED58FD4F39
:10482000882309F483E08083EA81FB818581FD018F
:10483000EC58FD4F882309F483E08083EA81FB81F3
:10484000868162E10E9468BB92E1899FC0011124C8
:104850008B3528F4AB58BD4F8C93A557B240AA585E
:10486000BD4FEA81FB8187818C93A657B240EA81D4
:10487000FB81808562E10E9468BB92E1899F900183
:104880001124223138F02B3528F4A958BD4F2C9330
:10489000A757B240EA81FB818185882331F08530BA
:1048A00020F4A858BD4F8C93DEC3A858BD4F84E0B8
:1048B000FACFEA81FB818481863008F0D2C3A75900
:1048C000BD4FF1CFEA81FB81948180E02581820F89
:1048D000911DEC81FD818031910508F4C2C3B3E0E4
:1048E000893E9B0708F0BDC3E059FD4F918380834B
:1048F000BAC3AC81BD8111968C911197EA81FB817D
:10490000843051F48481823108F4ABC3833308F0DE
:10491000A8C3A159BD4FC7CF8481823008F0A1C37D
:10492000FD01E559FD4F96C0AC81BD8111968C917A
:1049300011978430B9F4EA81FB819481963018F0A4
:1049400024E096E001C020E0FD01EF59FD4F808199
:10495000891719F4522F516003C09083522F52606F
:1049600020E054C0EA81FB81833009F040C084819B
:10497000823010F020E009C0FD01E659FD4F1082A1
:10498000882311F081E0808321E06C817D81EA81C0
:10499000FB8195819B3018F044E09BE001C040E032
:1049A000FB01EE59FD4F8081891719F4542F516096
:1049B00003C09083542F52608C819D81EA81FB81DA
:1049C0004681423010F080E009C0FC01EB59FD4FF8
:1049D0001082442311F081E0808381E090E030E098
:1049E000822B932B20E0892B89F021E00FC084815A
:1049F000823010F020E009C0FD01E659FD4F108221
:104A0000882311F081E0808321E050E051FF2CC326
:104A1000EC81FD81108228C3AC81BD81EA81FB81DC
:104A20008481882309F41DC3883F08F01AC3A25962
:104A3000BD4F39CFAC81BD8111968C911197EA8120
:104A4000FB81853061F48481823008F00AC3FD0166
:104A5000EC59FD4F1082882309F405C3FFC28581FC
:104A60006AE00E9474BB482F552747FD509584810A
:104A70002AE08202C0011124480F591FEEEF40378F
:104A80005E0754F0F1E041395F0734F4A458BD4F9C
:104A90004D935C9331E001C030E0EA81FB81968167
:104AA00080E02781820F911DEC81FD812CEF8931FF
:104AB000920754F0A3E0883E9A0734F4E658FD4F7D
:104AC0009183808381E001C080E090E0232F30E07B
:104AD000822B932B20E0892B09F4C6C2C4C2CC8060
:104AE000DD80F6018181F0ECEF2EF2E0FF2EEC0C80
:104AF000FD1C0A80DB81C02DFE013496833059F401
:104B0000C701BF010E94E615182F2996C701BE01F3
:104B10000E94E6157FC0823059F4C701BF010E9490
:104B20002616182F2796C701BE010E94261672C0AE
:104B3000843099F58C81682F70E0CB018170907082
:104B400064FF17C0892B19F088E314E363C061FF89
:104B500003C088E315E35EC062FF03C088E316E389
:104B600059C063FD03C088E31AE054C088E317E32B
:104B700051C0892B19F088E312E04CC061FF03C0DB
:104B800088E313E047C062FF03C088E314E042C03B
:104B900063FF3EC088E315E03DC0853019F088E32F
:104BA00018E338C08C8180FF03C088E311E032C075
:104BB0008F010F5F1F4FC70161810E94D3158823AA
:104BC00019F0182F1E5E0CC0E8012196C701D8010C
:104BD00011966C910E94D315882321F0182F165E30
:104BE00088E318C08E010F5F1F4FC70169810E94C3
:104BF000D315882319F0182F1E5DF2CFC701F801D5
:104C000061810E94D315882319F0182F165DE8CF13
:104C100088E310E029EE32E0C20ED31ED6011D93C8
:104C2000FD0180831EC2AC81BD81AD55BD4F8C910D
:104C3000A35AB240833009F014C2EA81FB81758126
:104C400060E08481680F711DCD0186569D4F0E94E2
:104C5000B415282F09C2AC81BD81AD55BD4F8C91D3
:104C6000A35AB240833009F0FCC1442309F0F9C1D2
:104C700011968C911197EA81FB81853009F0E3C090
:104C80008185282F30E0E4E035952795EA95E1F716
:104C9000A90173E0440F551F7A95E1F7220F331FE6
:104CA000420F531F8F70840FFD01EE55FD4F843668
:104CB00010F4808301C01082AC81BD81EA81FB8148
:104CC0004285842F90E024E0959587952A95E1F719
:104CD0009C0103E0220F331F0A95E1F7880F991F0B
:104CE000280F391F4F70420F842F8150AF55BD4F91
:104CF0008C3010F44C9302C08DE08C93EA81FB81E0
:104D000063858C819D81262F30E0F4E035952795D1
:104D1000FA95E1F7A901E3E0440F551FEA95E1F7A1
:104D2000220F331F420F531F6F70640F86569D4F23
:104D30000E940515AC81BD81EA81FB814485842FE9
:104D400090E024E0959587952A95E1F79C0103E092
:104D5000220F331F0A95E1F7880F991F280F391F7B
:104D60004F70420FA256BD4F483110F44C9302C011
:104D700089E18C93AC81BD81EA81FB814585842FDB
:104D800090E0F4E095958795FA95E1F79C01E3E0D2
:104D9000220F331FEA95E1F7880F991F280F391F5B
:104DA0004F70420FA356BD4F4C3310F44C9302C0CA
:104DB0008DE38C93AC81BD81EA81FB814685842F94
:104DC00090E064E0959587956A95E1F79C0153E042
:104DD000220F331F5A95E1F7880F991F280F391FAB
:104DE0004F70420FA456BD4F4C3310F44C9302C089
:104DF0008DE38C93EA81FB81978580E02089820F87
:104E0000911DEC81FD81E656FD4FB3E0883E9B0786
:104E100010F088EE93E091838083AC81BD81EA81BC
:104E2000FB818481AA55BD4F873008F086E08C93C2
:104E30008C819D816A817B816B5F7F4F86569D4F00
:104E40000E948B1507C18389282F30E014E0359527
:104E500027951A95E1F7A901F3E0440F551FFA953C
:104E6000E1F7220F331F420F531F8F70840FFD0194
:104E7000EE55FD4F843610F4808301C01082AC8162
:104E8000BD81EA81FB814289842F90E074E0959591
:104E900087957A95E1F79C0163E0220F331F6A95AD
:104EA000E1F7880F991F280F391F4F70420F842F89
:104EB0008150AF55BD4F8C3010F44C9302C08DE043
:104EC0008C93EA81FB8161898C819D81262F30E062
:104ED00044E0359527954A95E1F7A90103E0440F91
:104EE000551F0A95E1F7220F331F420F531F6F70B2
:104EF000640F86569D4F0E940515EA81FB8140890B
:104F0000EC81FD81E156FD4F842F90E0B4E0959552
:104F10008795BA95E1F79C01A3E0220F331FAA956C
:104F2000E1F7880F991F280F391F4F70420F4083F8
:104F3000AC81BD81EA81FB814785842F90E064E0EC
:104F4000959587956A95E1F79C0153E0220F331FF1
:104F50005A95E1F7880F991F280F391F4F70420F9C
:104F6000A256BD4F483110F44C9302C089E18C9396
:104F7000AC81BD81EA81FB814685842F90E014E0FD
:104F8000959587951A95E1F79C01F3E0220F331F61
:104F9000FA95E1F7880F991F280F391F4F70420FBC
:104FA000A356BD4F4C3310F44C9302C08DE38C9349
:104FB000AC81BD81EA81FB814585842F90E074E05E
:104FC000959587957A95E1F79C0163E0220F331F51
:104FD0006A95E1F7880F991F280F391F4F70420F0C
:104FE000A456BD4F4C3310F44C9302C08DE38C9308
:104FF000EA81FB81948580E02385820F911DEC81FD
:10500000FD81E656FD4F23E0883E920710F088EEC2
:1050100093E091838083AC81BD81EA81FB818481AF
:10502000AC55BD4F863008F086E08C938C819D8115
:10503000EA81FB8186569D4F65810E946E15AC8189
:10504000BD81EA81FB818681AA55BD4F873008F07A
:1050500086E08C93EC81FD81E154FD4F81E08083FB
:1050600002C020E001C021E0822FDF91CF911F918B
:105070000F91FF90EF90DF90CF900895DC01462FC5
:105080001296ED91FC911397628116961C921697D9
:10509000862F807C8038A9F0803499F0862F807329
:1050A00019F4CD010C945D16803119F4CD010C94E6
:1050B0001119803219F4CD010C940D1CCD010C9402
:1050C0002B1F81E00895CF93DF93EC01862F80732F
:1050D00099F4613C41F1623C09F03EC0EC81FD81F4
:1050E000DF01AB56BD4F3C9111962C9181818430EC
:1050F00051F1CE0162EC2DC0803129F4613D99F06F
:10510000623D51F506C0803261F4613E61F0623E5D
:1051100019F5EC81FD81EB56FD4F20814181CE01D7
:1051200014C0613F19F4CE0119D217C0623FA1F437
:10513000EC81FD81DF01AB56BD4F3C9111962C9166
:105140008181843021F4CE01432FA8D106C0CE0145
:1051500062EF422F232FF9CF80E0DF91CF910895A6
:10516000CF93DF93DC011496ED91FC911597EF013D
:10517000CC56DD4F4881EB56FD4F2081E559F2407A
:10518000623B11F446E00FC0693B31F48181843009
:10519000D1F0CD0169EB1CC06C3BA9F06A3B99F0E2
:1051A000633B21F443E09E0147D213C0653B31F4D9
:1051B0008181823041F0CD0165EB0AC0673B41F44B
:1051C0008181833019F4CD0169D103C0CD0167EB32
:1051D00098D1DF91CF910895DC011496ED91FC9167
:1051E0001597EC56FD4F41912081643A21F0653AC4
:1051F00011F0683A11F4CD0151C183C1DC0114965C
:10520000ED91FC911597EC56FD4F4191208163394A
:1052100049F0643939F06A3909F4A0C1683911F0EC
:10522000693911F4CD013AC16CC1DC011496ED91DC
:10523000FC911597EC56FD4F41912081E559F240C4
:105240008181643811F0663811F4CD0108C06538E9
:1052500051F4843011F0813019F4CD0165E81EC19C
:10526000CD0165E84EC1CD014CC11F93CF93DF93B3
:10527000EC01862F807C803899F4862F807319F496
:10528000CE01D3DF58C0803119F4CE01B7DF53C04F
:10529000803219F4CE01A0DF4EC0CE0161DF4BC0D9
:1052A0008034B9F5623739F4EC81FD81EC56FD4F5D
:1052B000CE01408134C06E37A1F5EC81FD81EC5602
:1052C000FD4F8081E459F240813061F4EB56FD4F8F
:1052D000CE0141E02081E2D0EC81FD81EC56FD4F12
:1052E000108229C0EA56FD4F1081E659F240123073
:1052F00069F4E956FD4FCE016EE742E02081CED041
:10530000EC81FD81EC56FD4F108315C0CE016EE798
:1053100009C0882349F4643321F4CE0140E0F1D080
:105320000AC0CE011BD107C0803C19F090E080E09C
:1053300007C0CE01C8DE882311F094E001C090E0E0
:105340009E83DF91CF911F9108950F931F938C013E
:1053500051D083E791E0F801918380831F910F91F1
:105360000895CF93DF93DC011296CD91DC911397D2
:105370009A8181E016968C931697943799F4149637
:10538000ED91FC9115972281938182E08B83129697
:10539000ED91FC91139794831296ED91FC911397E4
:1053A000258316C0933711F080E015C08B818230C1
:1053B00079F49C8180E02D81820F911D1496ED91EE
:1053C000FC91159727E28031920710F49383828332
:1053D000CD018DD181E0DF91CF9108950F931F937F
:1053E0008C0108D089E791E0F801918380831F91B7
:1053F0000F910895FC018FE791E09183808373837F
:10540000628335832483418717821086138614862E
:10541000168212860895FC0184E0868380850895B3
:10542000CF93DF93EC01FB0180818535C9F4818145
:105430008A3AB1F423812B5F8985821788F0DB01DA
:1054400090E00BC08985981730F4EA81FB81E90F61
:10545000F11D8C9180839F5F1196921798F305C080
:105460001E8280E0DF91CF91089583E08E832887AC
:1054700081E0F8CFFC0123858681281761F49285AD
:10548000291759F084858F5F84878A3030F093879D
:10549000968314860895838714860895DC011296F6
:1054A000ED91FC91139785E580831296ED91FC9127
:1054B00013978AEA81831296ED91FC911397628388
:1054C0001296ED91FC91139782E083831296ED91F1
:1054D000FC91139744831296ED91FC9113972583C9
:1054E0001296ED91FC9113976E5F640F620F6683C5
:1054F00087E018968C93189784E016968C9387E033
:105500000895DC011296ED91FC91139785E5808357
:105510001296ED91FC9113978AEA81831296ED9190
:10552000FC91139762831296ED91FC91139781E0A1
:1055300083831296ED91FC91139744831296ED911B
:10554000FC9113976F5F640F658386E018968C93C8
:10555000189784E016968C9386E00895DC011296E5
:10556000ED91FC91139785E580831296ED91FC9166
:1055700013978AEA81831296ED91FC9113976283C7
:105580001296ED91FC91139713821296ED91FC9176
:105590001397648385E018968C93189784E0169689
:1055A0008C9385E00895DC0118962C911897215072
:1055B00030E092E005C0E90FF11D8081380F9F5F58
:1055C0001296ED91FC9113979217A8F390E0E20FD9
:1055D000F11D8081381709F491E0892F0895CF9348
:1055E000DF93EC011F82DFDF982F882311F481E025
:1055F0008E83892FDF91CF910895FC01A281B38121
:1056000013969C9113979B5F8185891710F450E046
:1056100011C050E042E0292F30E02150304005C059
:10562000EA0FFB1F8081580F4F5FE42FF0E0E21775
:10563000F307B4F3852F0895EF92FF920F93DF9352
:10564000CF9300D0CDB7DEB77C01042FA901202F66
:1056500030E0DC0119968C9190E005972817390706
:1056600014F020E03BC0D7011296ED91FC91139706
:1056700085E580831296ED91FC9113978AEA8183E8
:105680001296ED91FC91139762831296ED91FC9125
:10569000139703839A0190E007C0E80FF11DD90129
:1056A0008D919D0180839F5F892F8C5FD70112961A
:1056B000ED91FC911397901780F30C5FCF01800F51
:1056C000911D9A838983C70198DFA981BA818C9340
:1056D000202F2F5FF701208784E08683822F0F9091
:1056E0000F90CF91DF910F91FF90EF900895DF928F
:1056F000EF92FF920F931F93CF93DF938C01DC0106
:105700001296ED91FC91139785E580831296ED91A9
:10571000FC9113978AEA81831296CD91DC911397BD
:105720008A818823D9F0DB80B5E0DB0EF801818522
:1057300090E00497ED2CFF24E816F9067CF4C801EC
:105740005CDFCE0DDF1D21978883D8011896DC928F
:10575000189784E016968C938D2D01C080E0DF9120
:10576000CF911F910F91FF90EF90DF900895FC0172
:1057700085E893E0918380834283748363831582F9
:105780008FEF8683178211861086138612860895FE
:10579000DC0117962C91179715968C9115978130EF
:1057A000B1F42223F1F018968D919C9119978859A4
:1057B0009A43B8F082E015968C93159708C013961B
:1057C000ED91FC911497E20FF11D60832F5F199604
:1057D0001C921E92189717962C93179717968C91D8
:1057E000089512968C911297281748F3F0CFCF9313
:1057F000DF93EC019B01642F70E080E090E04BE4CC
:105800002130340758F028E93AE340E050E00E94A4
:1058100049BB2EEE32E040E050E012C040E050E0E4
:105820000E9449BB2CE434E040E050E00E94A8BB59
:10583000CA01B90128E93AE340E050E00E9449BBBF
:105840000E94A8BB2A873B87C901DF91CF910895A9
:10585000FC01208531854581413011F04230D9F479
:1058600088E8283B380778F482859385280F391F0C
:1058700088E8283B380738F0413041F4878184308C
:1058800028F083E085833187208708951782118669
:10589000108681E0F7CF0895FC0186810895FC0110
:1058A000862F8150873F10F080E00895668381E065
:1058B0000895CF93DF93EC012FEFAFEF90E011C08D
:1058C000EB81FC81E90FF11D8081A827EA2FF0E030
:1058D000DF01AF57BE4FAC91A227EF57FD4F20819C
:1058E0009F5F961768F39A2F80E030E0282B392BC2
:1058F000C901DF91CF910895FC018781843018F4AC
:105900002FEF3FEF12C0A381B48187812781FD0172
:10591000E80FF11D3297908180E0A20FB11D119721
:105920002C91AC01420F511D9A01C90108950F93AA
:105930001F938C01DC0117966C91BBDFF801278166
:105940000380F481E02DE20FF11D90832F5FD801D9
:1059500017962C93179717969C9117971396ED917E
:10596000FC911497E90FF11D80839F5F17969C931C
:105970001F910F910895CF93DF93EC018D818530B6
:1059800011F080E005C0CE01D2DF86E08D838F81EB
:10599000DF91CF9108950F931F93CF93DF93EC0185
:1059A000EB81FC81E081EF3FD1F08E818E17B9F45D
:1059B000CE01A2DF8C016F816250CE017ADF081721
:1059C000190711F480E006C01F821986188681E04D
:1059D0008D8382E0DF91CF911F910F9108951F82F7
:1059E0001986188681E08D83F5CFDC0181E017965A
:1059F0008C93179717969C9117971396ED91FC919E
:105A00001497E90FF11D8081806880839F5F17964E
:105A10009C93179717968C9117971396ED91FC917D
:105A20001497E80FF11D60838F5F17968C9317977B
:105A300085E015968C930895FC01673030F4613051
:105A400019F4178211861086658308956F927F92EC
:105A50008F929F92AF92BF92CF92DF92EF92FF927E
:105A60000F931F93DF93CF930F92CDB7DEB77C01D7
:105A7000DC011396ED91FC9114974281338194815E
:105A800080E025815C01A20EB11CC50101978F3F0A
:105A9000910521F018F0C70163E03BC0C5010796EE
:105AA00053E0969587955A95E1F7828323E004C0E9
:105AB000E20FF11D10822F5FD7011396ED91FC913B
:105AC0001497922F93508281981790F3C32EDD2460
:105AD0000894C11CD11C942F80E0C80ED91E1796C3
