:100000000C9465130C94CF130C94CF130C94CF1352
:100010000C94CF130C94CF130C94CF130C94CF13D8
:100020000C94CF130C94CF130C94CF130C94CF13C8
:100030000C94B99C0C94CF130C94CF130C94EF9C9C
:100040000C94CF130C94CF130C943C9C0C94DC9B1D
:100050000C94139C0C94CF130C94CF130C94CF13CB
:100060000C94CF130C94CF130C94CF130C94CF1388
:100070000C94CF130C94CF130C94929B0C94329B42
:100080000C94699B0C94CF130C94CF1300000000C8
:100090000000004F00000007000700147F147F14C9
:1000A000242A7F2A1223130864623649552240000D
:1000B00005030000001C2241000041221C0014081E
:1000C0003E081408083E08080050300000080808E0
:1000D0000808006060000020100804023E514945F5
:1000E0003E00427F400042615149462141454B312B
:1000F0001814127F1027454545393C4A49493001BB
:10010000710905033649494936064949291E003611
:100110003600000056360000081422410014141462
:100120001414004122140802015109063249714198
:100130003E7E1111117E7F494949363E414141229F
:100140007F4141221C7F494949417F090909013EFC
:100150004149493A7F0808087F00417F410020401B
:10016000413F017F081422417F404040407F020C04
:10017000027F7F0408107F3E4141413E7F0909090B
:10018000063E4151215E7F091929464649494931B8
:1001900001017F01013F4040403F1F2040201F3FA1
:1001A0004070403F631408146307087008076151EA
:1001B000494543007F4141000204081020004141AD
:1001C0007F0004020102044040404040000102045C
:1001D0000020545454787F484444383844444420E0
:1001E000384444487F3854545418087E0901020C9E
:1001F0005252523E7F0804047800447D4000204063
:10020000443D007F1028440000417F40007C0418DA
:1002100004787C0804047838444444387C1414146A
:1002200008081414187C7C0804040848545454200A
:10023000043F4440203C4040207C1C2040201C3C8B
:100240004030403C44281028440C5050503C4464FA
:10025000544C44000836410000007F000000413645
:100260000800020102020114141414140E0A0E00F4
:10027000007F7F7F7F7F7F7F7F7F7F7F7F7F7F7F0D
:100280007F7F7F7F7F7F7F7F7F7F7F7F7F7F7F7F7E
:100290007F7F7F7F7F7F7F7F7F7F7F7F7F7F7F7F6E
:1002A0007F7F7F7F7F7F7F7F7F7F7F7F7F7F7F7F5E
:1002B0007F7F7F7F7F7F7F7F7F7F7F7F7E11111199
:1002C0007E7F494949337F494949367F010101030E
:1002D000E0514F41FF7F4949494177087F08774105
:1002E000494949367F1008047F7C2112097C7F0828
:1002F00014224120413F017F7F020C027F7F0808CA
:10030000087F3E4141413E7F0101017F7F0909098C
:10031000063E4141412201017F01014728100807A3
:100320001C227F221C63140814637F404040FF0797
:100330000808087F7F407F407F7F407F40FF017F2C
:100340004848307F4830007F007F4848302241498C
:10035000493E7F083E413E462919097F20545454A6
:10036000783C4A4A49317C545428007C0404040CEB
:10037000E0544C44FC38545454186C107C106C44B9
:10038000445454287C2010087C7C4122117C7C1031
:1003900028440020443C047C7C0810087C7C10101D
:1003A000107C38444444387C0404047C7C141414C9
:1003B00008384444442004047C04040C5050503C4D
:1003C0003048FC483044281028447C404040FC0C15
:1003D0001010107C7C407C407C7C407C40FC047C89
:1003E0005050207C5050207C7C5050200028445499
:1003F00054387C10384438085434147CC2FBE2E58D
:10040000E4E5ED00C3EEF2EEE2000000C2E2E5E456
:10041000E5ED0000D0E5F7FC00000000D2E5F1F2C8
:1004200000000000D2E5F1F200000000EEF8E8E183
:10043000EAE00000CDE5E8F1EFF02E2025632D2560
:1004400030345800CFF0E5E4F3EFF02E2025632D93
:100450002530345800253032752E253032752E2542
:1004600030327500253032753A253032753A2530F4
:1004700032750055E73D25303264E4C10055E7315F
:100480003D25303264E4C10055E7323D2530326409
:10049000E4C10055EA3D25303264E4C10055EA313B
:1004A0003D25303264E4C10055EA323D25303264E6
:1004B000E4C100553D253032752E25303175C2001E
:1004C000493D25303375ECC000523D25303375CEA3
:1004D000EC0055F83D25303264E4C10055F8313D5B
:1004E00025303264E4C10055F8323D25303264E4F1
:1004F000C10053E43D25303275B000CDEEE2FBE99A
:1005000020EFE0F0EEEBFC3A202530347500CFE030
:10051000F0EEEBFC3A20253034750020202020201E
:100520002020C2E2E5E4E5ED20202020202020006C
:1005300020202020EDE5EFF0E0E2E8EBFCEDFBE928
:10054000202020200020202020202020EFE0F0EE9E
:10055000EBFC202020202020200020C8E7ECE5ED47
:10056000E8F2FC20EFE0F0E0ECE5F2F020200020E3
:1005700020ECEEE6EDEE20F2EEEBFCEAEE20E220DF
:10058000202020002020F0E5E6E8ECE520C2DBC2D8
:10059000C5C4C5CD2020202000C2E2EEE43A2025CB
:1005A0003031752E2530317500C2E2EEE43A202557
:1005B00030317500C2E2EEE43A20255300E2FBEA56
:1005C000EB2E000000000000CAD700000000000071
:1005D000000000CAD7310000000000000000CAD7A8
:1005E000320000000000000000CAD7330000000005
:1005F00000000000CAD7340000000000000000CA5C
:10060000D7310000000000000000CAD73120F120DF
:10061000E1EBEEEA00CAD732000000000000000063
:10062000CAD73220F120E1EBEEEA00D0C70000008B
:10063000000000000000CAEEECE0EDE4E031000054
:1006400000CAEEECE0EDE4E032000000CAEEECE0BF
:10065000EDE4E033000000CAEEECE0EDE4E034004D
:100660000000CAEEEC312BE1EBEEEA0000CAEEEC42
:10067000322BE1EBEEEA0000CAEEEC332BE1EBEEBD
:10068000EA0000CAEEEC342BE1EBEEEA0000CAEE21
:10069000ECE0EDE4E031000000CAEEECE0EDE4E077
:1006A00032000000CAEEECE0EDE4E033000000CAE6
:1006B000EEECE0EDE4E034000000CAEEECE0EDE446
:1006C000E035000000CAEEECE0EDE4E036000000AA
:1006D000CAEEECE0EDE4E037000000CAEEECE0ED3D
:1006E000E4E038000000CAEEECE0EDE4E0390000A0
:1006F00000CAEEECE0EDE4E031300000CAEEECE0E0
:10070000EDE4E031310000CAEEECE0EDE4E031323E
:100710000000CAEEECE0EDE4E031330000CAEEEC9C
:10072000E0EDE4E031340000CAEEECE0EDE4E0316D
:10073000350000CAEEECE0EDE4E031360000CAEE30
:10074000ECE0EDE4E031370000CAEEECE0EDE4E08F
:1007500031380000CAEEECE0EDE4E031390000CAC7
:10076000EEECE0EDE4E032300000CAEEECE0EDE467
:10077000E032310000CAEEECE0EDE4E0323200009D
:10078000CAEEECE0EDE4E032330000CAEEECE0ED5E
:10079000E4E032340000CAEEECE0EDE4E032350093
:1007A00000CAEEECE0EDE4E032360000CAEEECE028
:1007B000EDE4E032370000CAEEECE0EDE4E0323880
:1007C0000000CAEEECE0EDE4E032390000CAEEECE5
:1007D000E0EDE4E033300000CAEEECE0EDE4E033BD
:1007E000310000CAEEECE0EDE4E033320000CAD79D
:1007F00020E820D0C700000000EEF8E8E1EAE000C1
:1008000000000000C7EDE0F7E5EDE8E53A2000CF95
:10081000D0CC323A2000CFD0CC313A2000D1E8E31E
:10082000EDE0EBFB20EFF0E8E5ECEDE8EAE000D2EC
:10083000E5F1F2FB5CCFF0E8E5ECEDE8EA00D1E8A9
:10084000E3EDE0EBFB20EFE5F0E5E4E0F2F7E8EACA
:10085000E000D2E5F1F2FB5CCFE5F0E5E4E0F2F791
:10086000E8EA0020202020CFE5F0E5E9E4E8F2E521
:1008700020E2202020202000202020F0E5E6E8ECE7
:1008800020C2DBC2C5C4C5CD202020200025642E97
:1008900020D2E5F1F220EFF0E8E5ECEDE8EAE00047
:1008A00025642E20D2E5F1F220EFE5F0E5E4E0F258
:1008B000F7E8EAE000CDE0F1F2F0EEE9EAE05CD240
:1008C000E5F1F2FB00CFE0F0E0ECE5F2F03A25755F
:1008D00020C2F1E5E3EE3A257500C4E8E0EFE0E779
:1008E000EEED3A2000F1EFE8F1EEEA005553420058
:1008F00000000000000000525334383500000000B2
:100900000000EEF8E8E1EAE00000000000313230DB
:1009100030000000000000003234303000000000E1
:10092000000000343830300000000000000039368C
:10093000303000000000000000313932303000005B
:100940000000000033383430300000000000003573
:1009500037363030000000000000EEF8E8E1EAE051
:10096000000000000038000000000000000000004F
:10097000EEF8E8E1EAE00000000000EDE5F200003A
:10098000000000000000F7E5F20000000000000099
:1009900000EDE5F7E5F2000000000000EEF8E8E108
:1009A000EAE000000000003100000000000000004C
:1009B0000000320000000000000000000000000005
:1009C0000000000000000000D1F2EEEFEEE2FBE5D7
:1009D00020E1E8F2FB00D7E5F2EDEEF1F2FC00C118
:1009E000E8F2FB20E4E0EDEDFBF500D1EAEEF0EEFD
:1009F000F1F2FC20EFE5F0E5E4E0F7E800CFF0EEFF
:100A0000F2EEEAEEEB00C8EDF2E5F0F4E5E9F120F4
:100A1000F1E2FFE7E800CDE0F1F2F0EEE9EAE05CB8
:100A2000C8EDF2E5F0F4E5E9F10025642E20D1E50A
:100A3000EAF3EDE4FB0025642E20CCE8EDF3F2FBB5
:100A40000025642E20D7E0F1FB0025642E20C4E5AC
:100A5000EDFC0025642E20CCE5F1FFF60025642E88
:100A600020C3EEE400CDE0F1F2F0EEE9EAE05CC292
:100A7000F0E5ECFF26E4E0F2E000CDEEECE5F0205E
:100A8000CFD0CC3A2025752F257500E2EAEB2E2F2A
:100A9000E2FBEAEB2E0025642E2E2564257300E28E
:100AA000FBEAEB2E000000000000E2EAEB2E000063
:100AB0000000000000EEF8E8E1EAE00000000000BD
:100AC000C0C2C0CDD220D034303000CFC2C72D3903
:100AD000300000000000C0C2C7CA2D38300000003E
:100AE00000CFC2C7D32DC50000000000CFC2C7CBC6
:100AF00000000000000000EEF8E8E1EAE00000007D
:100B00000000EEF8E8E1EAE00000000000E1FBF19F
:100B1000F2F0FBE900000000ECE5E4EBE5EDEDFBB5
:100B2000E90000EEF8E8E1EAE00000000000EEF87D
:100B3000E8E1EAE00000000000E2EAEB2E0000003D
:100B400000000000E2FBEAEB2E000000000000EED7
:100B5000F8E8E1EAE00000000000EEF8E8E1EAE091
:100B60000000000000F2F0E5E2EEE6EDFBE9000037
:100B7000EDEEF0ECE0EBFCEDFBE900F1EFEEEAEE80
:100B8000E9EDFBE90000EEF8E8E1EAE00000000032
:100B900000EEF8E8E1EAE000000000003220EAEEB2
:100BA000EDF6E5E2E0FF003320EAEEEDF6E5E2E007
:100BB000FF00EEF8E8E1EAE00000000000D2E8EF14
:100BC00020EBE8EDE8E800D1EEE2ECE5F1F2E8EC4C
:100BD000EEF1F2FC00D0E5E7E5F0E2E8F0EEE2E06D
:100BE000EDE8E500D2E8EF20E0E2F2EEEAEEEDF229
:100BF000F0EEEBFF00C4EEEFF3F1F2E8ECE0FF20E3
:100C0000EFEEECE5F5E000CFEEF0EEE320EFEE20C6
:100C1000EFEEECE5F5E500C4EEEFF3F1F2E8ECFB06
:100C2000E520EFF0EEE2E0EBFB00CFF0E8E7EDE0EF
:100C3000EA20F7E5F2EDEEF1F2E800CFF0EEF2EEA9
:100C4000EAEEEB20EEE1ECE5EDE000CAEEF0F0E5D7
:100C5000EAF6E8FF20F2EEEAE000CAEEF0F0E5EA9C
:100C6000F6E8FF20EDE0EFF0FFE6E5EDE8FF00D26B
:100C7000E8EF20E4E5F2E5EAF2EEF0E000D1EDE89D
:100C8000E6E5EDE8E520EEF2E2E5F2E020C0CA009C
:100C9000D1EEE2ECE5F1F2E8ECEEF1F2FC00D7E0A7
:100CA000F1F2EEF2E00055E2FBF520EDEEECE8EDBE
:100CB000E0EBFCEDEEE500D1E5F2E5E2EEE920E067
:100CC000E4F0E5F100C7E0E3F0F3E1EB2E20F7F309
:100CD000E2F1F2E22E20CFD0CC00D3E4E5F0E62E14
:100CE00020F0E5EBE520EAEEEC2E20CFD0CC00D3CF
:100CF000E4E5F0E62E20F0E5EBE520EAEEEC2E2030
:100D0000CFD0C400C2F0E5ECFF20EFE5F0E5E7E06E
:100D1000EFF3F1EAE000CFEEF0EEE320EFF0E5E4F0
:100D2000F3EFF02E20EFEE20CAD700CFEEF0EEE387
:100D300020EFF0E5E4F3EFF0E5E6E4E5EDE8FF00B1
:100D4000CAEEEDF2F0EEEBFC20E2FBF52EF1E8E36B
:100D5000EDE0EBE000CDEEECE5F020E0EFEFE0F0D1
:100D6000E0F2E000D1E8EDF5F0EEEDE8E7E0F6E8DE
:100D7000FF20F7E0F1EEE200CFE0F0E0ECE5F2F08A
:100D8000FB5CCEE1F9E8E500CDEEECE5F020EAEE23
:100D9000ECE0EDE4FB3A2025752F257500CAEEEB5B
:100DA000E8F7E5F1F2E2EE20EAEEECE0EDE420C057
:100DB00000C1EBEEEAE8F0EEE22E20EAEEECE0ED28
:100DC000E4FB20D6D100D2F0E0EDF1EBFFF6E8FF36
:100DD00020D6D100C1EBEEEAE8F0EEE22E20EAEEFA
:100DE000ECE0EDE4FB00D1EBE5E4FFF9E8E520EA17
:100DF000EEECE0EDE4FB00D2E5F1F2EEE2E0FF2004
:100E0000EAEEECE0EDE4E000C4EBE8F2E5EBFCED4B
:100E1000EEF1F2FC20EAEEECE0EDE4FB00C4EBE8DE
:100E2000F2E5EBFCEDEEF1F2FC20EAEEECE0EDE4B5
:100E3000FB00C7E0E4E5F0E6EAE020F1F0E0E1E005
:100E4000F22E20CFD0C400CFE0F0E0ECE5F2F0FBD2
:100E50005CCFE5F0E5E4E0F2F7E8EA00CAEEECE0AA
:100E6000EDE4E020C2D720E220D6D100C1EBEEEACB
:100E7000E8F0EEE22E20EAEEECE0EDE4FB20D6D145
:100E800000D2F0E0EDF1EBFFF6E8FF20D6D100C78D
:100E9000E0E4E5F0E6EAE020EDE020E2FBEAEB2E1C
:100EA000EAEEEC00C1EBEEEAE8F0EEE22E20EAEE2C
:100EB000ECE0EDE4FB00C7E0E4E5F0E6EAE020ED7D
:100EC000E020F4E8EAF12EEAEEEC00CFE0F0E0EC0E
:100ED000E5F2F0FB5CCFF0E8E5ECEDE8EA00C4D425
:100EE000C72DCFF0CFE4000000C4D4C72DCCCA3149
:100EF00000000000C4D4C72DCCCA3200000000C4DA
:100F0000D4C72D4C363000000000CDC72DCFF0CF18
:100F1000E400000000CDC72DCCCA00000000000096
:100F2000CFCFC72DCFF0CFE4000000CFCFC72DCC5F
:100F3000CA0000000000EEF8E8E1EAE0000000006E
:100F400000E0EAF22BEFE0F1F1000000E0EAF2E865
:100F5000E2EDFBE9000000EFE0F1F1E8E2EDFBE992
:100F60000000EEF8E8E1EAE000000000002D31307A
:100F70003030C3F6000000002D353030C3F60000DD
:100F800000000030C3F600000000000000002B3518
:100F90003030C3F600000000002B31303030C3F693
:100FA00000000000EEF8E8E1EAE00000000000C701
:100FB000E0E3F0F3E1EB2E20F7F3E2F1F2E22E2092
:100FC000D0C700D7E0F1F2EEF2E020CFD0CC00D7CE
:100FD000E0F1F2EEF2E020CFD0C400D1EDE8E6E59A
:100FE000EDE8E520F3F0EEE2EDFF20C0CA00D2E824
:100FF000EF20EFF0E8E5ECEDE8EAE000C7E0E3F031
:10100000F3E1EBE5EDE8E520F7F3E2F1F2E2E8F2F7
:1010100000CFEEF0EEE320EFF0E5E4F3EFF02E206A
:10102000EFEE20D0C700CAEEECEFE5EDF1E0F6E818
:10103000FF20E7E0E4E5F0E6EAE800CFE5F0E5EAE6
:10104000F0FBF2E8E520E8ECEFF3EBFCF1EEE20078
:10105000C4EEEF2E20E2F0E5ECFF20E1E5E720EC26
:10106000E0ED2E00D2E8EF20EBE8EDE8E800D2E872
:10107000EF20E7E0F9E8F2FB00CFE0F0E0ECE5F28A
:10108000F0FB5CC7E0F9E8F2E00025642E20CEE139
:10109000F9E8E50025642E20CFE5F0E5E4E0F2F77D
:1010A000E8EA0025642E20CFF0E8E5ECEDE8EA0060
:1010B00025642E20C7E0F9E8F2E000CDE0F1F2F07F
:1010C000EEE9EAE05CCFE0F0E0ECE5F2F0FB00C234
:1010D000FBE2E5E4E5ED00000000C2E2E5E4E5ED59
:1010E0000000000000D2E5F1F22031000000000015
:1010F000D2E5F1F220320000000000CDE0F1F2F084
:10110000EEE9EAE05CD0E5E6E8EC0025642E20C8D4
:10111000EDF2E5F0F4E5E9F10025642E20CFE0F0F2
:10112000EEEBFC0025642E20CFE0F0E0ECE5F2F0E1
:10113000FB0025642E20C2F0E5ECFF20E820E4E06F
:10114000F2E00025642E20D0E5E6E8EC00CCE5EDE9
:10115000FE5CCDE0F1F2F0EEE9EAE00025642E203D
:10116000C0CA20E2EAEBFEF7E5ED0025642E20CFB1
:10117000F3F1EA20F3E4E0EB2DFBF520CCC0CD0049
:1011800025642E20CFF3F1EA20F3E4E0EB2E20CC0F
:10119000C0CD20330025642E20CFF3F1EA20F3E404
:1011A000E0EB2E20CCC0CD20320025642E20CFF3E2
:1011B000F1EA20F3E4E0EB2E20CCC0CD2031002575
:1011C000642E20CFF3F1EA20F3E4E0EBE5EDEDFB54
:1011D000F50025642E20CFF3F1EA20F3E4E0EBE5FF
:1011E000EDED2E20330025642E20CFF3F1EA20F31D
:1011F000E4E0EBE5EDED2E20320025642E20CFF368
:10120000F1EA20F3E4E0EBE5EDED2E20310025647A
:101210002E20D1E1F0EEF120F3E4E0EBE5EDEDFB83
:10122000F50025642E20C0CA20E1E5E3EBFBE900D0
:1012300025642E20C0CA20EDEEF0ECE0EBFCEDFBC7
:10124000E90025642E20C0CA20E8F1EFFBF2E0EDB2
:10125000E8FF0025642E20C0CA20E2FBEAEBFEF77F
:10126000E5ED0025642E20C0CA20F3F1EAEEF0E59A
:10127000EDEDFBE90025642E20CFF3F1EA20CFD07D
:10128000C40025642E20CFF3F1EA20C0CA20F3E485
:10129000E0EBE5EDED2E0025642E20CFF3F1EA2002
:1012A000C0CA20F1E2EEE90025642E20D1E1F0EE83
:1012B000F120C0CA0025642E20C0CA20EAEEEDF25B
:1012C000F02EEFF0EEE2E5F02E0025642E20CFF3B5
:1012D000F1EA20F3E4E0EBE5ED2E20CCC0CD0025D3
:1012E000642E20C0CA20EFF3F1EA0025642E20CF3F
:1012F000F3F1EA20EDE0EBE0E42E20E2FBEAEB0084
:1013000025642E20CFF3F1EA20EDE0EBE0E42E207F
:10131000E2EAEB2E0025642E20C2FBE7EEE2002578
:10132000642E20D1E1F0EEF120F3E4E0EBE5EDED09
:10133000EEE3EE0025642E20D1E1F0EEF120F1E2A3
:10134000EEE5E3EE0025642E20CFF3F1EA20F3E48E
:10135000E0EBE5EDEDEEE3EE00CCE5EDFE5CD3EF8A
:10136000F0E0E2EBE5EDE8E500C7E0EFE8F1FC20B6
:101370002575202F202575202825752900C7E0EF29
:10138000E8F1FC202575202F20257500C6D3D0CD8F
:10139000C0CB20CFD3D1D200D1D7C8D2DBC2C0CDF1
:1013A000C8C520C7C0CFC8D1C800CAEEECE0EDE484
:1013B000E03A20257500000000000028D6D1290061
:1013C00028CED82900C4E0F2E03A20253032752E2C
:1013D000253032752E2530327500C2F0E5ECFF3A2B
:1013E00020253032753A253032753A253032752E47
:1013F0002530337500CAEEECE0EDE4E020EFE5F0D7
:10140000E5E4E0E5F2F1FF00CAEEECE0EDE420ED0A
:10141000E5F200CEEAEEEDF7E0EDE8E520EAEEECED
:10142000E0EDE4FB00000000CDE0F7E0EBEE20EAA9
:10143000EEECE0EDE4FB00000000000000CEF8E878
:10144000E1EEF7EDEEE520E7EDE0F7E5EDE8E500AC
:101450000000C6F3F0EDE0EB5CCFE5F0E5E4E0F290
:10146000F7E8EA00C6F3F0EDE0EB5CCFF0E8E5EC7E
:10147000EDE8EA00D1EEF1F2EEFFEDE8E53A00CF5B
:101480002564D12564CC256420CFC42564CFCC2528
:1014900064C2DBD5256400C6F3F0EDE0EB5CC7E089
:1014A000F9E8F2E000D0E5E6E8EC3A00D1EEE1FB45
:1014B000F2E8E5202D202564000000000000000077
:1014C00000CDE5E8F1EFF020F7F22FE7E0EF20465E
:1014D0004C4153480000C2D720F2F0E0EAF220E28B
:1014E000EEF1F1F2E0EDEEE2EB2E00CDE5E8F1EF0A
:1014F000F020F7F22FE7E0EF20CFCBC8D1000000BB
:10150000C0E2F2EEEAEEEDF2F0EEEBFC00000000DD
:101510000000000000D2EEEA20EFEEEAEEFF00004D
:1015200000000000000000000000CDE5E8F1EFF051
:1015300020F7F22FE7E0EF203252414D000000CDBE
:10154000E5E8F1EFF020F0E0E1EEF2FB204453504B
:1015500000000000C2EEF1F1F2E0ED2DE520F0E038
:10156000E1EEF2FB2044535000CDE8E7EAEEE5203F
:10157000EDE0EFF02E20E2FBF5EEE4E00000C2FB30
:10158000F1EEEAEEE520EDE0EFF02E20E2FBF5EEE5
:10159000E4E000CDE0F0F3F8E5ED20EEE1ECE5ED80
:1015A00020F120D3CC000000CDE5E8F1EFF0E0E23F
:1015B000EDEEF1F2FC20F7E0F1EEE20000CDE5F215
:1015C00020E1EBEEEAE020C1D1C7000000000000FE
:1015D0000000CEF8E8E1EAE020E2E5F0F1E8E820FA
:1015E000C1D1C700000000CDE5E8F1EFF020EFE544
:1015F000F0E5EAEB2DE5E920C1D1C700CDE5F22009
:10160000F1E8E3EDE0EBE020CCC0CD00000000000D
:1016100000C2EAEB2EEFE8F22FCFE5F0E5E7E0EFCE
:10162000F3F1EA000000C8E7ECE5EDE5EDE8E520C0
:10163000F0E5E6E8ECE00000000000CDE5E8F1EFC1
:10164000F020E7E0EF2E20E2FBF52EF6E5EFE800D4
:10165000CEF8E8E120EAEEEDF2F02E20E2FBF52EE6
:10166000F6E5EFE800C0CA202D20D1EDE8E6E5ED73
:10167000E8E520E7E0EFE0F1E000C0CA202D20CD52
:10168000E5F220EEF2E2E5F2E0000000000000CE1C
:10169000F2F1F3F22DE520F1E8E3EDE0EBE020CF0D
:1016A000F3F1EA00CEF2F1F3F22DE520F1E8E3EDFB
:1016B00020CEF1F2E0EDEEE200C2FBEAEBFEF7E550
:1016C000EDE8E520E0EFEFE0F0E0F2E00000CFEE43
:1016D000ECE5F5E020E220EFEEEBEEF1E5000000B6
:1016E000000000CDE5E8F1EFF0E0E2EDEEF1F2FC14
:1016F00020C4D4C700000000D3E43A20C0CA202D83
:1017000020EDE5F220EEF2E2E5F2E00000D3E43A6B
:1017100020CFEEECE5F5E020E220EFEEEBEEF1E598
:101720000000D3E43A20CDE5E8F1EFF02E20C4D458
:10173000C7000000000000D3E43A20CDE5E8F1EF57
:10174000F02E20F6E5EFE820E2FBF500CFEEF0EE1C
:10175000E320EFEE20EFEEECE5F5E5000000000001
:1017600000D1EEE1FBF2E8E5202D20256400000029
:10177000000000000000D1EEE1FBF2E8E5202D20A2
:101780003000000000000000000000C2EAEB2E2044
:10179000EFE8F2E0EDE8FF2FEFE5F0E5E7E0EF003E
:1017A000C2FBEAEBFEF7E5EDE8E520EFE8F2E0ED5D
:1017B000E8FF000000C8E7ECE5EDE5EDE8E520F026
:1017C000E5E6E8ECE020F0E0E100D1EEE1FBF2E854
:1017D000E5202D203400000000000000000000CDB6
:1017E000E5E8F1EFF020F2E5F1F2E020CFD0C4001F
:1017F00000000000CDE5E8F1EFF020F2E5F1F2E0C5
:1018000020CFD0CC0000000000CDE5E8F1EFF020C3
:10181000E1EBEEEAE020C1D1C70000000000CDE519
:10182000E8F1EFF020E1EBEEEAE020C1D1CA0000E0
:10183000000000CDE5E8F1EFF020EFE5F0E5EAEBA0
:101840002DE5E920C1D1C700CDE5F220F1E8E3EDB7
:10185000E0EBE020ECE0EDE8EFF3EB2E00CDE5E887
:10186000F1EFF020E2FBF5EEE4EDEEE920F6E5EF36
:10187000E800CDE5F220F1E8E3EDE0EBE020D0C7B1
:1018800000000000000000CEF2F1F3F22DE520F19F
:10189000E8E3EDE0EBE020CFF3F1EA00CEF2F1F384
:1018A000F22DE520F1E8E3EDE0EBE020D1F2EEEF00
:1018B00000CDE5E8F1EFF020F7F2E5EDE8FF20EAF2
:1018C000EEECE0EDE400D1EEE1FBF2E8E5202D20C6
:1018D0003136000000000000000000CDE5E8F1EF27
:1018E000F02E20F0E0E1EEF2FB2044535000000027
:1018F000C2EEF1F1F2E0ED2DE520F0E0E1EEF2FBD9
:101900002044535000CDE8E7EAEEE520EDE0EFF0AB
:101910002E20E2FBF5EEE4E00000C2FBF1EEEAEE81
:10192000E520EDE0EFF02E20E2FBF5EEE4E000CD67
:10193000E5F220CAD7203520F1E5EA20EDE02025A8
:1019400053000000D1EEE1FBF2E8E5202D20323219
:10195000000000000000000000C2EEF1F1F2E0ED36
:101960002DE520CAD720EDE0202553000000D1EE60
:10197000E1FBF2E8E5202D203234000000000000F9
:10198000000000CDE5E8F1EFF020F7F22FE7E0EFFF
:10199000203252414D000000CDE5E8F1EFF020F794
:1019A000F22FE7E0EF20CFCBC8D1000000CDE5E873
:1019B000F1EFF020F7F22FE7E0EF20464C415348DB
:1019C0000000CDE5E8F1EFF0E0E2EDEEF1F2FC2011
:1019D000F7E0F1EEE20000D1EDE8E62EF3F02E2084
:1019E000CAD720EDE020255300000000CEF8E8E142
:1019F000EAE020F0E0E1EEF2FB20D6D100000000AA
:101A000000C2F5EEE420525820D6D120EFF3F1F2D7
:101A1000000000000000D0E0E1EEF2E020D6D1208E
:101A2000E2EEF1F1F2E0EDEEE2EB00D1EEE1FBF2FD
:101A3000E8E5202D202564000000000000000000E3
:101A4000C7C0D90000CFD0CC3100CFD0CC3200CF2E
:101A5000D0C40000CEC1D90000CF312C3200CED886
:101A6000C10000D1EEE1FBF2E8E5202D2025640065
:101A70000000000000000000C2EAEB2E20EFE8F2B8
:101A8000E0EDE8FF2FEFE5F0E5E7E0EF00C2FBEA6D
:101A9000EBFEF7E5EDE8E520EFE8F2E0EDE8FF002A
:101AA0000000C8E7ECE5EDE5EDE8E520F0E5E6E867
:101AB000ECE020F0E0E100D1EEE1FBF2E8E5202DE2
:101AC000202564000000000000000000CDE5E8F1E2
:101AD000EFF020F2E5F1F2E020CFD0C400000000EA
:101AE00000CDE5E8F1EFF020F2E5F1F2E020CFD013
:101AF000CC0000000000CDE5E8F1EFF020E1EBEED6
:101B0000EAE020C1D1C70000000000CDE5E8F1EF18
:101B1000F020E1EBEEEAE020C1D1CA0000000000B5
:101B2000CDE5E8F1EFF020EFE5F0E5EAEB2DE5E9B2
:101B300020C1D1C700CDE5F220F1E8E3EDE0EBE014
:101B400020ECE0EDE8EFF3EB2E00CDE5E8F1EFF06F
:101B500020E2FBF5EEE4EDEEE920F6E5EFE800CD5E
:101B6000E5F220F1E8E3EDE0EBE020D0C700000073
:101B700000000000CEF2F1F3F22DE520F1E8E3EDF4
:101B8000E0EBE020CFF3F1EA00CEF2F1F3F22DE545
:101B900020F1E8E3EDE0EBE020D1F2EEEF00CDE55F
:101BA000E8F1EFF020F7F2E5EDE8FF20EAEEECE0F7
:101BB000EDE400D1EEE1FBF2E8E5202D2025640004
:101BC0000000000000000000CDE5E8F1EFF02E205D
:101BD000F0E0E1EEF2FB20445350000000C2EEF1D1
:101BE000F1F2E0ED2DE520F0E0E1EEF2FB204453D0
:101BF0005000CDE8E7EAEEE520EDE0EFF02E20E240
:101C0000FBF5EEE4E00000C2FBF1EEEAEEE520EDCC
:101C1000E0EFF02E20E2FBF5EEE4E000CDE5F2206F
:101C2000CAD7203520F1E5EA20EDE020CFD0CC3135
:101C300000CDE5F220CAD7203520F1E5EA20EDE01D
:101C400020CFD0CC3200C2EEF1F1F2E0ED2DE52054
:101C5000CAD720EDE020CFD0CC3100C2EEF1F1F2B6
:101C6000E0ED2DE520CAD720EDE020CFD0CC32002A
:101C7000CDE5E8F1EFF020F7F22FE7E0EF20325268
:101C8000414D000000CDE5E8F1EFF020F7F22FE73D
:101C9000E0EF20CFCBC8D1000000CDE5E8F1EFF0B8
:101CA00020F7F22FE7E0EF20464C4153480000CDEB
:101CB000E5E8F1EFF0E0E2EDEEF1F2FC20F7E0F123
:101CC000EEE20000D1EEE1FBF2E8E5202D202564F4
:101CD000000000000000000000D1EEE1FBF2E8E5AA
:101CE000202D202564000000000000000000D1EE3F
:101CF000E1FBF2E8E5202D20256400000000000053
:101D0000000000D1EEE1FBF2E8E5202D2025640083
:101D10000000000000000000D1EEE1FBF2E8E52049
:101D20002D202564000000000000000000D1EEE13D
:101D3000FBF2E8E5202D20256400000000000000F3
:101D40000000CDE5E8F1EFF020F7F22FE7E0EF201B
:101D5000464C4153480000CDE5E8F1EFF020F7F2A2
:101D60002FE7E0EF203252414D000000CDE5E8F1D1
:101D7000EFF020F7F22FE7E0EF20CFCBC8D1000043
:101D800000D1EEE1FBF2E8E5202D20256400000003
:101D9000000000000000CDE5E8F1EFF020F2E5F1F1
:101DA000F2E020CFD0C40000000000CDE5E8F1EF64
:101DB000F020E2FBEAEB2EF2E5F1F220CFD0C400F6
:101DC000CDE5E8F1EFF020F2E5F1F2E020CFD0CC64
:101DD0000000000000CDE5E8F1EFF020F7F22EEA78
:101DE000EEECE0EDE420C1D1CA00CDE5F220E1EB5C
:101DF000EEEAE020C1D1CA0000000000000000CEE1
:101E0000F8E8E1EAE020E2E5F0F1E8E820C1D1CA33
:101E100000000000CEF2EAE0E720F0E5E7E5F0E2BE
:101E20002E20EBE8EDE8E80000CDE5E8F1EFF0E08A
:101E3000E2EDEEF1F2FC20F7E0F1EEE20000CDE59C
:101E4000F220E1EBEEEAE020C1D1C7000000000083
:101E5000000000CEF8E8E1EAE020E2E5F0F1E8E891
:101E600020C1D1C700000000CDE5E8F1EFF020EF80
:101E7000E5F0E5EAEB2DE5E920C1D1C700CDE5F2BB
:101E800020F1E8E3EDE0EBE020CCC0CD0000000065
:101E90000000C2EAEB2EEFE8F22FCFE5F0E5E7E035
:101EA000EFF3F1EA000000C8E7ECE5EDE5EDE8E569
:101EB00020F0E5E6E8ECE00000000000CDE5E8F108
:101EC000EFF020E7E0EF2E20E2FBF52EF6E5EFE85D
:101ED00000CEF8E8E120EAEEEDF2F02E20E2FBF58C
:101EE0002EF6E5EFE800CFF0EEEFE0EBE020CAD70A
:101EF0000000000000000000000000CDE5F220CA54
:101F0000D7203520F1E5EAF3EDE400000000000001
:101F1000CEF2F1F3F22DE520F1E8E3EDE0EBE02085
:101F2000CFF3F1EA00CEF2F1F3F22DE520F1E8E390
:101F3000ED20CEF1F2E0EDEEE200C2FBEAEBFEF7BF
:101F4000E5EDE8E520EFE8F2E0EDE8FF000000CF86
:101F5000F0EEEFE0EBE020CAD70000000000000048
:101F600000000000CDE5F220CAD7203520F1E5EAD7
:101F7000F3EDE4000000000000D3E43A20EFEEF1BE
:101F8000F220EDE5E8F1EFF0E0E2E5ED0000D3E46A
:101F90003A20CFD0C420EDE5E8F1EFF0E0E2E5ED46
:101FA000000000D3E43A20CFD0CC20EDE5E8F1EFFB
:101FB000F0E0E2E5ED000000D1EEE1FBF2E8E52023
:101FC0002D202564000000000000000000D1EEE19B
:101FD000FBF2E8E5202D2025640000000000000051
:101FE0000000D1EEE1FBF2E8E5202D2025640000A1
:101FF00000000000000000C6F3F0EDE0EB5CD1EE65
:10200000E1FBF2E8FF0025642E20CFE5F0E5E4E0F7
:10201000F2F7E8EA0025642E20CFF0E8E5ECEDE8E1
:10202000EA0025642E20C7E0F9E8F2E00025642EDE
:1020300020D1EEE1FBF2E8FF00CCE5EDFE5CC6F35B
:10204000F0EDE0EB00C1D1CF204D43552000C1D1D0
:10205000CF204453502000CFC820204D43552000AE
:10206000C1D1CA20CFD0C43100C1D1CA20CFD0C481
:102070003200C1D1CA20CFD0CC3100C1D1CA20CFCB
:10208000D0CC3200EEF8E8E1EAE000000025533A57
:1020900020253032582E2530325800CCE5EDFE5C3C
:1020A000C8EDF4EEF0ECE0F6E8FF0025642E20C861
:1020B000EDF4EEF0ECE0F6E8FF0025642E20D2E52A
:1020C000F1F2FB0025642E20CDE0F1F2F0EEE9EA1A
:1020D000E00025642E20D3EFF0E0E2EBE5EDE8E54B
:1020E0000025642E20C6F3F0EDE0EB00CCE5EDFE1C
:1020F00000C0CA2DEEF8E8E10000C0CA2DEDEEF0F8
:10210000EC0000C0CA2DEDEEF0EC0000C0CA2DF3CB
:10211000F1EAEEF000C0CA2DE2FBEAEB0000C0CA13
:102120002DE1E5E3EB0000C0CA2DE8F1EFFBF20082
:10213000C0CA2DEFF3F1EA0000C0CA2DEEE4EDEEC7
:10214000F100C0CA2DEEF8E8E10000000000000038
:1021500000000000253032643A253032643A2530E0
:1021600032640020202020C8EDE8F6E8E0EBE8E744
:10217000E0F6E8FF20202000202020EDE520EEEF13
:10218000F0E5E4E5EBE5ED212121202000202020F1
:1021900020D2E8EF20E0EFEFE0F0E0F2E0202020B6
:1021A0002000CDE5E8F1EFF0E0E2EDEEF1F2FC0029
:1021B000CFF0E5E4F3EFF0E5E6E4E5EDE8E500CDAA
:1021C000E5E8F1EFF02EF7F22E20464C415348009F
:1021D000CDE5E8F1EFF02EE7E0EF2E464C41534815
:1021E00000CDE5E8F1EFF02EF7F22E20504C4953E8
:1021F00000CDE5E8F1EFF02EE7E0EF2E504C49532B
:1022000000CDE5E8F1EFF02EE7E0EF2E3252414D40
:1022100000CDE5E8F1EFF02EF7F22E203252414DDD
:102220002000D3F1F2E0EDEEE2E8F2E520F7E0F194
:10223000FB00CEF2EAE0E720F0E5E7E5F0E22EEB86
:10224000E8ED00D3E4E0EB2ECFCED1D220EDE5E8EF
:10225000F1EFF000D3E4E0EB2ECFD0C420EDE5E8C1
:10226000F1EFF000D3E4E0EB2ECFD0CC20EDE5E8A9
:10227000F1EFF000CDE5F220E1EBEEEAE020C1D194
:10228000C700CDE5E8F1EFF02EE2E5F0F12EC1D187
:10229000C700CDE5E8F1EFF02EEFE5F0E5EAEB2E33
:1022A00000CDE5F220F1E8E3EDE0EBE020CFD0CC8B
:1022B00000CDE5E8F1EFF02EE2F5EEE42ECFD3D13C
:1022C000CA00CDE5E8F1EFF02EE2F5EEE42ED1D232
:1022D000CECF00CDE5E8F1EFF02EF6E5EFFC2E20B5
:1022E000C2DBD500CDE5E8F1EFF02EE7E0EF2E20E0
:1022F000C2DBD500CDE5F220CAD700CDE5F220F152
:10230000E8E3EDE0EBE020CCC0CD00CDE5F220E14C
:10231000EBEEEAE020C1D1CA00CDE5E8F1EFF02E06
:10232000E2E5F0F12E20C1D1CA00CDE5F220CAD7F6
:1023300000CDE5E8F1EFF02EE7E0EF2E20C1D1CAA5
:1023400000CDE5E8F1EFF02EE2FBEAEB2E20CAD15A
:10235000CA00CDE5E8F1EFF02EE2EAEB2E20CAD17B
:10236000CA00CDE5E8F1EFF02EEAEEEDF2F02ECA6C
:10237000D1CA00CDE5F220CAD700CDE5F220E1EBCD
:10238000EEEAE020C1D1CA00CDE5E8F1EFF02EE29F
:10239000E5F0F12E20C1D1CA00CDE5E8F1EFF02E35
:1023A000F7F22EEAEEECE0EDE400CDE5E8F1EFF037
:1023B0002EE2FBEAEB2ED2E5F1F200CDE5E8F1EFFB
:1023C000F02EE2EAEB2E20D2E5F1F200CDE5E8F1C5
:1023D000EFF02EE2F5EEE42E20CAD1CA00C0CA2DDD
:1023E000CDE5F220EEF2E2E5F2E000C0CA2DD1ED3B
:1023F000E8E6E5ED2EE7E0EFE0F1E000CFEEECE51A
:10240000F5E020E220EBE8EDE8E800CDE5E8F1EFCB
:10241000F02E445350203252414D2000D2EEEA209B
:10242000EFEEEAEEFF00CDE8E7EAEEE520EDE0EFC3
:10243000F02EE2FBF500C2FBF1EEEAEEE520EDE066
:10244000EFF02EE2FBF500CDE5E8F1EFF02E20CC29
:10245000CA20D3CC00C2D720F2F0E0EAF220E2EEAC
:10246000F1F1F22E00C0CA2DCDE5F220EEF2E2E548
:10247000F2E000CDE5E8F1EFF02EF3E4E0EB2E2002
:10248000C4D4C700CDE5E8F1EFF02EF3E4E0EB2E85
:1024900020C2DBD500D3E42ECFCED1D220E1E5E7B8
:1024A00020EEF2E22E00D3E42ECFCED1D220EEE108
:1024B000ED2EEFEEEC2E00C4EBE8F2E5EBFCED2E9A
:1024C00020EFEEECE5F5E000CDE5E8F1EFF02E20B1
:1024D000C4D4C700C0CA2DD1EDE8E6E5ED2EE7E093
:1024E000EFE0F1E000CFEEF0EEE320EFEE20EFEED4
:1024F000ECE5F5E500C0E2F2EEEAEEEDF2F0EEEB2F
:10250000FC00CDE5F220F1E8E3EDE0EBE020D0C700
:1025100000CDE8E7EAE8E920F3F0EEE22E20D0C7AC
:1025200000D1EDE8E62E20F3F0EEE2EDFF20CFD073
:10253000CC00CEF8E8E1EAE020F0E0E1EEF2FB20AA
:10254000D6D100C2F5EEE420525820D6D120EFF3C8
:10255000F1F200CEF8E8E1EAE020F0E0E1EEF2FB93
:1025600020D6D100C2F5EEE420525820D6D120EF7B
:10257000F3F1F20020CDE5F220F1E2FFE7E820F1EF
:1025800020C1D1CF2121212000C8F1F5EEE4ED2EAC
:1025900000CAEEEDF2F0EEEBFC00CFF3F1EA00CE74
:1025A000F1F2E0EDEEE200CDE5E8F1EFF02E00CF44
:1025B0002EEDE5E8F1EFF000CEE6E8E4E0EDE8E549
:1025C00000CDE0EB2EEFF3F1EA00D3E42EEFF3F1D0
:1025D000EA00CDE5F220D0C700D0E5F7FC00CFD06F
:1025E000C400CFD0CC00CEF8E8E1EAE000C8F1F5B5
:1025F000EEE4ED2E00CFD0CC20CAD72530317500C7
:10260000CFD0CC20CFC02530327500CDE5F220CA26
:10261000D700CDE5E8F1EFF02E00CF2EEDE5E8F1A3
:10262000EFF000CEE6E8E4E0EDE8E500C1CBCA203B
:10263000CACC25303275003F307830383F003F300B
:102640007830393F00D0E5F7FC00CFD0C400CFD0C0
:10265000CC00C8F1F5EEE4ED2E00CFD0C420CAD7EF
:102660002530317500CFD0C420CFC0253032750061
:10267000CDE5F220CAD700CDE5E8F1EFF02E00CF8E
:102680002EEDE5E8F1EFF000CEE6E8E4E0EDE8E578
:10269000003F307830373F00CFD0C420D6D125302E
:1026A000327500D1E8F1F2E5EC2E00D0E5F7FC0040
:1026B000CFD0C400CFD0CC00C7C0D900CFD0CC0081
:1026C000CFD0C400CDC5D200839C11241FBECFEF54
:1026D000D0E1DEBFCDBF80B58B7F80BD9FEF9ABBC1
:1026E0001BBA17BA98BB80EE84BB8FE185BB88E329
:1026F00081BB8CEC82BB80EC82B98CEF83B98EE01D
:102700008093610081EF8093620010926400909347
:10271000650082B1806C82B917BE8BE083BF88E10F
:1027200081BF87B7826087BF1FBC8CE08EBD1092CF
:102730007A001DBC1CBC80E792E09BBD8ABD87B7B8
:10274000806187BF2CE088E190E00FB6F894A895EF
:1027500081BD0FBE21BD11E0A0E0B1E0E8E7F4E4E7
:1027600001E00BBF02C007900D92AA3CB107D9F758
:102770001AE0AAECB1E001C01D92A73FB107E1F752
:1027800016E2CAECD6E204C02297FE010E94E39E44
:10279000C83CD107C9F70E946C9D0C943AA20C94D6
:1027A0000000982FE091D3018E2F8150893020F0C6
:1027B0008058893010F5E757EE23F9F08E2F8150BD
:1027C000943029F4E82FF0E0EF5FFE4F0DC0913018
:1027D00029F4E82FF0E0ED5EFE4F06C0923031F4B0
:1027E000E82FF0E0EB5DFE4F808108C0933029F4C4
:1027F000E82FF0E0E95CFE4FF7CF80E01092D301C4
:1028000008958091D20165E00E947F9E089580B373
:102810008095807C87FF02C090E801C090E086FF31
:1028200002C0976023C0809163008095837041F05F
:1028300080FF02C094601AC081FF18C0926016C069
:1028400083B380958F7191F080FF02C093600EC0BA
:1028500081FF02C095600AC082FF02C0966006C078
:1028600083FF02C0986002C084FD99608091D4010A
:10287000981741F09093D40183E080930001109267
:10288000D20109C080910001882339F0992379F0A1
:1028900081508093000190E00AC084E6809300019B
:1028A0008091D2018A3018F48F5F8093D201809199
:1028B000D301882311F49093D3010895809162008D
:1028C0008D7F809362001ABA85B3806C85BB80913E
:1028D00062008460809362000000000080916200CA
:1028E0008860809362000000000089B390916200CC
:1028F000977F9093620095E19A95F1F795B39F7356
:1029000095BB909162009860909362009FEF9ABB94
:102910008095881F8827881F089595B3962B95BBAF
:10292000E2E6F0E090819D7F908390819B7F908391
:1029300000000000E2E6F0E09081986090838BBB9D
:1029400000000000E2E6F0E08081877F808385E080
:102950008A95F1F785B36095862385BB0895E5EDEB
:10296000F1E0119285E0E53DF807D9F7089595B3B8
:10297000962B95BBE2E6F0E0908192609083908187
:102980009B7F9083000000008BBBE2E6F0E080813B
:102990008860808300000000E2E6F0E08081877FAD
:1029A00080838AE08A95F1F785B36095862385BB9D
:1029B00008952091D9053091DA05F901EB52FE4FC7
:1029C00080832F5F3F4F3093DA052093D905089518
:1029D0001F93AD9905C0AD9A80E49CE90197F1F78A
:1029E0008FEF9FEF9093DA058093D9051AE0812F3E
:1029F0008A95F1F784EC60EC0E948D141A95F1F73A
:102A00008FE360EC0E948D148AE18A95F1F71F91A3
:102A1000089590E0019770E07695762F6627779578
:102A20006795860F971F9093DA058093D9050895CF
:102A300081E08093D60508950F931F93CF93DF9382
:102A40008091D605882309F442C00091D80500235F
:102A500089F48091D705885460EC0E948D141AE1A6
:102A6000812F8A95F1F780E460EC0E948D141A950D
:102A7000F1F702C00034D8F48091D705C82FD0E018
:102A8000D695DC2FCC27D795C795CB52DE4FC00FFC
:102A9000D11D888160E80E94B714C05CDF4F888137
:102AA00060E40E94B7140F5F0093D80510C08091B6
:102AB000D705873030F48F5F8093D7051092D80503
:102AC00006C01092D7051092D8051092D605DF9156
:102AD000CF911F910F910895823039F488EE93E0E1
:102AE00090934A018093490108958093D5050895F4
:102AF0008091D505813029F482B390E2892782BB89
:102B000008952091490130914A0121153105B1F014
:102B100082B390E2892782BB80914B01882321F008
:102B2000815080934B01089587EC80934B01215095
:102B3000304030934A0120934901089595980895B3
:102B4000982F873010F080E00895A8EDB1E08AE575
:102B50008D9322E0A235B207D9F71396E2EDF2E0A9
:102B60008FEF8C9312968C93129780838283A05858
:102B7000BF4FE058FF4F25E0A53DB20791F7809386
:102B800054028093D50188E1809353028093D6014B
:102B90008BED809352028093D701892F90E00196AC
:102BA0009695982F882797958795FC01E852FE4FB8
:102BB0004AE59C012E5A3D4F4193E217F307E1F796
:102BC000FC01EB52FE4FE258FF4F88E18083EE5745
:102BD000F0408183E358FF4F8BED8083ED57F04049
:102BE000828381E00895CF93DF93DC01603240F06F
:102BF00067FD02C0605205C0603B10F0605501C027
:102C000060E0ED01CB52DE4F20E030E085E0689FD0
:102C1000B0011124F901E60FF71FE457FF4FE491CB
:102C2000E9932F5F3F4F25303105A1F7AB52BE4FDF
:102C300015961C92DF91CF910895AF92BF92CF92DB
:102C4000DF92EF92FF920F931F93CF93DF93E82EC3
:102C5000492F683010F080E046C0A62EBB2484E1E6
:102C600090E0A89E6001A99ED00CB89ED00C1124C3
:102C70002E2D342FC9018C01C4E8D0E00FC0CE0145
:102C8000F80160810E94F3158F2D64E10E947F9E00
:102C9000933109F428960F5F1F4F2696F02EFE18E9
:102CA0008F2D90E08C159D0554F3E501D695DC2F12
:102CB000CC27D795C795CC5FDE4FFC2C10C0CE013A
:102CC000F80160810E94F3158F2D64E10E947F9EC0
:102CD000933109F428960F5F1F4FF3942696F7E778
:102CE000FF1568F781E0DF91CF911F910F91FF9061
:102CF000EF90DF90CF90BF90AF900895FC016623D6
:102D000009F46681442309F447816430C9F06630D0
:102D1000B9F06930A9F06B3099F0623051F4842F2A
:102D200090E083709070892B11F08CE108958DE113
:102D3000089561506C3010F48FE1089580E008959B
:102D40008EE10895FC01E45AFF4F84EC96E29183F2
:102D500080833D9610823B971192119211921192AD
:102D6000119211921192119286E081938DE08193DC
:102D700010820895FC01168617821786108610822D
:102D80001182118612820895CF93DF93EC018F8117
:102D9000853010F080E017C0A82FB0E047FD0CC0D0
:102DA000E42FFF27E7FDF095AE17BF070CF44F8324
:102DB000EC0FFD1F628306C0AC0FBD1F12966C9313
:102DC0008F5F8F8381E0DF91CF910895FC0184E0D4
:102DD000808796E0918781E28287938711A210A273
:102DE00082E082A31486158616861786108A118AB9
:102DF000108E178A128E118E138E158E148E81E00E
:102E000090E0978F868F13A20895FC01662319F135
:102E10008689861700F150E040E0858920E030E0A7
:102E2000A82FB0E0742F7F5FCD01022E02C09595D0
:102E300087950A94E2F780FF04C0615011F4572F80
:102E4000520F2F5F3F4F2830310571F73197485FA0
:102E5000403219F701C050E0852F0895FC01868D9E
:102E6000978D248D358D820F931F6789708D019703
:102E70000E94989E0895FC01862F81508630B8F4F8
:102E80008150823038F481E090E0908B878781E038
:102E9000818B0CC0862F8550823040F417821682B9
:102EA000138612868FE097E291878087628B089560
:102EB0001F93FC01518740877387628710E007C02A
:102EC0001F5FCA016AE070E00E94989EAB01411545
:102ED0005105B1F714871F910895FC0127853089AA
:102EE00086819781B9010E94989E4189629FC001A5
:102EF000639F900D729F900D1124642F70E00E94CB
:102F0000989E862F08950F931F93CF93DF93FC0114
:102F1000462F9289913011F09430C1F52785308980
:102F2000442319F1C085D185CE01B9010E94989E34
:102F30006A30710550F0C901880F991F53E0220FC4
:102F4000331F5A95E1F7280F391F423070F0CE0138
:102F5000B9010E94989E6A30710538F0C901880F46
:102F6000991F880F991F280F391F668177818085E7
:102F70009185821B930B8617970718F0620F731FBA
:102F800002C0628573857783668339C0892F82503A
:102F9000823078F426813781828593858217930762
:102FA00018F4C901019702C08085918597838683B3
:102FB00026C09550923018F50681178127853089F3
:102FC000B901660F771FE90183E0CC0FDD1F8A95F9
:102FD000E1F76C0F7D1FC8010E94989EB9010E9405
:102FE000989E6930710539F4C20FD31F0C1B1D0B5D
:102FF0001783068304C0200F311F37832683868101
:103000009781DF91CF911F910F9108950F931F9397
:10301000CF93DF93EC0180E197E29B838A8380ED7D
:1030200098E19D838C831E861F86188A198A1A8AC6
:103030001B8A1D8A1C8A1F8A1E8A198E188E1B8E57
:103040001A8ECE014C960E94A216CA57DF4F1992D3
:1030500003E0099319921882C958D040FE01E6573F
:10306000FF4FC557DF4F10821992199211E0199343
:10307000198218822396199219921982188223971D
:1030800018822596199285E089938883C759D04084
:10309000CE0188569F4F0E94A216CE5FDE4F199236
:1030A0001992188224961882C850D140FE01E35D1F
:1030B000FE4F1083CB5FDE4F188224961882A596B0
:1030C00082E08883A897188224961882A5960883A0
:1030D000A897188224961882A59684E08883C05306
:1030E000D14080E08F5F81938032E1F7C35BDE4F98
:1030F00019921992199219921882A9971882C85296
:10310000D140CE018E5A9E4F0E94A216C454DE4F6B
:10311000199215E01993188224961882299618821C
:103120002C97188224961882299618822C97188238
:1031300024961882299618822C9718822496188231
:103140002996188225971882229784E1899382E034
:1031500088832297188224961882259619921992AC
:10316000199219921882C35DD140CE018C529E4FA4
:103170000E94A216C45BDD4F23E0299344E04883FC
:1031800025961883249719921992198218822396EA
:103190001992199231E03993199219921992199250
:1031A000199219921882239680E190E0998388837E
:1031B00082E18A931A92249619922993299319925B
:1031C000199289934993399389E19CEF8993999353
:1031D00080E79EEF99838883CB56D240FE01E25C64
:1031E000FD4F80E0119211928F5F8730D9F7C3595C
:1031F000DD4F199284E089931992199281E08883B6
:10320000C157D240CE018E589D4F0E94BA16CE01B2
:1032100088579D4F0E94E616FE01E455FD4F80E061
:1032200011928F5F8832E1F7CC52DD4F81E08993B4
:1032300019921882DF91CF911F910F910895CF932A
:10324000DF93FC0184E08183EF51FD4F82E08083B6
:1032500036968083359781E0808336968083ED5261
:10326000F1408081EB5BF140882331F5E957FF4F56
:103270008081E758F040DF01AC51BD4FEF01C651EE
:10328000DD4F9F012A513D4FAF0144515D4F8230C8
:1032900009F04EC0ED51FD4F87E080833696808364
:1032A00088E08C93888334978AE080833696808385
:1032B000EB5EF2408BE040C0EF5FFE4F8081E1505B
:1032C000F140DF01AD51BD4FEF01C751DD4F9F010F
:1032D0002B513D4FAF0145515D4F882329F48CE0C0
:1032E0008C9388838DE028C08CE08C9388838DE05C
:1032F000D9018C93DA018C93E957FF4F8081E7580D
:10330000F040DF01AC51BD4FEF01C651DD4F9F01D1
:103310002A513D4FAF0144515D4F823049F487E05F
:103320008C9388E088838AE0D9018C938BE006C077
:1033300086E08C93888389E0D9018C93DA018C93A1
:10334000EC52FE4F8FEB91E28193919380ED91E2ED
:103350008193919381EE91E28193919381EF91E238
:103360008193919381E092E29183808338968BE000
:1033700094E28193919381E192E2918380833496E8
:1033800086E294E28193919386E394E29183808331
:10339000389682E292E291838083E45FF140DF011C
:1033A000AB57BF4F8C9181111C92E856FF4F8BE0B9
:1033B00093E28193919389E193E2819391938AE2DD
:1033C00093E2918380833C9681E393E2819391938E
:1033D00081E493E28193919382E593E281939193C7
:1033E00082E693E2918380833A9681E295E281932B
:1033F000919382E395E28193919383E495E29183A3
:103400008083EA56FF4F8AE793E28193919388E89D
:1034100093E2918380833E9689E993E2819391932D
:103420008AEA93E2819391938BEB93E28193919358
:103430008CEC93E2918380833C9683E595E28193C3
:10344000919384E695E29183808381E0DF91CF912F
:1034500008950F931F93CF93DF93FC0182E0818344
:10346000EF51FD4F8083369681E0808332968CE069
:1034700080833697808338968DE08083369780836B
:10348000EE55F2408081E758F040DF01AE51BD4F6C
:10349000EF01C851DD4F9F012C513D4FAF01465107
:1034A0005D4FBF016A517D4F8F0104511D4F823026
:1034B00081F484E08C9385E0888387E0D9018C9344
:1034C00088E0DA018C938AE0DB018C938BE0D801F1
:1034D0000CC083E088838C9386E0DA018C93D90159
:1034E0008C9389E0D8018C93DB018C93EC52FE4FD6
:1034F0008FEB91E28193919380ED91E2819391938F
:1035000081EE91E28193919381EF91E28193919386
:1035100081E092E29183808338968BE094E28193FC
:10352000919381E192E291838083349686E294E2E2
:103530008193919386E394E2918380837C9682E2E7
:1035400092E291838083E850F24084E792E2958F83
:10355000848F82E892E2978F868F82E992E291A32C
:1035600080A381EB92E295A784A782EC92E297A7D1
:1035700086A783ED92E293AB82AB84EE92E297ABA7
:1035800086AB82E095E291AF80AF81E195E295AFA5
:1035900084AF8BEF92E297AF86AFE856FF4F8BE098
:1035A00093E28193919389E193E2819391938AE2EB
:1035B00093E2918380833C9681E393E2819391939C
:1035C00081E493E28193919382E593E281939193D5
:1035D00082E693E2918380833A9681E295E2819339
:1035E000919382E395E28193919383E495E29183B1
:1035F0008083EA56FF4F8AE793E28193919388E8AC
:1036000093E2918380833E9689E993E2819391933B
:103610008AEA93E2819391938BEB93E28193919366
:103620008CEC93E2918380833C9683E595E28193D1
:10363000919384E695E29183808381E0DF91CF913D
:103640001F910F910895CF93DF93FC0191E0918337
:10365000EF51FD4F82E080833696908332968CE066
:1036600080833697808338968DE080833697808379
:10367000339683E0808336978083E659F0408081DB
:10368000EC54F240DF01AC51BD4FEF01C651DD4FAC
:10369000823029F487E08C9388E0888303C086E039
:1036A00088838C93E451FD4F8FE08083369780832D
:1036B000E251F1408FEB91E28193919380ED91E2A1
:1036C0008193919381EE91E28193919381EF91E2C5
:1036D0008193919381E092E2819391938DED93E2B6
:1036E000819391938BEE93E2819391938CEF93E28C
:1036F000819391938BE094E28193919381E192E2A3
:10370000819391938CE194E28193919386E294E288
:103710008193919386E394E28193919387E494E279
:103720008193919385E594E291838083349682E23C
:1037300092E291838083E45FF14084E792E2958F87
:10374000848F82E892E2978F868F82E992E291A33A
:1037500080A385E694E295A384A383E794E291A7EE
:1037600080A784E894E293A782A781EB92E295A7D1
:1037700084A782EC92E297A786A785E994E291ABB1
:1037800080AB83ED92E293AB82AB86EA94E295AB99
:1037900084AB84EE92E297AB86AB87EB94E291AF79
:1037A00080AF88EC94E293AF82AF84ED94E295AF62
:1037B00084AF8BEF92E297AF86AFE05CFF4F85EE70
:1037C00094E28193919385EF94E291838083E25414
:1037D000F040DF01AF5FBE4F8C9181111C92E55428
:1037E000FE4F80818111108281E0DF91CF91089599
:1037F000FC0183E08183E951FD4F82E080833697AD
:103800008083379681E0808336978083EE50F14045
:103810008FEB91E28193919380ED91E2819391936B
:1038200081EE91E28193919381EF91E28193919363
:1038300081E092E2918380833A9681E192E29183E2
:1038400080833E9682E292E28193919382E392E2B8
:1038500091838083369683E492E28193919384E509
:1038600092E28193919384E692E291838083E05087
:10387000F24084E792E2958F848F82E892E2978FFC
:10388000868F82E992E291A380A381EA92E295A3D6
:1038900084A381EB92E295A784A782EC92E297A79A
:1038A00086A783ED92E293AB82AB84EE92E297AB74
:1038B00086AB84EF92E295AF84AF8BEF92E297AF45
:1038C00086AFE856FF4F8BE093E28193919389E1B5
:1038D00093E2819391938AE293E2918380833C9671
:1038E00081E393E28193919381E493E281939193B5
:1038F00082E593E28193919382E693E291838083C0
:103900003A9683E793E291838083E656FF4F8AE7F6
:1039100093E28193919388E893E2918380833E962A
:1039200089E993E2819391938AEA93E28193919357
:103930008BEB93E2819391938CEC93E29183808360
:1039400081E00895CF93DF93EC01FC01E35CFD4F30
:103950008081882311F481E08083662309F046C0CA
:10396000C35BDD4F8881CD54D240813029F5CB57E0
:10397000DF4F8881C558D040882379F0CF5FDE4F74
:103980008881C150D1408823E9F4C554DE4F888135
:10399000CB5BD1408823B1F4DCC0C554DE4F8881B5
:1039A000CB5BD140882361F4CF5FDE4F8881C1506B
:1039B000D140882329F407C0823029F463E003C092
:1039C00064E001C062E08981681709F482C06983FC
:1039D000C95ADC4F1982188284E19EE79A938A9330
:1039E000C657D04081E08883CF5DD240FE01EC52C3
:1039F000FE4F20E082EA91E2819391932F5F203184
:103A0000D9F7FE0120E0382F492F348F458F2F5FE3
:103A100032962031D1F7FE01E856FF4F20E0832F88
:103A2000942F819391932F5F2031D9F7FE01EE5AA5
:103A3000FE4F20E0819391932F5F2031D9F7FE0153
:103A4000EC50FE4F80E020EB31E2219331938F5F09
:103A50008031D9F7FE01FC9680E0219331938F5F8E
:103A60008031D9F7FE01E854FF4F80E02193319374
:103A70008F5F8031D9F7FE01EE58FE4F80E0219331
:103A800031938F5F8031D9F7FE01EF51FD4F80E018
:103A900011928F5F8C30E1F7643021F4CE010E94E7
:103AA0001F1913C0623021F4CE010E94291A0DC0E3
:103AB000613021F4CE010E94231B07C0633011F056
:103AC00020E00CC0CE010E94F81B282F8823C1F5EE
:103AD00005C0662311F021E033C021E01982FE0108
:103AE000EF51FD4F80E011928F5F8C30E1F7C951AB
:103AF000DD4F82E0888326978883279681E088833C
:103B000026978883C25ED240FE01EB57FF4F80812B
:103B100081111082FE01EF5FFE4F808181111082C2
:103B2000FE01E554FE4F808181111082C95ADC4F9D
:103B30001982188287E890E89A938A93C555D340F2
:103B400081E08883C152DD4F8883822FDF91CF913E
:103B50000895C25CDD4F88819981CE53D240807038
:103B6000907F8050904F09F02ECF61E02CCFCF9303
:103B7000DF93EC01DC01AE58BD4F9C91992339F0E5
:103B8000FE01ED58FD4F80818C93108240C0209142
:103B900057062F5F20935706213011F490E337C06A
:103BA0002230D1F4FE01E658FD4FC758DD4F908119
:103BB0008881C957D240981708F01082DE01A658B4
:103BC000BD4F8C91FE01E80FF11DEC58FD4F908127
:103BD0008F5F8C939923D9F4FE01EF57FD4FC058A6
:103BE000DD4F90818881C058D240981708F010822C
:103BF000FE01EF57FD4F8081C80FD11DC558DD4F25
:103C000098818F5F8083243010F010925706892F9F
:103C1000DF91CF910895EBEDF5E080E2819396E09E
:103C2000E435F907D9F70895862F8150863078F466
:103C300084E1689F602D1124962F945180E2E92F32
:103C4000F0E0E552FA4F80839F5F9617C1F7089521
:103C5000CF93DF93DC01663008F00AC28AE0689FE8
:103C6000602D11246F5F483009F403C14930B8F466
:103C7000443009F496C0453050F4423009F44CC049
:103C8000433008F076C0413009F0F2C11DC0463023
:103C900009F4BDC070E0473008F0D1C09EC04C3080
:103CA00009F403C14D3040F44A3009F481C170E099
:103CB0004B3008F099C166C14E3009F445C170E03F
:103CC0004F3008F0AEC124C18DB79EB70C970FB628
:103CD000F8949EBF0FBE8DBFEDB7FEB73196862F0D
:103CE00090E085529A4FCDB7DEB79A8389838BE0F7
:103CF00090E09383828385E594E0958384831B968B
:103D00008C911B97868317821C968C911C978087B9
:103D100011861D968C9125C0CDB7DEB72C970FB6B6
:103D2000F894DEBF0FBECDBFEDB7FEB73196862F3C
:103D300090E085529A4F9A8389838BE090E0938339
:103D4000828384E694E0958384831A968C911A97F3
:103D50008683178219968C911997808711861896F9
:103D60008C91828713860E94259F8DB79EB70C96F3
:103D70007AC1CDB7DEB728970FB6F894DEBF0FBE75
:103D8000CDBFEDB7FEB73196862F90E085529A4FA2
:103D90009A8389838BE090E09383828383E794E026
:103DA00017C0CDB7DEB728970FB6F894DEBF0FBEA9
:103DB000CDBFEDB7FEB73196862F90E085529A4F72
:103DC0009A8389838BE090E0938382838DE794E0EC
:103DD000958384831E968C9120C1CDB7DEB728973A
:103DE0000FB6F894DEBF0FBECDBFEDB7FEB731966C
:103DF00065527A4F7A8369838BE090E09383828364
:103E000088E894E0958384831F968C9106C1CDB792
:103E1000DEB728970FB6F894DEBF0FBECDBFEDB763
:103E2000FEB73196862F90E085529A4F9A83898308
:103E30008BE090E09383828383E994E015C0CDB753
:103E4000DEB728970FB6F894DEBF0FBECDBFEDB733
:103E5000FEB7319665527A4F7A8369838BE090E0A2
:103E6000938382838DE994E09583848350968C912B
:103E7000D4C0CDB7DEB728970FB6F894DEBF0FBE1B
:103E8000CDBFEDB7FEB73196862F90E085529A4FA1
:103E90009A8389838BE090E09383828388EA94E01D
:103EA0009583848351968C91B8C054962D913C9102
:103EB0005597ADB7BEB71A970FB6F894BEBF0FBEF1
:103EC000ADBFEDB7FEB73196862F90E085529A4F81
:103ED000CDB7DEB79A8389838BE090E093838283AA
:103EE00083EB94E095838483C9016AE070E00E94CB
:103EF000989E66831782C9016AE070E00E94989ECE
:103F0000808711860E94259F8DB79EB70A96ABC009
:103F1000CDB7DEB728970FB6F894DEBF0FBECDBF82
:103F2000EDB7FEB7319665527A4F7A8369838BE09D
:103F300090E09383828380EC94E09583848356960B
:103F40008D919C91579788C0CDB7DEB728970FB653
:103F5000F894DEBF0FBECDBFEDB7FEB73196862F0A
:103F600090E085529A4F9A8389838BE090E0938307
:103F7000828389EC94E09583848358968D919C91FB
:103F800059976AC0CDB7DEB728970FB6F894DEBF51
:103F90000FBECDBFEDB7FEB7319665527A4F7A832B
:103FA00069838BE090E09383828382ED94E017C075
:103FB000CDB7DEB728970FB6F894DEBF0FBECDBFE2
:103FC000EDB7FEB73196862F90E085529A4F9A83CF
:103FD00089838BE090E0938382838CED94E09583DA
:103FE000848352968C9119C0CDB7DEB728970FB64F
:103FF000F894DEBF0FBECDBFEDB7FEB73196655268
:104000007A4F7A8369838BE090E09383828387EE93
:1040100094E09583848353968C91992787FD90959E
:104020001BC0CDB7DEB728970FB6F894DEBF0FBE22
:10403000CDBFEDB7FEB7319665527A4F7A8369836B
:104040008BE090E09383828382EF94E09583848376
:104050005A968D919C915B97978386830E94259FAA
:104060008DB79EB708960FB6F8949EBF0FBE8DBF52
:10407000DF91CF910895AF92BF92CF92DF92EF92EE
:10408000FF920F931F93CF93DF93EC01C352DD4F49
:104090000881B6E0FB2EF01A8A91CC5DD240F8166A
:1040A00010F010E042C0182F1F193FC0D6018C91AC
:1040B000181718F020E030E00AC0E12FF0E0E958CE
:1040C000FE4FEE0FFF1FEC0FFD1F20813181EDB77A
:1040D000FEB738970FB6F894FEBF0FBEEDBF31960E
:1040E0000E9DC001112485529A4FADB7BEB71296EE
:1040F0009C938E931197B382A28235832483812F60
:1041000090E00196978386830E94259F1F5FEDB7FD
:10411000FEB738960FB6F894FEBF0FBEEDBFD601BE
:104120008C91181780F40F5F0BC0FDEECF2EF2E0DC
:10413000DF2ECC0EDD1EE4E1EE2E75E1A72EB12CB4
:10414000063008F4B3CFC552DD4F8881CB5DD24035
:104150008823F1F0C452DD4F8881CC5DD240F8163F
:1041600020F48AE28093410613C0C352DD4F2881B8
:1041700090E0820F911D24E130E0829FF001839F47
:10418000F00D929FF00D1124E753FA4F8AE28083DD
:10419000DF91CF911F910F91FF90EF90DF90CF9023
:1041A000BF90AF900895BF92CF92DF92EF92FF92AF
:1041B0000F931F93CF93DF93EC01C05BDC4FB8806C
:1041C000C055D3408AE0B81609F054C0C352DD4F41
:1041D0001881CD5DD24004C0CE01612F0E94141E13
:1041E0001F5F1730C8F3FE01ED5BFC4F8081DE01DD
:1041F000A952BD4F8F30D8F58F5F80831C9200E0AD
:1042000010E098E2E92EF12C85E1C82ED12C00D0E7
:1042100000D000D0EDB7FEB73196C70185529A4F56
:10422000ADB7BEB712969C938E931197D382C2827C
:104230000C9DC0010D9D900D1C9D900D1124855E5F
:104240009A4F958384830E94259F0F5F1F4F84E1BF
:1042500090E0E80EF91EADB7BEB716960FB6F8940B
:10426000BEBF0FBEADBF0330110589F659C084E053
:104270008C9356C0CE0166E00E94141ECC5BDC4FCE
:1042800028813981C454D340B5E0BB16D1F48DB731
:104290009EB708970FB6F8949EBF0FBE8DBFEDB7BF
:1042A000FEB731968FE396E0ADB7BEB712969C93FA
:1042B0008E93119785E190E0938382838EE095E061
:1042C0001AC096E0B91631F5ADB7BEB718970FB65C
:1042D000F894BEBF0FBEADBFEDB7FEB731968FE30A
:1042E00096E012969C938E93119785E190E09383CC
:1042F00082838BEF94E095838483378326830E94A7
:10430000259F8DB79EB708960FB6F8949EBF0FBE37
:104310008DBF06C0C952DD4F84E08883C75DD2409F
:10432000C952DD4F8881C75DD2408530D9F18630D2
:1043300030F4833089F0843009F047C008C08730FA
:1043400061F18730A0F1883009F03FC021C0C05B27
:10435000DC4F18822D9716C095E0B91639F4C05B72
:10436000DC4F87E08883C055D3402FC0FE01E05B5F
:10437000FC4FA6E0BA1619F488E0808326C01082AC
:10438000CD5BDC4F8FE088831A92C254D3401DC0AE
:10439000C35BDC4F88EE93E00EC0C35BDC4F84E66A
:1043A00090E009C0C35BDC4F8AE090E004C0C35BCF
:1043B000DC4F81E090E099838883CD54D340CE01D7
:1043C000825C9C4F60E00E948317C952DD4F1882C7
:1043D000C758DF4F8881DF91CF911F910F91FF90D8
:1043E000EF90DF90CF90BF900895CF92DF92FF9231
:1043F0000F931F93F62E6A0100D000D000D0EDB7C6
:10440000FEB731960BED15E0C801860F911DADB7D3
:10441000BEB712969C938E93119784E090E093839D
:1044200082838CE590E0C80ED91ED6018D919C91B7
:10443000958384830E94259FB3E0FB0EEDB7FEB702
:104440003196C8018F0D911DADB7BEB712969C93E2
:104450008E93119782E090E0938382838CE491E0C5
:10446000958384830E94E79EEDB7FEB73196F3945F
:104470000F0D111DADB7BEB712961C930E93119779
:1044800089E090E0938382838AE090E0C80ED91E91
:10449000D6018C9190E023E0880F991F2A95E1F7CF
:1044A00084509C4F958384830E94259F8DB79EB72F
:1044B00006960FB6F8949EBF0FBE8DBF1F910F9149
:1044C000FF90DF90CF900895DF92EF92FF920F93CD
:1044D0001F93CF93DF93EC01162F7A0100D000D009
:1044E00000D0EDB7FEB73196862F90E085529A4FF7
:1044F000ADB7BEB712969C938E93119784E090E06F
:10450000938382832CE530E0E20EF31ED7018D9178
:104510009C9124EA3FEFE20EF31E958384830E9470
:10452000259F1D5FEDB7FEB73196812F90E0855234
:104530009A4FADB7BEB712969C938E93119782E0B7
:1045400090E0938382838CE491E0958384830E943E
:10455000E79ED12ED394CB5CDD4FEDB7FEB73696F8
:104560000FB6F894FEBF0FBEEDBF8881C553D24091
:10457000882309F446C0C852DD4F8881C85DD24007
:104580002D2D30E08823D9F000D000D000D0ADB779
:10459000BEB7119625523A4FEDB7FEB7328321834D
:1045A00081E190E013969C938E931297CE5CDD4F41
:1045B000E881C253D240F0E0E651FF4FA2C08DB770
:1045C0009EB70A970FB6F8949EBF0FBE8DBFEDB78A
:1045D000FEB7319625523A4FADB7BEB712963C930F
:1045E0002E93119781E190E09383828384E394E09A
:1045F0009583848387E690E097838683CD5CDD4F47
:10460000B7C0E1E6F0E0EE0EFF1ED7018C91EFE9B6
:10461000FFEFEE0EFF1E882309F445C0C852DD4FA0
:1046200088812D2D30E08823F1F000D000D000D01B
:10463000ADB7BEB7119625523A4FCDB7DEB73A8324
:10464000298381E190E013969C938E931297EEE577
:10465000F0E0EE0EFF1EE701E88122EA3FEFE20EF6
:10466000F31EF0E0B0C0ADB7BEB71A970FB6F8941E
:10467000BEBF0FBEADBFEDB7FEB7319625523A4F64
:10468000CDB7DEB73A83298381E190E093838283BB
:1046900084E394E0958384838CE690E0978386831B
:1046A0002FE530E0C4C0C75CDD4F9881C953D240CC
:1046B000992309F4CEC0C852DD4F8881C85DD2402D
:1046C000882309F4C6C02D2D30E0913081F500D04B
:1046D00000D000D0ADB7BEB7119625523A4FEDB716
:1046E000FEB73283218381E190E013969C938E93F1
:1046F0001297CA5CDD4FE881C653D240F0E0E65025
:10470000FF4FEE0FFF1FEC0FFD1F8081918115966B
:104710009C938E9314970E94259F2DB73EB72A5FD6
:104720003F4F0FB6F8943EBF0FBE2DBFFFC08DB7F1
:104730009EB70A970FB6F8949EBF0FBE8DBFEDB718
:10474000FEB7319625523A4FADB7BEB712963C939D
:104750002E93119781E190E09383828384E494E027
:104760009583848387E690E097838683C95CDD4FD9
:104770008881998161C0C852DD4F8881882309F4FE
:1047800075C02D2D30E0913099F500D000D000D0CB
:10479000ADB7BEB7119625523A4FEDB7FEB732838B
:1047A000218381E190E013969C938E93129722E6E9
:1047B00030E0E20EF31EE701E8812EE93FEFE20E62
:1047C000F31EF0E07096EE0FFF1FEE0DFF1D8081CF
:1047D000918115969C938E9314970E94259F8DB777
:1047E0009EB706960FB6F8949EBF0FBE8DBF9EC0B3
:1047F000ADB7BEB71A970FB6F894BEBF0FBEADBF28
:10480000EDB7FEB7319625523A4FCDB7DEB73A83B2
:10481000298381E190E09383828384E494E095830B
:1048200084838CE690E09783868323E630E0E20E73
:10483000F31ED7018D919C91918780870E94259FBF
:10484000CDB7DEB72A960FB6F894DEBF0FBECDBF48
:104850006DC0E5E6F0E0EE0EFF1ED7019C91EBE99E
:10486000FFEFEE0EFF1E992309F085CF00D000D098
:1048700000D0EDB7FEB731968D2D90E085529A4F5E
:10488000ADB7BEB712969C938E93119709E010E0D6
:1048900013830283C6E6D0E0EC0EFD1ED7018D9196
:1048A0007D0190E043E0880F991F4A95E1F784501D
:1048B0009C4F958384830E94259FD39400D0ADB7ED
:1048C000BEB71196D80E8D2D90E085529A4FCDB778
:1048D000DEB79A83898313961C930E931297E70190
:1048E000E88129E93FEFE20EF31EF0E0B096EE0F0B
:1048F000FF1FEE0DFF1D8081918115969C938E9375
:10490000149788E690E0E80EF91EE7018881169674
:104910008C93169717961C920E94259FEDB7FEB7B1
:1049200038960FB6F894FEBF0FBEEDBFDF91CF9162
:104930001F910F91FF90EF90DF900895CF92DF923B
:10494000EF92FF920F931F93CF93DF93EC01C05B25
:10495000DC4F9881C055D3409A3009F054C0C352FF
:10496000DD4F0881CD5DD24004C0CE01602F0E9492
:10497000141E0F5F0730C8F3FE01ED5BFC4F808112
:10498000DE01A952BD4F8F30D8F58F5F80831C9216
:1049900000E010E098E2E92EF12C85E1C82ED12C40
:1049A00000D000D000D0EDB7FEB73196C7018552D8
:1049B0009A4FADB7BEB712969C938E931197D38240
:1049C000C2820C9DC0010D9D900D1C9D900D112467
:1049D000865A9A4F958384830E94259F0F5F1F4FAD
:1049E00084E190E0E80EF91EADB7BEB716960FB69B
:1049F000F894BEBF0FBEADBF0330110589F6D0C01D
:104A000084E08C93CDC0913071F5CC5BDC4F088194
:104A1000198126968881CA54D3408150843008F089
:104A2000B9C0CE0166E00E94141E8DB79EB70897EC
:104A30000FB6F8949EBF0FBE8DBFEDB7FEB731968F
:104A40008FE396E0ADB7BEB712969C938E93119705
:104A500085E190E09383828389EA95E0958384835E
:104A6000178306838CC0943009F040C0CC5BDC4FC8
:104A70000881198126968881CA54D3408150843098
:104A800020F0C952DD4F988389C0CE0166E00E94B4
:104A9000141EADB7BEB71A970FB6F894BEBF0FBEBF
:104AA000ADBFEDB7FEB731968FE396E012969C93BB
:104AB0008E93119785E190E09383828389E995E055
:104AC00095838483C8016AE070E00E94989E778392
:104AD0006683C8016AE070E00E94989E9187808793
:104AE0000E94259F8DB79EB70A964EC0923039F42A
:104AF000CC5BDC4F08811981C454D34010C0933083
:104B000009F048C0C05CDC4FE881F98124968881B7
:104B10009981C454D340E80FF91F008110E0CE0101
:104B200066E00E94141EADB7BEB718970FB6F89492
:104B3000BEBF0FBEADBFEDB7FEB731968FE396E0B7
:104B400012969C938E93119785E190E093838283D4
:104B500084EB95E095838483C25CDC4F8BE090E02E
:104B6000089F9001099F300D189F300D11248881F6
:104B70009981CE53D340820F931F978386830E94DF
:104B8000259F8DB79EB708960FB6F8949EBF0FBEAF
:104B90008DBF06C0C952DD4F84E08883C75DD24017
:104BA000C952DD4F8881C75DD240843061F08530C5
:104BB00020F4833009F096C08FC08530B9F088307A
:104BC00009F090C00AC0C05BDC4F18822D978FE0BF
:104BD00088831A92C254D34085C00E940114682F62
:104BE000CE01825C9C4F0E9483177CC00E940114FE
:104BF000482FC05BDC4F8881C055D340813019F00D
:104C0000843009F04BC0C35BDC4F28813981CD541F
:104C1000D340442339F1CA5BDC4FE881F981C654A3
:104C2000D340CF01B9010E94989E6A30710550F0BF
:104C3000C901880F991FA3E0220F331FAA95E1F73E
:104C4000280F391F423070F0CF01B9010E94989EA1
:104C50006A30710538F0C901880F991F880F991FB4
:104C6000280F391FCC5BDC4F6881798124968881BD
:104C70009981C854D340820F931F6817790718F0A1
:104C8000621B730B06C0CA5BDC4F68817981C65416
:104C9000D340CC5BDC4F798368831BC08250823069
:104CA00008F5CC5BDC4F2991399188819981C654F4
:104CB000D3402817390718F4C901019606C0C85B0C
:104CC000DC4F88819981C854D340CC5BDC4F9983F9
:104CD0008883C454D34006C0C05BDC4F89E088831E
:104CE000C055D340C952DD4F1882C758DF4F888165
:104CF000DF91CF911F910F91FF90EF90DF90CF90B8
:104D00000895CF92DF92EF92FF920F931F93CF936C
:104D1000DF93EC01F980FC01E152FD4F8081882393
:104D200009F446C01082C452DD4F81E088838A9323
:104D3000CB5DD24093E0F91631F4C352DD4F888346
:104D4000CD5DD2400EC0C957DF4F8881C758D040D3
:104D5000FE01E352FD4F823011F483E001C082E096
:104D600080830E94AF14FE01E352FD4F80810E94B8
:104D7000A015109254068E010E581D4FC8010E94B6
:104D8000BA16A3E0FA1629F0C80164E34FEF0E94B7
:104D9000C416DE01A058BD4F9C91953048F4FE0129
:104DA000E90FF11DE558FD4F8EE380839F5F9C93D3
:104DB000B3E0FB1609F446C0C957DF4F8881C758D6
:104DC000D0408E010B571F4F823051F5F801808182
:104DD000882399F0CE0162E047E00E94281ECE01B0
:104DE00063E044E00E94281ECE0164E048E00E9497
:104DF000281ECE0165E045E023C0CE0162E047E019
:104E00000E94281ECE0163E04AE00E94281ECE01C7
:104E100064E048E00E94281ECE0165E04BE010C02F
:104E2000CE0162E046E00E94281ED8018C918823C2
:104E300021F0CE0163E043E003C0CE0163E049E02E
:104E40000E94281E00D000D000D0EDB7FEB73196EA
:104E50008BED95E0ADB7BEB712969C938E931197EC
:104E600005E110E0138302838FE298E09583848349
:104E70000E94259FEDB7FEB73196C352DD4F888162
:104E800024E1829FC001112485529A4FADB7BEB76D
:104E900012969C938E931197138302838DE198E071
:104EA000958384830E94259FC655D240EDB7FEB7F7
:104EB00036960FB6F894FEBF0FBEEDBF8881C75877
:104EC000D04045EDE42E42E0F42EEC0EFD1E3FE313
:104ED000C32E36E0D32E823009F05DC000D000D062
:104EE00000D0EDB7FEB731968BE296E0ADB7BEB716
:104EF00012969C938E9311970BE010E0138302831C
:104F000086E198E0958384830E94259FEDB7FEB7E4
:104F10003196805B90E085529A4FADB7BEB712963E
:104F20009C938E93119713830283D7018C912BE06E
:104F3000F22E8F9DC001112483549A4F9583848350
:104F40000E94259FEDB7FEB73196ADB7BEB712965A
:104F5000DC92CE921197138302838FE098E09583C1
:104F600084830E94259FEDB7FEB731968C5990E05F
:104F700085529A4FADB7BEB712969C938E931197F8
:104F800013830283CA52DD4F8881C65DD2408F9D54
:104F9000C00111242BC000D000D000D0EDB7FEB767
:104FA0003196ADB7BEB71296DC92CE9211971383AD
:104FB000028384E098E0958384830E94259FEDB767
:104FC000FEB731968C5990E085529A4FADB7BEB777
:104FD00012969C938E9311978BE090E0938382833B
:104FE000D7018C912BE0829FC001112483549A4FEA
:104FF000958384830E94259FEDB7FEB736960FB642
:10500000F894FEBF0FBEEDBFC65CDD4F8881CA536A
:10501000D240853071F0809154068F5F80935406A2
:10502000853048F0C952DD4F84E08883C75DD240A7
:1050300002C010925406C952DD4F8881C75DD2402C
:10504000843019F0893069F520C0CE58DD4F888151
:10505000C257D240882319F4E0E0F0E009C0CD58EF
:10506000DD4F8881C357D240882341F4E1E0F0E06E
:10507000EC0FFD1FEE58FD4F80E78083C95ADC4FCF
:105080001982188287E69BE206C0C95ADC4F198252
:10509000188284E19EE79A938A93C657D04081E0B4
:1050A0008883DF91CF911F910F91FF90EF90DF9058
:1050B000CF900895FF920F931F93CF93DF93EC014E
:1050C000F980FC01E152FD4F8081882309F450C131
:1050D0001082C452DD4F81E088838A93CB5DD24039
:1050E00083E0F81611F082E001C081E08E010352E6
:1050F0001D4FD8018C930E94AF14F80180810E944B
:10510000A015109255068E010E581D4FC8010E9421
:10511000BA16C80164E34FEF0E94C416DE01A0581E
:10512000BD4F9C91953048F4FE01E90FF11DE55803
:10513000FD4F8EE380839F5F9C93FE01E455FD4FFE
:1051400080E011928F5F8832E1F7FE01EC52FD4F53
:1051500081E08083CB52DD4F19921882C65DD24028
:10516000F816B1F4C355DD4F8AE0888382E080836E
:10517000CB55D0408881C255D240882309F0FBC06E
:10518000C255DD4FF882CE5AD24083E08083F3C00F
:1051900092E0F91609F0A2C0C355DD4F86E089936D
:1051A00087E08883CE5AD24083E08083DE01AC5210
:1051B000BD4F9C91983248F4FE01E90FF11DE45572
:1051C000FD4F88E080839F5F9C93DE01AC52BD4F12
:1051D0009C91983248F4FE01E90FF11DE455FD4F12
:1051E00089E080839F5F9C93DE01AC52BD4F9C9110
:1051F000983248F4FE01E90FF11DE455FD4F8BE0B4
:1052000080839F5F9C93DE01AC52BD4F9C9198328E
:1052100048F4FE01E90FF11DE455FD4F8CE0808359
:105220009F5F9C93DE01AC52BD4F9C91983248F435
:10523000FE01E90FF11DE455FD4F8DE080839F5F76
:105240009C93DE01AC52BD4F9C91983248F4FE0114
:10525000E90FF11DE455FD4F8EE080839F5F9C9325
:10526000DE01AC52BD4F9C91983248F4FE01E90F2B
:10527000F11DE455FD4F8FE080839F5F9C93DE011D
:10528000AC52BD4F9C91983248F4FE01E90FF11DDC
:10529000E455FD4F80E180839F5F9C93DE01AC521B
:1052A000BD4F9C91983248F4FE01E90FF11DE45581
:1052B000FD4F81E180839F5F9C93DE01AC52BD4F27
:1052C0009C91983208F057C0FE01E90FF11DE4559A
:1052D000FD4F82E180839F5F9C934DC0A4E0FA164E
:1052E00021F5C355DD4F82E0899383E08883808375
:1052F000C25FD0402881CC5BD14093E1DE01AC524B
:10530000BD4F0EC08C91883250F4943340F4FE01AE
:10531000E80FF11DE455FD4F90838F5F8C939F5FE5
:10532000892F8351821770F326C0B3E0FB1619F55D
:10533000C355DD4F888382E08083C15FD0402881E0
:10534000CC5BD14093E1DF010EC08C91883250F4E8
:10535000943340F4FE01E80FF11DE455FD4F9083B6
:105360008F5F8C939F5F892F8351821770F30DC0DD
:10537000E3E0FE1651F0CE0162E04CE00E94281EF0
:10538000CE0163E04DE00E94281E00D000D000D086
:10539000EDB7FEB731968BED95E0ADB7BEB712967F
:1053A0009C938E93119705E110E01383028382E5AD
:1053B00098E0958384830E94259FEDB7FEB73196D0
:1053C000C352DD4F8881CD5DD24024E1829FC00170
:1053D000112485529A4FADB7BEB712969C938E9307
:1053E0001197138302838EE398E0958384830E9450
:1053F000259FFE01E05BFC4F8DB79EB706960FB66A
:10540000F8949EBF0FBE8DBF80818B3008F0108254
:10541000C05BDC4F8881C055D340882309F493C01A
:10542000CE010E949E24893009F0CDC0C05CDC4FC3
:10543000E881F981249688819981C454D340E80F8A
:10544000F91FE0818E2F8351803210F4E05105C0A6
:105450008E2F8250843018F4E15090E02AC0E6305C
:1054600011F491E025C0E73011F492E021C0E8305A
:1054700011F491E003C0E93019F492E0E2E019C0C0
:10548000EA3011F491E011C08E2F8F50843018F45F
:10549000EC5092E00EC08E2F8B50843018F4E85000
:1054A00091E007C0E13019F090E0E0E002C090E048
:1054B000E1E0CE57DD4F81E08993E883C154DF4FAF
:1054C0002881C05DD0408881C257D240882319F41A
:1054D000E0E0F0E009C0CD58DD4F8881C357D240ED
:1054E000882339F4E1E0F0E0EC0FFD1FEE58FD4FAA
:1054F0002083CC57DD4F82E089939883C354DF4FDC
:105500009881C05DD0408881C257D240882319F469
:10551000E0E0F0E009C0CD58DD4F8881C357D240AC
:10552000882339F4E1E0F0E0EC0FFD1FEE58FD4F69
:105530009083C05BDC4F18822D978FE088831A928E
:10554000C254D34040C000D000D000D0EDB7FEB769
:1055500031968FE396E0ADB7BEB712969C938E93CB
:10556000119785E190E09383828384E098E09583AE
:1055700084830E94259FEDB7FEB731968C5990E049
:1055800085529A4FADB7BEB712969C938E931197E2
:105590008BE090E093838283CB52DD4F8881C55DA1
:1055A000D2402BE0829FC001112483549A4F9583EF
:1055B00084830E94259FEDB7FEB736960FB6F89408
:1055C000FEBF0FBEEDBFC65CDD4F8881CA53D2401F
:1055D000843071F0809155068F5F80935506853039
:1055E00048F0C952DD4F84E08883C75DD24002C0D5
:1055F00010925506C952DD4F8881C75DD240843074
:1056000031F0893021F1833009F05BC02CC0CE58D5
:10561000DD4F8881C257D240882319F4E0E0F0E0E2
:1056200009C0CD58DD4F8881C357D240882341F44B
:10563000E1E0F0E0EC0FFD1FEE58FD4F80E78083C6
:10564000C95ADC4F1982188287E69BE206C0C95A04
:10565000DC4F1982188284E19EE79A938A93C65799
:10566000D04081E02DC0FE01EC5BFC4FC85BDC4FFD
:1056700088819981C854D340918380838E01025CD4
:105680001C4FC80163E00E943B17CC52DD4F48819C
:10569000C45DD24050E041505040C80160E070E02D
:1056A0000E945817CE0184559D4FC05CDC4F9983F2
:1056B00088838DEB95E0D8018D939C9322968EE79D
:1056C0008883DF91CF911F910F91FF900895AF9242
:1056D000BF92CF92DF92EF92FF920F931F93CF93DF
:1056E000DF93EC01FC01E152FD4F8081882309F436
:1056F00070C01082C452DD4F81E088838A93CB5DF5
:10570000D2408E0103521D4FD8018C930E94AF14DA
:10571000F80180810E94A015C351DD4F1882C25349
:10572000D1408881CB5BD140882339F4CB57DF4F00
:105730008881C558D0408823A1F0C251DD4F80EA4E
:1057400098E099838883CE5ED240DE01A351BD4F9D
:105750008C91FE01E80FF11DE65DFC4F10828F5F1A
:105760008C93CF5FDE4F8881C150D140882339F4BC
:10577000CB57DF4F8881C558D0408823E1F0AE0178
:1057800043515D4FDA012C912431A8F4E22FF0E06F
:10579000DF01A958BE4FAA0FBB1FAC0FBD1F8DE87C
:1057A00098E08D939C93EC0FFD1FE65DFC4F1082FB
:1057B0002F5FFA0120838E010E581D4FC8010E94F1
:1057C000BA168981813029F4C80167E34FEF0E943E
:1057D000C416C452DD4FE881E15061968881CD5EE8
:1057E000D240E81718F0AA24BB2409C0F0E0E95819
:1057F000FE4FEE0FFF1FEC0FFD1FA080B18000D009
:1058000000D000D0EDB7FEB731968BED95E0ADB787
:10581000BEB712969C938E93119784E190E0938388
:10582000828385EB98E0958384830E94259FC052F4
:10583000DD4FEDB7FEB736960FB6F894FEBF0FBE3C
:10584000EDBF8881C05ED2408F3008F046C0C352A1
:10585000DD4F0881CD5DD24004C0CE01602F0E9493
:10586000141E0F5F0730C8F300D000D000D0EDB792
:10587000FEB7319663E0E62E66E0F62EADB7BEB712
:105880001296FC92EE92119755E1C52ED12CD3823F
:10589000C28203E618E0158304830E94259FEDB7BA
:1058A000FEB7319684E190E0E80EF91EADB7BEB7C1
:1058B0001296FC92EE921197D382C2820B5E1F4F1A
:1058C000158304830E94259FEDB7FEB736960FB669
:1058D000F894FEBF0FBEEDBF03C0CE010E943B2077
:1058E000C65CDD4F9881C356DF4F8881C75DD240CB
:1058F0008530E9F0863030F48330E9F1843009F006
:10590000AFC025C0883021F0893009F0A9C026C079
:10591000C452DD4F8881CC5DD240823010F081507E
:1059200013C0C351DD4F8881CD5ED2400DC0C4523B
:10593000DD4F988161968881CD5ED240981710F036
:1059400081E002C0892F8F5FC452DD4F12C0C95A57
:10595000DC4F198218828DE09DE706C0C95ADC4FE2
:105960001982188284E19EE79A938A93C657D040A1
:1059700081E0888375C0F0EAAF16F8E0BF0649F50C
:10598000992311F09530E1F4CE57DD4F18826097DE
:105990008881C257D240882319F4E0E0F0E009C0C2
:1059A000CD58DD4F8881C357D240882359F4E1E0B8
:1059B000F0E0EC0FFD1FEE58FD4F8EE7808302C034
:1059C0009430D1F5C95ADC4F198218828AE598E2E1
:1059D0002BC02DE8A21628E0B20671F5992311F02C
:1059E0009430D1F4CE58DD4F8881C257D2408823FD
:1059F00019F4E0E0F0E009C0CD58DD4F8881C357CD
:105A0000D240882359F4E1E0F0E0EC0FFD1FEE589E
:105A1000FD4F8DE7808302C0953071F4C95ADC4F89
:105A20001982188281E896E29A938A93C657D040E9
:105A300081E08883CF5DD240CB5ADC4F8881998149
:105A4000C555D34087569B4259F4C95ADC4F8881CB
:105A50009981C755D340892B19F4C052DD4F188264
:105A6000DF91CF911F910F91FF90EF90DF90CF903A
:105A7000BF90AF900895CF92DF92EF92FF920F9375
:105A80001F93CF93DF93EC01FC01E152FD4F808126
:105A9000882309F494C01082C452DD4FFF24F3948C
:105AA000F882FA92CB5DD2408E0103521D4FD8018D
:105AB000FC920E94AF14F80180810E94A015FE01A3
:105AC000E351FD4FC251DD4F86E09AE09983888310
:105AD000EC961882F082CD5BD0408881CD56D240C2
