:100000000C94F90D0C94620E0C94620E0C94620E1A
:100010000C94620E0C94620E0C94620E0C94620EA0
:100020000C94620E0C94620E0C94620E0C94620E90
:100030000C94C7700C94620E0C94620E0C94FD70BC
:100040000C94620E0C94620E0C945E700C94FC6F17
:100050000C9435700C94620E0C94620E0C94620E2B
:100060000C94620E0C94620E0C94620E0C94620E50
:100070000C94620E0C94620E0C94C86F0C94666F14
:100080000C949F6F0C94620E0C94620E00000000A2
:100090000000004F00000007000700147F147F14C9
:1000A000242A7F2A1223130864623649552240000D
:1000B00005030000001C2241000041221C0014081E
:1000C0003E081408083E08080050300000080808E0
:1000D0000808006060000020100804023E514945F5
:1000E0003E00427F400042615149462141454B312B
:1000F0001814127F1027454545393C4A49493001BB
:10010000710905033649494936064949291E003611
:100110003600000056360000081422410014141462
:100120001414004122140802015109063249714198
:100130003E7E1111117E7F494949363E414141229F
:100140007F4141221C7F494949417F090909013EFC
:100150004149493A7F0808087F00417F410020401B
:10016000413F017F081422417F404040407F020C04
:10017000027F7F0408107F3E4141413E7F0909090B
:10018000063E4151215E7F091929464649494931B8
:1001900001017F01013F4040403F1F2040201F3FA1
:1001A0004070403F631408146307087008076151EA
:1001B000494543007F4141000204081020004141AD
:1001C0007F0004020102044040404040000102045C
:1001D0000020545454787F484444383844444420E0
:1001E000384444487F3854545418087E0901020C9E
:1001F0005252523E7F0804047800447D4000204063
:10020000443D007F1028440000417F40007C0418DA
:1002100004787C0804047838444444387C1414146A
:1002200008081414187C7C0804040848545454200A
:10023000043F4440203C4040207C1C2040201C3C8B
:100240004030403C44281028440C5050503C4464FA
:10025000544C44000836410000007F000000413645
:100260000800020102020114141414147E11111169
:100270007E7F494949337F494949367F010101035E
:10028000E0514F41FF7F4949494177087F08774155
:10029000494949367F1008047F7C2112097C7F0878
:1002A00014224120413F017F7F020C027F7F08081A
:1002B000087F3E4141413E7F0101017F7F090909DD
:1002C000063E4141412201017F01014728100807F4
:1002D0001C227F221C63140814637F404040FF07E8
:1002E0000808087F7F407F407F7F407F40FF017F7D
:1002F0004848307F4830007F007F484830224149DD
:10030000493E7F083E413E462919097F20545454F6
:10031000783C4A4A49317C545428007C0404040C3B
:10032000E0544C44FC38545454186C107C106C4409
:10033000445454287C2010087C7C4122117C7C1081
:1003400028440020443C047C7C0810087C7C10106D
:10035000107C38444444387C0404047C7C14141419
:1003600008384444442004047C04040C5050503C9D
:100370003048FC483044281028447C404040FC0C65
:100380001010107C7C407C407C7C407C40FC047CD9
:100390005050207C5050207C7C50502000284454E9
:1003A00054387C10384438085434147CCDEEE2FBC9
:1003B000E920EFE0F0EEEBFC3A202530347500CF79
:1003C000E0F0EEEBFC3A20253034750020202020B0
:1003D000202020C2E2E5E4E5ED202020202020209E
:1003E0000020202020EDE5EFF0E0E2E8EBFCEDFB63
:1003F000E9202020200020202020202020EFE0F0F5
:10040000EEEBFC202020202020200020C8E7ECE597
:10041000EDE8F2FC20EFE0F0E0ECE5F2F020200067
:100420002020ECEEE6EDEE20F2EEEBFCEAEE20E230
:1004300020202020002020F0E5E6E8ECE520C2DBCB
:10044000C2C5C4C5CD2020202000C2E2EEE43A207F
:10045000253031752E2530317500C2E2EEE43A20A8
:100460002530317500C2E2EEE43A20255300C7ED95
:10047000E0F7E5EDE8E53A2000CDE5F20000000008
:1004800000000000CAD7000000000000000000CA01
:10049000D7310000000000000000CAD73200000081
:1004A0000000000000CAD733000000000000000078
:1004B000CAD7340000000000000000CAD720E1E5E0
:1004C000E720E1EBEA00CAD720F120E1EBEEEA00F9
:1004D00000D0C7000000000000000000CAEEEC31B0
:1004E0002BE1EBEEEA0000CAEEEC322BE1EBEEEA98
:1004F0000000CAEEEC332BE1EBEEEA0000CAEEECB2
:10050000342BE1EBEEEA0000CAEEECE0EDE4E03182
:10051000000000CAEEECE0EDE4E032000000CAEEBC
:10052000ECE0EDE4E033000000CAEEECE0EDE4E0E6
:1005300034000000CAEEECE0EDE4E035000000CA53
:10054000EEECE0EDE4E036000000CAEEECE0EDE4B5
:10055000E037000000CAEEECE0EDE4E03800000017
:10056000CAEEECE0EDE4E039000000CAEEECE0EDAC
:10057000E4E031300000CAEEECE0EDE4E0313100BF
:1005800000CAEEECE0EDE4E031320000CAEEECE04F
:10059000EDE4E031330000CAEEECE0EDE4E03134AC
:1005A0000000CAEEECE0EDE4E031350000CAEEEC0C
:1005B000E0EDE4E031360000CAEEECE0EDE4E031DD
:1005C000370000CAEEECE0EDE4E031380000CAEE9E
:1005D000ECE0EDE4E031390000CAEEECE0EDE4E0FF
:1005E00032300000CAEEECE0EDE4E032310000CA47
:1005F000EEECE0EDE4E032320000CAEEECE0EDE4D7
:10060000E032330000CAEEECE0EDE4E0323400000A
:10061000CAEEECE0EDE4E032350000CAEEECE0EDCD
:10062000E4E032360000CAEEECE0EDE4E032370000
:1006300000CAEEECE0EDE4E032380000CAEEECE097
:10064000EDE4E032390000CAEEECE0EDE4E03330F6
:100650000000CAEEECE0EDE4E033310000CAEEEC5D
:10066000E0EDE4E033320000EEF8E8E1EAE000001B
:10067000000000D1E8E3EDE0EB20EDE020E2F5EE54
:10068000E4E500CCE5EDFE5CD2E5F1F2203200D1EC
:10069000E8E3EDE0EB20EDE020E2FBF5EEE4E50041
:1006A000CCE5EDFE5CD2E5F1F220310025642E2090
:1006B000D1E5EAF3EDE4FB0025642E20CCE8EDF370
:1006C000F2FB0025642E20D7E0F1FB0025642E20EC
:1006D000C4E5EDFC0025642E20CCE5F1FFF60025F5
:1006E000642E20C3EEE400CDE0F1F2F0EEE9EAE0A2
:1006F0005CC2F0E5ECFF26E4E0F2E000CFE0F0E0E1
:10070000ECE5F2F03A257520C2F1E5E3EE3A257505
:1007100000C4E8E0EFE0E7EEED3A2000E2EAEB2E7D
:100720002FE2FBEAEB2E0025642E2E2564257300B4
:10073000F1EFE8F1EEEA00E2FBEAEB2E0000000048
:100740000000E2EAEB2E00000000000000EEF8E8F6
:10075000E1EAE00000000000C0C2C0CDD220D034E9
:10076000303000CFC2C72D39300000000000C0C2B9
:10077000C7CA2D383000000000CFC2C7D32DC50036
:1007800000000000CFC2C7CB00000000000000EE58
:10079000F8E8E1EAE00000000000EEF8E8E1EAE055
:1007A0000000000000E1FBF1F2F0FBE900000000B6
:1007B000ECE5E4EBE5EDEDFBE90000EEF8E8E1EA5D
:1007C000E00000000000EEF8E8E1EAE000000000D0
:1007D00000E2EAEB2E00000000000000E2FBEAEB82
:1007E0002E000000000000EEF8E8E1EAE000000062
:1007F0000000EEF8E8E1EAE00000000000F2F0E5B9
:10080000E2EEE6EDFBE90000EDEEF0ECE0EBFCEDF6
:10081000FBE900F1EFEEEAEEE9EDFBE90000EEF8AE
:10082000E8E1EAE00000000000D1EEE2ECE5F1F2E0
:10083000E8ECEEF1F2FC00D2E8EF20E0E2F2EEEAC2
:10084000EEEDF2F0EEEBFF00C4EEEFF3F1F2E8ECC8
:10085000E0FF20EFEEECE5F5E000CFEEF0EEE32078
:10086000EFEE20EFEEECE5F5E500C4EEEFF3F1F28C
:10087000E8ECFBE520EFF0EEE2E0EBFB00CFF0E888
:10088000E7EDE0EA20F7E5F2EDEEF1F2E800CFF077
:10089000EEF2EEEAEEEB20EEE1ECE5EDE000CAEE82
:1008A000F0F0E5EAF6E8FF20F2EEEAE000CAEEF04A
:1008B000F0E5EAF6E8FF20EDE0EFF0FFE6E5EDE831
:1008C000FF00D2E8EF20E4E5F2E5EAF2EEF0E00026
:1008D000D1EDE8E6E5EDE8E520EEF2E2E5F2E02034
:1008E000C0CA00D1EEE2ECE5F1F2E8ECEEF1F2FC88
:1008F00000D7E0F1F2EEF2E00055E2FBF520EDEE7C
:10090000ECE8EDE0EBFCEDEEE500D1E5F2E5E2EE42
:10091000E920E0E4F0E5F100C7E0E3F0F3E1EB2EDD
:1009200020F7F3E2F1F2E22E20CFD0CC00D3E4E5C1
:10093000F0E62E20F0E5EBE520EAEEEC2E20CFD01D
:10094000CC00D3E4E5F0E62E20F0E5EBE520EAEE7E
:10095000EC2E20CFD0C400C2F0E5ECFF20EFE5F094
:10096000E5E7E0EFF3F1EAE000CFEEF0EEE320EFB1
:10097000F0E5E4F3EFF02E20EFEE20CAD700CAEE48
:10098000EDF2F0EEEBFC20E2FBF52EF1E8E3EDE01A
:10099000EBE000CDEEECE5F020E0EFEFE0F0E0F290
:1009A000E000D1E8EDF5F0EEEDE8E7E0F6E8FF2055
:1009B000F7E0F1EEE200CFE0F0E0ECE5F2F0FB5C16
:1009C000CEE1F9E8E500CDEEECE5F020EAEEECE072
:1009D000EDE4FB3A2025752F257500C1EBEEEAE822
:1009E000F0EEE22E20EAEEECE0EDE4FB00D1EBE5E8
:1009F000E4FFF9E8E520EAEEECE0EDE4FB00D2E507
:100A0000F1F2EEE2E0FF20EAEEECE0EDE4E000C41B
:100A1000EBE8F2E5EBFCEDEEF1F2FC20EAEEECE0C7
:100A2000EDE4FB00C7E0E4E5F0E6EAE020F1F0E009
:100A3000E1E0F22E20CFD0C400CFE0F0E0ECE5F210
:100A4000F0FB5CCFE5F0E5E4E0F2F7E8EA00C7E0B0
:100A5000E4E5F0E6EAE020EDE020E2FBEAEB2EEA56
:100A6000EEEC00C1EBEEEAE8F0EEE22E20EAEEEC6E
:100A7000E0EDE4FB00C7E0E4E5F0E6EAE020EDE0CD
:100A800020F4E8EAF12EEAEEEC00CFE0F0E0ECE54D
:100A9000F2F0FB5CCFF0E8E5ECEDE8EA00C4D4C787
:100AA0002DCFF0CFE4000000C4D4C72DCCCA310054
:100AB000000000C4D4C72DCCCA3200000000C4D44A
:100AC000C72D4C363000000000CDC72DCFF0CFE44D
:100AD00000000000CDC72DCCCA000000000000CFF0
:100AE000CFC72DCFF0CFE4000000CFCFC72DCCCAA9
:100AF0000000000000EEF8E8E1EAE000000000007D
:100B0000EEF8E8E1EAE000000000003220EAEEED55
:100B1000F6E5E2E0FF003320EAEEEDF6E5E2E0FF85
:100B200000EEF8E8E1EAE00000000000E0EAF22B65
:100B3000EFE0F1F1000000E0EAF2E8E2EDFBE900AD
:100B40000000EFE0F1F1E8E2EDFBE90000EEF8E88B
:100B5000E1EAE000000000002D353030C3F600006F
:100B60000000002D323530C3F6000000000030C315
:100B7000F600000000000000002B323530C3F60004
:100B8000000000002B353030C3F60000000000EEFE
:100B9000F8E8E1EAE00000000000D7E0F1F2EEF250
:100BA000E020CFD0CC00D7E0F1F2EEF2E020CFD0C1
:100BB000C400D1EDE8E6E5EDE8E520F3F0EEE2ED86
:100BC000FF20C0CA00D2E8EF20EFF0E8E5ECEDE846
:100BD000EAE000C7E0E3F0F3E12EF7F3E2F1F2E23E
:100BE0002E20EFEE20D0C700CFEEF0EEE320EFF0A6
:100BF000E5E4F3EFF020EFEE20D0C700CAEEECEF13
:100C0000E5EDF1E0F6E8FF20E7E0E4E5F0E6EAE80C
:100C100000CFE5F0E5EAF0FBF2E8E520E8ECEFF3E1
:100C2000EBFCF1EEE200C4EEEF2E20E2F0E5ECFF8B
:100C300020E1E5E720ECE0ED2E00D2E8EF20EBE844
:100C4000EDE8E800D2E8EF20E7E0F9E8F2FB00CFBA
:100C5000E0F0E0ECE5F2F0FB5CC7E0F9E8F2FB0065
:100C600025642E20CEE1F9E8E50025642E20CFE5AD
:100C7000F0E5E4E0F2F7E8EA0025642E20CFF0E8A2
:100C8000E5ECEDE8EA0025642E20C7E0F9E8F2E0A3
:100C900000CDE0F1F2F0EEE9EAE05CCFE0F0E0EC6C
:100CA000E5F2F0FB00C2FBE2E5E4E5ED0000000048
:100CB000C2E2E5E4E5ED0000000000D2E5F1F2203B
:100CC000310000000000D2E5F1F220320000000007
:100CD00000CDE0F1F2F0EEE9EAE05CD0E5E6E8EC28
:100CE0000025642E20CFE0F0EEEBFC0025642E20E2
:100CF000CFE0F0E0ECE5F2F0FB0025642E20C2F03E
:100D0000E5ECFF20E820E4E0F2E00025642E20D0AE
:100D1000E5E6E8EC00CCE5EDFE5CCDE0F1F2F0EECE
:100D2000E9EAE00025642E20C0CA20EEE4EDEEF1F1
:100D3000F2EEF0EEEDEDE8E90025642E20C0CA20C9
:100D4000EDEEF0ECE0EBFCEDFBE90025642E20C0BD
:100D5000CA20E2FBEAEBFEF7E5ED0025642E20C099
:100D6000CA20F3F1EAEEF0E5EDEDFBE90025642E93
:100D700020C0CA20E0E2F2EEECE0F2E8F7E5F1EAAA
:100D80002E0025642E20CFF3F1EA20CFD0C4002519
:100D9000642E20CFF3F1EA20C0CA20F3E4E0EBE5B3
:100DA000EDED2E0025642E20CFF3F1EA20C0CA20FD
:100DB000F1E2EEE90025642E20D1E1F0EEF120C051
:100DC000CA0025642E20CFF3F1EA20EDE0EBE0E449
:100DD0002E20E2FBEAEB0025642E20CFF3F1EA207F
:100DE000EDE0EBE0E42E20E2EAEB2E0025642E207D
:100DF000C2FBE7EEE20025642E20D1E1F0EEF12007
:100E0000F3E4E0EBE5EDEDEEE3EE0025642E20D11A
:100E1000E1F0EEF120F1E2EEE5E3EE0025642E20B4
:100E2000CFF3F1EA20F3E4E0EBE5EDEDEEE3EE00E5
:100E3000CCE5EDFE5CD3EFF0E0E2EBE5EDE8E500BC
:100E4000C7E0EFE8F1FC202575202F20257500C6AE
:100E5000D3D0CDC0CB20CFD3D1D200D1D7C8D2DB15
:100E6000C2C0CDC8C520C7C0CFC8D1C800CAEEEC2B
:100E7000E0EDE4E03A20257500C4E0F2E03A2025F8
:100E80003032752E253032752E2530327500C2F085
:100E9000E5ECFF3A20253032753A253032753A2597
:100EA0003032752E2530337500CEEAEEEDF7E0EDE9
:100EB000E8E520EAEEECE0EDE4FB00000000CDE028
:100EC000F7E0EBEE20EAEEECE0EDE4FB00000000E2
:100ED000000000CEF8E8E1EEF7EDEEE520E7EDE00A
:100EE000F7E5EDE8E5000000C6F3F0EDE0EB5CCFE0
:100EF000E5F0E5E4E0F2F7E8EA00C6F3F0EDE0EB58
:100F00005CCFF0E8E5ECEDE8EA00D1EEF1F2EEFFBF
:100F1000EDE8E53A00CF2564D12564CC256420CFE7
:100F2000C42564CFCC2564C2DBD5256400C6F3F0AC
:100F3000EDE0EB5CC7E0F9E8F2E000D0E5E6E8ECD4
:100F40003A00C2FBE2E5E4E5ED00C3EEF2EEE200BA
:100F50000000C2E2E5E4E5ED0000D0E5F7FC0000AA
:100F60000000D2E5F1F231000000D2E5F1F23200EA
:100F70000000EEF8E8E1EAE00000D1EEE1FBF2E883
:100F8000E5202D202564000000000000000000CDB9
:100F9000E5E8F1EFF020F7F2E5EDE8FF20464C41FF
:100FA00053480000CDE5E8F1EFF020E7E0EFE8F18D
:100FB000E820464C4153480000CDE5E8F1EFF02031
:100FC000F7F2E5EDE8FF20CFCBC8D1000000CDE57A
:100FD000E8F1EFF020E7E0EFE8F1E820CFCBC8D16F
:100FE000000000CDE5E8F1EFF020E7E0EFE8F1E800
:100FF000203252414D000000CDE5E8F1EFF020F73E
:10100000F2E5EDE8FF203252414D000000CDE5E869
:10101000F1EFF020F0E0E1EEF2FB2044535000004D
:101020000000C2EEF1F1F2E0ED2DE520F0E0E1EE9E
:10103000F2FB2044535000CDE8E7EAEEE520EDE076
:10104000EFF02E20E2FBF5EEE4E00000C2FBF1EE53
:10105000EAEEE520EDE0EFF02E20E2FBF5EEE4E035
:1010600000CDE0F0F3F8E5ED20EEE1ECE5ED20F168
:1010700020D3CC000000CDE5E8F1EFF0E0E2EDEEAA
:10108000F1F2FC20F7E0F1EEE20000CDE5F220E124
:10109000EBEEEAE020C1D1C7000000000000000034
:1010A000CDE5E8F1EFF020E2E5F0F1E8E820C1D18C
:1010B000C700000000CDE5E8F1EFF020EFE5F0E536
:1010C000EAEB2DE5E920C1D1C700CDE5F220F1E83A
:1010D000E3EDE0EBE020CCC0CD000000000000CF4D
:1010E000E5F0E5E7E0EFF3F1EA00000000000000C2
:1010F00000000000C8E7ECE5EDE5EDE8E520F0E5EF
:10110000E6E8ECE020F0E0E100CEF8E8E1EAE020FB
:10111000E7E0EFE8F1E80000000000000000CEF892
:10112000E8E1EAE020EAEEEDF2F0EEEBFF0000008D
:10113000000000D1EDE8E6E5EDE8E520F3F0EEE2B1
:10114000EDFF20CFD0CC0000CDE5F220F1E8E3EDBB
:10115000E0EBE020CFD0CC000000000000CEF2F1A8
:10116000F3F22DE520F1E8E3EDE0EBE020CFF3F141
:10117000EA00CEF2F1F3F22DE520F1E8E3EDE0EB49
:10118000E020D1F2EEEF00C2FBEAEBFEF7E5EDE87E
:10119000E520EFE8F2E0EDE8FF000000D1EEE1FB32
:1011A000F2E8E5202D20256400000000000000008A
:1011B00000D1EEE1FBF2E8E5202D202564000000DF
:1011C000000000000000D1EEE1FBF2E8E5202D2058
:1011D0002564000000000000000000D1EEE1FBF2F9
:1011E000E8E5202D2025640000000000000000003C
:1011F000D1EEE1FBF2E8E5202D202564000000009F
:101200000000000000D1EEE1FBF2E8E5202D2025F2
:1012100064000000000000000000D1EEE1FBF2E8F5
:10122000E5202D202564000000000000000000D112
:10123000EEE1FBF2E8E5202D20256400000000002F
:1012400000000000D1EEE1FBF2E8E5202D2025644E
:10125000000000000000000000C2EAEB2E20EFE8D2
:10126000F2E0EDE8FF2FEFE5F0E5E7E0EF00C2FB8D
:10127000EAEBFEF7E5EDE8E520EFE8F2E0EDE8FF68
:10128000000000C8E7ECE5EDE5EDE8E520F0E5E677
:10129000E8ECE020F0E0E100D1EEE1FBF2E8E5204F
:1012A0002D202564000000000000000000CDE5E8CE
:1012B000F1EFF020F2E5F1F2E020CFD0C400000021
:1012C0000000CDE5E8F1EFF020F2E5F1F2E020CF0B
:1012D000D0CC0000000000CDE5E8F1EFF020E1EB1C
:1012E000EEEAE020C1D1C70000000000CDE5E8F142
:1012F000EFF020E1EBEEEAE020C1D1CA00000000EF
:1013000000CDE5E8F1EFF020EFE5F0E5EAEB2DE5C3
:10131000E920C1D1C700CDE5F220F1E8E3EDE0EB33
:10132000E020ECE0EDE8EFF3EB2E00CDE5E8F1EFA7
:10133000F020E2FBF5EEE4EDEEE920F6E5EFE80063
:10134000CDE5F220F1E8E3EDE0EBE020D0C70000CE
:101350000000000000CEF2F1F3F22DE520F1E8E309
:10136000EDE0EBE020CFF3F1EA00CEF2F1F3F22D65
:10137000E520F1E8E3EDE0EBE020D1F2EEEF00CD87
:10138000E5E8F1EFF020F7F2E5EDE8FF20EAEEEC1A
:10139000E0EDE400D1EEE1FBF2E8E5202D2025644C
:1013A000000000000000000000CDE5E8F1EFF02EA5
:1013B00020F0E0E1EEF2FB20445350000000C2EECA
:1013C000F1F1F2E0ED2DE520F0E0E1EEF2FB20445A
:1013D000535000CDE8E7EAEEE520EDE0EFF02E20F7
:1013E000E2FBF5EEE4E00000C2FBF1EEEAEEE52000
:1013F000EDE0EFF02E20E2FBF5EEE4E000CDE5F2CB
:1014000020CAD7203520F1E5EA20EDE020CFD0CC6E
:101410003100CDE5F220CAD7203520F1E5EA20EDF4
:10142000E020CFD0CC3200C2EEF1F1F2E0ED2DE5BC
:1014300020CAD720EDE020CFD0CC3100C2EEF1F1B0
:10144000F2E0ED2DE520CAD720EDE020CFD0CC3260
:1014500000CDE5E8F1EFF020F7F22FE7E0EF2032E2
:1014600052414D000000CDE5E8F1EFF020F7F22FFA
:10147000E7E0EF20CFCBC8D1000000CDE5E8F1EFE9
:10148000F020F7F22FE7E0EF20464C4153480000F0
:10149000CDE5E8F1EFF0E0E2EDEEF1F2FC20F7E06F
:1014A000F1EEE20000D1EEE1FBF2E8E5202D20258F
:1014B00064000000000000000000D1EEE1FBF2E853
:1014C000E5202D202564000000000000000000D170
:1014D000EEE1FBF2E8E5202D20256400000000008D
:1014E00000000000D1EEE1FBF2E8E5202D202564AC
:1014F000000000000000000000D1EEE1FBF2E8E592
:10150000202D202564000000000000000000C6F32C
:10151000F0EDE0EB5CD1EEE1FBF2E8FF0025642E9C
:1015200020CFE5F0E5E4E0F2F7E8EA0025642E20BC
:10153000CFF0E8E5ECEDE8EA0025642E20C7E0F9FD
:10154000E8F2E00025642E20D1EEE1FBF2E8FF0096
:10155000CCE5EDFE5CC6F3F0EDE0EB00CFC820205B
:101560004D4355203A20253032582E253032780010
:10157000C1D1CF20445350203A20253032582E2557
:1015800030327800C1D1CF204D4355203A2025304C
:1015900032582E2530327800CCE5EDFE5CC8EDF4F3
:1015A000EEF0ECE0F6E8FF0020202020CFE5F0E5AB
:1015B000E9E4E8F2E520E22020202020002020209D
:1015C000F2E5F1F2EEE2FBE920F0E5E6E8EC2020BE
:1015D000200025642E20C8EDF4EEF0ECE0F6E8FFE4
:1015E0000025642E20D2E5F1F20025642E20CDE006
:1015F000F1F2F0EEE9EAE00025642E20D3EFF0E00E
:10160000E2EBE5EDE8E50025642E20C6F3F0EDE021
:10161000EB00CCE5EDFE00C0CA2DEEF8E8E10000DD
:10162000C0CA2DE0E2F2EE0000C0CA2DE0E2F2EE08
:101630000000C0CA2DF3F1EAEEF000C0CA2DE2FBB3
:10164000EAEB0000C0CA2DEEE4EDEEF100C0CA2DB9
:10165000E8F1EFFBF200C0CA2DEFF3F1EA0000C0A1
:10166000CA2DEEF8E8E10000253032643A25303228
:10167000643A2530326400202020EDE520EEEFF0C2
:10168000E5E4E5EBE5ED21212120200020202020CC
:10169000D2E8EF20E0EFEFE0F0E0F2E020202020C1
:1016A00000CDE5E8F1EFF02E2025632D25303458EC
:1016B00000CFF0E5E4F3EFF02E2025632D25303444
:1016C0005800253032752E253032752E2530327572
:1016D00000253032753A253032753A2530327500A2
:1016E00055E73D25303264E4C10055E7313D2530F2
:1016F0003264E4C10055E7323D25303264E4C10074
:1017000055EA3D25303264E4C10055EA313D2530CB
:101710003264E4C10055EA323D25303264E4C10050
:10172000553D253032752E25303175C200493D2595
:10173000303375ECC000523D25303375CEEC00558A
:10174000F83D25303264E4C10055F8313D25303292
:1017500064E4C10055F8323D25303264E4C100CD67
:10176000E5E8F1EFF0E0E2EDEEF1F2FC00CFF0E5BC
:10177000E4F3EFF0E5E6E4E5EDE8E500CDE5E8F1DA
:10178000EFF02EF7F22E20464C41534800CDE5E80D
:10179000F1EFF02EE7E0EF2E464C41534800CDE547
:1017A000E8F1EFF02EF7F22E20504C495300CDE532
:1017B000E8F1EFF02EE7E0EF2E504C495300CDE575
:1017C000E8F1EFF02EE7E0EF2E3252414D00CDE58B
:1017D000E8F1EFF02E445350203252414D2000CD1D
:1017E000E5E8F1EFF02EF7F22E203252414D2000C5
:1017F000CDE8E7EAEEE520EDE0EFF02EE2FBF500C4
:10180000C2FBF1EEEAEEE520EDE0EFF02EE2FBF5B3
:1018100000D3F1F2E0EDEEE2E8F2E520F7E0F1FBD3
:1018200000CDE5F220E1EBEEEAE020C1D1CA00CD27
:10183000E5E8F1EFF02EE2E5F0F12E20C1D1CA008B
:10184000CDE5F220CAD700CDE5E8F1EFF02EE7E0D4
:10185000EF2E20C1D1CA00CDE5E8F1EFF02EE2FB7A
:10186000EAEB2E20CAD1CA00CDE5E8F1EFF02EE276
:10187000EAEB2E20CAD1CA00CDE5E8F1EFF02EEA5E
:10188000EEEDF2F02ECAD1CA00D1EDE8E62E20F33B
:10189000F0EEE2EDFF20CFD0CC00CDE5F220E1EB81
:1018A000EEEAE020C1D1CA00CDE5E8F1EFF02EE28A
:1018B000E5F0F12E20C1D1CA00CDE5E8F1EFF02E20
:1018C000F7F22EEAEEECE0EDE400CDE5E8F1EFF022
:1018D0002EE2FBEAEB2ED2E5F1F200CDE5E8F1EFE6
:1018E000F02EE2EAEB2E20D2E5F1F200CDE5E8F1B0
:1018F000EFF02EE2F5EEE42E20CAD1CA00CDE5F2DB
:1019000020E1EBEEEAE020C1D1C700CDE5E8F1EF40
:10191000F02EE2E5F0F12EC1D1C700CDE5E8F1EF00
:10192000F02EEFE5F0E5EAEB2E00CDE5E8F1EFF083
:101930002EE2F5EEE42ECFD3D1CA00CDE5E8F1EFEB
:10194000F02EE2F5EEE42ED1D2CECF00CDE5E8F1D7
:10195000EFF02EF6E5EFFC2E20C2DBD500CDE5E85A
:10196000F1EFF02EE7E0EF2E20C2DBD500CDE5F25F
:1019700020F1E8E3EDE0EBE020D0C700CDE8E7EAB6
:10198000E8E920F3F0EEE22E20D0C700CDE5F2200A
:10199000F1E8E3EDE0EBE020CCC0CD00C0CA2DCDF6
:1019A000E5F220EEF2E2E5F2E000C0CA2DD1EDE86A
:1019B000E6E5ED2EE7E0EFE0F1E000CFEEECE5F557
:1019C000E020E220EBE8EDE8E800D2EEEA20EFEEDE
:1019D000EAEEFF00CDE5E8F1EFF02E20CCCA20D3EF
:1019E000CC00C2D720F2F0E0EAF220E2EEF1F1F210
:1019F0002E00C0CA2DCDE5F220EEF2E2E5F2E000C5
:101A0000CDE5E8F1EFF02EF3E4E0EB2E20C4D4C7EF
:101A100000CDE5E8F1EFF02EF3E4E0EB2E20C2DBA1
:101A2000D500D3E42ECFCED1D220E1E5E720EEF2EF
:101A3000E22E00D3E42ECFCED1D220EEE1ED2EEF78
:101A4000EEEC2E00C4EBE8F2E5EBFCED2E20EFEE21
:101A5000ECE5F5E000CDE5E8F1EFF02E20C4D4C7C9
:101A600000C0CA2DD1EDE8E6E5ED2EE7E0EFE0F1AC
:101A7000E000CFEEF0EEE320EFEE20EFEEECE5F548
:101A8000E500C0E2F2EEEAEEEDF2F0EEEBFC00CDA6
:101A9000E5F220F1E8E3EDE0EBE020CFD0CC00CDA3
:101AA000E5F220CAD700CDE5F220CAD70020CDE567
:101AB000F220F1E2FFE7E820F120C1D1CF2121217E
:101AC0002000C8F1F5EEE4ED2E00CAEEEDF2F0EEE6
:101AD000EBFC00CFF3F1EA00D0E0E1EEF2E000CD64
:101AE000E5E8F1EFF02E00CF2EEDE5E8F1EFF000A4
:101AF000CEE6E8E4E0EDE8E500CDE0EB2EEFF3F133
:101B0000EA00D3E42EEFF3F1EA00CDE5F220D0C7EE
:101B100000D0E5F7FC00D2E5F1F200CEF8E8E1EA0A
:101B2000E000C8F1F5EEE4ED2E00CFD0CC20CAD70E
:101B30002530317500CFD0CC20CFC0253032750094
:101B4000CDE5F220CAD700CDE5E8F1EFF02E00CFC9
:101B50002EEDE5E8F1EFF000CEE6E8E4E0EDE8E5B3
:101B600000C1CBCA20CACC25303275003F30783056
:101B7000383F003F307830393F00D0E5F7FC00D2E5
:101B8000E5F1F200C8F1F5EEE4ED2E00CFD0C4206F
:101B9000CAD72530317500CFD0C420CFC025303210
:101BA0007500CDE5F220CAD700CDE5E8F1EFF02EC3
:101BB00000CF2EEDE5E8F1EFF000CEE6E8E4E0ED51
:101BC000E8E5003F307830373F003F307830383F2D
:101BD00000D1E8F1F2E5EC2E00D0E5F7FC00D2E50B
:101BE000F1F200C7C0D900CFD0CC00CFD0C40000E4
:101BF000917011241FBECFEFD0E1DEBFCDBF80B505
:101C00008B7F80BD9FEF9ABB1BBA17BA98BB80EE43
:101C100084BB8FE185BB88E381BB8CEC82BB80EC0D
:101C200082B98CEF83B98EE08093610081EF80935D
:101C30006200109264009093650082B1806C82B95A
:101C400017BE9CE093BF88E181BF87B7826087BFE2
:101C50001FBC9EBD10927A001DBC1CBC80E792E0A8
:101C60009BBD8ABD87B7806187BF2CE088E190E08B
:101C70000FB6F894A89581BD0FBE21BD11E0A0E07C
:101C8000B1E0E6E6FBEE00E00BBF02C007900D926C
:101C9000A837B107D9F71AE0A8E7B1E001C01D9253
:101CA000A831B107E1F71BE1C2EFDBE104C02297E5
:101CB000FE010E945E72C03FD107C9F70E94787191
:101CC0000C94B1750C94000090918001813039F42E
:101CD000913011F490E003C0933009F491E0109238
:101CE0008001892F089580B38095807C87FF02C092
:101CF00090E801C090E086FF02C0916023C080910F
:101D000063008095837041F080FF02C094601AC028
:101D100081FF18C0986016C083B380958F7191F0D1
:101D200080FF02C099600EC081FF02C095600AC0AA
:101D300082FF02C0966006C083FF02C0926002C0AC
:101D400084FD936080918101981721F09093810127
:101D500083E007C080910001882339F0992341F086
:101D600081508093000190E003C084E680930001DD
:101D700080918001882311F49093800108958091CF
:101D800062008D7F809362001ABA85B3806C85BB38
:101D90008091620084608093620000000000809166
:101DA00062008860809362000000000089B3909117
:101DB0006200977F9093620095E19A95F1F795B351
:101DC0009F7395BB909162009860909362009FEF23
:101DD0009ABB8095881F8827881F089595B3962BF6
:101DE00095BBE2E6F0E090819D7F908390819B7FA0
:101DF000908300000000E2E6F0E09081986090831C
:101E00008BBB00000000E2E6F0E08081877F8083EA
:101E100085E08A95F1F785B36095862385BB0895A3
:101E2000E2E8F1E0119285E0E238F807D9F7089589
:101E300095B3962B95BBE2E6F0E09081926090839B
:101E400090819B7F9083000000008BBBE2E6F0E076
:101E500080818860808300000000E2E6F0E08081FD
:101E6000877F80838AE08A95F1F785B36095862322
:101E700085BB08952091860530918705F901EE57BD
:101E8000FE4F80832F5F3F4F309387052093860559
:101E900008951F93AD9905C0AD9A80E49CE9019720
:101EA000F1F78FEF9FEF90938705809386051AE0F7
:101EB000812F8A95F1F784EC60EC0E94EE0E1A9562
:101EC000F1F78FE360EC0E94EE0E8AE18A95F1F75C
:101ED0001F91089590E0019770E07695762F662720
:101EE00077956795860F971F909387058093860552
:101EF000089581E08093830508950F931F93CF93F6
:101F0000DF9380918205813029F482B390E28927A2
:101F100082BB1EC0209101013091020121153105C3
:101F2000B1F082B390E2892782BB809103018823BC
:101F300021F08150809303010BC083E6809303015D
:101F400021503040309302012093010101C0959847
:101F500080918305882309F442C000918505002300
:101F600089F480918405885460EC0E94EE0E1AE199
:101F7000812F8A95F1F780E460EC0E94EE0E1A95AD
:101F8000F1F702C00034D8F480918405C82FD0E066
:101F9000D695DC2FCC27D795C795CE57DE4FC00FEF
:101FA000D11D888160E80E94180FC05CDF4F8881D6
:101FB00060E40E94180F0F5F0093850510C08091A8
:101FC0008405873030F48F5F8093840510928505F7
:101FD00006C0109284051092850510928305DF914A
:101FE000CF911F910F910895823039F484EF91E0E1
:101FF00090930201809301010895809382050895D2
:10200000982F873010F080E00895A5E8B1E08AE5C8
:102010008D9321E0AF3FB207D9F71396EFE7F2E0D7
:102020008FEF8C9312968C93129780838283A058A3
:10203000BF4FE058FF4F25E0A238B20791F78093D9
:1020400001028093820188E18093000280938301E2
:102050008BED8093FF0180938401892F90E001969E
:102060009695982F882797958795FC01EB57FE4FFB
:102070004AE59C0121503E4F4193E217F307E1F7F7
:10208000FC01EE57FE4FE258FF4F88E18083EE5788
:10209000F0408183E358FF4F8BED8083ED57F04094
:1020A000828381E00895CF93DF93DC01603240F0BA
:1020B00067FD02C0605205C0603C10F0605601C070
:1020C00060E0ED01CE57DE4F20E030E085E0689F14
:1020D000B0011124F901E60FF71FE457FF4FE49117
:1020E000E9932F5F3F4F25303105A1F7AE57BE4F23
:1020F00015961C92DF91CF910895AF92BF92CF9227
:10210000DF92EF92FF920F931F93CF93DF93E82E0E
:10211000492F683010F080E046C0A62EBB2484E131
:1021200090E0A89E6001A99ED00CB89ED00C11240E
:102130002E2D342FC9018C01C4E8D0E00FC0CE0190
:10214000F80160810E9453108F2D64E10E94FA71A2
:10215000933109F428960F5F1F4F2696F02EFE1834
:102160008F2D90E08C159D0554F3E501D695DC2F5D
:10217000CC27D795C795CC5FDE4FFC2C10C0CE0185
:10218000F80160810E9453108F2D64E10E94FA7162
:10219000933109F428960F5F1F4FF3942696F7E7C3
:1021A000FF1568F781E0DF91CF911F910F91FF90AC
:1021B000EF90DF90CF90BF90AF900895FC01E95968
:1021C000FF4F10823B97119211921192119211922E
:1021D00011921192119286E081938CE0819310828A
:1021E0000895FC0184E08087818781E2828786E010
:1021F0008387148E138E1486158616861786108A8A
:10220000118A138A128A158A148A168A108E178ADE
:1022100081E090E0928F818F158E0895FC01818D71
:10222000928D2789308D820F931F62897389019760
:102230000E9413720895FC01862F81508630B8F4F5
:102240008150823038F481E090E0908B878781E084
:10225000818B0CC0862F8550823040F41782168205
:10226000138612868FE097E291878087628B0895AC
:102270001F93FC01518740877387628710E007C076
:102280001F5FCA016AE070E00E941372AB01411542
:102290005105B1F714871F910895FC0127853089F6
:1022A00086819781B9010E9413724189629FC001A2
:1022B000639F900D729F900D1124642F70E00E9417
:1022C0001372862F08950F931F93CF93DF93FC0112
:1022D0009289913011F0943091F44681578127858D
:1022E000308980859185821B930B8417950720F098
:1022F000C901840F951F13C08285938510C0892F53
:102300008250823078F426813781828593858217C6
:10231000930718F4C901019702C0808591859783BE
:10232000868326C09550923018F50681178127853F
:102330003089B901660F771FE90183E0CC0FDD1FFB
:102340008A95E1F76C0F7D1FC8010E941372B901D5
:102350000E9413726930710539F4C20FD31F0C1B30
:102360001D0B1783068304C0200F311F378326837C
:1023700086819781DF91CF911F910F9108950F93DF
:102380001F93CF93DF93EC0180E197E29B838A83D5
:1023900080ED98E19D838C831E861F86188A1A8A99
:1023A000198A1C8A1B8A1E8A1D8ACE0147960E94A2
:1023B000DE10C158DF4F199283E08993199282E1B0
:1023C0008993199219921992199281E0899319822D
:1023D00018822396199219921982188223971882CB
:1023E0002596199285E089938883C159D040CE0102
:1023F0008E569F4F0E94DE10C650DF4F19921882F2
:10240000CB5FD040FE01E450FF4F80E01082148289
:102410008F5F31968430D1F7C05EDE4F19921992EA
:10242000199219921882C452D140CE018B5D9E4FF1
:102430000E94DE10C357DE4F199285E08883CE5884
:10244000D140FE01E157FE4F00E0108214820F5F81
:1024500031960430D1F7C856DE4F84E188831A9252
:10246000229619921992199219921882CD59D14037
:10247000CE0182569E4F0E94DE10CA5FDD4F23E0E0
:1024800029930883259685E08883249719921992C9
:10249000198218822496199211E0199319921992AF
:1024A000199219921992188223968AE190E09983E1
:1024B000888382E18A931A92299718832D9619921C
:1024C00029932993199219928993099389E19CEF91
:1024D0008993999380E79EEF9983888362961992F6
:1024E0001882229718822F971882C552D240CE01A7
:1024F000835C9D4F0E94F110C55ADD4F1882A8964B
:1025000019931882DF91CF911F910F910895CF9366
:10251000DF93DC01FC01EB5FFD4F8081813011F026
:1025200081E08083662309F046C0A95FBD4F8C918E
:10253000A750B240813039F5A258BF4F8C91AE57A9
:10254000B040882379F0A750BF4F8C91A95FB0406D
:102550008823C1F4A457BE4F8C91AC58B140882356
:1025600089F462C5A457BE4F8C91AC58B140882302
:1025700039F4A750BF4F8C91A95FB040882319F060
:1025800064E001C062E011968C911197681709F41C
:102590000BC511966C931197AD52BD4F11961C92BD
:1025A0001E9285E599E59E938E93A454B04081E0F8
:1025B0008C93AD58B240FD01E256FE4F20E08FE50E
:1025C00097E1819391932F5F2031D9F7FD0120E0AE
:1025D000382F492F378B408F2F5F32962031D1F71C
:1025E000FD01EE56FF4F20E0832F942F81939193AE
:1025F0002F5F2031D9F7FD01EB5DFE4F20E0819385
:1026000091932F5F2031D9F7FD01E254FE4F80E016
:102610002DE637E1219331938F5F8031D9F7FD01AA
:10262000F79680E0219331938F5F8031D9F7FD01D8
:10263000EE54FF4F80E0219331938F5F8031D9F7C3
:10264000FD01EB5BFE4F80E0219331938F5F803182
:10265000D9F7FD01E157FD4F90E011929F5F9C304B
:10266000E1F7643009F0D8C011966C931197A15727
:10267000BD4F82E08C93169681E08C9312969C93CA
:1026800016979C9318968DE08C9316978C931596BD
:1026900086E08C9316978C93189689E08C93169706
:1026A0008C93A65FB0408CE797E18D939D938DE866
:1026B00097E18D939D938EE997E18D939D938EEA9B
:1026C00097E18D939D938EEB97E111969C938E935A
:1026D00018968EEC97E18D939D938FED97E111966F
:1026E0009C938E93149680EF97E18D939D9380E059
:1026F00098E111969C938E93189681E198E111963A
:102700009C938E93AE5BB140FD01E258FF4F8081F8
:1027100081111082FD01E750FF4F8081813011F05F
:1027200081E08083AE56BF4F81E298E18D939D9307
:102730008FE298E18D939D9380E498E111969C93AC
:102740008E931C9687E498E18D939D9387E598E19D
:102750008D939D9388E698E18D939D9388E798E10A
:1027600011969C938E931A9689E898E111969C9302
:102770008E93A25BB040FD01E457FE4F8081813013
:1027800011F081E08083AB5DBE4F8AE998E18D93C3
:102790009D9388EA98E111969C938E931E9689EBFF
:1027A00098E18D939D938AEC98E18D939D938BEDA9
:1027B00098E18D939D938CEE98E111969C938E9366
:1027C000A05EBE4F1C92AB55B240FD01ED57FD4FD0
:1027D000AC57BD4F1C92989782E08D9383E08C9309
:1027E0008083A05DB0402C91AD58B1409DE0EF01D9
:1027F0000EC08881883250F49D3240F4FD01E80F0C
:10280000F11DE55AFD4F90838F5F88839F5F892F6D
:102810008D50821770F3CAC3623009F07BC11196E4
:102820006C931197A157BD4F6C93169621E02C9392
:1028300012969C9316979C9318968DE08C931697FE
:102840008C93139683E08C9316978C93189686E05E
:102850008C9316978C93189689E08C9316978C938B
:10286000A65FB0408CE797E18D939D938DE897E14B
:102870008D939D938EE997E18D939D938EEA97E1D9
:102880008D939D938EEB97E111969C938E93189662
:102890008EEC97E18D939D938FED97E111969C932C
:1028A0008E93149680EF97E18D939D9380E098E14D
:1028B00011969C938E935C9681E198E111969C937E
:1028C0008E93A25DB140FD01E258FF4F80818130BF
:1028D00009F020838DEF98E158969C938E9357973B
:1028E0008BE099E15A969C938E9359978BE199E1ED
:1028F0005C969C938E935B978AE299E198969C9361
:102900008E9397978BE399E19A969C938E939997E0
:102910008CE499E19E969C938E939D978DE599E129
:10292000D2969C938E93D1978DE699E1D4969C9301
:102930008E93D3978CE799E1D8969C938E93D797F3
:102940008CE899E1DA969C938E93D997FD01E75034
:10295000FF4F8081813011F081E08083AE56BF4F00
:1029600081E298E18D939D938FE298E18D939D9301
:1029700080E498E111969C938E931C9687E498E1ED
:102980008D939D9387E598E18D939D9388E698E1DB
:102990008D939D9388E798E111969C938E931A9658
:1029A00089E898E111969C938E93A25BB040FD015B
:1029B000E457FE4F8081813011F081E08083AB5D70
:1029C000BE4F8AE998E18D939D9388EA98E111962C
:1029D0009C938E931E9689EB98E18D939D938AEC40
:1029E00098E18D939D938BED98E18D939D938CEE63
:1029F00098E111969C938E93A05EBE4F1C92AB55AE
:102A0000B240FD01ED57FD4FAC57BD4F1C9298975A
:102A100081E08D9386E08D9387E08C93AE55B24034
:102A200084E08083FD01E80FF11DE55AFD4F9DE034
:102A300090838F5FAD57BD4F8C93A358B240ED018B
:102A4000CD57DD4F9881983248F4FD01E90FF11D13
:102A5000E55AFD4F8EE080839F5F9883ED01CD574F
:102A6000DD4F9881983248F4FD01E90FF11DE55AD8
:102A7000FD4F8FE080839F5F9883ED01CD57DD4F41
:102A80009881983248F4FD01E90FF11DE55AFD4F98
:102A900080E180839F5F9883ED01CD57DD4F988162
:102AA000983248F4FD01E90FF11DE55AFD4F89E028
:102AB00080839F5F9883ED01CD57DD4F98819832D9
:102AC00048F4FD01E90FF11DE55AFD4F8AE08083CE
:102AD0009F5F9883ED01CD57DD4F9881983248F480
:102AE000FD01E90FF11DE55AFD4F8BE080839F5FEB
:102AF0009883ED01CD57DD4F9881983208F056C28A
:102B0000FD01E90FF11DE55AFD4F8CE080839F5FC9
:102B100098834CC2613009F0EAC011966C9311970A
:102B2000A157BD4F82E08C9316966C9312969C939E
:102B300016979C9318968DE08C9316978C9313960A
:102B400083E08C9316978C93189686E08C93169757
:102B50008C93189689E08C9316978C93A65FB0405F
:102B60008CE797E18D939D938DE897E18D939D93ED
:102B70008EE997E18D939D938EEA97E18D939D93D6
:102B80008EEB97E18D939D938CE999E18D939D93C5
:102B90008AEA99E18D939D938BEB99E18D939D93B7
:102BA0008EEC97E18D939D938FED97E18D939D939F
:102BB0008AEC99E18D939D9380EF97E18D939D939E
:102BC00080E098E18D939D9384ED99E18D939D93A1
:102BD00082EE99E111969C938E93149681E198E18F
:102BE00011969C938E93AE5BB140FD01E258FF4F6E
:102BF0008081813009F060838DEF98E158969C9335
:102C00008E9357978BE099E15A969C938E935997A0
:102C10008BE199E15C969C938E935B9782EF99E1AF
:102C200090969C938E935F9780E09AE194969C9304
:102C30008E93939781E19AE196969C938E939597C4
:102C40008AE299E198969C938E9397978BE399E10A
:102C50009A969C938E93999782E29AE19C969C9384
:102C60008E939B978CE499E19E969C938E939D976F
:102C700083E39AE1D0969C938E939F978DE599E19B
:102C8000D2969C938E93D19784E49AE1D4969C93A8
:102C90008E93D39785E59AE1D6969C938E93D5979C
:102CA00081E69AE1D8969C938E93D7978CE899E128
:102CB000DA969C938E93D99782E79AE1DC969C935F
:102CC0008E93DB9782E89AE1DE969C938E93DD9754
:102CD000FD01E750FF4F808181111082FD01E45713
:102CE000FE4F8081882309F461C110825FC1633087
:102CF00009F0A9C111966C931197AB56BD4F82E0B4
:102D00008C9316978C93179621E02C9316972C93FF
:102D1000A25FB0408CE797E18D939D938DE897E19A
:102D20008D939D938EE997E18D939D938EEA97E124
:102D30008D939D938EEB97E111969C938E931A96AB
:102D40008FED97E111969C938E931E9681E198E109
:102D500011969C938E93AE5BB140FD01E258FF4FFC
:102D60008081813009F020838DEF98E158969C9303
:102D70008E9357978BE099E15A969C938E9359972F
:102D80008BE199E15C969C938E935B978FE89AE137
:102D900090969C938E935F978AE299E198969C9384
:102DA0008E9397978BE399E19A969C938E9399973C
:102DB0008CE499E19E969C938E939D978DE599E185
:102DC000D2969C938E93D1978FE99AE1D8969C9353
:102DD0008E93D7978CE899E1DA969C938E93D99746
:102DE000FD01E750FF4F8081813011F081E0808349
:102DF000AE56BF4F81E298E18D939D938FE298E1AB
:102E00008D939D9380E498E111969C938E931C96EC
:102E100087E498E18D939D9387E598E18D939D9349
:102E200088E698E18D939D9388E798E111969C93AD
:102E30008E931A9686EA9AE111969C938E93A25BE2
:102E4000B040FD01E457FE4F8081813011F081E0F8
:102E50008083AB5DBE4F8AE998E18D939D9388EAAC
:102E600098E111969C938E931E9689EB98E18D9331
:102E70009D938AEC98E18D939D938BED98E18D93D2
:102E80009D938CEE98E111969C938E93A05EBE4F1D
:102E90001C92AB55B240FD01ED57FD4FAC57BD4FF5
:102EA0001C92989781E08D9386E08D9387E08C93B8
:102EB000AE55B24084E08083FD01E80FF11DE55A74
:102EC000FD4F9DE090838F5FAD57BD4F8C93A3580E
:102ED000B240ED01CD57DD4F9881983248F4FD01A5
:102EE000E90FF11DE55AFD4F8EE080839F5F9883C7
:102EF000ED01CD57DD4F9881983248F4FD01E90F7F
:102F0000F11DE55AFD4F8FE080839F5F9883ED01AF
:102F1000CD57DD4F9881983248F4FD01E90FF11D3E
:102F2000E55AFD4F80E180839F5F9883ED01CD5787
:102F3000DD4F9881983248F4FD01E90FF11DE55A03
:102F4000FD4F89E080839F5F9883ED01CD57DD4F72
:102F50009881983248F4FD01E90FF11DE55AFD4FC3
:102F60008AE080839F5F9883ED01CD57DD4F988184
:102F7000983248F4FD01E90FF11DE55AFD4F8BE051
:102F800080839F5F9883ED01CD57DD4F9881983204
:102F900008F059C0FD01E90FF11DE55AFD4F8CE025
:102FA00080839F5F98834FC0662311F021E036C075
:102FB00021E011961C921197FD01E157FD4F80E031
:102FC00011928F5F8C30E1F7AB56BD4F82E08C934E
:102FD00016978C93179681E08C9316978C93A05933
:102FE000B240FD01E258FF4F808181111082FD0146
:102FF000E750FF4F808181111082FD01E457FE4FA1
:10300000808181111082AD52BD4F11961C921E928B
:103010008DE192E39E938E93A15DB24081E08C930B
:10302000822FDF91CF910895A85FBD4F8D919C9124
:103030001197A850B2408070907F8050904F09F057
:10304000A2CA61E0A0CA20E0B4CFDC01FC01EC5CC4
:10305000FD4F9081992311F010822AC080910106C2
:103060008F5F80930106813011F490E321C082309C
:1030700011F491E31DC0833011F494E319C0FD01F4
:10308000EA5CFD4FAB5CBD4F90818C91A553B24083
:10309000981708F01082FD01EA5CFD4F8081A80FAF
:1030A000B11DAB5DBD4F9C918F5F80831092010677
:1030B000892F0895E8E8F5E080E2819396E0E13019
:1030C000F907D9F70895862F8150863078F484E186
:1030D000689F602D1124962F945180E2E92FF0E033
:1030E000E857FA4F80839F5F9617C1F7089580E0F5
:1030F00003C08F5F7695679560FFFBCF0895AF9211
:10310000BF92CF92DF92EF92FF920F931F93CF93D4
:10311000DF93EC01C557DD4F088176E0F72EF01AFA
:103120002A91CA58D240F21610F010E041C0122F76
:103130001F193EC0212F30E08DB79EB708970FB6FC
:10314000F8949EBF0FBE8DBFADB7BEB711960E9D52
:10315000C001112488579A4FEDB7FEB7928381833F
:103160001396BC92AE921297225B3E4FF901EE0F7E
:10317000FF1FEC0FFD1F8081918115969C938E930C
:1031800014972D54314017963C932E9316970E9416
:10319000A0721F5F8DB79EB708960FB6F8949EBFBA
:1031A0000FBE8DBFF6018081181780F40F5F0BC032
:1031B00054E1E52E45E1A42EB12C3BE9C32E32E0CB
:1031C000D32ECC0EDD1E063008F4B4CFC757DD4F2A
:1031D0008881C958D2408823F1F0C657DD4F8881D5
:1031E000CA58D240F81620F48AE28093EE0513C044
:1031F000C557DD4F288190E0820F911D24E130E01A
:10320000829FF001839FF00D929FF00D1124EA58E8
:10321000FA4F8AE28083DF91CF911F910F91FF9047
:10322000EF90DF90CF90BF90AF900895BF92CF9274
:10323000DF92EF92FF920F931F93CF93DF93EC01F6
:10324000C453DD4FB880CC5CD2408AE0B81609F098
:1032500054C0C557DD4F1881CB58D24004C0CE01B1
:10326000612F0E9463181F5F1730C8F3FE01E154FD
:10327000FD4F8081DE01AB57BD4F8F30D8F58F5F9A
:1032800080831C9200E010E0F8E2EF2EF12CE5E1E3
:10329000CE2ED12C00D000D000D0EDB7FEB73196A5
:1032A000C70188579A4FADB7BEB712969C938E93BD
:1032B0001197D382C2820C9DC0010D9D900D1C9D63
:1032C000900D112484539C4F958384830E94A07297
:1032D0000F5F1F4F84E190E0E80EF91EADB7BEB757
:1032E00016960FB6F894BEBF0FBEADBF03301105E2
:1032F00089F659C081E08C9356C0CE0166E00E94E9
:103300006318C054DD4F28813981C05CD240B5E0DC
:10331000BB16D1F48DB79EB708970FB6F8949EBF31
:103320000FBE8DBFEDB7FEB731968CEE95E0ADB711
:10333000BEB712969C938E93119785E190E093838C
:1033400082838FEB93E01AC096E0B91631F5ADB7E2
:10335000BEB718970FB6F894BEBF0FBEADBFEDB79E
:10336000FEB731968CEE95E012969C938E93119752
:1033700085E190E0938382838CEA93E09583848354
:10338000378326830E94A0728DB79EB708960FB62A
:10339000F8949EBF0FBE8DBF06C0CB57DD4F81E0B6
:1033A0008883C558D240CB57DD4F8881C558D2405D
:1033B000843009F43FC0853030F4813059F08230D8
:1033C00009F045C032C0863059F1863040F088306F
:1033D000F1F521C0C453DD4F18822D9716C095E03A
:1033E000B91639F4C453DD4F87E08883CC5CD240F2
:1033F0002EC0FE01E453FD4FA6E0BA1619F488E092
:10340000808325C01082C154DD4F8FE088831A92DB
:10341000CE5BD2401CC0C753DD4F88EE93E00EC098
:10342000C753DD4F84E690E009C0C753DD4F8AE003
:1034300090E004C0C753DD4F81E090E0998388831A
:10344000C95CD240CE0186549D4F0E946311CB5778
:10345000DD4F1882C95BDF4F8881DF91CF911F91CB
:103460000F91FF90EF90DF90CF90BF900895CF9293
:10347000DF92EF92FF920F931F93CF93DF93EC01B4
:10348000C453DD4F9881CC5CD2409A3009F054C0CF
:10349000C557DD4F0881CB58D24004C0CE01602F04
:1034A0000E9463180F5F0730C8F3FE01E154FD4F1F
:1034B0008081DE01AB57BD4F8F30D8F58F5F8083A1
:1034C0001C9200E010E0B8E2EB2EF12CA5E1CA2E30
:1034D000D12C00D000D000D0EDB7FEB73196C70197
:1034E00088579A4FADB7BEB712969C938E9311979B
:1034F000D382C2820C9DC0010D9D900D1C9D900D2C
:103500001124855F9B4F958384830E94A0720F5F77
:103510001F4F84E190E0E80EF91EADB7BEB71696D6
:103520000FB6F894BEBF0FBEADBF0330110589F6CC
:10353000CFC081E08C93CCC0913089F5C054DD4F71
:103540000881198126968881C65CD24081508430DA
:1035500020F0CB57DD4F9883B9C0CE0166E00E94C2
:1035600063188DB79EB708970FB6F8949EBF0FBE2D
:103570008DBFEDB7FEB731968CEE95E0ADB7BEB717
:1035800012969C938E93119785E190E093838283AA
:103590008AE594E0958384831783068388C09430FA
:1035A000E9F5C054DD4F0881198126968881C65CF3
:1035B000D2408150843008F085C0CE0166E00E9480
:1035C0006318ADB7BEB71A970FB6F894BEBF0FBE5B
:1035D000ADBFEDB7FEB731968CEE95E012969C9399
:1035E0008E93119785E190E0938382838AE494E03F
:1035F00095838483C8016AE070E00E941372778328
:103600006683C8016AE070E00E9413729187808728
:103610000E94A0728DB79EB70A964EC0923039F4C0
:10362000C054DD4F08811981C05CD24010C0933076
:1036300009F048C0C454DD4FE881F981249688819F
:103640009981C05CD240E80FF91F008110E0CE01E3
:1036500066E00E946318ADB7BEB718970FB6F8942E
:10366000BEBF0FBEADBFEDB7FEB731968CEE95E095
:1036700012969C938E93119785E190E093838283B9
:1036800085E694E095838483C654DD4F8BE090E01B
:10369000089F9001099F300D189F300D11248881DB
:1036A0009981CA5BD240820F931F978386830E94C1
:1036B000A0728DB79EB708960FB6F8949EBF0FBE46
:1036C0008DBF06C0CB57DD4F81E08883C558D240FF
:1036D000CB57DD4F8881C558D2408230E9F0833026
:1036E00020F4813009F061C007C0853009F457C06B
:1036F000883009F05AC00AC0C453DD4F18822D9794
:103700008FE088831A92CE5BD2404FC0CE018654A0
:103710009D4F0E94631149C0C453DD4F8881CC5C2A
:10372000D240813011F08430E1F4C054DD4F488143
:103730005981299628813981259788819981C45C8E
:10374000D240820F931F4817590720F0CA01821BED
:10375000930B1EC0CE53DD4F88819981C25CD2404D
:1037600017C08250823008F5C054DD4F299139913D
:1037700088819981C25CD2402817390718F4C901A1
:10378000019606C0CC53DD4F88819981C45CD2403C
:10379000C054DD4F99838883C05CD24006C0C453B7
:1037A000DD4F89E08883CC5CD240CB57DD4F188257
:1037B000C95BDF4F8881DF91CF911F910F91FF90FF
:1037C000EF90DF90CF900895CF93DF93DC016630C8
:1037D00008F0E2C18AE0689F602D11246F5F4730D6
:1037E00009F4E1C0483098F4433009F47CC0443017
:1037F00030F4413019F1423009F0CEC147C04530B4
:1038000009F49FC070E0463008F0B7C084C04B3068
:1038100009F498C14C3040F4493009F465C170E0B6
:103820004A3008F079C1D7C04D3009F421C14D307C
:1038300008F4EBC04E3009F0AFC138C18DB79EB768
:103840000C970FB6F8949EBF0FBE8DBFEDB7FEB7B5
:103850003196862F90E088579A4FCDB7DEB79A837E
:1038600089838BE090E09383828382EC96E1958359
:1038700084831B968C911B97868317821C968C9150
:103880001C97808711861D968C9125C0CDB7DEB719
:103890002C970FB6F894DEBF0FBECDBFEDB7FEB7C5
:1038A0003196862F90E088579A4F9A8389838BE0D0
:1038B00090E09383828381ED96E1958384831A96C9
:1038C0008C911A978683178219968C911997808705
:1038D000118618968C91828713860E94A0728DB7EC
:1038E0009EB70C9654C1CDB7DEB728970FB6F894A3
:1038F000DEBF0FBECDBFEDB7FEB73196862F90E08D
:1039000088579A4F9A8389838BE090E093838283D0
:1039100080EE96E12DC0CDB7DEB728970FB6F894AC
:10392000DEBF0FBECDBFEDB7FEB7319668577A4FF9
:103930007A8369838BE090E0938382838AEE96E1B9
:1039400017C0CDB7DEB728970FB6F894DEBF0FBE0D
:10395000CDBFEDB7FEB73196862F90E088579A4FCE
:103960009A8389838BE090E09383828385EF96E14D
:10397000958384831E968C9100C1CDB7DEB72897BE
:103980000FB6F894DEBF0FBECDBFEDB7FEB73196D0
:1039900068577A4F7A8369838BE090E093838283C0
:1039A00080E097E12DC0CDB7DEB728970FB6F89429
:1039B000DEBF0FBECDBFEDB7FEB73196862F90E0CC
:1039C00088579A4F9A8389838BE090E09383828310
:1039D0008AE097E115C0CDB7DEB728970FB6F89407
:1039E000DEBF0FBECDBFEDB7FEB7319668577A4F39
:1039F0007A8369838BE090E09383828385E197E10A
:103A0000958384831F968C91B8C051962D913C91DB
:103A10005297ADB7BEB71A970FB6F894BEBF0FBE98
:103A2000ADBFEDB7FEB73196862F90E088579A4F1D
:103A3000CDB7DEB79A8389838BE090E0938382834E
:103A400080E297E195838483C9016AE070E00E9477
:103A5000137266831782C9016AE070E00E941372D4
:103A6000808711860E94A0728DB79EB70A968FC07C
:103A7000CDB7DEB728970FB6F894DEBF0FBECDBF27
:103A8000EDB7FEB73196862F90E088579A4F9A830C
:103A900089838BE090E0938382838DE297E1958325
:103AA000848353968D919C9154976AC0CDB7DEB7AD
:103AB00028970FB6F894DEBF0FBECDBFEDB7FEB7A7
:103AC0003196862F90E088579A4F9A8389838BE0AE
:103AD00090E09383828386E397E195838483559670
:103AE0008D919C9156974CC0CDB7DEB728970FB6F5
:103AF000F894DEBF0FBECDBFEDB7FEB73196862F6F
:103B000090E088579A4F9A8389838BE090E0938363
:103B100082838FE397E12DC0CDB7DEB728970FB62C
:103B2000F894DEBF0FBECDBFEDB7FEB73196685734
:103B30007A4F7A8369838BE090E09383828389E470
:103B400097E117C0CDB7DEB728970FB6F894DEBF60
:103B50000FBECDBFEDB7FEB73196862F90E08857E8
:103B60009A4F9A8389838BE090E09383828384E5E4
:103B700097E19583848350968C91992787FD909542
:103B8000978386830E94A0728DB79EB708960FB662
:103B9000F8949EBF0FBE8DBFDF91CF910895FF9225
:103BA0000F931F93CF93DF93EC01FC01E357FD4F7D
:103BB0008081882339F11082C657DD4FFF24F394AA
:103BC000F882FA92C958D2408E0105571D4FD8018C
:103BD000FC920E94100FF80180810E940010C556CF
:103BE000DD4FF882CB59D240FE01EB5CFD4FCA5C41
:103BF000DD4F1882229718822F978EE38883C55253
:103C0000D240F08200D000D000D0EDB7FEB73196A0
:103C100088E895E0ADB7BEB712969C938E93119746
:103C200005E110E01383028383E896E095838483A3
:103C30000E94A072EDB7FEB73196C557DD4F88815F
:103C400024E1829FC001112488579A4FADB7BEB7B7
:103C500012969C938E9311971383028383E796E0C9
:103C6000958384830E94A072EDB7FEB731968CEEE7
:103C700095E0ADB7BEB712969C938E9311971383C0
:103C800002838EE694E0958384830E94A072EDB750
:103C9000FEB731968C5990E088579A4FADB7BEB7B2
:103CA00012969C938E9311978BE090E0938382837E
:103CB000279788812BE0829FC001112487589B4F52
:103CC000958384830E94A072C258D040EDB7FEB79E
:103CD00036960FB6F894FEBF0FBEEDBF8881C25076
:103CE000D240853031F0CB57DD4F81E08883C55815
:103CF000D240CB57DD4F2881C558D240213059F4EE
:103D0000CD52DD4F198218828FEC90E39A938A93FB
:103D1000C454D0402883DF91CF911F910F91FF9021
:103D20000895FF920F931F93CF93DF93EC01FC0153
:103D3000E357FD4F8081882339F11082C657DD4F4C
:103D4000FF24F394F882FA92C958D2408E010557A5
:103D50001D4FD801FC920E94100FF80180810E9433
:103D60000010C556DD4FF882CB59D240FE01EB5C06
:103D7000FD4FCA5CDD4F1882229718822F978EE381
:103D80008883C552D240F08200D000D000D0EDB779
:103D9000FEB7319688E895E0ADB7BEB712969C9312
:103DA0008E93119705E110E01383028380EA96E079
:103DB000958384830E94A072EDB7FEB73196C557F4
:103DC000DD4F8881CB58D24024E1829FC00111246D
:103DD00088579A4FADB7BEB712969C938E931197A2
:103DE000138302838FE896E0958384830E94A072F8
:103DF000FE01E453FD4F8DB79EB706960FB6F894BB
:103E00009EBF0FBE8DBF80818B3008F01082C453DF
:103E1000DD4F8881CC5CD240882309F44BC0CE01B1
:103E20000E94371A893009F085C0C454DD4FE881FB
:103E3000F981249688819981C05CD240E80FF91FEE
:103E4000E0818E2F8D50803218F49E2F9A501AC028
:103E50008E2F8250843018F49E2F915013C0E6307C
:103E600081F0E73071F0E83011F490E00BC08E2F54
:103E70008950843018F49E2F955004C090E0E130B2
:103E800009F491E0C95CDD4F81E089939883C853C0
:103E9000D240FE01E254FD4F8081CC5CDD4F88832F
:103EA000C856DF4F18822D978FE08883CF5BD240B2
:103EB000108240C000D000D000D0EDB7FEB73196E0
:103EC0008CEE95E0ADB7BEB712969C938E9311978A
:103ED00085E190E0938382838EE694E095838483EA
:103EE0000E94A072EDB7FEB731968C5990E08857CA
:103EF0009A4FADB7BEB712969C938E9311978BE0F5
:103F000090E093838283CC57DD4F8881C458D240A0
:103F10002BE0829FC001112487589B4F9583848397
:103F20000E94A072EDB7FEB736960FB6F894FEBFAA
:103F30000FBEEDBFCE5FDD4F8881C250D2408430CE
:103F400031F0CB57DD4F81E08883C558D240CB5745
:103F5000DD4F2881C558D240213019F02530D9F5E0
:103F60000CC0CD52DD4F198218828FEC90E39A93EA
:103F70008A93C454D04028832EC0FE01E054FD4FE4
:103F8000CC53DD4F88819981C45CD240918380837A
:103F90008E0106541D4FC80163E00E941B11CD57CE
:103FA000DD4F4881C358D24050E041505040C801D5
:103FB00060E070E00E943811CE01855A9D4FC454D4
:103FC000DD4F9983888389E794E0D8018D939C9392
:103FD00022968EE78883DF91CF911F910F91FF90FA
:103FE0000895FF920F931F93CF93DF93EC01FC0191
:103FF000E357FD4F8081882309F442C01082C657E1
:10400000DD4FFF24F394F882FA92C958D2408E0112
:1040100005571D4F82E0D8018C930E94100FF801C4
:1040200080810E940010C456DD4F8FED96E0899389
:10403000999385ED96E0899399938CEC96E089931A
:10404000999383EC96E08993999388EB96E0899312
:1040500099938CEA96E0998388832B9786E08883EE
:10406000CB59D240FE01EB5CFD4FCA5CDD4F18829C
:10407000229718822F9782E38883C552D240F0821C
:1040800000D000D000D0EDB7FEB731968CE995E0B6
:10409000ADB7BEB712969C938E93119785E190E0D1
:1040A0009383828387EE96E0958384830E94A07237
:1040B000EDB7FEB736960FB6F894FEBF0FBEEDBF54
:1040C000CE0160E041E00E94E41BCE0161E042E0ED
:1040D0000E94E41BFE01E453FD4F80818B3008F009
:1040E0001082C453DD4F8881CC5CD240882309F410
:1040F00076C0C657DD4F499150E08DB79EB70897FF
:104100000FB6F8949EBF0FBE8DBFADB7BEB7119668
:104110008881CB58D24024E1829FC0011124885766
:104120009A4FEDB7FEB79283818385E190E01396B5
:104130009C938E931297FA01E35BFE4FEE0FFF1FE5
:10414000EC0FFD1F8081918115969C938E9314979F
:1041500017965C934E9316970E94A0728DB79EB7E8
:1041600008960FB6F8949EBF0FBE8DBFCE010E9479
:10417000371A8930B9F58E0106541D4FC8010E94C7
:104180004D11F82EC8010E944D11382FC953DD4F33
:104190008881C75CD240863088F4FE01E80FF11DAB
:1041A000E95CFD4F8F2D6AE00E94FA71282F22955D
:1041B000207F832F0E94FA71290F2083FE01E25491
:1041C000FD4F8081CC5CDD4F8883C856DF4F18825D
:1041D0002D978FE08883CF5BD240108203C0CE0141
:1041E0000E947F18CB57DD4F2881C558D24022301E
:1041F000D1F0233020F4213009F0F3C1E7C125309C
:1042000019F1283009F0EDC1C657DD4F8881CA5831
:10421000D240823010F0815013C0C556DD4F8881E6
:10422000CB59D2400DC0C657DD4F98816196888129
:10423000CB59D240981710F081E002C0892F8F5FD0
:10424000C657DD4F8883CDC1C153DD4F1982188217
:1042500087E39AE19A938A93C354D040E881CA587D
:10426000D240F0E0E35BFE4FEE0FFF1FEC0FFD1FAF
:104270000190F081E02D96E0EF3DF90761F58E01A8
:1042800006541D4FC80161E00E941B11C80160E087
:1042900070E043E650E00E9438118D85282F30E011
:1042A000CC53DD4F48815981C45CD2402417350777
:1042B00048F0CE53DD4F88819981C25CD24082178D
:1042C000930708F49A01C054DD4F39832883279659
:1042D000198218820DC1A6E0E53DFA0761F58E014D
:1042E00006541D4FC80161E00E941B11C80161E026
:1042F00070E04CE050E00E9438118C85282F30E0AF
:10430000CC53DD4F48815981C45CD2402417350716
:1043100048F0CE53DD4F88819981C25CD24082172C
:10432000930708F49A01C054DD4F398328832796F8
:1043300081E090E0DBC0B6E0EC3CFB0709F048C050
:104340008E0106541D4FC80161E00E941B118C852F
:104350008430C9F08630B9F08930A9F08B3099F0FB
:10436000823051F48D8590E083709070892B11F02C
:104370004CE10AC04DE108C081508C3010F44FE18F
:1043800003C040E001C04EE1C80161E070E050E0D0
:104390000E9438118B85282F30E0CC53DD4F4881A7
:1043A0005981C45CD2402417350748F0CE53DD4F05
:1043B00088819981C25CD2408217930708F49A01E0
:1043C000C054DD4F39832883279682E090E08EC069
:1043D00086E0E33CF80761F58E0106541D4FC801E5
:1043E00061E00E941B11C80160E070E047E150E00D
:1043F0000E9438118A85282F30E0CC53DD4F488148
:104400005981C45CD2402417350748F0CE53DD4FA4
:1044100088819981C25CD2408217930708F49A017F
:10442000C054DD4F39832883279683E090E05EC037
:1044300096E0E83BF90761F58E0106541D4FC8016F
:1044400061E00E941B11C80160E070E04BE350E0A6
:104450000E9438118985282F30E0CC53DD4F4881E8
:104460005981C45CD2402417350748F0CE53DD4F44
:1044700088819981C25CD2408217930708F49A011F
:10448000C054DD4F39832883279684E090E02EC006
:10449000EC5AF64079F58E0106541D4FC80161E0D3
:1044A0000E941B11C80160E070E04BE350E00E94E5
:1044B00038118885282F30E0CC53DD4F4881598151
:1044C000C45CD2402417350748F0CE53DD4F8881B5
:1044D0009981C25CD2408217930708F49A01C054B4
:1044E000DD4F39832883279685E090E09983888380
:1044F000C75CD240C254DD4F82EB88832B9681E0AB
:1045000090E08993999381E08883CB5CD2403D858C
:10451000C95CDD4F832F6AE00E94FA71282F229533
:10452000207F832F0E94FA71290F2883C753D2401E
:104530003C85C85CDD4F832F0E94FA71282F22959D
:10454000207F832F0E94FA71290F2883C853D240FD
:104550003B85C75CDD4F832F0E94FA71282F22957F
:10456000207F832F0E94FA71290F2883C953D240DC
:104570003A85C65CDD4F832F0E94FA71282F229561
:10458000207F832F0E94FA71290F2883CA53D240BB
:104590003985C55CDD4F832F0E94FA71282F229543
:1045A000207F832F0E94FA71290F2883CB53D2409A
:1045B0003885C45CDD4F832F0E94FA71282F229525
:1045C000207F832F0E94FA71290F0AC0CD52DD4F40
:1045D0001982188285E094E29A938A93C454D04059
:1045E0002883DF91CF911F910F91FF9008950F9332
:1045F0001F93CF93DF93EC01FC01E357FD4F8081C4
:10460000882309F45EC01082C657DD4F81E088839D
:104610008A93C958D2408E0105571D4FD8018C93FB
:104620000E94100FF80180810E9400108981813062
:1046300071F4C456DD4F86E89CE08993999380E637
:104640009CE099838883CE59D24082E02DC082308D
:10465000B1F4C456DD4F86E89CE08993999389E7CD
:104660009CE0899399938AE69CE08993999380E6EC
:104670009CE099838883C25AD24084E015C084307C
:1046800011F080E011C0C456DD4F89E79CE08993AA
:1046900099938AE69CE08993999380E69CE09983BC
:1046A0008883C05AD24083E0C556DD4F8883C65602
:1046B000D04019921882229718822F971882C552DB
:1046C000D24000D000D000D0EDB7FEB7319688E8D8
:1046D00095E0ADB7BEB712969C938E93119784E187
:1046E00090E09383828381E99CE0958384830E9498
:1046F000A072EDB7FEB736960FB6F894FEBF0FBEA8
:10470000EDBFCE010E947F18CB57DD4F2881C558E1
:10471000D2402230D1F0233020F4213009F070C093
:1047200024C0253071F1283009F06AC0C657DD4F2A
:104730008881CA58D240823010F0815013C0C556CB
:10474000DD4F8881CB59D2400DC0C657DD4F9881CF
:1047500061968881CB59D240981710F081E002C051
:10476000892F8F5FC657DD4F4AC0CD52DD4F19826A
:10477000188285E094E29A938A93C454D0402883A7
:104780003FC0C657DD4FE881CA58D240F0E0E35B36
:10479000FE4FEE0FFF1FEC0FFD1F0190F081E02D8B
:1047A0008CE0E638F80739F4CD52DD4F19821882D3
:1047B00084E09DE41FC09CE0E937F90739F4CD524D
:1047C000DD4F1982188285E798E414C0ACE0EA3620
:1047D000FA0739F4CD52DD4F1982188283EC92E446
:1047E00009C0E056FC4061F4CD52DD4F19821882B9
:1047F00087EA92E39A938A93C454D04081E08883F5
:10480000DF91CF911F910F9108950F931F93CF9335
:10481000DF93EC01FC01E357FD4F8081882391F188
:104820001082C657DD4F81E088838A93C958D240F1
:104830008E0105571D4FD8018C930E94100FF8016F
:1048400080810E940010C456DD4F8BE09DE089936B
:1048500099938AEF9CE0899399938CEE9CE08993DD
:10486000999381EE9CE099838883279784E08883DD
:10487000C656D04019921882229718822F97188214
:10488000C552D24000D000D000D0EDB7FEB731966F
:1048900088E895E0ADB7BEB712969C938E931197BA
:1048A00085E190E09383828385E19DE09583848315
:1048B0000E94A072EDB7FEB736960FB6F894FEBF11
:1048C0000FBEEDBFCE010E947F18FE01E453FD4FE5
:1048D00080818B3008F01082C453DD4F0881CC5C9E
:1048E000D240002309F44BC0C153DD4F28813981E8
:1048F000CF5CD240DE01A353BD4F20FF10C0F901B1
:10490000F595E795EC0FFD1F0190F081E02D8D915D
:104910009C91E80FF91F0190F081E02D02C0ED910C
:10492000FC9135952795CE01820F931F099507308D
:10493000C1F4C054DD4F28813981C05CD2408A81E6
:104940009B812817390731F08C819D812817390701
:1049500009F09FC0CE0186549D4F66E00E941B1156
:104960000EC0083061F4C054DD4F88819981C05C6D
:10497000D240F7E280319F0710F49B838A83CB57A4
:10498000DD4F2881C558D2402230D1F0233020F4A9
:10499000213009F088C024C0253071F1283009F099
:1049A00082C0C657DD4F8881CA58D240823010F08D
:1049B000815013C0C556DD4F8881CB59D2400DC000
:1049C000C657DD4F988161968881CB59D2409817A0
:1049D00010F081E002C0892F8F5FC657DD4F40C0C5
:1049E000CD52DD4F198218828FEC90E39A938A930F
:1049F000C454D040288357C0C657DD4FE881CA58F9
:104A0000D240F0E0E35BFE4FEE0FFF1FEC0FFD1F07
:104A10000190F081E02D2DE0EB30F20739F4CD521A
:104A2000DD4F1982188288E995E515C08CE0EA3FD0
:104A3000F80739F4CD52DD4F1982188281EF9FE1DA
:104A40000AC09CE0EC3EF90769F4CD52DD4F1982B3
:104A5000188287EF92E29A938A93C454D04081E0FF
:104A6000888321C0E15EFC40F1F4C153DD4F19821F
:104A7000188286E199E19A938A93CD5CD240CE0167
:104A800086549D4F65E00E941B11C254DD4F188271
:104A90000AC0C453DD4F18822D978FE088831A9285
:104AA000CE5BD2406CCFDF91CF911F910F910895D3
:104AB0002F923F924F925F926F927F928F929F922E
:104AC000AF92BF92CF92DF92EF92FF920F931F931C
:104AD000CF93DF93EC01FC01E357FD4F80818823E6
:104AE00009F4EFC01082C657DD4F81E088838A93B6
:104AF000C958D2408E0105571D4FD8018C930E9492
:104B0000100FF80180810E940010C35FDD4F1882F2
:104B1000CD50D2408981813009F091C0C45FDD4F12
:104B20008881CC50D240FE01E456FD4F62EC862EC7
:104B30006DE0962EDE01A256BD4F57ED652E5DE06D
:104B4000752E9E0120563D4F4BE0442E4EE0542ED4
:104B5000AE014E555D4FBE016C557D4F8E010A551D
:104B60001D4F98EAE92E92E0F92EEC0EFD1E9AEA0E
:104B7000C92E92E0D92ECC0EDD1E9CEE292E9DE092
:104B8000392E9CEAA92E92E0B92EAC0EBD1E8430BF
:104B900089F5918280826D927C92D9014D925C92CE
:104BA00085EB9DE0FA019183808384EA9DE0DB013F
:104BB0008D939C938FE89DE0F8019183808382E838
:104BC0009DE0D7018D939C93F6013182208289E389
:104BD0009DE0D5018D939C93C255DD4F84E29DE00D
:104BE00089939993EBE4FDE0F983E883C05BD240BD
:104BF0008BE046C0918280826D927C92D9014D9269
:104C00005C9286EF9DE0FA01918380838CE19EE0C7
:104C1000DB018D939C93F801318220828DE69DE02B
:104C2000D7018D939C938BE59DE0F6019183808362
:104C3000EBE4FDE0D501ED93FC9389E021C08230E7
:104C400091F4C456DD4F82EC9DE08993999387EDF2
:104C50009DE0899399938BE09EE099838883C05A65
:104C6000D24083E00DC0843011F080E009C0C4560A
:104C7000DD4F8BE09EE099838883CC59D24081E060
:104C8000C556DD4F8883CB59D240DE01AB5CBD4FAA
:104C90001C92CA5CDD4F188222971882C453D240FE
:104CA000FE01EB5DFD4F10828981813051F48AE075
:104CB0008083CA5DDD4F87E38883C652D24082E09D
:104CC0008C93FE01E35FFD4F80811082882331F0D9
:104CD000C357DD4F81E08883CD58D24000D000D04B
:104CE00000D0EDB7FEB7319688E895E0ADB7BEB716
:104CF00012969C938E93119785E190E09383828323
:104D000080E39EE0958384830E94A072EDB7FEB796
:104D100036960FB6F894FEBF0FBEEDBFCE010E94CF
:104D20007F18CB57DD4F2881C558D2402230D1F0B3
:104D3000233020F4213009F0B5C024C0253071F1B2
:104D4000283009F0AFC0C657DD4F8881CA58D2401D
:104D5000823010F0815013C0C556DD4F8881CB5989
:104D6000D2400DC0C657DD4F988161968881CB59DE
:104D7000D240981710F081E002C0892F8F5FC6578C
:104D8000DD4F8FC0CD52DD4F198218828FEC90E33A
:104D90009A938A93C454D040288384C0C657DD4F69
:104DA000E881CA58D240F0E0E35BFE4FEE0FFF1FF0
:104DB000EC0FFD1F0190F081E02D8EE0EC31F80743
:104DC00021F4C95CDD4F84E043C09EE0EB30F9077D
:104DD00021F4C95CDD4F81E03BC0ADE0E63FFA075E
:104DE000E1F0BDE0EC3EFB0721F4C95CDD4F87E05C
:104DF0002FC08DE0E73DF80721F4C95CDD4F88E066
:104E000027C09DE0E23CF90721F4C95CDD4F89E051
:104E10001FC0ADE0E53BFA0721F4C95CDD4F82E03D
:104E200017C0BDE0E43AFB0721F4C95CDD4F86E022
:104E300035C08DE0EF38F80721F4C95CDD4F85E01F
:104E400007C09DE0E238F90739F4C95CDD4F86E020
:104E50008883239782E725C0ADE0ED36FA07A1F0FD
:104E6000BDE0EB35FB0721F4C95CDD4F83E016C0E4
:104E70008DE0EB34F80721F4C95CDD4F84E00EC00F
:104E80009DE0E933F90721F4C95CDD4F81E006C0FC
:104E9000E452FD4039F4C95CDD4F85E088832397F7
:104EA0008AE88883DF91CF911F910F91FF90EF9057
:104EB000DF90CF90BF90AF909F908F907F906F903A
:104EC0005F904F903F902F900895AF92BF92CF92F6
:104ED000DF92EF92FF920F931F93CF93DF93EC013A
:104EE000FC01E357FD4F8081882309F440C0108204
:104EF000C757DD4F1882C958D2408E0105571D4F44
:104F000081E0D8018C930E94100FF80180810E94EB
:104F100000108E01035C1D4FC8010E94F110CB5B95
:104F2000DD4F82E08883C554D2408981843041F4CA
:104F3000CF5ADD4F80E092E099838883C155D240FB
:104F4000FE01EB5CFD4FCA5CDD4F18822297188290
:104F50002F9781EE899382EE888382E08083C80157
:104F60000E940E11629699838883C853D240CA5A10
:104F7000DD4FE880F980279708811981CF54D2400E
:104F800000D000D000D0EDB7FEB73196A8E8CA2E09
:104F9000A5E0DA2EADB7BEB71296DC92CE9211978D
:104FA00075E1A72EB12CB382A28288EE9EE0958394
:104FB00084830E94A07200D000D0EDB7FEB7319676
:104FC00084E190E0C80ED91EADB7BEB71296DC9250
:104FD000CE9211978CEE9FEFC80ED91EB382A2829B
:104FE00080E49EE095838483F782E68211870087C0
:104FF0000E94A072ADB7BEB71A960FB6F894BEBFA6
:105000000FBEADBF012BA9F400D000D000D0EDB78A
:10501000FEB7319688EC95E0ADB7BEB712969C937B
:105020008E9311978CE090E0938382838FE49EE0CF
:105030001DC0C65ADD4F8881CA55D2408823F1F47D
:1050400000D000D000D0EDB7FEB731968DE390E0F0
:10505000C80ED91EADB7BEB71296DC92CE9211978C
:1050600084E190E0938382838BE59EE09583848343
:105070000E94A072EDB7FEB736968FC08DB79EB76F
:1050800008970FB6F8949EBF0FBE8DBFEDB7FEB761
:105090003196A8E2B0E0CA0EDB1EADB7BEB71296DD
:1050A000DC92CE921197B382A2828DE69EE0958328
:1050B0008483C85ADD4F8881868317820E94A0723C
:1050C00000D000D0EDB7FEB7319684E190E0C80E75
:1050D000D91EADB7BEB71296DC92CE921197B382AD
:1050E000A28289E79EE0958384836697899186836F
:1050F00017828991808711868881828713860E9412
:10510000A07200D0EDB7FEB7319688ED95E0ADB74F
:10511000BEB712969C938E931197B382A2828EE8AB
:105120009EE09583848323978881868317828A9162
:10513000808711868A91828713869A918A919587B2
:1051400084870E94A0722A962881C754D24030E0FA
:10515000EDB7FEB736960FB6F894FEBF0FBEEDBFA3
:1051600031968CEE95E0ADB7BEB712969C938E93B8
:105170001197B382A2822A9DC0012B9D900D3A9D6A
:10518000900D11248755914F95838483378326830F
:105190000E94A072EDB7FEB738960FB6F894FEBF26
:1051A0000FBEEDBFCB57DD4F2881C558D24022300E
:1051B000C9F0283021F0213009F041C033C0CA5A6B
:1051C000DD4F28813981C655D2402230310518F093
:1051D000C901019718C0C15BDD4F88819981CF5407
:1051E000D24011C0CA5ADD4F288139812797888162
:1051F0009981CF54D2402817390718F081E090E008
:1052000002C0C901019682179307C9F0CA5ADD4F3F
:105210009983888324961882A69782EE8883C45344
:10522000D2400DC0CD52DD4F1982188287E09FE237
:105230009A938A93C454D0402883CD58D240CE014B
:10524000835C9D4F0E940E11C85CDD4F998388835B
:10525000DF91CF911F910F91FF90EF90DF90CF9052
:10526000BF90AF900895AF92BF92CF92DF92EF922E
:10527000FF920F931F93CF93DF93EC01FC01E35751
:10528000FD4F8081882309F440C01082C757DD4F4D
:105290001882C958D2408E0105571D4FFF24F39440
:1052A000D801FC920E94100FF80180810E9400102A
:1052B0008E01035C1D4FC8010E94F110CB5BDD4FD6
:1052C000F882C554D2408981843041F4CF5ADD4FF1
:1052D00080E092E099838883C155D240FE01EB5C67
:1052E000FD4FCA5CDD4F1882229718822F9781EDFF
:1052F000899382ED888382E08083C8010E940E1129
:10530000629699838883C853D240CA5ADD4FE88099
:10531000F980279708811981CF54D24000D000D05E
:1053200000D0EDB7FEB7319688E8C82E85E0D82EBC
:10533000ADB7BEB71296DC92CE921197B5E1AB2E07
:10534000B12CB382A2828AEF9EE0958384830E946F
:10535000A07200D000D0EDB7FEB7319684E190E0A6
:10536000C80ED91EADB7BEB71296DC92CE92119779
:105370008CEE9FEFC80ED91EB382A28280E49EE01D
:1053800095838483F782E682118700870E94A0724A
:10539000ADB7BEB71A960FB6F894BEBF0FBEADBF7D
:1053A000012BA9F400D000D000D0EDB7FEB73196A4
:1053B00088EC95E0ADB7BEB712969C938E9311978B
:1053C0008CE090E0938382838FE49EE01DC0C65AF8
:1053D000DD4F8881CA55D2408823F1F400D000D037
:1053E00000D0EDB7FEB731968DE390E0C80ED91E20
:1053F000ADB7BEB71296DC92CE92119784E190E0E1
:10540000938382838BE59EE0958384830E94A072C0
:10541000EDB7FEB736968FC08DB79EB708970FB61B
:10542000F8949EBF0FBE8DBFEDB7FEB73196A8E2D0
:10543000B0E0CA0EDB1EADB7BEB71296DC92CE92BC
:105440001197B382A2828DE69EE095838483C85A29
:10545000DD4F8881868317820E94A07200D000D021
:10546000EDB7FEB7319684E190E0C80ED91EADB716
:10547000BEB71296DC92CE921197B382A28289E7D0
:105480009EE09583848366978991868317828991AC
:10549000808711868881828713860E94A07200D03F
:1054A000EDB7FEB7319688ED95E0ADB7BEB7129671
:1054B0009C938E931197B382A2828EE89EE095838F
:1054C000848323978881868317828A9180871186B7
:1054D0008A91828713869A918A91958784870E9400
:1054E000A0722A962881C754D24030E0EDB7FEB7AB
:1054F00036960FB6F894FEBF0FBEEDBF31968CEE18
:1055000095E0ADB7BEB712969C938E931197B38278
:10551000A2822A9DC0012B9D900D3A9D900D1124D1
:105520008755914F95838483378326830E94A07289
:10553000EDB7FEB738960FB6F894FEBF0FBEEDBFBD
:10554000CB57DD4F2881C558D2402230C9F02830D2
:1055500021F0213009F041C033C0CA5ADD4F288103
:105560003981C655D2402230310518F0C901019762
:1055700018C0C15BDD4F88819981CF54D24011C0E2
:10558000CA5ADD4F28813981279788819981CF5464
:10559000D2402817390718F081E090E002C0C90115
:1055A000019682179307C9F0CA5ADD4F9983888301
:1055B00024961882A69782ED8883C453D2400DC0EA
:1055C000CD52DD4F1982188287E09FE29A938A9329
:1055D000C454D0402883CD58D240CE01835C9D4F27
:1055E0000E940E11C85CDD4F99838883DF91CF91B3
:1055F0001F910F91FF90EF90DF90CF90BF90AF90F1
:105600000895AF92BF92CF92DF92EF92FF920F93E5
:105610001F93CF93DF93EC01FC01E357FD4F808193
:10562000882309F442C01082C757DD4F1882C95839
:10563000D2408E0105571D4F81E0D8018C930E9406
:10564000100FF80180810E9400108E01035C1D4F35
:10565000C8010E94F110CB5BDD4F1882C554D240C7
:105660008981813019F480E094E002C080E090E00C
:10567000CF5ADD4F99838883C155D240FE01EB5C40
:10568000FD4FCA5CDD4F1882229718822F9781EC5C
:10569000899382EC888382E08083C8010E940E1186
:1056A000629699838883C853D240CA5ADD4FE880F6
:1056B000F980279708811981CF54D24000D000D0BB
:1056C00000D0EDB7FEB7319638E8C32E35E0D32EC3
:1056D000ADB7BEB71296DC92CE92119725E1A22EFD
:1056E000B12CB382A2828DE29FE0958384830E94D5
:1056F000A07200D000D0EDB7FEB7319684E190E003
:10570000C80ED91EADB7BEB71296DC92CE921197D5
:105710008CEE9FEFC80ED91EB382A28280E49EE079
:1057200095838483F782E682118700870E94A072A6
:10573000ADB7BEB71A960FB6F894BEBF0FBEADBFD9
:10574000012BA9F400D000D000D0EDB7FEB7319600
:1057500088EC95E0ADB7BEB712969C938E931197E7
:105760008CE090E0938382838FE49EE01DC0C65A54
:10577000DD4F8881CA55D2408823F1F400D000D093
:1057800000D0EDB7FEB731968DE390E0C80ED91E7C
:10579000ADB7BEB71296DC92CE92119784E190E03D
:1057A000938382838BE59EE0958384830E94A0721D
:1057B000EDB7FEB73696B0C000D000D000D0EDB740
:1057C000FEB7319688E290E0C80ED91EADB7BEB7DD
:1057D0001296DC92CE921197B382A2828AE09FE069
:1057E000958384830E94A072ADB7BEB71196EBE09B
:1057F000F0E0CE0EDF1EEDB7FEB7D282C1828AE0A6
:1058000090E013969C938E931297C95BDD4FE881CD
:10581000C754D240F0E0B096EE0FFF1FEC0FFD1F13
:105820008789908D15969C938E9314970E94A072F1
:1058300000D000D000D0EDB7FEB7319689E090E0FF
:10584000C80ED91EADB7BEB71296DC92CE92119794
:10585000B382A28289E79EE095838483CE5BDD4F8D
:1058600089918683178289918087118688818287B2
:1058700013860E94A07200D0EDB7FEB7319688ED76
:1058800095E0ADB7BEB712969C938E931197B382F5
:10589000A2828EE89EE09583848323978881868305
:1058A00017828A91808711868A91828713869A91BE
:1058B0008A91958784870E94A07200D000D0EDB7AE
:1058C000FEB731968CEE95E0ADB7BEB712969C93BD
:1058D0008E931197B382A28285E19FE095838483A2
:1058E0002C96899186831782899180871186888179
:1058F0008287138622968881848715868A91868777
:10590000178622968881CE54D240808B118A0E94BD
:10591000A072EDB7FEB772960FB6F894FEBF0FBE39
:10592000EDBFCB57DD4F2881C558D2402230C9F09A
:10593000283021F0213009F041C033C0CA5ADD4F70
:1059400028813981C655D2402230310518F0C9016D
:10595000019718C0C15BDD4F88819981CF54D24037
:1059600011C0CA5ADD4F28813981279788819981D2
:10597000CF54D2402817390718F081E090E002C0D8
:10598000C901019682179307C9F0CA5ADD4F99835E
:10599000888324961882A69782EC8883C453D240C9
:1059A0000DC0CD52DD4F1982188287E09FE29A9395
:1059B0008A93C454D0402883CD58D240CE01835C12
:1059C0009D4F0E940E11C85CDD4F99838883DF9143
:1059D000CF911F910F91FF90EF90DF90CF90BF90EC
:1059E000AF900895AF92BF92CF92DF92EF92FF9265
:1059F0000F931F93CF93DF93EC01FC01E357FD4F0F
:105A00008081882309F445C01082C757DD4F188272
:105A1000C958D2408E0105571D4F81E0D8018C93A3
:105A20000E94100FF80180810E9400108E01035C1B
:105A30001D4FC8010E94F110CB5BDD4F83E08883CE
:105A4000C554D2408981843029F0813019F080E03A
:105A500090E002C080E092E0CF5ADD4F99838883C6
:105A6000C155D240FE01EB5CFD4FCA5CDD4F188290
:105A7000229718822F9781EF899382EF888382E0A3
:105A80008083C8010E940E11629699838883C8534F
:105A9000D240CA5ADD4FE880F980279708811981E2
:105AA000CF54D24000D000D000D0EDB7FEB7319631
:105AB00068E8C62E65E0D62EADB7BEB71296DC926A
:105AC000CE92119755E1A52EB12CB382A2828EE021
:105AD00095E1958384830E94A07200D000D0EDB739
