:100000000C94660D0C94CF0D0C94CF0D0C94CF0D69
:100010000C94CF0D0C94CF0D0C94CF0D0C94CF0DF0
:100020000C94CF0D0C94CF0D0C94CF0D0C94CF0DE0
:100030000C9481680C94CF0D0C94CF0D0C94B76880
:100040000C94CF0D0C94CF0D0C9418680C94B667DB
:100050000C94EF670C94CF0D0C94CF0D0C94CF0D36
:100060000C94CF0D0C94CF0D0C94CF0D0C94CF0DA0
:100070000C94CF0D0C94CF0D0C9482670C942067D8
:100080000C9459670C94CF0D0C94CF0D0000000018
:100090000000004F00000007000700147F147F14C9
:1000A000242A7F2A1223130864623649552240000D
:1000B00005030000001C2241000041221C0014081E
:1000C0003E081408083E08080050300000080808E0
:1000D0000808006060000020100804023E514945F5
:1000E0003E00427F400042615149462141454B312B
:1000F0001814127F1027454545393C4A49493001BB
:10010000710905033649494936064949291E003611
:100110003600000056360000081422410014141462
:100120001414004122140802015109063249714198
:100130003E7E1111117E7F494949363E414141229F
:100140007F4141221C7F494949417F090909013EFC
:100150004149493A7F0808087F00417F410020401B
:10016000413F017F081422417F404040407F020C04
:10017000027F7F0408107F3E4141413E7F0909090B
:10018000063E4151215E7F091929464649494931B8
:1001900001017F01013F4040403F1F2040201F3FA1
:1001A0004070403F631408146307087008076151EA
:1001B000494543007F4141000204081020004141AD
:1001C0007F0004020102044040404040000102045C
:1001D0000020545454787F484444383844444420E0
:1001E000384444487F3854545418087E0901020C9E
:1001F0005252523E7F0804047800447D4000204063
:10020000443D007F1028440000417F40007C0418DA
:1002100004787C0804047838444444387C1414146A
:1002200008081414187C7C0804040848545454200A
:10023000043F4440203C4040207C1C2040201C3C8B
:100240004030403C44281028440C5050503C4464FA
:10025000544C44000836410000007F000000413645
:100260000800020102020114141414147E11111169
:100270007E7F494949337F494949367F010101035E
:10028000E0514F41FF7F4949494177087F08774155
:10029000494949367F1008047F7C2112097C7F0878
:1002A00014224120413F017F7F020C027F7F08081A
:1002B000087F3E4141413E7F0101017F7F090909DD
:1002C000063E4141412201017F01014728100807F4
:1002D0001C227F221C63140814637F404040FF07E8
:1002E0000808087F7F407F407F7F407F40FF017F7D
:1002F0004848307F4830007F007F484830224149DD
:10030000493E7F083E413E462919097F20545454F6
:10031000783C4A4A49317C545428007C0404040C3B
:10032000E0544C44FC38545454186C107C106C4409
:10033000445454287C2010087C7C4122117C7C1081
:1003400028440020443C047C7C0810087C7C10106D
:10035000107C38444444387C0404047C7C14141419
:1003600008384444442004047C04040C5050503C9D
:100370003048FC483044281028447C404040FC0C65
:100380001010107C7C407C407C7C407C40FC047CD9
:100390005050207C5050207C7C50502000284454E9
:1003A00054387C10384438085434147CCDEEE2FBC9
:1003B000E920EFE0F0EEEBFC3A202530347500CF79
:1003C000E0F0EEEBFC3A20253034750020202020B0
:1003D000202020C2E2E5E4E5ED202020202020209E
:1003E0000020202020EDE5EFF0E0E2E8EBFCEDFB63
:1003F000E9202020200020202020202020EFE0F0F5
:10040000EEEBFC2020202020202000C2E2EEE43A87
:1004100020253031750020C8E7ECE5EDE8F2FC203E
:10042000EFE0F0E0ECE5F2F02020002020ECEEE63A
:10043000EDEE20F2EEEBFCEAEE20E22020202000A0
:100440002020F0E5E6E8ECE520C2DBC2C5C4C5CD5E
:100450002020202000C2E2EEE43A20255300C7ED20
:10046000E0F7E5EDE8E53A2000CDE5F20000000018
:1004700000000000CAD7000000000000000000CA11
:10048000D7310000000000000000CAD73200000091
:100490000000000000CAD733000000000000000088
:1004A000CAD7340000000000000000CAD720E1E5F0
:1004B000E720E1EBEA00CAD720F120E1EBEEEA0009
:1004C00000D0C7000000000000000000CAEEEC31C0
:1004D0002BE1EBEEEA0000CAEEEC322BE1EBEEEAA8
:1004E0000000CAEEEC332BE1EBEEEA0000CAEEECC2
:1004F000342BE1EBEEEA0000CAEEECE0EDE4E03193
:10050000000000CAEEECE0EDE4E032000000CAEECC
:10051000ECE0EDE4E033000000CAEEECE0EDE4E0F6
:1005200034000000CAEEECE0EDE4E035000000CA63
:10053000EEECE0EDE4E036000000CAEEECE0EDE4C5
:10054000E037000000CAEEECE0EDE4E03800000027
:10055000CAEEECE0EDE4E039000000CAEEECE0EDBC
:10056000E4E031300000CAEEECE0EDE4E0313100CF
:1005700000CAEEECE0EDE4E031320000CAEEECE05F
:10058000EDE4E031330000CAEEECE0EDE4E03134BC
:100590000000CAEEECE0EDE4E031350000CAEEEC1C
:1005A000E0EDE4E031360000CAEEECE0EDE4E031ED
:1005B000370000CAEEECE0EDE4E031380000CAEEAE
:1005C000ECE0EDE4E031390000CAEEECE0EDE4E00F
:1005D00032300000CAEEECE0EDE4E032310000CA57
:1005E000EEECE0EDE4E032320000CAEEECE0EDE4E7
:1005F000E032330000CAEEECE0EDE4E0323400001B
:10060000CAEEECE0EDE4E032350000CAEEECE0EDDD
:10061000E4E032360000CAEEECE0EDE4E032370010
:1006200000CAEEECE0EDE4E032380000CAEEECE0A7
:10063000EDE4E032390000CAEEECE0EDE4E0333006
:100640000000CAEEECE0EDE4E033310000CAEEEC6D
:10065000E0EDE4E033320000EEF8E8E1EAE000002B
:10066000000000D1E8E3EDE0EB20EDE020E2F5EE64
:10067000E4E500CCE5EDFE5CD2E5F1F2203200D1FC
:10068000E8E3EDE0EB20EDE020E2FBF5EEE4E50051
:10069000CCE5EDFE5CD2E5F1F220310025642E20A0
:1006A000D1E5EAF3EDE4FB0025642E20CCE8EDF380
:1006B000F2FB0025642E20D7E0F1FB0025642E20FC
:1006C000C4E5EDFC0025642E20CCE5F1FFF6002505
:1006D000642E20C3EEE400CDE0F1F2F0EEE9EAE0B2
:1006E0005CC2F0E5ECFF26E4E0F2E000CFE0F0E0F1
:1006F000ECE5F2F03A257520C2F1E5E3EE3A257516
:1007000000C4E8E0EFE0E7EEED3A2000E2EAEB2E8D
:100710002FE2FBEAEB2E0025642E2E2564257300C4
:10072000F1EFE8F1EEEA00E2FBEAEB2E0000000058
:100730000000E2EAEB2E00000000000000EEF8E806
:10074000E1EAE00000000000C0C2C0CDD220D034F9
:10075000303000CFC2C7CB00000000000000EEF830
:10076000E8E1EAE00000000000D1EDE8E6E5EDE8B0
:10077000E520EEF2E2E5F2E020C0CA00D1EEE2ECC4
:10078000E5F1F2E8ECEEF1F2FC00D7E0F1F2EEF286
:10079000E00055E2FBF520EDEEECE8EDE0EBFCEDE2
:1007A000EEE500D1E5F2E5E2EEE920E0E4F0E5F186
:1007B00000C7E0E3F0F3E1EB2E20F7F3E2F1F2E221
:1007C0002E20CFD0CC00D3E4E5F0E62E20F0E5EBF0
:1007D000E520EAEEEC2E20CFD0CC00D3E4E5F0E625
:1007E0002E20F0E5EBE520EAEEEC2E20CFD0C40081
:1007F000C2F0E5ECFF20EFE5F0E5E7E0EFF3F1EA2A
:10080000E000CFEEF0EEE320EFF0E5E4F3EFF02EC2
:1008100020EFEE20CAD700CAEEEDF2F0EEEBFC209E
:10082000E2FBF52EF1E8E3EDE0EBE000CDEEECE5E8
:10083000F020E0EFEFE0F0E0F2E000D1E8EDF5F0DD
:10084000EEEDE8E7E0F6E8FF20F7E0F1EEE200CFBA
:10085000E0F0E0ECE5F2F0FB5CCEE1F9E8E500CD9C
:10086000EEECE5F020EAEEECE0EDE4FB3A20257555
:100870002F257500C1EBEEEAE8F0EEE22E20EAEE5D
:10088000ECE0EDE4FB00D1EBE5E4FFF9E8E520EA7C
:10089000EEECE0EDE4FB00D2E5F1F2EEE2E0FF2069
:1008A000EAEEECE0EDE4E000C4EBE8F2E5EBFCEDB1
:1008B000EEF1F2FC20EAEEECE0EDE4FB00C7E0E450
:1008C000E5F0E6EAE020F1F0E0E1E0F22E20CFD022
:1008D000C400CFE0F0E0ECE5F2F0FB5CCFE5F0E542
:1008E000E4E0F2F7E8EA00C7E0E4E5F0E6EAE02059
:1008F000EDE020E2FBEAEB2EEAEEEC00C1EBEEEAE3
:10090000E8F0EEE22E20EAEEECE0EDE4FB00C7E0DA
:10091000E4E5F0E6EAE020EDE020F4E8EAF12EEA92
:10092000EEEC00CFE0F0E0ECE5F2F0FB5CCFF0E8BD
:10093000E5ECEDE8EA00C4D4C72DCFF0CFE4000029
:1009400000C4D4C72DCCCA3100000000C4D4C72DC8
:10095000CCCA3200000000C4D4C72D4C3630000091
:100960000000CDC72DCFF0CFE400000000CDC72D93
:10097000CCCA000000000000CFCFC72DCFF0CFE4DD
:10098000000000CFCFC72DCCCA0000000000EEF859
:10099000E8E1EAE00000000000EEF8E8E1EAE0004B
:1009A000000000003220EAEEEDF6E5E2E0FF003361
:1009B00020EAEEEDF6E5E2E0FF00EEF8E8E1EAE03D
:1009C0000000000000E0EAF22BEFE0F1F10000008F
:1009D000E0EAF2E8E2EDFBE9000000EFE0F1F1E827
:1009E000E2EDFBE90000EEF8E8E1EAE000000000DB
:1009F000002D353030C3F600000000002D323530B8
:100A0000C3F6000000000030C3F600000000000044
:100A100000002B323530C3F600000000002B3530CB
:100A200030C3F60000000000EEF8E8E1EAE0000064
:100A3000000000D7E0F1F2EEF2E020CFD0CC00D7FA
:100A4000E0F1F2EEF2E020CFD0C400D1EDE8E6E52F
:100A5000EDE8E520F3F0EEE2EDFF20C0CA00D2E8B9
:100A6000EF20EFF0E8E5ECEDE8EAE000C7E0E3F0C6
:100A7000F3E12EF7F3E2F1F2E22E20EFEE20D0C701
:100A800000CFEEF0EEE320EFF0E5E4F3EFF020EF3F
:100A9000EE20D0C700CAEEECEFE5EDF1E0F6E8FF9E
:100AA00020E7E0E4E5F0E6EAE800CFE5F0E5EAF08B
:100AB000FBF2E8E520E8ECEFF3EBFCF1EEE200C43A
:100AC000EEEF2E20E2F0E5ECFF20E1E5E720ECE0A0
:100AD000ED2E00D2E8EF20EBE8EDE8E800D2E8EFF9
:100AE00020E7E0F9E8F2FB00CFE0F0E0ECE5F2F01F
:100AF000FB5CC7E0F9E8F2FB0025642E20CEE1F9AB
:100B0000E8E50025642E20CFE5F0E5E4E0F2F7E823
:100B1000EA0025642E20CFF0E8E5ECEDE8EA0025B8
:100B2000642E20C7E0F9E8F2E000CDE0F1F2F0EE4B
:100B3000E9EAE05CCFE0F0E0ECE5F2F0FB00C2FBBC
:100B4000E2E5E4E5ED00000000C2E2E5E4E5ED00E9
:100B500000000000D2E5F1F220310000000000D2D8
:100B6000E5F1F220320000000000CDE0F1F2F0EEFD
:100B7000E9EAE05CD0E5E6E8EC0025642E20CFE071
:100B8000F0EEEBFC0025642E20CFE0F0E0ECE5F287
:100B9000F0FB0025642E20C2F0E5ECFF20E820E405
:100BA000E0F2E00025642E20D0E5E6E8EC00CCE59C
:100BB000EDFE5CCDE0F1F2F0EEE9EAE00025642E16
:100BC00020C0CA20EEE4EDEEF1F2EEF0EEEDEDE83D
:100BD000E90025642E20C0CA20EDEEF0ECE0EBFC2D
:100BE000EDFBE90025642E20C0CA20E2FBEAEBFE03
:100BF000F7E5ED0025642E20C0CA20F3F1EAEEF0FF
:100C0000E5EDEDFBE90025642E20C0CA20E0E2F20C
:100C1000EEECE0F2E8F7E5F1EA2E0025642E20CFB5
:100C2000F3F1EA20CFD0C40025642E20CFF3F1EAFF
:100C300020C0CA20F3E4E0EBE5EDED2E0025642EA4
:100C400020CFF3F1EA20C0CA20F1E2EEE9002564EA
:100C50002E20D1E1F0EEF120C0CA0025642E20CF75
:100C6000F3F1EA20EDE0EBE0E42E20E2FBEAEB001A
:100C700025642E20CFF3F1EA20EDE0EBE0E42E2016
:100C8000E2EAEB2E0025642E20C2FBE7EEE200250F
:100C9000642E20D1E1F0EEF120F3E4E0EBE5EDEDA0
:100CA000EEE3EE0025642E20D1E1F0EEF120F1E23A
:100CB000EEE5E3EE0025642E20CFF3F1EA20F3E425
:100CC000E0EBE5EDEDEEE3EE00CCE5EDFE5CD3EF21
:100CD000F0E0E2EBE5EDE8E500C7E0EFE8F1FC204D
:100CE0002575202F20257500C6D3D0CDC0CB20CFB1
:100CF000D3D1D200D1D7C8D2DBC2C0CDC8C520C79E
:100D0000C0CFC8D1C800CAEEECE0EDE4E03A20253F
:100D10007500C4E0F2E03A20253032752E253032DD
:100D2000752E2530327500C2F0E5ECFF3A202530F3
:100D300032753A253032753A253032752E253033EA
:100D40007500CEEAEEEDF7E0EDE8E520EAEEECE046
:100D5000EDE4FB00000000CDE0F7E0EBEE20EAEE72
:100D6000ECE0EDE4FB00000000000000CEF8E8E15C
:100D7000EEF7EDEEE520E7EDE0F7E5EDE8E5000064
:100D800000C6F3F0EDE0EB5CCFE5F0E5E4E0F2F770
:100D9000E8EA00C6F3F0EDE0EB5CCFF0E8E5ECED5F
:100DA000E8EA00D1EEF1F2EEFFEDE8E53A00CF25FA
:100DB00064D12564CC256420CFC42564CFCC2564C0
:100DC000C2DBD5256400C6F3F0EDE0EB5CC7E0F9CB
:100DD000E8F2E000D0E5E6E8EC3A00C2FBE2E5E448
:100DE000E5ED00C3EEF2EEE2000000C2E2E5E4E56C
:100DF000ED0000D0E5F7FC00000000D2E5F1F23193
:100E0000000000D2E5F1F232000000EEF8E8E1EA7D
:100E1000E00000D1EEE1FBF2E8E5202D20256400A2
:100E20000000000000000000CDE5E8F1EFF020F741
:100E3000F2E5EDE8FF20464C4153480000CDE5E8DF
:100E4000F1EFF020E7E0EFE8F1E820464C415348AD
:100E50000000CDE5E8F1EFF020F7F2E5EDE8FF2046
:100E6000CFCBC8D1000000CDE5E8F1EFF020E7E0FE
:100E7000EFE8F1E820CFCBC8D1000000CDE5E8F1E4
:100E8000EFF020E7E0EFE8F1E8203252414D0000BA
:100E900000CDE5E8F1EFF020F7F2E5EDE8FF2032D4
:100EA00052414D000000CDE5E8F1EFF020F0E0E127
:100EB000EEF2FB2044535000000000C2EEF1F1F2CC
:100EC000E0ED2DE520F0E0E1EEF2FB204453500090
:100ED000CDE8E7EAEEE520EDE0EFF02E20E2FBF5CD
:100EE000EEE4E00000C2FBF1EEEAEEE520EDE0EF1B
:100EF000F02E20E2FBF5EEE4E000CDE0F0F3F8E5C3
:100F0000ED20EEE1ECE5ED20F120D3CC000000CDAA
:100F1000E5E8F1EFF0E0E2EDEEF1F2FC20F7E0F1D0
:100F2000EEE20000CDE5F220E1EBEEEAE020C1D1F7
:100F3000C70000000000000000CDE5E8F1EFF02060
:100F4000E2E5F0F1E8E820C1D1C700000000CDE5FE
:100F5000E8F1EFF020EFE5F0E5EAEB2DE5E920C15F
:100F6000D1C700CDE5F220F1E8E3EDE0EBE020CCE5
:100F7000C0CD000000000000CFE5F0E5E7E0EFF3B2
:100F8000F1EA0000000000000000000000C8E7ECEB
:100F9000E5EDE5EDE8E520F0E5E6E8ECE020F0E061
:100FA000E100CEF8E8E1EAE020E7E0EFE8F1E80070
:100FB00000000000000000CEF8E8E1EAE020EAEEE0
:100FC000EDF2F0EEEBFF000000000000D1EDE8E6EE
:100FD000E5EDE8E520F3F0EEE2EDFF20CFD0CC0028
:100FE00000CDE5F220F1E8E3EDE0EBE020CFD0CC5E
:100FF000000000000000CEF2F1F3F22DE520F1E850
:10100000E3EDE0EBE020CFF3F1EA00CEF2F1F3F212
:101010002DE520F1E8E3EDE0EBE020D1F2EEEF008A
:10102000C2FBEAEBFEF7E5EDE8E520EFE8F2E0EDE4
:10103000E8FF000000D1EEE1FBF2E8E5202D2025DD
:1010400064000000000000000000D1EEE1FBF2E8C7
:10105000E5202D202564000000000000000000D1E4
:10106000EEE1FBF2E8E5202D202564000000000001
:1010700000000000D1EEE1FBF2E8E5202D20256420
:10108000000000000000000000D1EEE1FBF2E8E506
:10109000202D202564000000000000000000D1EE9B
:1010A000E1FBF2E8E5202D202564000000000000AF
:1010B000000000D1EEE1FBF2E8E5202D20256400E0
:1010C0000000000000000000D1EEE1FBF2E8E520A6
:1010D0002D202564000000000000000000D1EEE19A
:1010E000FBF2E8E5202D2025640000000000000050
:1010F0000000C2EAEB2E20EFE8F2E0EDE8FF2FEF70
:10110000E5F0E5E7E0EF00C2FBEAEBFEF7E5EDE82E
:10111000E520EFE8F2E0EDE8FF000000C8E7ECE5CD
:10112000EDE5EDE8E520F0E5E6E8ECE020F0E0E1D3
:1011300000D1EEE1FBF2E8E5202D2025640000005F
:10114000000000000000CDE5E8F1EFF020F2E5F14D
:10115000F2E020CFD0C40000000000CDE5E8F1EFC0
:10116000F020F2E5F1F2E020CFD0CC00000000004A
:10117000CDE5E8F1EFF020E1EBEEEAE020C1D1C7E8
:101180000000000000CDE5E8F1EFF020E1EBEEEA31
:10119000E020C1D1CA0000000000CDE5E8F1EFF089
:1011A00020EFE5F0E5EAEB2DE5E920C1D1C700CD60
:1011B000E5F220F1E8E3EDE0EBE020ECE0EDE8EF34
:1011C000F3EB2E00CDE5E8F1EFF020E2FBF5EEE4E5
:1011D000EDEEE920F6E5EFE800CDE5F220F1E8E3F9
:1011E000EDE0EBE020D0C700000000000000CEF2F0
:1011F000F1F3F22DE520F1E8E3EDE0EBE020CFF3B1
:10120000F1EA00CEF2F1F3F22DE520F1E8E3EDE0B2
:10121000EBE020D1F2EEEF00CDE5E8F1EFF020F7C2
:10122000F2E5EDE8FF20EAEEECE0EDE400D1EEE1DE
:10123000FBF2E8E5202D20256400000000000000FE
:101240000000CDE5E8F1EFF02E20F0E0E1EEF2FB5A
:1012500020445350000000C2EEF1F1F2E0ED2DE524
:1012600020F0E0E1EEF2FB2044535000CDE8E7EA45
:10127000EEE520EDE0EFF02E20E2FBF5EEE4E000FD
:1012800000C2FBF1EEEAEEE520EDE0EFF02E20E209
:10129000FBF5EEE4E000CDE5F220CAD7203520F1E1
:1012A000E5EA20EDE020CFD0CC3100CDE5F220CA38
:1012B000D7203520F1E5EA20EDE020CFD0CC320078
:1012C000C2EEF1F1F2E0ED2DE520CAD720EDE020ED
:1012D000CFD0CC3100C2EEF1F1F2E0ED2DE520CA25
:1012E000D720EDE020CFD0CC3200CDE5E8F1EFF013
:1012F00020F7F22FE7E0EF203252414D000000CD01
:10130000E5E8F1EFF020F7F22FE7E0EF20CFCBC8D0
:10131000D1000000CDE5E8F1EFF020F7F22FE7E093
:10132000EF20464C4153480000CDE5E8F1EFF0E0F6
:10133000E2EDEEF1F2FC20F7E0F1EEE20000D1EE9A
:10134000E1FBF2E8E5202D2025640000000000000C
:10135000000000D1EEE1FBF2E8E5202D202564003D
:101360000000000000000000D1EEE1FBF2E8E52003
:101370002D202564000000000000000000D1EEE1F7
:10138000FBF2E8E5202D20256400000000000000AD
:101390000000D1EEE1FBF2E8E5202D2025640000FD
:1013A00000000000000000C6F3F0EDE0EB5CD1EEC1
:1013B000E1FBF2E8FF0025642E20CFE5F0E5E4E054
:1013C000F2F7E8EA0025642E20CFF0E8E5ECEDE83E
:1013D000EA0025642E20C7E0F9E8F2E00025642E3B
:1013E00020D1EEE1FBF2E8FF00CCE5EDFE5CC6F3B8
:1013F000F0EDE0EB00CFC820204D4355203A2025EA
:101400003032582E2530327800C1D1CF204453508D
:10141000203A20253032582E2530327800C1D1CFE5
:10142000204D4355203A20253032582E2530327831
:1014300000CCE5EDFE5CC8EDF4EEF0ECE0F6E8FF84
:101440000020202020CFE5F0E5E9E4E8F2E520E205
:10145000202020202000202020F2E5F1F2EEE2FB07
:10146000E920F0E5E6E8EC2020200025642E20C8E5
:10147000EDF4EEF0ECE0F6E8FF0025642E20D2E576
:10148000F1F20025642E20CDE0F1F2F0EEE9EAE081
:101490000025642E20D3EFF0E0E2EBE5EDE8E50077
:1014A00025642E20C6F3F0EDE0EB00CCE5EDFE0068
:1014B000C0CA2DEEF8E8E10000C0CA2DE0E2F2EE6D
:1014C0000000C0CA2DE0E2F2EE0000C0CA2DF3F128
:1014D000EAEEF000C0CA2DE2FBEAEB0000C0CA2D24
:1014E000EEE4EDEEF100C0CA2DE8F1EFFBF200C032
:1014F000CA2DEFF3F1EA0000C0CA2DEEF8E8E100D2
:1015000000253032643A253032643A2530326400A6
:10151000202020EDE520EEEFF0E5E4E5EBE5ED2120
:10152000212120200020202020D2E8EF20E0EFEF32
:10153000E0F0E0F2E02020202000CDE5E8F1EFF03F
:101540002E2025632D2530345800CFF0E5E4F3EF4D
:10155000F02E2025632D2530345800253032752E8D
:10156000253032752E2530327500253032753A25FA
:101570003032753A253032750055E73D25303264FA
:10158000E4C10055EA3D25303264E4C100553D25F3
:101590003032752E25303175C200493D2530337506
:1015A000ECC000523D25303375CEEC0055F83D259A
:1015B000303264E4C100CDE5E8F1EFF02EF7F22E11
:1015C00020464C41534800CDE5E8F1EFF02EE7E02E
:1015D000EF2E464C41534800CDE5E8F1EFF02EF7F1
:1015E000F22E20504C495300CDE5E8F1EFF02EE704
:1015F000E0EF2E504C495300CDE5E8F1EFF02EE737
:10160000E0EF2E3252414D00CDE5F220F1E8E3ED5E
:10161000E0EBE020CFD0CC00C0CA2DD1EDE8E6E56C
:10162000ED2EE7E0EFE0F1E000CFEEECE5F5E020B5
:10163000E220EBE8EDE8E800CDE5E8F1EFF02E443C
:101640005350203252414D2000CDE5E8F1EFF02E0D
:10165000F7F22E203252414D2000D3F1F2E0EDEEB0
:10166000E2E8F2E520F7E0F1FB00CDE8E7EAEEE59D
:1016700020EDE0EFF02EE2FBF500C2FBF1EEEAEE2A
:10168000E520EDE0EFF02EE2FBF500CDE5E8F1EF2F
:10169000F02E20CCCA20D3CC00C2D720F2F0E0EA52
:1016A000F220E2EEF1F1F22E00CDE5E8F1EFF0E00C
:1016B000E2EDEEF1F2FC00D3F1F2E0EDEEE2E8F261
:1016C000E520F7E0F1FB00CEF2EAE0E720F0E5E705
:1016D000E5F0E22EEBE8ED00CFF0E5E4F3EFF0E526
:1016E000E6E4E5EDE8E500D3E4E0EB2ECFD0C4205E
:1016F000EDE5E8F1EFF000D3E4E0EB2ECFD0CC2025
:10170000EDE5E8F1EFF000CDE5F220E1EBEEEAE007
:1017100020C1D1CA00CDE5E8F1EFF02EE2E5F0F10D
:101720002E20C1D1CA00CDE5F220CAD700CFF0E506
:10173000E22EE4EB2DF1F2E82EEAEEEC2E00CDE500
:10174000E8F1EFF02EE7E0EF2E20C1D1CA00CDE5A1
:10175000E8F1EFF02EE2FBEAEB2E20CAD1CA00CD71
:10176000E5E8F1EFF02EE2EAEB2E20CAD1CA00CD77
:10177000E5E8F1EFF02EEAEEEDF2F02ECAD1CA0064
:10178000CFF0E5E4F3EFF02EEDE5F220CAD700CF7D
:10179000F0E8E5EC20E1EBEEEA2E20CAEEEC00D119
:1017A000EDE8E62E20F3F0EEE2EDFF20CFD0CC0006
:1017B000CDE5F220E1EBEEEAE020C1D1CA00CDE5B3
:1017C000E8F1EFF02EE2E5F0F12E20C1D1CA00CD14
:1017D000E5E8F1EFF02EF7F22EEAEEECE0EDE400B2
:1017E000CDE5E8F1EFF02EE2FBEAEB2ED2E5F1F2E7
:1017F00000CDE5E8F1EFF02EE2EAEB2E20D2E5F1A4
:10180000F200CDE5E8F1EFF02EE2F5EEE42E20CA8D
:10181000D1CA00CDE5F220E1EBEEEAE020C1D1C76C
:1018200000CDE5E8F1EFF02EE2E5F0F12EC1D1C7F1
:1018300000CDE5E8F1EFF02EEFE5F0E5EAEB2E0064
:10184000CDE5E8F1EFF02EE7E0EF2E20C1D1C700A3
:10185000CDE5E8F1EFF02EE2F5EEE42ECFD3D1CADC
:1018600000CDE5E8F1EFF02EE2F5EEE42ED1D2CE98
:10187000CF00CDE5E8F1EFF02EF6E5EFFC2E20C22B
:10188000DBD500CDE5E8F1EFF02EE7E0EF2E20C24A
:10189000DBD500C4EBE8F2E5EBFCED2E20EFEEEC3F
:1018A000E5F5E000CDE8E7EAE8E920F3F0EEE22E26
:1018B00020D0C700CDE5F220F1E8E3EDE0EBE02039
:1018C000CCC0CD00C0CA2DCDE5F220EEF2E2E5F2AB
:1018D000E000CDE8E7EAE8E920F3F02E20D0C700E9
:1018E000CDE5E8F1EFF02EF3E4E0EB2E20C4D4C711
:1018F00000CDE5E8F1EFF02EF3E4E0EB2E20C2DBC3
:10190000D500D3E42ECFCED1D220E1E5E720EEF210
:10191000E22E00D3E42ECFCED1D220EEE1ED2EEF99
:10192000EEEC2E00CDE5E8F1EFF02E20C4D4C70098
:10193000C0CA2DD1EDE8E6E5ED2EE7E0EFE0F1E0FD
:1019400000CFEEF0EEE320EFEE20EFEEECE5F5E574
:1019500000C0E2F2EEEAEEEDF2F0EEEBFC00C0CAFF
:101960002DCDE5F220EEF2E2E5F2E000D2EEEA2043
:10197000EFEEEAEEFF00D3E4E0EB2ECFCED1D220A3
:10198000EDE5E8F1EFF00020CDE5F220F1E2FFE730
:10199000E820F120C1D1CF2121212000C8F1F5EEAE
:1019A000E4ED2E00CAEEEDF2F0EEEBFC00CFF3F129
:1019B000EA00D0E0E1EEF2E000CDE5E8F1EFF02E54
:1019C00000CF2EEDE5E8F1EFF000CEE6E8E4E0ED43
:1019D000E8E500CDE0EB2EEFF3F1EA00D3E42EEFE3
:1019E000F3F1EA00CDE5F220D0C700D0E5F7FC0026
:1019F000D2E5F1F200CEF8E8E1EAE000C8F1F5EE58
:101A0000E4ED2E00CFD0CC20CAD72530317500CFE1
:101A1000D0CC20CFC02530327500CDE5F220CAD71A
:101A200000CDE5E8F1EFF02E00CF2EEDE5E8F1EF87
:101A3000F000CEE6E8E4E0EDE8E500C1CBCA20CA5C
:101A4000CC25303275003F307830383F003F307859
:101A500030393F00D0E5F7FC00D2E5F1F200C8F1E3
:101A6000F5EEE4ED2E00CFD0C420CAD72530317575
:101A700000CFD0C420CFC02530327500CDE5F22094
:101A8000CAD700CDE5E8F1EFF02E00CF2EEDE5E866
:101A9000F1EFF000CEE6E8E4E0EDE8E5003F307875
:101AA00030373F003F307830383F00D1E8F1F2E581
:101AB000EC2E00D0E5F7FC00D2E5F1F200C7C0D96A
:101AC00000CFD0CC00CFD0C400004B6811241FBE83
:101AD000CFEFD0E1DEBFCDBF80B58B7F80BD9FEF64
:101AE0009ABB1BBA17BA98BB80EE84BB8FE185BB4B
:101AF00088E381BB8CEC82BB80EC82B98CEF83B92C
:101B00008EE08093610081EF809362001092640008
:101B10009093650082B1806C82B917BE9CE093BF40
:101B200088E181BF87B7826087BF1FBC9EBD1092CE
:101B30007A001DBC1CBC80E792E09BBD8ABD87B7C4
:101B4000806187BF2CE088E190E00FB6F894A895FB
:101B500081BD0FBE21BD11E0A0E0B1E0EAE9FAEDE0
:101B600000E00BBF02C007900D92AA35B107D9F76C
:101B700019E0AAE5B1E001C01D92A63AB107E1F76C
:101B80001AE1CCECDAE104C02297FE010E94F86968
:101B9000CA3CD107C9F70E9432690C944B6D0C9472
:101BA000000090916201823039F4913011F490E09C
:101BB00003C0933009F491E010926201892F0895D7
:101BC00080B38095807C87FF02C090E801C090E0E0
:101BD00086FF02C0916023C080916300809583706E
:101BE00041F080FF02C094601AC081FF18C0986065
:101BF00016C083B380958F7191F080FF02C0996009
:101C00000EC081FF02C095600AC082FF02C09660CC
:101C100006C083FF02C0926002C084FD9360809181
:101C20006301981721F09093630183E007C08091CE
:101C30000001882339F0992341F0815080930001FD
:101C400090E003C084E680930001809162018823C4
:101C500011F4909362010895809162008D7F8093CA
:101C600062001ABA85B3806C85BB80916200846083
:101C70008093620000000000809162008860809381
:101C800062000000000089B390916200977F9093FA
:101C9000620095E19A95F1F795B39F7395BB90918A
:101CA00062009860909362009FEF9ABB8095881FB6
:101CB0008827881F089595B3962B95BBE2E6F0E040
:101CC00090819D7F908390819B7F90830000000096
:101CD0008BBBE2E6F0E0808188608083000000003A
:101CE000E2E6F0E08081877F808385E08A95F1F7E6
:101CF00085B36095862385BB0895E4E6F1E01192F3
:101D000085E0E436F807D9F7089595B3962B95BB8F
:101D1000E2E6F0E090819260908390819B7F9083D7
:101D2000000000008BBBE2E6F0E0808188608083E9
:101D300000000000E2E6F0E08081877F80838AE097
:101D40008A95F1F785B36095862385BB0895209128
:101D5000680530916905F901EC59FE4F80832F5FCA
:101D60003F4F309369052093680508951F93AD99FF
:101D700005C0AD9A80E49CE90197F1F78FEF9FEFE2
:101D800090936905809368051AE0812F8A95F1F791
:101D900084EC60EC0E945B0E1A95F1F78FE360EC27
:101DA0000E945B0E8AE18A95F1F71F91089590E0F9
:101DB000019770E07695762F662777956795860F61
:101DC000971F9093690580936805089581E080933B
:101DD000650508950F931F93CF93DF93809164055A
:101DE000813029F482B390E2892782BB1EC0209102
:101DF00001013091020121153105B1F082B390E269
:101E0000892782BB80910301882321F08150809330
:101E100003010BC083E680930301215030403093CF
:101E200002012093010101C09598809165058823E6
:101E300009F442C000916705002389F4809166058A
:101E4000885460EC0E945B0E1AE1812F8A95F1F7AD
:101E500080E460EC0E945B0E1A95F1F702C000343A
:101E6000D8F480916605C82FD0E0D695DC2FCC271A
:101E7000D795C795CC59DE4FC00FD11D888160E83A
:101E80000E94850EC05CDF4F888160E40E94850E51
:101E90000F5F0093670510C080916605873030F4AE
:101EA0008F5F809366051092670506C010926605E5
:101EB0001092670510926505DF91CF911F910F91E8
:101EC0000895823039F484EF91E090930201809379
:101ED00001010895809364050895982F873010F0CC
:101EE00080E00895A7E6B1E08AE58D9321E0A13E68
:101EF000B207D9F71396E1E6F2E08FEF8C931296D2
:101F00008C93129780838283A058BF4FE058FF4F75
:101F100025E0A436B20791F78093E3018093640132
:101F200088E18093E201809365018BED8093E1016C
:101F300080936601892F90E001969695982F8827C7
:101F400097958795FC01E959FE4F4AE59C012F5171
:101F50003E4F4193E217F307E1F7FC01EC59FE4FC6
:101F6000E258FF4F88E18083EE57F0408183E358C9
:101F7000FF4F8BED8083ED57F040828381E0089521
:101F8000CF93DF93DC01603240F067FD02C0605206
:101F900005C0603C10F0605601C060E0ED01CC5916
:101FA000DE4F20E030E085E0689FB0011124F901A8
:101FB000E60FF71FE457FF4FE491E9932F5F3F4F80
:101FC00025303105A1F7AC59BE4F15961C92DF9113
:101FD000CF910895AF92BF92CF92DF92EF92FF928E
:101FE0000F931F93CF93DF93E82E492F683010F0A3
:101FF00080E046C0A62EBB2484E190E0A89E60014C
:10200000A99ED00CB89ED00C11242E2D342FC901BE
:102010008C01C4E8D0E00FC0CE01F80160810E94BD
:10202000C00F8F2D64E10E94B469933109F42896A2
:102030000F5F1F4F2696F02EFE188F2D90E08C1507
:102040009D0554F3E501D695DC2FCC27D795C79590
:10205000CC5FDE4FFC2C10C0CE01F80160810E94E5
:10206000C00F8F2D64E10E94B469933109F4289662
:102070000F5F1F4FF3942696F7E7FF1568F781E08F
:10208000DF91CF911F910F91FF90EF90DF90CF9054
:10209000BF90AF900895FC01E95AFF4F10823B9723
:1020A0001192119211921192119211921192119218
:1020B00086E081938CE0819310820895FC0184E096
:1020C0008087818781E2828786E08387148E138EE2
:1020D0001486158616861786108A118A138A128A24
:1020E000158A148A168A108E178A81E090E0928FE2
:1020F000818F158E0895FC01818D928D2789308DF9
:10210000820F931F6289738901970E94C0690895A5
:10211000FC01862F81508630B8F48150823038F42B
:1021200081E090E0908B878781E0818B0CC0862FC7
:102130008550823040F417821682138612868FE013
:1021400097E291878087628B08951F93FC015187E6
:1021500040877387628710E007C01F5FCA016AE08B
:1021600070E00E94C069AB0141155105B1F71487B9
:102170001F910895FC012785308986819781B901D7
:102180000E94C0694189629FC001639F900D729F48
:10219000900D1124642F70E00E94C069862F08956D
:1021A0000F931F93CF93DF93FC019289913091F4A9
:1021B000468157812785308980859185821B930BC5
:1021C0008417950720F0C901840F951F13C08285DD
:1021D000938510C0892F8250823078F42681378110
:1021E000828593858217930718F4C901019702C06D
:1021F000808591859783868326C09550923018F507
:102200000681178127853089B901660F771FE9019B
:1022100083E0CC0FDD1F8A95E1F76C0F7D1FC801AD
:102220000E94C069B9010E94C0696930710539F422
:10223000C20FD31F0C1B1D0B1783068304C0200F76
:10224000311F3783268386819781DF91CF911F913C
:102250000F9108951F93CF93DF93EC0180E197E2F4
:102260009B838A8380ED98E19D838C831E861F86E5
:10227000188A1A8A198A1C8A1B8A1E8A1D8ACE010C
:1022800047960E944B10C159DF4F199283E0899302
:10229000199282E18993199219921992199281E007
:1022A0008993198218822396199219921982188299
:1022B000239718822596199285E089938883C158BF
:1022C000D040CE018E579F4F0E944B10C652DF4F19
:1022D00019921882CB5DD040FE01E452FF4F80E09E
:1022E000108214828F5F31968430D1F7C050DF4F57
:1022F00019921992199219921882C450D140CE01A4
:102300008B5F9E4F0E944B10C35ADE4F199285E09F
:102310008883CE55D140FE01E15AFE4F10E0108275
:1023200014821F5F31961430D1F7C859DE4F84E113
:1023300088831A92229619921992199219921882E8
:10234000CD56D140CE0182599E4F0E944B10CA53A8
:10235000DE4F83E089931883259682E08883249753
:1023600019921992198218822496199211E01993E0
:1023700019921992199219921992188223968AE148
:1023800090E09983888382E18A931A92299718832F
:102390002D961882619619921882229718822F978B
:1023A0001882CB5DD140CE018D509E4F0E945E10B1
:1023B000CF5EDD4F1882A89619931882DF91CF91D6
:1023C0001F910895CF93DF93DC01FC01EB53FE4F87
:1023D0008081813011F081E08083662309F054C050
:1023E000A259BF4F8C91AE56B0408823E1F0A7525E
:1023F000BF4F8C91A95DB040882341F4A45ABE4FD1
:102400008C91AC55B140882309F4CEC4A953BE4F7A
:102410008C91A75CB140823011F464E01EC0813021
:10242000E1F463E01AC0A45ABE4F8C91AC55B140A0
:10243000882339F4A752BF4F8C91A95DB0408823FF
:1024400061F0A953BE4F8C91A75CB140823011F46A
:1024500066E003C0813009F465E011968C91119714
:10246000681709F46AC411966C931197AE57BD4F63
:1024700011961C921E928FEE91E59E938E93DE979D
:1024800081E08C93A254B240653009F043C11196AB
:102490006C931197AC5BBD4F82E08D9381E08D937F
:1024A00086E08D9387E08D936D9384E08C93AB5D94
:1024B000B04086EB95E18D939D9387EC95E18D93EC
:1024C0009D9388ED95E18D939D9388EE95E18D9395
:1024D0009D9388EF95E18D939D9388E096E18D9390
:1024E0009D9388E196E18D939D9389E296E18D938A
:1024F0009D9388E396E18D939D9389E496E18D9376
:102500009D938AE596E18D939D938AE696E18D935E
:102510009D938AE796E18D939D938BE896E18D9349
:102520009D9389E996E18D939D9389EA96E18D9338
:102530009D9387EB96E18D939D9387EC96E18D9328
:102540009D9328ED36E12D933D932D933D932D934F
:102550003D9387EE96E18D939D9387EF96E18D9362
:102560009D9311963C932E93AC59B140FD01E259D5
:10257000FF4F808181111082FD01E752FF4F808162
:10258000813011F081E08083AE57BF4F87E097E143
:102590008D939D9385E197E18D939D9386E297E1DD
:1025A0008D939D938DE297E18D939D9329EA36E17A
:1025B0002D933D932D933D932D933D932D933D93DB
:1025C0008EE397E18D939D938EE497E18D939D9398
:1025D0008FE597E18D939D938FE697E18D939D9382
:1025E00080E897E18D939D932D933D932D933D939B
:1025F0008FE897E18D939D938FE997E18D939D935C
:1026000088ED96E18D939D938D939D938D939D93EE
:102610008D939D938D939D938D939D9311969C93F4
:102620008E93A05BB040FD01E45AFE4F8081813063
:1026300011F081E08083AB5FBE4F80EB97E18D931B
:102640009D938EEB97E18D939D9329EA36E12D932F
:102650003D932D933D932D933D932D933D932D933A
:102660003D932D933D938FEC97E18D939D9380EE59
:1026700097E18D939D9381EF97E18D939D9382E0F8
:1026800098E18D939D932D933D932D933D932D93A1
:102690003D932D933D9388ED96E18D939D938D937E
:1026A0009D938D939D938D939D938D939D938D93EA
:1026B0009D938D939D9311969C938E93A252BF4FA1
:1026C0001C92A151B240FD01E75CFD4FA65CBD4FDD
:1026D0001C92989782E08D9383E08C938083A65B15
:1026E000B0402C91AD55B1409DE0EF010EC0888106
:1026F000883250F49D3240F4FD01E80FF11DEF5E89
:10270000FD4F90838F5F88839F5F892F8D50821745
:1027100070F315C3633009F008C211966C931197DA
:10272000AC5BBD4F82E08D9391E09D9386E08D93ED
:1027300087E08D936D9384E08C93A954B240FD01A2
:10274000E259FF4F8081813009F0908383E198E165
:1027500058969C938E93579781E298E15A969C9352
:102760008E93599781E398E15C969C938E935B9747
:1027700080E498E15E969C938E935D9749EA56E1DA
:1027800090965C934E935F9792965C934E9391973D
:1027900094965C934E93939796965C934E939597ED
:1027A00080E598E198969C938E93979781E698E1BF
:1027B0009A969C938E9399979C965C934E939B9735
:1027C00082E798E19E969C938E939D97D0965C931A
:1027D0004E939F9783E898E1D2969C938E93D197DE
:1027E00083E998E1D4969C938E93D397D6965C9385
:1027F0004E93D59784EA98E1D8969C938E93D79779
:1028000084EB98E1DA969C938E93D99728ED36E184
:10281000DC963C932E93DB97DE963C932E93DD97CC
:10282000DF962D933D932D933D932D933D931196DC
:102830003C932E93A75DBE4F86EB95E18D939D93C0
:1028400087EC95E18D939D9388ED95E18D939D9314
:1028500088EE95E18D939D9388EF95E18D939D93FF
:102860004D935D934D935D934D935D9388E396E116
:102870008D939D9389E496E18D939D938AE596E1EE
:102880008D939D938AE696E18D939D938AE796E1D9
:102890008D939D934D935D934D935D934D935D9378
:1028A00087EB96E18D939D932D933D932D933D93CF
:1028B0002D933D932D933D932D933D932D933D93D8
:1028C00011963C932E93AC59B140FD01E752FF4F56
:1028D0008081813011F081E08083AE57BF4F87E067
:1028E00097E18D939D9385E197E18D939D9386E28A
:1028F00097E18D939D938DE297E18D939D9329EAC6
:1029000036E12D933D932D933D932D933D932D9340
:102910003D938EE397E18D939D938EE497E18D93A4
:102920009D938FE597E18D939D938FE697E18D932E
:102930009D9380E897E18D939D932D933D932D93E7
:102940003D938FE897E18D939D938FE997E18D9368
:102950009D9388ED96E18D939D938D939D938D939B
:102960009D938D939D938D939D938D939D931196A0
:102970009C938E93A05BB040FD01E45AFE4F808192
:10298000813011F081E08083AB5FBE4F80EB97E137
:102990008D939D938EEB97E18D939D9329EA36E17C
:1029A0002D933D932D933D932D933D932D933D93E7
:1029B0002D933D932D933D938FEC97E18D939D93B4
:1029C00080EE97E18D939D9381EF97E18D939D9399
:1029D00082E098E18D939D932D933D932D933D93AC
:1029E0002D933D932D933D9388ED96E18D939D938B
:1029F0008D939D938D939D938D939D938D939D9397
:102A00008D939D938D939D9311969C938E93A2523B
:102A1000BF4F1C92A151B240FD01E75CFD4FA65C87
:102A2000BD4F1C92989781E08D9386E08D9387E04F
:102A30008C93A451B24084E08083FD01E80FF11D26
:102A4000EF5EFD4F9DE090838F5FA75CBD4F8C9341
:102A5000A953B240ED01C75CDD4F9881983248F42C
:102A6000FD01E90FF11DEF5EFD4F8EE080839F5F5A
:102A70009883ED01C75CDD4F9881983248F4FD01E1
:102A8000E90FF11DEF5EFD4F8FE080839F5F98831C
:102A9000ED01C75CDD4F9881983248F4FD01E90FE4
:102AA000F11DEF5EFD4F80E180839F5F9883ED0114
:102AB000C75CDD4F9881983248F4FD01E90FF11DA4
:102AC000EF5EFD4F89E080839F5F9883ED01C75CD7
:102AD000DD4F9881983248F4FD01E90FF11DEF5E5A
:102AE000FD4F8AE080839F5F9883ED01C75CDD4FD7
:102AF0009881983248F4FD01E90FF11DEF5EFD4F1A
:102B00008BE080839F5F9883ED01C75CDD4F9881E8
:102B1000983208F014C1FD01E90FF11DEF5EFD4F81
:102B20008CE080839F5F98830AC1623011F020E0BF
:102B300009C111966C931197FD01E752FF4F8081F7
:102B400081111082FD01E45AFE4F808181111082B3
:102B5000AC5BBD4F82E08D9391E09D9386E08D93B9
:102B600087E08D9383E08D9384E08C93A954B240E9
:102B7000FD01E259FF4F8081813009F0908383E1AC
:102B800098E158969C938E93579781E298E15A96D4
:102B90009C938E93599781E398E15C969C938E93D6
:102BA0005B9780E498E15E969C938E935D9784ECAE
:102BB00098E190969C938E935F9782ED98E1929620
:102BC0009C938E93919780EE98E194969C938E932C
:102BD000939781EF98E196969C938E93959780E5D5
:102BE00098E198969C938E93979781E698E19A96B0
:102BF0009C938E93999782E099E19C969C938E93F7
:102C00009B9782E798E19E969C938E939D9783E194
:102C100099E1D0969C938E939F9783E898E1D29602
:102C20009C938E93D19783E998E1D4969C938E934D
:102C3000D39784E299E1D6969C938E93D59780E3BF
:102C400099E1D8969C938E93D79784EB98E1DA9686
:102C50009C938E93D99781E499E1DC969C938E9313
:102C6000DB9781E599E1DE969C938E93DD97DF9665
:102C700028ED36E12D933D932D933D932D933D9378
:102C800011963C932E93A75DBE4F86EB95E18D93F5
:102C90009D9387EC95E18D939D9388ED95E18D93C0
:102CA0009D9388EE95E18D939D9388EF95E18D93AB
:102CB0009D938EE599E18D939D9388E196E18D93A7
:102CC0009D9389E296E18D939D9388E396E18D93A0
:102CD0009D9389E496E18D939D938CE699E18D9384
:102CE0009D938AE696E18D939D938AE796E18D9375
:102CF0009D938BE896E18D939D9389E996E18D9361
:102D00009D9389EA96E18D939D9387EB96E18D9350
:102D10009D932D933D932D933D932D933D9386E766
:102D200099E18D939D932D933D932D933D93119612
:102D30003C932E93AC59B14002C0662311F021E0C0
:102D40002DC021E011961C921197AC5BBD4F82E023
:102D50008D9381E08D931D921D921D921C92A9541A
:102D6000B240FD01E259FF4F808181111082FD01C7
:102D7000E752FF4F808181111082FD01E45AFE4F1E
:102D8000808181111082AE57BD4F11961C921E9208
:102D90008BEE9FE29E938E93A058B24081E08C937D
:102DA000822FDF91CF910895A953BE4F8C91A75CDC
:102DB000B140813009F051CB62E04FCBDC01FC0126
:102DC000E651FE4F9081992311F0108226C0809128
:102DD000E3058F5F8093E305813011F490E31DC01C
:102DE000823011F491E319C0FD01E451FE4FA55169
:102DF000BE4F90818C91AB5EB140981708F0108265
:102E0000FD01E451FE4F8081A80FB11DA552BE4FB8
:102E10009C918F5F80831092E305892F0895EAE6E5
:102E2000F5E080E2819395E0E33EF907D9F7089554
:102E3000862F8150863078F484E1689F602D1124BC
:102E4000962F945180E2E92FF0E0E659FA4F808303
:102E50009F5F9617C1F7089580E003C08F5F769556
:102E6000679560FFFBCF0895AF92BF92CF92DF923C
:102E7000EF92FF920F931F93CF93DF93EC01C05C0F
:102E8000DD4F088176E0F72EF01A2A91CF53D24019
:102E9000F21610F010E041C0122F1F193EC0212F72
:102EA00030E08DB79EB708970FB6F8949EBF0FBE5F
:102EB0008DBFADB7BEB711960E9DC00111248659C6
:102EC0009A4FEDB7FEB7928381831396BC92AE9270
:102ED0001297F901EE0FFF1FEC0FFD1FE55BFD4F91
:102EE0008081918115969C938E9314972F5F3F4F0D
:102EF00017963C932E9316970E943A6A1F5F8DB7E0
:102F00009EB708960FB6F8949EBF0FBE8DBFF60110
:102F10008081181780F40F5F0BC054E1E52E45E166
:102F2000A42EB12C3AE4C32E32E0D32ECC0EDD1EFB
:102F3000063008F4B4CFC25CDD4F8881CE53D24056
:102F40008823F1F0C15CDD4F8881CF53D240F81661
:102F500020F48AE28093D00513C0C05CDD4F288145
:102F600090E0820F911D24E130E0829FF001839F69
:102F7000F00D929FF00D1124E85AFA4F8AE28083F7
:102F8000DF91CF911F910F91FF90EF90DF90CF9045
:102F9000BF90AF900895BF92CF92DF92EF92FF92D1
:102FA0000F931F93CF93DF93EC01C558DD4FB8808B
:102FB000CB57D2408AE0B81609F054C0C05CDD4F50
:102FC0001881C054D24004C0CE01612F0E9418174E
:102FD0001F5F1730C8F3FE01E259FD4F8081DE010B
:102FE000A55CBD4F8A30D8F58F5F80831C9200E0CE
:102FF00010E0F8E2EF2EF12CE5E1CE2ED12C00D03E
:1030000000D000D0EDB7FEB73196C70186599A4F70
:10301000ADB7BEB712969C938E931197D382C2829E
:103020000C9DC0010D9D900D1C9D900D112484538D
:103030009C4F958384830E943A6A0F5F1F4F84E1FF
:1030400090E0E80EF91EADB7BEB716960FB6F8942D
:10305000BEBF0FBEADBF0330110589F659C081E078
:103060008C9356C0CE0166E00E941817C159DD4FFF
:1030700028813981CF56D240B5E0BB16D1F48DB747
:103080009EB708970FB6F8949EBF0FBE8DBFEDB7E1
:10309000FEB731968EEC95E0ADB7BEB712969C9315
:1030A0008E93119785E190E0938382838FEB93E079
:1030B0001AC096E0B91631F5ADB7BEB718970FB67E
:1030C000F894BEBF0FBEADBFEDB7FEB731968EEC24
:1030D00095E012969C938E93119785E190E09383EF
:1030E00082838CEA93E095838483378326830E94CE
:1030F0003A6A8DB79EB708960FB6F8949EBF0FBE7A
:103100008DBF06C0C55CDD4F81E08883CB53D240C4
:10311000C55CDD4F8881CB53D240843009F43FC079
:10312000853030F4813059F0823009F045C032C02A
:10313000863059F1863040F08830F1F521C0C5580D
:10314000DD4F18822D9716C095E0B91639F4C55891
:10315000DD4F87E08883CB57D2402EC0FE01E55873
:10316000FD4FA6E0BA1619F488E0808325C01082CE
:10317000C259DD4F8AE088831A92CD56D2401CC0D6
:10318000C858DD4F88EE93E00EC0C858DD4F84E686
:1031900090E009C0C858DD4F8AE090E004C0C858EC
:1031A000DD4F81E090E099838883C857D240CE01FB
:1031B00087599D4F0E94D010C55CDD4F1882C05CBE
:1031C000DF4F8881DF91CF911F910F91FF90EF909A
:1031D000DF90CF90BF900895CF92DF92EF92FF9251
:1031E0000F931F93CF93DF93EC01C558DD4F988168
:1031F000CB57D2409A3009F054C0C05CDD4F0881F3
:10320000C054D24004C0CE01602F0E9418170F5F37
:103210000730C8F3FE01E259FD4F8081DE01A55C55
:10322000BD4F8A30D8F58F5F80831C9200E010E09C
:10323000B8E2EB2EF12CA5E1CA2ED12C00D000D0A3
:1032400000D0EDB7FEB73196C70186599A4FADB79A
:10325000BEB712969C938E931197D382C2820C9D17
:10326000C0010D9D900D1C9D900D11248A5E9B4FF9
:10327000958384830E943A6A0F5F1F4F84E190E038
:10328000E80EF91EADB7BEB716960FB6F894BEBFDE
:103290000FBEADBF0330110589F690C081E08C935D
:1032A0008DC0913089F5C159DD4F0881198126966D
:1032B0008881C557D2408150843020F0C55CDD4FF5
:1032C00098837AC0CE0166E00E9418178DB79EB72A
:1032D00008970FB6F8949EBF0FBE8DBFEDB7FEB72F
:1032E00031968EEC95E0ADB7BEB712969C938E9357
:1032F000119785E190E0938382838BE094E095833E
:1033000084831783068349C0923039F4C159DD4F55
:1033100008811981CF56D24010C0933009F048C0BF
:10332000C559DD4FE881F981249688819981CF566E
:10333000D240E80FF91F008110E0CE0166E00E9444
:103340001817ADB7BEB718970FB6F894BEBF0FBE2B
:10335000ADBFEDB7FEB731968EEC95E012969C931B
:103360008E93119785E190E09383828385E594E0C5
:1033700095838483C759DD4F8BE090E0089F9001CF
:10338000099F300D189F300D112488819981C956ED
:10339000D240820F931F978386830E943A6A8DB72B
:1033A0009EB708960FB6F8949EBF0FBE8DBF06C09D
:1033B000C55CDD4F81E08883CB53D240C55CDD4FD7
:1033C0008881CB53D2408230E9F0833020F48130C1
:1033D00009F05FC007C0853009F455C0883009F096
:1033E00058C00AC0C558DD4F18822D978AE08883DF
:1033F0001A92CD56D2404DC0CE0187599D4F0E94A2
:10340000D01047C0C558DD4F8881CB57D24081309E
:10341000E1F4C159DD4F48815981299628813981CC
:10342000259788819981C357D240820F931F4817EF
:10343000590720F0CA01821B930B1EC0CF58DD4FE5
:1034400088819981C157D24017C08250823008F5D7
:10345000C159DD4F2991399188819981C157D24055
:103460002817390718F4C901019606C0CD58DD4F59
:1034700088819981C357D240C159DD4F9983888390
:10348000CF56D24006C0C558DD4F89E08883CB5760
:10349000D240C55CDD4F1882C05CDF4F8881DF9170
:1034A000CF911F910F91FF90EF90DF90CF900895F3
:1034B000CF93DF93DC01663008F046C18AE0689F55
:1034C000602D11246F5F443009F489C0453048F401
:1034D0004230E1F1433008F066C0413009F034C1B8
:1034E0000DC0463009F497C0463008F403C1473098
:1034F00009F4C4C0483009F027C1DEC08DB79EB7BB
:103500000C970FB6F8949EBF0FBE8DBFEDB7FEB7F8
:103510003196862F90E086599A4FCDB7DEB79A83C1
:10352000898389E090E0938382838BE595E195839D
:1035300084831B968C911B97868317821C968C9193
:103540001C97808711861D968C9125C0CDB7DEB75C
:103550002C970FB6F894DEBF0FBECDBFEDB7FEB708
:103560003196862F90E086599A4F9A83898389E015
:1035700090E0938382838AE695E1958384831A960B
:103580008C911A978683178219968C911997808748
:10359000118618968C91828713860E943A6A8DB79D
:1035A0009EB70C96CCC0CDB7DEB728970FB6F8946F
:1035B000DEBF0FBECDBFEDB7FEB73196862F90E0D0
:1035C00086599A4F9A83898389E090E09383828316
:1035D00089E795E1958384831E968C91A6C0CDB72B
:1035E000DEB728970FB6F894DEBF0FBECDBFEDB79C
:1035F000FEB73196862F90E086599A4F9A83898339
:103600008BE090E09383828383E895E195838483C4
:103610001F968C918AC051962D913C915297ADB7CF
:10362000BEB71A970FB6F894BEBF0FBEADBFEDB7C9
:10363000FEB73196862F90E086599A4FCDB7DEB708
:103640009A8389838BE090E0938382838DE895E170
:1036500095838483C9016AE070E00E94C069668333
:103660001782C9016AE070E00E94C06980871186F4
:103670000E943A6A8DB79EB70A9661C0CDB7DEB791
:1036800028970FB6F894DEBF0FBECDBFEDB7FEB7DB
:103690003196862F90E086599A4F9A8389838BE0E2
:1036A00090E0938382838AE995E19583848353969E
:1036B0008D919C9154973CC0CDB7DEB728970FB63B
:1036C000F894DEBF0FBECDBFEDB7FEB73196862FA3
:1036D00090E086599A4F9A8389838BE090E0938398
:1036E000828383EA95E19583848355968D919C919D
:1036F00056971EC0CDB7DEB728970FB6F894DEBF39
:103700000FBECDBFEDB7FEB73196862F90E086593C
:103710009A4F9A8389838BE090E0938382838CEA2B
:1037200095E19583848350968C91992787FD909598
:10373000978386830E943A6A8DB79EB708960FB624
:10374000F8949EBF0FBE8DBFDF91CF910895FF9279
:103750000F931F93CF93DF93EC01FC01EE5BFD4FC2
:103760008081882339F11082C15CDD4FFF24F394FE
:10377000F882FA92CE53D2408E01005C1D4FD801E0
:10378000FC920E947D0EF80180810E946D0FC65B45
:10379000DD4FF882CA54D240FE01E551FE4FC451BC
:1037A000DE4F1882229718822F978EE38883CB5D95
:1037B000D140F08200D000D000D0EDB7FEB73196F6
:1037C0008AE695E0ADB7BEB712969C938E9311979B
:1037D00005E110E01383028383E796E095838483F9
:1037E0000E943A6AEDB7FEB73196C05CDD4F888122
:1037F00024E1829FC001112486599A4FADB7BEB70C
:1038000012969C938E9311971383028383E696E01E
:10381000958384830E943A6AEDB7FEB731968EECA9
:1038200095E0ADB7BEB712969C938E931197138314
:1038300002838EE594E0958384830E943A6AEDB713
:10384000FEB731968C5990E086599A4FADB7BEB706
:1038500012969C938E9311978BE090E093838283D2
:10386000269788812BE0829FC001112487599B4FA6
:10387000958384830E943A6AC857D040EDB7FEB75B
:1038800036960FB6F894FEBF0FBEEDBF8881C25CBE
:10389000D140853031F0C55CDD4F81E08883CB536A
:1038A000D240C55CDD4F2881CB53D240213051F44A
:1038B000CE57DD4F198218828FE99EE29A938A9340
:1038C000EE972883DF91CF911F910F91FF9008957C
:1038D000FF920F931F93CF93DF93EC01FC01EE5BFC
:1038E000FD4F8081882339F11082C15CDD4FFF24B8
:1038F000F394F882FA92CE53D2408E01005C1D4FB1
:10390000D801FC920E947D0EF80180810E946D0F0B
:10391000C65BDD4FF882CA54D240FE01E551FE4F2E
:10392000C451DE4F1882229718822F978EE3888326
:10393000CB5DD140F08200D000D000D0EDB7FEB713
:1039400031968AE695E0ADB7BEB712969C938E93FA
:10395000119705E110E01383028380E996E09583D7
:1039600084830E943A6AEDB7FEB73196C05CDD4FA2
:103970008881C054D24024E1829FC001112486591D
:103980009A4FADB7BEB712969C938E93119713833F
:1039900002838FE796E0958384830E943A6AFE0152
:1039A000E558FD4F8DB79EB706960FB6F8949EBFAB
:1039B0000FBE8DBF80818B3008F01082C558DD4F5F
:1039C0008881CB57D240882309F44BC0CE010E9496
:1039D000EC18893009F085C0C559DD4FE881F981BF
:1039E000249688819981CF56D240E80FF91FE08153
:1039F0008E2F8D50803218F49E2F9A501AC08E2F21
:103A00008250843018F49E2F915013C0E63081F01C
:103A1000E73071F0E83011F490E00BC08E2F895040
:103A2000843018F49E2F955004C090E0E13009F4E2
:103A300091E0C351DE4F81E089939883CE5ED140FF
:103A4000FE01E359FD4F8081C651DE4F8883CF567A
:103A5000DF4F18822D978AE08883CE56D24010829D
:103A600040C000D000D000D0EDB7FEB731968EEC4C
:103A700095E0ADB7BEB712969C938E93119785E1F2
:103A800090E0938382838EE594E0958384830E9403
:103A90003A6AEDB7FEB731968C5990E086599A4F45
:103AA000ADB7BEB712969C938E9311978BE090E0C2
:103AB00093838283C65CDD4F8881CA53D2402BE05A
:103AC000829FC001112487599B4F958384830E9454
:103AD0003A6AEDB7FEB736960FB6F894FEBF0FBE42
:103AE000EDBFCE53DE4F8881C25CD140843031F0CF
:103AF000C55CDD4F81E08883CB53D240C55CDD4F90
:103B00002881CB53D240213019F02530D1F50BC09C
:103B1000CE57DD4F198218828FE99EE29A938A93DD
:103B2000EE9728832EC0FE01E159FD4FCD58DD4FA1
:103B300088819981C357D240918380838E01075930
:103B40001D4FC80163E00E948810C75CDD4F4881AB
:103B5000C953D24050E041505040C80160E070E08D
:103B60000E94A510CE018F5E9D4FC559DD4F9983F0
:103B7000888389E694E0D8018D939C9322968EE702
:103B80008883DF91CF911F910F91FF900895FF924D
:103B90000F931F93CF93DF93EC01FC01EE5BFD4F7E
:103BA0008081882309F442C01082C15CDD4FFF246C
:103BB000F394F882FA92CE53D2408E01005C1D4FEE
:103BC00082E0D8018C930E947D0EF80180810E94D2
:103BD0006D0FC55BDD4F8FEC96E08993999385EC73
:103BE00096E0899399938CEB96E08993999383EB74
:103BF00096E08993999388EA96E0899399938CE962
:103C000096E0998388832B9786E08883CA54D240B4
:103C1000FE01E551FE4FC451DE4F188222971882F3
:103C20002F9782E38883CB5DD140F08200D000D013
:103C300000D0EDB7FEB731968EE795E0ADB7BEB7D1
:103C400012969C938E93119785E190E093838283E3
:103C500087ED96E0958384830E943A6AEDB7FEB7BC
:103C600036960FB6F894FEBF0FBEEDBFCE0160E0F2
:103C700041E00E94581ACE0161E042E00E94581AC9
:103C8000FE01E558FD4F80818B3008F01082C55849
:103C9000DD4F8881CB57D240882309F477C0C15CBF
:103CA000DD4F499150E08DB79EB708970FB6F89455
:103CB0009EBF0FBE8DBFADB7BEB711968881C054F1
:103CC000D24024E1829FC001112486599A4FEDB75A
:103CD000FEB79283818385E190E013969C938E9347
:103CE0001297FA013197EE0FFF1FEC0FFD1FE55BF6
:103CF000FD4F8081918115969C938E931497179612
:103D00005C934E9316970E943A6A8DB79EB70896B9
:103D10000FB6F8949EBF0FBE8DBFCE010E94EC1867
:103D20008930B9F58E0107591D4FC8010E94BA109C
:103D3000F82EC8010E94BA10382FCA58DD4F88816A
:103D4000C657D240863088F4FE01E80FF11DE351DA
:103D5000FE4F8F2D6AE00E94B469282F2295207FA4
:103D6000832F0E94B469290F2083FE01E359FD4F80
:103D70008081C651DE4F8883CF56DF4F18822D9742
:103D80008AE08883CE56D240108203C0CE010E94C2
:103D90003417C55CDD4F2881CB53D2402230D1F09F
:103DA000233020F4213009F0F2C1E7C1253019F1A8
:103DB000283009F0ECC1C15CDD4F8881CF53D2407F
:103DC000823010F0815013C0C65BDD4F8881CA5429
:103DD000D2400DC0C15CDD4F98812B968881CA54BA
:103DE000D240981710F081E002C0892F8F5FC15C2C
:103DF000DD4F8883CCC1C258DD4F198218828CEE0A
:103E000098E19A938A93ED97E881CF53D240F0E0FE
:103E10003197EE0FFF1FEC0FFD1FE55BFD4F01908B
:103E2000F081E02D96E0EF3CF90761F58E0107592E
:103E30001D4FC80161E00E948810C80160E070E079
:103E400043E650E00E94A5108D85282F30E0CD5824
:103E5000DD4F48815981C357D2402417350748F0B8
:103E6000CF58DD4F88819981C157D240821793077F
:103E700008F49A01C159DD4F3983288327961982A6
:103E800018820DC1A6E0E53CFA0761F58E010759DD
:103E90001D4FC80161E00E948810C80161E070E018
:103EA0004CE050E00E94A5108C85282F30E0CD58C2
:103EB000DD4F48815981C357D2402417350748F058
:103EC000CF58DD4F88819981C157D240821793071F
:103ED00008F49A01C159DD4F39832883279681E080
:103EE00090E0DBC0B6E0EC3BFB0709F048C08E0178
:103EF00007591D4FC80161E00E9488108C858430ED
:103F0000C9F08630B9F08930A9F08B3099F0823051
:103F100051F48D8590E083709070892B11F04CE105
:103F20000AC04DE108C081508C3010F44FE103C04D
:103F300040E001C04EE1C80161E070E050E00E9445
:103F4000A5108B85282F30E0CD58DD4F4881598151
:103F5000C357D2402417350748F0CF58DD4F88812A
:103F60009981C157D2408217930708F49A01C15929
:103F7000DD4F39832883279682E090E08EC086E06B
:103F8000E33BF80761F58E0107591D4FC80161E059
:103F90000E948810C80160E070E047E150E00E9494
:103FA000A5108A85282F30E0CD58DD4F48815981F2
:103FB000C357D2402417350748F0CF58DD4F8881CA
:103FC0009981C157D2408217930708F49A01C159C9
:103FD000DD4F39832883279683E090E05EC096E02A
:103FE000E83AF90761F58E0107591D4FC80161E0F4
:103FF0000E948810C80160E070E04BE350E00E942E
:10400000A5108985282F30E0CD58DD4F4881598192
:10401000C357D2402417350748F0CF58DD4F888169
:104020009981C157D2408217930708F49A01C15968
:10403000DD4F39832883279684E090E02EC0EC5929
:10404000F64079F58E0107591D4FC80161E00E94C5
:104050008810C80160E070E04BE350E00E94A510BA
:104060008885282F30E0CD58DD4F48815981C357CE
:10407000D2402417350748F0CF58DD4F8881998109
:10408000C157D2408217930708F49A01C159DD4FF6
:1040900039832883279685E090E099838883C657E3
:1040A000D240C359DD4F82EB88832B9681E090E0AC
:1040B0008993999381E08883CA57D2403D85C35143
:1040C000DE4F832F6AE00E94B469282F2295207F5B
:1040D000832F0E94B469290F2883CD5ED1403C858F
:1040E000C251DE4F832F0E94B469282F2295207F72
:1040F000832F0E94B469290F2883CE5ED1403B856F
:10410000C151DE4F832F0E94B469282F2295207F52
:10411000832F0E94B469290F2883CF5ED1403A854E
:10412000C051DE4F832F0E94B469282F2295207F33
:10413000832F0E94B469290F2883C05FD14039853D
:10414000CF50DE4F832F0E94B469282F2295207F05
:10415000832F0E94B469290F2883C15FD14038851D
:10416000CE50DE4F832F0E94B469282F2295207FE6
:10417000832F0E94B469290F09C0CE57DD4F1982E1
:1041800018828CED91E29A938A93EE972883DF91BF
:10419000CF911F910F91FF9008950F931F93CF938D
:1041A000DF93EC01FC01EE5BFD4F8081882309F475
:1041B00060C01082C15CDD4F81E088838A93CE535A
:1041C000D2408E01005C1D4FD8018C930E947D0E61
:1041D000F80180810E946D0F8981823071F4C55B86
:1041E000DD4F8FE19BE08993999389EF9AE0998362
:1041F0008883CD54D24082E02FC08330B1F4C55BB8
:10420000DD4F8FE19BE08993999382E19BE0899355
:10421000999383E09BE08993999389EF9AE099833E
:104220008883C155D24084E017C0853021F08630A4
:1042300011F080E011C0C55BDD4F82E19BE0899306
:10424000999383E09BE08993999389EF9AE099830E
:104250008883CF54D24083E0C65BDD4F8883CF553F
:10426000D04019921882229718822F971882CB5D1E
:10427000D14000D000D000D0EDB7FEB731968AE62D
:1042800095E0ADB7BEB712969C938E93119784E1DB
:1042900090E0938382838AE29BE0958384830E94EB
:1042A0003A6AEDB7FEB736960FB6F894FEBF0FBE6A
:1042B000EDBFCE010E943417C55CDD4F2881CB5382
:1042C000D2402230D1F0233020F4213009F06FC0E9
:1042D00024C0253069F1283009F069C0C15CDD4F88
:1042E0008881CF53D240823010F0815013C0C65B1A
:1042F000DD4F8881CA54D2400DC0C15CDD4F98812A
:104300002B968881CA54D240981710F081E002C0E1
:10431000892F8F5FC15CDD4F49C0CE57DD4F1982B9
:1043200018828CED91E29A938A93EE9728833FC08E
:10433000C15CDD4FE881CF53D240F0E03197EE0F02
:10434000FF1FEC0FFD1FE55BFD4F0190F081E02D9D
:104350008BE0EF31F80739F4CE57DD4F1982188220
:104360008BE395E41FC09BE0E231F90739F4CE57A7
:10437000DD4F198218828DEB90E414C0ABE0E3307E
:10438000FA0739F4CE57DD4F1982188289E09BE392
:1043900009C0E95FFA4059F4CE57DD4F19821882FF
:1043A00084E790E39A938A93EE9781E08883DF9184
:1043B000CF911F910F9108950F931F93CF93DF9388
:1043C000EC01FC01EE5BFD4F8081882391F11082AE
:1043D000C15CDD4F81E088838A93CE53D2408E0149
:1043E000005C1D4FD8018C930E947D0EF8018081E6
:1043F0000E946D0FC55BDD4F84EA9BE08993999322
:1044000083E99BE08993999385E89BE0899399934D
:104410008AE79BE099838883279784E08883CF5538
:10442000D04019921882229718822F971882CB5D5C
:10443000D14000D000D000D0EDB7FEB731968AE66B
:1044400095E0ADB7BEB712969C938E93119785E118
:1044500090E0938382838EEA9BE0958384830E941D
:104460003A6AEDB7FEB736960FB6F894FEBF0FBEA8
:10447000EDBFCE010E943417FE01E558FD4F80814B
:104480008B3008F01082C558DD4F0881CB57D240E1
:10449000002309F44BC0C258DD4F28813981CE5723
:1044A000D240DE01A458BD4F20FF10C0F901F595A0
:1044B000E795EC0FFD1F0190F081E02D8D919C910F
:1044C000E80FF91F0190F081E02D02C0ED91FC9101
:1044D00035952795CE01820F931F09950730C1F4BA
:1044E000C159DD4F28813981CF56D2408A819B81C5
:1044F0002817390731F08C819D812817390709F079
:104500009EC0CE0187599D4F66E00E9488100EC064
:10451000083061F4C159DD4F88819981CF56D2406E
:10452000F7E280319F0710F49B838A83C55CDD4FDF
:104530002881CB53D2402230D1F0233020F42130D7
:1045400009F087C024C0253069F1283009F081C006
:10455000C15CDD4F8881CF53D240823010F0815052
:1045600013C0C65BDD4F8881CA54D2400DC0C15C08
:10457000DD4F98812B968881CA54D240981710F04D
:1045800081E002C0892F8F5FC15CDD4F3FC0CE57F5
:10459000DD4F198218828FE99EE29A938A93EE97F3
:1045A000288357C0C15CDD4FE881CF53D240F0E093
:1045B0003197EE0FFF1FEC0FFD1FE55BFD4F0190E4
:1045C000F081E02D2BE0E43AF20739F4CE57DD4FCD
:1045D0001982188283E39EE415C08BE0E339F80763
:1045E00039F4CE57DD4F1982188287EC9DE10AC05D
:1045F0009BE0E538F90761F4CE57DD4F1982188248
:104600008DEC90E29A938A93EE9781E0888321C0A3
:10461000EA57FB40F1F4C258DD4F198218828BEC47
:1046200097E19A938A93CC57D240CE0187599D4FF8
:1046300065E00E948810C359DD4F18820AC0C55832
:10464000DD4F18822D978AE088831A92CD56D2408A
:104650006DCFDF91CF911F910F9108952F923F92CF
:104660004F925F926F927F928F929F92AF92BF9282
:10467000CF92DF92EF92FF920F931F93CF93DF932E
:10468000EC01FC01EE5BFD4F8081882309F4F0C052
:104690001082C15CDD4F81E088838A93CE53D24083
:1046A0008E01005C1D4FD8018C930E947D0EF80195
:1046B00080810E946D0FC353DE4F1882CD5CD140C4
:1046C0008981823009F091C0C453DE4F8881CC5C6F
:1046D000D140FE01E55BFD4F6BE5862E6CE0962E2A
:1046E000DE01A35BBD4F50E7652E5CE0752E9E0199
:1046F000215B3D4F44EA442E4CE0542EAE014F5A0C
:104700005D4FBE016D5A7D4F8E010B5A1D4F97E5CF
:10471000E92E92E0F92EEC0EFD1E99E5C92E92E0ED
:10472000D92ECC0EDD1E95E8292E9CE0392E9BE576
:10473000A92E92E0B92EAC0EBD1E813089F5918272
:1047400080826D927C92D9014D925C928EE49CE0C5
:10475000FA01918380838DE39CE0DB018D939C9330
:1047600088E29CE0F801918380838BE19CE0D70193
:104770008D939C93F6013182208282ED9BE0D501DE
:104780008D939C93C35ADD4F8DEB9BE08993999356
:10479000E4EEFBE0F983E883CF55D2408BE048C0DC
:1047A000918280826D927C92D9014D925C928FE8C9
:1047B0009CE0FA019183808385EB9CE0DB018D9383
:1047C0009C93F8013182208286E09CE0D7018D9392
:1047D0009C9384EF9BE0F60191838083E4EEFBE001
:1047E000D501ED93FC9389E023C0833091F4C55B40
:1047F000DD4F8BE59CE08993999380E79CE089935A
:10480000999384EA9CE099838883CF54D24083E0D3
:104810000FC0853021F0863011F080E009C0C55B03
:10482000DD4F84EA9CE099838883CB54D24081E0B9
:10483000C65BDD4F8883CA54D240DE01A551BE4F0E
:104840001C92C451DE4F188222971882CA5ED14052
:10485000FE01E552FE4F10829981923049F48AE0C0
:104860008083C452DE4F87E38883CC5DD1409C9324
:10487000FE01E353FE4F80811082882331F0CE5B2E
:10488000DD4F81E08883C254D24000D000D000D0F8
:10489000EDB7FEB731968AE695E0ADB7BEB7129692
:1048A0009C938E93119785E190E09383828389ECAA
:1048B0009CE0958384830E943A6AEDB7FEB73696F2
:1048C0000FB6F894FEBF0FBEEDBFCE010E943417A5
:1048D000C55CDD4F2881CB53D2402230D1F023304C
:1048E00020F4213009F0B5C024C0253069F128300A
:1048F00009F0AFC0C15CDD4F8881CF53D240823018
:1049000010F0815013C0C65BDD4F8881CA54D2407D
:104910000DC0C15CDD4F98812B968881CA54D2406E
:10492000981710F081E002C0892F8F5FC15CDD4FC6
:104930008FC0CE57DD4F198218828FE99EE29A937D
:104940008A93EE97288385C0C15CDD4FE881CF5301
:10495000D240F0E03197EE0FFF1FEC0FFD1FE55B3B
:10496000FD4F0190F081E02D8CE0E53BF80721F44C
:10497000C351DE4F84E043C09CE0E43AF90721F4E0
:10498000C351DE4F81E03BC0ACE0EF38FA07E1F005
:10499000BCE0E538FB0721F4C351DE4F87E02FC0B0
:1049A0008CE0E037F80721F4C351DE4F88E027C0E0
:1049B0009CE0EB35F90721F4C351DE4F89E01FC0BD
:1049C000ACE0EE34FA0721F4C351DE4F82E017C0A9
:1049D000BCE0ED33FB0721F4C351DE4F86E035C068
:1049E0008CE0E832F80721F4C351DE4F85E007C0C0
:1049F0009CE0EB31F90739F4C351DE4F86E0888340
:104A0000239782E725C0ACE0E630FA07A1F0BBE0CF
:104A1000E43FFB0721F4C351DE4F83E016C08BE077
:104A2000E43EF80721F4C351DE4F84E00EC09BE062
:104A3000E23DF90721F4C351DE4F81E006C0ED5B92
:104A4000FB4039F4C351DE4F85E0888323978AE821
:104A50008883DF91CF911F910F91FF90EF90DF90AE
:104A6000CF90BF90AF909F908F907F906F905F900E
:104A70004F903F902F900895AF92BF92CF92DF92C8
:104A8000EF92FF920F931F93CF93DF93EC01FC0102
:104A9000EE5BFD4F8081882309F440C01082C25C28
:104AA000DD4F1882CE53D2408E01005C1D4F81E055
:104AB000D8018C930E947D0EF80180810E946D0FB9
:104AC0008E010D501E4FC8010E945E10C550DE4F72
:104AD00082E08883CB5FD1408981853041F4C95F12
:104AE000DD4F80E092E099838883C750D240FE0179
:104AF000E551FE4FC451DE4F1882229718822F973E
:104B000081EE899382EE888382E08083C8010E94CF
:104B10007B10629699838883CE5ED140C45FDD4F5F
:104B2000E880F980279708811981C550D24000D0CC
:104B300000D000D0EDB7FEB73196AAE6CA2EA5E0A8
:104B4000DA2EADB7BEB71296DC92CE92119775E110
:104B5000A72EB12CB382A28281E89DE09583848345
:104B60000E943A6A00D000D0EDB7FEB7319684E1DA
:104B700090E0C80ED91EADB7BEB71296DC92CE92A9
:104B800011978CEE9FEFC80ED91EB382A28289EDD9
:104B90009CE095838483F782E682118700870E94D8
:104BA0003A6AADB7BEB71A960FB6F894BEBF0FBE3D
:104BB000ADBF012BA9F400D000D000D0EDB7FEB7F7
:104BC00031968AEA95E0ADB7BEB712969C938E9364
:104BD00011978CE090E09383828388EE9CE01DC067
:104BE000C05FDD4F8881C051D2408823F1F400D0EE
:104BF00000D000D0EDB7FEB731968DE390E0C80E3F
:104C0000D91EADB7BEB71296DC92CE92119784E151
:104C100090E09383828384EF9CE0958384830E9459
:104C20003A6AEDB7FEB736968FC08DB79EB7089734
:104C30000FB6F8949EBF0FBE8DBFEDB7FEB731968D
:104C4000A8E2B0E0CA0EDB1EADB7BEB71296DC928A
:104C5000CE921197B382A28286E09DE095838483F1
:104C6000C25FDD4F8881868317820E943A6A00D036
:104C700000D0EDB7FEB7319684E190E0C80ED91EA2
:104C8000ADB7BEB71296DC92CE921197B382A282D4
:104C900082E19DE09583848366978991868317825C
:104CA0008991808711868881828713860E943A6A5B
:104CB00000D0EDB7FEB731968AEB95E0ADB7BEB741
:104CC00012969C938E931197B382A28287E29DE005
:104CD0009583848323978881868317828A9180872E
:104CE00011868A91828713869A918A919587848703
:104CF0000E943A6A2A962881CD5FD14030E0EDB714
:104D0000FEB736960FB6F894FEBF0FBEEDBF3196D4
:104D10008EEC95E0ADB7BEB712969C938E9311972B
:104D2000B382A2822A9DC0012B9D900D3A9D900DC9
:104D300011248E5B924F95838483378326830E9450
:104D40003A6AEDB7FEB738960FB6F894FEBF0FBEBD
:104D5000EDBFC55CDD4F2881CB53D2402230C9F076
:104D6000283021F0213009F040C033C0C45FDD4F4E
:104D700028813981CC50D2402230310518F0C90148
:104D8000019718C0CB5FDD4F88819981C550D24013
:104D900011C0C45FDD4F28813981279788819981AF
:104DA000C550D2402817390718F081E090E002C0C2
:104DB000C901019682179307C1F0C45FDD4F998343
:104DC000888324961882A69782EE8883CA5ED14093
:104DD0000CC0CE57DD4F198218828AED9CE29A935F
:104DE0008A93EE972883C254D240CE018D509E4FB5
:104DF0000E947B10C251DE4F99838883DF91CF914F
:104E00001F910F91FF90EF90DF90CF90BF90AF90E8
:104E10000895AF92BF92CF92DF92EF92FF920F93DD
:104E20001F93CF93DF93EC01FC01EE5BFD4F80817C
:104E3000882309F440C01082C25CDD4F1882CE5333
:104E4000D2408E01005C1D4FFF24F394D801FC92E8
:104E50000E947D0EF80180810E946D0F8E010D5021
:104E60001E4FC8010E945E10C550DE4FF882CB5F16
:104E7000D1408981853041F4C95FDD4F80E092E007
:104E800099838883C750D240FE01E551FE4FC4513B
:104E9000DE4F1882229718822F9781ED899382ED39
:104EA000888382E08083C8010E947B106296998388
:104EB0008883CE5ED140C45FDD4FE880F9802797BC
:104EC00008811981C550D24000D000D000D0EDB784
:104ED000FEB731968AE6C82E85E0D82EADB7BEB7AC
:104EE0001296DC92CE921197B5E1AB2EB12CB38223
:104EF000A28283E99DE0958384830E943A6A00D070
:104F000000D0EDB7FEB7319684E190E0C80ED91E0F
:104F1000ADB7BEB71296DC92CE9211978CEE9FEF92
:104F2000C80ED91EB382A28289ED9CE0958384834A
:104F3000F782E682118700870E943A6AADB7BEB752
:104F40001A960FB6F894BEBF0FBEADBF012BA9F4E1
:104F500000D000D000D0EDB7FEB731968AEA95E0D8
:104F6000ADB7BEB712969C938E9311978CE090E0EC
:104F70009383828388EE9CE01DC0C05FDD4F8881F3
:104F8000C051D2408823F1F400D000D000D0EDB75A
:104F9000FEB731968DE390E0C80ED91EADB7BEB70F
:104FA0001296DC92CE92119784E190E093838283F3
:104FB00084EF9CE0958384830E943A6AEDB7FEB744
:104FC00036968FC08DB79EB708970FB6F8949EBFE0
:104FD0000FBE8DBFEDB7FEB73196A8E2B0E0CA0EA6
:104FE000DB1EADB7BEB71296DC92CE921197B3829C
:104FF000A28286E09DE095838483C25FDD4F888135
:10500000868317820E943A6A00D000D0EDB7FEB7BF
:10501000319684E190E0C80ED91EADB7BEB71296A6
:10502000DC92CE921197B382A28282E19DE09583B9
:1050300084836697899186831782899180871186F8
:105040008881828713860E943A6A00D0EDB7FEB746
:1050500031968AEB95E0ADB7BEB712969C938E93CE
:105060001197B382A28287E29DE095838483239780
:105070008881868317828A91808711868A918287A8
:1050800013869A918A91958784870E943A6A2A9614
:105090002881CD5FD14030E0EDB7FEB736960FB630
:1050A000F894FEBF0FBEEDBF31968EEC95E0ADB724
:1050B000BEB712969C938E931197B382A2822A9DBB
:1050C000C0012B9D900D3A9D900D11248E5B924F47
:1050D00095838483378326830E943A6AEDB7FEB7AF
:1050E00038960FB6F894FEBF0FBEEDBFC55CDD4F1E
:1050F0002881CB53D2402230C9F0283021F0213012
:1051000009F040C033C0C45FDD4F28813981CC50E5
:10511000D2402230310518F0C901019718C0CB5F89
:10512000DD4F88819981C550D24011C0C45FDD4FE9
:1051300028813981279788819981C550D2402817C5
:10514000390718F081E090E002C0C901019682178A
:105150009307C1F0C45FDD4F99838883249618823A
:10516000A69782ED8883CA5ED1400CC0CE57DD4F32
:10517000198218828AED9CE29A938A93EE9728838B
:10518000C254D240CE018D509E4F0E947B10C2511E
:10519000DE4F99838883DF91CF911F910F91FF900C
:1051A000EF90DF90CF90BF90AF900895AF92BF92F5
:1051B000CF92DF92EF92FF920F931F93CF93DF93E3
:1051C000EC01FC01EE5BFD4F8081882309F442C0B5
:1051D0001082C25CDD4F1882CE53D2408E01005C3B
:1051E0001D4F81E0D8018C930E947D0EF8018081D3
:1051F0000E946D0F8E010D501E4FC8010E945E105F
:10520000C550DE4F1882CB5FD1408981823019F4BE
:1052100080E094E002C080E090E0C95FDD4F9983B8
:105220008883C750D240FE01E551FE4FC451DE4F86
:105230001882229718822F9781EC899382EC8883B9
:1052400082E08083C8010E947B10629699838883E4
:10525000CE5ED140C45FDD4FE880F980279708819A
:105260001981C550D24000D000D000D0EDB7FEB7B4
:1052700031963AE6C32E35E0D32EADB7BEB71296BF
:10528000DC92CE92119725E1A22EB12CB382A2829C
:1052900086EC9DE0958384830E943A6A00D000D01A
:1052A000EDB7FEB7319684E190E0C80ED91EADB7D8
:1052B000BEB71296DC92CE9211978CEE9FEFC80E7D
:1052C000D91EB382A28289ED9CE095838483F78204
:1052D000E682118700870E943A6AADB7BEB71A9678
:1052E0000FB6F894BEBF0FBEADBF012BA9F400D01E
:1052F00000D000D0EDB7FEB731968AEA95E0ADB7A1
:10530000BEB712969C938E9311978CE090E0938396
:10531000828388EE9CE01DC0C05FDD4F8881C05154
:10532000D2408823F1F400D000D000D0EDB7FEB712
:1053300031968DE390E0C80ED91EADB7BEB7129678
:10534000DC92CE92119784E190E09383828384EF84
:105350009CE0958384830E943A6AEDB7FEB7369647
:10536000B0C000D000D000D0EDB7FEB7319688E2D3
:1053700090E0C80ED91EADB7BEB71296DC92CE92A1
:105380001197B382A28283EA9DE0958384830E9471
:105390003A6AADB7BEB71196EBE0F0E0CE0EDF1E75
:1053A000EDB7FEB7D282C1828AE090E013969C935B
:1053B0008E931297C350DE4FE881CD5FD140F0E06D
:1053C0007896EE0FFF1FEC0FFD1F8789908D1596C5
:1053D0009C938E9314970E943A6A00D000D000D01C
:1053E000EDB7FEB7319689E090E0C80ED91EADB793
:1053F000BEB71296DC92CE921197B382A28282E15E
:105400009DE095838483C850DE4F899186831782FF
:105410008991808711868881828713860E943A6AE3
:1054200000D0EDB7FEB731968AEB95E0ADB7BEB7C9
:1054300012969C938E931197B382A28287E29DE08D
:105440009583848323978881868317828A918087B6
:1054500011868A91828713869A918A91958784878B
:105460000E943A6A00D000D0EDB7FEB731968EECBC
:1054700095E0ADB7BEB712969C938E931197B38209
:10548000A2828EEA9DE0958384832C9689918683FF
:105490001782899180871186888182871386229658
:1054A0008881848715868A918687178622968881C7
:1054B000C450D240808B118A0E943A6AEDB7FEB781
:1054C00072960FB6F894FEBF0FBEEDBFC55CDD4F00
:1054D0002881CB53D2402230C9F0283021F021302E
:1054E00009F040C033C0C45FDD4F28813981CC5002
:1054F000D2402230310518F0C901019718C0CB5FA6
:10550000DD4F88819981C550D24011C0C45FDD4F05
:1055100028813981279788819981C550D2402817E1
:10552000390718F081E090E002C0C90101968217A6
:105530009307C1F0C45FDD4F998388832496188256
:10554000A69782EC8883CA5ED1400CC0CE57DD4F4F
:10555000198218828AED9CE29A938A93EE972883A7
:10556000C254D240CE018D509E4F0E947B10C2513A
:10557000DE4F99838883DF91CF911F910F91FF9028
:10558000EF90DF90CF90BF90AF900895AF92BF9211
:10559000CF92DF92EF92FF920F931F93CF93DF93FF
:1055A000EC01FC01EE5BFD4F8081882309F445C0CE
:1055B0001082C25CDD4F1882CE53D2408E01005C57
:1055C0001D4F81E0D8018C930E947D0EF8018081EF
:1055D0000E946D0F8E010D501E4FC8010E945E107B
:1055E000C550DE4F83E08883CB5FD1408981853011
:1055F00029F0823019F080E090E002C080E092E073
:10560000C95FDD4F99838883C750D240FE01E551C1
:10561000FE4FC451DE4F1882229718822F9781EFD8
:10562000899382EF888382E08083C8010E947B1087
:10563000629699838883CE5ED140C45FDD4FE88057
:10564000F980279708811981C550D24000D000D039
:1056500000D0EDB7FEB731966AE6C62E65E0D62ECD
:10566000ADB7BEB71296DC92CE92119755E1A52E3A
:10567000B12CB382A28287EA93E1958384830E944E
:105680003A6A00D000D0EDB7FEB7319624E130E0A1
:10569000C20ED31EADB7BEB71296DC92CE92119752
:1056A0002CEE3FEFC20ED31EB382A28289ED9CE0A6
:1056B00095838483F782E682118700870E943A6A85
:1056C0008DB79EB70A960FB6F8949EBF0FBE8DBFDA
:1056D000012BA9F400D000D000D0EDB7FEB7319671
:1056E0008AEA95E0ADB7BEB712969C938E93119758
:1056F0008CE090E09383828388EE9CE01DC0C05FC5
:10570000DD4F8881C051D2408823F1F400D000D011
:1057100000D0EDB7FEB731962DE330E0C20ED31EB8
:10572000ADB7BEB71296DC92CE92119784E190E0AD
:105730009383828384EF9CE0958384830E943A6AFA
:10574000EDB7FEB73696D1C000D000D000D0EDB78F
:10575000FEB7319628E230E0C20ED31EADB7BEB719
:105760001296DC92CE921197B382A28284ED9DE0D4
:10577000958384830E943A6AEDB7FEB7319627E09D
:1057800030E0C20ED31EADB7BEB71296DC92CE92F9
:1057900011978DE090E093838283C250DE4F888121
:1057A00090E043E0880F991F4A95E1F78552924FA8
:1057B000958384830E943A6A00D000D000D0EDB770
:1057C000FEB731962DE030E0C20ED31EADB7BEB7A6
:1057D0001296DC92CE921197B382A28282E19DE072
:1057E0009583848326978991868317828991808700
:1057F00011868881828713860E943A6A00D0EDB7AD
:10580000FEB731968AEB95E0ADB7BEB712969C9382
:105810008E931197B382A28287E29DE09583848361
:1058200023978881868317828A91808711868A913F
:10583000828713869A918A91958784870E943A6A13
:105840002A969881CD5FD140EDB7FEB73E960FB650
:10585000F894FEBF0FBEEDBF8981292F30E04EECDA
:1058600055E08230E9F48DB79EB708970FB6F894EB
:105870009EBF0FBE8DBFEDB7FEB73196ADB7BEB7B9
:1058800012965C934E931197B382A2822A9DC00117
:105890002B9D900D3A9D900D11248D5E914F1CC053
:1058A0008DB79EB708970FB6F8949EBF0FBE8DBFF9
:1058B000EDB7FEB73196ADB7BEB712965C934E9377
:1058C0001197B382A2822A9DC0012B9D900D3A9D13
:1058D000900D112483529F4E9583848337832683B2
:1058E0000E943A6AEDB7FEB738960FB6F894FEBF3D
:1058F0000FBEEDBFC55CDD4F2881CB53D2402230B7
:10590000C9F0283021F0213009F040C033C0C45F15
:10591000DD4F28813981CC50D2402230310518F03A
:10592000C901019718C0CB5FDD4F88819981C550AF
:10593000D24011C0C45FDD4F28813981279788810B
:105940009981C550D2402817390718F081E090E0BE
:1059500002C0C901019682179307C1F0C45FDD4FF1
:105960009983888324961882A69782EF8883CA5EDB
:10597000D1400CC0CE57DD4F198218828AED9CE2CF
:105980009A938A93EE972883C254D240CE018D50C9
:105990009E4F0E947B10C251DE4F99838883DF9116
:1059A000CF911F910F91FF90EF90DF90CF90BF901C
:1059B000AF9008950F931F93CF93DF93EC01FC01F9
:1059C000EE5BFD4F8081882309F466C01082C15CC4
:1059D000DD4F81E088838A93CE53D2408E01005CF4
:1059E0001D4FD8018C930E947D0EF80180810E948A
:1059F0006D0F8981C551DE4F199218822297188246
:105A00002F971882CB5DD140823071F4C55BDD4F9A
:105A10008DED93E18993999382ED93E19983888346
:105A2000CD54D24082E033C08330B1F4C55BDD4F4A
:105A30008DED93E18993999382ED93E18993999305
:105A400085EC93E18993999386EB93E1998388831D
:105A5000C155D24084E01BC08550FE01E55BFD4F7F
:105A60002DED33E1823080F431832083C35BDD4F41
:105A700085EC93E18993999386EB93E199838883ED
:105A8000CF54D24083E003C03183208381E0C65BE2
:105A9000DD4F8883CA54D24000D000D000D0EDB78B
:105AA000FEB731968AE695E0ADB7BEB712969C93E5
:105AB0008E93119785E190E09383828389EE93E141
:105AC000958384830E943A6AEDB7FEB736960FB687
:105AD000F894FEBF0FBEEDBFCE010E943417C55C27
