:100000000C94B4240C941D250C941D250C941D25D2
:100010000C941D250C941D250C941D250C941D2558
:100020000C941D250C941D250C941D250C941D2548
:100030000C9405B50C941D250C941D250C9438B515
:100040000C941D250C941D250C94A5B30C943AB367
:100050000C947AB30C941D250C941D250C941D252D
:100060000C941D250C941D250C941D250C941D2508
:100070000C941D250C941D250C9465B40C94FAB2B7
:100080000C94B0B40C94D8B30C941D2518603B604C
:1000900063607B609660B160C960E46066617E61A8
:1000A0009961FF602E614A61B461D061EB610B62BE
:1000B00000C1814001C0804101C0804100C1814038
:1000C00001C0804100C1814000C1814001C0804128
:1000D00001C0804100C1814000C1814001C0804118
:1000E00000C1814001C0804101C0804100C1814008
:1000F00001C0804100C1814000C1814001C08041F8
:1001000000C1814001C0804101C0804100C18140E7
:1001100000C1814001C0804101C0804100C18140D7
:1001200001C0804100C1814000C1814001C08041C7
:1001300001C0804100C1814000C1814001C08041B7
:1001400000C1814001C0804101C0804100C18140A7
:1001500000C1814001C0804101C0804100C1814097
:1001600001C0804100C1814000C1814001C0804187
:1001700000C1814001C0804101C0804100C1814077
:1001800001C0804100C1814000C1814001C0804167
:1001900001C0804100C1814000C1814001C0804157
:1001A00000C1814001C0804101C0804100C1814047
:1001B00000C0C101C30302C2C60607C705C5C40407
:1001C000CC0C0DCD0FCFCE0E0ACACB0BC90908C877
:1001D000D81819D91BDBDA1A1EDEDF1FDD1D1CDC67
:1001E00014D4D515D71716D6D21213D311D1D010D7
:1001F000F03031F133F3F23236F6F737F53534F4C7
:100200003CFCFD3DFF3F3EFEFA3A3BFB39F9F83836
:1002100028E8E929EB2B2AEAEE2E2FEF2DEDEC2C26
:10022000E42425E527E7E62622E2E323E12120E096
:10023000A06061A163A3A26266A6A767A56564A486
:100240006CACAD6DAF6F6EAEAA6A6BAB69A9A868F6
:1002500078B8B979BB7B7ABABE7E7FBF7DBDBC7CE6
:10026000B47475B577B7B67672B2B373B17170B056
:100270005090915193535292965657975595945446
:100280009C5C5D9D5F9F9E5E5A9A9B5B99595898B6
:10029000884849894B8B8A4A4E8E8F4F8D4D4C8CA6
:1002A0004484854587474686824243834181804016
:1002B0005669727475616C00C0C2C0CDD220CECFB9
:1002C000D2CE2D2564256425642DCE00C0C2C0CDBC
:1002D000D220CA3430302D25642564C200C0C2C08B
:1002E000CDD220D0C7D1CA2D2564256425642DC266
:1002F00000C0C2C0CDD220D0343030EC2D313030EF
:100300002DC200C900CA00CB00CC00CD00CE00CF6A
:10031000002D012E012F0130013101320133013452
:1003200001350136013701380139013A013B013C01
:10033000013D013E013F01400141014201430144B1
:1003400001450146014701480149014A014B014C61
:1003500001900191019201930194019501960197F9
:1003600001980199019A019B019C019D019E019FA9
:1003700001A001A101A201A301A401A501A601A759
:1003800001A801A901AA01AB01AC01AD01AE01AF09
:1003900001B001C201C301C401C501C601C701C842
:1003A00001C901CA01CB01CC01CD01CE01CF01D0E1
:1003B00001D101D201D301D401D501D601D701D891
:1003C00001D901DA01DB01DC01DD01DE01DF01E041
:1003D00001E101E501E601E701F401F501F601F7AC
:1003E00001F801F901FA01FB01FC01FD01FE01FF29
:1003F00001000201020202030204020502060207D2
:1004000002080209020A020B020C020D020E020F80
:1004100002100211021202130214022602270228FD
:100420000229022A022B022C022D022E022F023058
:100430000231023202330234023502360237023808
:100440000239023A023B023C023D023E023F0240B8
:10045000024102420243024402450249024A024B5F
:10046000024C02580259025A025B025C025D025EB3
:10047000025F026002610262026302640265026658
:10048000026702680269026A026B026C026D026E08
:10049000026F0270027102720273027402750276B8
:1004A000027702780220C8E7ECE5EDE8F2FC20EFE5
:1004B000E0F0E0ECE5F2F02020002020ECEEE6EDAC
:1004C000EE20F2EEEBFCEAEE20E2202020200020DD
:1004D00020F0E5E6E8ECE520C2DBC2C5C4C5CD20CE
:1004E000202020000000000000ECC0000000C00040
:1004F000000000EAC0000000C200000000EAC200E4
:100500000000ECF10000006300000000F7E0F100E3
:1005100000E4C1000000C3F6000000EAC3F60000DA
:10052000E3F0E0E400002D25642E2564255300252A
:10053000642E25642553002564255300F7F2E5ED6C
:10054000E8E52E2E00F7F2E5EDE8E52E0025640043
:10055000EEF8E8E1EAE021212100C7EDE0F7E5ED62
:10056000E8E53A200025642E2EB1256425530025A8
:10057000642E2EB1256425530025642E2E2564009B
:1005800025642E2E2564255300E2EAEB2E2FE2FB94
:10059000EAEB2E00F1EFE8F1EEEA00C4E8E0EFE06C
:1005A000E7EEED3A20005A2F812FA82FCF2FF62FFC
:1005B0001D3044306B309230B930E03007312E318D
:1005C00055317C31A331CA31F13118323F326632B4
:1005D0008D32B432DB3202332933503377339E33DA
:1005E000C533EC3313343A3461348834AF34D63401
:1005F000FD3424354B3572359935C035E7350E3627
:1006000035365C368336AA36D136F8361F3746374C
:100610006D379437BB37E2370938303857387E3872
:10062000A538CC38F3381A39413968398F39B63999
:10063000DD39043A2B3A523A793AA03AC73AEE3ABF
:10064000153B3C3B633B8A3BB13BD83BFF3B263CE5
:100650004D3C743C9B3CC23CE93C103D373D5E3D0B
:10066000853DAC3DD33DFA3DCDEEECE5F03A20259D
:10067000752F257500CDEEECE5F03A2025532F259A
:100680005300C0C2C0CDD220D03430300000CFC221
:10069000C72D3930000000000000C0C2C7CA2D3885
:1006A000300000000000CFC2C7D32DC500000000FD
:1006B0000000CFC2C7CB0000000000000000CBC884
:1006C000CDC8DF2DD00000000000CFC2C7CA000097
:1006D000000000000000CFE0F0E0ECE5F2F03A2589
:1006E0007520C2F1E5E3EE3A257500C2FBE2E5E4D0
:1006F000E5ED00C3EEF2EEE2000000C2E2E5E4E563
:10070000ED0000D0E5F7FC00000000D2E5F1F200BA
:10071000000000D2E5F1F200000000EEF8E8E1EAA6
:10072000E000002020200000000000000000002069
:1007300031200000000000000000002032200000F6
:100740000000000000000031203200000000000026
:1007500000000020332000000000000000000031F5
:1007600020330000000000000000003220330000B1
:1007700000000000000000203F20000000000000FA
:10078000000000CFF0E5E4F3EFF02E2025632D25E7
:1007900030345800CDE5E8F1EFF02E2025632D250B
:1007A0003034580064463D25303264C3F600543D71
:1007B00025303264B04300443D25303264E4C1004A
:1007C000253032753A253032753A2530327500259C
:1007D0003032752E253032752E253032750053E4B7
:1007E0003D25303275B00055F8323D25303264E495
:1007F000C10055F8313D25303264E4C10055F83D63
:1008000025303264E4C10055EA323D25303264E4DB
:10081000C10055EA313D25303264E4C10055EA3D5E
:1008200025303264E4C10055E7323D25303264E4BE
:10083000C10055E7313D25303264E4C10055E73D44
:1008400025303264E4C100523D25303375CEEC00D2
:10085000493D25303375ECC000553D253032752EAD
:1008600025303175C200CDEEE2FBE920EFE0F0EE7D
:10087000EBFC3A202530347500CFE0F0EEEBFC3A8B
:1008800020253034750020202020202020C2E2E5E1
:10089000E4E5ED202020202020200020202020ED55
:1008A000E5EFF0E0E2E8EBFCEDFBE92020202000A2
:1008B00020202020202020EFE0F0EEEBFC20202064
:1008C0002020202000C2E2EEE43A20253031752EAF
:1008D0002530317500C2E2EEE43A20253031640063
:1008E000C2E2EEE43A20255300E2FBEAEB2E0000E0
:1008F0000000000000CAD700000000000000000057
:1009000000CAD731000000000000000000CAD73242
:10091000000000000000000000CAD7330000000003
:100920000000000000CAD7340000000000000000F2
:1009300000CAD731000000000000000000CAD73113
:1009400020F120E1EBEEEA0000CAD73200000000FF
:100950000000000000CAD73220F120E1EBEEEA00EF
:1009600000D0C700000000000000000000CAEEEC4C
:10097000E0EDE4E03100000000CAEEECE0EDE4E080
:100980003200000000CAEEECE0EDE4E033000000CD
:1009900000CAEEECE0EDE4E03400000000CAEEEC4A
:1009A000312BE1EBEEEA000000CAEEEC322BE1EB7A
:1009B000EEEA000000CAEEEC332BE1EBEEEA0000B9
:1009C00000CAEEEC342BE1EBEEEA000000CAEEECDC
:1009D000E0EDE4E03100000000CAEEECE0EDE4E020
:1009E0003200000000CAEEECE0EDE4E0330000006D
:1009F00000CAEEECE0EDE4E03400000000CAEEECEA
:100A0000E0EDE4E03500000000CAEEECE0EDE4E0EB
:100A10003600000000CAEEECE0EDE4E03700000034
:100A200000CAEEECE0EDE4E03800000000CAEEECB5
:100A3000E0EDE4E03900000000CAEEECE0EDE4E0B7
:100A40003130000000CAEEECE0EDE4E031310000AE
:100A500000CAEEECE0EDE4E03132000000CAEEEC5A
:100A6000E0EDE4E03133000000CAEEECE0EDE4E05C
:100A70003134000000CAEEECE0EDE4E03135000076
:100A800000CAEEECE0EDE4E03136000000CAEEEC26
:100A9000E0EDE4E03137000000CAEEECE0EDE4E028
:100AA0003138000000CAEEECE0EDE4E0313900003E
:100AB00000CAEEECE0EDE4E03230000000CAEEECFB
:100AC000E0EDE4E03231000000CAEEECE0EDE4E0FD
:100AD0003232000000CAEEECE0EDE4E03233000018
:100AE00000CAEEECE0EDE4E03234000000CAEEECC7
:100AF000E0EDE4E03235000000CAEEECE0EDE4E0C9
:100B00003236000000CAEEECE0EDE4E032370000DF
:100B100000CAEEECE0EDE4E03238000000CAEEEC92
:100B2000E0EDE4E03239000000CAEEECE0EDE4E094
:100B30003330000000CAEEECE0EDE4E033310000B9
:100B400000CAEEECE0EDE4E03332000000CAD7204A
:100B5000E820D0C70000000000CAD73120E820D02C
:100B6000C700000000CAD73220E820D0C70000002C
:100B700000CAD73320E820D0C700000000CAD7340D
:100B800020E820D0C700000000CAD100000000000B
:100B90000000000000CAEEECE0EDE4E031410000AE
:100BA00000CAEEECE0EDE4E03241000000CAEEECF9
:100BB000E0EDE4E03341000000CAEEECE0EDE4E0FB
:100BC0003441000000CAEEECE0EDE4E03541000005
:100BD00000CAEEECE0EDE4E03641000000CAEEECC5
:100BE000E0EDE4E03741000000CAEEECE0EDE4E0C7
:100BF0003841000000CAEEECE0EDE4E039410000CD
:100C000000CAEEECE0EDE4E03130410000CAEEEC69
:100C1000E0EDE4E03131410000CAEEECE0EDE4E06B
:100C20003132410000CAEEECE0EDE4E03133410046
:100C300000CAEEECE0EDE4E03134410000CAEEEC35
:100C4000E0EDE4E03135410000CAEEECE0EDE4E037
:100C50003136410000CAEEECE0EDE4E0313741000E
:100C600000CAEEECE0EDE4E03138410000CAEEEC01
:100C7000E0EDE4E03139410000CAEEECE0EDE4E003
:100C80003230410000CAEEECE0EDE4E032314100E8
:100C900000CAEEECE0EDE4E03232410000CAEEECD6
:100CA000E0EDE4E03233410000CAEEECE0EDE4E0D8
:100CB0003234410000CAEEECE0EDE4E032354100B0
:100CC00000CAEEECE0EDE4E03236410000CAEEECA2
:100CD000E0EDE4E03237410000CAEEECE0EDE4E0A4
:100CE0003238410000CAEEECE0EDE4E03239410078
:100CF00000CAEEECE0EDE4E03330410000CAEEEC77
:100D0000E0EDE4E03331410000CAEEECE0EDE4E078
:100D10003332410000CAEEECE0EDE4E03142000085
:100D200000CAEEECE0EDE4E03242000000CAEEEC76
:100D3000E0EDE4E03342000000CAEEECE0EDE4E078
:100D40003442000000CAEEECE0EDE4E03542000081
:100D500000CAEEECE0EDE4E03642000000CAEEEC42
:100D6000E0EDE4E03742000000CAEEECE0EDE4E044
:100D70003842000000CAEEECE0EDE4E03942000049
:100D800000CAEEECE0EDE4E03130420000CAEEECE7
:100D9000E0EDE4E03131420000CAEEECE0EDE4E0E9
:100DA0003132420000CAEEECE0EDE4E031334200C3
:100DB00000CAEEECE0EDE4E03134420000CAEEECB3
:100DC000E0EDE4E03135420000CAEEECE0EDE4E0B5
:100DD0003136420000CAEEECE0EDE4E0313742008B
:100DE00000CAEEECE0EDE4E03138420000CAEEEC7F
:100DF000E0EDE4E03139420000CAEEECE0EDE4E081
:100E00003230420000CAEEECE0EDE4E03231420064
:100E100000CAEEECE0EDE4E03232420000CAEEEC53
:100E2000E0EDE4E03233420000CAEEECE0EDE4E055
:100E30003234420000CAEEECE0EDE4E0323542002C
:100E400000CAEEECE0EDE4E03236420000CAEEEC1F
:100E5000E0EDE4E03237420000CAEEECE0EDE4E021
:100E60003238420000CAEEECE0EDE4E032394200F4
:100E700000CAEEECE0EDE4E03330420000CAEEECF4
:100E8000E0EDE4E03331420000CAEEECE0EDE4E0F6
:100E90003332420000CAEEECE0EDE4E03143000002
:100EA00000CAEEECE0EDE4E03243000000CAEEECF4
:100EB000E0EDE4E03343000000CAEEECE0EDE4E0F6
:100EC0003443000000CAEEECE0EDE4E035430000FE
:100ED00000CAEEECE0EDE4E03643000000CAEEECC0
:100EE000E0EDE4E03743000000CAEEECE0EDE4E0C2
:100EF0003843000000CAEEECE0EDE4E039430000C6
:100F000000CAEEECE0EDE4E03130430000CAEEEC64
:100F1000E0EDE4E03131430000CAEEECE0EDE4E066
:100F20003132430000CAEEECE0EDE4E0313343003F
:100F300000CAEEECE0EDE4E03134430000CAEEEC30
:100F4000E0EDE4E03135430000CAEEECE0EDE4E032
:100F50003136430000CAEEECE0EDE4E03137430007
:100F600000CAEEECE0EDE4E03138430000CAEEECFC
:100F7000E0EDE4E03139430000CAEEECE0EDE4E0FE
:100F80003230430000CAEEECE0EDE4E032314300E1
:100F900000CAEEECE0EDE4E03232430000CAEEECD1
:100FA000E0EDE4E03233430000CAEEECE0EDE4E0D3
:100FB0003234430000CAEEECE0EDE4E032354300A9
:100FC00000CAEEECE0EDE4E03236430000CAEEEC9D
:100FD000E0EDE4E03237430000CAEEECE0EDE4E09F
:100FE0003238430000CAEEECE0EDE4E03239430071
:100FF00000CAEEECE0EDE4E03330430000CAEEEC72
:10100000E0EDE4E03331430000CAEEECE0EDE4E073
:101010003332430000EEF8E8E1EAE00000000000AF
:1010200000C7EDE0F7E5EDE8E53A2000CFD0CC329F
:101030003A2000CFD0CC313A2000D1E8E3EDE0EB0C
:10104000FB20EFF0E8E5ECEDE8EAE000D2E5F1F2B4
:10105000FB5CCFF0E8E5ECEDE8EA00D1E8E3EDE099
:10106000EBFB20EFE5F0E5E4E0F2F7E8EAE000D2A0
:10107000E5F1F2FB5CCFE5F0E5E4E0F2F7E8EA0049
:1010800020202020CFE5F0E5E9E4E8F2E520E220A9
:101090002020202000202020F0E5E6E8EC20C2DB24
:1010A000C2C5C4C5CD202020200025642E20D2E555
:1010B000F1F220EFF0E8E5ECEDE8EAE00025642E3F
:1010C00020D2E5F1F220EFE5F0E5E4E0F2F7E8EA1E
:1010D000E000CDE0F1F2F0EEE9EAE05CD2E5F1F219
:1010E000FB00CCE5EDFE5CC8E7ECE5F0E5EDE8FFE4
:1010F0000025642E20D1E5EAF3EDE4FB0025642E03
:1011000020CCE8EDF3F2FB0025642E20D7E0F1FBC4
:101110000025642E20C4E5EDFC0025642E20CCE5DE
:10112000F1FFF60025642E20C3EEE400CDE0F1F2DD
:10113000F0EEE9EAE05CC2F0E5ECFF26E4E0F2E084
:1011400000CDE0F1F2F0EEE9EAE05CC8EDF2E5F0A6
:10115000F4E5E9F100CFE0F0E0ECE5F2F0FB5CCA89
:10116000EEEBFCF6EE00CFE0F0E0ECE5F2F0FB5C3D
:10117000CEE1F9E8E500CFE0F0E0ECE5F2F0FB5C71
:10118000CFE5F0E5E4E0F2F7E8EA00CFE0F0E0ECEC
:10119000E5F2F0FB5CCFF0E8E5ECEDE8EA00CFE04B
:1011A000F0E0ECE5F2F0FB5CC7E0F9E8F2E00025E6
:1011B000642E20CAEEEBFCF6EE0025642E20CEE174
:1011C000F9E8E50025642E20CFE5F0E5E4E0F2F74C
:1011D000E8EA0025642E20CFF0E8E5ECEDE8EA002F
:1011E00025642E20C7E0F9E8F2E000CDE0F1F2F04E
:1011F000EEE9EAE05CCFE0F0E0ECE5F2F0FB00C203
:10120000FBE2E5E4E5ED0000000000C2E2E5E4E514
:10121000ED000000000000D2E5F1F22031000000F6
:10122000000000D2E5F1F22032000000000000CD05
:10123000E0F1F2F0EEE9EAE05CD0E5E6E8EC00256A
:10124000642E20C8EDF2E5F0F4E5E9F10025642E06
:1012500020CFE0F0EEEBFC0025642E20CFE0F0E0A4
:10126000ECE5F2F0FB0025642E20C2F0E5ECFF2057
:10127000E820E4E0F2E00025642E20D0E5E6E8EC8A
:1012800000CCE5EDFE5CCDE0F1F2F0EEE9EAE00045
:1012900025642E20D1E1F0EEF120E2F1E5F5002504
:1012A000642E20D1E1F0EEF120E8EDE4E8EAE0F68A
:1012B000E8E80025642E20D1E1F0EEF120F3E4E02F
:1012C000EBE5ED2E20330025642E20D1E1F0EEF188
:1012D00020F3E4E0EBE5ED2E20320025642E20D152
:1012E000E1F0EEF120F3E4E0EBE5ED2E2031002516
:1012F000642E20C0CA20E2EAEBFEF7E5ED0025648B
:101300002E20CFF3F1EA20F3E4E0EB2DFBF520CC27
:10131000C0CD0025642E20CFF3F1EA20F3E4E0EB0A
:101320002E20CCC0CD20330025642E20CFF3F1EA4F
:1013300020F3E4E0EB2E20CCC0CD20320025642E3B
:1013400020CFF3F1EA20F3E4E0EB2E20CCC0CD2057
:10135000310025642E20CFF3F1EA20F3E4E0EBE541
:10136000EDEDFBF50025642E20CFF3F1EA20F3E448
:10137000E0EBE5EDED2E20330025642E20CFF3F1D8
:10138000EA20F3E4E0EBE5EDED2E20320025642EBB
:1013900020CFF3F1EA20F3E4E0EBE5EDED2E203190
:1013A0000025642E20D1E1F0EEF120F3E4E0EBE53E
:1013B000EDEDFBF50025642E20C0CA20E1E5E3EB4E
:1013C000FBE90025642E20C0CA20EDEEF0ECE0EB36
:1013D000FCEDFBE90025642E20C0CA20E8F1EFFBFC
:1013E000F2E0EDE8FF0025642E20C0CA20E2FBEA0F
:1013F000EBFEF7E5ED0025642E20C0CA20F3F1EAEC
:10140000EEF0E5EDEDFBE90025642E20C0CA20E0FA
:10141000E2F2EEECE0F2E8F7E5F1EA2E0025642EC8
:1014200020CFF3F1EA20CFD0C40025642E20CFF3E3
:10143000F1EA20C0CA20F3E4E0EBE5EDED2E002553
:10144000642E20CFF3F1EA20C0CA20F1E2EEE900D9
:1014500025642E20D1E1F0EEF120C0CA0025642ED3
:1014600020C0CA20EAEEEDF2F02EEFF0EEE2E5F059
:101470002E0025642E20CFF3F1EA20F3E4E0EBE523
:10148000ED2E20CCC0CD0025642E20C0CA20EFF365
:10149000F1EA0025642E20CFF3F1EA20EDE0EBE045
:1014A000E42E20E2FBEAEB0025642E20CFF3F1EAE4
:1014B00020EDE0EBE0E42E20E2EAEB2E0025642EA6
:1014C00020C2FBE7EEE20025642E20D1E1F0EEF130
:1014D00020F3E4E0EBE5EDEDEEE3EE0025642E20F5
:1014E000D1E1F0EEF120F1E2EEE5E3EE0025642E2D
:1014F00020CFF3F1EA20F3E4E0EBE5EDEDEEE3EEEF
:1015000000CCE5EDFE5CD3EFF0E0E2EBE5EDE8E5E5
:1015100000C7E0EFE8F1FC202575202F202575207D
:101520002825752900C7E0EFE8F1FC202575202F5C
:1015300020257500C6D3D0CDC0CB20CFD3D1D200CB
:10154000D1D7C8D2DBC2C0CDC8C520C7C0CFC8D193
:10155000C800CAEEECE0EDE4E03A2025750000009A
:1015600000000028D6CF290028CED82900C4E0F2F8
:10157000E03A20253032752E253032752E25303256
:101580007500C2F0E5ECFF3A20253032753A25307F
:1015900032753A253032752E2530337500CAEEEC9F
:1015A000E0EDE4E020EFE5F0E5E4E0E5F2F1FF0056
:1015B000CAEEECE0EDE420EDE5F200CEEAEEEDF768
:1015C000E0EDE8E520EAEEECE0EDE4FB00000000F1
:1015D000CDE0F7E0EBEE20EAEEECE0EDE4FB00001E
:1015E0000000000000CEF8E8E1EEF7EDEEE520E7C0
:1015F000EDE0F7E5EDE8E5000000C6F3F0EDE0EB27
:101600005CCFE5F0E5E4E0F2F7E8EA0020202020F6
:1016100020200028CFD0CC32290028CFD0CC3329AD
:101620000020202020202000202020202020002812
:10163000CF322C3329002020202020200020202001
:1016400020202000CAEEECE0EDE4E03A20257520F1
:101650002553002020202020200028CFD0CC312965
:101660000028CFD0CC3329002020202020200020AB
:1016700020202020200028CF312C332900202020BA
:10168000202020002020202020200020202020209A
:10169000200028CFD0CC31290028CFD0CC3229004F
:1016A000202020202020002020202020200028CFC3
:1016B000312C322900202020202020002020202032
:1016C000202000CAEEECE0EDE4E020EFF0E8EDE8E9
:1016D000ECE0E5F2F1FF00C6F3F0EDE0EB5CCFF0FB
:1016E000E8E5ECEDE8EA00D1EEF1F2EEFFEDE8E539
:1016F0003A00CF2564D12564CC256420CFC425646D
:10170000CFCC2564C2DBD5256400C6F3F0EDE0EB59
:101710005CC7E0F9E8F2E000D0E5E6E8EC3A00D199
:10172000EEE1FBF2E8E5202D20256400000000003A
:1017300000000000CDE5E8F1EFF020F7F22FE7E040
:10174000EF20464C4153480000C2D720F2F0E0EAB7
:10175000F220E2EEF1F1F2E0EDEEE2EB2E00CDE56B
:10176000E8F1EFF020F7F22FE7E0EF20CFCBC8D180
:10177000000000C0E2F2EEEAEEEDF2F0EEEBFC006B
:101780000000000000000000D2EEEA20EFEEEAEEDA
:10179000FF000000000000000000000000CDE5E8B0
:1017A000F1EFF020F7F22FE7E0EF203252414D0049
:1017B0000000CDE5E8F1EFF020F0E0E1EEF2FB20F3
:1017C00044535000000000C2EEF1F1F2E0ED2DE5CF
:1017D00020F0E0E1EEF2FB2044535000CDE8E7EAD0
:1017E000EEE520EDE0EFF02E20E2FBF5EEE4E00088
:1017F00000C2FBF1EEEAEEE520EDE0EFF02E20E294
:10180000FBF5EEE4E000CDE0F0F3F8E5ED20EEE1ED
:10181000ECE5ED20F120D3CC000000CDE5E8F1EFC0
:10182000F0E0E2EDEEF1F2FC20F7E0F1EEE2000094
:10183000CDE5F220E1EBEEEAE020C1D1C7000000E7
:101840000000000000CEF8E8E1EAE020E2E5F0F177
:10185000E8E820C1D1C700000000CDE5E8F1EFF0D5
:1018600020EFE5F0E5EAEB2DE5E920C1D1C700CD99
:10187000E5F220F1E8E3EDE0EBE020CCC0CD0000A4
:1018800000000000C2EAEB2EEFE8F22FCFE5F0E512
:10189000E7E0EFF3F1EA000000C8E7ECE5EDE5ED85
:1018A000E8E520F0E5E6E8ECE00000000000CDE52A
:1018B000E8F1EFF020E7E0EF2E20E2FBF52EF6E571
:1018C000EFE800CEF8E8E120EAEEEDF2F02E20E2BB
:1018D000FBF52EF6E5EFE800C0CA202D20D1EDE89B
:1018E000E6E5EDE8E520E7E0EFE0F1E000C0CA2042
:1018F0002D20CDE5F220EEF2E2E5F2E0000000005E
:101900000000CEF2F1F3F22DE520F1E8E3EDE0EB9B
:10191000E020CFF3F1EA00CEF2F1F3F22DE520F171
:10192000E8E3ED20CEF1F2E0EDEEE200C2FBEAEBFF
:10193000FEF7E5EDE8E520E0EFEFE0F0E0F2E000B3
:1019400000CFEEECE5F5E020E220EBE8EDE8E80082
:10195000000000000000CDE5E8F1EFF0E0E2EDEE80
:10196000F1F2FC20C4D4C700000000D3E43A20C048
:10197000CA202D20EDE5F220EEF2E2E5F2E00000D3
:10198000D3E43A20CFEEECE5F5E020E220EBE8ED01
:10199000E8E8000000D3E43A20CDE5E8F1EFF02ECE
:1019A00020C4D4C7000000000000D3E43A20CDE5F5
:1019B000E8F1EFF02E20F6E5EFE820E2FBF500CFAE
:1019C000EEF0EEE320EFEE20EFEEECE5F5E50000C3
:1019D00000000000D1EEE1FBF2E8E5202D202564B7
:1019E000000000000000000000D1EEE1FBF2E8E59D
:1019F000202D202564000000000000000000D1EE32
:101A0000E1FBF2E8E5202D20256400000000000045
:101A1000000000D1EEE1FBF2E8E5202D2025640076
:101A20000000000000000000D1EEE1FBF2E8E5203C
:101A30002D202564000000000000000000D1EEE130
:101A4000FBF2E8E5202D20256400000000000000E6
:101A50000000D1EEE1FBF2E8E5202D20300000008F
:101A600000000000000000C2EAEB2E20EFE8F2E0E8
:101A7000EDE8FF2FEFE5F0E5E7E0EF00C2FBEAEB72
:101A8000FEF7E5EDE8E520EFE8F2E0EDE8FF000025
:101A900000C8E7ECE5EDE5EDE8E520F0E5E6E8EC8B
:101AA000E020F0E0E100C8E7ECE5EDE5EDE8E52059
:101AB000EFE0F0E0ECE5F2F0EEE200CDE5E8F1EF8A
:101AC000F020F2E5F1F2E020CFD0C40000000000E9
:101AD000CDE5E8F1EFF020F2E5F1F2E020CFD0CC57
:101AE0000000000000D1EEE1FBF2E8E5202D2037F8
:101AF00000000000000000000000CDE5E8F1EFF07C
:101B000020E1EBEEEAE020C1D1CA0000000000C8ED
:101B1000E7ECE5EDE5EDE8E520E4E0F2E02FE2F0CA
:101B2000E5ECFF00D1EEE1FBF2E8E5202D203130BD
:101B3000000000000000000000D1EEE1FBF2E8E54B
:101B4000202D203131000000000000000000D1EE07
:101B5000E1FBF2E8E5202D2031320000000000001A
:101B6000000000C0E2E0F0E8FF20EFEE20440000BB
:101B70000000000000000000CFF0E5E4F3EFF0E526
:101B8000E6E4E5EDE8E520EFEE20440000CDE5E8F1
:101B9000F1EFF020F7F2E5EDE8FF20EAEEECE0ED02
:101BA000E400C2EEF1F1F2E0EDEEE2EBE5EDE8E5A6
:101BB00020440000000000CDE5E8F1EFF02E20F019
:101BC000E0E1EEF2FB20445350000000C2EEF1F1E0
:101BD000F2E0ED2DE520F0E0E1EEF2FB2044535081
:101BE00000CDE8E7EAEEE520EDE0EFF02E20E2FBA5
:101BF000F5EEE4E00000C2FBF1EEEAEEE520EDE0F8
:101C0000EFF02E20E2FBF5EEE4E000CDE5F220CA95
:101C1000D7203520F1E5EA20EDE020255300000033
:101C2000CDE5F220CAD720EDE020255300000000CA
:101C30000000000000C2EEF1F1F2E0ED2DE520CA57
:101C4000D720EDE0202553000000C2EEF1F1F22E86
:101C5000F3F02E20CAD720EDE0202553000000CD60
:101C6000E5E8F1EFF020F7F22FE7E0EF2032524104
:101C70004D000000CDE5E8F1EFF020F7F22FE7E0AE
:101C8000EF20CFCBC8D1000000CDE5E8F1EFF02088
:101C9000F7F22FE7E0EF20464C4153480000CDE536
:101CA000E8F1EFF0E0E2EDEEF1F2FC20F7E0F1EE2A
:101CB000E20000D1EDE8E62EF3F02E20CAD720EDA9
:101CC000E020255300000000CEF8E8E1EAE020F033
:101CD000E0E1EEF2FB20D6CF0000000000C2F5EEFE
:101CE000E420525820D6CF20EFF3F1F2000000009C
:101CF0000000D0E0E1EEF2E020D6CF20E2EEF1F1FC
:101D0000F2E0EDEEE2EB00C2FBF1EEEAE0FF20F2E2
:101D1000E5ECEFE5F0E0F2F3F0E00000CDE8E7EA13
:101D2000E0FF20F2E5ECEFE5F0E0F2F3F0E0000098
:101D300000CDEEF0ECE0EB2E20F2E5ECEFE5F0E08C
:101D4000F2F3F0E00000CDE5E8F1EFF02EE4E0F290
:101D5000F7E8EA20F2E5ECEFE5F000C8F1EFF0E09B
:101D6000E22EE4E0F2F7E8EA20F2E5ECEFE5F0003D
:101D7000D1EEE1FBF2E8E5202D2025640000000013
:101D80000000000000C7C0D90000CFD0CC3100CF88
:101D9000D0CC3200CFD0C40000CEC1D90000CF31AA
:101DA0002C3200CED8C10000D1EEE1FBF2E8E520F4
:101DB0002D202564000000000000000000C2EAEBB6
:101DC0002E20EFE8F2E0EDE8FF2FEFE5F0E5E7E0A9
:101DD000EF00C2FBEAEBFEF7E5EDE8E520EFE8F205
:101DE000E0EDE8FF000000C8E7ECE5EDE5EDE8E533
:101DF00020F0E5E6E8ECE020F0E0E100D3E4E0EB01
:101E0000E5EDEDFBE920EDE5E8F1EFF0E0E2E5EDF1
:101E100000CDE5E8F1EFF020F2E5F1F2E020CFD0DF
:101E2000C40000000000CDE5E8F1EFF020F2E5F19C
:101E3000F2E020CFD0CC0000000000CDE5E8F1EFCB
:101E4000F020E1EBEEEAE020C1D1C7000000000085
:101E5000CDE5E8F1EFF020E1EBEEEAE020C1D1CAF8
:101E60000000000000CDE5E8F1EFF020EFE5F0E53F
:101E7000EAEB2DE5E920C1D1C700CDE5F220F1E87C
:101E8000E3EDE0EBE020ECE0EDE8EFF3EB2E00CD4E
:101E9000E5E8F1EFF020E2FBF5EEE4EDEEE920F607
:101EA000E5EFE800CDE5F220D0C7203520F1E5EAE6
:101EB00020EDE0202553000000CEF2F1F3F22DE5F5
:101EC00020F1E8E3EDE0EBE020CFF3F1EA00CEF221
:101ED000F1F3F22DE520F1E8E3EDE0EBE020D1F2C3
:101EE000EEEF00CDE5E8F1EFF020F7F2E5EDE8FFE9
:101EF00020EAEEECE0EDE400D1EDE8E62E20F3F090
:101F00002E20CAD720EDE0202553000000CDE5E8C3
:101F1000F1EFF02E20F0E0E1EEF2FB204453500010
:101F20000000C2EEF1F1F2E0ED2DE520F0E0E1EE8F
:101F3000F2FB2044535000CDE8E7EAEEE520EDE067
:101F4000EFF02E20E2FBF5EEE4E00000C2FBF1EE44
:101F5000EAEEE520EDE0EFF02E20E2FBF5EEE4E026
:101F600000CDE5F220CAD7203520F1E5EA20EDE0EA
:101F7000202553000000CDE5F220CAD720EDE02057
:101F80002553000000000000000000C2EEF1F1F255
:101F9000E0ED2DE520CAD720EDE02025530000001C
:101FA000C2EEF1F1F22E20F3F02ECAD720EDE020A0
:101FB0002553000000CDE5E8F1EFF020F7F22FE720
:101FC000E0EF203252414D000000CDE5E8F1EFF0A6
:101FD00020F7F22FE7E0EF20CFCBC8D1000000CDF3
:101FE000E5E8F1EFF020F7F22FE7E0EF20464C4173
:101FF00053480000CDE5E8F1EFF0E0E2EDEEF1F25C
:10200000FC20F7E0F1EEE20000D1EDE8E62E20F34F
:10201000F02E20D0C720EDE0202553000000C2EEB6
:10202000F1F1F2E0ED2DE520D0C720EDE0202553C1
:10203000000000CDE5F220D0C720EDE020255300C0
:102040000000000000000000C2EEF1F1F22E20F3CB
:10205000F02ED0C720EDE0202553000000D1EEE1A6
:10206000FBF2E8E5202D20256400000000000000C0
:102070000000D1EEE1FBF2E8E5202D202564000010
:1020800000000000000000D1EEE1FBF2E8E5202DA9
:10209000202564000000000000000000D1EEE1FBFC
:1020A000F2E8E5202D20256400000000000000007B
:1020B00000D1EEE1FBF2E8E5202D202564000000D0
:1020C000000000000000D1EEE1FBF2E8E5202D2049
:1020D0002564000000000000000000D1EEE1FBF2EA
:1020E000E8E5202D2025640000000000000000002D
:1020F000CDE5E8F1EFF020F7F22FE7E0EF20464CD6
:102100004153480000CDE5E8F1EFF020F7F22FE76A
:10211000E0EF203252414D000000CDE5E8F1EFF054
:1021200020F7F22FE7E0EF20CFCBC8D1000000CAA4
:10213000EEEBFCF6EE20EDE0F0F3F8E5EDEE00005E
:1021400000000000CDE5E8F1EFF020F2E5F1F2E06B
:1021500020CFD0C40000000000CDE5E8F1EFF02072
:10216000E2FBEAEB2EF2E5F1F220CFD0C400CDE5A0
:10217000E8F1EFF020F2E5F1F2E020CFD0CC000062
:10218000000000CDE5E8F1EFF020F7F22EEAEEECEA
:10219000E0EDE420C1D1CA00CDE5F220E1EBEEEAAA
:1021A000E020C1D1CA0000000000000000CEF8E825
:1021B000E1EAE020E2E5F0F1E8E820C1D1CA000060
:1021C0000000CEF2EAE0E720F0E5E7E5F0E22E20BD
:1021D000EBE8EDE8E80000CDE5E8F1EFF0E0E2ED56
:1021E000EEF1F2FC20F7E0F1EEE20000CAEEEBFCCB
:1021F000F6EE20E2EEF1F1F2E0EDEEE2EBE5EDEEEF
:1022000000C4E8F1F2E0EDF6E8EEEDEDFBE920F1D7
:10221000E1F0EEF10000CAEEECE0EDE4E020EDE5E7
:1022200020E2E5F0EDF3EBE0F1FC00CDE5F220F18A
:10223000E8E3EDE0EBE020CCC0CD000000000000C2
:10224000C2EAEB2EEFE8F22FCFE5F0E5E7E0EFF39F
:10225000F1EA000000C8E7ECE5EDE5EDE8E520F087
:10226000E5E6E8ECE00000000000CDE5E8F1EFF085
:1022700020F6E5EFE820E2FBF52E0000000000C2AA
:10228000EEF1F1F2E0ED2DE520CAD120EDE020CF16
:10229000D0CC0000C2EEF1F1F2E0ED2DE520CAD184
:1022A00020C1D6CA3100000000C2EEF1F1F2E0ED2B
:1022B0002DE520CAD120C1D6CA3200000000CDE5EC
:1022C000F220CAD120C1D6CA3100000000000000AF
:1022D000000000CDE5F220CAD120C1D6CA320000EC
:1022E0000000000000000000C2FBEAEBFEF7E5ED95
:1022F000E8E520EFE8F2E0EDE8FF000000CDE5F2D0
:1023000020CAD10000000000000000000000000012
:102310000000CDE5F220CAD1203520F1E5EAF3ED49
:10232000E4000000000000D3E43A20EFEEF1F220D8
:10233000EDE5E8F1EFF0E0E2E5ED0000D3E43A206E
:10234000CFD0C420EDE5E8F1EFF0E0E2E5ED0000EC
:1023500000D3E43A20CFD0CC20EDE5E8F1EFF0E077
:10236000E2E5ED000000C8E7ECE5EDE5EDE8E5208D
:10237000E4E0F2E02FE2F0E5ECFF00C8E7ECE5ED89
:10238000E5EDE8E520EFE0F0E0ECE5F2F0EEE2006C
:10239000D1EEE1FBF2E8E5202D20256400000000ED
:1023A0000000000000D1EEE1FBF2E8E5202D202541
:1023B00064000000000000000000D1EEE1FBF2E844
:1023C000E5202D202564000000000000000000D161
:1023D000EEE1FBF2E8E5202D20256400000000007E
:1023E00000000000D1EEE1FBF2E8E5202D2025649D
:1023F000000000000000000000D1EEE1FBF2E8E583
:10240000202D202564000000000000000000D1EE17
:10241000E1FBF2E8E5202D2025640000000000002B
:10242000000000CDE5E8F1EFF020F7F22FE7E0EF54
:1024300020464C4153480000CDE5E8F1EFF020F78D
:10244000F22FE7E0EF203252414D000000CDE5E8E9
:10245000F1EFF020F7F22FE7E0EF20CFCBC8D1006B
:102460000000D1EEE1FBF2E8E5202D20256400001C
:1024700000000000000000CDE5E8F1EFF020F2E5FB
:10248000F1F2E020CFD0C40000000000CDE5E8F17B
:10249000EFF020E2FBEAEB2EF2E5F1F220CFD0C420
:1024A00000CDE5E8F1EFF020F2E5F1F2E020CFD049
:1024B000CC0000000000CDE5E8F1EFF020F7F22EAF
:1024C000EAEEECE0EDE420C1D1CA00CDE5F220E176
:1024D000EBEEEAE020C1D1CA0000000000000000DD
:1024E000CEF8E8E1EAE020E2E5F0F1E8E820C1D149
:1024F000CA00000000CEF2EAE0E720F0E5E7E5F0F0
:10250000E22E20EBE8EDE8E80000CDE5E8F1EFF0A1
:10251000E0E2EDEEF1F2FC20F7E0F1EEE20000CDBA
:10252000E5F220E1EBEEEAE020C1D1C700000000B7
:1025300000000000CEF8E8E1EAE020E2E5F0F1E892
:10254000E820C1D1C700000000CDE5E8F1EFF020A0
:10255000EFE5F0E5EAEB2DE5E920C1D1C700CDE5D7
:10256000F220F1E8E3EDE0EBE020CCC0CD0000008C
:10257000000000C2EAEB2EEFE8F22FCFE5F0E5E72E
:10258000E0EFF3F1EA000000C8E7ECE5EDE5EDE887
:10259000E520F0E5E6E8ECE00000000000CDE5E82D
:1025A000F1EFF020F6E5EFE820E2FBF52E00000069
:1025B0000000C2EEF1F1F2E0ED2DE520CAD120EDF0
:1025C000E020CFD0CC0000CEF8E8E1EAE020F0E057
:1025D000E1EEF2FB20D6CF0000000000C2EEF1F1E8
:1025E000F2E0ED2DE520F0E0E1EEF2FB20D6CF00A9
:1025F00000CEF2F1F3F22DE520F1E8E3EDE0EBE0BF
:1026000020CFF3F1EA00CEF2F1F3F22DE520F1E86C
:10261000E3ED20CEF1F2E0EDEEE200C2FBEAEBFEEC
:10262000F7E5EDE8E520EFE8F2E0EDE8FF00000077
:10263000CDE5F220CAD1000000000000000000003B
:102640000000000000CDE5F220CAD1203520F1E5E0
:10265000EAF3EDE4000000000000D3E43A20EFEEDE
:10266000F1F220EDE5E8F1EFF0E0E2E5ED0000D376
:10267000E43A20CFD0C420EDE5E8F1EFF0E0E2E568
:10268000ED000000D3E43A20CFD0CC20EDE5E8F116
:10269000EFF0E0E2E5ED000000C8E7ECE5EDE5ED88
:1026A000E8E520E4E0F2E02FE2F0E5ECFF00C8E727
:1026B000ECE5EDE5EDE8E520EFE0F0E0ECE5F2F04B
:1026C000EEE200D1EEE1FBF2E8E5202D20256400EA
:1026D0000000000000000000D1EEE1FBF2E8E52080
:1026E0002D202564000000000000000000D1EEE174
:1026F000FBF2E8E5202D202564000000000000002A
:102700000000D1EEE1FBF2E8E5202D202564000079
:1027100000000000000000D1EEE1FBF2E8E5202D12
:10272000202564000000000000000000D1EEE1FB65
:10273000F2E8E5202D2025640000000000000000E4
:1027400000C6F3F0EDE0EB5CD1EEE1FBF2E8FF0058
:1027500025642E20CFE5F0E5E4E0F2F7E8EA002575
:10276000642E20CFF0E8E5ECEDE8EA0025642E20A9
:10277000C7E0F9E8F2E00025642E20D1EEE1FBF29B
:10278000E8FF00CCE5EDFE5CC6F3F0EDE0EB00C148
:10279000D1CF20CCCA202000C1D1CF20D6D1CF208C
:1027A00000D6D1CF20CFCBC8D100CFC82020CCCAF3
:1027B000202000C1D1CA20CFD0C43100C1D1CA204D
:1027C000CFD0C43200C1D1CA20CFD0CC3100C1D1CA
:1027D000CA20CFD0CC3200C1D1C720CFCBC8D100C6
:1027E000EEF8E8E1EAE000000025533A2025303217
:1027F000582E2530325800CCE5EDFE5CC8EDF4EEE5
:10280000F0ECE0F6E8FF0025642E20C8E7ECE5F0E8
:10281000E5EDE8FF0025642E20C8EDF4EEF0ECE0D5
:10282000F6E8FF0025642E20D2E5F1F2FB002564D6
:102830002E20CDE0F1F2F0EEE9EAE00025642E2052
:10284000D3EFF0E0E2EBE5EDE8E50025642E20C6ED
:10285000F3F0EDE0EB00CCE5EDFE00C0CA2DEEF8A4
:10286000E8E10000C0CA2DEDEEF0EC0000C0CA2D7A
:10287000EDEEF0EC0000C0CA2DF3F1EAEEF000C07E
:10288000CA2DE2FBEAEB0000C0CA2DE1E5E3EB0054
:1028900000C0CA2DE8F1EFFBF200C0CA2DEFF3F142
:1028A000EA0000C0CA2DEEE4EDEEF100C0CA2DEE44
:1028B000F8E8E10000C0CA2DE0E2F2EE0000C0CA74
:1028C0002DEFF0EEE20000D1EEE2ECE5F1F2E8EC03
:1028D0002E20255300253032643A253032643A25C3
:1028E0003032640020202020C8EDE8F6E8E0EBE874
:1028F000E7E0F6E8FF20202000202020EDE520EE94
:10290000EFF0E5E4E5EBE5ED21212120200020209A
:102910002020D2E8EF20E0EFEFE0F0E0F2E020202E
:10292000202000CFF0E5E4F3EFF0E5E6E4E5EDE8A4
:10293000E500CDE5E8F1EFF0E0E2EDEEF1F2FC00CC
:10294000CDE5F220CAD100CFD0C420CAD125303184
:102950007500CDE5F220CAD100CFD0CC20CAD12558
:1029600030317500CDE5F220CAD100CDE5E8F1EFB8
:10297000F02EF7F22E20464C41534800CDE5E8F109
:10298000EFF02EE7E0EF2E464C41534800CDE5E84E
:10299000F1EFF02EF7F22E20504C495300CDE5E830
:1029A000F1EFF02EE7E0EF2E504C495300CDE5E873
:1029B000F1EFF02EE7E0EF2E3252414D00CDE5E889
:1029C000F1EFF02EF7F22E203252414D2000D3F1DC
:1029D000F2E0EDEEE2E8F2E520F7E0F1FB00CEF206
:1029E000EAE0E720F0E5E7E5F0E22EEBE8ED00CAEB
:1029F000EEEC2EEDE520E2E5F0EDF3EBE0F1FC008E
:102A0000CAEEEBFCF6EE20EDE0F0F3F8E5EDEE00BB
:102A1000CAEEEBFCF6EE203120EDE0F0F3F82E00EC
:102A2000CAEEEBFCF6EE203220EDE0F0F3F82E00DB
:102A3000D3E4E0EB2ECFCED1D220EDE5E8F1EFF0FC
:102A400000D3E4E0EB2ECFD0C420EDE5E8F1EFF0C9
:102A500000D3E4E0EB2ECFD0CC20EDE5E8F1EFF0B1
:102A600000CDE5F220CAD120EDE020C1D6CA310068
:102A7000CDE5F220CAD120EDE020C1D6CA3200CE89
:102A8000F8E8E1EAE020F0E0E1EEF2FB20D6CF004A
:102A9000CDE5F220E1EBEEEAE020C1D1C700CDE5C3
:102AA000E8F1EFF02EE2E5F0F12EC1D1C700CDE55F
:102AB000E8F1EFF02EEFE5F0E5EAEB2E00CDE5F2E0
:102AC00020CAD100CDE5E8F1EFF02EE2F5EEE42EDC
:102AD000CFD3D1CA00CDE5E8F1EFF02EE2F5EEE478
:102AE0002ED1D2CECF00CDE5E8F1EFF02EF6E5EF16
:102AF000FC20C2DBD500CDE5E8F1EFF02EE7E0EFFA
:102B00002E20C2DBD500CDE5F220CAD100CDE5F202
:102B100020F1E8E3EDE0EBE020CCC0CD00CDE5F224
:102B200020E1EBEEEAE020C1D1CA00CDE5E8F1EF0B
:102B3000F02EE2E5F0F12E20C1D1CA00CDE5F22061
:102B4000CAD100CDE5E8F1EFF02EE7E0EF2E20C18D
:102B5000D1CA00CDE5E8F1EFF02EE2FBEAEB2EEA78
:102B6000EEEC2E00CDE5E8F1EFF02EE2EAEB2E20C0
:102B7000EAEEEC2E00CDE5E8F1EFF02EEAEEEDF214
:102B8000F02EEAEEEC00CDE5F220CAD100CDE5F260
:102B900020E1EBEEEAE020C1D1CA00CDE5E8F1EF9B
:102BA000F02EE2E5F0F12E20C1D1CA00CDE5E8F12A
:102BB000EFF02EF7F22EEAEEECE0EDE400CDE5E8E2
:102BC000F1EFF02EE2FBEAEB2ED2E5F1F200CDE5DB
:102BD000E8F1EFF02EE2EAEB2E20D2E5F1F200CDA3
:102BE000E5E8F1EFF02EE2F5EEE42E20EAEEEC005F
:102BF000CDE5F220D0C700CFD0C420CAD7253031D0
:102C00007500CDE5F220CAD700CFD0CC20CAD72599
:102C100030317500CDE5F220CAD700C0CA2DCDE510
:102C2000F220EEF2E2E5F2E000C0CA2DD1EDE8E6D6
:102C3000E5ED2EE7E0EFE0F1E000CFEEECE5F5E0CA
:102C400020E220EBE8EDE8E800CDE5E8F1EFF02E3A
:102C5000445350203252414D2000D2EEEA20EFEE94
:102C6000EAEEFF00CDE8E7EAEEE520EDE0EFF02E3A
:102C7000E2FBF500C2FBF1EEEAEEE520EDE0EFF05D
:102C80002EE2FBF500CDE5E8F1EFF02E20CCCA20D6
:102C9000D3CC00C2D720F2F0E0EAF220E2EEF1F16C
:102CA000F22E00C0CA2DCDE5F220EEF2E2E5F2E010
:102CB000255300CDE5E8F1EFF02EF3E42EC4D4C7A0
:102CC000255300CDE5E8F1EFF02EF3E42EC2DBD57D
:102CD000255300D3E4E0EB2EE1E5E720EEF2E22E0F
:102CE000255300D3E4E0EB2EEEE1ED2EEFEEEC2EDB
:102CF000255300CFEEECE5F5E020E220EBE8EDE82F
:102D0000E800CDE5E8F1EFF02E20C4D4C700C0CA3A
:102D10002DD1ED2EE7E0EFE0F1E020255300CFEEDE
:102D2000F0EEE320EFEE20EFEEECE5F5E500C0E29B
:102D3000F2EEEAEEEDF2F0EEEBFC00CDE5F220F182
:102D4000E8E3EDE0EBE020D0C700D3E4E0EB2E2099
:102D5000EDE5E8F1EFF0E0E2E5ED00CDE8E7EAE8E7
:102D6000E920F3F0EEE22E20D0C700CDE5F220CA34
:102D7000D700D1EDE8E62E20F3F0EEE2EDFF20CF14
:102D8000D0CC00CEF8E8E1EAE020F0E0E1EEF2FBA2
:102D900020D6CF00C2F5EEE420525820D6CF20EF47
:102DA000F3F1F200C2FBF1EEEAE0FF20F2E5ECEF16
:102DB000E5F0E0F200CDE8E7EAE0FF20F2E5ECEF35
:102DC000E5F0E0F200CDE5E8F1EFF02E20E4E0F2EE
:102DD0002EF2E5ECEF00CDE8E7EAE8E920F3F0EECB
:102DE000E2E5EDFC204400CEF8E8E1EAE020F0E086
:102DF000E1EEF2FB20D6CF00C2F5EEE420525820DF
:102E0000D6CF20EFF3F1F200CDE8E7EAE8E920F3CE
:102E1000F0EEE2E5EDFC20440020CDE5F220F1E209
:102E2000FFE7E820F120C1D1CF2121212000C8F106
:102E3000F5EEE4ED2E00CAEEEDF2F0EEEBFC00CF85
:102E4000F3F1EA00CEF1F2E0EDEEE200CDE5E8F1DB
:102E5000EFF02E00CF2EEDE5E8F1EFF000CEE6E842
:102E6000E4E0EDE8E500CDE0EB2EEFF3F1EA00D38E
:102E7000E42EEFF3F1EA00D0E5F7FC00CFD0C40078
:102E8000CFD0CC00D3EFF02E20D2CC00CEF8E8E1AA
:102E9000EAE000C8F1F5EEE4ED2E00CFD0CC20CF73
:102EA000C02530327500CDE5E8F1EFF02E00CF2ED1
:102EB000EDE5E8F1EFF000CEE6E8E4E0EDE8E5006E
:102EC000C1CBCA20CACC25303275003F30783038AB
:102ED0003F003F307830393F00D0E5F7FC00CFD0DD
:102EE000C400CFD0CC00D3EFF02E20D2CC00C8F15C
:102EF000F5EEE4ED2E00CFD0C420CFC025303275E2
:102F000000CDE5E8F1EFF02E00CF2EEDE5E8F1EF92
:102F1000F000CEE6E8E4E0EDE8E5003F3078303759
:102F20003F00CFD0C420D6CF2530327500D1E8F194
:102F3000F2E5EC2E00D0E5F7FC00CFD0C400CFD0F6
:102F4000CC00D3EFF02E20D2CC00CFD0C400CFD015
:102F5000CC00C7C0D900CDC5D200000000000000E1
:102F60000000000000000000000000000000000061
:102F70000001002505010000010001010001000021
:102F800001D1E8EDF5F0EEEDE8E7E0F6E8FF20F737
:102F9000E0F1EEE2000035010100213E01000002F7
:102FA0000001010201000001D1E8EDF5F0EEEDE8CD
:102FB000E7E0F6E8FF20F7E0F1EEE200003501017E
:102FC00000393E010000030001010201000001CDB3
:102FD000EEECE5F020E0EFEFE0F0E0F2E0000000E2
:102FE000000000003B020200250501010003000172
:102FF000010101020001CDEEECE5F020E0EFEFE091
:10300000F0E0F2E0000000000000003B02020025BA
:1030100005010100FF0001010101000001CAEEED00
:10302000F2F0EEEBFC20E2FBF52EF1E8E3EDE0EB55
:10303000E0003D010100213E01000002000101010C
:1030400001000001CFEEF0EEE320EFF0E5E4F3EF56
:10305000F0E5E6E4E5EDE8FF003C020209250501A4
:103060000000160001010301000001CFEEF0EEE3C5
:1030700020EFF0E5E4F3EFF02E20EFEE20CA43005E
:103080003C020209250501000016000101030100B0
:103090000001C2F0E5ECFF20EFE5F0E5E7E0EFF33B
:1030A000F1EAE000000000390202072505010000F6
:1030B000050001010101000001D3E4E5F0E62E2046
:1030C000F0E5EBE520EAEEEC2E20CFD0C40037018E
:1030D0000100213E01000002000101020100000187
:1030E000D3E4E5F0E62E20F0E5EBE520EAEEEC2E69
:1030F00020CFD0CC0036010100213E0100000200AB
:1031000001010101000001C7E0E3F0F3E1EB2E2033
:10311000F7F3E2F1F2E22E20CFD0CC003C0202091C
:103120002505020000160001010302000101D1E59E
:10313000F2E5E2EEE920E0E4F0E5F1000000000055
:10314000000000380202002505010100F70001011E
:10315000010100000055E2FBF520EDEEECE8EDE0AA
:10316000EBFCEDEEE5000000000036020204250550
:10317000011200320001010101000001D7E0F1F26B
:10318000EEF2E0000000000000000000000000007F
:10319000003A02030B2505010000E80301010401C8
:1031A000000001D1EEE2ECE5F1F2E8ECEEF1F2FC28
:1031B000000000000000000037010000820601004E
:1031C00000070001010201000001D1EDE8E6E5ED94
:1031D000E8E520EEF2E2E5F2E020C0CA00000039A6
:1031E000020209250501000014000101030100008D
:1031F00001D2E8EF20E4E5F2E5EAF2EEF0E00000CB
:103200000000000000003502020025050101000356
:103210000001010202000001CAEEF0F0E5EAF6E862
:10322000FF20EDE0EFF0FFE6E5EDE8FF00330304FB
:1032300004250501A8FD580201010701000000CA8C
:10324000EEF0F0E5EAF6E8FF20F2EEEAE00000003A
:10325000000000003304050125050119FCE7030106
:10326000010802000000CFF0EEF2EEEAEEEB20EEF5
:10327000E1ECE5EDE0000000000000390100005D38
:103280003E010100020001010301000001CFF0E84E
:10329000E7EDE0EA20F7E5F2EDEEF1F2E8000000FC
:1032A000000039010000753E010100020001010328
:1032B00002000001C4EEEFF3F1F2E8ECFBE520EFD1
:1032C000F0EEE2E0EBFB0000003902020C25050104
:1032D0000000500002010303000001CFEEF0EEE316
:1032E00020EFEE20EFEEECE5F5E500000000000039
:1032F000390202072505010000FF00010103040057
:103300000001C4EEEFF3F1F2E8ECE0FF20EFEEECA9
:10331000E5F5E0000000003902020C25050114006B
:10332000500014010305000001D2E8EF20E0E2F2B2
:10333000EEEAEEEDF2F0EEEBFF00000000003901E6
:1033400000008D3E010100030001010306000001A1
:10335000CFE5F0E8EEE420E1E5E3EBEEE3EE20C0BC
:10336000CA00000000390202072505010100FF0024
:1033700001010307000001CFE5F0E8EEE420EFEEE5
:10338000E2F22EE1E5E3EB2E20C0CA00390202078B
:103390002505010100FF0001010308000001D0E53F
:1033A000E7E5F0E2E8F0EEE2E0EDE8E5000000003D
:1033B00000000033010100213E0100000200010174
:1033C0000301000001D1EEE2ECE5F1F2E8ECEEF1F0
:1033D000F2FC000000000000000037010000B13ED8
:1033E0000100000D0001010202000001D2E8EF20FF
:1033F000EBE8EDE8E800000000000000000000003D
:1034000000020100004D3F01010002000101010125
:10341000000001D2E5EBE5ECE5F5E0EDE8EAE000DF
:10342000000000000000000037010100213E010003
:1034300000020001010203000001CFEEF0EEE320E4
:10344000EFF0E5E4F3EFF02E20EFEE20440000373C
:10345000020209250501C0FF40000101020400002D
:1034600001CFEEF0EEE320E0E2E0F0E8E820EFEE5E
:1034700020440000000037020209250501C0FF407A
:103480000001010205000001CAEEEDF2F0EEEBFCD6
:1034900020F2E5ECEFE5F0E0F2F3F0FB003701019C
:1034A00000213E010000020001010206000001C2ED
:1034B000E5F0F52EE7EDE0F7E5EDE8E520F2E5ECE7
:1034C000EFE5F0003702020C250501000064000161
:1034D000010207000001CDE8E6ED2EE7EDE0F7E59B
:1034E000EDE8E520F2E5ECEFE5F0003702020C250F
:1034F00005010000640001010208000001D1EAEEAC
:10350000F0EEF1F2FC20D2CC000000000000000040
:10351000000037010000653F0100000200010102C8
:1035200009000001D2E8EF20E7E0F9E8F2FB000033
:10353000000000000000000000010100007D3F01CC
:103540000000080001010101000001C4EEEF2E207F
:10355000E2F0E5ECFF20E1E5E720ECE0ED2E0000F5
:1035600003020208250501000063000101010100BA
:103570000001CFE5F0E5EAF0FBF2E8E520E8ECEF4A
:10358000F3EBFCF1EEE2000502020C250501000060
:10359000360002010101000001CFE5F0E5EAF0FB91
:1035A000F2E8E520E8ECEFF3EBFCF1EEE2000502D7
:1035B000020C250501120036000201010100000184
:1035C000CFE5F0E5EAF0FBF2E8E520E8ECEFF3EB1D
:1035D000FCF1EEE2000502020C25050100003600B8
:1035E00001010101000001CAEEECEFE5EDF1E0F6AA
:1035F000E8FF20E7E0E4E5F0E6EAE8000402020C78
:103600002505020000120002010201000101CAEEBC
:10361000ECEFE5EDF1E0F6E8FF20E7E0E4E5F0E6C9
:10362000EAE8000402020C25050200001200010174
:103630000201000101CFEEF0EEE320EFF0E5E4F34C
:10364000EFF02E20EFEE20D0C70009020209250579
:10365000010000100001010101000001C7E0E3F0DA
:10366000F3E1EBE5EDE8E520F7F3E2F1F2E2E8F271
:1036700000060202092505010000200001010101E8
:10368000000001C7E0E3F0F3E1EB2E20F7F3E2F1F5
:10369000F2E22E20D0C70000060202092505020032
:1036A00000200001010301000101D2E8EF20EFF04A
:1036B000E8E5ECEDE8EAE0000000000000000007AB
:1036C000010000DD3F0100000300010101010000D5
:1036D00001D1EDE8E6E5EDE8E520F3F0EEE2EDFFFF
:1036E00020C0CA00000007010100213E01000002C5
:1036F0000001010101000001D7E0F1F2EEF2E0204B
:10370000CFD0C4000000000000000000000801004D
:10371000000140010000050001010101000001D786
:10372000E0F1F2EEF2E020CFD0CC0000000000008B
:103730000000000009010000014001000005000137
:10374000010101000001D1E4E2E8E320EFE5F02E01
:10375000F4F0EEEDF2E020CFD0C4000502020C251B
:1037600005010000FF0001010201000001D1E4E2B7
:10377000E8E320E7E0E42EF4F0EEEDF2E020CFD035
:10378000C4000502020C2505010000FF0001010232
:1037900002000001D1E4E2E8E320CFD0CC00000039
:1037A0000000000000000000000502020C250501D9
:1037B0000000FF0001010203000001D1E4E2E8E3A0
:1037C00020C2D720CFD0C420EEF220CFD3D1CA0060
:1037D0000502020C2505010000FF000101020400A2
:1037E0000001CEE3F0E0EDE8F72E20EFEEEBEEF196
:1037F000FB20CFD0C400000B010100213E010000DE
:10380000020001010201000001C7E0E4E5F0E6EA80
:10381000E020E2FBEAEB2E20CFD0CC0000000B0230
:10382000020C2505010000FF000101020200000159
:10383000C7E0E4E5F0E6EAE020E2EAEB2E20CFD0B4
:10384000CC000000000B02020C2505010000FF0067
:1038500001010203000001C7E0E4E5F0E6EAE02030
:10386000E2EAEB2E20CFD0C4000000000B02020CD5
:103870002505010000FF0001010204000001CCE861
:10388000ED2E20E4EBE8F22E20CFD0C400000000A3
:103890000000000B02020C2505010000FF000101E1
:1038A0000205000001C7E0E4E5F0E6EAE020F1F0FF
:1038B000E0E1E0F22E20CFD0C4002102020625056F
:1038C000010000140001010101000001C4EBE8F255
:1038D000E5EBFCEDEEF1F2FC20EAEEECE0EDE4FBD2
:1038E00000220202062505011E00640001010101FB
:1038F000000001C4EBE8F2E5EBFCEDEEF1F2FC2098
:10390000EAEEECE0EDE4FB00220202062505011ED2
:1039100000F4010A0A0101000001D2E5F1F2EEE231
:10392000E0FF20EAEEECE0EDE4E00000000000261D
:10393000010100213E01000002000101010100001F
:1039400001D1EBE5E4FFF9E8E520EAEEECE0EDE497
:10395000FB000000000025050100213E20000002C0
:103960000001010501000201C1EBEEEAE8F0EEE220
:103970002E20EAEEECE0EDE4FB000000002405015F
:1039800000213E200000020001010501000201D2D9
:10399000F0E0EDF1EBFFF6E8FF20D6CF00000000ED
:1039A0000000000027010100213E0100000200018B
:1039B000010101000001C1EBEEEAE8F0EEE22E2089
:1039C000EAEEECE0EDE4FB20D6CF00280501002173
:1039D0003E200000020001010501000201CAEEEBD9
:1039E000E8F7E5F1F2E2EE20EAEEECE0EDE40000CB
:1039F00000002C020200250501040020000404013F
:103A000001000001CAEEEBE8F7E5F1F2E2EE20EA90
:103A1000EEECE0EDE420C0000029020200250501E3
:103A20000000200001010101010001CAEEF0F0E5F3
:103A3000EAF6E8FF20F7E0F1F2EEF2FB000000000A
:103A40002302050A2505019CFF6400010101010014
:103A50000001D1EDE8E6E5EDE8E520F3F0EEE2ED7A
:103A6000FF20CAD10000002D020209250501000037
:103A7000140001010301000001D1EDE8E6E5EDE8E5
:103A8000E520F3F0EEE2EDFF20D2CC0000002D02A5
:103A900002092505010000140001010302000001D4
:103AA000CAD120EFEE20F3ECEEEBF7E0EDE8FE00FC
:103AB00000000000002D0100003D40010000020058
:103AC00001010303000001D1E8E3EDE0EBE8E7E0EA
:103AD000F6E8FF20EAEEECE0EDE400002E05010040
:103AE000213E200000020001010501000201C7E0A3
:103AF000E4E5F0E6EAE020EDE020F4E8EAF12EEA81
:103B0000EEEC001102020625050100000A00010189
:103B10000101000001C1EBEEEAE8F0EEE22E20EA3E
:103B2000EEECE0EDE4FB0000000014050100213E96
:103B3000200000020001010501000301C7E0E4E5E7
:103B4000F0E6EAE020EDE020E2FBEAEB2EEAEEEC24
:103B500000130202062505200000E803320A0301D3
:103B6000000301D2F0E0EDF1EBFFF6E8FF20D6CF45
:103B7000000000000000000017010100213E0100CC
:103B800000020001010101000001C1EBEEEAE8F0D2
:103B9000EEE22E20EAEEECE0EDE4FB20D6CF0018BA
:103BA000050100213E200000020001010501000383
:103BB00001CAEEECE0EDE4E020CFD0CC20E220D64C
:103BC000CF0000000000190202002505200100209E
:103BD0000001010301000301CAEEEBE8F7E5F1F291
:103BE000E2EE20EAEEECE0EDE4000000001C020250
:103BF000002505010400200004040101000001CF9C
:103C0000F0E8E5EC20F2E5F1F2EEE2EEE920EAEE92
:103C1000EC2E000012010100213E01000002000113
:103C2000010101000001CAEEF0F0E5EAF6E8FF202C
:103C3000F7E0F1F2EEF2FB000000001502050A25A4
:103C400005019CFF640001010101000001D1E8E3CE
:103C5000EDE0EBE8E7E0F6E8FF20EAEEECE0EDE48B
:103C600000001D050100213E2000000200010105A9
:103C700001000301CFEEE2FBF8E5EDE8E520E1E528
:103C8000E7EEEFE0F12DF2E80016010000213E0121
:103C90000000020001010101000001C8EDF2E5F0A1
:103CA000F4E5E9F120F1E2FFE7E8000000000000A0
:103CB0000001000055400100000200010100010068
:103CC0000000CFF0EEF2EEEAEEEB000000000000A4
:103CD00000000000000000000100006D4001000035
:103CE000030001010001000000D1EAEEF0EEF1F264
:103CF000FC20EFE5F0E5E4E0F7E80000000000015B
:103D000000009140010000060001010001000000D8
:103D1000C1E8F2FB20E4E0EDEDFBF500000000005F
:103D2000000000000000010000D940010000010077
:103D300001010001000000D7E5F2EDEEF1F2FC0018
:103D40000000000000000000000000000001000072
:103D5000E540010000030001010001000000D1F274
:103D6000EEEFEEE2FBE520E1E8F2FB0000000000F0
:103D700000000000010000094101000002000101F3
:103D80000001000000C2F0E5ECFF20EEE6E8E4E010
:103D9000EDE8FF20EAEEEC2E0000370202062505D2
:103DA000010000FF000101020A000001D2F0E0ED75
:103DB000E7E8F2EDFBE520EAEEECE0EDE4FB0000E5
:103DC0000037050100213E60000002000101060BE2
:103DD000000001CFE5F0E5EDE0E7EDE0F7E5EDE827
:103DE000E520CFD0CC0000001B01000021412000C5
:103DF00000610001010301000301CFE5F0E5EDE002
:103E0000E7EDE0F7E5EDE8E520CFD0C40000002BBA
:103E100001000021412000006100010103010003B5
:103E200001E2FBEAEB2E00000000000000E2EAEBFA
:103E30002E0000000000000000E2FBEAEB2E000074
:103E40000000000000EAE0EDE0EB20F1E22E0000CF
:103E500000C0D1D320D2CF000000000000E1FBF170
:103E6000F2F0FBE90000000000ECE5E4EBE5EDED2D
:103E7000FBE9000000E2EAEB2E0000000000000079
:103E800000E2FBEAEB2E00000000000000F2F0E58B
:103E9000E2EEE6EDFBE9000000EDEEF0ECE0EBFC1D
:103EA000EDFBE90000F1EFEEEAEEE9EDFBE90000E1
:103EB00000C0C2C0CDD200000000000000C0C2C0DF
:103EC000CDD220CFD0C4000000C0C2C0CDD220CF00
:103ED000D0CC000000C0CACFC020CFD0C4000000AA
:103EE00000C0CACFC020CFD0CC00000000CAC5C4DB
:103EF000D020CFD0C400000000CAC5C4D020CFD08D
:103F0000CC00000000D3CFCA2DD620CFD0C40000F3
:103F100000D3CFCA2DD620CFD0CC000000C2D7D23C
:103F2000CE20CFD0C400000000C2D7D2CE20CFD048
:103F3000CC00000000C0CDCAC020CFD0C40000001B
:103F400000C0CDCAC020CFD0CC000000003220EA93
:103F5000EEEDF6E5E2E0FF00003320EAEEEDF6E5F7
:103F6000E2E0FF00003230300000000000000000FE
:103F700000343030000000000000000000C4D4C74E
:103F80002DCFF0CFE400000000C4D4C72DCCCA313F
:103F90000000000000C4D4C72DCCCA3200000000CD
:103FA00000C4D4C72D4C36300000000000CDC72D12
:103FB000CFF0CFE40000000000CDC72DCCCA000038
:103FC0000000000000CFCFC72DCFF0CFE4000000ED
:103FD00000CFCFC72DCCCA000000000000E0EAF2FD
:103FE0002BEFE0F1F100000000E0EAF2E8E2EDFB87
:103FF000E900000000EFE0F1F1E8E2EDFBE900008C
:10400000002D31303030C3F600000000002D353077
:1040100030C3F600000000000030C3F600000000CE
:1040200000000000002B353030C3F6000000000017
:10403000002B31303030C3F60000000000CAD1310F
:10404000000000000000000000CAD13200000000A3
:104050000000000000555342000000000000000076
:1040600000525334383500000000000000D1D2C0A7
:10407000CDC4C0D0D2000000004D4F444255530083
:104080000000000000CCDDCA2D31303100000000FE
:1040900000363030000000000000000000313230F7
:1040A000300000000000000000323430300000001A
:1040B0000000000000343830300000000000000034
:1040C0000039363030000000000000000031393285
:1040D0003030000000000000003800000000000048
:1040E0000000000000EDE5F200000000000000000C
:1040F00000F7E5F2000000000000000000EDE5F729
:10410000E5F20000000000000031000000000000A7
:10411000000000000032000000000000000000006D
:1041200000300000000000000000000000314100ED
:10413000000000000000000000324100000000000C
:1041400000000000003341000000000000000000FB
:104150000034410000000000000000000035410074
:1041600000000000000000000036410000000000D8
:1041700000000000003741000000000000000000C7
:10418000003841000000000000000000003941003C
:10419000000000000000000000313041000000007D
:1041A000000000000031314100000000000000006C
:1041B00000313241000000000000000000313341B6
:1041C0000000000000000000003134410000000049
:1041D0000000000000313541000000000000000038
:1041E000003136410000000000000000003137417E
:1041F0000000000000000000003138410000000015
:104200000000000000313941000000000000000003
:104210000032304100000000000000000032314157
:1042200000000000000000000032324100000000E9
:1042300000000000003233410000000000000000D8
:10424000003234410000000000000000003235411F
:1042500000000000000000000032364100000000B5
:1042600000000000003237410000000000000000A4
:1042700000323841000000000000000000323941E7
:10428000000000000000000000333041000000008A
:104290000000000000333141000000000000000079
:1042A00000333241000000000000000000314200F5
:1042B000000000000000000000324200000000008A
:1042C0000000000000334200000000000000000079
:1042D00000344200000000000000000000354200F1
:1042E0000000000000000000003642000000000056
:1042F0000000000000374200000000000000000045
:1043000000384200000000000000000000394200B8
:1043100000000000000000000031304200000000FA
:1043200000000000003131420000000000000000E9
:104330000031324200000000000000000031334232
:1043400000000000000000000031344200000000C6
:1043500000000000003135420000000000000000B5
:1043600000313642000000000000000000313742FA
:104370000000000000000000003138420000000092
:104380000000000000313942000000000000000081
:1043900000323042000000000000000000323142D4
:1043A0000000000000000000003232420000000067
:1043B0000000000000323342000000000000000056
:1043C000003234420000000000000000003235429C
:1043D0000000000000000000003236420000000033
:1043E0000000000000323742000000000000000022
:1043F0000032384200000000000000000032394264
:104400000000000000000000003330420000000007
:1044100000000000003331420000000000000000F6
:104420000033324200000000000000000031430071
:104430000000000000000000003243000000000007
:1044400000000000003343000000000000000000F6
:10445000003443000000000000000000003543006D
:1044600000000000000000000036430000000000D3
:1044700000000000003743000000000000000000C2
:104480000038430000000000000000000039430035
:104490000000000000000000003130430000000078
:1044A0000000000000313143000000000000000067
:1044B00000313243000000000000000000313343AF
:1044C0000000000000000000003134430000000044
:1044D0000000000000313543000000000000000033
:1044E0000031364300000000000000000031374377
:1044F0000000000000000000003138430000000010
:1045000000000000003139430000000000000000FE
:104510000032304300000000000000000032314350
:1045200000000000000000000032324300000000E4
:1045300000000000003233430000000000000000D3
:104540000032344300000000000000000032354318
:1045500000000000000000000032364300000000B0
:10456000000000000032374300000000000000009F
:1045700000323843000000000000000000323943E0
:104580000000000000000000003330430000000085
:104590000000000000333143000000000000000074
:1045A0000033324300000000000000000001080159
:1045B00006030704050101010E0B090101010A01AF
:1045C0000801060307010504010F0C10091112135D
:1045D0000D010801060307010504010F0C0B090D6D
:1045E0000E010101080106030704050101010E0B7C
:1045F000090101010A000000000000004F00000056
:1046000007000700147F147F14242A7F2A12231323
:1046100008646236495522400005030000001C2250
:1046200041000041221C0014083E081408083E08FE
:10463000080050300000080808080800606000000A
:1046400020100804023E5149453E00427F4000428E
:10465000615149462141454B311814127F102745BD
:104660004545393C4A4949300171090503364949F4
:104670004936064949291E003636000000563600E4
:1046800000081422410014141414140041221408C8
:104690000201510906324971413E7E1111117E7F9E
:1046A000494949363E414141227F4141221C7F49CF
:1046B0004949417F090909013E4149493A7F0808B2
:1046C000087F00417F41002040413F017F081422C4
:1046D000417F404040407F020C027F7F0408107FF2
:1046E0003E4141413E7F090909063E4151215E7F1D
:1046F00009192946464949493101017F01013F40D5
:1047000040403F1F2040201F3F4070403F6314083F
:10471000146307087008076151494543007F414110
:104720000002040810200041417F0004020102043D
:104730004040404040000102040020545454787F1F
:10474000484444383844444420384444487F38542A
:10475000545418087E0901020C5252523E7F08043C
:10476000047800447D40002040443D007F102844F0
:104770000000417F40007C041804787C0804047821
:1047800038444444387C14141408081414187C7CED
:10479000080404084854545420043F4440203C403A
:1047A00040207C1C2040201C3C4030403C442810D1
:1047B00028440C5050503C4464544C44000836414A
:1047C0000000007F000000413608000201020201E3
:1047D00014141414140E0A0E000024242F24247F11
:1047E0007F7F7F7F7F7F7F7F7F7F7F7F7F7F7F7FD9
:1047F0007F7F7F7F7F7F7F7F7F7F7F7F7F7F7F7FC9
:104800007F7F7F7F7F7F7F7F7F7F7F7F7F7F7F7FB8
:104810007F7F7F7F7F7F7F7F7F7F7F7F7F7F7F7FA8
:104820007F7F7F7F7F7E1111117E7F494949337FD2
:10483000494949367F01010103E0514F41FF7F495A
:1048400049494177087F087741494949367F10082F
:10485000047F7C2112097C7F0814224120413F0102
:104860007F7F020C027F7F0808087F3E4141413E66
:104870007F0101017F7F090909063E414141220173
:10488000017F010147281008071C227F221C6314A6
:104890000814637F404040FF070808087F7F407F7F
:1048A000407F7F407F40FF017F4848307F48300095
:1048B0007F007F484830224149493E7F083E413EC3
:1048C000462919097F20545454783C4A4A49317C7E
:1048D000545428007C0404040CE0544C44FC385428
:1048E0005454186C107C106C44445454287C201090
:1048F000087C7C4122117C7C1028440020443C042C
:104900007C7C0810087C7C1010107C3844444438AF
:104910007C0404047C7C14141408384444442004AB
:10492000047C04040C5050503C3048FC483044286F
:104930001028447C404040FC0C1010107C7C407CD3
:10494000407C7C407C40FC047C5050207C505020BB
:104950007C7C5050200028445454387C1038443813
:10496000085434147C0020B411241FBECFEFD0E1D2
:10497000DEBFCDBF80B58B7F80BD9FEF9ABB1BBADA
:1049800017BA98BB80EE84BB8FE185BB80E381BB07
:104990008FEC82BB80EC82B993B98EE0809361008A
:1049A00081EF80936200109264009093650082B161
:1049B000806C82B917BE8BE083BF88E181BF87B767
:1049C000826087BF1FBC8CE08EBD10927A001DBC38
:1049D0001CBC80E792E09BBD8ABD87B7806187BF22
:1049E0002CE088E190E00FB6F894A89581BD0FBE49
:1049F00021BD11E0A0E0B1E0E8EDF6E701E00BBF7A
:104A000002C007900D92AC35B107D9F71CE0ACE5B8
:104A1000B1E001C01D92AC33B107E1F719E4C8E67B
:104A2000D9E404C02297FE010E9423B8C636D107FC
:104A3000C9F70E9479B60C946ABB0C940000FC0183
:104A4000662311F1208581852430C1F02630B1F034
:104A50002930A1F02B3091F0223049F490E083709E
:104A60009070892B11F08CE10AC08DE108C02150B3
:104A70002C3010F48FE103C080E001C08EE1861776
:104A800018F0678381E0089580E2878380E00895CD
:104A9000FC01CB0120E005C080FD05C02F5F96958D
:104AA00087950097C9F7E05AFF4F21937183608380
:104AB000E156F04080E004C060FD8F5F7695679519
:104AC00061157105C9F7ED59FF4F808381E00895A5
:104AD000FC01CB0120E005C080FD05C02F5F96954D
:104AE00087950097C9F7EC59FF4F21937183608335
:104AF000E556F04080E004C060FD8F5F76956795D5
:104B000061157105C9F7E959FF4F808381E0089568
:104B1000FC018589833019F491E086E208C0823077
:104B200091F0813081F0882361F09FEF80E0691778
:104B300028F0861718F0678B81E00895878B80E056
:104B400008958EE0F6CF82E0F4CF0F931F93CF93BA
:104B5000DF938C01EB01FC01B196A0E050E089915C
:104B6000808341E020E030E0682F70E0842F90E007
:104B700086239723892B09F0AF5F440F2F5F3F4FA8
:104B80002830310599F75F5F3196543041F7F801CD
:104B9000A1A781E0DF91CF911F910F910895FC01B2
:104BA000262F30E0C90154E0969587955A95E1F794
:104BB0008170828FC90145E0969587954A95E1F706
:104BC0008170838FC901B6E096958795BA95E1F714
:104BD0008170848FC90181709070858F369527957B
:104BE000822F8170868F369527952170278F60A33D
:104BF00081E00895FC0120E0CB018070907C892B3E
:104C000009F021E027A77F7385A596A5861797074A
:104C100010F480E00895222331F094A783A771ABAC
:104C200060AB81E0089574A763A711AA10AA81E080
:104C30000895662379F020E031E070E02F5F832F44
:104C400090E086239723892B11F0822F0895330F4C
:104C50002830A1F780E00895EF92FF920F931F9301
:104C6000CF93DF93EC01FB01808180FF02C082E0E3
:104C70002CC081FF02C083E028C07B010894E11CA6
:104C8000F11CCE016181D5DF882311F08E5E1DC03D
:104C900087010F5F1F4FCE01F7016181CADF8823B3
:104CA00011F0865E12C078010894E11CF11CCE015F
:104CB000F8016181BEDF882311F08E5D06C0CE0150
:104CC000F7016181B6DF8111865DDF91CF911F9180
:104CD0000F91FF90EF9008951F93FB0110811F70BB
:104CE00061816F7049F0A5DF12FF02C0865F24C0AA
:104CF00013FF21C0825F20C01123E9F0E12FF0E013
:104D0000CF0186709070069711F488E015C0CF012E
:104D10008A7090700A9711F489E00EC0CF018570F7
:104D20009070059711F486E007C0E970F07039972C
:104D300011F487E001C080E01F910895FC01673005
:104D400010F084E00895633021F0623011F061309A
:104D500041F4EE57FF4F8081E258F040823009F471
:104D600065E0E158FF4F8081861711F481E00895D6
:104D7000608382E00895FC018285868380E0089547
:104D8000FF920F931F93CF93DF93EC016230C1F535
:104D9000AC81BD81EA81FB818481882349F0833025
:104DA00038F4A756BF4F8C93A959B04021E002C0F8
:104DB00083E020E0A756BF4F8C934C815D81EA8150
:104DC000FB819481892F8150823010F094E00AC0D9
:104DD000FA01EF5EFD4F8081891711F491E002C066
:104DE000908392E0EC81FD81EF5EFD4F80818F5FCB
:104DF000BB96808391FF3BC2EC81FD81108237C25C
:104E00006A30D1F5AC81BD81EA81FB819481892F23
:104E10008150893010F0FF2405C0A656BF4F9C93E7
:104E2000FF24F3940C811D81EA81FB8165817681E9
:104E30008781908528EE33E040E050E00E94FFB784
:104E4000C901DA0181362AEE920720E0A20720E0AC
:104E5000B20710F080E006C005561F4FF80191839D
:104E6000808381E090E02F2D30E0822B932B20E097
:104E7000892B09F4FCC10BC1613CA1F4EA81FB81DF
:104E800064817581EC81FD81E155FD4F8081EF5A90
:104E9000F240882309F0EAC1CF0186569D4FAADE71
:104EA000282FE5C1623C09F0E1C1EC81FD81E155AB
:104EB000FD4F8081EF5AF240882309F0D7C1442387
:104EC00009F0D4C18181AA81BB81853009F0E1C09C
:104ED00016968C91282F30E074E0359527957A95B9
:104EE000E1F7A90163E0440F551F6A95E1F7220F2E
:104EF000331F420F531F8F70840FED55FD4F8436C3
:104F000010F4808301C01082AC81BD81EA81FB81F5
:104F10004781842F90E004E0959587950A95E1F705
:104F20009C0113E0220F331F1A95E1F7880F991F98
:104F3000280F391F4F70420F842F8150AE55BD4F3F
:104F40008C3010F44C9302C08DE08C93EA81FB818D
:104F500060858C819D81262F30E0E4E03595279592
:104F6000EA95E1F7A90173E0440F551F7A95E1F73F
:104F7000220F331F420F531F6F70640F86569D4FD1
:104F80005EDDAC81BD81EA81FB814185842F90E0AB
:104F900014E0959587951A95E1F79C01F3E0220FAF
:104FA000331FFA95E1F7880F991F280F391F4F70AB
:104FB000420FA156BD4F483110F44C9302C089E115
:104FC0008C93AC81BD81EA81FB814285842F90E086
:104FD00074E0959587957A95E1F79C0163E0220F3F
:104FE000331F6A95E1F7880F991F280F391F4F70FB
:104FF000420FA256BD4F4C3310F44C9302C08DE3C8
:105000008C93AC81BD81EA81FB814385842F90E044
:1050100024E0959587952A95E1F79C0103E0220FFE
:10502000331F0A95E1F7880F991F280F391F4F701A
:10503000420FA356BD4F4C3310F44C9302C08DE386
:105040008C93EA81FB81948580E02585820F911DF8
:10505000EC81FD81E556FD4F23E0883E920710F07C
:1050600088EE93E091838083EA81FB818C819D812E
:1050700065816F7024812295207F620F86569D4F37
:105080008EDDEC81FD81EF52FD4F81E0808321E0D8
:10509000EEC053968C91282F30E0A4E035952795EB
:1050A000AA95E1F7A90173E0440F551F7A95E1F73E
:1050B000220F331F420F531F8F70840FED55FD4F8A
:1050C000843610F4808301C01082AC81BD81EA81F6
:1050D000FB814289842F90E024E0959587952A955D
:1050E000E1F79C0103E0220F331F0A95E1F7880FD7
:1050F000991F280F391F4F70420F842F8150AE55D2
:10510000BD4F8C3010F44C9302C08DE08C93EA813B
:10511000FB8161898C819D81262F30E0A4E035954B
:105120002795AA95E1F7A901F3E0440F551FFA95D9
:10513000E1F7220F331F420F531F6F70640F865623
:105140009D4F7DDCAC81BD81EA81FB814785842F49
:1051500090E074E0959587957A95E1F79C0163E07E
:10516000220F331F6A95E1F7880F991F280F391F07
:105170004F70420FA156BD4F483110F44C9302C0FE
:1051800089E18C93AC81BD81EA81FB814685842FC6
:1051900090E004E0959587950A95E1F79C0113E06E
:1051A000220F331F1A95E1F7880F991F280F391F17
:1051B0004F70420FA256BD4F4C3310F44C9302C0B7
:1051C0008DE38C93AC81BD81EA81FB814585842F81
:1051D00090E0E4E095958795EA95E1F79C0173E00E
:1051E000220F331F7A95E1F7880F991F280F391F77
:1051F0004F70420FA356BD4F4C3310F44C9302C076
:105200008DE38C93EA81FB81948580E02385820F76
:10521000911DEC81FD81E556FD4F23E0883E92070C
:1052200010F088EE93E091838083AC81BD81EA81A8
:10523000FB818481A055BD4F863008F086E08C93B9
:10524000EA81FB818C819D8167816F702581229528
:10525000207F620F86569D4FA2DC8C819D81EA8162
:10526000FB8186569D4F668153DC0BCF20E0822F59
:10527000DF91CF911F910F91FF900895CF93DF930E
:10528000EC01613DD9F1623D09F44BC06C3109F08C
:105290002EC2AC81BD8111968C911197833011F093
:1052A00090E026C0EA81FB819481990F990F913299
:1052B00010F024E001C020E0FD01E15FFE4F80819D
:1052C000891719F4922F91600BC09083FD01E25F62
:1052D000FE4F1082992311F081E08083922F92601B
:1052E000EC81FD81E15FFE4F8081E55DFE4F8083B3
:1052F00091FFFDC1EC81FD811082F9C1EA81FB8142
:1053000064817581EC81FD81E155FD4F8081EF5A0B
:10531000F240813009F0EBC1CF0186569D4F6ADC27
:10532000E7C1EC81FD81E155FD4F8081EF5AF240EC
:10533000813009F0DCC1442309F0D9C18181AA81FF
:10534000BB81853009F0D6C018968C91282F30E0AB
:1053500094E0359527959A95E1F7A901B3E0440FBC
:10536000551FBA95E1F7220F331F420F531F8F705D
:10537000840FED55FD4F843610F4808301C01082F8
:10538000AC81BD81EA81FB814185842F90E074E08E
:10539000959587957A95E1F79C0163E0220F331F7D
:1053A0006A95E1F7880F991F280F391F4F70420F38
:1053B000842F8150AE55BD4F8C3010F44C9302C0F9
:1053C0008DE08C93EA81FB8162858C819D81262F03
:1053D00030E0A4E035952795AA95E1F7A901F3E01F
:1053E000440F551FFA95E1F7220F331F420F531F49
:1053F0006F70640F86569D4F22DBAC81BD81EA81C0
:10540000FB814385842F90E074E0959587957A958C
:10541000E1F79C0163E0220F331F6A95E1F7880FE3
:10542000991F280F391F4F70420FA156BD4F4831A9
:1054300010F44C9302C089E18C93AC81BD81EA8168
:10544000FB814485842F90E024E0959587952A95EB
:10545000E1F79C01F3E0220F331FFA95E1F7880F83
:10546000991F280F391F4F70420FA256BD4F4C3362
:1054700010F44C9302C08DE38C93AC81BD81EA8122
:10548000FB814585842F90E074E0959587957A950A
:10549000E1F79C0163E0220F331F6A95E1F7880F63
:1054A000991F280F391F4F70420FA356BD4F4C3321
:1054B00010F44C9302C08DE38C93EA81FB819685B6
:1054C00080E02785820F911DEC81FD81E556FD4F1F
:1054D00023E0883E920710F088EE93E0918380836A
:1054E0008C819D816A817B816C5F7F4F86569D4F49
:1054F0002CDBF6C053968C91282F30E094E0359544
:1055000027959A95E1F7A901B3E0440F551FBA9585
:10551000E1F7220F331F420F531F8F70840FED5599
:10552000FD4F843610F4808301C01082AC81BD81B0
:10553000EA81FB814289842F90E074E095958795FC
:105540007A95E1F79C0163E0220F331F6A95E1F73A
:10555000880F991F280F391F4F70420F842F8150D9
:10556000AE55BD4F8C3010F44C9302C08DE08C933F
:10557000EA81FB8161898C819D81262F30E0F4E0F6
:1055800035952795FA95E1F7A901E3E0440F551FFA
:10559000EA95E1F7220F331F420F531F6F70640F1C
:1055A00086569D4F4CDAAC81BD81EA81FB814785EF
:1055B000842F90E024E0959587952A95E1F79C014A
:1055C000F3E0220F331FFA95E1F7880F991F280F98
:1055D000391F4F70420FA156BD4F483110F44C9304
:1055E00002C089E18C93AC81BD81EA81FB81468553
:1055F000842F90E074E0959587957A95E1F79C016A
:1056000063E0220F331F6A95E1F7880F991F280F77
:10561000391F4F70420FA256BD4F4C3310F44C93BC
:1056200002C08DE38C93AC81BD81EA81FB8145850D
:10563000842F90E024E0959587952A95E1F79C01C9
:10564000F3E0220F331FFA95E1F7880F991F280F17
:10565000391F4F70420FA356BD4F4C3310F44C937B
:1056600002C08DE38C93EA81FB81948580E02385E1
:10567000820F911DEC81FD81E556FD4F23E0883EB0
:10568000920710F088EE93E091838083AC81BD8116
:10569000EA81FB818481A055BD4F863008F086E009
:1056A0008C932C813D81EA81FB819581892F8150EA
:1056B000803228F4F901E253FD4F908311828C81EE
:1056C0009D81EA81FB8186569D4F668121DAAC81FE
:1056D000BD81AE54BD4FEA81FB81878187708C9379
:1056E000EC81FD81EF52FD4F81E0808301C080E0BD
:1056F000DF91CF910895CF92DF92EF92FF920F93B7
:105700001F93CF93DF93EC01613EE1F1623E09F418
:105710004CC06C3209F065C2AC81BD8111968C9190
:105720001197833011F090E027C0EA81FB819481CA
:10573000990F990F913218F024E090E001C020E019
:10574000FD01EA57FE4F8081891719F4922F91606D
:105750000BC09083FD01EB57FE4F1082992311F08F
:1057600081E08083922F9260EC81FD81EA57FE4FA9
:105770008081EB54FF4F808391FF33C2EC81FD8128
:1057800010822FC2EA81FB8164817581EC81FD81E9
:10579000E155FD4F8081EF5AF240823009F021C27D
:1057A000CF0186569D4F26DA1DC2EC81FD81E15561
:1057B000FD4F8081EF5AF240823009F012C244233B
:1057C00009F00FC28181AA81BB81853009F008C12F
:1057D00018968C91282F30E074E0359527957A95AE
:1057E000E1F7A90163E0440F551F6A95E1F7220F25
:1057F000331F420F531F8F70840FED55FD4F8436BA
:1058000010F4808301C01082AC81BD81EA81FB81EC
:105810004185842F90E004E0959587950A95E1F7FE
:105820009C0113E0220F331F1A95E1F7880F991F8F
:10583000280F391F4F70420F842F8150AE55BD4F36
:105840008C3010F44C9302C08DE08C93EA81FB8184
:1058500062858C819D81262F30E0E4E03595279587
:10586000EA95E1F7A90173E0440F551F7A95E1F736
:10587000220F331F420F531F6F70640F86569D4FC8
:10588000DED8AC81BD81EA81FB814385842F90E025
:1058900014E0959587951A95E1F79C01F3E0220FA6
:1058A000331FFA95E1F7880F991F280F391F4F70A2
:1058B000420FA156BD4F483110F44C9302C089E10C
:1058C0008C93AC81BD81EA81FB814485842F90E07B
:1058D00074E0959587957A95E1F79C0163E0220F36
:1058E000331F6A95E1F7880F991F280F391F4F70F2
:1058F000420FA256BD4F4C3310F44C9302C08DE3BF
:105900008C93AC81BD81EA81FB814585842F90E039
:1059100024E0959587952A95E1F79C0103E0220FF5
:10592000331F0A95E1F7880F991F280F391F4F7011
:10593000420FA356BD4F4C3310F44C9302C08DE37D
:105940008C93EA81FB81968580E02785820F911DEB
:10595000EC81FD81E556FD4F23E0883E920710F073
:1059600088EE93E0918380838C819D816A817B8125
:105970006C5F7F4F86569D4FE8D8EA81FB8183811B
:10598000803108F427C1CC80DD80A60141545D4FF1
:1059900070E0B4E0EB2EF12CEE0EFF1E8089DA01F0
:1059A0008C9361E020E030E0082F10E0862F90E03B
:1059B00080239123892B09F07F5F660F2F5F3F4F74
:1059C0002830310599F731964F5F5F4FEE15FF058F
:1059D00029F7E4ECF2E0CE0EDF1ED6017C93FAC08C
:1059E00053968C91282F30E0A4E035952795AA9501
:1059F000E1F7A90173E0440F551F7A95E1F7220FF3
:105A0000331F420F531F8F70840FED55FD4F8436A7
:105A100010F4808301C01082AC81BD81EA81FB81DA
:105A20004289842F90E024E0959587952A95E1F7A7
:105A30009C0103E0220F331F0A95E1F7880F991F9D
:105A4000280F391F4F70420F842F8150AE55BD4F24
:105A50008C3010F44C9302C08DE08C93EA81FB8172
:105A600061898C819D81262F30E0F4E03595279562
:105A7000FA95E1F7A901E3E0440F551FEA95E1F734
:105A8000220F331F420F531F6F70640F86569D4FB6
:105A90000E941F25AC81BD81EA81FB814785842F4F
:105AA00090E064E0959587956A95E1F79C0153E055
:105AB000220F331F5A95E1F7880F991F280F391FBE
:105AC0004F70420FA156BD4F483110F44C9302C0A5
:105AD00089E18C93AC81BD81EA81FB814685842F6D
