:100000000C94ED010C940C020C940C020C940C0258
:100010000C940C020C940C020C940C020C940C0228
:100020000C940C020C940C020C940C020C940C0218
:100030000C9470060C940C020C940C020C943B066D
:100040000C940C020C940C020C940C020C940C02F8
:100050000C940C020C940C020C940C020C940C02E8
:100060000C940C020C940C020C940C020C940C02D8
:100070000C940C020C940C020C940C020C94F005E1
:100080000C94FF050C940C020C940C020000000070
:100090000000004F00000007000700147F147F14C9
:1000A000242A7F2A1223130864623649552240000D
:1000B00005030000001C2241000041221C0014081E
:1000C0003E081408083E08080050300000080808E0
:1000D0000808006060000020100804023E514945F5
:1000E0003E00427F400042615149462141454B312B
:1000F0001814127F1027454545393C4A49493001BB
:10010000710905033649494936064949291E003611
:100110003600000056360000081422410014141462
:100120001414004122140802015109063249714198
:100130003E7E1111117E7F494949363E414141229F
:100140007F4141221C7F494949417F090909013EFC
:100150004149493A7F0808087F00417F410020401B
:10016000413F017F081422417F404040407F020C04
:10017000027F7F0408107F3E4141413E7F0909090B
:10018000063E4151215E7F091929464649494931B8
:1001900001017F01013F4040403F1F2040201F3FA1
:1001A0004070403F631408146307087008076151EA
:1001B000494543007F4141000204081020004141AD
:1001C0007F0004020102044040404040000102045C
:1001D0000020545454787F484444383844444420E0
:1001E000384444487F3854545418087E0901020C9E
:1001F0005252523E7F0804047800447D4000204063
:10020000443D007F1028440000417F40007C0418DA
:1002100004787C0804047838444444387C1414146A
:1002200008081414187C7C0804040848545454200A
:10023000043F4440203C4040207C1C2040201C3C8B
:100240004030403C44281028440C5050503C4464FA
:10025000544C44000836410000007F000000413645
:100260000800020102020114141414147E11111169
:100270007E7F494949337F494949367F010101035E
:10028000E0514F41FF7F4949494177087F08774155
:10029000494949367F1008047F7C2112097C7F0878
:1002A00014224120413F017F7F020C027F7F08081A
:1002B000087F3E4141413E7F0101017F7F090909DD
:1002C000063E4141412201017F01014728100807F4
:1002D0001C227F221C63140814637F404040FF07E8
:1002E0000808087F7F407F407F7F407F40FF017F7D
:1002F0004848307F4830007F007F484830224149DD
:10030000493E7F083E413E462919097F20545454F6
:10031000783C4A4A49317C545428007C0404040C3B
:10032000E0544C44FC38545454186C107C106C4409
:10033000445454287C2010087C7C4122117C7C1081
:1003400028440020443C047C7C0810087C7C10106D
:10035000107C38444444387C0404047C7C14141419
:1003600008384444442004047C04040C5050503C9D
:100370003048FC483044281028447C404040FC0C65
:100380001010107C7C407C407C7C407C40FC047CD9
:100390005050207C5050207C7C50502000284454E9
:1003A00054387C10384438085434147C553D257535
:1003B0002E2575C200493D2575ECC000252E3275ED
:1003C0002E252E32752E252E327500252E32753AA9
:1003D000252E32753A252E32750011241FBECFEF1F
:1003E000D0E1DEBFCDBF11E0A0E0B1E0E6EBF3E18C
:1003F00000E00BBF02C007900D92A436B107D9F7F9
:1004000016E0A4E6B1E001C01D92AB31B107E1F7FF
:100410000E941B060C94D9090C9400008091640181
:1004200010926401089590B39095907C97FD02C05E
:1004300080E001C080E896FF02C0816023C09091F7
:1004400063009095937041F090FF02C084601AC0E1
:1004500091FF18C0886016C093B390959F7191F07A
:1004600090FF02C089600EC091FF02C085600AC083
:1004700092FF02C0866006C093FF02C0826002C085
:1004800094FD836090916501891731F08093650137
:1004900083E08093000109C090910001992339F015
:1004A000882341F091509093000180E003C094E6CE
:1004B0009093000190916401992311F48093640159
:1004C0000895E2E6F0E080818D7F80831ABA85B3DB
:1004D000806C85BB80818460808300000000E2E640
:1004E000F0E08081886080830000000089B3E2E64C
:1004F000F0E09081977F908395E19A95F1F7000065
:1005000095B39F7395BB9081986090839FEF9ABB42
:100510008095881F8827881F089595B3962B95BBD3
:10052000E2E6F0E090819D7F908390819B7F9083B5
:10053000000000008BBBE2E6F0E0808188608083F1
:1005400000000000E2E6F0E08081877F808385E0A4
:100550008A95F1F7000085B36095682365BB08951F
:10056000E7E6F1E0119285E0E736F807D9F708955C
:1005700095B3962B95BBE2E6F0E090819260908374
:1005800090819B7F9083000000008BBBE2E6F0E04F
:1005900080818860808300000000E2E6F0E08081D6
:1005A000877F80838AE08A95F1F700C085B36095E4
:1005B000682365BB089520916A0530916B05F901A8
:1005C000E959FE4F80832F5F3F4F30936B05209397
:1005D0006A05089590E0019770E07695762F66277A
:1005E00077956795860F971F90936B0580936A05A3
:1005F0000895AD9907C0AD9A8FE39CE90197F1F793
:1006000000C0000080E060E00E94EA029AE09A9553
:10061000F1F700C080EC60EC0E948D028AE08A95C0
:10062000F1F700C08FE360EC0E948D029AE19A9589
:10063000F1F700C0089581E08093670508958091E7
:100640006601813029F482B390E2892782BB1CC005
:1006500080910101909102010097A9F022B330E24C
:10066000232722BB20910301222321F02150209334
:1006700003010AC023E6209303010197909302012E
:100680008093010101C0959880916705882309F442
:1006900052C080916905882391F48091680588543F
:1006A00060EC0E948D028AE18A95F1F700C080E437
:1006B00060EC0E948D028AE18A95F1F700C080917A
:1006C0006905E0916805803440F5F0E0F695FE2F6D
:1006D000EE27F795E795E80FF11DE959FE4F808168
:1006E00060E80E94B80280916905E0916805F0E039
:1006F000F695FE2FEE27F795E795E959FE4FE80F9F
:10070000F11DE05CFF4F808160E40E94B80280919F
:1007100069058F5F809369050895E73030F4EF5FD6
:10072000E09368051092690508951092680510928B
:100730006905109267050895EF92FF920F931F933A
:10074000CF93DF93A82FB92FFF2420E030E075E18D
:10075000E72EED918F2D6E2D0E947F06992331F4A7
:10076000E901C959DE4F18822F5F3F4FE03240F058
:10077000E7FD02C0E05205C0E03C10F0E05601C0C9
:10078000E0E0890109591E4F40E050E0F0E0EF0140
:10079000CC0FDD1FCC0FDD1FCE0FDF1FFA01EC0FDA
:1007A000FD1FE457FF4F8491F80181938F014F5F44
:1007B0005F4F4530510591F7F901E459FE4F108222
:1007C0002A5F3F4F992331F4F901E959FE4F108216
:1007D0002F5F3F4FF4E020303F0710F020E030E083
:1007E000F3948F2D883A09F0B4CFDF91CF911F9108
:1007F0000F91FF90EF900895823039F484EF91E0EB
:1008000090930201809301010895809366010895F9
:100810000895EF92FF920F931F93DF93CF930F9260
:10082000CDB7DEB7482F8DB79EB708970FB6F894AF
:100830009EBF0FBE8DBFEDB7FEB731960DE615E03A
:10084000ADB7BEB712961C930E93119786E1E82EB2
:10085000F12CF382E28284E091E0958384832FE39C
:1008600038E03783268349830E94AD060F900F90AE
:10087000EDB7FEB731960B5E1F4FADB7BEB7129600
:100880001C930E931197F382E2822AE131E03583C3
:1008900024830E94AD06EDB7FEB736960FB6F894E6
:1008A000FEBF0FBEEDBF4981443011F0463019F450
:1008B00081E080936C050F90CF91DF911F910F9194
:1008C000FF90EF900895CF92DF92EF92FF920F93F7
:1008D0001F93DF93CF930F92CDB7DEB7282F8DB73D
:1008E0009EB70A970FB6F8949EBF0FBE8DBFEDB7A7
:1008F000FEB7319607E915E0ADB7BEB712961C9367
:100900000E9311973AE0C32ED12CD382C2828CEA87
:1009100093E09583848389E190E09783868391E0D7
:10092000E92EF12CF186E08629830E94EB060F90D8
:100930000F90EDB7FEB73196C8010B96ADB7BEB7B5
:1009400012969C938E931197D382C28285EB93E08B
:10095000958384838FE891E0978386830E94EB06DA
:1009600000D000D0EDB7FEB73196C8014596ADB7BF
:10097000BEB712969C938E931197D382C2828CEB52
:1009800093E095838483F782E68285E090E0918707
:1009900080878CE090E0938782870E94EB06EDB71A
:1009A000FEB73196005E1F4FADB7BEB712961C93CF
:1009B0000E931197D382C2828BEC93E0958384834C
:1009C00083E190E0978386838FE090E09187808732
:1009D00086E390E0938782870E94EB06EDB7FEB72F
:1009E0003C960FB6F894FEBF0FBEEDBF29812430B0
:1009F00011F0263011F410926C050F90CF91DF9119
:100A00001F910F91FF90EF90DF90CF900895FF928C
:100A10000F931F93CF93DF9380911806882321F0C3
:100A200081508093180605C081E3809318060E94C8
:100A3000F902EDE6F5E080E2819396E0E631F90710
:100A4000D9F70E940E02F82E882331F0803809F47D
:100A5000FF2482E00E94FC03E0916C05F0E0EE0FC1
:100A6000FF1FE35AFE4F0190F081E02D8F2D099575
:100A7000FF2071F080911606F81629F0F092160604
:100A80001092170605C0809117068F5F8093170696
:100A90003091980020919900ADB7BEB71A970FB664
:100AA000F894BEBF0FBEADBFEDB7FEB731960BEEEB
:100AB00015E012961C930E931197C6E1D0E0D383F4
:100AC000C28385E391E095838483368317822087F0
:100AD00011860E94AD06EDB7FEB731960B5E1F4F33
:100AE000ADB7BEB712961C930E931197D383C283F2
:100AF00026E431E035832483F6821782809117063D
:100B0000808711860E94AD068DB79EB70A960FB6F4
:100B1000F8949EBF0FBE8DBF0E94B0028DE695E097
:100B20000E949C030E941B03DF91CF911F910F91A4
:100B3000FF90089580B58B7F80BD8FEF8ABB1BBA75
:100B400017BA88BB90EE94BB9FE195BB98E391BB2D
:100B50009CEC92BB12B89CEF93B99EE0909361001D
:100B600091EF90936200109264008093650082B1CF
:100B7000806C82B917BE9CE093BF88E181BF87B7C4
:100B8000826087BF1FBC9EBD10927A001DBC1CBC3A
:100B900089E698E19BBD8ABD87B7806187BF0895CC
:100BA00080939C0008959C0140E050E084E0220F77
:100BB000331F441F551F8A95D1F760E074E284EF1C
:100BC00090E00E948B0621503040109298002093B4
:100BD00099008EE080939D0088E480939A000895A8
:100BE0001F920F920FB60F9211248F9385E5809379
:100BF0009C008F910F900FBE0F901F9018951F9221
:100C00000F920FB60F920BB60F9211248F93EF93A2
:100C1000FF93EAE9F0E080818F7D808380818068A6
:100C20008083FF91EF918F910F900BBE0F900FBEBD
:100C30000F901F9018950E949A0578940E94F902CF
:100C40000E94B00280E09BE40E94D30510E006E41D
:100C5000809119068823E1F3812F0E94D00500932B
:100C60009C00113021F40E94070510E001C011E042
:100C700010921906EDCF1F920F920FB60F920BB67E
:100C80000F9211242F933F934F935F936F937F9312
:100C90008F939F93AF93BF93EF93FF9380911A0627
:100CA000882321F0815080931A0605C083E6809343
:100CB0001A060E9413020E941F03FF91EF91BF9139
:100CC000AF919F918F917F916F915F914F913F91E4
:100CD0002F910F900BBE0F900FBE0F901F90189585
:100CE0001F920F920FB60F9211248F9381E0809381
:100CF00019068F910F900FBE0F901F901895991B9A
:100D000079E004C0991F961708F0961B881F7A9502
:100D1000C9F780950895A1E21A2EAA1BBB1BFD01FD
:100D20000DC0AA1FBB1FEE1FFF1FA217B307E407CA
:100D3000F50720F0A21BB30BE40BF50B661F771F22
:100D4000881F991F1A9469F7609570958095909502
:100D50009B01AC01BD01CF0108950F931F93DF9359
:100D6000CF93CDB7DEB72E970FB6F894DEBF0FBE88
:100D7000CDBF0D891E898F89988D26E02C831A831B
:100D8000098397FF02C080E090E801979E838D83DE
:100D90009E01255E3F4FCE010196698D7A8DA90196
:100DA0000E9429074D815E8157FD0AC02F81388539
:100DB000421753070CF49A01020F131FF801108217
:100DC0002E960FB6F894DEBF0FBECDBFCF91DF9148
:100DD0001F910F9108950F931F93DF93CF93CDB77A
:100DE000DEB72E970FB6F894DEBF0FBECDBF0D89CC
:100DF0001E898F89988D2EE02C831A83098397FF93
:100E000002C080E090E801979E838D839E01255E5D
:100E10003F4FCE010196698D7A8DA9010E94290765
:100E20004D815E8157FD0AC02F81388542175307D7
:100E30000CF49A01020F131FF80110822E960FB6C0
:100E4000F894DEBF0FBECDBFCF91DF911F910F9100
:100E500008952F923F924F925F926F927F928F925E
:100E60009F92AF92BF92CF92DF92EF92FF920F9339
:100E70001F93DF93CF93CDB7DEB72C970FB6F894BF
:100E8000DEBF0FBECDBF6C011B018A01FC011782C2
:100E90001682838181FFD1C12E010894411C511C0F
:100EA000F6019381F10193FD859193FF81911F01DB
:100EB000882309F4BEC1853239F493FD859193FFEF
:100EC00081911F01853229F490E0B6010E944F09FB
:100ED000E7CFEE24FF2420E02032B0F48B3269F01B
:100EE0008C3228F4803251F0833271F40BC08D3291
:100EF00039F0803349F421602CC02260246029C07D
:100F0000286027C0206125C027FD2CC0382F305312
:100F10003A3098F426FF08C08E2D880FE82EEE0C8C
:100F2000EE0CE80EE30E15C08F2D880FF82EFF0C87
:100F3000FF0CF80EF30E20620CC08E3221F426FD59
:100F400078C1206406C08C3611F4206802C088364F
:100F500049F4F10193FD859193FF81911F0188234D
:100F600009F0BACF982F9554933018F090529330DF
:100F700028F40C5F1F4FFFE3F9830DC0833631F077
:100F8000833771F0833509F060C022C0F801808199
:100F900089830E5F1F4F420171E0A72EB12C16C04E
:100FA00062E0662E712C600E711EF80180809180C7
:100FB00026FF03C06E2D70E002C06FEF7FEFC4010B
:100FC0002C870E9444095C0183012C852F7717C070
:100FD00052E0652E712C600E711EF80180809180A8
:100FE00026FF03C06E2D70E002C06FEF7FEFC401DB
:100FF0002C870E9439095C012C852068830123FD20
:1010000020C008C080E290E0B6012C870E944F0902
:10101000FA942C858F2D90E0A816B90698F311C08C
:10102000F40127FD859127FF81914F0190E0B601E2
:101030002C870E944F092C85F110FA940894A1087E
:10104000B108A114B10461F7F1C0843611F08936FA
:1010500049F527FF08C0F801608171818281938181
:101060000C5F1F4F09C0F80160817181882777FDEF
:101070008095982F0E5F1F4F4FE6B42EB22297FF38
:1010800009C090958095709561957F4F8F4F9F4FC8
:10109000F0E8BF2AA2012AE030E00E947B09782E06
:1010A000741845C0853731F43FEEB32EB2222AE0E2
:1010B00030E025C099EFB92EB2228F36C1F08037CB
:1010C00020F4883509F0B5C00DC0803721F088378D
:1010D00009F0AFC002C020E1B22AB4FE0BC084E028
:1010E000B82A08C0B4FE09C0E6E0BE2A06C028E05F
:1010F00030E005C020E130E002C020E132E0B7FE80
:1011000008C0F80160817181828193810C5F1F4F5B
:1011100007C0F8016081718180E090E00E5F1F4F91
:10112000A2010E947B09782E7418FFE7BF22B6FE49
:101130000BC02EEFB2227E1438F4B4FE07C0B2FC0E
:1011400005C08FEEB82202C0A72C01C0AE2C8B2D9B
:1011500090E0B4FE0DC0FE01E70DF11D20812033AB
:1011600019F4E9EEBE2209C0A394B2FE06C004C081
:1011700086789070009709F0A3948B2C9924B3FC87
:1011800014C0B0FE0FC0AF1428F4E72CEF0CEA181F
:10119000AF2C08C0E72C06C080E290E0B6010E94A8
:1011A0004F09A394AF14C0F304C0AF1410F4FA189D
:1011B00001C0FF2484FE0FC080E390E0B6010E94CE
:1011C0004F0982FE1FC081FE03C088E590E010C079
:1011D00088E790E00DC0C40186789070009791F088
:1011E00081FC02C080E201C08BE2B7FC8DE290E09E
:1011F000B6010E944F0906C080E390E0B6010E944C
:101200004F09EA947E14C0F37A94F201E70DF11DC0
:10121000808190E0B6010E944F097720A9F706C0AF
:1012200080E290E0B6010E944F09FA94FF20C1F7D6
:1012300037CEF6012681378102C02FEF3FEFC9017B
:101240002C960FB6F894DEBF0FBECDBFCF91DF91C5
:101250001F910F91FF90EF90DF90CF90BF90AF90D4
:101260009F908F907F906F905F904F903F902F90C6
:101270000895FC010590615070400110D8F78095E9
:1012800090958E0F9F1F0895FC0161507040019052
:101290000110D8F7809590958E0F9F1F08950F939A
:1012A0001F93CF93DF938C01EB018B8181FF1BC0D8
:1012B00082FF0DC02E813F818C819D8128173907C7
:1012C00064F4E881F9810193F983E88306C0E88535
:1012D000F985802F0995009731F48E819F810196C1
:1012E0009F838E8302C00FEF1FEFC801DF91CF9164
:1012F0001F910F910895FA01AA27283051F120314A
:1013000081F1E8946F936E7F6E5F7F4F8F4F9F4F99
:10131000AF4FB1E03ED0B4E03CD0670F781F891FDB
:101320009A1FA11D680F791F8A1F911DA11D6A0FA9
:10133000711D811D911DA11D20D009F468943F915C
:101340002AE0269F11243019305D3193DEF6CF015B
:101350000895462F4770405D4193B3E00FD0C9F721
:10136000F6CF462F4F70405D4A3318F0495D31FD8E
:101370004052419302D0A9F7EACFB4E0A6959795E1
:10138000879577956795BA95C9F7009761057105B7
:1013900008959B01AC010A2E069457954795379501
:1013A0002795BA95C9F7620F731F841F951FA01D5B
:0613B0000895F894FFCF40
:1013B60003F40163CCE0ECE02C20ECFBEBE020F046
:1013C600E0ECF321203D20256400C020F0EEE7E0AC
:1013D60020F3EFE0EBE020EDE020EBE0EFF320E0A0
:1013E600E7EEF0E0005542525231203D20253032E2
:1013F600582530325800CAEDEEEFEAE020253032AB
:101406005820CDE0E6E0F2E8E9202564000904630F
:0414160004080400C2
:00000001FF
