:100000000C9471050C94DB050C94DB050C94DB055A
:100010000C94DB050C94DB050C94DB050C94DB05E0
:100020000C94DB050C94DB050C94DB050C94DB05D0
:100030000C94D2350C94DB050C94DB050C9408363B
:100040000C94DB050C94DB050C9455350C94F534BD
:100050000C942C350C94DB050C94DB050C94DB051F
:100060000C94DB050C94DB050C94DB050C94DB0590
:100070000C94DB050C94DB050C94AB340C944B34E2
:100080000C9482340C94DB050C94DB05000000001A
:100090000000004F00000007000700147F147F14C9
:1000A000242A7F2A1223130864623649552240000D
:1000B00005030000001C2241000041221C0014081E
:1000C0003E081408083E08080050300000080808E0
:1000D0000808006060000020100804023E514945F5
:1000E0003E00427F400042615149462141454B312B
:1000F0001814127F1027454545393C4A49493001BB
:10010000710905033649494936064949291E003611
:100110003600000056360000081422410014141462
:100120001414004122140802015109063249714198
:100130003E7E1111117E7F494949363E414141229F
:100140007F4141221C7F494949417F090909013EFC
:100150004149493A7F0808087F00417F410020401B
:10016000413F017F081422417F404040407F020C04
:10017000027F7F0408107F3E4141413E7F0909090B
:10018000063E4151215E7F091929464649494931B8
:1001900001017F01013F4040403F1F2040201F3FA1
:1001A0004070403F631408146307087008076151EA
:1001B000494543007F4141000204081020004141AD
:1001C0007F0004020102044040404040000102045C
:1001D0000020545454787F484444383844444420E0
:1001E000384444487F3854545418087E0901020C9E
:1001F0005252523E7F0804047800447D4000204063
:10020000443D007F1028440000417F40007C0418DA
:1002100004787C0804047838444444387C1414146A
:1002200008081414187C7C0804040848545454200A
:10023000043F4440203C4040207C1C2040201C3C8B
:100240004030403C44281028440C5050503C4464FA
:10025000544C44000836410000007F000000413645
:100260000800020102020114141414140E0A0E00F4
:10027000007F7F7F7F7F7F7F7F7F7F7F7F7F7F7F0D
:100280007F7F7F7F7F7F7F7F7F7F7F7F7F7F7F7F7E
:100290007F7F7F7F7F7F7F7F7F7F7F7F7F7F7F7F6E
:1002A0007F7F7F7F7F7F7F7F7F7F7F7F7F7F7F7F5E
:1002B0007F7F7F7F7F7F7F7F7F7F7F7F7E11111199
:1002C0007E7F494949337F494949367F010101030E
:1002D000E0514F41FF7F4949494177087F08774105
:1002E000494949367F1008047F7C2112097C7F0828
:1002F00014224120413F017F7F020C027F7F0808CA
:10030000087F3E4141413E7F0101017F7F0909098C
:10031000063E4141412201017F01014728100807A3
:100320001C227F221C63140814637F404040FF0797
:100330000808087F7F407F407F7F407F40FF017F2C
:100340004848307F4830007F007F4848302241498C
:10035000493E7F083E413E462919097F20545454A6
:10036000783C4A4A49317C545428007C0404040CEB
:10037000E0544C44FC38545454186C107C106C44B9
:10038000445454287C2010087C7C4122117C7C1031
:1003900028440020443C047C7C0810087C7C10101D
:1003A000107C38444444387C0404047C7C141414C9
:1003B00008384444442004047C04040C5050503C4D
:1003C0003048FC483044281028447C404040FC0C15
:1003D0001010107C7C407C407C7C407C40FC047C89
:1003E0005050207C5050207C7C5050200028445499
:1003F00054387C10384438085434147CC2FBE2E58D
:10040000E4E5ED00C3EEF2EEE2000000C2E2E5E456
:10041000E5ED0000D0E5F7FC00000000D2E5F1F2C8
:1004200000000000D2E5F1F200000000EEF8E8E183
:10043000EAE00000CDE5E8F1EFF02E2025632D2560
:1004400030345800CFF0E5E4F3EFF02E2025632D93
:100450002530345800253032752E253032752E2542
:1004600030327500253032753A253032753A2530F4
:1004700032750055E73D25303264E4C10055E7315F
:100480003D25303264E4C10055E7323D2530326409
:10049000E4C10055EA3D25303264E4C10055EA313B
:1004A0003D25303264E4C10055EA323D25303264E6
:1004B000E4C100553D253032752E25303175C2001E
:1004C000493D25303375ECC000523D25303375CEA3
:1004D000EC0055F83D25303264E4C10055F8313D5B
:1004E00025303264E4C10055F8323D25303264E4F1
:1004F000C10053E43D25303275B000CDEEE2FBE99A
:1005000020EFE0F0EEEBFC3A202530347500CFE030
:10051000F0EEEBFC3A20253034750020202020201E
:100520002020C2E2E5E4E5ED20202020202020006C
:1005300020202020EDE5EFF0E0E2E8EBFCEDFBE928
:10054000202020200020202020202020EFE0F0EE9E
:10055000EBFC202020202020200020C8E7ECE5ED47
:10056000E8F2FC20EFE0F0E0ECE5F2F020200020E3
:1005700020ECEEE6EDEE20F2EEEBFCEAEE20E220DF
:10058000202020002020F0E5E6E8ECE520C2DBC2D8
:10059000C5C4C5CD2020202000C2E2EEE43A2025CB
:1005A0003031752E2530317500C2E2EEE43A202557
:1005B00030317500C2E2EEE43A20255300CFE0F07E
:1005C000E0ECE5F2F03A257520C2F1E5E3EE3A25DC
:1005D0007500C4E8E0EFE0E7EEED3A2000F1EFE867
:1005E000F1EEEA00C7EDE0F7E5EDE8E53A20005569
:1005F0005342000000000000000052533438350020
:100600000000000000EEF8E8E1EAE0000000000071
:100610003132303000000000000000323430300051
:1006200000000000000034383030000000000000FE
:10063000003936303000000000000000313932301F
:10064000300000000000003338343030000000007B
:1006500000003537363030000000000000EEF8E8CA
:10066000E1EAE000000000003800000000000000A7
:10067000000000EEF8E8E1EAE00000000000EDE52F
:10068000F20000000000000000F7E5F200000000AA
:1006900000000000EDE5F7E5F2000000000000EECC
:1006A000F8E8E1EAE000000000003100000000008E
:1006B0000000000000320000000000000000000008
:1006C0000000000000000000000000D1F2EEEFEE9C
:1006D000E2FBE520E1E8F2FB00D7E5F2EDEEF1F216
:1006E000FC00C1E8F2FB20E4E0EDEDFBF500D1EA0F
:1006F000EEF0EEF1F2FC20EFE5F0E5E4E0F7E800E3
:10070000CFF0EEF2EEEAEEEB00C8EDF2E5F0F4E544
:10071000E9F120F1E2FFE7E800CDE0F1F2F0EEE9E7
:10072000EAE05CC8EDF2E5F0F4E5E9F10025642EBD
:1007300020D1E5EAF3EDE4FB0025642E20CCE8EDC2
:10074000F3F2FB0025642E20D7E0F1FB0025642E98
:1007500020C4E5EDFC0025642E20CCE5F1FFF60079
:1007600025642E20C3EEE400CDE0F1F2F0EEE9EADC
:10077000E05CC2F0E5ECFF26E4E0F2E00025642E48
:100780002E2564257300CCE8EDE8EC2E20EDE0EF9B
:10079000F0FFE6E5EDE8E500CCE8EDE8ECE0EBFCA9
:1007A000EDFBE920F2EEEA00CCE0EAF1E8ECE0EB68
:1007B000FCEDFBE920F2EEEA00CAEEECEFE5EDF12C
:1007C000E0F6E8FF20E7E0E4E5F0E6EAE800CFE065
:1007D000F0E0ECE5F2F0FB5CCEE1F9E8E500256441
:1007E0002E20CEE1F9E8E500CDE0F1F2F0EEE9EA05
:1007F000E05CCFE0F0E0ECE5F2F0FB00C2FBE2E50C
:10080000E4E5ED00000000C2E2E5E4E5ED000000F3
:100810000000CDE0F1F2F0EEE9EAE05CD0E5E6E8D8
:10082000EC0025642E20C8EDF2E5F0F4E5E9F100D6
:1008300025642E20CFE0F0EEEBFC0025642E20CFC7
:10084000E0F0E0ECE5F2F0FB0025642E20C2F0E5DC
:10085000ECFF20E820E4E0F2E00025642E20D0E563
:10086000E6E8EC00CCE5EDFE5CCDE0F1F2F0EEE97F
:10087000EAE00025642E20D1E1F0EEF120F1E2EE75
:10088000E5E3EE00CCE5EDFE5CD3EFF0E0E2EBE576
:10089000EDE8E500C6D3D0CDC0CB20CFD3D1D20078
:1008A000D1D7C8D2DBC2C0CDC8C520C7C0CFC8D140
:1008B000C800C6F3F0EDE0EB5CD1EEE1FBF2E8FF3F
:1008C0000025642E20D1EEE1FBF2E8FF00CCE5ED3F
:1008D000FE5CC6F3F0EDE0EB00C1D1CF204D4355F7
:1008E0002000C1D1CF204453502000CFC820204D3C
:1008F00043552000C1D1CA20CFD0C43100C1D1CAD4
:1009000020CFD0C43200C1D1CA20CFD0CC3100C159
:10091000D1CA20CFD0CC3200EEF8E8E1EAE0000006
:100920000025533A20253032582E2530325800CC3D
:10093000E5EDFE5CC8EDF4EEF0ECE0F6E8FF002536
:10094000642E20C8EDF4EEF0ECE0F6E8FF0025643C
:100950002E20CDE0F1F2F0EEE9EAE00025642E2051
:10096000D3EFF0E0E2EBE5EDE8E50025642E20C6EC
:10097000F3F0EDE0EB00CCE5EDFE0020202020C8F8
:10098000EDE8F6E8E0EBE8E7E0F6E8FF20202000FD
:10099000202020EDE520EEEFF0E5E4E5EBE5ED21AC
:1009A000212120200020202020D2E8EF20E0EFEFBE
:1009B000E0F0E0F2E02020202000CDE5E8F1EFF0CB
:1009C0002EF7F22E20464C41534800CDE5E8F1EFDA
:1009D000F02EE7E0EF2E464C41534800CDE5E8F11C
:1009E000EFF02EF7F22E20504C495300CDE5E8F100
:1009F000EFF02EE7E0EF2E504C495300CDE5E8F143
:100A0000EFF02EE7E0EF2E3252414D00CDE5E8F158
:100A1000EFF02E445350203252414D2000CDE5E8F6
:100A2000F1EFF02EF7F22E203252414D2000CDE8AA
:100A3000E7EAEEE520EDE0EFF02EE2FBF500C2FB89
:100A4000F1EEEAEEE520EDE0EFF02EE2FBF500D36B
:100A5000F1F2E0EDEEE2E8F2E520F7E0F1FB002054
:100A6000CDE5F220F1E2FFE7E820F120C1D1CF216E
:100A700021212000C8F1F5EEE4ED2E00CAEEEDF2E2
:100A8000F0EEEBFC00CFF3F1EA00CEF1F2E0EDEE98
:100A9000E200CDE5E8F1EFF02E00CF2EEDE5E8F134
:100AA000EFF000CEE6E8E4E0EDE8E500CDE0EB2E87
:100AB000EFF3F1EA00D3E42EEFF3F1EA00CDE5F233
:100AC00020D0C700D0E5F7FC00CFD0C400CFD0CCF9
:100AD00000CEF8E8E1EAE000D2D0C700CDC5D200F0
:100AE0009C3511241FBECFEFD0E1DEBFCDBF80B556
:100AF0008B7F80BD9FEF9ABB1BBA17BA98BB80EE65
:100B000084BB8FE185BB88E381BB8CEC82BB80EC2E
:100B100082B98CEF83B98EE08093610081EF80937E
:100B20006200109264009093650082B1806C82B97B
:100B300017BE8BE083BF88E181BF87B7826087BF24
:100B40001FBC8CE08EBD10927A001DBC1CBC80E7DF
:100B500092E09BBD8ABD87B7806187BF2CE088E1AA
:100B600090E00FB6F894A89581BD0FBE21BD11E0AD
:100B7000A0E0B1E0E4E7F6E700E00BBF02C00790B9
:100B80000D92A234B107D9F718E0A2E4B1E001C098
:100B90001D92AC35B107E1F71AE0C2EEDAE004C00D
:100BA0002297FE010E94E137C03ED107C9F70E949B
:100BB00085360C94383B0C940000E0914B018E2F4D
:100BC0008150893020F08058893048F4E757EE236F
:100BD00031F0E150F0E0EF5FFE4F808101C080E036
:100BE00010924B01089580914A0165E00E949D3763
:100BF000089580B38095807C87FF02C090E801C093
:100C000090E086FF02C0976023C0809163008095CA
:100C1000837041F080FF02C094601AC081FF18C049
:100C2000926016C083B380958F7191F080FF02C0EF
:100C300093600EC081FF02C095600AC082FF02C0AF
:100C4000966006C083FF02C0986002C084FD996070
:100C500080914C01981741F090934C0183E0809370
:100C6000000110924A0109C080910001882339F0E7
:100C7000992379F081508093000190E00AC084E6C6
:100C80008093000180914A018A3018F48F5F80932D
:100C90004A0180914B01882311F490934B010895F0
:100CA000809162008D7F809362001ABA85B3806C58
:100CB00085BB809162008460809362000000000028
:100CC000809162008860809362000000000089B318
:100CD00090916200977F9093620095E19A95F1F769
:100CE00095B39F7395BB909162009860909362005A
:100CF0009FEF9ABB8095881F8827881F089595B31A
:100D0000962B95BBE2E6F0E090819D7F90839081E9
:100D10009B7F908300000000E2E6F0E09081986005
:100D200090838BBB00000000E2E6F0E08081877FCB
:100D3000808385E08A95F1F785B36095862385BB2E
:100D40000895EDE4F1E0119285E0ED34F807D9F76C
:100D5000089595B3962B95BBE2E6F0E09081926002
:100D6000908390819B7F9083000000008BBBE2E624
:100D7000F0E080818860808300000000E2E6F0E01F
:100D80008081877F80838AE08A95F1F785B36095BB
:100D9000862385BB08952091510530915205F901B4
:100DA000E35BFE4F80832F5F3F4F309352052093CC
:100DB000510508951F93AD9905C0AD9A80E49CE953
:100DC0000197F1F78FEF9FEF9093520580935105B4
:100DD0001AE0812F8A95F1F784EC60EC0E947F067F
:100DE0001A95F1F78FE360EC0E947F068AE18A95FD
:100DF000F1F71F91089590E0019770E07695762FB6
:100E0000662777956795860F971F90935205809375
:100E10005105089581E080934E0508950F931F9327
:100E2000CF93DF9380914E05882309F442C000914F
:100E30005005002389F480914F05885460EC0E948E
:100E40007F061AE1812F8A95F1F780E460EC0E9419
:100E50007F061A95F1F702C00034D8F480914F054F
:100E6000C82FD0E0D695DC2FCC27D795C795C35B8C
:100E7000DE4FC00FD11D888160E80E94A906C05CCA
:100E8000DF4F888160E40E94A9060F5F0093500540
:100E900010C080914F05873030F48F5F80934F05ED
:100EA0001092500506C010924F05109250051092F6
:100EB0004E05DF91CF911F910F910895823039F443
:100EC00088EE93E09093140180931301089580932A
:100ED0004D05089580914D05813029F482B390E24B
:100EE000892782BB089520911301309114012115A7
:100EF0003105B1F082B390E2892782BB8091150160
:100F0000882321F0815080931501089587EC809308
:100F1000150121503040309314012093130108959E
:100F200095980895982F873010F080E00895A0E5F7
:100F3000B1E08AE58D9321E0AA3CB207D9F7139678
:100F4000EAE4F2E08FEF8C9312968C9312978083F1
:100F50008283A058BF4FE058FF4F25E0AD34B20761
:100F600091F78093CC0180934D0188E18093CB0170
:100F700080934E018BED8093CA0180934F01892F9E
:100F800090E001969695982F882797958795FC0174
:100F9000E05BFE4F4AE59C0126533E4F4193E2172A
:100FA000F307E1F7FC01E35BFE4FE258FF4F88E1F6
:100FB0008083EE57F0408183E358FF4F8BED8083B1
:100FC000ED57F040828381E00895CF93DF93DC01F9
:100FD000603240F067FD02C0605205C0603B10F017
:100FE000605501C060E0ED01C35BDE4F20E030E002
:100FF00085E0689FB0011124F901E60FF71FE4575F
:10100000FF4FE491E9932F5F3F4F25303105A1F762
:10101000A35BBE4F15961C92DF91CF910895AF92BE
:10102000BF92CF92DF92EF92FF920F931F93CF93D5
:10103000DF93E82E492F683010F080E046C0A62EDE
:10104000BB2484E190E0A89E6001A99ED00CB89ECC
:10105000D00C11242E2D342FC9018C01C4E8D0E00E
:101060000FC0CE01F80160810E94E5078F2D64E179
:101070000E949D37933109F428960F5F1F4F2696E3
:10108000F02EFE188F2D90E08C159D0554F3E50190
:10109000D695DC2FCC27D795C795CC5FDE4FFC2C9F
:1010A00010C0CE01F80160810E94E5078F2D64E138
:1010B0000E949D37933109F428960F5F1F4FF394D8
:1010C0002696F7E7FF1568F781E0DF91CF911F9132
:1010D0000F91FF90EF90DF90CF90BF90AF90089569
:1010E000FC01662309F46681442309F447816430D6
:1010F000C9F06630B9F06930A9F06B3099F0623010
:1011000051F4842F90E083709070892B11F08CE162
:1011100008958DE1089561506C3010F48FE10895C9
:1011200080E008958EE10895FC01168617821786E7
:10113000108610821182118612820895FC01862F7A
:1011400081508630B8F48150823038F481E090E0EC
:10115000908B878781E0818B0CC0862F85508230F1
:1011600040F417821682138612868FE097E29187E9
:101170008087628B08951F93FC0151874087738796
:10118000628710E007C01F5FCA016AE070E00E943A
:10119000A937AB0141155105B1F714871F91089587
:1011A000FC012785308986819781B9010E94A93782
:1011B0004189629FC001639F900D729F900D112421
:1011C000642F70E00E94A937862F08950F931F9314
:1011D000CF93DF93FC01462F9289913011F0943028
:1011E000C1F527853089442319F1C085D185CE0109
:1011F000B9010E94A9376A30710550F0C901880F02
:10120000991F53E0220F331F5A95E1F7280F391F1A
:10121000423070F0CE01B9010E94A9376A307105E1
:1012200038F0C901880F991F880F991F280F391F9F
:101230006681778180859185821B930B861797073E
:1012400018F0620F731F02C062857385778366830F
:1012500039C0892F8250823078F426813781828587
:1012600093858217930718F4C901019702C08085FE
:1012700091859783868326C09550923018F5068114
:10128000178127853089B901660F771FE90183E04F
:10129000CC0FDD1F8A95E1F76C0F7D1FC8010E94FE
:1012A000A937B9010E94A9376930710539F4C20F15
:1012B000D31F0C1B1D0B1783068304C0200F311F87
:1012C0003783268386819781DF91CF911F910F917C
:1012D0000895CF93DF93EC0180E197E29A838983AD
:1012E00080ED98E19C838B831D861E861F86188A5D
:1012F000198A1A8A1C8A1B8A1E8A1D8A188E1F8ABE
:101300001A8E198EC958DF4F8CED9AE09983888325
:101310002D9681E088832B97199219921992199230
:10132000199219921992199286E089938DE0899306
:10133000188260968FEF8993899389938883C65921
:10134000D040FE01EB57FF4F80E0119211928F5F6A
:101350008730D9F7C956DF4F199284E089931992E3
:10136000199281E08883CB59D040CE0184569F4F9B
:101370000E949408C654DF4F82E0899381E28993EA
:10138000199219921992199219921992199281E04F
:1013900090E0899399931882DF91CF910895FC0191
:1013A0006083E053FF4F82E08083369681E0808344
:1013B00032968CE080833697808338968DE08083E8
:1013C00036978083339784E08083369685E08083E8
:1013D000349787E08083369688E0808334978AE06C
:1013E000808336968BE08083EB5DF0408AEB99E05A
:1013F000948F838F8BEC99E0968F858F8CED99E09D
:1014000090A3878F8CEE99E092A381A38CEF99E053
:1014100094A383A38CE09AE094A783A78DE19AE03C
:1014200096A785A78EE29AE092AB81AB8EE39AE015
:1014300094AB83ABE15BFF4F8FE49AE091838083B1
:1014400081E00895CF93DF93EC01DC01A456BF4FF8
:101450009C91992339F0FE01E356FF4F80818C93D4
:10146000108240C02091CD052F5F2093CD05213003
:1014700011F490E337C02230D1F4FE01EC55FF4F58
:10148000CD55DF4F90818881C35AD040981708F01E
:101490001082DE01AC55BF4F8C91FE01E80FF11DAB
:1014A000E256FF4F90818F5F8C939923D9F4FE0110
:1014B000E555FF4FC655DF4F90818881CA5AD0400D
:1014C000981708F01082FE01E555FF4F8081C80F84
:1014D000D11DCB55DF4F98818F5F8083243010F072
:1014E0001092CD05892FDF91CF910895E3E5F5E0C6
:1014F00080E2819395E0EC3CF907D9F70895862FB7
:101500008150863078F484E1689F602D1124962FF5
:10151000945180E2E92FF0E0ED5AFA4F80839F5F0B
:101520009617C1F70895CF93DF93DC01663008F07A
:101530000AC28AE0689F602D11246F5F483009F469
:1015400003C14930B8F4443009F496C0453050F432
:10155000423009F44CC0433008F076C0413009F005
:10156000F2C11DC0463009F4BDC070E0473008F03C
:10157000D1C09EC04C3009F403C14D3040F44A3014
:1015800009F481C170E04B3008F099C166C14E305A
:1015900009F445C170E04F3008F0AEC124C18DB7E9
:1015A0009EB70C970FB6F8949EBF0FBE8DBFEDB7D8
:1015B000FEB73196862F90E08D5A9A4FCDB7DEB7A1
:1015C0009A8389838BE090E09383828385E594E01E
:1015D000958384831A968C911A97868317821B961B
:1015E0008C911B97808711861C968C9125C0CDB756
:1015F000DEB72C970FB6F894DEBF0FBECDBFEDB7A8
:10160000FEB73196862F90E08D5A9A4F9A83898340
:101610008BE090E09383828384E694E095838483D7
:1016200019968C9119978683178218968C91189722
:101630008087118617968C91828713860E942338A3
:101640008DB79EB70C967AC1CDB7DEB728970FB687
:10165000F894DEBF0FBECDBFEDB7FEB73196862F33
:1016600090E08D5A9A4F9A8389838BE090E0938320
:10167000828383E794E017C0CDB7DEB728970FB613
:10168000F894DEBF0FBECDBFEDB7FEB73196862F03
:1016900090E08D5A9A4F9A8389838BE090E09383F0
:1016A00082838DE794E0958384831D968C9120C17D
:1016B000CDB7DEB728970FB6F894DEBF0FBECDBF0B
:1016C000EDB7FEB731966D5A7A4F7A8369838BE016
:1016D00090E09383828388E894E0958384831E96C8
:1016E0008C9106C1CDB7DEB728970FB6F894DEBF50
:1016F0000FBECDBFEDB7FEB73196862F90E08D5A65
:101700009A4F9A8389838BE090E09383828383E965
:1017100094E015C0CDB7DEB728970FB6F894DEBFBA
:101720000FBECDBFEDB7FEB731966D5A7A4F7A83B3
:1017300069838BE090E0938382838DE994E09583C5
:1017400084831F968C91D4C0CDB7DEB728970FB68F
:10175000F894DEBF0FBECDBFEDB7FEB73196862F32
:1017600090E08D5A9A4F9A8389838BE090E093831F
:10177000828388EA94E09583848350968C91B8C0E4
:1017800053962D913C915497ADB7BEB71A970FB6AB
:10179000F894BEBF0FBEADBFEDB7FEB73196862F32
:1017A00090E08D5A9A4FCDB7DEB79A8389838BE04C
:1017B00090E09383828383EB94E095838483C901D3
:1017C0006AE070E00E94A93766831782C9016AE067
:1017D00070E00E94A937808711860E9423388DB758
:1017E0009EB70A96ABC0CDB7DEB728970FB6F89470
:1017F000DEBF0FBECDBFEDB7FEB731966D5A7A4F43
:101800007A8369838BE090E09383828380EC94E019
:101810009583848355968D919C91569788C0CDB7BA
:10182000DEB728970FB6F894DEBF0FBECDBFEDB779
:10183000FEB73196862F90E08D5A9A4F9A8389830E
:101840008BE090E09383828389EC94E0958384839A
:1018500057968D919C9158976AC0CDB7DEB728975F
:101860000FB6F894DEBF0FBECDBFEDB7FEB7319611
:101870006D5A7A4F7A8369838BE090E093838283F9
:1018800082ED94E017C0CDB7DEB728970FB6F89475
:10189000DEBF0FBECDBFEDB7FEB73196862F90E00D
:1018A0008D5A9A4F9A8389838BE090E09383828349
:1018B0008CED94E09583848351968C9119C0CDB7BB
:1018C000DEB728970FB6F894DEBF0FBECDBFEDB7D9
:1018D000FEB731966D5A7A4F7A8369838BE090E038
:1018E0009383828387EE94E09583848352968C91D0
:1018F000992787FD90951BC0CDB7DEB728970FB607
:10190000F894DEBF0FBECDBFEDB7FEB731966D5A6E
:101910007A4F7A8369838BE090E09383828382EFAE
:1019200094E09583848359968D919C915A979783DF
:1019300086830E9423388DB79EB708960FB6F89419
:101940009EBF0FBE8DBFDF91CF910895AF92BF9222
:10195000CF92DF92EF92FF920F931F93CF93DF937B
:10196000EC01C453DF4F0881B6E0FB2EF01A8A91D8
:10197000CB5CD040F81610F010E042C0182F1F19B1
:101980003FC0D6018C91181718F020E030E00AC053
:10199000E12FF0E0EE0FFF1FEC0FFD1FE352FF4FB2
:1019A00020813181EDB7FEB738970FB6F894FEBFAE
:1019B0000FBEEDBF31960E9DC00111248D5A9A4F76
:1019C000ADB7BEB712969C938E931197B382A28245
:1019D00035832483812F90E00196978386830E942C
:1019E00023381F5FEDB7FEB738960FB6F894FEBFE9
:1019F0000FBEEDBFD6018C91181778F40F5F0AC0A7
:101A0000FCEDCF2ED12CCC0EDD1EE4E1EE2E75E1E7
:101A1000A72EB12C063008F4B4CFC653DF4F88810F
:101A2000CA5CD0408823F1F0C553DF4F8881CB5C7E
:101A3000D040F81620F48AE28093B90513C0C4534D
:101A4000DF4F288190E0820F911D24E130E0829FDA
:101A5000F001839FF00D929FF00D1124EF5BFA4F80
:101A60008AE28083DF91CF911F910F91FF90EF90D9
:101A7000DF90CF90BF90AF900895BF92CF92DF924A
:101A8000EF92FF920F931F93CF93DF93EC01C15C12
:101A9000DE4FB880CF53D1408AE0B81609F054C069
:101AA000C453DF4F1881CC5CD04004C0CE01612FFD
:101AB0000E947F0A1F5F1730C8F3FE01EE5CFE4FE5
:101AC0008081DE01AA53BF4F8F30D8F58F5F8083AE
:101AD0001C9200E010E098E2E92EF12C85E1C82E7E
:101AE000D12C00D000D000D0EDB7FEB73196C701A1
:101AF0008D5A9A4FADB7BEB712969C938E9311979D
:101B0000D382C2820C9DC0010D9D900D1C9D900D35
:101B10001124855E9A4F958384830E9423380F5F3A
:101B20001F4F84E190E0E80EF91EADB7BEB71696E0
:101B30000FB6F894BEBF0FBEADBF0330110589F6D6
:101B400059C084E08C9356C0CE0166E00E947F0AA3
:101B5000CD5CDE4F28813981C353D140B5E0BB163F
:101B6000D1F48DB79EB708970FB6F8949EBF0FBEFD
:101B70008DBFEDB7FEB7319687EB95E0ADB7BEB739
:101B800012969C938E93119785E190E093838283C4
:101B90008EE095E01AC096E0B91631F5ADB7BEB744
:101BA00018970FB6F894BEBF0FBEADBFEDB7FEB726
:101BB000319687EB95E012969C938E93119785E171
:101BC00090E0938382838BEF94E0958384833783C3
:101BD00026830E9423388DB79EB708960FB6F894D7
:101BE0009EBF0FBE8DBF06C0CA53DF4F84E08883FF
:101BF000C65CD040CA53DF4F8881C65CD040853078
:101C0000D9F1863030F4833089F0843009F047C050
:101C100008C0873061F18730A0F1883009F03FC0FB
:101C200021C0C15CDE4F18822D9716C095E0B91611
:101C300039F4C15CDE4F87E08883CF53D1402FC099
:101C4000FE01E15CFE4FA6E0BA1619F488E080833D
:101C500026C01082CE5CDE4F8FE088831A92C1537B
:101C6000D1401DC0C45CDE4F88EE93E00EC0C45C62
:101C7000DE4F84E690E009C0C45CDE4F8AE090E06D
:101C800004C0C45CDE4F81E090E099838883CC532C
:101C9000D140CE01835D9E4F60E00E94E608CA53AA
:101CA000DF4F1882C758DF4F8881DF91CF911F9196
:101CB0000F91FF90EF90DF90CF90BF900895CF925B
:101CC000DF92FF920F931F93F62E6A0100D000D08F
:101CD00000D0EDB7FEB7319603E515E0C801860FD9
:101CE000911DADB7BEB712969C938E93119784E069
:101CF00090E0938382838CE590E0C80ED91ED601D4
:101D00008D919C91958384830E942338B3E0FB0ED0
:101D1000EDB7FEB73196C8018F0D911DADB7BEB7B7
:101D200012969C938E93119782E090E09383828326
:101D300086E191E0958384830E94E537EDB7FEB795
:101D40003196F3940F0D111DADB7BEB712961C93CB
:101D50000E93119789E090E0938382838AE090E06C
:101D6000C80ED91ED6018C9190E023E0880F991FF0
:101D70002A95E1F784509C4F958384830E942338F1
:101D80008DB79EB706960FB6F8949EBF0FBE8DBF57
:101D90001F910F91FF90DF90CF900895DF92EF9207
:101DA000FF920F931F93CF93DF93EC01162F7A01CD
:101DB00000D000D000D0EDB7FEB73196862F90E06E
:101DC0008D5A9A4FADB7BEB712969C938E931197CA
:101DD00084E090E0938382832CE530E0E20EF31EF2
:101DE000D7018D919C9124EA3FEFE20EF31E95837B
:101DF00084830E9423381D5FEDB7FEB73196812F93
:101E000090E08D5A9A4FADB7BEB712969C938E93C1
:101E1000119782E090E09383828386E191E095833D
:101E200084830E94E537D12ED394C458DF4FEDB799
:101E3000FEB736960FB6F894FEBF0FBEEDBF888191
:101E4000CC57D040882309F444C0C953DF4F888160
:101E5000C75CD0402D2D30E08823C9F000D000D0E1
:101E600000D0ADB7BEB711962D5A3A4FEDB7FEB7B9
:101E70003283218381E190E013969C938E93129795
:101E8000C758DF4FE881C957D040F0E0A1C08DB7F7
:101E90009EB70A970FB6F8949EBF0FBE8DBFEDB7E1
:101EA000FEB731962D5A3A4FADB7BEB712963C9356
:101EB0002E93119781E190E09383828384E394E0F1
:101EC0009583848387E690E097838683C658DF4FA7
:101ED000B6C0E1E6F0E0EE0EFF1ED7018C91EFE90F
:101EE000FFEFEE0EFF1E882309F445C0C953DF4FF4
:101EF00088812D2D30E08823F1F000D000D000D073
:101F0000ADB7BEB711962D5A3A4FCDB7DEB73A836B
:101F1000298381E190E013969C938E931297EEE5CE
:101F2000F0E0EE0EFF1EE701E88122EA3FEFE20E4D
:101F3000F31EF0E0AFC0ADB7BEB71A970FB6F89476
:101F4000BEBF0FBEADBFEDB7FEB731962D5A3A4FAB
:101F5000CDB7DEB73A83298381E190E09383828312
:101F600084E394E0958384838CE690E09783868372
:101F70002FE530E0C3C0C058DF4F9881C058D04033
:101F8000992309F4CDC0C953DF4F8881C75CD04085
:101F9000882309F4C5C02D2D30E0913079F500D0AB
:101FA00000D000D0ADB7BEB711962D5A3A4FEDB75D
:101FB000FEB73283218381E190E013969C938E9348
:101FC0001297C358DF4FE881CD57D040F0E07096AC
:101FD000EE0FFF1FEC0FFD1F838D948D15969C93C4
:101FE0008E9314970E9423382DB73EB72A5F3F4F38
:101FF0000FB6F8943EBF0FBE2DBFFFC08DB79EB782
:102000000A970FB6F8949EBF0FBE8DBFEDB7FEB70F
:1020100031962D5A3A4FADB7BEB712963C932E93D8
:10202000119781E190E09383828384E494E0958327
:10203000848387E690E097838683C258DF4F888148
:10204000998161C0C953DF4F8881882309F475C025
:102050002D2D30E0913099F500D000D000D0ADB7F3
:10206000BEB711962D5A3A4FEDB7FEB73283218392
:1020700081E190E013969C938E93129722E630E0D4
:10208000E20EF31EE701E8812EE93FEFE20EF31EB8
:10209000F0E07096EE0FFF1FEE0DFF1D8081918125
:1020A00015969C938E9314970E9423388DB79EB7F4
:1020B00006960FB6F8949EBF0FBE8DBF9EC0ADB7FB
:1020C000BEB71A970FB6F894BEBF0FBEADBFEDB73F
:1020D000FEB731962D5A3A4FCDB7DEB73A832983F2
:1020E00081E190E09383828384E494E09583848308
:1020F0008CE690E09783868323E630E0E20EF31EC1
:10210000D7018D919C91918780870E942338CDB70C
:10211000DEB72A960FB6F894DEBF0FBECDBF6DC0F6
:10212000E5E6F0E0EE0EFF1ED7019C91EBE9FFEF34
:10213000EE0EFF1E992309F085CF00D000D000D00D
:10214000EDB7FEB731968D2D90E08D5A9A4FADB711
:10215000BEB712969C938E93119709E010E01383FB
:102160000283C6E6D0E0EC0EFD1ED7018D917D0105
:1021700090E043E0880F991F4A95E1F784509C4F07
:10218000958384830E942338D39400D0ADB7BEB723
:102190001196D80E8D2D90E08D5A9A4FCDB7DEB79F
:1021A0009A83898313961C930E931297E701E88113
:1021B00029E93FEFE20EF31EF0E0B096EE0FFF1FAD
:1021C000EE0DFF1D8081918115969C938E9314973F
:1021D00088E690E0E80EF91EE701888116968C9358
:1021E000169717961C920E942338EDB7FEB73896C3
:1021F0000FB6F894FEBF0FBEEDBFDF91CF911F91D8
:102200000F91FF90EF90DF900895CF92DF92EF92C1
:10221000FF920F931F93CF93DF93EC01C15CDE4FCE
:102220009881CF53D1409A3009F054C0C453DF4F46
:102230000881CC5CD04004C0CE01602F0E947F0A90
:102240000F5F0730C8F3FE01EE5CFE4F8081DE01B8
:10225000AA53BF4F8F30D8F58F5F80831C9200E068
:1022600010E098E2E92EF12C85E1C82ED12C00D0A7
:1022700000D000D0EDB7FEB73196C7018D5A9A4F06
:10228000ADB7BEB712969C938E931197D382C2823C
:102290000C9DC0010D9D900D1C9D900D1124865A22
:1022A0009A4F958384830E9423380F5F1F4F84E1E8
:1022B00090E0E80EF91EADB7BEB716960FB6F894CB
:1022C000BEBF0FBEADBF0330110589F6D0C084E09C
:1022D0008C93CDC0913071F5CD5CDE4F08811981B2
:1022E00026968881C953D1408150843008F0B9C006
:1022F000CE0166E00E947F0A8DB79EB708970FB6A1
:10230000F8949EBF0FBE8DBFEDB7FEB7319687EB39
:1023100095E0ADB7BEB712969C938E93119785E169
:1023200090E09383828389EA95E095838483178381
:1023300006838CC0943009F040C0CD5CDE4F08812C
:10234000198126968881C953D1408150843020F06C
:10235000CA53DF4F988389C0CE0166E00E947F0A8E
:10236000ADB7BEB71A970FB6F894BEBF0FBEADBFDC
:10237000EDB7FEB7319687EB95E012969C938E935E
:10238000119785E190E09383828389E995E09583B5
:102390008483C8016AE070E00E94A937778366836E
:1023A000C8016AE070E00E94A937918780870E9487
:1023B00023388DB79EB70A964EC0923039F4CD5C63
:1023C000DE4F08811981C353D14010C0933009F00A
:1023D00048C0C15DDE4FE881F981249688819981EA
:1023E000C353D140E80FF91F008110E0CE0166E031
:1023F0000E947F0AADB7BEB718970FB6F894BEBF5C
:102400000FBEADBFEDB7FEB7319687EB95E01296E4
:102410009C938E93119785E190E09383828384EB64
:1024200095E095838483C35DDE4F8BE090E0089F49
:102430009001099F300D189F300D112488819981DA
:10244000CD52D140820F931F978386830E942338F9
:102450008DB79EB708960FB6F8949EBF0FBE8DBF7E
:1024600006C0CA53DF4F84E08883C65CD040CA539D
:10247000DF4F8881C65CD040843061F0853020F425
:10248000833009F096C08FC08530B9F0883009F0EC
:1024900090C00AC0C15CDE4F18822D978FE0888300
:1024A0001A92C153D14085C00E94F305682FCE0116
:1024B000835D9E4F0E94E6087CC00E94F305482F72
:1024C000C15CDE4F8881CF53D140813019F0843018
:1024D00009F04BC0C45CDE4F28813981CC53D14018
:1024E000442339F1CB5CDE4FE881F981C553D140FB
:1024F000CF01B9010E94A9376A30710550F0C901B6
:10250000880F991FA3E0220F331FAA95E1F7280F28
:10251000391F423070F0CF01B9010E94A9376A30EB
:10252000710538F0C901880F991F880F991F280F6E
:10253000391FCD5CDE4F688179812496888199812D
:10254000C753D140820F931F6817790718F0621B99
:10255000730B06C0CB5CDE4F68817981C553D140D7
:10256000CD5CDE4F798368831BC08250823008F5D2
:10257000CD5CDE4F2991399188819981C553D14035
:102580002817390718F4C901019606C0C95CDE4F47
:1025900088819981C753D140CD5CDE4F9983888370
:1025A000C353D14006C0C15CDE4F89E08883CF535E
:1025B000D140CA53DF4F1882C758DF4F8881DF915F
:1025C000CF911F910F91FF90EF90DF90CF900895E2
:1025D000CF92DF92EF92FF920F931F93CF93DF93EF
:1025E000EC01FC01E253FF4F8081882309F494C081
:1025F0001082C553DF4FFF24F394F882FA92CA5C2D
:10260000D0408E0104531F4FD801FC920E94A106B6
:10261000F80180810E949207FE01E452FF4FC352ED
:10262000DF4F89E097E099838883EC961882F082E7
:10263000C258D0408881C759D040813009F067C066
:10264000C152DF4F80E097E099838883EB96188230
:10265000E9978EEE96E099838883EA961882CB51AB
:10266000D14083E08083AE0144525F4FDA012C9168
:102670002431A8F4E22FF0E0DF01AA0FBB1FAC0F5A
:10268000BD1FA352BF4F82EE96E08D939C93EC0F3B
:10269000FD1FE75EFE4F10822F5FFA012083AE011F
:1026A00044525F4FDA012C912431A8F4E22FF0E07C
:1026B000DF01AA0FBB1FAC0FBD1FA352BF4F89ED97
:1026C00096E08D939C93EC0FFD1FE75EFE4F10820A
:1026D0002F5FFA012083AE0144525F4FDA012C9143
:1026E0002431A8F4E22FF0E0DF01AA0FBB1FAC0FEA
:1026F000BD1FA352BF4F8BEC96E08D939C93EC0FC4
:10270000FD1FE75EFE4F10822F5FFA012083CE018E
:1027100084569F4F0E949408C553DF4FE881E150D3
:1027200061968881CC5DD040E81718F0CC24DD2478
:1027300009C0F0E0EE0FFF1FEC0FFD1FE352FF4F4B
:10274000C080D18000D000D000D0EDB7FEB7319668
:1027500003E515E0ADB7BEB712961C930E93119723
:1027600025E1E22EF12CF382E28289E197E0958364
:1027700084830E94233800D000D0EDB7FEB7319695
:102780000C5E1F4FADB7BEB712961C930E931197F8
:10279000F382E2828DEB95E095838483C553DF4F0E
:1027A00088818683178261968881CC5DD04080873E
:1027B00011860E9423380F900F900F900F90EDB765
:1027C000FEB731960C5E1F4FADB7BEB712961C9385
:1027D0000E931197F382E282D582C4820E9423383D
:1027E000EDB7FEB7319683EA95E0ADB7BEB7129666
:1027F0009C938E9311970BE010E01383028382ED7C
:1028000095E0958384830E942338EDB7FEB7319617
:10281000805B90E08D5A9A4FADB7BEB712969C93ED
:102820008E931197138302838DED95E095838483B6
:102830000E942338FE01E15CFE4F2DB73EB72A5FB0
:102840003F4F0FB6F8943EBF0FBE2DBF80818B3037
:1028500008F01082C15CDE4F8881CF53D1408823BD
:1028600009F479C0CE010E940511893009F068C1D0
:1028700039E0C31637E0D306B9F4CE01835D9E4F2D
:102880000E94D008982FFE01E956FF4F80819817CB
:1028900009F457C0923008F49083C253DF4F81E0AF
:1028A0008883CE5CD0404DC080E0C81687E0D80653
:1028B00009F447C09EEEC91696E0D90669F4CE0128
:1028C000835D9E4F0E94D0088730D8F5C856DF4FF1
:1028D0008883C859D04035C0A2EECA16A6E0DA06F1
:1028E00069F4CE01835D9E4F0E94D008882349F58C
:1028F000C756DF4F1882C959D04023C0B9EDCB1657
:10290000B6E0DB0669F4CE01835D9E4F0E94D008DD
:102910008330B8F4C656DF4F8883CA59D04011C0FF
:10292000EBECCE16E6E0DE0661F4CE01835D9E4F51
:102930000E94D008823028F4C556DF4F8883CB59D7
:10294000D040C15CDE4F18822D978FE088831A92A9
:10295000C153D140F5C000D000D000D0EDB7FEB7D4
:10296000319687EB95E0ADB7BEB712969C938E93E8
:1029700011970BE010E01383028384EE95E09583BA
:1029800084830E9423388C59EDB7FEB736960FB674
:10299000F894FEBF0FBEEDBFF9E0CF16F7E0DF06FB
:1029A00011F500D000D000D0EDB7FEB7319690E021
:1029B0008D5A9A4FADB7BEB712969C938E931197CE
:1029C00013830283C956DF4F8881C759D04090E0F6
:1029D0009C01209FC001219F900D309F900D1124DC
:1029E00081519A4FA1C090E0C91697E0D90609F429
:1029F000A7C0AEEECA16A6E0DA0611F500D000D0E8
:102A000000D0EDB7FEB7319690E08D5A9A4FADB732
:102A1000BEB712969C938E93119713830283C85668
:102A2000DF4F8881C859D04090E09C01209FC001B1
:102A3000219F900D309F900D1124805F994F74C09D
:102A400092EEC91696E0D90611F500D000D000D05C
:102A5000EDB7FEB7319690E08D5A9A4FADB7BEB73D
:102A600012969C938E93119713830283C756DF4F60
:102A70008881C959D04090E09C01209FC001219FCE
:102A8000900D309F900D11248859994F4DC099EDAC
:102A9000C91696E0D90611F500D000D000D0EDB7E8
:102AA000FEB7319690E08D5A9A4FADB7BEB71296E9
:102AB0009C938E93119713830283C656DF4F8881B0
:102AC000CA59D04090E09C01209FC001219F900DE9
:102AD000309F900D11248258994F26C09BECC91647
:102AE00096E0D90669F500D000D000D0EDB7FEB76A
:102AF000319690E08D5A9A4FADB7BEB712969C931F
:102B00008E93119713830283C556DF4F8881CB596B
:102B1000D04090E09C01209FC001219F900D309FEC
:102B2000900D11248655994F958384830E942338F4
:102B30008DB79EB706960FB6F8949EBF0FBE8DBF99
:102B4000CA53DF4F8881C65CD0408530E9F08630BB
:102B500030F48330E9F1843009F04CC125C088306D
:102B600021F0893009F046C12CC0C553DF4F888160
:102B7000CB5CD040823010F0815013C0C452DF4F84
:102B80008881CC5DD0400DC0C553DF4F98816196E0
:102B90008881CC5DD040981710F081E002C0892F69
:102BA0008F5FC553DF4F0BC0CA5BDE4F198218829F
:102BB0008FE491E29A938A93C657D04081E088834C
:102BC00019C1CA5BDE4F198218828AE198E2F2CFFE
:102BD000CE5BDE4F1982188285E091E19A938A9349
:102BE000C054D14099E0C91697E0D90671F58E011D
:102BF000035D1E4FC80162E00E949E08C80160E0AC
:102C000070E041E050E00E94BB08C956DF4F888168
:102C1000282F30E0C056DF4F48815981C753D1403B
:102C20002417350748F0CB5CDE4F88819981C55366
:102C3000D1408217930708F49A01CD5CDE4F3983A7
:102C4000288326978FEE95E0D1C0A0E0CA16A7E0B2
:102C5000DA0609F4CFC0BEEECB16B6E0DB0671F59E
:102C60008E01035D1E4FC80162E00E949E08C801EC
:102C700060E070E046E050E00E94BB08C856DF4FBD
:102C80008881282F30E0C156DF4F48815981C753D2
:102C9000D1402417350748F0CB5CDE4F88819981FD
:102CA000C553D1408217930708F49A01CD5CDE4FDB
:102CB00039832883269780E196E098C0E2EECE160D
:102CC000E6E0DE0671F58E01035D1E4FC80162E08D
:102CD0000E949E08C80160E070E040E050E00E9461
:102CE000BB08C756DF4F8881282F30E0C256DF4F20
:102CF00048815981C753D1402417350748F0CB5C30
:102D0000DE4F88819981C553D1408217930708F41B
:102D10009A01CD5CDE4F39832883269788E696E0BA
:102D200065C0F9EDCF16F6E0DF0671F58E01035DA3
:102D30001E4FC80162E00E949E08C80160E070E07A
:102D400042E050E00E94BB08C656DF4F8881282F22
:102D500030E0C356DF4F48815981C753D140241713
:102D6000350748F0CB5CDE4F88819981C553D1404F
:102D70008217930708F49A01CD5CDE4F39832883CC
:102D800026978EE796E032C02BECC21626E0D206DC
:102D900089F58E01035D1E4FC80162E00E949E0806
:102DA000C80160E070E041E050E00E94BB08C556F9
:102DB000DF4F8881282F30E0C456DF4F488159818A
:102DC000C753D1402417350748F0CB5CDE4F8881CC
:102DD0009981C553D1408217930708F49A01CD5CBD
:102DE000DE4F3983288326978AEA96E09983888381
:102DF00024961882DF91CF911F910F91FF90EF9051
:102E0000DF90CF900895AF92BF92DF92EF92FF9242
:102E10000F931F93CF93DF93EC01FC01E253FF4F1D
:102E20008081882309F480C01082C553DF4F81E080
:102E300088838A93CA5CD0408E0104531F4F82E07E
:102E4000D8018C930E94A106F80180810E9492070C
:102E5000FE01E452FF4FC352DF4F80E697E09983B3
:102E60008883EC961882EA9786E597E099838883B1
:102E7000EB961882E9978DE497E099838883EA9628
:102E80001882E89784E497E099838883E99618820A
:102E9000CC51D14024E02083A22FB0E0FD01EE0F01
:102EA000FF1FEC0FFD1FE352FF4F89E397E0918373
:102EB0008083AC0FBD1FA75EBE4F1C922F5FC45214
:102EC000DF4F2883CC5DD040AE0144525F4FDA0122
:102ED0002C912431A8F4E22FF0E0DF01AA0FBB1FF0
:102EE000AC0FBD1FA352BF4F8DE297E08D939C9313
:102EF000EC0FFD1FE75EFE4F10822F5FFA0120836B
:102F0000CE0184569F4F0E949408DE01A655BF4F04
:102F10009C91953048F4FE01E90FF11DEB55FF4FF0
:102F200082E380839F5F9C93C553DF4FE881E1502C
:102F300061968881CC5DD040E81718F0AA24BB24A4
:102F400009C0F0E0EE0FFF1FEC0FFD1FE352FF4F33
:102F5000A080B18000D000D000D0EDB7FEB7319690
:102F600087E695E0ADB7BEB712969C938E93119706
:102F700085E190E09383828388E697E0958384835C
:102F80000E942338EDB7FEB736960FB6F894FEBF11
:102F90000FBEEDBFCE0160E041E00E94930ACE017A
:102FA00061E042E00E94930AFE01E15CFE4F8081F5
:102FB0008B3008F01082C15CDE4F8881CF53D14046
:102FC000882309F450C18DB79EB708970FB6F894BF
:102FD0009EBF0FBE8DBFEDB7FEB73196C453DF4F16
:102FE000888124E1829FC00111248D5A9A4FADB788
:102FF000BEB712969C938E93119785E190E09383D0
:103000008283B582A4828A91CB5CD040868317826A
:103010000E942338EDB7FEB738960FB6F894FEBF7E
:103020000FBEEDBFCE010E940511893009F01EC10F
:10303000C65CDE4F0881CA53D140CE01835D9E4FEE
:103040000E94D008D82E033008F0A7C00023E9F56D
:10305000C355DF4F6881CD5AD040EEEAEE2EF12CF9
:10306000EC0EFD1ED7011C91862F90E074E0959523
:1030700087957A95E1F79C0153E0220F331F5A950B
:10308000E1F7880F991F280F391F6F70620FCE016B
:1030900005964D2D0E947008212F30E0B4E0359543
:1030A0002795BA95E1F7A901A3E0440F551FAA950A
:1030B000E1F7220F331F420F531F1F70140F8117A8
:1030C00050F581E0F701808326C0013021F5EEEA5A
:1030D000EE2EF12CEC0EFD1ED7011C91CE010596B3
:1030E0006D2D40E00E947008212F30E074E035958E
:1030F00027957A95E1F7A90163E0440F551F6A957A
:10310000E1F7220F331F420F531F1F70140F811757
:1031100010F4F7010083FE01E00FF11DE455FF4FAD
:103120008D2D6AE00E949D37282F2295207F8D2DBE
:103130000E949D37290F20833985C155DF4F832F8A
:103140000E949D37282F2295207F832F0E949D3734
:10315000290F2883CF5AD0403885C055DF4F832FA1
:103160000E949D37282F2295207F832F0E949D3714
:10317000290F2883C05BD0403F81CF54DF4F832F7E
:103180000E949D37282F2295207F832F0E949D37F4
:10319000290F2883C058DF4F43C0063008F059C0BC
:1031A000FE01E00FF11DE455FF4F6AE00E949D37DC
:1031B000282F2295207F8D2D0E949D37290F208357
:1031C0003C85C455DF4F832F0E949D37282F2295C1
:1031D000207F832F0E949D37290F2883CC5AD0400F
:1031E0003B85C355DF4F832F0E949D37282F2295A3
:1031F000207F832F0E949D37290F2883CD5AD040EE
:103200003A85C255DF4F832F0E949D37282F229584
:10321000207F832F0E949D37290F2883CD57DF4FB2
:103220009881C559D0408881CC59D040882319F461
:10323000E0E0F0E009C0C356DF4F8881CD59D040AF
:10324000882339F4E1E0F0E0EC0FFD1FE456FF4F76
:103250009083C15CDE4F18822D978FE088831A928D
:10326000C153D14003C0CE010E94A60CCA53DF4F08
:103270008881C65CD0408530E9F0863030F48330F8
:1032800049F1843009F0DFC1CBC1883021F08930A9
:1032900009F0D9C1CCC1C553DF4F8881CB5CD04088
:1032A000823010F0815013C0C452DF4F8881CC5D52
:1032B000D0400DC0C553DF4F988161968881CC5DA9
:1032C000D040981710F081E002C0892F8F5FC5535E
:1032D000DF4FB8C1CE5BDE4F1982188285E091E1E5
:1032E0009A938A93C054D140F0E6AF16F7E0BF0638
:1032F00061F58E01035D1E4FC80161E00E949E08CA
:10330000C80160E070E043E650E00E94BB088C8595
:10331000282F30E0C95CDE4F48815981C753D14026
:103320002417350748F0CB5CDE4F88819981C5535F
:10333000D1408217930708F49A01CD5CDE4F3983A0
:103340002883279619821882FCC086E5A81687E094
:10335000B80661F58E01035D1E4FC80161E00E9451
:103360009E08C80161E070E04CE050E00E94BB089C
:103370008B85282F30E0C95CDE4F48815981C753C7
:10338000D1402417350748F0CB5CDE4F8881998106
:10339000C553D1408217930708F49A01CD5CDE4FE4
:1033A00039832883279681E090E0C9C09DE4A9165F
:1033B00097E0B90691F58E01035D1E4FC80161E0EB
:1033C0000E949E08CE01059660E040E00E947008D1
:1033D000482FC80161E070E050E00E94BB088A8578
:1033E000282F30E0C95CDE4F48815981C753D14056
:1033F0002417350748F0CB5CDE4F88819981C5538F
:10340000D1408217930708F49A01CD5CDE4F3983CF
:103410002883279682E090E092C0A4E4AA16A7E051
:10342000BA0661F58E01035D1E4FC80161E00E947E
:103430009E08C80160E070E047E150E00E94BB08D0
:103440008985282F30E0C95CDE4F48815981C753F8
:10345000D1402417350748F0CB5CDE4F8881998135
:10346000C553D1408217930708F49A01CD5CDE4F13
:1034700039832883279683E090E061C0B9E3AB16D7
:10348000B7E0BB0661F58E01035D1E4FC80161E028
:103490000E949E08C80160E070E04BE350E00E948B
:1034A000BB088885282F30E0C95CDE4F48815981F0
:1034B000C753D1402417350748F0CB5CDE4F8881D5
:1034C0009981C553D1408217930708F49A01CD5CC6
:1034D000DE4F39832883279684E090E030C0EDE208
:1034E000AE16E7E0BE0679F58E01035D1E4FC801FA
:1034F00061E00E949E08C80160E070E04BE350E08C
:103500000E94BB088F81282F30E0C95CDE4F4881C4
:103510005981C753D1402417350748F0CB5CDE4FA3
:1035200088819981C553D1408217930708F49A0185
:10353000CD5CDE4F39832883279685E090E0998320
:103540008883CA53D140CF5CDE4F82EB88832B96B1
:1035500081E090E08993999381E08883CE53D140B4
:103560003C85C455DF4F832F6AE00E949D37282F8A
:103570002295207F832F0E949D37290F2883CC5AC4
:10358000D0403B85C355DF4F832F0E949D37282FA6
:103590002295207F832F0E949D37290F2883CD5AA3
:1035A000D0403A85C255DF4F832F0E949D37282F88
:1035B0002295207F832F0E949D37290F2883CE5A82
:1035C000D0403985C155DF4F832F0E949D37282F6A
:1035D0002295207F832F0E949D37290F2883CF5A61
:1035E000D0403885C055DF4F832F0E949D37282F4C
:1035F0002295207F832F0E949D37290F2883C05B4F
:10360000D0403F81CF54DF4F832F0E949D37282F1A
:103610002295207F832F0E949D37290F288313C076
:10362000CA5BDE4F198218828FE491E206C0CA5B42
:10363000DE4F198218828AE198E29A938A93C657DC
:10364000D04081E08883DF91CF911F910F91FF904F
:10365000EF90DF90BF90AF900895CF92DF92EF92FE
:10366000FF920F931F93CF93DF93EC01FC01E25382
:10367000FF4F8081882309F45BC01082C553DF4F60
:1036800081E088838A93CA5CD0408E0104531F4F27
:10369000D8018C93C353DF4F8883CE58DF4F1882F5
:1036A0002D978FE088831A92C153D1400E94A106C2
:1036B000F80180810E949207CE0184569F4F0E949C
:1036C0009408FE01E452FF4FC352DF4F89EB97E0AD
:1036D00099838883EC9685E38883EA9788EA97E064
:1036E00099838883EB9686E38883E99788E997E056
:1036F00099838883EA9687E38883E89786E897E04A
:1037000099838883E99688E38883CC51D14084E00B
:103710008083DE01A655BF4F9C91953048F4FE0191
:10372000E90FF11DEB55FF4F84E380839F5F9C936E
:10373000C553DF4F9881915061968881CC5DD04010
:10374000981708F090E0FE01E90FF11DE75EFE4FCB
:10375000E081CD55DF4F8881C35AD040853028F4B1
:10376000C256DF4FE883CE59D040C553DF4FE881C2
:10377000E15061968881CC5DD040E81718F0CC24E8
:10378000DD2409C0F0E0EE0FFF1FEC0FFD1FE35238
:10379000FF4FC080D18000D000D000D0EDB7FEB781
:1037A000319603E515E0ADB7BEB712961C930E93A4
:1037B000119785E1E82EF12CF382E2828EEC97E0FE
:1037C000958384830E94233800D000D0EDB7FEB7E4
:1037D00031960C5E1F4FADB7BEB712961C930E9379
:1037E0001197F382E2828DEB95E095838483C55334
:1037F000DF4F88818683178261968881CC5DD040B7
:10380000808711860E9423380F900F900F900F90A1
:10381000EDB7FEB731960C5E1F4FADB7BEB712962F
:103820001C930E931197F382E282D582C4820E9488
:103830002338EDB7FEB7319683EA95E0ADB7BEB752
:1038400012969C938E9311970BE010E013830283E2
:1038500082ED95E0958384830E942338805BEDB7E9
:10386000FEB736960FB6F894FEBF0FBEEDBFF9EB6C
:10387000CF16F7E0DF0621F52DB73EB72C503040CC
:103880000FB6F8943EBF0FBE2DBFEDB7FEB7319611
:1038900090E08D5A9A4FADB7BEB712969C938E9317
:1038A0001197138302838DE797E0958384831782B2
:1038B00016828FEF90E09187808788E191E056C073
:1038C000F8EACF16F7E0DF0629F0F8E9CF16F7E0BF
:1038D000DF0621F52DB73EB72C5030400FB6F894D7
:1038E0003EBF0FBE2DBFEDB7FEB7319690E08D5AAB
:1038F0009A4FADB7BEB712969C938E9311971383D0
:1039000002838DE797E095838483178216828FEF79
:1039100090E0918780878BE191E028C0F6E8CF1690
:10392000F7E0DF0679F52DB73EB72C5030400FB6E3
:10393000F8943EBF0FBE2DBFEDB7FEB7319690E0B5
:103940008D5A9A4FADB7BEB712969C938E9311972E
:10395000138302838DE797E0958384831782168211
:103960008FEF90E0918780878EE191E09387828747
:103970000E942338EDB7FEB73C960FB6F894FEBF11
:103980000FBEEDBFFE01E15CFE4F80818B3008F081
:103990001082C15CDE4F8881CF53D1408823E1F192
:1039A000CE010E940511893009F0FAC0FE01E455EC
:1039B000FF4FC65CDE4F8881CA53D1408083CE0161
:1039C000835D9E4F0E94D008C355DF4F8883CC573C
:1039D000DF4F9881C559D0408881CC59D040882389
:1039E00019F4E0E0F0E009C0C356DF4F8881CD59FB
:1039F000D040882339F4E1E0F0E0EC0FFD1FE456FD
:103A0000FF4F9083C15CDE4F18822D978FE0888333
:103A10001A92C153D140C4C000D000D000D0EDB73D
:103A2000FEB7319687EB95E0ADB7BEB712969C9383
:103A30008E9311970BE010E01383028384EE95E0E0
:103A4000958384830E9423388C59EDB7FEB7369650
:103A50000FB6F894FEBF0FBEEDBFF9EBCF16F7E03F
:103A6000DF0609F52DB73EB7285030400FB6F89461
:103A70003EBF0FBE2DBFEDB7FEB7319690E08D5A19
:103A80009A4FADB7BEB712969C938E93119713833E
:103A9000028381E291E095838483CD56DF4F888154
:103AA000C359D04071C0F8EACF16F7E0DF0609F538
:103AB0002DB73EB7285030400FB6F8943EBF0FBE2A
:103AC0002DBFEDB7FEB7319690E08D5A9A4FADB746
:103AD000BEB712969C938E9311971383028386E24E
:103AE00091E095838483CC56DF4F8881C459D040C0
:103AF0004BC0F8E9CF16F7E0DF0609F52DB73EB762
:103B0000285030400FB6F8943EBF0FBE2DBFEDB722
:103B1000FEB7319690E08D5A9A4FADB7BEB7129668
:103B20009C938E9311971383028386E291E0958391
:103B30008483CB56DF4F8881C559D04025C0F6E835
:103B4000CF16F7E0DF0661F52DB73EB728503040BD
:103B50000FB6F8943EBF0FBE2DBFEDB7FEB731963E
:103B600090E08D5A9A4FADB7BEB712969C938E9344
:103B70001197138302838BE291E095838483CA5665
:103B8000DF4F8881C659D040868317820E94E5376F
:103B9000EDB7FEB738960FB6F894FEBF0FBEEDBF77
:103BA000CA53DF4F8881C65CD0408530E9F086304B
:103BB00030F48330E1F1843009F033C125C088301E
:103BC00021F0893009F02DC126C0C553DF4F88810F
:103BD000CB5CD040823010F0815013C0C452DF4F14
:103BE0008881CC5DD0400DC0C553DF4F9881619670
:103BF0008881CC5DD040981710F081E002C0892FF9
:103C00008F5FC553DF4F0CC1CA5BDE4F198218822C
:103C10008AE19FE106C0CA5BDE4F198218828AE101
:103C200098E29A938A93C657D04081E0F9C0CE5B60
:103C3000DE4F1982188285E091E19A938A93CF5BD7
:103C4000D0408881C158D040882339F0C15CDE4F14
:103C50008AE088832D971882E4C0F9EBCF16F7E04D
:103C6000DF06A1F58E01035D1E4FC80161E00E94D1
:103C70009E08C80160E070E04FEF50E00E94BB0872
:103C8000CD56DF4F8881282F30E0CC55DF4F48815B
:103C90005981C753D1402417350748F0CB5CDE4F1C
:103CA00088819981C553D1408217930708F49A01FE
:103CB000CD5CDE4F39832883299681E090E089939B
:103CC000999381E088832D9785E3AAC028EAC216DC
:103CD00027E0D206A1F58E01035D1E4FC80161E009
:103CE0000E949E08C80160E070E04FEF50E00E9423
:103CF000BB08CC56DF4F8881282F30E0CD55DF4FF1
:103D000048815981C753D1402417350748F0CB5C0F
:103D1000DE4F88819981C553D1408217930708F4FB
:103D20009A01CD5CDE4F39832883299681E090E0AB
:103D30008993999381E088832D9786E371C038E950
:103D4000C31637E0D306A1F58E01035D1E4FC801EF
:103D500061E00E949E08C80160E070E04FEF50E013
:103D60000E94BB08CB56DF4F8881282F30E0CE550C
:103D7000DF4F48815981C753D1402417350748F098
:103D8000CB5CDE4F88819981C553D1408217930760
:103D900008F49A01CD5CDE4F39832883299681E0AF
:103DA00090E08993999381E088832D9787E338C0C9
:103DB00086E8C81687E0D806A1F58E01035D1E4F80
:103DC000C80161E00E949E08C80160E070E04FEF0A
:103DD00050E00E94BB08CA56DF4F8881282F30E090
:103DE000CF55DF4F48815981C753D140241735073C
:103DF00048F0CB5CDE4F88819981C553D140821752
:103E0000930708F49A01CD5CDE4F39832883299605
:103E100081E090E08993999381E088832D9788E3EE
:103E20008883DF91CF911F910F91FF90EF90DF90EA
:103E3000CF900895FF920F931F93CF93DF93EC01E0
:103E4000FC01E253FF4F8081882339F11082C55372
:103E5000DF4FFF24F394F882FA92CA5CD0408E01BF
:103E600004531F4FD801FC920E94A106F8018081E3
:103E70000E949207FE01E452FF4FC352DF4F8EEDC6
:103E800097E099838883EC961882C951D140F082DB
:103E9000CE0184569F4F0E949408C553DF4FE8819E
:103EA000E15061968881CC5DD040E81718F000E0C1
:103EB00010E009C0F0E0EE0FFF1FEC0FFD1FE35212
:103EC000FF4F0081118100D000D000D0EDB7FEB7C8
:103ED000319683E595E0ADB7BEB712969C938E936D
:103EE000119784E190E09383828388EE97E0958335
:103EF00084830E942338EDB7FEB736960FB6F89448
:103F0000FEBF0FBEEDBFCE010E94A60CCA53DF4F0D
:103F10008881C65CD0408530E1F0863030F4833053
:103F2000B1F1843009F042C024C0883019F08930E2
:103F3000E9F526C0C553DF4F8881CB5CD040823085
:103F400010F0815013C0C452DF4F8881CC5DD04047
:103F50000DC0C553DF4F988161968881CC5DD040FC
:103F6000981710F081E002C0892F8F5FC553DF4F93
:103F70001CC0CA5BDE4F198218828FE491E210C028
:103F8000CA5BDE4F198218828AE198E209C00E5D91
:103F9000174061F4CA5BDE4F198218828DE29BE103
:103FA0009A938A93C657D04081E08883DF91CF915E
:103FB0001F910F91FF900895DF92EF92FF920F9360
:103FC0001F93CF93DF93EC01CF57DF4FD880C158B9
:103FD000D040FE01E253FF4F80818823C1F0108260
:103FE000C553DF4F81E088838A93CA5CD0408E013D
:103FF00004531F4FD8018C930E94A106F8018081C1
:104000000E949207CE0184569F4F0E94940800D0D0
:1040100000D000D0EDB7FEB7319683E595E0ADB79F
:10402000BEB712969C938E93119785E190E093838F
:10403000828382E198E0958384830E942338EDB7E0
:10404000FEB736960FB6F894FEBF0FBEEDBFC45351
:10405000DF4F6881CC5CD04084E1689FB0011124BF
:10406000AE01455E5F4FCE010E945F0EFE01E15C36
:10407000FE4F80818B3008F01082C15CDE4F1881CA
:10408000CF53D140112309F489C0CE5BDE4F288184
:104090003981C254D140DE01A05CBE4F20FF10C068
:1040A000F901F595E795EC0FFD1F0190F081E02DEA
:1040B0008D919C91E80FF91F0190F081E02D02C0D5
:1040C000ED91FC9135952795CE01820F931F0995AF
:1040D0001930F9F48E01035D1E4FC8010E94D0080B
:1040E000982F8D2D8150823068F5992359F5CE5B3C
:1040F000DE4F198218828DE39DE09A938A93C8015E
:1041000065E00E949E08269719821882CA53D14002
:1041100045C0173009F042C0CD5CDE4F288139819F
:10412000C353D14089819A812817390731F08B8197
:104130009C812817390709F0A1C0C65CDE4F988121
:10414000CA53D140923051F1992311F490E705C040
:10415000913011F491E701C090E0C456DF4F88819F
:10416000CC59D040882319F4E0E0F0E009C0C356F0
:10417000DF4F8881CD59D040882339F4E1E0F0E069
:10418000EC0FFD1FE456FF4F9083C15CDE4F188299
:104190002D978FE088831A92C153D140CA53DF4FC5
:1041A0008881C65CD040843031F0893059F083304A
:1041B00009F06DC014C0CA5BDE4F198218828FE40B
:1041C00091E206C0CA5BDE4F198218828AE198E24A
:1041D0009A938A93C657D04081E0888358C0CE5BBB
:1041E000DE4F1982188285E091E19A938A93C05438
:1041F000D1403DE2E32E31E0F32EEC0EFD1EC7016F
:1042000062E00E949E08F1E0DF1659F0DF1620F010
:1042100082E0D81651F402C061E004C060E040E0E2
:1042200006C060E041E001E003C060E041E000E082
:10423000C70170E050E00E94BB08202F30E0C95C4D
:10424000DE4F48815981C753D1402417350748F0C4
:10425000CB5CDE4F88819981C553D140821793078B
:1042600008F49A01CD5CDE4F3983288326978CEFC2
:1042700097E0998388832496188209C0C15CDE4F39
:104280008AE088832D971882C253D14087CFDF916F
:10429000CF911F910F91FF90EF90DF900895FF92C3
:1042A0000F931F93CF93DF93EC01FC01E253FF4F79
:1042B0008081882309F454C01082C553DF4F81E008
:1042C00088838A93CA5CD0408E0104531F4FD80163
:1042D0008C930E94A106F80180810E949207FE0142
:1042E000E452FF4FC352DF4F8AE598E099838883F9
:1042F000EC961882EA9789E498E099838883EB9694
:104300001882E9978BE398E099838883EA9618826C
:10431000E89780E398E099838883E9961882CC51E6
:10432000D14024E02083A22FB0E0FD01EE0FFF1F5B
:10433000EC0FFD1FE352FF4F82E298E091838083F0
:10434000AC0FBD1FA75EBE4F1C922F5FC452DF4F44
:104350002883CC5DD040CE0184569F4F0E949408A4
:1043600000D000D000D0EDB7FEB7319683E595E0E0
:10437000ADB7BEB712969C938E93119785E190E0EE
:104380009383828384E698E0958384830E94233814
:10439000C553DF4FE881E15061968DB79EB7069611
:1043A0000FB6F8949EBF0FBE8DBF8881CC5DD04004
:1043B000E81718F000E010E009C0F0E0EE0FFF1F72
:1043C000EC0FFD1FE352FF4F00811181CE010E94CF
:1043D000A60CFE01E15CFE4F80818B3008F010825C
:1043E000C15CDE4FF880CF53D140FF2009F44DC0AF
:1043F000CE5BDE4F28813981C254D140DE01A05C02
:10440000BE4F20FF10C0F901F595E795EC0FFD1F99
:104410000190F081E02D8D919C91E80FF91F0190A2
:10442000F081E02D02C0ED91FC9135952795CE01EC
:10443000820F931F099597E0F916C1F4CD5CDE4F0A
:1044400028813981C353D14089819A81281739073E
:1044500031F08B819C812817390709F0A1C0CE016A
:10446000835D9E4F66E00E949E080FC0A8E0FA168A
:1044700061F4CD5CDE4F88819981C353D140B7E2AE
:1044800080319B0710F49A838983CA53DF4F888158
:10449000C65CD0408530E9F0863030F48330B9F125
:1044A000843009F087C025C0883021F0893009F0B8
:1044B00081C026C0C553DF4F8881CB5CD04082309D
:1044C00010F0815013C0C452DF4F8881CC5DD040C2
:1044D0000DC0C553DF4F988161968881CC5DD04077
:1044E000981710F081E002C0892F8F5FC553DF4F0E
:1044F00055C0CA5BDE4F1982188285E297E249C037
:10450000CA5BDE4F198218828AE198E242C0E8E075
:104510000A351E0739F4CA5BDE4F198218828CED0A
:104520009FE137C0F8E009341F0739F4CA5BDE4F5A
:104530001982188283E097E12CC028E00B33120720
:1045400039F4CA5BDE4F198218828AE19FE121C0EB
:1045500088E000331807A1F4CE5BDE4F1982188281
:104560008DE39DE09A938A93C054D140CE01835D40
:104570009E4F65E00E949E08CF5CDE4F18821AC0F5
:1045800002521840B9F4CA5BDE4F1982188288EED5
:1045900092E19A938A93C657D04081E088830AC0FB
:1045A000C15CDE4F18822D978FE088831A92C15329
:1045B000D1406BCFDF91CF911F910F91FF90089564
:1045C000FF920F931F93CF93DF93EC01FC01E25313
:1045D000FF4F8081882311F11082C553DF4FFF24E4
:1045E000F394F882FA92CA5CD0408E0104531F4FB4
:1045F000D801FC920E94A106F80180810E949207D6
:10460000FE01E452FF4FC352DF4F83E798E09983E6
:104610008883EC961882C951D140F08200D000D036
:1046200000D0EDB7FEB7319683E595E0ADB7BEB7E4
:1046300012969C938E93119785E190E093838283E9
:1046400084E898E0958384830E942338C553DF4F24
:10465000E881E15061968DB79EB706960FB6F89443
:104660009EBF0FBE8DBF8881CC5DD040E81718F08B
:1046700000E010E009C0F0E0EE0FFF1FEC0FFD1F9F
:10468000E352FF4F00811181CE010E94A60CCA5354
:10469000DF4F8881C65CD0408530E9F0863030F449
:1046A0008330E1F1843009F058C025C0883021F012
:1046B000893009F052C026C0C553DF4F8881CB5CDA
:1046C000D040823010F0815013C0C452DF4F888137
:1046D000CC5DD0400DC0C553DF4F98816196888175
:1046E000CC5DD040981710F081E002C0892F8F5F19
:1046F000C553DF4F31C0CA5BDE4F1982188285E295
:1047000097E206C0CA5BDE4F198218828AE198E2FE
:104710009A938A93C657D04081E01EC00357184031
:10472000E1F4C455DF4F81E0888360978881CC59DC
:10473000D040882319F480E090E009C0C356DF4FD1
:104740008881CD59D040882341F481E090E0C80FA2
:10475000D91FC456DF4F82E78883DF91CF911F9125
:104760000F91FF900895EF92FF920F931F93CF93B5
:10477000DF93EC01FC01E253FF4F8081882309F4B1
:104780006DC01082C653DF4F1882CA5CD0408E01C4
:1047900004531F4F81E0D8018C93C353DF4F8883AC
:1047A0000E94A106F80180810E949207639782E02F
:1047B000899381E2899319821882CC5BD040FE01F3
:1047C000E254FF4FC054DF4F19921992199281E0C1
:1047D00090E0899399931882C55CD04080E092E084
:1047E00091838083CE0184569F4F0E949408DE01FE
:1047F000AD55BF4F9C91953048F4FE01E90FF11D76
:10480000E256FF4F81EF80839F5F9C93DE01A655A8
:10481000BF4F9C91953048F4FE01E90FF11DEB5517
:10482000FF4F82EF80839F5F9C938E0103551F4F44
:10483000FE01ED53FF4FCF53DF4F808191812881DF
:104840003981820F931F259768817981CC5BD04095
:1048500001970E94A937D8018D939C93C454DF4FD0
:1048600008811981CC5BD04000D000D000D0EDB7DA
:10487000FEB7319683E5E82E85E0F82EADB7BEB7DA
:104880001296FC92EE92119785E190E093838283D9
:1048900082EB98E0958384830E942338EDB7FEB7BE
:1048A00036960FB6F894FEBF0FBEEDBF012BB9F4DC
:1048B00000D000D000D0EDB7FEB731968CE290E08A
:1048C000E80EF91EADB7BEB71296FC92EE921197A4
:1048D0008CE090E09383828384E998E01DC0CB5301
:1048E000DF4F8881C55CD040882311F500D000D00F
:1048F00000D0EDB7FEB7319689E290E0E80EF91EE0
:10490000ADB7BEB71296FC92EE92119784E190E09B
:104910009383828380EA98E0958384830E9423387E
:10492000EDB7FEB736960FB6F894FEBF0FBEEDBFDB
:10493000CA53DF4F8881C65CD0408530F9F086309D
:1049400020F4843009F067C051C0883021F08930EC
:1049500009F061C052C0CD53DF4F28813981C35C5B
:10496000D0402230310518F0C901019718C0C45455
:10497000DF4F88819981CC5BD04011C0CD53DF4F90
:1049800028813981279788819981CC5BD04028176D
:10499000390718F081E090E002C0C9010196821742
:1049A0009307C9F1CD53DF4F899399931882A99743
:1049B0008881CC59D040882319F4E0E0F0E009C0A8
:1049C000C356DF4F8881CD59D040882341F4E1E0C0
:1049D000F0E0EC0FFD1FE456FF4F82EF8083C353DE
:1049E000DF4F81E08883CD5CD04015C0CA5BDE4FCD
:1049F0001982188286E295E206C0CA5BDE4F1982F0
:104A000018828AE198E29A938A93C657D04081E04F
:104A10008883CE5CD040FE01ED53FF4FCF53DF4F74
:104A20008081918128813981820F931F2597688128
:104A3000798101970E94A9372F9799838883DF9105
:104A4000CF911F910F91FF90EF900895FF920F93D8
:104A50001F93CF93DF93EC01FC01E253FF4F808162
:104A6000882339F11082C553DF4FFF24F394F88275
:104A7000FA92CA5CD0408E0104531F4FD801FC92B9
:104A80000E94A106F80180810E949207CE018456FF
:104A90009F4F0E949408FE01E452FF4FC352DF4F24
:104AA00081EC98E099838883EC961882C951D140B3
:104AB000F082C553DF4FE881E15061968881CC5D7B
:104AC000D040E81718F000E010E009C0F0E0EE0F69
:104AD000FF1FEC0FFD1FE352FF4F0081118100D03B
:104AE00000D000D0EDB7FEB7319683E595E0ADB7C5
:104AF000BEB712969C938E93119785E190E09383B5
:104B000082838DEC98E0958384830E942338EDB7EF
:104B1000FEB736960FB6F894FEBF0FBEEDBFCE01BE
:104B20000E94A60CCA53DF4F8881C65CD0408530F6
:104B3000E1F0863030F48330B1F1843009F042C0C6
:104B400024C0883019F08930E9F526C0C553DF4FFD
:104B50008881CB5CD040823010F0815013C0C452A9
:104B6000DF4F8881CC5DD0400DC0C553DF4F9881A9
:104B700061968881CC5DD040981710F081E002C02A
:104B8000892F8F5FC553DF4F1CC0CA5BDE4F198270
:104B9000188285E297E210C0CA5BDE4F1982188244
:104BA0008AE198E209C0015C184061F4CA5BDE4FFB
:104BB0001982188283EB93E29A938A93C657D04066
:104BC00081E08883DF91CF911F910F91FF9008952D
:104BD0007F928F929F92AF92BF92CF92DF92EF928D
:104BE000FF920F931F93CF93DF93EC01FC01E253ED
:104BF000FF4F8081882309F450C010828E01045336
:104C00001F4FFF24F394D801FC92C553DF4F188245
:104C1000CB5CD0400E94A106F80180810E949207DF
:104C2000FE01E452FF4FCB5FDE4F1882649618827C
:104C30006397F88264961882639782E0888364960B
:104C40001882639783E0888364961882CC51D140A0
:104C500084E08083FE01E80FF11DEB5FFE4F95E0DD
:104C60009083749610828F5FC452DF4F8883CC5D2F
:104C7000D040CE0184569F4F0E949408DE01A65575
:104C8000BF4F9C91953048F4FE01E90FF11DEB55A3
:104C9000FF4F8FE380839F5F9C9300D000D000D0B4
:104CA000EDB7FEB7319683E595E0ADB7BEB7129686
:104CB0009C938E93119785E190E0938382838FE29A
:104CC00099E0958384830E942338C453DF4FD880B2
:104CD0000A91CB5CD0401D2DEDB7FEB736960FB6CE
:104CE000F894FEBF0FBEEDBF7CEDE72EF12CEC0E6D
:104CF000FD1E64E1762E55E1852E912C41E2A42E15
:104D000049E0B42E39E0C32E4EC0D7018C9108176C
:104D100010F040E00CC0FE01E00FF11DEB5FFE4F14
:104D20004081473020F020E030E047E009C0E42F28
:104D3000F0E0F596EE0FFF1FEC0FFD1F238D348D75
:104D4000EDB7FEB73C970FB6F894FEBF0FBEEDBFB0
:104D50003196179DC00111248D5A9A4FADB7BEB739
:104D600012969C938E93119793828282B582A4822D
:104D70004C9DC00111248752974F978386833087BB
:104D80001186228713860E9423380F5FEDB7FEB786
:104D90003C960FB6F894FEBF0FBEEDBFD7018C91C5
:104DA000081720F41F5F163008F4AFCFCA53DF4F47
:104DB0008881C65CD040853099F0863018F4843004
:104DC000B1F522C0883019F0893089F524C0FE0180
:104DD000E553FF4F8081882351F18150808327C0A4
:104DE000FE01E553FF4F408186E08D19242F30E00E
:104DF000280F311DC452DF4F888190E028173907F2
:104E0000B4F44F5F408313C0CA5BDE4F198218822F
:104E100085E297E206C0CA5BDE4F198218828AE1FA
:104E200098E29A938A93C657D04081E08883DF91B5
:104E3000CF911F910F91FF90EF90DF90CF90BF9097
:104E4000AF909F908F907F9008950F931F93CF9373
:104E5000DF93EC01FC01E253FF4F8081882309F4CA
:104E600040C01082C553DF4F81E08883CB5CD040C7
:104E70008E0104531F4FD8018C93C653DF4F888394
:104E8000CA5CD0400E94A106F80180810E9492076E
:104E9000FE01E452FF4FC352DF4F8BE699E0998346
:104EA0008883EC961882EA978CE599E09983888349
:104EB000EB961882E9978EE499E099838883EA96C5
:104EC0001882E8978FE399E099838883E99618829E
:104ED000CC51D14084E08083CE0184569F4F0E9404
:104EE0009408C553DF4FE881E15061968881CC5D1D
:104EF000D040E81718F000E010E009C0F0E0EE0F35
:104F0000FF1FEC0FFD1FE352FF4F0081118100D006
:104F100000D000D0EDB7FEB7319683E595E0ADB790
:104F2000BEB712969C938E93119785E190E0938380
:104F3000828386E799E0958384830E942338EDB7C6
:104F4000FEB736960FB6F894FEBF0FBEEDBFCE018A
:104F50000E94A60CCA53DF4F8881C65CD0408530C2
:104F6000E9F0863030F4833049F1843009F05DC0D7
:104F700050C0883021F0893009F057C04AC0C5536D
:104F8000DF4F8881CB5CD040823010F0815013C05D
:104F9000C452DF4F8881CC5DD0400DC0C553DF4F78
:104FA000988161968881CC5DD040981710F081E09F
:104FB00002C0892F8F5FC553DF4F36C0F9E00B3633
:104FC0001F0739F4CA5BDE4F1982188286E295E228
:104FD00026C089E00C35180739F4CA5BDE4F198208
:104FE000188280EE92E21BC099E00E34190739F462
:104FF000CA5BDE4F198218828FE491E210C00F5312
:10500000194099F4CA5BDE4F1982188288EE95E246
:1050100006C0CA5BDE4F198218828AE198E29A9331
:105020008A93C657D04081E08883DF91CF911F914A
:105030000F910895CF92DF92EF92FF920F931F93FB
:10504000CF93DF93EC01FC01E253FF4F8081882373
:1050500009F444C01082C653DF4F1882CA5CD040A6
:105060008E0104531F4F83E0F80180830E94A10644
:10507000F80180810E949207CE0184569F4F0E94C2
:105080009408DE01A655BF4F9C91953048F4FE016F
:10509000E90FF11DEB55FF4F82E380839F5F9C93E7
:1050A000DE01A655BF4F9C91953048F4FE01E90FF3
:1050B000F11DEB55FF4F84E380839F5F9C93DE01DE
:1050C000AD55BF4F9C91953048F4FE01E90FF11D9D
:1050D000E256FF4F81E380839F5F9C9300E08CEC5E
:1050E000C82ED12CCC0EDD1E18ECE12EF12CEC0ECE
:1050F000FD1E12C0F7018081FE01E40FF51F882319
:1051000019F0E053FF4F02C0EA52FF4FCE01602F6B
:1051100040810E94930A0F5F402F50E0F60180818A
:10512000282F30E0C901880F991F4817590714F339
:1051300084E190E0289FB001299F700D389F700D89
:105140001124CE016B96AE010E94CE0EC555DF4FE5
:105150008881C65CD0408A3009F44AC08B3020F484
:10516000893009F061C006C08B3049F18E3009F0FA
:105170005BC00CC0CA5BDE4F1982188285E297E2E1
:105180009A938A93C657D04081E04DC0C456DF4FF2
:105190008881CC59D040882319F480E090E009C080
:1051A000C356DF4F8881CD59D0408823E9F581E08F
:1051B00090E0C80FD91FC456DF4F8AE934C0C456E7
:1051C000DF4F8881CC59D040882319F480E090E0EB
:1051D00009C0C356DF4F8881CD59D040882321F5BF
:1051E00081E090E0C80FD91FC456DF4F81E51BC096
:1051F000C455DF4F81E0888360978881CC59D040C7
:10520000882319F480E090E009C0C356DF4F8881FD
:10521000CD59D040882341F481E090E0C80FD91FD8
:10522000C456DF4F82E78883DF91CF911F910F91A2
:10523000FF90EF90DF90CF900895EF92FF920F9341
:105240001F93CF93DF93EC01FC01E253FF4F80816A
:10525000882341F11082C653DF4F1882CA5CD040C8
:105260000E94A1068E0104531F4F81E0D8018C9348
:105270000E94A106F80180810E949207CE01845607
:105280009F4F0E949408DE01A655BF4F9C91953018
:1052900048F4FE01E90FF11DEB55FF4F8FE38083CA
:1052A0009F5F9C93FE01E053FF4FCE0160E0408181
:1052B0000E94930AFE01EF52FF4FCE0161E0408150
:1052C0000E94930A8091CC059BE7E92E95E0F92E88
:1052D000893140F100D000D000D0EDB7FEB7319653
:1052E000ADB7BEB71296FC92EE92119705E110E0B1
:1052F0001383028385EA99E0958384830E9423388F
:10530000EDB7FEB7319684E190E0E80EF91EADB737
:10531000BEB71296FC92EE9211971383028380E936
:1053200099E012C000D000D000D0EDB7FEB73196A2
:10533000ADB7BEB71296FC92EE92119785E190E060
:10534000938382838BE799E0958384830E9423383B
:10535000EDB7FEB736960FB6F894FEBF0FBEEDBFA1
:105360008091CC058F5F8093CC058881882371F074
:10537000CA5BDE4F198218828AE198E29A938A9377
:10538000C657D04081E088831092CC05DF91CF9141
:105390001F910F91FF90EF900895CF93DF93EC0151
:1053A0000E946909C452DF4F1882CC5DD040FE01D3
:1053B000E75EFE4F80E011928F5F8431E1F7C15CC0
:1053C000DE4F18822D972FE028831A926596198256
:1053D00018828AE198E29A938A93C857D04083E072
:1053E0008883229681E088832797199218822596D0
:1053F0001882229628832597199218822597188259
:10540000C65CD040CE0160E00E94CF09C753DF4F99
:105410001882CE56D04084E79AE0899399938CE71E
:105420009AE08993999385E89AE0899399938AE819
:105430009AE08993999382E99AE0899399938AE90A
:105440009AE08993999383EA9AE0899399938CEAF5
:105450009AE08993999385EB9AE0899399938DEBE0
:105460009AE08993999384EC9AE08993999389ECD3
:105470009AE0899399938DEC9AE08993999381EDC1
:105480009AE08993999388ED9AE09983888381E0E3
:105490000E945E07DF91CF910895CF93DF93EC01D7
:1054A0000E946909C452DF4F1882CC5DD040FE01D2
:1054B000E75EFE4F80E011928F5F8431E1F7C15CBF
:1054C000DE4F18822D972FE028831A926596198255
:1054D00018828AE198E29A938A93C857D04083E071
:1054E0008883229681E088832797199218822596CF
:1054F0001882229628832597199218822597188258
:10550000C65CD040CE0160E00E94CF09C753DF4F98
:105510001882CE56D04084E79AE0899399938CE71D
:105520009AE08993999385E89AE0899399938AE818
:105530009AE08993999382E99AE0899399938AE909
:105540009AE08993999383EA9AE0899399938CEAF4
:105550009AE08993999385EB9AE0899399938DEBDF
:105560009AE08993999384EC9AE08993999389ECD2
:105570009AE0899399938DEC9AE08993999381EDC0
:105580009AE08993999388ED9AE09983888381E0E2
:105590000E945E07DF91CF9108951F93CF93DF9311
:1055A000EC018091D0058F5F8093D0058F3048F05B
:1055B000FE01E853FF4F808191E08927808310929C
:1055C000D0058091CF058F5F8093CF05853048F05F
:1055D000FE01E953FF4F808191E08927808310927B
:1055E000CF058091D1058F5F8093D105882321F06D
:1055F0000E94DA061092D1050E94DD05882359F039
:10560000813009F480E0CA53DF4F8883C65CD04004
:1056100082E00E945E07CF57DF4F8881C158D0409B
:10562000823019F082E00E945E07FE01E153FF4FD5
:1056300080818F3010F48F5F8083E3E5F5E080E2B6
:10564000819395E0EC3CF907D9F7CA5BDE4F2881DE
:105650003981C654D140DE01AC5BBE4F20FF10C083
:10566000F901F595E795EC0FFD1F0190F081E02D14
:105670008D919C91E80FF91F0190F081E02D02C0FF
:10568000ED91FC9135952795CE01820F931F0995D9
:10569000CA53DF4F188223961881C95CD04011236A
:1056A00049F5C953DF4F8881C75CD040882309F48E
:1056B00057C000D000D000D0EDB7FEB7319683E5DB
:1056C00095E0ADB7BEB712969C938E93119784E187
:1056D00090E0938382838FE59AE0958384830E9490
:1056E00023388DB79EB706960FB6F8949EBF0FBEAF
:1056F0008DBF36C08091CE05882391F5C456DF4F0B
:105700008881CC59D040882319F4E0E0F0E009C04A
:10571000C356DF4F8881CD59D040882341F4E1E062
:10572000F0E0EC0FFD1FE456FF4F8FE38083C4567B
:10573000DF4F8881CC59D040882319F4E0E0F0E0B5
:1057400009C0C356DF4F8881CD59D040882341F42A
:10575000E1E0F0E0EC0FFD1FE456FF4F8FE38083A4
:105760001093CE05C453DF4F83E595E068810E9416
:105770000F080E940A07DF91CF911F910895FC0145
:10578000662311F1268187812430C1F02630B1F0E3
:105790002930A1F02B3091F0223049F490E0837051
:1057A0009070892B11F08CE10AC08DE108C0215066
:1057B0002C3010F48FE103C080E001C08EE1861729
:1057C00018F0658381E0089580E2858380E0089584
:1057D000CF93DF93EC01663309F43BC2673390F457
:1057E000623319F1633338F4603309F4DBC0613399
:1057F00009F05CC3F5C0643309F443C1653309F0B3
:1058000055C322C26F3309F4CFC1603438F4673313
:1058100009F429C2683309F049C32AC2613F09F477
:105820002CC2623F09F042C361C2AD81BE81EA81F0
:10583000FB814481842F90E024E0959587952A95FB
:10584000E1F79C01F3E0220F331FFA95E1F7880F8F
:10585000991F280F391F4F70420F443618F41C96B9
:105860004C9302C01C961C92AD81BE81EA81FB81E3
:105870004581842F90E074E0959587957A95E1F7BE
:105880009C0163E0220F331F6A95E1F7880F991F8F
:10589000280F391F4F70420F842F81508C3018F41D
:1058A0001B964C9303C08DE01B968C93EA81FB8181
:1058B00066818D819E81262F30E0F4E03595279515
:1058C000FA95E1F7A901E3E0440F551FEA95E1F7E6
:1058D000220F331F420F531F6F70640F05960E94F3
:1058E000BF2BAD81BE81EA81FB814781842F90E08F
:1058F00024E0959587952A95E1F79C01F3E0220F26
:10590000331FFA95E1F7880F991F280F391F4F7041
:10591000420F483118F419964C9303C089E1199647
:105920008C93AD81BE81EA81FB814085842F90E01C
:1059300074E0959587957A95E1F79C0163E0220FD5
:10594000331F6A95E1F7880F991F280F391F4F7091
:10595000420F4C3318F418964C9303C08DE31896FD
:105960008C93AD81BE81EA81FB814185842F90E0DB
:1059700024E0959587952A95E1F79C01F3E0220FA5
:10598000331FFA95E1F7880F991F280F391F4F70C1
:10599000420F4C3318F417964C93A1C18DE3179620
:1059A0008C939DC1EA81FB81AD81BE81AF57BF4F12
:1059B0008481873008F086E08C93AD81BE81EA81D6
:1059C000FB8185818D3018F4AE57BF4F8C93ED81EC
:1059D000FE81ED57FF4FAA81BB8116968C9141C184
:1059E000AD81BE81EA81FB81908980E02189AC0193
:1059F000420F511D9A01CA0140E005C080FD05C05B
:105A00004F5F969587950097C9F7A758BF4F4D935D
:105A100011963C932E93AA57B04080E004C020FD1D
:105A20008F5F3695279521153105C9F7A458BF4FCB
:105A30008C93AD81BE81EA81FB81928980E02389CC
:105A4000820F911D9C0140E005C020FD06C04F5F04
:105A50003695279521153105C1F7A358BF4F4D93B2
:105A600011969C938E93AE57B04020E004C080FD09
:105A70002F5F969587950097D1F7A058BF4F2C932D
:105A80002EC1EA81FB818481882309F00FC2AD8198
:105A9000BE81958180E02681820F911D53E0883E72
:105AA000950720F458969C938E935797AD81BE81AD
:105AB000EA81FB81978180E02085820F911D23E0A0
:105AC000883E920720F456969C938E935597AD810D
:105AD000BE81EA81FB8131858285343680F46AE0BB
