:100000000C94C7190C942D1A0C942D1A0C942D1ABB
:100010000C942D1A0C942D1A0C942D1A0C942D1A44
:100020000C942D1A0C942D1A0C942D1A0C942D1A34
:100030000C9473A00C942D1A0C942D1A0C94A6A059
:100040000C942D1A0C942D1A0C94679F0C94079FF6
:100050000C943E9F0C942D1A0C942D1A0C942D1A6E
:100060000C942D1A0C942D1A0C942D1A0C942D1AF4
:100070000C942D1A0C942D1A0C94D89F0C94D09E8D
:100080000C9420A00C942D1A0C942D1A00C18140C0
:1000900001C0804101C0804100C1814001C0804158
:1000A00000C1814000C1814001C0804101C0804148
:1000B00000C1814000C1814001C0804100C1814038
:1000C00001C0804101C0804100C1814001C0804128
:1000D00000C1814000C1814001C0804100C1814018
:1000E00001C0804101C0804100C1814000C1814008
:1000F00001C0804101C0804100C1814001C08041F8
:1001000000C1814000C1814001C0804101C08041E7
:1001100000C1814000C1814001C0804100C18140D7
:1001200001C0804101C0804100C1814000C18140C7
:1001300001C0804101C0804100C1814001C08041B7
:1001400000C1814000C1814001C0804100C18140A7
:1001500001C0804101C0804100C1814001C0804197
:1001600000C1814000C1814001C0804101C0804187
:1001700000C1814000C1814001C0804100C1814077
:1001800001C0804101C0804100C1814000C0C10167
:10019000C30302C2C60607C705C5C404CC0C0DCDF7
:1001A0000FCFCE0E0ACACB0BC90908C8D81819D967
:1001B0001BDBDA1A1EDEDF1FDD1D1CDC14D4D51597
:1001C000D71716D6D21213D311D1D010F03031F187
:1001D00033F3F23236F6F737F53534F43CFCFD3DB7
:1001E000FF3F3EFEFA3A3BFB39F9F83828E8E929A7
:1001F000EB2B2AEAEE2E2FEF2DEDEC2CE42425E557
:1002000027E7E62622E2E323E12120E0A06061A1C6
:1002100063A3A26266A6A767A56564A46CACAD6D76
:10022000AF6F6EAEAA6A6BAB69A9A86878B8B979E6
:10023000BB7B7ABABE7E7FBF7DBDBC7CB47475B516
:1002400077B7B67672B2B373B17170B05090915106
:100250009353529296565797559594549C5C5D9D36
:100260005F9F9E5E5A9A9B5B995958988848498926
:100270004B8B8A4A4E8E8F4F8D4D4C8C44848545D6
:100280008747468682424383418180405669727423
:1002900075616C00C0C2C0CDD220CECFD2CE2D258C
:1002A00064256425642DCE00C0C2C0CDD220CA34DE
:1002B00030302D25642564C200C0C2C0CDD220D00C
:1002C000C7D1CA2D2564256425642DC200C0C2C0D3
:1002D000CDD220D0343030EC2D3130302DC2002042
:1002E000C8E7ECE5EDE8F2FC20EFE0F0E0ECE5F249
:1002F000F02020002020ECEEE6EDEE20F2EEEBFC0C
:10030000EAEE20E220202020002020F0E5E6E8ECC4
:10031000E520C2DBC2C5C4C5CD20202020000000DE
:10032000000000ECC0000000C000000000EAC000B7
:100330000000C200000000EAC2000000ECF1000072
:10034000006300000000F7E0F10000E4C1000000DD
:10035000C3F6000000EAC3F60000E3F0E0E40000AA
:100360002D25642E256425530025642E25642553F0
:10037000002564255300F7F2E5EDE8E52E2E00F7A1
:10038000F2E5EDE8E52E00256400EEF8E8E1EAE0AC
:1003900021212100C7EDE0F7E5EDE8E53A20002551
:1003A000642E2EB1256425530025642E2EB12564BC
:1003B00025530025642E2E25640025642E2E2564E9
:1003C000255300E2EAEB2E2FE2FBEAEB2E00F1EFE1
:1003D000E8F1EEEA00C4E8E0EFE0E7EEED3A2000F5
:1003E000CDEEECE5F03A2025752F257500CFE0F035
:1003F000E0ECE5F2F03A257520C2F1E5E3EE3A25AE
:100400007500C2FBE2E5E4E5ED00C3EEF2EEE200CA
:100410000000C2E2E5E4E5ED0000D0E5F7FC0000F5
:100420000000D2E5F1F200000000D2E5F1F2000098
:100430000000EEF8E8E1EAE00000202020000000E3
:10044000000000000000203120000000000000003B
:1004500000002032200000000000000000003120D9
:1004600032000000000000000000203320000000E7
:1004700000000000000031203300000000000000F8
:100480000000322033000000000000000000203F88
:1004900020000000000000000000CFF0E5E4F3EFD2
:1004A000F02E2025632D2530345800CDE5E8F1EFFE
:1004B000F02E2025632D2530345800443D25303260
:1004C00064E4C100253032753A253032753A253062
:1004D000327500253032752E253032752E2530329A
:1004E000750053E43D25303275B00055F8323D2596
:1004F000303264E4C10055F8313D25303264E4C146
:100500000055F83D25303264E4C10055EA323D25FE
:10051000303264E4C10055EA313D25303264E4C133
:100520000055EA3D25303264E4C10055E7323D25EF
:10053000303264E4C10055E7313D25303264E4C116
:100540000055E73D25303264E4C100523D2530338B
:1005500075CEEC00493D25303375ECC000553D2586
:100560003032752E25303175C200CDEEE2FBE92028
:10057000EFE0F0EEEBFC3A202530347500CFE0F0F0
:10058000EEEBFC3A2025303475002020202020207E
:1005900020C2E2E5E4E5ED202020202020200020FC
:1005A000202020EDE5EFF0E0E2E8EBFCEDFBE920B8
:1005B0002020200020202020202020EFE0F0EEEB63
:1005C000FC2020202020202000C2E2EEE43A20255A
:1005D0003031752E2530317500C2E2EEE43A202527
:1005E00030316400C2E2EEE43A20255300E2FBEA37
:1005F000EB2E00000000000000CAD7000000000041
:100600000000000000CAD731000000000000000018
:1006100000CAD732000000000000000000CAD73333
:10062000000000000000000000CAD73400000000F5
:100630000000000000CAD7310000000000000000E8
:1006400000CAD73120F120E1EBEEEA0000CAD73230
:10065000000000000000000000CAD73220F120E1B5
:10066000EBEEEA0000D0C700000000000000000030
:1006700000CAEEECE0EDE4E03100000000CAEEEC70
:10068000E0EDE4E03200000000CAEEECE0EDE4E072
:100690003300000000CAEEECE0EDE4E034000000BE
:1006A00000CAEEEC312BE1EBEEEA000000CAEEEC02
:1006B000322BE1EBEEEA000000CAEEEC332BE1EB6B
:1006C000EEEA000000CAEEEC342BE1EBEEEA0000AB
:1006D00000CAEEECE0EDE4E03100000000CAEEEC10
:1006E000E0EDE4E03200000000CAEEECE0EDE4E012
:1006F0003300000000CAEEECE0EDE4E0340000005E
:1007000000CAEEECE0EDE4E03500000000CAEEECDB
:10071000E0EDE4E03600000000CAEEECE0EDE4E0DD
:100720003700000000CAEEECE0EDE4E03800000025
:1007300000CAEEECE0EDE4E03900000000CAEEECA7
:10074000E0EDE4E03130000000CAEEECE0EDE4E082
:100750003131000000CAEEECE0EDE4E0313200009F
:1007600000CAEEECE0EDE4E03133000000CAEEEC4C
:10077000E0EDE4E03134000000CAEEECE0EDE4E04E
:100780003135000000CAEEECE0EDE4E03136000067
:1007900000CAEEECE0EDE4E03137000000CAEEEC18
:1007A000E0EDE4E03138000000CAEEECE0EDE4E01A
:1007B0003139000000CAEEECE0EDE4E03230000038
:1007C00000CAEEECE0EDE4E03231000000CAEEECED
:1007D000E0EDE4E03232000000CAEEECE0EDE4E0EF
:1007E0003233000000CAEEECE0EDE4E03234000009
:1007F00000CAEEECE0EDE4E03235000000CAEEECB9
:10080000E0EDE4E03236000000CAEEECE0EDE4E0BA
:100810003237000000CAEEECE0EDE4E032380000D0
:1008200000CAEEECE0EDE4E03239000000CAEEEC84
:10083000E0EDE4E03330000000CAEEECE0EDE4E08F
:100840003331000000CAEEECE0EDE4E033320000AA
:1008500000CAD720E820D0C70000000000CAD73166
:1008600020E820D0C700000000CAD73220E820D0FE
:10087000C700000000CAD73320E820D0C70000001E
:1008800000CAD73420E820D0C700000000EEF8E806
:10089000E1EAE0000000000000C7EDE0F7E5EDE868
:1008A000E53A2000CFD0CC323A2000CFD0CC313A3C
:1008B0002000D1E8E3EDE0EBFB20EFF0E8E5ECED24
:1008C000E8EAE000D2E5F1F2FB5CCFF0E8E5ECED20
:1008D000E8EA00D1E8E3EDE0EBFB20EFE5F0E5E44A
:1008E000E0F2F7E8EAE000D2E5F1F2FB5CCFE5F0F8
:1008F000E5E4E0F2F7E8EA0020202020CFE5F0E58B
:10090000E9E4E8F2E520E220202020200020202059
:10091000F0E5E6E8EC20C2DBC2C5C4C5CD2020204E
:10092000200025642E20D2E5F1F220EFF0E8E5EC7E
:10093000EDE8EAE00025642E20D2E5F1F220EFE5B3
:10094000F0E5E4E0F2F7E8EAE000CDE0F1F2F0EE05
:10095000E9EAE05CD2E5F1F2FB0025642E20D1E566
:10096000EAF3EDE4FB0025642E20CCE8EDF3F2FB86
:100970000025642E20D7E0F1FB0025642E20C4E57D
:10098000EDFC0025642E20CCE5F1FFF60025642E59
:1009900020C3EEE400CDE0F1F2F0EEE9EAE05CC263
:1009A000F0E5ECFF26E4E0F2E000CDE0F1F2F0EE5D
:1009B000E9EAE05CC8EDF2E5F0F4E5E9F100CFE04A
:1009C000F0E0ECE5F2F0FB5CCEE1F9E8E500CFE029
:1009D000F0E0ECE5F2F0FB5CCFE5F0E5E4E0F2F707
:1009E000E8EA00CFE0F0E0ECE5F2F0FB5CCFF0E805
:1009F000E5ECEDE8EA00CFE0F0E0ECE5F2F0FB5CDE
:100A0000C7E0F9E8F2E00025642E20CEE1F9E8E540
:100A10000025642E20CFE5F0E5E4E0F2F7E8EA00F7
:100A200025642E20CFF0E8E5ECEDE8EA0025642E01
:100A300020C7E0F9E8F2E000CDE0F1F2F0EEE9EAFB
:100A4000E05CCFE0F0E0ECE5F2F0FB00C2FBE2E5B9
:100A5000E4E5ED0000000000C2E2E5E4E5ED0000A1
:100A600000000000D2E5F1F220310000000000009B
:100A7000D2E5F1F22032000000000000CDE0F1F2FA
:100A8000F0EEE9EAE05CD0E5E6E8EC0025642E2033
:100A9000C8EDF2E5F0F4E5E9F10025642E20CFE0A1
:100AA000F0EEEBFC0025642E20CFE0F0E0ECE5F268
:100AB000F0FB0025642E20C2F0E5ECFF20E820E4E6
:100AC000E0F2E00025642E20D0E5E6E8EC00CCE57D
:100AD000EDFE5CCDE0F1F2F0EEE9EAE00025642EF7
:100AE00020D1E1F0EEF120F3E4E0EBE5ED2E203350
:100AF0000025642E20D1E1F0EEF120F3E4E0EBE5F7
:100B0000ED2E20320025642E20D1E1F0EEF120F30D
:100B1000E4E0EBE5ED2E20310025642E20C0CA2054
:100B2000E2EAEBFEF7E5ED0025642E20CFF3F1EAD3
:100B300020F3E4E0EB2DFBF520CCC0CD0025642EA6
:100B400020CFF3F1EA20F3E4E0EB2E20CCC0CD205F
:100B5000330025642E20CFF3F1EA20F3E4E0EB2EFE
:100B600020CCC0CD20320025642E20CFF3F1EA2026
:100B7000F3E4E0EB2E20CCC0CD20310025642E2004
:100B8000CFF3F1EA20F3E4E0EBE5EDEDFBF5002532
:100B9000642E20CFF3F1EA20F3E4E0EBE5EDED2E57
:100BA00020330025642E20CFF3F1EA20F3E4E0EBBC
:100BB000E5EDED2E20320025642E20CFF3F1EA2062
:100BC000F3E4E0EBE5EDED2E20310025642E20D19D
:100BD000E1F0EEF120F3E4E0EBE5EDEDFBF50025CF
:100BE000642E20C0CA20E1E5E3EBFBE90025642E7A
:100BF00020C0CA20EDEEF0ECE0EBFCEDFBE90025B7
:100C0000642E20C0CA20E8F1EFFBF2E0EDE8FF001F
:100C100025642E20C0CA20E2FBEAEBFEF7E5ED00DA
:100C200025642E20C0CA20F3F1EAEEF0E5EDEDFBDD
:100C3000E90025642E20C0CA20E0E2F2EEECE0F2EA
:100C4000E8F7E5F1EA2E0025642E20CFF3F1EA2043
:100C5000CFD0C40025642E20CFF3F1EA20C0CA20F3
:100C6000F3E4E0EBE5EDED2E0025642E20CFF3F16B
:100C7000EA20C0CA20F1E2EEE90025642E20D1E18D
:100C8000F0EEF120C0CA0025642E20C0CA20EAEE92
:100C9000EDF2F02EEFF0EEE2E5F02E0025642E20CE
:100CA000CFF3F1EA20F3E4E0EBE5ED2E20CCC0CD6C
:100CB0000025642E20C0CA20EFF3F1EA0025642E3F
:100CC00020CFF3F1EA20EDE0EBE0E42E20E2FBEAB6
:100CD000EB0025642E20CFF3F1EA20EDE0EBE0E419
:100CE0002E20E2EAEB2E0025642E20C2FBE7EEE286
:100CF0000025642E20D1E1F0EEF120F3E4E0EBE5F5
:100D0000EDEDEEE3EE0025642E20D1E1F0EEF120D2
:100D1000F1E2EEE5E3EE0025642E20CFF3F1EA20C8
:100D2000F3E4E0EBE5EDEDEEE3EE00CCE5EDFE5CAB
:100D3000D3EFF0E0E2EBE5EDE8E500C7E0EFE8F146
:100D4000FC202575202F202575202825752900C712
:100D5000E0EFE8F1FC202575202F20257500C6D393
:100D6000D0CDC0CB20CFD3D1D200D1D7C8D2DBC217
:100D7000C0CDC8C520C7C0CFC8D1C800CAEEECE0FE
:100D8000EDE4E03A20257500000000000028D6D1EF
:100D9000290028CED82900C4E0F2E03A20253032DC
:100DA000752E253032752E2530327500C2F0E5ECF7
:100DB000FF3A20253032753A253032753A253032E7
:100DC000752E2530337500CAEEECE0EDE4E020EF3F
:100DD000E5F0E5E4E0E5F2F1FF00CAEEECE0EDE479
:100DE00020EDE5F200CEEAEEEDF7E0EDE8E520EAF1
:100DF000EEECE0EDE4FB00000000CDE0F7E0EBEE10
:100E000020EAEEECE0EDE4FB00000000000000CE84
:100E1000F8E8E1EEF7EDEEE520E7EDE0F7E5EDE8E7
:100E2000E5000000C6F3F0EDE0EB5CCFE5F0E5E4B3
:100E3000E0F2F7E8EA00C6F3F0EDE0EB5CCFF0E8B3
:100E4000E5ECEDE8EA00D1EEF1F2EEFFEDE8E53A8F
:100E500000CF2564D12564CC256420CFC42564CF80
:100E6000CC2564C2DBD5256400C6F3F0EDE0EB5C75
:100E7000C7E0F9E8F2E000D0E5E6E8EC3A00D1EEB0
:100E8000E1FBF2E8E5202D202564000000000000D1
:100E9000000000CDE5E8F1EFF020F7F22FE7E0EFFA
:100EA00020464C4153480000C2D720F2F0E0EAF25D
:100EB00020E2EEF1F1F2E0EDEEE2EB2E00CDE5E81E
:100EC000F1EFF020F7F22FE7E0EF20CFCBC8D10011
:100ED0000000C0E2F2EEEAEEEDF2F0EEEBFC000014
:100EE00000000000000000D2EEEA20EFEEEAEEFF84
:100EF000000000000000000000000000CDE5E8F167
:100F0000EFF020F7F22FE7E0EF203252414D0000E2
:100F100000CDE5E8F1EFF020F0E0E1EEF2FB204457
:100F2000535000000000C2EEF1F1F2E0ED2DE5209B
:100F3000F0E0E1EEF2FB2044535000CDE8E7EAEEAA
:100F4000E520EDE0EFF02E20E2FBF5EEE4E000001E
:100F5000C2FBF1EEEAEEE520EDE0EFF02E20E2FB41
:100F6000F5EEE4E000CDE0F0F3F8E5ED20EEE1ECA5
:100F7000E5ED20F120D3CC000000CDE5E8F1EFF065
:100F8000E0E2EDEEF1F2FC20F7E0F1EEE20000CD60
:100F9000E5F220E1EBEEEAE020C1D1C7000000005D
:100FA00000000000CEF8E8E1EAE020E2E5F0F1E838
:100FB000E820C1D1C700000000CDE5E8F1EFF02046
:100FC000EFE5F0E5EAEB2DE5E920C1D1C700CDE57D
:100FD000F220F1E8E3EDE0EBE020CCC0CD00000032
:100FE000000000C2EAEB2EEFE8F22FCFE5F0E5E7D4
:100FF000E0EFF3F1EA000000C8E7ECE5EDE5EDE82D
:10100000E520F0E5E6E8ECE00000000000CDE5E8D2
:10101000F1EFF020E7E0EF2E20E2FBF52EF6E5EF12
:10102000E800CEF8E8E120EAEEEDF2F02E20E2FB57
:10103000F52EF6E5EFE800C0CA202D20D1EDE8E658
:10104000E5EDE8E520E7E0EFE0F1E000C0CA202DA3
:1010500020CDE5F220EEF2E2E5F2E0000000000033
:1010600000CEF2F1F3F22DE520F1E8E3EDE0EBE064
:1010700020CFF3F1EA00CEF2F1F3F22DE520F1E812
:10108000E3ED20CEF1F2E0EDEEE200C2FBEAEBFE92
:10109000F7E5EDE8E520E0EFEFE0F0E0F2E000005A
:1010A000CFEEECE5F5E020E220EBE8EDE8E800002B
:1010B0000000000000CDE5E8F1EFF0E0E2EDEEF138
:1010C000F2FC20C4D4C700000000D3E43A20C0CA18
:1010D000202D20EDE5F220EEF2E2E5F2E00000D373
:1010E000E43A20CFEEECE5F5E020E220EBE8EDE895
:1010F000E8000000D3E43A20CDE5E8F1EFF02E203F
:10110000C4D4C7000000000000D3E43A20CDE5E8D5
:10111000F1EFF02E20F6E5EFE820E2FBF500CFEE50
:10112000F0EEE320EFEE20EFEEECE5F5E500000059
:10113000000000D1EEE1FBF2E8E5202D202564005F
:101140000000000000000000D1EEE1FBF2E8E52025
:101150002D203000000000000000000000C2EAEB7B
:101160002E20EFE8F2E0EDE8FF2FEFE5F0E5E7E015
:10117000EF00C2FBEAEBFEF7E5EDE8E520EFE8F271
:10118000E0EDE8FF000000C8E7ECE5EDE5EDE8E59F
:1011900020F0E5E6E8ECE020F0E0E100C8E7ECE56F
:1011A000EDE5EDE8E520EFE0F0E0ECE5F2F0EEE271
:1011B00000CDE5E8F1EFF020F2E5F1F2E020CFD04C
:1011C000C40000000000CDE5E8F1EFF020F2E5F109
:1011D000F2E020CFD0CC0000000000D1EEE1FBF225
:1011E000E8E5202D2037000000000000000000008E
:1011F000CDE5E8F1EFF020E1EBEEEAE020C1D1CA65
:101200000000000000C8E7ECE5EDE5EDE8E520E4CE
:10121000E0F2E02FE2F0E5ECFF00D1EEE1FBF2E8D6
:10122000E5202D203130000000000000000000D13A
:10123000EEE1FBF2E8E5202D203131000000000056
:1012400000000000D1EEE1FBF2E8E5202D20313274
:10125000000000000000000000C0E2E0F0E8FF2015
:10126000EFEE204400000000000000000000CFF07E
:10127000E5E4F3EFF0E5E6E4E5EDE8E520EFEE2068
:10128000440000CDE5E8F1EFF020F7F2E5EDE8FFEE
:1012900020EAEEECE0EDE400C2EEF1F1F2E0EDEE7A
:1012A000E2EBE5EDE8E520440000000000CDE5E8D4
:1012B000F1EFF02E20F0E0E1EEF2FB20445350007D
:1012C0000000C2EEF1F1F2E0ED2DE520F0E0E1EEFC
:1012D000F2FB2044535000CDE8E7EAEEE520EDE0D4
:1012E000EFF02E20E2FBF5EEE4E00000C2FBF1EEB1
:1012F000EAEEE520EDE0EFF02E20E2FBF5EEE4E093
:1013000000CDE5F220CAD7203520F1E5EA20EDE056
:10131000202553000000CDE5F220CAD720EDE020C3
:101320002553000000000000000000C2EEF1F1F2C1
:10133000E0ED2DE520CAD720EDE020255300000088
:10134000C2EEF1F1F22EF3F02E20CAD720EDE0200C
:101350002553000000CDE5E8F1EFF020F7F22FE78C
:10136000E0EF203252414D000000CDE5E8F1EFF012
:1013700020F7F22FE7E0EF20CFCBC8D1000000CD5F
:10138000E5E8F1EFF020F7F22FE7E0EF20464C41DF
:1013900053480000CDE5E8F1EFF0E0E2EDEEF1F2C8
:1013A000FC20F7E0F1EEE20000D1EDE8E62EF3F0EC
:1013B0002E20CAD720EDE020255300000000CEF8F3
:1013C000E8E1EAE020F0E0E1EEF2FB20D6D1000017
:1013D000000000C2F5EEE420525820D6D120EFF3F1
:1013E000F1F2000000000000D0E0E1EEF2E020D6D3
:1013F000D120E2EEF1F1F2E0EDEEE2EB00D1EEE130
:10140000FBF2E8E5202D202564000000000000002C
:101410000000C7C0D90000CFD0CC3100CFD0CC3233
:1014200000CFD0C40000CEC1D90000CF312C320093
:10143000CED8C10000D1EEE1FBF2E8E5202D202559
:1014400064000000000000000000C2EAEB2E20EF64
:10145000E8F2E0EDE8FF2FEFE5F0E5E7E0EF00C2AE
:10146000FBEAEBFEF7E5EDE8E520EFE8F2E0EDE87A
:10147000FF000000C8E7ECE5EDE5EDE8E520F0E56C
:10148000E6E8ECE020F0E0E100D1EEE1FBF2E8E597
:10149000202D202564000000000000000000CDE5A4
:1014A000E8F1EFF020F2E5F1F2E020CFD0C4000047
:1014B000000000CDE5E8F1EFF020F2E5F1F2E020E8
:1014C000CFD0CC0000000000CDE5E8F1EFF020E146
:1014D000EBEEEAE020C1D1C70000000000CDE5E856
:1014E000F1EFF020E1EBEEEAE020C1D1CA0000000C
:1014F0000000CDE5E8F1EFF020EFE5F0E5EAEB2DB7
:10150000E5E920C1D1C700CDE5F220F1E8E3EDE047
:10151000EBE020ECE0EDE8EFF3EB2E00CDE5E8F1B9
:10152000EFF020E2FBF5EEE4EDEEE920F6E5EFE882
:1015300000CDE5F220D0C7203520F1E5EA20EDE02E
:10154000202553000000CEF2F1F3F22DE520F1E862
:10155000E3EDE0EBE020CFF3F1EA00CEF2F1F3F2BD
:101560002DE520F1E8E3EDE0EBE020D1F2EEEF0035
:10157000CDE5E8F1EFF020F7F2E5EDE8FF20EAEE47
:10158000ECE0EDE400D1EDE8E62E20F3F02E20CAE9
:10159000D720EDE0202553000000CDE5E8F1EFF085
:1015A0002E20F0E0E1EEF2FB20445350000000C298
:1015B000EEF1F1F2E0ED2DE520F0E0E1EEF2FB20BE
:1015C00044535000CDE8E7EAEEE520EDE0EFF02EE1
:1015D00020E2FBF5EEE4E00000C2FBF1EEEAEEE50E
:1015E00020EDE0EFF02E20E2FBF5EEE4E000CDE5AB
:1015F000F220CAD7203520F1E5EA20EDE02025537E
:10160000000000CDE5F220CAD720EDE020255300F0
:101610000000000000000000C2EEF1F1F2E0ED2D4C
:10162000E520CAD720EDE0202553000000C2EEF1EE
:10163000F1F22E20F3F02ECAD720EDE02025530042
:101640000000CDE5E8F1EFF020F7F22FE7E0EF2022
:101650003252414D000000CDE5E8F1EFF020F7F205
:101660002FE7E0EF20CFCBC8D1000000CDE5E8F1B7
:10167000EFF020F7F22FE7E0EF20464C415348000F
:1016800000CDE5E8F1EFF0E0E2EDEEF1F2FC20F75D
:10169000E0F1EEE20000D1EDE8E62E20F3F02E209E
:1016A000D0C720EDE0202553000000C2EEF1F1F29A
:1016B000E0ED2DE520D0C720EDE02025530000000F
:1016C000CDE5F220D0C720EDE0202553000000003A
:1016D0000000000000C2EEF1F1F22E20F3F02ED057
:1016E000C720EDE0202553000000D1EEE1FBF2E839
:1016F000E5202D202564000000000000000000D13E
:10170000EEE1FBF2E8E5202D20256400000000005A
:1017100000000000CDE5E8F1EFF020F7F22FE7E060
:10172000EF20464C4153480000CDE5E8F1EFF020B2
:10173000F7F22FE7E0EF203252414D000000CDE5F7
:10174000E8F1EFF020F7F22FE7E0EF20CFCBC8D1A0
:10175000000000CAEEEBFCF6EE20EDE0F0F3F8E559
:10176000EDEE000000000000CDE5E8F1EFF020F222
:10177000E5F1F2E020CFD0C40000000000CDE5E8A4
:10178000F1EFF020E2FBEAEB2EF2E5F1F220CFD010
:10179000C400CDE5E8F1EFF020F2E5F1F2E020CF72
:1017A000D0CC0000000000CDE5E8F1EFF020F7F22A
:1017B0002EEAEEECE0EDE420C1D1CA00CDE5F22046
:1017C000E1EBEEEAE020C1D1CA0000000000000019
:1017D00000CEF8E8E1EAE020E2E5F0F1E8E820C137
:1017E000D1CA00000000CEF2EAE0E720F0E5E7E52C
:1017F000F0E22E20EBE8EDE8E80000CDE5E8F1EFBF
:10180000F0E0E2EDEEF1F2FC20F7E0F1EEE20000B4
:10181000CDE5F220E1EBEEEAE020C1D1C700000007
:101820000000000000CEF8E8E1EAE020E2E5F0F197
:10183000E8E820C1D1C700000000CDE5E8F1EFF0F5
:1018400020EFE5F0E5EAEB2DE5E920C1D1C700CDB9
:10185000E5F220F1E8E3EDE0EBE020CCC0CD0000C4
:1018600000000000C2EAEB2EEFE8F22FCFE5F0E532
:10187000E7E0EFF3F1EA000000C8E7ECE5EDE5EDA5
:10188000E8E520F0E5E6E8ECE00000000000CDE54A
:10189000E8F1EFF020E7E0EF2E20E2FBF52EF6E591
:1018A000EFE800CEF8E8E120EAEEEDF2F02E20E2DB
:1018B000FBF52EF6E5EFE800CFF0EEEFE0EB20CA07
:1018C000D1000000000000000000000000CDE5F2A3
:1018D00020CAD1203520F1E5EAF3EDE40000000054
:1018E0000000CEF2F1F3F22DE520F1E8E3EDE0EBBC
:1018F000E020CFF3F1EA00CEF2F1F3F22DE520F192
:10190000E8E3ED20CEF1F2E0EDEEE200C2FBEAEB1F
:10191000FEF7E5EDE8E520EFE8F2E0EDE8FF000096
:1019200000CFF0EEEFE0EB20CAD100000000000095
:10193000000000000000CDE5F220CAD1203520F1E2
:10194000E5EAF3EDE4000000000000D3E43A20EF04
:10195000EEF1F220EDE5E8F1EFF0E0E2E5ED000078
:10196000D3E43A20CFD0C420EDE5E8F1EFF0E0E297
:10197000E5ED000000D3E43A20CFD0CC20EDE5E83F
:10198000F1EFF0E0E2E5ED000000C8E7ECE5EDE5A1
:10199000EDE8E520E4E0F2E02FE2F0E5ECFF00C83E
:1019A000E7ECE5EDE5EDE8E520EFE0F0E0ECE5F271
:1019B000F0EEE200D1EEE1FBF2E8E5202D20256417
:1019C000000000000000000000C6F3F0EDE0EB5C5A
:1019D000D1EEE1FBF2E8FF0025642E20CFE5F0E533
:1019E000E4E0F2F7E8EA0025642E20CFF0E8E5EC29
:1019F000EDE8EA0025642E20C7E0F9E8F2E00025D2
:101A0000642E20D1EEE1FBF2E8FF00CCE5EDFE5CB8
:101A1000C6F3F0EDE0EB00C1D1CF20CCCA2020000E
:101A2000C1D1CF20D6D1CF2000CFC82020CCCA2012
:101A30002000C1D1CA20CFD0C43100C1D1CA20CF2B
:101A4000D0C43200C1D1CA20CFD0CC3100C1D1CA5C
:101A500020CFD0CC3200C1D1C720CFCBC8D100EE2F
:101A6000F8E8E1EAE000000025533A20253032583A
:101A70002E2530325800CCE5EDFE5CC8EDF4EEF0DA
:101A8000ECE0F6E8FF0025642E20C8EDF4EEF0EC63
:101A9000E0F6E8FF0025642E20D2E5F1F2FB0025F8
:101AA000642E20CDE0F1F2F0EEE9EAE00025642EAC
:101AB00020D3EFF0E0E2EBE5EDE8E50025642E2031
:101AC000C6F3F0EDE0EB00CCE5EDFE00C0C2C0CD0A
:101AD000D220D03430300000CFC2C72D39300000C2
:101AE00000000000C0C2C7CA2D383000000000004E
:101AF000CFC2C7D32DC5000000000000CFC2C7CBA6
:101B00000000000000000000CBC8CDC8DF2DD000D1
:101B100000000000CFC2C7CA0000000000000000A3
:101B2000C0CA2DEEF8E8E10000C0CA2DEDEEF0ECE1
:101B30000000C0CA2DEDEEF0EC0000C0CA2DF3F19C
:101B4000EAEEF000C0CA2DE2FBEAEB0000C0CA2DAD
:101B5000E1E5E3EB0000C0CA2DE8F1EFFBF200C0C5
:101B6000CA2DEFF3F1EA0000C0CA2DEEE4EDEEF16C
:101B700000C0CA2DEEF8E8E10000C0CA2DE0E2F294
:101B8000EE0000C0CA2DEFF0EEE20000D1EEE2EC74
:101B9000E5F1F2E8EC2E20255300253032643A2599
:101BA0003032643A253032640020202020C8EDE82D
:101BB000F6E8E0EBE8E7E0F6E8FF20202000202050
:101BC00020EDE520EEEFF0E5E4E5EBE5ED21212168
:101BD00020200020202020D2E8EF20E0EFEFE0F0EE
:101BE000E0F2E02020202000CFF0E5E4F3EFF0E584
:101BF000E6E4E5EDE8E500CDE5E8F1EFF0E0E2ED63
:101C0000EEF1F2FC00CFD0C420CAD12530317500EE
:101C1000CDE5F220CAD100CFD0CC20CAD1253031B9
:101C20007500CDE5F220CAD100CDE5E8F1EFF02E48
:101C3000F7F22E20464C41534800CDE5E8F1EFF095
:101C40002EE7E0EF2E464C41534800CDE5E8F1EF9A
:101C5000F02EF7F22E20504C495300CDE5E8F1EF7D
:101C6000F02EE7E0EF2E504C495300CDE5E8F1EFC0
:101C7000F02EE7E0EF2E3252414D00CDE5E8F1EFD6
:101C8000F02EF7F22E203252414D2000D3F1F2E037
:101C9000EDEEE2E8F2E520F7E0F1FB00CEF2EAE05B
:101CA000E720F0E5E7E5F0E22EEBE8ED00CAEEEB29
:101CB000FCF6EE203120EDE0F0F3F82E00CAEEEB5A
:101CC000FCF6EE203220EDE0F0F3F82E00D3E4E055
:101CD000EB2ECFCED1D220EDE5E8F1EFF000D3E44A
:101CE000E0EB2ECFD0C420EDE5E8F1EFF000D3E437
:101CF000E0EB2ECFD0CC20EDE5E8F1EFF000CDE524
:101D0000F220E1EBEEEAE020C1D1C700CDE5E8F139
:101D1000EFF02EE2E5F0F12EC1D1C700CDE5E8F1FC
:101D2000EFF02EEFE5F0E5EAEB2E00CDE5F220F145
:101D3000E8E3EDE0EBE020CFD0CC00CDE5E8F1EF3B
:101D4000F02EE2F5EEE42ECFD3D1CA00CDE5E8F1D6
:101D5000EFF02EE2F5EEE42ED1D2CECF00CDE5E8C5
:101D6000F1EFF02EF6E5EFFC20C2DBD500CDE5E883
:101D7000F1EFF02EE7E0EF2E20C2DBD500CDE5F24B
:101D800020CAD100CDE5F220F1E8E3EDE0EBE02060
:101D9000CCC0CD00CDE5F220E1EBEEEAE020C1D1F0
:101DA000CA00CDE5E8F1EFF02EE2E5F0F12E20C11A
:101DB000D1CA00CDE5F220CAD100CDE5E8F1EFF0BF
:101DC0002EE7E0EF2E20C1D1CA00CDE5E8F1EFF01B
:101DD0002EE2FBEAEB2EEAEEEC2E00CDE5E8F1EF89
:101DE000F02EE2EAEB2E20EAEEEC2E00CDE5E8F153
:101DF000EFF02EEAEEEDF2F02EEAEEEC00CDE5F299
:101E000020CAD100CDE5F220E1EBEEEAE020C1D11D
:101E1000CA00CDE5E8F1EFF02EE2E5F0F12E20C1A9
:101E2000D1CA00CDE5E8F1EFF02EF7F22EEAEEECA4
:101E3000E0EDE400CDE5E8F1EFF02EE2FBEAEB2E79
:101E4000D2E5F1F200CDE5E8F1EFF02EE2EAEB2E7B
:101E500020D2E5F1F200CDE5E8F1EFF02EE2F5EE6B
:101E6000E42E20EAEEEC00CFD0C420CAD7253031D2
:101E70007500CDE5F220CAD700CFD0CC20CAD72537
:101E800030317500CDE5F220CAD700C0CA2DCDE5AE
:101E9000F220EEF2E2E5F2E000C0CA2DD1EDE8E674
:101EA000E5ED2EE7E0EFE0F1E000CFEEECE5F5E068
:101EB00020E220EBE8EDE8E800CDE5E8F1EFF02ED8
:101EC000445350203252414D2000D2EEEA20EFEE32
:101ED000EAEEFF00CDE8E7EAEEE520EDE0EFF02ED8
:101EE000E2FBF500C2FBF1EEEAEEE520EDE0EFF0FB
:101EF0002EE2FBF500CDE5E8F1EFF02E20CCCA2074
:101F0000D3CC00C2D720F2F0E0EAF220E2EEF1F109
:101F1000F22E00C0CA2DCDE5F220EEF2E2E5F2E0AD
:101F2000255300CDE5E8F1EFF02EF3E42EC4D4C73D
:101F3000255300CDE5E8F1EFF02EF3E42EC2DBD51A
:101F4000255300D3E4E0EB2EE1E5E720EEF2E22EAC
:101F5000255300D3E4E0EB2EEEE1ED2EEFEEEC2E78
:101F6000255300CFEEECE5F5E020E220EBE8EDE8CC
:101F7000E800CDE5E8F1EFF02E20C4D4C700C0CAD8
:101F80002DD1ED2EE7E0EFE0F1E020255300CFEE7C
:101F9000F0EEE320EFEE20EFEEECE5F5E500C0E239
:101FA000F2EEEAEEEDF2F0EEEBFC00CDE5F220F120
:101FB000E8E3EDE0EBE020D0C700CDE8E7EAE8E9B0
:101FC00020F3F0EEE22E20D0C700CDE5F220CAD7F4
:101FD00000D1EDE8E62E20F3F0EEE2EDFF20CFD0C9
:101FE000CC00CEF8E8E1EAE020F0E0E1EEF2FB2000
:101FF000D6D100C2F5EEE420525820D6D120EFF31E
:10200000F1F200CDE8E7EAE8E920F3F0EEE2E5EDF1
:10201000FC204400CEF8E8E1EAE020F0E0E1EEF256
:10202000FB20D6D100C2F5EEE420525820D6D120B4
:10203000EFF3F1F200CDE8E7EAE8E920F3F0EEE2B1
:10204000E5EDFC20440020CDE5F220F1E2FFE7E8D9
:1020500020F120C1D1CF2121212000C8F1F5EEE4EB
:10206000ED2E00CAEEEDF2F0EEEBFC00CFF3F1EA5C
:1020700000CEF1F2E0EDEEE200CDE5E8F1EFF02E7A
:1020800000CF2EEDE5E8F1EFF000CEE6E8E4E0ED7C
:10209000E8E500CDE0EB2EEFF3F1EA00D3E42EEF1C
:1020A000F3F1EA00CDE5F220D0C700D0E5F7FC005F
:1020B000CFD0C400CFD0CC00D3EFF02E20D2CC00B4
:1020C000CEF8E8E1EAE000C8F1F5EEE4ED2E00CF4D
:1020D000D0CC20CFC02530327500CDE5E8F1EFF04F
:1020E0002E00CF2EEDE5E8F1EFF000CEE6E8E4E0DB
:1020F000EDE8E500C1CBCA20CACC25303275003FDF
:10210000307830383F003F307830393F00D0E5F745
:10211000FC00CFD0C400CFD0CC00D3EFF02E20D223
:10212000CC00C8F1F5EEE4ED2E00CFD0C420CFC036
:102130002530327500CDE5E8F1EFF02E00CF2EED21
:10214000E5E8F1EFF000CEE6E8E4E0EDE8E5003F99
:10215000307830373F00CFD0C420D6D1253032750B
:1021600000D1E8F1F2E5EC2E00D0E5F7FC00CFD08D
:10217000C400CFD0CC00D3EFF02E20D2CC00202250
:1021800047226E229522BC22E3220A2331235823C0
:102190007F23A623CD23F4231B24422469249024E7
:1021A000B724DE2405252C2553257A25A125C8250D
:1021B000EF2516263D2664268B26B226D926002733
:1021C00027274E2775279C27C327EA271128382859
:1021D0005F288628AD28D428FB2822294929702980
:1021E0009729BE29E5290C2A332A5A2A812AA82AA6
:1021F000CF2AF62A1D2B442B6B2B922BB92BE02BCD
:10220000072C2E2C552C7C2CA32CCA2CF12C182DF1
:10221000CFD0C400CFD0CC00C7C0D900CDC5D2002C
:1022200000000000000000000000000000000000AE
:102230000000000000000001005F03010000010039
:1022400001010000000001D1E8EDF5F0EEEDE8E756
:10225000E0F6E8FF20F7E0F1EEE2000035010100D2
:102260003F2D010000020001010201000001CDEE3E
:10227000ECE5F020E0EFEFE0F0E0F2E0000000003D
:102280000000003B0202005F0301010003000101A6
:102290000100020001CAEEEDF2F0EEEBFC20E2FBE1
:1022A000F52EF1E8E3EDE0EBE0003D0101003F2D0C
:1022B000010000020001010100000001CFEEF0EE7C
:1022C000E320EFF0E5E4F3EFF0E5E6E4E5EDE8FF29
:1022D000003C0202095F0301000016000101030136
:1022E000000001CFEEF0EEE320EFF0E5E4F3EFF0D5
:1022F0002E20EFEE20CAD7003C0202095F03010046
:1023000000160001010301000001C2F0E5ECFF200E
:10231000EFE5F0E5E7E0EFF3F1EAE0000000003977
:102320000202075F03010000050001010100000037
:1023300001D3E4E5F0E62E20F0E5EBE520EAEEEC53
:102340002E20CFD0C400370101003F2D0100000234
:102350000001010201000001D3E4E5F0E62E20F0C7
:10236000E5EBE520EAEEEC2E20CFD0CC00360101E3
:10237000003F2D010000020001010100000001C723
:10238000E0E3F0F3E1EB2E20F7F3E2F1F2E22E20AE
:10239000CFD0CC003C0202095F030200001600010E
:1023A000010301000101D1E5F2E5E2EEE920E0E4FC
:1023B000F0E5F10000000000000000380202005FBC
:1023C00003010100F7000101010000000155E2FBDB
:1023D000F520EDEEECE8EDE0EBFCEDEEE5000000C5
:1023E0000000360202045F03011200320001010105
:1023F00000000001D7E0F1F2EEF2E0000000000082
:102400000000000000000000003A02030B5F03011F
:102410001000E80301010400000001D1EEE2ECE548
:10242000F1F2E8ECEEF1F2FC000000000000000028
:1024300037010000CC1A0100000700010102010071
:102440000001D1EDE8E6E5EDE8E520EEF2E2E5F2A7
:10245000E020C0CA000000390202095F0301000049
:10246000140001010301000001D2E8EF20E4E5F2CD
:10247000E5EAF2EEF0E000000000000000003502A6
:1024800002005F03010100030001010202000001DC
:10249000CAEEF0F0E5EAF6E8FF20EDE0EFF0FFE647
:1024A000E5EDE8FF00330304045F0301A8FD5802D3
:1024B00001010601000000CAEEF0F0E5EAF6E8FFCF
:1024C00020F2EEEAE0000000000000003304050105
:1024D0005F030119FCE70301010702000000CFF0D0
:1024E000EEF2EEEAEEEB20EEE1ECE5EDE0000000CE
:1024F00000000039010000572D0101000200010118
:102500000301000001CFF0E8E7EDE0EA20F7E5F293
:10251000EDEEF1F2E80000000000390100006F2D3F
:10252000010100020001010302000001C4EEEFF30B
:10253000F1F2E8ECFBE520EFF0EEE2E0EBFB00006F
:10254000003902020C5F0301000050000201030386
:10255000000001CFEEF0EEE320EFEE20EFEEECE531
:10256000F5E5000000000000390202075F030100EA
:1025700000FF0001010304000001C4EEEFF3F1F2DB
:10258000E8ECE0FF20EFEEECE5F5E00000000039BC
:1025900002020C5F03011400500014010305000047
:1025A00001D2E8EF20E0E2F2EEEAEEEDF2F0EEEB3F
:1025B000FF000000000039010000872D0101000329
:1025C0000001010306000001CFE5F0E8EEE420E1A0
:1025D000E5E3EBEEE3EE20C0CA00000000390202A2
:1025E000075F03010100FF0001010307000001CFA5
:1025F000E5F0E8EEE420EFEEE2F22EE1E5E3EB2E8B
:1026000020C0CA00390202075F03010100FF000178
:10261000010308000001D0E5E7E5F0E2E8F0EEE2B2
:10262000E0EDE8E500000000000000330101003F9C
:102630002D010000020001010301000001D1EEE2C2
:10264000ECE5F1F2E8ECEEF1F2FC00000000000035
:10265000000037010000AB2D0100000B000101025A
:1026600002000001D2E8EF20EBE8EDE8E80000000E
:10267000000000000000000000020100002F2E01F9
:102680000100020001010100000001D2E5EBE5ECD0
:10269000E5F5E0EDE8EAE0000000000000000000E1
:1026A000370101003F2D010000020001010203007B
:1026B0000001CFEEF0EEE320EFF0E5E4F3EFF02ED3
:1026C00020EFEE20440000370202095F0301C0FF43
:1026D000400001010204000001CFEEF0EEE320E033
:1026E000E2E0F0E8E820EFEE2044000000003702CE
:1026F00002095F0301C0FF40000101020500000163
:10270000D2E8EF20E7E0F9E8F2FB0000000000006B
:10271000000000000001010000472E010000080039
:1027200001010100000001C4EEEF2E20E2F0E5EC13
:10273000FF20E1E5E720ECE0ED2E000003020208B7
:102740005F03010000630001010100000001CFE50B
:10275000F0E5EAF0FBF2E8E520E8ECEFF3EBFCF162
:10276000EEE2000502020C5F0301000036000201E8
:102770000100000001CFE5F0E5EAF0FBF2E8E5201A
:10278000E8ECEFF3EBFCF1EEE2000502020C5F0374
:10279000011200360002010100000001CFE5F0E562
:1027A000EAF0FBF2E8E520E8ECEFF3EBFCF1EEE217
:1027B000000502020C5F0301000036000101010068
:1027C000000001CAEEECEFE5EDF1E0F6E8FF20E7EE
:1027D000E0E4E5F0E6EAE8000402020C5F03020030
:1027E00000120002010200000101CAEEECEFE5ED6B
:1027F000F1E0F6E8FF20E7E0E4E5F0E6EAE80004CF
:1028000002020C5F0302000012000101020000013D
:1028100001CFEEF0EEE320EFF0E5E4F3EFF02E2051
:10282000EFEE20D0C700090202095F03010000108B
:102830000001010100000001C7E0E3F0F3E1EBE576
:10284000EDE8E520F7F3E2F1F2E2E8F20006020239
:10285000095F03010000200001010100000001C721
:10286000E0E3F0F3E1EB2E20F7F3E2F1F2E22E20C9
:10287000D0C70000060202095F0302000020000129
:10288000010300000101D2E8EF20EFF0E8E5ECEDF4
:10289000E8EAE0000000000000000007010000A7D7
:1028A0002E010000030001010100000001D1EDE84C
:1028B000E6E5EDE8E520F3F0EEE2EDFF20C0CA002A
:1028C0000000070101003F2D01000002000101018D
:1028D00000000001D7E0F1F2EEF2E020CFD0C4001A
:1028E00000000000000000000008010000CB2E01E5
:1028F0000000050001010100000001D7E0F1F2EE47
:10290000F2E020CFD0CC000000000000000000006A
:1029100009010000CB2E01000005000101010000AB
:102920000001D1E4E2E8E320EFE5F02EF4F0EEED73
:10293000F2E020CFD0C4000502020C5F03010000CA
:10294000480001010201000001D1E4E2E8E320E7D0
:10295000E0E42EF4F0EEEDF2E020CFD0C40005026A
:10296000020C5F03010000480001010202000001A7
:10297000D1E4E2E8E320CFD0CC000000000000006A
:1029800000000000000502020C5F03010000480087
:1029900001010203000001D1E4E2E8E320C2D720F4
:1029A000CFD0C420EEF220CFD3D1CA000502020C52
:1029B0005F03010000480001010204000001C7E0BC
:1029C000E4E5F0E6EAE020F1F0E0E1E0F22E20CFED
:1029D000D0C400210202065F0301000014000101BF
:1029E0000100000001C4EBE8F2E5EBFCEDEEF1F2D2
:1029F000FC20EAEEECE0EDE4FB00220202065F03BD
:102A0000011E00640001010100000001C4EBE8F2B6
:102A1000E5EBFCEDEEF1F2FC20EAEEECE0EDE4FBA0
:102A200000220202065F03011E00F4010A0A0100EF
:102A3000000001D2E5F1F2EEE2E0FF20EAEEECE088
:102A4000EDE4E00000000000260101003F2D010040
:102A500000020001010100000001D1EBE5E4FFF9F3
:102A6000E8E520EAEEECE0EDE4FB000000000025E4
:102A70000501003F2D2000000200010105000002B9
:102A800001C1EBEEEAE8F0EEE22E20EAEEECE0ED3A
:102A9000E4FB00000000240501003F2D200000029F
:102AA0000001010500000201D2F0E0EDF1EBFFF6BC
:102AB000E8FF20D6D100000000000000002701013F
:102AC000003F2D010000020001010100000001C1D2
:102AD000EBEEEAE8F0EEE22E20EAEEECE0EDE4FBCD
:102AE00020D6D100280501003F2D20000002000162
:102AF000010500000201CAEEEBE8F7E5F1F2E2EEB3
:102B000020EAEEECE0EDE4000000002C0202005FA1
:102B100003010400200004040100000001CAEEEBE0
:102B2000E8F7E5F1F2E2EE20EAEEECE0EDE420C0B9
:102B30000000290202005F030100002000010101E2
:102B400000010001C7E0E4E5F0E6EAE020EDE02066
:102B5000F4E8EAF12EEAEEEC00110202065F03014E
:102B60000000050001010100000001C1EBEEEAE8F0
:102B7000F0EEE22E20EAEEECE0EDE4FB00000000D7
:102B8000140501003F2D2000000200010105000096
:102B90000301C7E0E4E5F0E6EAE020EDE020E2FB37
:102BA000EAEB2EEAEEEC00130202065F03200000BF
:102BB000E803320A0300000301D2F0E0EDF1EBFF7D
:102BC000F6E8FF20D6D10000000000000000170149
:102BD00001003F2D01000002000101010000000181
:102BE000C1EBEEEAE8F0EEE22E20EAEEECE0EDE4F6
:102BF000FB20D6D100180501003F2D200000020067
:102C000001010500000301CAEEECE0EDE4E020C2A2
:102C1000D720E220D6D100000000000019020200F7
:102C20005F03200100200001010300000301CAEE40
:102C3000EBE8F7E5F1F2E2EE20EAEEECE0EDE4009D
:102C40000000001C0202005F0301040020000404D5
:102C50000101000001C8EDF2E5F0F4E5E9F120F131
:102C6000E2FFE7E800000000000000010000072F7D
:102C7000010000020001010000000000CFF0EEF2B0
:102C8000EEEAEEEB00000000000000000000000093
:102C900000000100001F2F010000030001010000DF
:102CA000000000D1EAEEF0EEF1F2FC20EFE5F0E5F5
:102CB000E4E0F7E80000000000010000432F0100FD
:102CC00000060001010000000000C1E8F2FB20E462
:102CD000E0EDEDFBF500000000000000000000004A
:102CE0000100008B2F010000010001010000000025
:102CF00000D7E5F2EDEEF1F2FC000000000000006C
:102D000000000000000000010000972F01000003F8
:102D10000001010000000000D1F2EEEFEEE2FBE561
:102D200020E1E8F2FB0000000000000000000100CC
:102D300000BB2F010000020001010000000000E2C2
:102D4000FBEAEB2E00000000000000E2EAEB2E00A0
:102D500000000000000000E1FBF1F2F0FBE90000E0
:102D6000000000ECE5E4EBE5EDEDFBE9000000E23E
:102D7000EAEB2E0000000000000000E2FBEAEB2E70
:102D800000000000000000F2F0E5E2EEE6EDFBE9F5
:102D9000000000EDEEF0ECE0EBFCEDFBE90000F1F3
:102DA000EFEEEAEEE9EDFBE9000000C0C2C0CDD2D3
:102DB00000000000000000C0C2C0CDD220CFD0C4AF
:102DC000000000C0C2C0CDD220CFD0CC000000C0D7
:102DD000CACFC020CFD0C400000000C0CACFC020DE
:102DE000CFD0CC00000000CAC5C4D020CFD0C400D2
:102DF000000000CAC5C4D020CFD0CC00000000D352
:102E0000CFCA2DD620CFD0C4000000D3CFCA2DD634
:102E100020CFD0CC000000C2D7D2CE20CFD0C4006B
:102E2000000000C2D7D2CE20CFD0CC0000000032AC
:102E300020EAEEEDF6E5E2E0FF00003320EAEEEDF9
:102E4000F6E5E2E0FF0000C4D4C72DCFF0CFE400E8
:102E5000000000C4D4C72DCCCA310000000000C45B
:102E6000D4C72DCCCA320000000000C4D4C72D4CFA
:102E700036300000000000CDC72DCFF0CFE40000B9
:102E8000000000CDC72DCCCA00000000000000CF1C
:102E9000CFC72DCFF0CFE400000000CFCFC72DCC9F
:102EA000CA000000000000E0EAF22BEFE0F1F100C0
:102EB000000000E0EAF2E8E2EDFBE900000000EFCC
:102EC000E0F1F1E8E2EDFBE90000002D31303030B7
:102ED000C3F600000000002D353030C3F6000000BE
:102EE00000000030C3F60000000000000000002BCE
:102EF000353030C3F60000000000002B3130303098
:102F0000C3F600000000005553420000000000001E
:102F1000000000525334383500000000000000D19A
:102F2000D2C0CDC4C0D0D2000000004D4F444255A5
:102F300053000000000000CCDDCA2D31303100000C
:102F400000000036303000000000000000000031BA
:102F50003230300000000000000000323430300019
:102F60000000000000000034383030000000000095
:102F70000000003936303000000000000000003151
:102F8000393230300000000000000038000000003E
:102F900000000000000000EDE5F20000000000006D
:102FA000000000F7E5F2000000000000000000ED66
:102FB000E5F7E5F20000000000000031000000002D
:102FC00000000000000000320000000000000000CF
:102FD00000000001080106030704050101010E0BB2
:102FE000090101010A010801060307010504010F97
:102FF0000C10091112130D01080106030701050445
:10300000010F0C0B090D0E01010108010603070455
:10301000050101010E0B090101010A000000000079
:1030200000004F00000007000700147F147F1424E5
:103030002A7F2A122313086462364955224000056C
:10304000030000001C2241000041221C0014083E25
:10305000081408083E080800503000000808080856
:1030600008006060000020100804023E5149453EFF
:1030700000427F400042615149462141454B311891
:1030800014127F1027454545393C4A4949300171A2
:103090000905033649494936064949291E0036368D
:1030A00000000056360000081422410014141414C5
:1030B0001400412214080201510906324971413EAF
:1030C0007E1111117E7F494949363E414141227F9F
:1030D0004141221C7F494949417F090909013E417B
:1030E00049493A7F0808087F00417F41002040415C
:1030F0003F017F081422417F404040407F020C0284
:103100007F7F0408107F3E4141413E7F0909090647
:103110003E4151215E7F09192946464949493101FD
:10312000017F01013F4040403F1F2040201F3F40A2
:1031300070403F6314081463070870080761514921
:103140004543007F41410002040810200041417FB7
:10315000000402010204404040404000010204001B
:1031600020545454787F48444438384444442038E8
:103170004444487F3854545418087E0901020C52C4
:1031800052523E7F0804047800447D4000204044B1
:103190003D007F1028440000417F40007C0418045B
:1031A000787C0804047838444444387C14141408A7
:1031B000081414187C7C080404084854545420044F
:1031C0003F4440203C4040207C1C2040201C3C4090
:1031D00030403C44281028440C5050503C44645427
:1031E0004C44000836410000007F000000413608D2
:1031F00000020102020114141414140E0A0E00003D
:1032000024242F24247F7F7F7F7F7F7F7F7F7F7F8A
:103210007F7F7F7F7F7F7F7F7F7F7F7F7F7F7F7FBE
:103220007F7F7F7F7F7F7F7F7F7F7F7F7F7F7F7FAE
:103230007F7F7F7F7F7F7F7F7F7F7F7F7F7F7F7F9E
:103240007F7F7F7F7F7F7F7F7F7F7F7E1111117EDA
:103250007F494949337F494949367F01010103E0EC
:10326000514F41FF7F4949494177087F08774149DC
:103270004949367F1008047F7C2112097C7F08149D
:10328000224120413F017F7F020C027F7F08080816
:103290007F3E4141413E7F0101017F7F09090906CF
:1032A0003E4141412201017F010147281008071CCE
:1032B000227F221C63140814637F404040FF0708EC
:1032C00008087F7F407F407F7F407F40FF017F482D
:1032D00048307F4830007F007F48483022414949CC
:1032E0003E7F083E413E462919097F2054545478B8
:1032F0003C4A4A49317C545428007C0404040CE0C4
:10330000544C44FC38545454186C107C106C444495
:103310005454287C2010087C7C4122117C7C10288D
:10332000440020443C047C7C0810087C7C10101075
:103330007C38444444387C0404047C7C1414140811
:10334000384444442004047C04040C5050503C3065
:1033500048FC483044281028447C404040FC0C1075
:1033600010107C7C407C407C7C407C40FC047C5089
:1033700050207C5050207C7C5050200028445454D5
:10338000387C10384438085434147C00979F11243A
:103390001FBECFEFD0E1DEBFCDBF80B58B7F80BD3C
:1033A0009FEF9ABB1BBA17BA98BB80EE84BB8FE124
:1033B00085BB80E381BB8FEC82BB80EC82B993B983
:1033C0008EE08093610081EF809362001092640030
:1033D0009093650017BE8BE083BF88E181BF87B7FC
:1033E000826087BF1FBC8CE08EBD10927A001DBC2E
:1033F0001CBC80E792E09BBD8ABD87B7806187BF18
:103400002CE088E190E00FB6F894A89581BD0FBE3E
:1034100021BD11E0A0E0B1E0E4E8FDE401E00BBF74
:1034200002C007900D92AA35B107D9F71AE0AAE5B4
:10343000B1E001C01D92AD3FB107E1F713E3CEE863
:10344000D3E304C02297FE010E9479A3CC38D107B0
:10345000C9F70E94DCA10C94C0A60C940000FC01EA
:10346000662311F1208581852430C1F02630B1F02A
:103470002930A1F02B3091F0223049F490E0837094
:103480009070892B11F08CE10AC08DE108C02150A9
:103490002C3010F48FE103C080E001C08EE186176C
:1034A00018F0678381E0089580E2878380E00895C3
:1034B000FC01CB0120E005C080FD05C02F5F969583
:1034C00087950097C9F7E05AFF4F21937183608376
:1034D000E156F04080E004C060FD8F5F769567950F
:1034E00061157105C9F7ED59FF4F808381E008959B
:1034F000FC01CB0120E005C080FD05C02F5F969543
:1035000087950097C9F7EC59FF4F2193718360832A
:10351000E556F04080E004C060FD8F5F76956795CA
:1035200061157105C9F7E959FF4F808381E008955E
:10353000FC0185A5833019F491E081E208C0823056
:1035400091F0813081F0882361F09FEF80E069176E
:1035500028F0861718F067A781E0089587A780E014
:1035600008958EE0F6CF82E0F4CF0F931F93CF93B0
:10357000DF938C01EB01FC01F896A0E050E089910B
:10358000808341E020E030E0682F70E0842F90E0FD
:1035900086239723892B09F0AF5F440F2F5F3F4F9E
:1035A0002830310599F75F5F3196543041F7F801C3
:1035B000A4AF81E0DF91CF911F910F910895FC019D
:1035C000262F30E0C90144E0969587954A95E1F7AA
:1035D000817081ABC901B5E096958795BA95E1F701
:1035E000817082ABC901A6E096958795AA95E1F70F
:1035F000817083ABC9018170907084ABC9019695CD
:103600008795817085AB16AA23703070232B11F03B
:1036100081E086AB67AB81E00895FC0120E0CB013F
:103620008070907C892B09F021E0EF5BFF4F2083B5
:103630007F7392918291FF978617970710F480E02D
:103640000895DF01AE5BBF4F222331F096AF85AF07
:103650006D937C9381E0089576AF65AF1D921C92C7
:1036600081E00895FC01633069F4818D928D892B8E
:1036700031F48789908D892B11F4528F418F508FAF
:10368000478B0895662369F483A594A5892B31F4AB
:1036900081A592A5892B11F454A743A752A741A74E
:1036A0000895613069F485A196A1892B31F483A135
:1036B00094A1892B11F456A345A354A343A30895C1
:1036C000623061F4878D90A1892B31F4858D968DC0
:1036D000892B11F450A3478F568F458F0895662389
:1036E00079F020E031E070E02F5F832F90E08623B7
:1036F0009723892B11F0822F0895330F2830A1F7DB
:1037000080E00895EF92FF920F931F93CF93DF9382
:10371000EC01FB01808180FF02C082E02CC081FFB0
:1037200002C083E028C07B010894E11CF11CCE019B
:103730006181D5DF882311F08E5E1DC087010F5F88
:103740001F4FCE01F7016181CADF882311F0865E29
:1037500012C078010894E11CF11CCE01F8016181CE
:10376000BEDF882311F08E5D06C0CE01F7016181B6
:10377000B6DF8111865DDF91CF911F910F91FF9090
:10378000EF9008951F93FB0110811F7061816F708E
:1037900049F0A5DF12FF02C0865F24C013FF21C0DD
:1037A000825F20C01123E9F0E12FF0E0CF018670A5
:1037B0009070069711F488E015C0CF018A70907060
:1037C0000A9711F489E00EC0CF01857090700597BB
:1037D00011F486E007C0E970F070399711F487E0C2
:1037E00001C080E01F910895FC018285868380E0FE
:1037F0000895FF920F931F93CF93DF93EC016230F4
:10380000C1F5AC81BD81EA81FB818481882349F0C7
:10381000833038F4AA56BF4F8C93A659B04021E0AC
:1038200002C083E020E0AA56BF4F8C934C815D819B
:10383000EA81FB819481892F8150823010F094E0DD
:103840000AC0FA01E55FFD4F8081891711F491E00C
:1038500002C0908392E0EC81FD81E55FFD4F8081A5
:103860008F5FB496808391FF54C2EC81FD811082FA
:1038700050C26A30D1F5AC81BD81EA81FB8194816F
:10388000892F8150893010F0FF2405C0A956BF4F01
:103890009C93FF24F3940C811D81EA81FB81658157
:1038A00076818781908528EE33E040E050E00E94E9
:1038B00055A3C901DA0181362AEE920720E0A2075A
:1038C00020E0B20710F080E006C008561F4FF80154
:1038D0009183808381E090E02F2D30E0822B932B29
:1038E00020E0892B09F415C224C1613C69F5AA8145
:1038F000BB8114960D911C911597EC81FD81EC54C0
:10390000FD4F11830083E45BF24013968C91139773
:10391000843048F016964D915C911797CF018357EC
:103920009D4F60E09FDEEC81FD81E654FD4F80817C
:10393000EA5BF240882309F0EBC1CF0183579D4F2A
:10394000B8016BDE282FE5C1623C09F0E1C1EC81D2
:10395000FD81E654FD4F8081EA5BF240882309F047
:10396000D7C1442309F0D4C18181AA81BB818530AC
:1039700009F0E1C016968C91282F30E074E035955F
:1039800027957A95E1F7A90163E0440F551F6A95E1
:10399000E1F7220F331F420F531F8F70840FEA5637
:1039A000FD4F843610F4808301C01082AC81BD814C
:1039B000EA81FB814781842F90E004E0959587950B
:1039C0000A95E1F79C0113E0220F331F1A95E1F7E6
:1039D000880F991F280F391F4F70420F842F815075
:1039E000AB56BD4F8C3010F44C9302C08DE08C93DD
:1039F000EA81FB8160858C819D81262F30E0E4E0A7
:103A000035952795EA95E1F7A90173E0440F551F15
:103A10007A95E1F7220F331F420F531F6F70640F27
:103A200083579D4F1CDDAC81BD81EA81FB814185BF
:103A3000842F90E014E0959587951A95E1F79C0105
:103A4000F3E0220F331FFA95E1F7880F991F280F33
:103A5000391F4F70420FAE56BD4F483110F44C9392
:103A600002C089E18C93AC81BD81EA81FB814285F2
:103A7000842F90E074E0959587957A95E1F79C0105
:103A800063E0220F331F6A95E1F7880F991F280F13
:103A9000391F4F70420FAF56BD4F4C3310F44C934B
:103AA00002C08DE38C93AC81BD81EA81FB814385AB
:103AB000842F90E024E0959587952A95E1F79C0165
:103AC00003E0220F331F0A95E1F7880F991F280F93
:103AD000391F4F70420FA057BD4F4C3310F44C9319
:103AE00002C08DE38C93EA81FB81948580E025857B
:103AF000820F911DEC81FD81E257FD4F23E0883E4E
:103B0000920710F088EE93E091838083EA81FB8135
:103B10008C819D8165816F7024812295207F620F49
:103B200083579D4F4CDDEC81FD81EA52FD4F81E0D2
:103B3000808321E0EEC053968C91282F30E0A4E0E2
:103B400035952795AA95E1F7A90173E0440F551F14
:103B50007A95E1F7220F331F420F531F8F70840FA6
:103B6000EA56FD4F843610F4808301C01082AC8188
:103B7000BD81EA81FB814289842F90E024E0959504
:103B800087952A95E1F79C0103E0220F331F0A95E0
:103B9000E1F7880F991F280F391F4F70420F842FAC
:103BA0008150AB56BD4F8C3010F44C9302C08DE069
:103BB0008C93EA81FB8161898C819D81262F30E085
:103BC000F4E035952795FA95E1F7A901E3E0440F74
:103BD000551FEA95E1F7220F331F420F531F6F70F5
:103BE000640F83579D4F3BDCAC81BD81EA81FB8133
:103BF0004785842F90E064E0959587956A95E1F775
:103C00009C0153E0220F331F5A95E1F7880F991F4B
:103C1000280F391F4F70420FAE56BD4F483110F478
:103C20004C9302C089E18C93AC81BD81EA81FB8118
:103C30004685842F90E014E0959587951A95E1F7D5
:103C40009C01F3E0220F331FFA95E1F7880F991FCB
:103C5000280F391F4F70420FAF56BD4F4C3310F431
:103C60004C9302C08DE38C93AC81BD81EA81FB81D2
:103C70004585842F90E074E0959587957A95E1F7D6
:103C80009C0163E0220F331F6A95E1F7880F991FAB
:103C9000280F391F4F70420FA057BD4F4C3310F4FF
:103CA0004C9302C08DE38C93EA81FB81948580E084
:103CB0002385820F911DEC81FD81E257FD4F23E0AA
:103CC000883E920710F088EE93E091838083AC8168
:103CD000BD81EA81FB818481A554BD4F863008F007
:103CE00086E08C93EA81FB818C819D8167816F7076
:103CF00025812295207F620F83579D4F60DC8C8148
:103D00009D81EA81FB8183579D4F668111DC0BCF3A
:103D100020E0822FDF91CF911F910F91FF900895A6
:103D20000F931F93CF93DF93EC01613DD9F1623D77
:103D300009F464C06C3109F03EC2AC81BD811196BA
:103D40008C911197833011F090E026C0EA81FB81BD
:103D50009481990F990F913210F024E001C020E076
:103D6000FD01E45FFE4F8081891719F4922F916065
:103D70000BC09083FD01E55FFE4F1082992311F087
:103D800081E08083922F9260EC81FD81E45FFE4FA1
:103D90008081EF5DFE4F808391FF0DC2EC81FD813C
:103DA000108209C2AA81BB8114960D911C911597AE
:103DB000EC81FD81E255FD4F11830083EE5AF24004
:103DC00013968C911397843048F016964D915C9120
:103DD0001797CF0183579D4F61E044DCEC81FD8153
:103DE000E654FD4F8081EA5BF240813009F0E3C187
:103DF000CF0183579D4FB80110DCDEC1EC81FD81FE
:103E0000E654FD4F8081EA5BF240813009F0D3C176
:103E1000442309F0D0C18181AA81BB81853009F09A
:103E2000D6C018968C91282F30E074E035952795F0
:103E30007A95E1F7A90163E0440F551F6A95E1F710
:103E4000220F331F420F531F8F70840FEA56FD4F0E
:103E5000843610F4808301C01082AC81BD81EA8178
:103E6000FB814185842F90E004E0959587950A9524
:103E7000E1F79C0113E0220F331F1A95E1F7880F39
:103E8000991F280F391F4F70420F842F8150AB5656
:103E9000BD4F8C3010F44C9302C08DE08C93EA81BE
:103EA000FB8162858C819D81262F30E0E4E0359591
:103EB0002795EA95E1F7A90173E0440F551F7A951C
:103EC000E1F7220F331F420F531F6F70640F8357A8
:103ED0009D4FC5DAAC81BD81EA81FB814385842F8A
:103EE00090E014E0959587951A95E1F79C01F3E031
:103EF000220F331FFA95E1F7880F991F280F391FFA
:103F00004F70420FAE56BD4F483110F44C9302C073
:103F100089E18C93AC81BD81EA81FB814485842F4A
:103F200090E074E0959587957A95E1F79C0163E0C0
:103F3000220F331F6A95E1F7880F991F280F391F49
:103F40004F70420FAF56BD4F4C3310F44C9302C02C
:103F50008DE38C93AC81BD81EA81FB814585842F03
:103F600090E024E0959587952A95E1F79C0103E080
:103F7000220F331F0A95E1F7880F991F280F391F69
:103F80004F70420FA057BD4F4C3310F44C9302C0FA
:103F90008DE38C93EA81FB81968580E02785820FF3
:103FA000911DEC81FD81E257FD4F23E0883E920791
:103FB00010F088EE93E0918380838C819D816A81EB
:103FC0007B816C5F7F4F83579D4FCFDAEDC0539657
:103FD0008C91282F30E0B4E035952795BA95E1F71C
:103FE000A901A3E0440F551FAA95E1F7220F331F43
:103FF000420F531F8F70840FEA56FD4F843610F422
:10400000808301C01082AC81BD81EA81FB8142893D
:10401000842F90E064E0959587956A95E1F79C017F
:1040200053E0220F331F5A95E1F7880F991F280F8D
:10403000391F4F70420F842F8150AB56BD4F8C30CB
:1040400010F44C9302C08DE08C93EA81FB8161896E
:104050008C819D81262F30E014E0359527951A95A7
:10406000E1F7A901B3E0440F551FBA95E1F7220F1C
:10407000331F420F531F6F70640F83579D4FEFD94B
:10408000AC81BD81EA81FB814785842F90E0F4E01B
:1040900095958795FA95E1F79C01E3E0220F331F90
:1040A000EA95E1F7880F991F280F391F4F70420FCB
:1040B000AE56BD4F483110F44C9302C089E18C9349
:1040C000AC81BD81EA81FB814685842F90E064E06C
:1040D000959587956A95E1F79C0153E0220F331F70
:1040E0005A95E1F7880F991F280F391F4F70420F1B
:1040F000AF56BD4F4C3310F44C9302C08DE38C93FC
:10410000AC81BD81EA81FB814585842F90E014E07C
:10411000959587951A95E1F79C01F3E0220F331FDF
:10412000FA95E1F7880F991F280F391F4F70420F3A
:10413000A057BD4F4C3310F44C9302C08DE38C93C9
:10414000EA81FB81948580E02385820F911DEC81BB
:10415000FD81E257FD4F23E0883E920710F088EE84
:1041600093E091838083AC81BD81EA81FB8184816E
:10417000A554BD4F863008F086E08C932C813D819C
:10418000EA81FB819581892F8150803228F4F901E1
:10419000ED52FD4F908311828C819D81EA81FB81DC
:1041A00083579D4F6681C4D9EC81FD81EA52FD4F52
:1041B00081E0808301C080E0DF91CF911F910F915A
:1041C00008950F931F93CF93DF93EC01613EE1F1CC
:1041D000623E09F465C06C3209F04CC2AC81BD810D
:1041E00011968C911197833011F090E027C0EA81ED
:1041F000FB819481990F990F913218F024E090E09F
:1042000001C020E0FD01ED57FE4F8081891719F4B0
:10421000922F91600BC09083FD01EE57FE4F1082EC
:10422000992311F081E08083922F9260EC81FD81CF
:10423000ED57FE4F8081E555FF4F808391FF1AC2F5
:10424000EC81FD81108216C2AA81BB8114960D916A
:104250001C911597EC81FD81E855FD4F118300837A
:10426000E85AF24013968C911397843048F01696D2
:104270004D915C911797CF0183579D4F62E0F2D922
:10428000EC81FD81E654FD4F8081EA5BF240823093
:1042900009F0F0C1CF0183579D4FB801BED9EBC1E2
:1042A000EC81FD81E654FD4F8081EA5BF240823073
:1042B00009F0E0C1442309F0DDC18181AA81BB81FD
:1042C000853009F0D6C018968C91282F30E074E024
:1042D000359527957A95E1F7A90163E0440F551FBD
:1042E0006A95E1F7220F331F420F531F8F70840F1F
:1042F000EA56FD4F843610F4808301C01082AC81F1
:10430000BD81EA81FB814185842F90E004E0959591
:1043100087950A95E1F79C0113E0220F331F1A9548
:10432000E1F7880F991F280F391F4F70420F842F14
:104330008150AB56BD4F8C3010F44C9302C08DE0D1
:104340008C93EA81FB8162858C819D81262F30E0F0
:10435000E4E035952795EA95E1F7A90173E0440F6C
:10436000551F7A95E1F7220F331F420F531F6F70CD
:10437000640F83579D4F73D8AC81BD81EA81FB8167
:104380004385842F90E014E0959587951A95E1F781
:104390009C01F3E0220F331FFA95E1F7880F991F74
:1043A000280F391F4F70420FAE56BD4F483110F4E1
:1043B0004C9302C089E18C93AC81BD81EA81FB8181
:1043C0004485842F90E074E0959587957A95E1F780
:1043D0009C0163E0220F331F6A95E1F7880F991F54
:1043E000280F391F4F70420FAF56BD4F4C3310F49A
:1043F0004C9302C08DE38C93AC81BD81EA81FB813B
:104400004585842F90E024E0959587952A95E1F7DE
:104410009C0103E0220F331F0A95E1F7880F991FD3
:10442000280F391F4F70420FA057BD4F4C3310F467
:104430004C9302C08DE38C93EA81FB81968580E0EA
:104440002785820F911DEC81FD81E257FD4F23E00E
:10445000883E920710F088EE93E0918380838C81F0
:104460009D816A817B816C5F7F4F83579D4F7DD893
:10447000FAC053968C91282F30E0B4E035952795FB
:10448000BA95E1F7A901A3E0440F551FAA95E1F7FA
:10449000220F331F420F531F8F70840FEA56FD4FB8
:1044A000843610F4808301C01082AC81BD81EA8122
:1044B000FB814289842F90E064E0959587956A9509
:1044C000E1F79C0153E0220F331F5A95E1F7880F63
:1044D000991F280F391F4F70420F842F8150AB5600
:1044E000BD4F8C3010F44C9302C08DE08C93EA8168
:1044F000FB8161898C819D81262F30E014E0359508
:1045000027951A95E1F7A901B3E0440F551FBA9515
:10451000E1F7220F331F420F531F6F70640F835751
:104520009D4F0E942F1AAC81BD81EA81FB81478596
:10453000842F90E0F4E095958795FA95E1F79C013A
:10454000E3E0220F331FEA95E1F7880F991F280F48
:10455000391F4F70420FAE56BD4F483110F44C9387
:1045600002C089E18C93AC81BD81EA81FB814685E3
:10457000842F90E064E0959587956A95E1F79C011A
:1045800053E0220F331F5A95E1F7880F991F280F28
:10459000391F4F70420FAF56BD4F4C3310F44C9340
:1045A00002C08DE38C93AC81BD81EA81FB8145859E
:1045B000842F90E014E0959587951A95E1F79C017A
:1045C000F3E0220F331FFA95E1F7880F991F280FA8
:1045D000391F4F70420FA057BD4F4C3310F44C930E
:1045E00002C08DE38C93EA81FB81948580E0238572
:1045F000820F911DEC81FD81E257FD4F23E0883E43
:10460000920710F088EE93E091838083AC81BD81A6
:10461000EA81FB818481A554BD4F863008F086E095
:104620008C932C813D81EA81FB819581892F81507A
:10463000803228F4F901ED52FD4F908311828C8174
:104640009D81EA81FB8183579D4F66810E94981A64
:10465000AC81BD81EA81FB818781833008F082E0F3
:10466000AB52BD4F8C93EC81FD81EA52FD4F81E04E
:10467000808301C080E0DF91CF911F910F91089559
:10468000CF92DF92EF92FF920F931F93CF93DF931E
:10469000EC010C811D81D8011196FC90683309F45E
:1046A000D2C4693390F4623319F1633338F4603360
:1046B00009F4EFC0613309F0B4C7EFC1643309F402
:1046C0006CC2673309F0ADC78EC46F3309F402C3FF
:1046D000603438F46B3309F46DC46E3309F0A1C74C
:1046E000C0C4613F09F46CC5623F09F09AC78FC529
:1046F000EA81FB814481842F90E074E09595879551
:104700007A95E1F79C0163E0220F331F6A95E1F788
:10471000880F991F280F391F4F70420F443618F425
:10472000F801478703C0D8011F961C92AC81BD8158
:10473000EA81FB814581842F90E024E0959587955F
:104740002A95E1F79C0103E0220F331F0A95E1F758
:10475000880F991F280F391F4F70420F842F8150E7
:104760008C3018F41E964C9303C08DE01E968C93EB
:10477000EA81FB8166818C819D81262F30E0F4E007
:1047800035952795FA95E1F7A901E3E0440F551F08
:10479000EA95E1F7220F331F420F531F6F70640F2A
:1047A00006960E942F1AAC81BD81EA81FB81478168
:1047B000842F90E064E0959587956A95E1F79C01D8
:1047C00053E0220F331F5A95E1F7880F991F280FE6
:1047D000391F4F70420F483118F41B964C9303C099
:1047E00089E11B968C93AC81BD81EA81FB81408578
:1047F000842F90E014E0959587951A95E1F79C0138
:10480000F3E0220F331FFA95E1F7880F991F280F65
:10481000391F4F70420F4C3318F41A964C9303C053
:104820008DE31A968C93AC81BD81EA81FB81418531
:10483000842F90E074E0959587957A95E1F79C0137
:1048400063E0220F331F6A95E1F7880F991F280F45
:10485000391F4F70420F4C3318F419964C9303C014
:104860008DE319968C93EA81FB818381883018F45B
:1048700080E090E002C082859385EC81FD81B3E009
:10488000883E9B0710F088EE93E09087878381E055
:10489000C9C6EA81FB81D801AE56BF4F84818730FB
:1048A00008F086E08C93AC81BD81EA81FB81858133
:1048B0008E3008F08EE0AD56BF4F8C93EC81FD81B9
:1048C000EC56FF4FAA81BB8116968C918083EA81BA
:1048D000FB81AC81BD81A85FBE4F8781873008F026
:1048E00086E08C93AC81BD81EA81FB8180858E302E
:1048F00008F08EE0A75FBE4F8C93EC81FD81E65FF0
:10490000FE4FAA81BB8119968C918083EA81FB813D
:10491000AC81BD81A158BE4F8285873008F086E00A
:104920008C93AC81BD81EA81FB8183858E3008F058
:104930008EE0A058BE4F8C93EC81FD81EF57FE4F67
:10494000AA81BB811C968C918083EC81FD81818141
:10495000833009F066C0AA81BB8113969C9113979E
:10496000E55FFE4F8081EB50F140882341F19D309F
:1049700030F1E35FFE4F50968C9180839D30F9F0CB
:10498000EC81FD81E25FFE4FAA81BB8151968C9143
:1049900080839E30A1F0EC81FD81E15FFE4FAA8112
:1049A000BB8152968C9180839F3049F0EC81FD81D0
:1049B000E05FFE4FAA81BB8153968C918083AC81CE
:1049C000BD81AE57BE4F8C91A258B140882349F1AA
:1049D000913138F1AC57BE4FEA81FB8184898C93C9
:1049E0009131F9F0EC81FD81EB57FE4FAA81BB813B
:1049F00055968C9180839231A1F0EC81FD81EA572C
:104A0000FE4FAA81BB8156968C918083933149F0E9
:104A1000EC81FD81E957FE4FAA81BB8157968C91AD
:104A20008083EC81FD81EE57FE4F8081E258F1409A
:104A3000882311F496E005C0E158FE4F9081EF57AE
:104A4000F140E55FFE4F8081EB50F140882359F043
:104A5000E85FFE4F8081E850F140963011F4982FC6
:104A600002C0981392E0EB56FF4F8081E559F04069
:104A7000882369F0EE56FF4F8081E259F04096306E
:104A800011F4982F04C0981711F092E003C09730EA
:104A900008F096E0EA50FE4FA4C2EA81FB817481DF
:104AA00060E08581680F711DC80189960E94581ABF
:104AB000EA81FB818C819D81768160E02781620F94
:104AC000711D89960E94781AE1E0FE1619F0F4E053
:104AD000FF1659F4EC81FD81E35FFD4F8081833047
:104AE00021F4EA81FB81808501C080E0EC81FD81B9
:104AF000EF56FF4F883008F087E08083EA81FB8122
:104B00008C819D81708560E02185620F711D8156C9
:104B10009F4F0E94581AEA81FB818C819D8172858A
:104B200060E02385620F711D81569F4F0E94781AA5
:104B3000EA81FB818C819D81748560E02585620F0F
:104B4000711D8A5E9E4F0E94581AEA81FB818C81FA
:104B50009D81768560E02785620F711D8A5E9E4F7C
:104B60000E94781AEA81FB818C819D81708960E0C6
:104B70002189620F711D83579E4F0E94581AEA8146
:104B8000FB818C819D81728960E02389620F711D98
:104B900083579E4F0E94781A7ACEEA81FB818481E6
:104BA000882309F03EC5958180E02681820F911D02
:104BB00023E0883E920728F4D80195969C938E9323
:104BC0009497AC81BD81EA81FB81978180E020854B
:104BD000820F911DE3E0883E9E0720F493969C93FC
:104BE0008E939297AC81BD81EA81FB81318582856C
:104BF000343680F46AE00E9415A3282F8A3050F4DE
:104C00008AE0389FC0011124820F911D91969C93D8
:104C10008E939097AC81BD81EA81FB819385892F2A
:104C20008D59873C10F45A969C93AC81BD81EA81E2
:104C3000FB819385892F805C813810F498969C9332
:104C4000AC81BD81EA81FB819485892F8D59873C98
:104C500010F45B969C93AC81BD81EA81FB819585C4
:104C6000892F8D59873C10F45C969C93AC81BD8153
:104C7000EA81FB819685892F8D59873C10F45D96DA
:104C80009C93AC81BD81EA81FB819785892F8D59E9
:104C9000873C10F45E969C93AC81BD81EA81FB81D8
:104CA0009089892F8D59873C10F45F969C93AC8135
:104CB000BD81EA81FB81918980E02289820F911D6B
:104CC000F1E089369F0708F0E2CD97969C938E938A
:104CD0009697DDCDD801AB56BF4F90E0EA81FB81BE
:104CE0008481813009F491E09C934C815D81EA815B
:104CF000FB819581990F990F913210F024E001C04A
:104D000020E0FA01E45FFE4F8081891719F4722FC9
:104D100071600BC09083FA01E55FFE4F108299230A
:104D200011F081E08083722F7260EC81FD81E45F7D
:104D3000FE4F8081EF5DFE4F80834C815D81EA8173
:104D4000FB819781990F990F913218F024E090E040
:104D500001C020E0FA01ED57FE4F8081891719F458
:104D6000622F61600BC09083FA01EE57FE4F1082F4
:104D7000992311F081E08083622F6260EC81FD81D4
:104D8000ED57FE4F8081E555FF4F80832C813D819B
:104D9000EA81FB8190859150892F8150823010F0FB
:104DA00044E00AC0F901E55FFD4F8081891711F4E5
:104DB00041E002C0908342E0AC81BD81EA81FB8189
:104DC0008085815011F483E007C0833029F0AA5612
:104DD000BF4F8C93A659B040AA56BF4F8C93EC811D
:104DE000FD81E55FFD4F80818F5FB49680832C81CC
:104DF0003D81EA81FB819185892F8150833010F0BC
:104E000034E00AC0F901E45FFD4F8081891711F495
:104E100031E002C0908332E0AC81BD81EA81FB8148
:104E2000A650BE4F928580E02385820F911D8D9301
:104E30009D93948580E02585820F911D11969C930A
:104E40008E93AC5FB1409685973018F024E097E0E0
:104E500001C020E0FD01E35FFD4F8081891719F457
:104E6000822F816003C09083822F8260572F516010
:104E7000562B542B532B582BA250BE4F89E191E057
:104E80008D939D936A817B81FB012785922F92955B
:104E90009F7080E02F70820F911D8D939D932089CC
:104EA000922F92959F7080E02F70820F911D8D93AD
:104EB0009D932189922F92959F7080E02F70820F91
:104EC000911D8D939D932289922F92959F7080E0E2
:104ED0002F70820F911D8D939D932389922F929510
:104EE0009F7080E02F70820F911D11969C938E937E
:104EF000A850B2402C813D812B563F4FF901808153
:104F000025593040FB019685882351F0973018F0E1
:104F100044E097E001C040E0F901E35FFD4F09C0C4
:104F20009B3018F09BE044E001C040E0F901E25FF3
:104F3000FD4F8081891719F4842F816003C090830D
:104F4000842F8260282F252BEA81FB818381813188
:104F5000E8F09489973010F084E016C0933011F097
:104F6000913041F4A45FBD4F8C91AC50B24082307F
:104F700009F495E0FD01E65FFD4F8081891711F48A
:104F800081E002C0908382E0282B06C0FD01E65F2D
:104F9000FD4F808181111082822F90E021FF03C09C
:104FA000EC81FD81108296958795969587958095E1
:104FB000817038C3EA81FB819481992309F431C35C
:104FC000055F1D4FD8018C910B501240823011F0BB
:104FD00082E001C083E0891708F423C3015F1D4FFD
:104FE000F801908354CCF4E0FF1669F4EA81FB8168
:104FF0009481973018F024E097E001C020E0F80198
:10500000E35FFD4F11C023E0F21611F080E015C000
:10501000EA81FB8195819B3018F09BE024E001C080
:1050200020E0F801E25FFD4F8081891719F4822F9B
:10503000816003C09083822F826081FFF2C2EC8185
:10504000FD811082EEC2EA81FB818481882309F40C
:10505000E8C2883F08F0E5C2005F1D4FD8018C937D
:1050600016CC27EDC22E22E0D22EC00ED11E0A8011
:10507000DB81C02DFE013496B3E0FB1659F4C60166
:10508000BF010E94821BF82E2996C601BE010E9414
:10509000821B90C022E0F21659F4C601BF010E94A3
:1050A000C21BF82E2796C601BE010E94C21B82C0F9
:1050B00084E0F816E1F58C81682F70E0CB018170F7
:1050C000907064FF1CC0892B21F088E394E3F92ED3
:1050D00071C061FF04C088E3B5E3FB2E6BC062FFC3
:1050E00004C088E3A6E3FA2E65C063FD04C088E32C
:1050F000FAE0FF2E5FC088E3E7E3FE2E5BC0892B5A
:1051000021F088E372E0F72E55C061FF04C088E308
:1051100063E0F62E4FC062FF04C088E354E0F52E32
:1051200049C063FF45C088E345E0F42E43C0A5E0D5
:10513000FA1621F088E338E3F32E3CC08C8180FF1F
:1051400004C088E3FF24F39435C07F010894E11C78
:10515000F11CC60161810E946F1B882319F022E1B6
:10516000F22E0BC0E7012196C601F70161810E9472
:105170006F1B882329F09AE1F92EF80E88E31AC0F4
:105180007E010894E11CF11CC60169810E946F1B1D
:10519000882319F0B2E2FB2EF0CFC601D701119699
:1051A0006C910E946F1B882319F0AAE2FA2EE5CFBA
:1051B00088E3FF2400501D4FF801F192808331C233
:1051C000EA81FB81E480F5800E551D4FD801ED92F8
:1051D000FC92025A12408381843040F0468157810C
:1051E000C80183579D4F63E00E94321BEC81FD8113
:1051F000E654FD4F8081EA5BF240833009F011C232
:10520000CF0183579D4FB7010E940D1B0BC206545F
:105210001D4FF80180810A5B1240833009F001C202
:10522000442309F0FEC10F551D4F81E0D8018C9336
:10523000015A1240EA81FB81B5E0FB1609F0E3C098
:105240008185282F30E0F4E035952795FA95E1F730
:10525000A901E3E0440F551FEA95E1F7220F331F40
:10526000420F531F8F70840FF801EA56FD4F8436AA
:1052700010F4808301C01082AC81BD81EA81FB8182
:105280004285842F90E064E0959587956A95E1F7D3
:105290009C0153E0220F331F5A95E1F7880F991FA5
:1052A000280F391F4F70420F842F8150AB56BD4FCE
:1052B0008C3010F44C9302C08DE08C93EA81FB811A
:1052C00063858C819D81262F30E014E035952795EC
:1052D0001A95E1F7A901B3E0440F551FBA95E1F71C
:1052E000220F331F420F531F6F70640F83579D4F60
:1052F0000E942F1AAC81BD81EA81FB814485842FF5
:1053000090E0F4E095958795FA95E1F79C01E3E04C
:10531000220F331FEA95E1F7880F991F280F391FD5
:105320004F70420FAE56BD4F483110F44C9302C03F
:1053300089E18C93AC81BD81EA81FB814585842F15
:1053400090E064E0959587956A95E1F79C0153E0BC
:10535000220F331F5A95E1F7880F991F280F391F25
:105360004F70420FAF56BD4F4C3310F44C9302C0F8
:105370008DE38C93AC81BD81EA81FB814685842FCE
:1053800090E014E0959587951A95E1F79C01F3E07C
:10539000220F331FFA95E1F7880F991F280F391F45
:1053A0004F70420FA057BD4F4C3310F44C9302C0C6
:1053B0008DE38C93EA81FB81978580E02089820FC1
:1053C000911DEC81FD81E257FD4F23E0883E92075D
:1053D00010F088EE93E091838083AC81BD81EA81F7
:1053E000FB818481A354BD4F873008F086E08C9305
:1053F0008C819D816A817B816B5F7F4F83579D4F3D
:105400000E94B51A07C18389282F30E074E03595D2
:1054100027957A95E1F7A90163E0440F551F6A9536
:10542000E1F7220F331F420F531F8F70840FF801D3
:10543000EA56FD4F843610F4808301C01082AC819F
:10544000BD81EA81FB814289842F90E004E095953B
:1054500087950A95E1F79C0113E0220F331F1A95F7
:10546000E1F7880F991F280F391F4F70420F842FC3
:105470008150AB56BD4F8C3010F44C9302C08DE080
:105480008C93EA81FB8161898C819D81262F30E09C
:10549000E4E035952795EA95E1F7A90173E0440F1B
:1054A000551F7A95E1F7220F331F420F531F6F707C
:1054B000640F83579D4F0E942F1AEA81FB81408918
:1054C000EC81FD81ED56FD4F842F90E014E0959521
:1054D00087951A95E1F79C01B3E0220F331FBA9527
:1054E000E1F7880F991F280F391F4F70420F408333
:1054F000AC81BD81EA81FB814785842F90E0F4E097
:1055000095958795FA95E1F79C01E3E0220F331F0B
:10551000EA95E1F7880F991F280F391F4F70420F46
:10552000AE56BD4F483110F44C9302C089E18C93C4
:10553000AC81BD81EA81FB814685842F90E064E0E7
:10554000959587956A95E1F79C0153E0220F331FEB
:105550005A95E1F7880F991F280F391F4F70420F96
:10556000AF56BD4F4C3310F44C9302C08DE38C9377
:10557000AC81BD81EA81FB814585842F90E014E0F8
:10558000959587951A95E1F79C01F3E0220F331F5B
:10559000FA95E1F7880F991F280F391F4F70420FB6
:1055A000A057BD4F4C3310F44C9302C08DE38C9345
:1055B000EA81FB81948580E02385820F911DEC8137
:1055C000FD81E257FD4FA3E0883E9A0710F088EE78
:1055D00093E091838083AC81BD81EA81FB818481EA
:1055E000A554BD4F863008F086E08C938C819D8158
:1055F000EA81FB8183579D4F65810E94981AAC8197
:10560000BD81EA81FB818681A354BD4F873008F0BC
:1056100086E08C93EC81FD81EA52FD4F81E080832E
:1056200001C080E0DF91CF911F910F91FF90EF902B
:10563000DF90CF900895CF93DF93EC01862F807396
:1056400099F4613C41F1623C09F03EC0EC81FD817E
:10565000DF01A25BBD4F3C9111962C91818184307A
:1056600051F1CE0162EC2DC0803129F4613D99F0F9
:10567000623D51F506C0803261F4613E61F0623EE8
:1056800019F5EC81FD81E25BFD4F20814181CE0166
:1056900014C0613F19F4CE0127D417C0623FA1F4B2
:1056A000EC81FD81DF01A25BBD4F3C9111962C91F5
:1056B0008181843021F4CE01432FB6D306C0CE01C0
:1056C00062EF422F232FF9CF80E0DF91CF91089531
:1056D000CF93DF93EC01862F807C8038E1F5EC815D
:1056E000FD81EA5CFD4F8081E653F240623B31F47C
:1056F000E35BFD4FCE0149E09F012BC06A3909F4FD
:1057000051C06A3871F1882309F459C0DF01A35BE5
:10571000BD4F3C91E25BFD4F20818430A1F085308C
:1057200040F4823081F0833050F4813009F047C07A
:1057300003C0853059F403C0CE01432F31C0CE01E0
:10574000422F232F22C0CE01432F1FC0CE0143E0A2
:105750009D0138D42EC08034E9F4623739F4EC81ED
:10576000FD81E35BFD4FCE0140811AC06E37D1F45D
:10577000EC81FD81E35BFD4F4081ED54F240442319
:1057800031F0E25BFD4FCE0120814ED312C0CE013D
:105790006EE709C0882349F4643321F4CE0140E068
:1057A00076D307C0CE01A0D304C0803C41F4CE0123
:1057B00042DF882311F094E004C090E002C090E042
:1057C00080E09E83DF91CF910895CF92DF92EF9298
:1057D000FF920F931F93CF93DF938C01462FDC0131
:1057E0001296ED91FC911397F28016961C928F2DD4
:1057F000807C803819F0803409F040C1B2EBFB1690
:1058000009F014C2E801EA81FB818381883008F441
:105810000DC2AC81BD818481282F30E094E03595A4
:1058200027959A95E1F7A901F3E0440F551FFA95E2
:10583000E1F7220F331F420F531F8F70840F8436FE
:1058400028F459968C93DD24D39403C059961C9266
:10585000DD24F801A481B5810280F381E02D45812A
:10586000842F90E074E0959587957A95E1F79C01F7
:1058700063E0220F331F6A95E1F7880F991F280F05
:10588000391F4F70420F842F81508C3028F4589666
:105890004C93EE24E39404C08DE058968C93EE2450
:1058A000D8011296ED91FC911397668114968D9113
:1058B0009C911597262F30E0F4E035952795FA95C1
:1058C000E1F7A901E3E0440F551FEA95E1F7220F44
:1058D000331F420F531F6F70640F40960E942F1AA0
:1058E000C82EE801AC81BD81EA81FB814781842F0C
:1058F00090E024E0959587952A95E1F79C01F3E0E7
:10590000220F331FFA95E1F7880F991F280F391FCF
:105910004F70420F483120F455964C9351E004C02B
:1059200089E155968C9350E0F801A481B5810280FD
:10593000F381E02D4085842F90E074E09595879564
:105940007A95E1F79C0163E0220F331F6A95E1F736
:10595000880F991F280F391F4F70420F4C3328F4BE
:1059600054964C93FF24F39404C08DE354968C9387
:10597000FF24E801AC81BD81EA81FB814185842F50
:1059800090E0E4E095958795EA95E1F79C0173E056
:10599000220F331F7A95E1F7880F991F280F391FBF
:1059A0004F70420F4C3320F453964C9371E004C077
:1059B0008DE353968C9370E0D8011296ED91FC9193
:1059C00013978381883018F480E090E002C08285CC
:1059D0009385E801EC81FD8123E0883E920720F465
:1059E000928B818B61E005C088EE93E0928B818B76
:1059F00060E08E2D90E02D2D30E08223932320E077
:105A000030E0892B11F021E030E08C2D90E028234C
:105A10003923852F90E040E050E0232B11F041E046
:105A200050E0842395232F2D30E040E050E0892B77
:105A300011F041E050E024233523472F50E080E06F
:105A400090E0232B11F081E090E048235923EE24CD
:105A5000862F90E020E030E0452B11F021E030E08F
:105A600082239323892B11F0EE24E394D80114961A
:105A7000ED91FC91159781E0808BDAC08F2D8073BA
:105A800029F4C8016F2D0E94F91B12C0803129F43E
:105A9000C8016F2D0E94901E0BC0803229F4C801EE
:105AA0006F2D0E94E12004C0C8016F2D0E94402389
:105AB000E82EF801C481D581C75DDD4F8881C952C8
:105AC000D240FE01E80FF11DED5EFD4F4081A1E1E6
:105AD000CA2EA2E0DA2ECC0EDD1E842F90E0880FB5
