:100000000C9474110C94DB110C94DB110C94DB1127
:100010000C94DB110C94DB110C94DB110C94DB11B0
:100020000C94DB110C94DB110C94DB110C94DB11A0
:100030000C9472910C94DB110C94DB110C94A8912C
:100040000C94DB110C94DB110C94F5900C949590AE
:100050000C94CC900C94DB110C94DB110C94DB1100
:100060000C94DB110C94DB110C94DB110C94DB1160
:100070000C94DB110C94DB110C944B900C94EB8FD3
:100080000C9422900C94DB110C94DB110000000006
:100090000000004F00000007000700147F147F14C9
:1000A000242A7F2A1223130864623649552240000D
:1000B00005030000001C2241000041221C0014081E
:1000C0003E081408083E08080050300000080808E0
:1000D0000808006060000020100804023E514945F5
:1000E0003E00427F400042615149462141454B312B
:1000F0001814127F1027454545393C4A49493001BB
:10010000710905033649494936064949291E003611
:100110003600000056360000081422410014141462
:100120001414004122140802015109063249714198
:100130003E7E1111117E7F494949363E414141229F
:100140007F4141221C7F494949417F090909013EFC
:100150004149493A7F0808087F00417F410020401B
:10016000413F017F081422417F404040407F020C04
:10017000027F7F0408107F3E4141413E7F0909090B
:10018000063E4151215E7F091929464649494931B8
:1001900001017F01013F4040403F1F2040201F3FA1
:1001A0004070403F631408146307087008076151EA
:1001B000494543007F4141000204081020004141AD
:1001C0007F0004020102044040404040000102045C
:1001D0000020545454787F484444383844444420E0
:1001E000384444487F3854545418087E0901020C9E
:1001F0005252523E7F0804047800447D4000204063
:10020000443D007F1028440000417F40007C0418DA
:1002100004787C0804047838444444387C1414146A
:1002200008081414187C7C0804040848545454200A
:10023000043F4440203C4040207C1C2040201C3C8B
:100240004030403C44281028440C5050503C4464FA
:10025000544C44000836410000007F000000413645
:100260000800020102020114141414140E0A0E00F4
:10027000007F7F7F7F7F7F7F7F7F7F7F7F7F7F7F0D
:100280007F7F7F7F7F7F7F7F7F7F7F7F7F7F7F7F7E
:100290007F7F7F7F7F7F7F7F7F7F7F7F7F7F7F7F6E
:1002A0007F7F7F7F7F7F7F7F7F7F7F7F7F7F7F7F5E
:1002B0007F7F7F7F7F7F7F7F7F7F7F7F7E11111199
:1002C0007E7F494949337F494949367F010101030E
:1002D000E0514F41FF7F4949494177087F08774105
:1002E000494949367F1008047F7C2112097C7F0828
:1002F00014224120413F017F7F020C027F7F0808CA
:10030000087F3E4141413E7F0101017F7F0909098C
:10031000063E4141412201017F01014728100807A3
:100320001C227F221C63140814637F404040FF0797
:100330000808087F7F407F407F7F407F40FF017F2C
:100340004848307F4830007F007F4848302241498C
:10035000493E7F083E413E462919097F20545454A6
:10036000783C4A4A49317C545428007C0404040CEB
:10037000E0544C44FC38545454186C107C106C44B9
:10038000445454287C2010087C7C4122117C7C1031
:1003900028440020443C047C7C0810087C7C10101D
:1003A000107C38444444387C0404047C7C141414C9
:1003B00008384444442004047C04040C5050503C4D
:1003C0003048FC483044281028447C404040FC0C15
:1003D0001010107C7C407C407C7C407C40FC047C89
:1003E0005050207C5050207C7C5050200028445499
:1003F00054387C10384438085434147CC2FBE2E58D
:10040000E4E5ED00C3EEF2EEE2000000C2E2E5E456
:10041000E5ED0000D0E5F7FC00000000D2E5F1F2C8
:1004200000000000D2E5F1F200000000EEF8E8E183
:10043000EAE00000CDE5E8F1EFF02E2025632D2560
:1004400030345800CFF0E5E4F3EFF02E2025632D93
:100450002530345800253032752E253032752E2542
:1004600030327500253032753A253032753A2530F4
:1004700032750055E73D25303264E4C10055E7315F
:100480003D25303264E4C10055E7323D2530326409
:10049000E4C10055EA3D25303264E4C10055EA313B
:1004A0003D25303264E4C10055EA323D25303264E6
:1004B000E4C100553D253032752E25303175C2001E
:1004C000493D25303375ECC000523D25303375CEA3
:1004D000EC0055F83D25303264E4C10055F8313D5B
:1004E00025303264E4C10055F8323D25303264E4F1
:1004F000C10053E43D25303275B000CDEEE2FBE99A
:1005000020EFE0F0EEEBFC3A202530347500CFE030
:10051000F0EEEBFC3A20253034750020202020201E
:100520002020C2E2E5E4E5ED20202020202020006C
:1005300020202020EDE5EFF0E0E2E8EBFCEDFBE928
:10054000202020200020202020202020EFE0F0EE9E
:10055000EBFC202020202020200020C8E7ECE5ED47
:10056000E8F2FC20EFE0F0E0ECE5F2F020200020E3
:1005700020ECEEE6EDEE20F2EEEBFCEAEE20E220DF
:10058000202020002020F0E5E6E8ECE520C2DBC2D8
:10059000C5C4C5CD2020202000C2E2EEE43A2025CB
:1005A0003031752E2530317500C2E2EEE43A202557
:1005B00030317500C2E2EEE43A20255300C7EDE089
:1005C000F7E5EDE8E53A2000E2FBEAEB2E0000005B
:1005D000000000CAD7000000000000000000CAD7D9
:1005E000310000000000000000CAD7320000000007
:1005F00000000000CAD7330000000000000000CA5D
:10060000D7340000000000000000CAD7310000000D
:100610000000000000CAD73120F120E1EBEEEA0033
:10062000CAD7320000000000000000CAD73220F113
:1006300020E1EBEEEA00D0C700000000000000005F
:1006400000CAEEECE0EDE4E031000000CAEEECE0C0
:10065000EDE4E032000000CAEEECE0EDE4E033004F
:100660000000CAEEECE0EDE4E034000000CAEEEC7D
:10067000312BE1EBEEEA0000CAEEEC322BE1EBEEBF
:10068000EA0000CAEEEC332BE1EBEEEA0000CAEE22
:10069000EC342BE1EBEEEA0000CAEEECE0EDE4E036
:1006A00031000000CAEEECE0EDE4E032000000CAE8
:1006B000EEECE0EDE4E033000000CAEEECE0EDE447
:1006C000E034000000CAEEECE0EDE4E035000000AC
:1006D000CAEEECE0EDE4E036000000CAEEECE0ED3E
:1006E000E4E037000000CAEEECE0EDE4E0380000A2
:1006F00000CAEEECE0EDE4E039000000CAEEECE008
:10070000EDE4E031300000CAEEECE0EDE4E0313140
:100710000000CAEEECE0EDE4E031320000CAEEEC9D
:10072000E0EDE4E031330000CAEEECE0EDE4E0316E
:10073000340000CAEEECE0EDE4E031350000CAEE32
:10074000ECE0EDE4E031360000CAEEECE0EDE4E090
:1007500031370000CAEEECE0EDE4E031380000CAC9
:10076000EEECE0EDE4E031390000CAEEECE0EDE45F
:10077000E032300000CAEEECE0EDE4E0323100009F
:10078000CAEEECE0EDE4E032320000CAEEECE0ED5F
:10079000E4E032330000CAEEECE0EDE4E032340095
:1007A00000CAEEECE0EDE4E032350000CAEEECE029
:1007B000EDE4E032360000CAEEECE0EDE4E0323782
:1007C0000000CAEEECE0EDE4E032380000CAEEECE6
:1007D000E0EDE4E032390000CAEEECE0EDE4E033B5
:1007E000300000CAEEECE0EDE4E033310000CAEE88
:1007F000ECE0EDE4E033320000CAD720E820D0C7B7
:1008000000000000EEF8E8E1EAE00000000000D19E
:10081000E8E3EDE0EBFB20EFF0E8E5ECEDE8EAE003
:1008200000D2E5F1F2FB5CCFF0E8E5ECEDE8EA00A0
:10083000D1E8E3EDE0EBFB20EFE5F0E5E4E0F2F7F3
:10084000E8EAE000D2E5F1F2FB5CCFE5F0E5E4E0B8
:10085000F2F7E8EA0020202020CFE5F0E5E9E4E81F
:10086000F2E520E2202020202000202020F0E5E6F4
:10087000E8EC20C2DBC2C5C4C5CD20202020002565
:10088000642E20D2E5F1F220EFF0E8E5ECEDE8EAA5
:10089000E00025642E20D2E5F1F220EFE5F0E5E45A
:1008A000E0F2F7E8EAE000CDE0F1F2F0EEE9EAE0AC
:1008B0005CD2E5F1F2FB00CFE0F0E0ECE5F2F03ADB
:1008C000257520C2F1E5E3EE3A257500C4E8E0EFB6
:1008D000E0E7EEED3A2000F1EFE8F1EEEA005553E3
:1008E0004200000000000000005253343835000080
:1008F00000000000EEF8E8E1EAE00000000000314E
:10090000323030000000000000003234303000008F
:10091000000000000034383030000000000000000B
:1009200039363030000000000000003139323030FC
:1009300000000000000033383430300000000000B8
:10094000003537363030000000000000EEF8E8E1F6
:10095000EAE0000000000038000000000000000095
:100960000000EEF8E8E1EAE00000000000EDE5F24A
:100970000000000000000000F7E5F20000000000A9
:10098000000000EDE5F7E5F2000000000000EEF8E1
:10099000E8E1EAE000000000003100000000000093
:1009A0000000000032000000000000000000000015
:1009B00000000000000000000000D1F2EEEFEEE2C7
:1009C000FBE520E1E8F2FB00D7E5F2EDEEF1F2FC09
:1009D00000C1E8F2FB20E4E0EDEDFBF500D1EAEE2A
:1009E000F0EEF1F2FC20EFE5F0E5E4E0F7E800CF0F
:1009F000F0EEF2EEEAEEEB00C8EDF2E5F0F4E5E938
:100A0000F120F1E2FFE7E800CDE0F1F2F0EEE9EAF3
:100A1000E05CC8EDF2E5F0F4E5E9F10025642E2094
:100A2000D1E5EAF3EDE4FB0025642E20CCE8EDF3FC
:100A3000F2FB0025642E20D7E0F1FB0025642E2078
:100A4000C4E5EDFC0025642E20CCE5F1FFF6002581
:100A5000642E20C3EEE400CDE0F1F2F0EEE9EAE02E
:100A60005CC2F0E5ECFF26E4E0F2E000E2EAEB2E07
:100A70002FE2FBEAEB2E0025642E2E256425730061
:100A8000E2FBEAEB2E000000000000E2EAEB2E00A1
:100A9000000000000000EEF8E8E1EAE000000000DD
:100AA00000C0C2C0CDD220D034303000CFC2C72D5C
:100AB00039300000000000C0C2C7CA2D3830000025
:100AC0000000CFC2C7D32DC50000000000CFC2C7B1
:100AD000CB00000000000000EEF8E8E1EAE00000D2
:100AE000000000EEF8E8E1EAE00000000000E1FBB1
:100AF000F1F2F0FBE900000000ECE5E4EBE5EDEDE0
:100B0000FBE90000EEF8E8E1EAE00000000000EE9A
:100B1000F8E8E1EAE00000000000E2EAEB2E000065
:100B20000000000000E2FBEAEB2E000000000000E5
:100B3000EEF8E8E1EAE00000000000EEF8E8E1EAA3
:100B4000E00000000000F2F0E5E2EEE6EDFBE90077
:100B500000EDEEF0ECE0EBFCEDFBE900F1EFEEEA8E
:100B6000EEE9EDFBE90000EEF8E8E1EAE000000064
:100B70000000D0E5E7E5F0E2E8F0EEE2E0EDE8E5E0
:100B800000D2E8EF20E0E2F2EEEAEEEDF2F0EEEB7A
:100B9000FF00C4EEEFF3F1F2E8ECE0FF20EFEEEC43
:100BA000E5F5E000CFEEF0EEE320EFEE20EFEEEC27
:100BB000E5F5E500C4EEEFF3F1F2E8ECFBE520EF3C
:100BC000F0EEE2E0EBFB00CFF0E8E7EDE0EA20F743
:100BD000E5F2EDEEF1F2E800CFF0EEF2EEEAEEEB48
:100BE00020EEE1ECE5EDE000CAEEF0F0E5EAF6E833
:100BF000FF20F2EEEAE000CAEEF0F0E5EAF6E8FFE8
:100C000020EDE0EFF0FFE6E5EDE8FF00D2E8EF20B1
:100C1000E4E5F2E5EAF2EEF0E000D1EDE8E6E5ED3C
:100C2000E8E520EEF2E2E5F2E020C0CA00D1EEE213
:100C3000ECE5F1F2E8ECEEF1F2FC00D7E0F1F2EED7
:100C4000F2E00055E2FBF520EDEEECE8EDE0EBFC28
:100C5000EDEEE500D1E5F2E5E2EEE920E0E4F0E5D5
:100C6000F100C7E0E3F0F3E1EB2E20F7F3E2F1F25D
:100C7000E22E20CFD0CC00D3E4E5F0E62E20F0E544
:100C8000EBE520EAEEEC2E20CFD0CC00D3E4E5F06B
:100C9000E62E20F0E5EBE520EAEEEC2E20CFD0C4E6
:100CA00000C2F0E5ECFF20EFE5F0E5E7E0EFF3F15F
:100CB000EAE000CFEEF0EEE320EFF0E5E4F3EFF052
:100CC0002E20EFEE20CAD700CFEEF0EEE320EFF0BB
:100CD000E5E4F3EFF0E5E6E4E5EDE8FF00CAEEED6C
:100CE000F2F0EEEBFC20E2FBF52EF1E8E3EDE0EBB9
:100CF000E000CDEEECE5F020E0EFEFE0F0E0F2E038
:100D000000D1E8EDF5F0EEEDE8E7E0F6E8FF20F7DA
:100D1000E0F1EEE200CFE0F0E0ECE5F2F0FB5CCEDB
:100D2000E1F9E8E500CDEEECE5F020EAEEECE0EDEF
:100D3000E4FB3A2025752F257500C1EBEEEAE8F0BB
:100D4000EEE22E20EAEEECE0EDE4FB00D1EBE5E490
:100D5000FFF9E8E520EAEEECE0EDE4FB00D2E5F196
:100D6000F2EEE2E0FF20EAEEECE0EDE4E000C4EBBE
:100D7000E8F2E5EBFCEDEEF1F2FC20EAEEECE0ED62
:100D8000E4FB00C4EBE8F2E5EBFCEDEEF1F2FC2055
:100D9000EAEEECE0EDE4FB00C7E0E4E5F0E6EAE0D3
:100DA00020F1F0E0E1E0F22E20CFD0C400CFE0F05F
:100DB000E0ECE5F2F0FB5CCFE5F0E5E4E0F2F7E82B
:100DC000EA00C7E0E4E5F0E6EAE020EDE020E2FB3F
:100DD000EAEB2EEAEEEC00C1EBEEEAE8F0EEE22EF2
:100DE00020EAEEECE0EDE4FB00C7E0E4E5F0E6EA43
:100DF000E020EDE020F4E8EAF12EEAEEEC00CFE0AE
:100E0000F0E0ECE5F2F0FB5CCFF0E8E5ECEDE8EAD1
:100E100000C4D4C72DCFF0CFE4000000C4D4C72D48
:100E2000CCCA3100000000C4D4C72DCCCA320000A7
:100E30000000C4D4C72D4C363000000000CDC72DB3
:100E4000CFF0CFE400000000CDC72DCCCA000000D9
:100E5000000000CFCFC72DCFF0CFE4000000CFCFF0
:100E6000C72DCCCA0000000000EEF8E8E1EAE0007F
:100E700000000000EEF8E8E1EAE0000000000032C7
:100E800020EAEEEDF6E5E2E0FF003320EAEEEDF6D3
:100E9000E5E2E0FF00EEF8E8E1EAE0000000000033
:100EA000E0EAF22BEFE0F1F1000000E0EAF2E8E224
:100EB000EDFBE9000000EFE0F1F1E8E2EDFBE90015
:100EC00000EEF8E8E1EAE000000000002D313030EB
:100ED00030C3F6000000002D353030C3F6000000AE
:100EE000000030C3F600000000000000002B353089
:100EF00030C3F600000000002B31303030C3F60064
:100F0000000000EEF8E8E1EAE00000000000C7E0C1
:100F1000E3F0F3E1EB2E20F7F3E2F1F2E22E20D042
:100F2000C700D7E0F1F2EEF2E020CFD0CC00D7E05E
:100F3000F1F2EEF2E020CFD0C400D1EDE8E6E5ED2D
:100F4000E8E520F3F0EEE2EDFF20C0CA00D2E8EFC2
:100F500020EFF0E8E5ECEDE8EAE000C7E0E3F0F3CD
:100F6000E1EBE5EDE8E520F7F3E2F1F2E2E8F2008B
:100F7000CFEEF0EEE320EFF0E5E4F3EFF02E20EF1C
:100F8000EE20D0C700CAEEECEFE5EDF1E0F6E8FFA9
:100F900020E7E0E4E5F0E6EAE800CFE5F0E5EAF096
:100FA000FBF2E8E520E8ECEFF3EBFCF1EEE200C445
:100FB000EEEF2E20E2F0E5ECFF20E1E5E720ECE0AB
:100FC000ED2E00D2E8EF20EBE8EDE8E800D2E8EF04
:100FD00020E7E0F9E8F2FB00CFE0F0E0ECE5F2F02A
:100FE000FB5CC7E0F9E8F2E00025642E20CEE1F9D1
:100FF000E8E50025642E20CFE5F0E5E4E0F2F7E82F
:10100000EA0025642E20CFF0E8E5ECEDE8EA0025C3
:10101000642E20C7E0F9E8F2E000CDE0F1F2F0EE56
:10102000E9EAE05CCFE0F0E0ECE5F2F0FB00C2FBC7
:10103000E2E5E4E5ED00000000C2E2E5E4E5ED00F4
:1010400000000000D2E5F1F220310000000000D2E3
:10105000E5F1F220320000000000CDE0F1F2F0EE08
:10106000E9EAE05CD0E5E6E8EC0025642E20C8ED76
:10107000F2E5F0F4E5E9F10025642E20CFE0F0EE92
:10108000EBFC0025642E20CFE0F0E0ECE5F2F0FB75
:101090000025642E20C2F0E5ECFF20E820E4E0F219
:1010A000E00025642E20D0E5E6E8EC00CCE5EDFE7E
:1010B0005CCDE0F1F2F0EEE9EAE00025642E20C01C
:1010C000CA20E2EAEBFEF7E5ED0025642E20CFF31F
:1010D000F1EA20F3E4E0EB2DFBF520CCC0CD0025B8
:1010E000642E20CFF3F1EA20F3E4E0EB2E20CCC015
:1010F000CD20330025642E20CFF3F1EA20F3E4E085
:10110000EB2E20CCC0CD20320025642E20CFF3F171
:10111000EA20F3E4E0EB2E20CCC0CD2031002564A2
:101120002E20CFF3F1EA20F3E4E0EBE5EDEDFBF563
:101130000025642E20CFF3F1EA20F3E4E0EBE5EDA7
:10114000ED2E20330025642E20CFF3F1EA20F3E4C6
:10115000E0EBE5EDED2E20320025642E20CFF3F1FB
:10116000EA20F3E4E0EBE5EDED2E20310025642EDE
:1011700020D1E1F0EEF120F3E4E0EBE5EDEDFBF55D
:101180000025642E20C0CA20E1E5E3EBFBE9002541
:10119000642E20C0CA20EDEEF0ECE0EBFCEDFBE9A4
:1011A0000025642E20C0CA20E8F1EFFBF2E0EDE854
:1011B000FF0025642E20C0CA20E2FBEAEBFEF7E523
:1011C000ED0025642E20C0CA20F3F1EAEEF0E5ED33
:1011D000EDFBE90025642E20CFF3F1EA20CFD0C447
:1011E0000025642E20CFF3F1EA20C0CA20F3E4E00A
:1011F000EBE5EDED2E0025642E20CFF3F1EA20C0C3
:10120000CA20F1E2EEE90025642E20D1E1F0EEF1F2
:1012100020C0CA0025642E20C0CA20EAEEEDF2F0FC
:101220002EEFF0EEE2E5F02E0025642E20CFF3F154
:10123000EA20F3E4E0EBE5ED2E20CCC0CD00256400
:101240002E20C0CA20EFF3F1EA0025642E20CFF350
:10125000F1EA20EDE0EBE0E42E20E2FBEAEB0025F2
:10126000642E20CFF3F1EA20EDE0EBE0E42E20E263
:10127000EAEB2E0025642E20C2FBE7EEE200256497
:101280002E20D1E1F0EEF120F3E4E0EBE5EDEDEE20
:10129000E3EE0025642E20D1E1F0EEF120F1E2EE44
:1012A000E5E3EE0025642E20CFF3F1EA20F3E4E03D
:1012B000EBE5EDEDEEE3EE00CCE5EDFE5CD3EFF01B
:1012C000E0E2EBE5EDE8E500C7E0EFE8F1FC202522
:1012D00075202F202575202825752900C7E0EFE807
:1012E000F1FC202575202F20257500C6D3D0CDC058
:1012F000CB20CFD3D1D200D1D7C8D2DBC2C0CDC88A
:10130000C520C7C0CFC8D1C800CAEEECE0EDE4E00C
:101310003A20257500C4E0F2E03A20253032752EDF
:10132000253032752E2530327500C2F0E5ECFF3ADB
:1013300020253032753A253032753A253032752EF7
:101340002530337500CAEEECE0EDE4E020EFE5F087
:10135000E5E4E0E5F2F1FF00CAEEECE0EDE420EDBB
:10136000E5F200CEEAEEEDF7E0EDE8E520EAEEEC9E
:10137000E0EDE4FB00000000CDE0F7E0EBEE20EA5A
:10138000EEECE0EDE4FB00000000000000CEF8E829
:10139000E1EEF7EDEEE520E7EDE0F7E5EDE8E5005D
:1013A0000000C6F3F0EDE0EB5CCFE5F0E5E4E0F241
:1013B000F7E8EA00C6F3F0EDE0EB5CCFF0E8E5EC2F
:1013C000EDE8EA00D1EEF1F2EEFFEDE8E53A00CF0C
:1013D0002564D12564CC256420CFC42564CFCC25D9
:1013E00064C2DBD5256400C6F3F0EDE0EB5CC7E03A
:1013F000F9E8F2E000D0E5E6E8EC3A00D1EEE1FBF6
:10140000F2E8E5202D202564000000000000000027
:1014100000CDE5E8F1EFF020F7F22FE7E0EF20460E
:101420004C4153480000C2D720F2F0E0EAF220E23B
:10143000EEF1F1F2E0EDEEE2EB2E00CDE5E8F1EFBA
:10144000F020F7F22FE7E0EF20CFCBC8D10000006B
:10145000C0E2F2EEEAEEEDF2F0EEEBFC000000008E
:101460000000000000D2EEEA20EFEEEAEEFF0000FE
:1014700000000000000000000000CDE5E8F1EFF002
:1014800020F7F22FE7E0EF203252414D000000CD6F
:10149000E5E8F1EFF020F0E0E1EEF2FB20445350FC
:1014A00000000000C2EEF1F1F2E0ED2DE520F0E0E9
:1014B000E1EEF2FB2044535000CDE8E7EAEEE520F0
:1014C000EDE0EFF02E20E2FBF5EEE4E00000C2FBE1
:1014D000F1EEEAEEE520EDE0EFF02E20E2FBF5EE96
:1014E000E4E000CDE0F0F3F8E5ED20EEE1ECE5ED31
:1014F00020F120D3CC000000CDE5E8F1EFF0E0E2F0
:10150000EDEEF1F2FC20F7E0F1EEE20000CDE5F2C5
:1015100020E1EBEEEAE020C1D1C7000000000000AE
:101520000000CEF8E8E1EAE020E2E5F0F1E8E820AA
:10153000C1D1C700000000CDE5E8F1EFF020EFE5F4
:10154000F0E5EAEB2DE5E920C1D1C700CDE5F220B9
:10155000F1E8E3EDE0EBE020CCC0CD0000000000BE
:1015600000C2EAEB2EEFE8F22FCFE5F0E5E7E0EF7F
:10157000F3F1EA000000C8E7ECE5EDE5EDE8E52071
:10158000F0E5E6E8ECE00000000000CDE5E8F1EF72
:10159000F020E7E0EF2E20E2FBF52EF6E5EFE80085
:1015A000CEF8E8E120EAEEEDF2F02E20E2FBF52E97
:1015B000F6E5EFE800C0CA202D20D1EDE8E6E5ED24
:1015C000E8E520E7E0EFE0F1E000C0CA202D20CD03
:1015D000E5F220EEF2E2E5F2E0000000000000CECD
:1015E000F2F1F3F22DE520F1E8E3EDE0EBE020CFBE
:1015F000F3F1EA00CEF2F1F3F22DE520F1E8E3EDAC
:1016000020CEF1F2E0EDEEE200C2FBEAEBFEF7E500
:10161000EDE8E520E0EFEFE0F0E0F2E00000CFEEF3
:10162000ECE5F5E020E220EFEEEBEEF1E500000066
:10163000000000CDE5E8F1EFF0E0E2EDEEF1F2FCC4
:1016400020C4D4C700000000D3E43A20C0CA202D33
:1016500020EDE5F220EEF2E2E5F2E00000D3E43A1C
:1016600020CFEEECE5F5E020E220EFEEEBEEF1E549
:101670000000D3E43A20CDE5E8F1EFF02E20C4D409
:10168000C7000000000000D3E43A20CDE5E8F1EF08
:10169000F02E20F6E5EFE820E2FBF500CFEEF0EECD
:1016A000E320EFEE20EFEEECE5F5E50000000000B2
:1016B00000D1EEE1FBF2E8E5202D202564000000DA
:1016C000000000000000D1EEE1FBF2E8E5202D2053
:1016D0002564000000000000000000C2EAEB2E209C
:1016E000EFE8F2E0EDE8FF2FEFE5F0E5E7E0EF00EF
:1016F000C2FBEAEBFEF7E5EDE8E520EFE8F2E0ED0E
:10170000E8FF000000C8E7ECE5EDE5EDE8E520F0D6
:10171000E5E6E8ECE020F0E0E100D1EEE1FBF2E804
:10172000E5202D202564000000000000000000CD11
:10173000E5E8F1EFF020F2E5F1F2E020CFD0C400CF
:1017400000000000CDE5E8F1EFF020F2E5F1F2E075
:1017500020CFD0CC0000000000CDE5E8F1EFF02074
:10176000E1EBEEEAE020C1D1C70000000000CDE5CA
:10177000E8F1EFF020E1EBEEEAE020C1D1CA000091
:10178000000000CDE5E8F1EFF020EFE5F0E5EAEB51
:101790002DE5E920C1D1C700CDE5F220F1E8E3ED68
:1017A000E0EBE020ECE0EDE8EFF3EB2E00CDE5E838
:1017B000F1EFF020E2FBF5EEE4EDEEE920F6E5EFE7
:1017C000E800CDE5F220F1E8E3EDE0EBE020D0C762
:1017D00000000000000000CEF2F1F3F22DE520F150
:1017E000E8E3EDE0EBE020CFF3F1EA00CEF2F1F335
:1017F000F22DE520F1E8E3EDE0EBE020D1F2EEEFB1
:1018000000CDE5E8F1EFF020F7F2E5EDE8FF20EAA2
:10181000EEECE0EDE400D1EEE1FBF2E8E5202D2076
:101820002564000000000000000000CDE5E8F1EFB5
:10183000F02E20F0E0E1EEF2FB20445350000000D7
:10184000C2EEF1F1F2E0ED2DE520F0E0E1EEF2FB89
:101850002044535000CDE8E7EAEEE520EDE0EFF05C
:101860002E20E2FBF5EEE4E00000C2FBF1EEEAEE32
:10187000E520EDE0EFF02E20E2FBF5EEE4E000CD18
:10188000E5F220CAD7203520F1E5EA20EDE020CFAF
:10189000D0CC3100CDE5F220CAD7203520F1E5EAE1
:1018A00020EDE020CFD0CC3200C2EEF1F1F2E0ED3D
:1018B0002DE520CAD720EDE020CFD0CC3100C2EEFC
:1018C000F1F1F2E0ED2DE520CAD720EDE020CFD0F8
:1018D000CC3200CDE5E8F1EFF020F7F22FE7E0EFB2
:1018E000203252414D000000CDE5E8F1EFF020F745
:1018F000F22FE7E0EF20CFCBC8D1000000CDE5E824
:10190000F1EFF020F7F22FE7E0EF20464C4153488B
:101910000000CDE5E8F1EFF0E0E2EDEEF1F2FC20C1
:10192000F7E0F1EEE20000D1EEE1FBF2E8E5202D78
:10193000202564000000000000000000D1EEE1FB63
:10194000F2E8E5202D2025640000000000000000E2
:1019500000D1EEE1FBF2E8E5202D20256400000037
:10196000000000000000D1EEE1FBF2E8E5202D20B0
:101970002564000000000000000000D1EEE1FBF251
:10198000E8E5202D20256400000000000000000094
:10199000D1EEE1FBF2E8E5202D20256400000000F7
:1019A0000000000000CDE5E8F1EFF020F7F22FE7AE
:1019B000E0EF20464C4153480000CDE5E8F1EFF060
:1019C00020F7F22FE7E0EF203252414D000000CD2A
:1019D000E5E8F1EFF020F7F22FE7E0EF20CFCBC8FA
:1019E000D1000000D1EEE1FBF2E8E5202D202564D6
:1019F000000000000000000000CDE5E8F1EFF0205D
:101A0000F2E5F1F2E020CFD0C40000000000CDE507
:101A1000E8F1EFF020E2FBEAEB2EF2E5F1F220CF65
:101A2000D0C400CDE5E8F1EFF020F2E5F1F2E020DE
:101A3000CFD0CC0000000000CDE5E8F1EFF020F7BA
:101A4000F22EEAEEECE0EDE420C1D1CA00CDE5F2E1
:101A500020E1EBEEEAE020C1D1CA00000000000066
:101A60000000CEF8E8E1EAE020E2E5F0F1E8E82065
:101A7000C1D1CA00000000CEF2EAE0E720F0E5E7BD
:101A8000E5F0E22E20EBE8EDE8E80000CDE5E8F136
:101A9000EFF0E0E2EDEEF1F2FC20F7E0F1EEE20033
:101AA00000CDE5F220E1EBEEEAE020C1D1C7000075
:101AB000000000000000CEF8E8E1EAE020E2E5F0F6
:101AC000F1E8E820C1D1C700000000CDE5E8F1EF62
:101AD000F020EFE5F0E5EAEB2DE5E920C1D1C70004
:101AE000CDE5F220F1E8E3EDE0EBE020CCC0CD0065
:101AF0000000000000C2EAEB2EEFE8F22FCFE5F085
:101B0000E5E7E0EFF3F1EA000000C8E7ECE5EDE51A
:101B1000EDE8E520F0E5E6E8ECE00000000000CDAF
:101B2000E5E8F1EFF020E7E0EF2E20E2FBF52EF6FE
:101B3000E5EFE800CEF8E8E120EAEEEDF2F02E2045
:101B4000E2FBF52EF6E5EFE800CFF0EEEFE0EBE09C
:101B500020CAD70000000000000000000000CDE512
:101B6000F220CAD7203520F1E5EAF3EDE4000000C9
:101B7000000000CEF2F1F3F22DE520F1E8E3EDE014
:101B8000EBE020CFF3F1EA00CEF2F1F3F22DE52005
:101B9000F1E8E3ED20CEF1F2E0EDEEE200C2FBEA87
:101BA000EBFEF7E5EDE8E520EFE8F2E0EDE8FF0019
:101BB0000000CFF0EEEFE0EBE020CAD7000000001D
:101BC00000000000000000CDE5F220CAD72035203B
:101BD000F1E5EAF3EDE4000000000000D3E43A2070
:101BE000EFEEF1F220EDE5E8F1EFF0E0E2E5ED00F7
:101BF00000D3E43A20CFD0C420EDE5E8F1EFF0E0E7
:101C0000E2E5ED000000D3E43A20CFD0CC20EDE5B2
:101C1000E8F1EFF0E0E2E5ED000000D1EEE1FBF2EB
:101C2000E8E5202D202564000000000000000000F1
:101C3000D1EEE1FBF2E8E5202D2025640000000054
:101C40000000000000D1EEE1FBF2E8E5202D2025A8
:101C500064000000000000000000C6F3F0EDE0EBBF
:101C60005CD1EEE1FBF2E8FF0025642E20CFE5F029
:101C7000E5E4E0F2F7E8EA0025642E20CFF0E8E59D
:101C8000ECEDE8EA0025642E20C7E0F9E8F2E00078
:101C900025642E20D1EEE1FBF2E8FF00CCE5EDFE5D
:101CA0005CC6F3F0EDE0EB00C1D1CF204D435520F1
:101CB00000C1D1CF204453502000CFC820204D4335
:101CC000552000C1D1CA20CFD0C43100C1D1CA2013
:101CD000CFD0C43200C1D1CA20CFD0CC3100C1D1C5
:101CE000CA20CFD0CC3200EEF8E8E1EAE0000000F4
:101CF00025533A20253032582E2530325800CCE575
:101D0000EDFE5CC8EDF4EEF0ECE0F6E8FF002564D3
:101D10002E20C8EDF4EEF0ECE0F6E8FF0025642E8E
:101D200020D2E5F1F2FB0025642E20CDE0F1F2F0A7
:101D3000EEE9EAE00025642E20D3EFF0E0E2EBE5E7
:101D4000EDE8E50025642E20C6F3F0EDE0EB00CCD5
:101D5000E5EDFE00C0CA2DEEF8E8E10000C0CA2D96
:101D6000EDEEF0EC0000C0CA2DEDEEF0EC0000C08E
:101D7000CA2DF3F1EAEEF000C0CA2DE2FBEAEB0057
:101D800000C0CA2DE1E5E3EB0000C0CA2DE8F1EF89
:101D9000FBF200C0CA2DEFF3F1EA0000C0CA2DEE3D
:101DA000E4EDEEF100C0CA2DEEF8E8E1000000001D
:101DB00000000000000000253032643A2530326413
:101DC0003A253032640020202020C8EDE8F6E8E013
:101DD000EBE8E7E0F6E8FF20202000202020EDE5FA
:101DE00020EEEFF0E5E4E5EBE5ED212121202000F8
:101DF00020202020D2E8EF20E0EFEFE0F0E0F2E05A
:101E00002020202000CDE5E8F1EFF0E0E2EDEEF15A
:101E1000F2FC00CFF0E5E4F3EFF0E5E6E4E5EDE811
:101E2000E500CDE5E8F1EFF02EF7F22E20464C412B
:101E3000534800CDE5E8F1EFF02EE7E0EF2E464CF9
:101E400041534800CDE5E8F1EFF02EF7F22E205097
:101E50004C495300CDE5E8F1EFF02EE7E0EF2E50CE
:101E60004C495300CDE5E8F1EFF02EE7E0EF2E32DC
:101E700052414D00CDE5E8F1EFF02EF7F22E203281
:101E800052414D2000D3F1F2E0EDEEE2E8F2E52020
:101E9000F7E0F1FB00CEF2EAE0E720F0E5E7E5F05D
:101EA000E22EEBE8ED00D3E4E0EB2ECFCED1D22052
:101EB000EDE5E8F1EFF000D3E4E0EB2ECFD0C42065
:101EC000EDE5E8F1EFF000D3E4E0EB2ECFD0CC204D
:101ED000EDE5E8F1EFF000CDE5F220E1EBEEEAE030
:101EE00020C1D1C700CDE5E8F1EFF02EE2E5F0F139
:101EF0002EC1D1C700CDE5E8F1EFF02EEFE5F0E51A
:101F0000EAEB2E00CDE5F220F1E8E3EDE0EBE02096
:101F1000CFD0CC00CDE5E8F1EFF02EE2F5EEE42EE7
:101F2000CFD3D1CA00CDE5E8F1EFF02EE2F5EEE433
:101F30002ED1D2CECF00CDE5E8F1EFF02EF6E5EFD1
:101F4000FC2E20C2DBD500CDE5E8F1EFF02EE7E076
:101F5000EF2E20C2DBD500CDE5F220CAD700CDE5BB
:101F6000F220F1E8E3EDE0EBE020CCC0CD00CDE5E0
:101F7000F220E1EBEEEAE020C1D1CA00CDE5E8F1C4
:101F8000EFF02EE2E5F0F12E20C1D1CA00CDE5F24E
:101F900020CAD700CDE5E8F1EFF02EE7E0EF2E20E4
:101FA000C1D1CA00CDE5E8F1EFF02EE2FBEAEB2E5D
:101FB00020CAD1CA00CDE5E8F1EFF02EE2EAEB2E1F
:101FC00020CAD1CA00CDE5E8F1EFF02EEAEEEDF23D
:101FD000F02ECAD1CA00CDE5F220CAD700CDE5F275
:101FE00020E1EBEEEAE020C1D1CA00CDE5E8F1EF57
:101FF000F02EE2E5F0F12E20C1D1CA00CDE5E8F1E6
:10200000EFF02EF7F22EEAEEECE0EDE400CDE5E89D
:10201000F1EFF02EE2FBEAEB2ED2E5F1F200CDE596
:10202000E8F1EFF02EE2EAEB2E20D2E5F1F200CD5E
:10203000E5E8F1EFF02EE2F5EEE42E20CAD1CA0079
:10204000C0CA2DCDE5F220EEF2E2E5F2E000C0CA12
:102050002DD1EDE8E6E5ED2EE7E0EFE0F1E000CF91
:10206000EEECE5F5E020E220EBE8EDE8E800CDE578
:10207000E8F1EFF02E445350203252414D2000D26F
:10208000EEEA20EFEEEAEEFF00CDE8E7EAEEE5202B
:10209000EDE0EFF02EE2FBF500C2FBF1EEEAEEE53B
:1020A00020EDE0EFF02EE2FBF500CDE5E8F1EFF0FA
:1020B0002E20CCCA20D3CC00C2D720F2F0E0EAF226
:1020C00020E2EEF1F1F22E00C0CA2DCDE5F220EEB5
:1020D000F2E2E5F2E000CDE5E8F1EFF02EF3E4E026
:1020E000EB2E20C4D4C700CDE5E8F1EFF02EF3E4E9
:1020F000E0EB2E20C2DBD500D3E42ECFCED1D22010
:10210000E1E5E720EEF2E22E00D3E42ECFCED1D2ED
:1021100020EEE1ED2EEFEEEC2E00C4EBE8F2E5EB65
:10212000FCED2E20EFEEECE5F5E000CDE5E8F1EF7B
:10213000F02E20C4D4C700C0CA2DD1EDE8E6E5EDED
:102140002EE7E0EFE0F1E000CFEEF0EEE320EFEE7F
:1021500020EFEEECE5F5E500C0E2F2EEEAEEEDF29E
:10216000F0EEEBFC00CDE5F220F1E8E3EDE0EBE092
:1021700020D0C700CDE8E7EAE8E920F3F0EEE22E50
:1021800020D0C700D1EDE8E62E20F3F0EEE2EDFF1F
:1021900020CFD0CC0020CDE5F220F1E2FFE7E8200F
:1021A000F120C1D1CF2121212000C8F1F5EEE4EDCD
:1021B0002E00CAEEEDF2F0EEEBFC00CFF3F1EA00F8
:1021C000CEF1F2E0EDEEE200CDE5E8F1EFF02E0029
:1021D000CF2EEDE5E8F1EFF000CEE6E8E4E0EDE843
:1021E000E500CDE0EB2EEFF3F1EA00D3E42EEFF3C0
:1021F000F1EA00CDE5F220D0C700D0E5F7FC00CF32
:10220000D0C400CFD0CC00CEF8E8E1EAE000C8F1BD
:10221000F5EEE4ED2E00CFD0CC20CAD725303175B5
:1022200000CFD0CC20CFC02530327500CDE5F220D4
:10223000CAD700CDE5E8F1EFF02E00CF2EEDE5E8AE
:10224000F1EFF000CEE6E8E4E0EDE8E500C1CBCA4E
:1022500020CACC25303275003F307830383F003FFF
:10226000307830393F00D0E5F7FC00CFD0C400CF44
:10227000D0CC00C8F1F5EEE4ED2E00CFD0C420CADA
:10228000D72530317500CFD0C420CFC0253032756E
:1022900000CDE5F220CAD700CDE5E8F1EFF02E0041
:1022A000CF2EEDE5E8F1EFF000CEE6E8E4E0EDE872
:1022B000E5003F307830373F003F307830383F001E
:1022C000D1E8F1F2E5EC2E00D0E5F7FC00CFD0C468
:1022D00000CFD0CC00C7C0D900CFD0CC00CFD0C465
:1022E00000CDC5D200003C9111241FBECFEFD0E13C
:1022F000DEBFCDBF80B58B7F80BD9FEF9ABB1BBA81
:1023000017BA98BB80EE84BB8FE185BB88E381BBA5
:102310008CEC82BB80EC82B98CEF83B98EE0809329
:10232000610081EF809362001092640090936500D9
:1023300017BE8BE083BF88E181BF87B7826087BF0C
:102340001FBC8CE08EBD10927A001DBC1CBC80E7C7
:1023500092E09BBD8ABD87B7806187BF2CE088E192
:1023600090E00FB6F894A89581BD0FBE21BD11E095
:10237000A0E0B1E0EAEEFDE201E00BBF02C0079091
:102380000D92A03CB107D9F71AE0A0ECB1E001C072
:102390001D92A63BB107E1F712E2C8EED2E204C0FB
:1023A0002297FE010E949C93C63ED107C9F70E9466
:1023B00025920C94F3960C940000982FE091C101A3
:1023C0008E2F8150893020F08058893010F5E757E2
:1023D000EE23F9F08E2F8150943029F4E82FF0E0AD
:1023E000EF5FFE4F0DC0913029F4E82FF0E0ED5E75
:1023F000FE4F06C0923031F4E82FF0E0EB5DFE4F67
:10240000808108C0933029F4E82FF0E0E95CFE4FAA
:10241000F7CF80E01092C10108958091C00165E07E
:102420000E943893089580B38095807C87FF02C016
:1024300090E801C090E086FF02C0976023C08091C1
:1024400063008095837041F080FF02C094601AC0E1
:1024500081FF18C0926016C083B380958F7191F090
:1024600080FF02C093600EC081FF02C095600AC069
:1024700082FF02C0966006C083FF02C0986002C05F
:1024800084FD99608091C201981741F09093C20138
:1024900083E0809300011092C00109C08091000187
:1024A000882339F0992379F081508093000190E0DE
:1024B0000AC084E6809300018091C0018A3018F43C
:1024C0008F5F8093C0018091C101882311F49093A4
:1024D000C1010895809162008D7F809362001ABAD5
:1024E00085B3806C85BB80916200846080936200BC
:1024F000000000008091620088608093620000000C
:10250000000089B390916200977F9093620095E1FB
:102510009A95F1F795B39F7395BB9091620098607F
:10252000909362009FEF9ABB8095881F8827881F31
:10253000089595B3962B95BBE2E6F0E090819D7FE0
:10254000908390819B7F908300000000E2E6F0E0A2
:102550009081986090838BBB00000000E2E6F0E081
:102560008081877F808385E08A95F1F785B36095C8
:10257000862385BB0895E3ECF1E0119285E0E33C0E
:10258000F807D9F7089595B3962B95BBE2E6F0E0EE
:1025900090819260908390819B7F908300000000E7
:1025A0008BBBE2E6F0E08081886080830000000061
:1025B000E2E6F0E08081877F80838AE08A95F1F708
:1025C00085B36095862385BB08952091C70530911A
:1025D000C805F901ED53FE4F80832F5F3F4F3093C5
:1025E000C8052093C70508951F93AD9905C0AD9AFE
:1025F00080E49CE90197F1F78FEF9FEF9093C80576
:102600008093C7051AE0812F8A95F1F784EC60EC7E
:102610000E9499121A95F1F78FE360EC0E949912CB
:102620008AE18A95F1F71F91089590E0019770E093
:102630007695762F662777956795860F971F9093E7
:10264000C8058093C705089581E08093C405089567
:102650000F931F93CF93DF938091C405882309F4D0
:1026600042C00091C605002389F48091C5058854B5
:1026700060EC0E9499121AE1812F8A95F1F780E4AB
:1026800060EC0E9499121A95F1F702C00034D8F458
:102690008091C505C82FD0E0D695DC2FCC27D795E3
:1026A000C795CD53DE4FC00FD11D888160E80E94D1
:1026B000C312C05CDF4F888160E40E94C3120F5FC9
:1026C0000093C60510C08091C505873030F48F5F38
:1026D0008093C5051092C60506C01092C5051092DC
:1026E000C6051092C405DF91CF911F910F910895F7
:1026F000823039F480E395E790934A018093490151
:1027000008958093C30508958091C305813029F40D
:1027100082B390E2892782BB0895209149013091CC
:102720004A0121153105B1F082B390E2892782BBBD
:1027300080914B01882321F0815080934B010895B3
:1027400087EC80934B012150304030934A01209315
:102750004901089595980895982F873010F080E0EA
:102760000895A6ECB1E08AE58D9322E0A034B2078B
:10277000D9F71396E0ECF2E08FEF8C9312968C93DE
:10278000129780838283A058BF4FE058FF4F25E007
:10279000A33CB20791F7809342028093C30188E182
:1027A000809341028093C4018BED8093400280931B
:1027B000C501892F90E001969695982F88279795C7
:1027C0008795FC01EA53FE4F4AE59C01205C3D4F92
:1027D0004193E217F307E1F7FC01ED53FE4FE25896
:1027E000FF4F88E18083EE57F0408183E358FF4F2D
:1027F0008BED8083ED57F040828381E00895CF9385
:10280000DF93DC01603240F067FD02C0605205C01A
:10281000603B10F0605501C060E0ED01CD53DE4F2C
:1028200020E030E085E0689FB0011124F901E60F57
:10283000F71FE457FF4FE491E9932F5F3F4F253097
:102840003105A1F7AD53BE4F15961C92DF91CF9184
:102850000895AF92BF92CF92DF92EF92FF920F93C3
:102860001F93CF93DF93E82E492F683010F080E05C
:1028700046C0A62EBB2484E190E0A89E6001A99EDC
:10288000D00CB89ED00C11242E2D342FC9018C01F0
:10289000C4E8D0E00FC0CE01F80160810E94FF13B0
:1028A0008F2D64E10E943893933109F428960F5FCD
:1028B0001F4F2696F02EFE188F2D90E08C159D054B
:1028C00054F3E501D695DC2FCC27D795C795CC5F7F
:1028D000DE4FFC2C10C0CE01F80160810E94FF1376
:1028E0008F2D64E10E943893933109F428960F5F8D
:1028F0001F4FF3942696F7E7FF1568F781E0DF9105
:10290000CF911F910F91FF90EF90DF90CF90BF90EC
:10291000AF900895FC01662309F46681442309F40D
:1029200047816430C9F06630B9F06930A9F06B3086
:1029300099F0623051F4842F90E083709070892B6D
:1029400011F08CE108958DE1089561506C3010F420
:102950008FE1089580E008958EE10895FC01E45A26
:10296000FF4F81EE92E2918380833D9610823B97E8
:10297000119211921192119211921192119211923F
:1029800086E081938DE0819310820895FC01168684
:10299000178217861086108211821186128208957E
:1029A000CF93DF93EC018F81853010F080E017C06A
:1029B000A82FB0E047FD0CC0E42FFF27E7FDF095FE
:1029C000AE17BF070CF44F83EC0FFD1F628306C0E8
:1029D000AC0FBD1F12966C938F5F8F8381E0DF91E8
:1029E000CF910895FC0184E08087818781E282870E
:1029F00086E0838711A210A2148615861686178694
:102A0000108A118A108E178A128E118E138E158ECF
:102A1000148E81E090E0978F868F12A20895FC01BA
:102A2000662319F18689861700F150E040E0858918
:102A300020E030E0A82FB0E0742F7F5FCD01022EA0
:102A400002C0959587950A94E2F780FF04C0615013
:102A500011F4572F520F2F5F3F4F2830310571F778
:102A60003197485F403219F701C050E0852F089533
:102A7000FC01868D978D248D358D820F931F67897C
:102A8000708D01970E9451930895FC01862F81500B
:102A90008630B8F48150823038F481E090E0908B39
:102AA000878781E0818B0CC0862F8550823040F46F
:102AB00017821682138612868FE097E291878087AD
:102AC000628B08951F93FC0151874087738762874B
:102AD00010E007C01F5FCA016AE070E00E945193D6
:102AE000AB0141155105B1F714871F910895FC0101
:102AF0002785308986819781B9010E945193418948
:102B0000629FC001639F900D729F900D1124642FEE
:102B100070E00E945193862F08950F931F93CF93D7
:102B2000DF93FC01462F9289913011F09430C1F56A
:102B300027853089442319F1C085D185CE01B9019B
:102B40000E9451936A30710550F0C901880F991F96
:102B500053E0220F331F5A95E1F7280F391F4230F7
:102B600070F0CE01B9010E9451936A30710538F0BE
:102B7000C901880F991F880F991F280F391F668177
:102B8000778180859185821B930B8617970718F0B4
:102B9000620F731F02C0628573857783668339C0B5
:102BA000892F8250823078F42681378182859385FF
:102BB0008217930718F4C901019702C08085918597
:102BC0009783868326C09550923018F50681178129
:102BD00027853089B901660F771FE90183E0CC0FA3
:102BE000DD1F8A95E1F76C0F7D1FC8010E9451938C
:102BF000B9010E9451936930710539F4C20FD31F96
:102C00000C1B1D0B1783068304C0200F311F378355
:102C1000268386819781DF91CF911F910F9108952F
:102C20001F93CF93DF93EC0180E197E29B838A832C
:102C300080ED98E19D838C831E861F86188A198AF1
:102C40001A8A1C8A1B8A1E8A1D8A188E1F8A1A8E4F
:102C5000198ECE014B960E94AE14CB57DF4F1992BE
:102C600083E0899319921882C858D040FE01E75733
:102C7000FF4FC657DF4F10821992199281E0899356
:102C80001982188223961992199219821882239711
:102C900018822596199285E089938883C659D04079
:102CA000CE0189569F4F0E94AE14CF5FDE4F19921E
:102CB0001882C250D140FE01ED5FFE4F80E01082CD
:102CC00014828F5F31968430D1F7C95DDE4F19923F
:102CD0001992199219921882CB52D140CE01845D7B
:102CE0009E4F0E94AE14CA56DE4F199285E088832B
:102CF000C759D140FE01E856FE4F10E01082148201
:102D00001F5F31961430D1F7CF55DE4F84E18993A0
:102D100082E0888322971882239619921992199239
:102D200019921882C75AD140CE0188559E4F0E94F1
:102D3000AE14C05EDD4F23E029931883259685E00D
:102D400088832497199219921982188223961992CE
:102D5000199231E039931992199219921992199294
:102D60001882239680E190E09983888382E18A9398
:102D70001A92249619922993299319921992899358
:102D80001993399389E19CEF8993999380E79EEF9A
:102D900099838883CE53D240FE01EE5EFD4F80E0E2
:102DA000119211928F5F8730D9F7C05CDD4F199275
:102DB00084E089931992199281E08883C454D240A7
:102DC000CE018B5B9D4F0E94C614CE01855A9D4F4C
:102DD0000E94F214FE01E258FD4F80E011928F5FD5
:102DE0008832E1F7CA55DD4F81E089931882DF917F
:102DF000CF911F910895FC0184E08183EE54FD4F33
:102E000082E08083369681E0808332968CE08083F6
:102E10003697808338968DE0808336978083359609
:102E200086E0808336978083389689E08083369762
:102E30008083EF50F14082E29EE18193919383E39E
:102E40009EE18193919384E49EE18193919384E543
:102E50009EE18193919384E69EE1918380833896ED
:102E60008EE690E28193919384E79EE19183808343
:102E7000349689E890E28193919389E990E2918375
:102E80008083389685E89EE191838083E85CF140F9
:102E9000DF01AC57BF4F8C9181111C92E956FF4F57
:102EA0008EE69FE1819391938CE79FE181939193CB
:102EB0008DE89FE1918380833C9684E99FE1819333
:102EC000919384EA9FE18193919385EB9FE18193B4
:102ED000919385EC9FE1918380833A9684E891E217
:102EE00091838083EB58FF4F8DED9FE18193919308
:102EF0008BEE9FE1918380833E968CEF9FE18193DF
:102F000091938DE090E2819391938EE190E2819391
:102F100091938FE290E29183808381E00895FC0198
:102F200082E08183EE54FD4F8083369681E080837A
:102F300032968CE080833697808338968DE080834C
:102F400036978083339683E08083369780833896E4
:102F500086E0808336978083389689E08083369731
:102F60008083EF50F14082E29EE18193919383E36D
:102F70009EE18193919384E49EE18193919384E512
:102F80009EE18193919384E69EE1918380833896BC
:102F90008EE690E28193919384E79EE19183808312
:102FA000349689E890E28193919389E990E2918344
:102FB00080837C9685E89EE191838083EC5DF1407F
:102FC00087ED9EE1948F838F85EE9EE1968F858FAE
:102FD00085EF9EE190A3878F84E19FE194A783A76B
:102FE00085E29FE196A785A786E39FE192AB81AB3F
:102FF00087E49FE196AB85AB85E691E290AF87AB26
:1030000084E791E294AF83AF8EE59FE196AF85AF01
:10301000E956FF4F8EE69FE1819391938CE79FE104
:10302000819391938DE89FE1918380833C9684E91D
:103030009FE18193919384EA9FE18193919385EB42
:103040009FE18193919385EC9FE1918380833A96F0
:1030500084E891E291838083EB58FF4F8DED9FE1EF
:10306000819391938BEE9FE1918380833E968CEFC9
:103070009FE1819391938DE090E2819391938EE112
:1030800090E2819391938FE290E29183808381E03B
:103090000895CF93DF93FC0191E09183EE54FD4FAF
:1030A00082E080833696908332968CE080833697D8
:1030B000808338968DE0808336978083339683E0D3
:1030C000808336978083E359F0408081E052F2405C
:1030D000DF01AB54BD4FEF01C554DD4F823029F401
:1030E00087E08C9388E0888303C086E088838C9394
:1030F000E354FD4F8FE0808336978083EF50F1409B
:1031000082E29EE18193919383E39EE18193919387
:1031100084E49EE18193919384E59EE18193919370
:1031200084E69EE18193919380E490E28193919370
:103130008EE490E2819391938FE590E28193919355
:103140008EE690E28193919384E79EE1819391933F
:103150008FE790E28193919389E890E28193919334
:1031600089E990E2819391938AEA90E28193919325
:1031700088EB90E291838083349685E89EE1918389
:103180008083E85CF14087ED9EE1948F838F85EE2C
:103190009EE1968F858F85EF9EE190A3878F88ECC7
:1031A00090E294A383A386ED90E290A787A387EE95
:1031B00090E292A781A784E19FE194A783A785E28B
:1031C0009FE196A785A788EF90E290AB87A786E35B
:1031D0009FE192AB81AB89E091E294AB83AB87E452
:1031E0009FE196AB85AB8AE191E290AF87AB8BE232
:1031F00091E292AF81AF87E391E294AF83AF8EE526
:103200009FE196AF85AFFF9688E491E28193919319
:1032100088E591E291838083E154F040DF01A05082
:10322000BF4F8C9181111C92EB56FE4F8081811112
:10323000108281E0DF91CF910895FC0183E08183CA
:10324000E854FD4F82E0808336978083379681E093
:10325000808336978083EB50F14082E29EE1819338
:10326000919383E39EE18193919384E49EE1819322
:10327000919384E59EE18193919384E69EE191830D
:1032800080833A9684E79EE1918380833E9685E829
:103290009EE18193919385E99EE1918380833696A7
:1032A00086EA9EE18193919387EB9EE181939193CE
:1032B00087EC9EE191838083E45DF14087ED9EE1A0
:1032C000948F838F85EE9EE1968F858F85EF9EE1AB
:1032D00090A3878F84E09FE194A383A384E19FE17F
:1032E00094A783A785E29FE196A785A786E39FE140
:1032F00092AB81AB87E49FE196AB85AB87E59FE11D
:1033000094AF83AF8EE59FE196AF85AFE956FF4F4F
:103310008EE69FE1819391938CE79FE18193919356
:103320008DE89FE1918380833C9684E99FE18193BE
:10333000919384EA9FE18193919385EB9FE181933F
:10334000919385EC9FE1918380833A9686ED9FE18E
:1033500091838083EB58FF4F8DED9FE18193919393
:103360008BEE9FE1918380833E968CEF9FE181936A
:1033700091938DE090E2819391938EE190E281931D
:1033800091938FE290E29183808381E00895CF93BF
:10339000DF93EC01FC01EF5EFD4F8081882311F487
:1033A00081E08083662309F046C0CF5DDD4F8881D0
:1033B000C152D240813029F5CC57DF4F8881C458A3
:1033C000D040882379F0C050DF4F8881C050D14071
:1033D0008823E9F4CB56DE4F8881C559D140882334
:1033E000B1F4DCC0CB56DE4F8881C559D14088236B
:1033F00061F4C050DF4F8881C050D140882329F448
:1034000007C0823029F463E003C064E001C062E0D9
:103410008981681709F482C06983C85DDC4F19820D
:10342000188289EF93E79A938A93C657D04081E038
:103430008883C05BD240FE01E855FE4F20E085E066
:103440009EE1819391932F5F2031D9F7FE0120E017
:10345000382F492F338F448F2F5F32962031D1F789
:10346000FE01E956FF4F20E0832F942F8193919323
:103470002F5F2031D9F7FE01E45DFE4F20E08193FC
:1034800091932F5F2031D9F7FE01E853FE4F80E082
:1034900023E13EE1219331938F5F8031D9F7FE0123
:1034A000FB9680E0219331938F5F8031D9F7FE0145
:1034B000E954FF4F80E0219331938F5F8031D9F73A
:1034C000FE01E45BFE4F80E0219331938F5F8031FA
:1034D000D9F7FE01EE54FD4F80E011928F5F8C30E2
:1034E000E1F7643021F4CE010E94FB1613C0623074
:1034F00021F4CE010E948F170DC0613021F4CE015E
:103500000E94491807C0633011F020E00CC0CE01C2
:103510000E941D19282F8823C1F505C0662311F0CC
:1035200021E033C021E01982FE01EE54FD4F80E01E
:1035300011928F5F8C30E1F7C854DD4F82E08883B1
:1035400026978883279681E0888326978883C35BA4
:10355000D240FE01EC57FF4F808181111082FE01A5
:10356000E050FF4F808181111082FE01EB56FE4F2B
:10357000808181111082C85DDC4F198218828CE62F
:1035800096E79A938A93C652D34081E08883C055C8
:10359000DD4F8883822FDF91CF910895CE5EDD4F7E
:1035A00088819981C251D2408070907F8050904F25
:1035B00009F02ECF61E02CCFCF93DF93EC01DC013B
:1035C000AB5BBD4F9C91992339F0FE01EA5BFD4F47
:1035D00080818C93108240C0209145062F5F2093FC
:1035E0004506213011F490E337C02230D1F4FE01BA
:1035F000E35BFD4FC45BDD4F90818881CC54D240AA
:10360000981708F01082DE01A35BBD4F8C91FE017C
:10361000E80FF11DE95BFD4F90818F5F8C9399233B
:10362000D9F4FE01EC5AFD4FCD5ADD4F90818881CF
:10363000C355D240981708F01082FE01EC5AFD4F96
:103640008081C80FD11DC25BDD4F98818F5F808361
:10365000243010F010924506892FDF91CF91089504
:10366000E9ECF5E080E2819396E0E234F907D9F7DE
:103670000895862F8150863078F484E1689F602D0C
:103680001124962F945180E2E92FF0E0E753FA4F8E
:1036900080839F5F9617C1F70895CF93DF93DC0176
:1036A000663008F006C28AE0689F602D11246F5FC3
:1036B000483009F403C14930B8F4443009F496C0E5
:1036C000453050F4423009F44CC0433008F076C025
:1036D000413009F0EEC11DC0463009F4BDC070E0B4
:1036E000473008F0D1C09EC04C3009F403C14D30C2
:1036F00040F44A3009F481C170E04B3008F095C1C4
:1037000066C14E3009F445C170E04F3008F0AAC1DF
:1037100024C18DB79EB70C970FB6F8949EBF0FBE0D
:103720008DBFEDB7FEB73196862F90E087539A4F45
:10373000CDB7DEB79A8389838BE090E09383828351
:1037400085E594E0958384831B968C911B978683F3
:1037500017821C968C911C97808711861D968C91E0
:1037600025C0CDB7DEB72C970FB6F894DEBF0FBEDD
:10377000CDBFEDB7FEB73196862F90E087539A4FB5
:103780009A8389838BE090E09383828384E694E03C
:10379000958384831A968C911A978683178219963B
:1037A0008C9119978087118618968C918287138641
:1037B0000E94DE938DB79EB70C9676C1CDB7DEB76B
:1037C00028970FB6F894DEBF0FBECDBFEDB7FEB79A
:1037D0003196862F90E087539A4F9A8389838BE0A6
:1037E00090E09383828383E794E017C0CDB7DEB780
:1037F00028970FB6F894DEBF0FBECDBFEDB7FEB76A
:103800003196862F90E087539A4F9A8389838BE075
:1038100090E0938382838DE794E0958384831E9662
:103820008C911CC1CDB7DEB728970FB6F894DEBFD8
:103830000FBECDBFEDB7FEB7319667537A4F7A838F
:1038400069838BE090E09383828388E894E095839A
:1038500084831F968C9102C1CDB7DEB728970FB62F
:10386000F894DEBF0FBECDBFEDB7FEB73196862F01
:1038700090E087539A4F9A8389838BE090E09383FB
:10388000828383E994E015C0CDB7DEB728970FB6E1
:10389000F894DEBF0FBECDBFEDB7FEB731966753CC
:1038A0007A4F7A8369838BE090E0938382838DE9FA
:1038B00094E09583848350968C91D0C0CDB7DEB7C9
:1038C00028970FB6F894DEBF0FBECDBFEDB7FEB799
:1038D0003196862F90E087539A4F9A8389838BE0A5
:1038E00090E09383828388EA94E095838483519661
:1038F0008C91B4C053962D913C915497ADB7BEB7FF
:103900001A970FB6F894BEBF0FBEADBFEDB7FEB7A6
:103910003196862F90E087539A4FCDB7DEB79A83C2
:1039200089838BE090E09383828383EB94E095839B
:103930008483C9016AE070E00E9451936683178214
:10394000C9016AE070E00E945193808711860E944D
:10395000DE938DB79EB70A96A7C0CDB7DEB728977E
:103960000FB6F894DEBF0FBECDBFEDB7FEB73196F0
:1039700067537A4F7A8369838BE090E093838283E5
:1039800080EC94E09583848355968D919C91569715
:1039900084C0CDB7DEB728970FB6F894DEBF0FBE50
:1039A000CDBFEDB7FEB73196862F90E087539A4F83
:1039B0009A8389838BE090E09383828389EC94E0FF
:1039C0009583848357968D919C91589766C0CDB707
:1039D000DEB728970FB6F894DEBF0FBECDBFEDB7A8
:1039E000FEB7319667537A4F7A8369838BE090E014
:1039F0009383828382ED94E02DC0CDB7DEB7289704
:103A00000FB6F894DEBF0FBECDBFEDB7FEB731964F
:103A1000862F90E087539A4F9A8389838BE090E0BA
:103A2000938382838CED94E015C0CDB7DEB72897E1
:103A30000FB6F894DEBF0FBECDBFEDB7FEB731961F
:103A400067537A4F7A8369838BE090E09383828314
:103A500087EE94E09583848352968C91992787FD15
:103A600090951BC0CDB7DEB728970FB6F894DEBF90
:103A70000FBECDBFEDB7FEB7319667537A4F7A834D
:103A800069838BE090E09383828382EF94E0958357
:103A9000848359968D919C915A97978386830E942F
:103AA000DE938DB79EB708960FB6F8949EBF0FBEF3
:103AB0008DBFDF91CF910895AF92BF92CF92DF92E9
:103AC000EF92FF920F931F93CF93DF93EC01C255B8
:103AD000DD4F0881B6E0FB2EF01A8A91CD5AD24014
:103AE000F81610F010E042C0182F1F193FC0D60181
:103AF0008C91181718F020E030E00AC0E12FF0E0B8
:103B0000EE0FFF1FEC0FFD1FE154FD4F20813181AF
:103B1000EDB7FEB738970FB6F894FEBF0FBEEDBFF6
:103B200031960E9DC001112487539A4FADB7BEB791
:103B300012969C938E931197B382A282358324832D
:103B4000812F90E00196978386830E94DE931F5F0A
:103B5000EDB7FEB738960FB6F894FEBF0FBEEDBFB7
:103B6000D6018C91181780F40F5F0BC0FEEBCF2E9F
:103B7000F2E0DF2ECC0EDD1EE4E1EE2E75E1A72E85
:103B8000B12C063008F4B3CFC455DD4F8881CC5A30
:103B9000D2408823F1F0C355DD4F8881CD5AD24001
:103BA000F81620F48AE280932F0613C0C255DD4F29
:103BB000288190E0820F911D24E130E0829FF00186
:103BC000839FF00D929FF00D1124E954FA4F8AE281
:103BD0008083DF91CF911F910F91FF90EF90DF9045
:103BE000CF90BF90AF900895BF92CF92DF92EF92A7
:103BF000FF920F931F93CF93DF93EC01CF5DDC4FC8
:103C0000B880C152D3408AE0B81609F054C0C255FA
:103C1000DD4F1881CE5AD24004C0CE01612F0E94E0
:103C2000391B1F5F1730C8F3FE01EC5EFC4F80812B
:103C3000DE01A855BD4F8F30D8F58F5F80831C9271
:103C400000E010E098E2E92EF12C85E1C82ED12C9D
:103C500000D000D000D0EDB7FEB73196C701875332
:103C60009A4FADB7BEB712969C938E931197D3829D
:103C7000C2820C9DC0010D9D900D1C9D900D1124C4
:103C8000855E9A4F958384830E94DE930F5F1F4F5A
:103C900084E190E0E80EF91EADB7BEB716960FB6F8
:103CA000F894BEBF0FBEADBF0330110589F659C0F1
:103CB00084E08C9356C0CE0166E00E94391BCB5E37
:103CC000DC4F28813981C551D340B5E0BB16D1F412
:103CD0008DB79EB708970FB6F8949EBF0FBE8DBFE5
:103CE000EDB7FEB731968DE296E0ADB7BEB712964E
:103CF0009C938E93119785E190E0938382838EE06D
:103D000095E01AC096E0B91631F5ADB7BEB7189771
:103D10000FB6F894BEBF0FBEADBFEDB7FEB731967C
:103D20008DE296E012969C938E93119785E190E038
:103D3000938382838BEF94E09583848337832683F8
:103D40000E94DE938DB79EB708960FB6F8949EBF7B
:103D50000FBE8DBF06C0C855DD4F84E08883C85AAA
:103D6000D240C855DD4F8881C85AD2408530D9F13C
:103D7000863030F4833089F0843009F047C008C0C1
:103D8000873061F18730A0F1883009F03FC021C051
:103D9000CF5DDC4F18822D9716C095E0B91639F427
:103DA000CF5DDC4F87E08883C152D3402FC0FE0136
:103DB000EF5DFC4FA6E0BA1619F488E0808326C0B8
:103DC0001082CC5EDC4F8FE088831A92C351D340BF
:103DD0001DC0C25EDC4F88EE93E00EC0C25EDC4FB9
:103DE00084E690E009C0C25EDC4F8AE090E004C047
:103DF000C25EDC4F81E090E099838883CE51D3404E
:103E0000CE01815F9C4F60E00E948D15C855DD4F4B
:103E10001882C758DF4F8881DF91CF911F910F9192
:103E2000FF90EF90DF90CF90BF900895CF92DF92F8
:103E3000FF920F931F93F62E6A0100D000D000D09E
:103E4000EDB7FEB7319609EC15E0C801860F911D5C
:103E5000ADB7BEB712969C938E93119784E090E015
:103E6000938382838CE590E0C80ED91ED6018D9194
:103E70009C91958384830E94DE93B3E0FB0EEDB7A3
:103E8000FEB73196C8018F0D911DADB7BEB7129622
:103E90009C938E93119782E090E0938382838CE4CD
:103EA00091E0958384830E94A093EDB7FEB731968D
:103EB000F3940F0D111DADB7BEB712961C930E9360
:103EC000119789E090E0938382838AE090E0C80EA6
:103ED000D91ED6018C9190E023E0880F991F2A9576
:103EE000E1F784509C4F958384830E94DE938DB7C5
:103EF0009EB706960FB6F8949EBF0FBE8DBF1F915A
:103F00000F91FF90DF90CF900895DF92EF92FF9294
:103F10000F931F93CF93DF93EC01162F7A0100D0FC
:103F200000D000D0EDB7FEB73196862F90E08753D2
:103F30009A4FADB7BEB712969C938E93119784E0BB
:103F400090E0938382832CE530E0E20EF31ED701EC
:103F50008D919C9124EA3FEFE20EF31E95838483BA
:103F60000E94DE931D5FEDB7FEB73196812F90E082
:103F700087539A4FADB7BEB712969C938E93119705
:103F800082E090E0938382838CE491E09583848344
:103F90000E94A093D12ED394C75FDD4FEDB7FEB73B
:103FA00036960FB6F894FEBF0FBEEDBF8881C9509C
:103FB000D240882309F446C0C755DD4F8881C95ACD
:103FC000D2402D2D30E08823D9F000D000D000D091
:103FD000ADB7BEB7119627533A4FEDB7FEB7328350
:103FE000218381E190E013969C938E931297CA5F90
:103FF000DD4FE881C650D240F0E0EC52FF4FA2C046
:104000008DB79EB70A970FB6F8949EBF0FBE8DBFAF
:10401000EDB7FEB7319627533A4FADB7BEB71296FC
:104020003C932E93119781E190E09383828384E304
:1040300094E09583848387E690E097838683C95FC5
:10404000DD4FB7C0E1E6F0E0EE0EFF1ED7018C9128
:10405000EFE9FFEFEE0EFF1E882309F445C0C755B8
:10406000DD4F88812D2D30E08823F1F000D000D085
:1040700000D0ADB7BEB7119627533A4FCDB7DEB7D4
:104080003A83298381E190E013969C938E93129753
:10409000EEE5F0E0EE0EFF1EE701E88122EA3FEFD9
:1040A000E20EF31EF0E0B0C0ADB7BEB71A970FB680
:1040B000F894BEBF0FBEADBFEDB7FEB73196275324
:1040C0003A4FCDB7DEB73A83298381E190E09383FD
:1040D000828384E394E0958384838CE690E09783E5
:1040E00086832FE530E0C4C0C35FDD4F9881CD509B
:1040F000D240992309F4CEC0C755DD4F8881C95AF3
:10410000D240882309F4C6C02D2D30E0913081F5CE
:1041100000D000D000D0ADB7BEB7119627533A4FAC
:10412000EDB7FEB73283218381E190E013969C9333
:104130008E931297C65FDD4FE881CA50D240F0E0FF
:10414000EC51FF4FEE0FFF1FEC0FFD1F808191819F
:1041500015969C938E9314970E94DE932DB73EB7CD
:104160002A5F3F4F0FB6F8943EBF0FBE2DBFFFC072
:104170008DB79EB70A970FB6F8949EBF0FBE8DBF3E
:10418000EDB7FEB7319627533A4FADB7BEB712968B
:104190003C932E93119781E190E09383828384E492
:1041A00094E09583848387E690E097838683C55F58
:1041B000DD4F8881998161C0C755DD4F8881882393
:1041C00009F475C02D2D30E0913099F500D000D064
:1041D00000D0ADB7BEB7119627533A4FEDB7FEB733
:1041E0003283218381E190E013969C938E93129702
:1041F00022E630E0E20EF31EE701E8812EE93FEF10
:10420000E20EF31EF0E07096EE0FFF1FEE0DFF1DA5
:104210008081918115969C938E9314970E94DE93D2
:104220008DB79EB706960FB6F8949EBF0FBE8DBF92
:104230009EC0ADB7BEB71A970FB6F894BEBF0FBEFB
:10424000ADBFEDB7FEB7319627533A4FCDB7DEB7C6
:104250003A83298381E190E09383828384E494E02C
:104260009583848387E690E09783868323E630E016
:10427000E20EF31ED7018D919C91918780870E9459
:10428000DE93CDB7DEB72A960FB6F894DEBF0FBE29
:10429000CDBF6DC0E5E6F0E0EE0EFF1ED7019C91AC
:1042A000EBE9FFEFEE0EFF1E992309F085CF00D05A
:1042B00000D000D0EDB7FEB731968D2D90E087533A
:1042C0009A4FADB7BEB712969C938E93119709E0A3
:1042D00010E013830283C6E6D0E0EC0EFD1ED7018A
:1042E0008D917D0190E043E0880F991F4A95E1F799
:1042F00084509C4F958384830E94DE93D39400D096
:10430000ADB7BEB71196D80E8D2D90E087539A4F5A
:10431000CDB7DEB79A83898313961C930E931297B9
:10432000E701E88129E93FEFE20EF31EF0E0B096E5
:10433000EE0FFF1FEE0DFF1D8081918115969C935E
:104340008E93149788E690E0E80EF91EE7018881C5
:1043500016968C93169717961C920E94DE93EDB7D3
:10436000FEB738960FB6F894FEBF0FBEEDBFDF91D3
:10437000CF911F910F91FF90EF90DF900895CF9212
:10438000DF92EF92FF920F931F93CF93DF93EC0195
:10439000CF5DDC4F9881C152D3409A3009F054C0B0
:1043A000C255DD4F0881CE5AD24004C0CE01602FE5
:1043B0000E94391B0F5F0730C8F3FE01EC5EFC4F13
:1043C0008081DE01A855BD4F8F30D8F58F5F808387
:1043D0001C9200E010E098E2E92EF12C85E1C82E55
:1043E000D12C00D000D000D0EDB7FEB73196C70178
:1043F00087539A4FADB7BEB712969C938E93119781
:10440000D382C2820C9DC0010D9D900D1C9D900D0C
:104410001124865A9A4F958384830E94DE930F5FFE
:104420001F4F84E190E0E80EF91EADB7BEB71696B7
:104430000FB6F894BEBF0FBEADBF0330110589F6AD
:10444000D0C084E08C93CDC0913071F5CB5EDC4F51
:104450000881198126968881CB51D34081508430C0
:1044600008F0B9C0CE0166E00E94391B8DB79EB737
:1044700008970FB6F8949EBF0FBE8DBFEDB7FEB77D
:1044800031968DE296E0ADB7BEB712969C938E93AF
:10449000119785E190E09383828389EA95E0958383
:1044A0008483178306838CC0943009F040C0CB5EB0
:1044B000DC4F0881198126968881CB51D3408150E9
:1044C000843020F0C855DD4F988389C0CE0166E066
:1044D0000E94391BADB7BEB71A970FB6F894BEBF8E
:1044E0000FBEADBFEDB7FEB731968DE296E01296E6
:1044F0009C938E93119785E190E09383828389E961
:1045000095E095838483C8016AE070E00E9451932E
:1045100077836683C8016AE070E00E9451939187B7
:1045200080870E94DE938DB79EB70A964EC0923068
:1045300039F4CB5EDC4F08811981C551D34010C0DE
:10454000933009F048C0CF5EDC4FE881F9812496B2
:1045500088819981C551D340E80FF91F008110E08F
:10456000CE0166E00E94391BADB7BEB718970FB6F3
:10457000F894BEBF0FBEADBFEDB7FEB731968DE26A
:1045800096E012969C938E93119785E190E0938329
:10459000828384EB95E095838483C15FDC4F8BE05D
:1045A00090E0089F9001099F300D189F300D112455
:1045B00088819981CF50D340820F931F9783868340
:1045C0000E94DE938DB79EB708960FB6F8949EBFF3
:1045D0000FBE8DBF06C0C855DD4F84E08883C85A22
:1045E000D240C855DD4F8881C85AD240843061F02E
:1045F000853020F4833009F096C08FC08530B9F043
:10460000883009F090C00AC0CF5DDC4F18822D972A
:104610008FE088831A92C351D34085C00E940D1247
:10462000682FCE01815F9C4F0E948D157CC00E9437
:104630000D12482FCF5DDC4F8881C152D3408130AD
:1046400019F0843009F04BC0C25EDC4F28813981FB
:10465000CE51D340442339F1C95EDC4FE881F98162
:10466000C751D340CF01B9010E9451936A307105FF
:1046700050F0C901880F991FA3E0220F331FAA959C
:10468000E1F7280F391F423070F0CF01B9010E94C5
:1046900051936A30710538F0C901880F991F880F4E
:1046A000991F280F391FCB5EDC4F688179812496D2
:1046B00088819981C951D340820F931F6817790768
:1046C00018F0621B730B06C0C95EDC4F68817981EC
:1046D000C751D340CB5EDC4F798368831BC08250C7
:1046E000823008F5CB5EDC4F299139918881998120
:1046F000C751D3402817390718F4C901019606C0DD
:10470000C75EDC4F88819981C951D340CB5EDC4FB5
:1047100099838883C551D34006C0CF5DDC4F89E0C3
:104720008883C152D340C855DD4F1882C758DF4F28
:104730008881DF91CF911F910F91FF90EF90DF90D3
:10474000CF900895FF920F931F93CF93DF93EC01C7
:10475000F980FC01E055FD4F80818823A9F110828A
:10476000C355DD4F81E088838A93CC5AD24083E0E1
:10477000F81611F082E001C081E08E0102551D4F54
:10478000D8018C930E94BB12F80180810E94AC1367
:10479000109242068E010B5B1D4FC8010E94C61489
:1047A000C80164E34FEF0E94D014DE01AD5ABD4F43
:1047B0009C91953048F4FE01E90FF11DE25BFD4F3D
:1047C0008EE380839F5F9C93F3E0FF1689F0CE0118
:1047D00062E046E00E944D1BCC57DF4F8881C458F1
:1047E000D040882329F0CE0163E043E00E944D1BB6
:1047F00000D000D000D0EDB7FEB7319689EC95E03F
:10480000ADB7BEB712969C938E93119705E110E059
:104810001383028381E298E0958384830E94DE9370
:10482000EDB7FEB73196C255DD4F888124E1829FF6
:10483000C001112487539A4FADB7BEB712969C930F
:104840008E931197138302838FE098E0958384837E
:104850000E94DE93EDB7FEB731968DE296E0ADB7DC
:10486000BEB712969C938E931197138302838DEBA0
:1048700095E0958384830E94DE93EDB7FEB7319671
:104880008C5990E087539A4FADB7BEB712969C9360
:104890008E9311978BE090E0938382832797888192
:1048A0002BE0829FC001112488539A4F9583848303
:1048B0000E94DE93C959D040EDB7FEB736960FB6C9
:1048C000F894FEBF0FBEEDBF8881CE50D240853038
:1048D00071F0809142068F5F80934206853048F0E8
:1048E000C855DD4F84E08883C85AD24002C0109278
:1048F0004206C855DD4F8881C85AD240843019F02D
:10490000893069F520C0CB5BDD4F8881C554D2402A
:10491000882319F4E0E0F0E009C0CA5BDD4F88812C
:10492000C654D240882341F4E1E0F0E0EC0FFD1FD3
:10493000EB5BFD4F80E78083C85DDC4F19821882F6
:1049400081EC97E206C0C85DDC4F1982188289EFBE
:1049500093E79A938A93C657D04081E08883DF918A
:10496000CF911F910F91FF900895FF920F931F9386
:10497000CF93DF93EC01F980FC01E055FD4F80817E
:10498000882309F44FC11082C355DD4F81E088832D
:104990008A93CC5AD24083E0F81611F082E001C02D
:1049A00081E08E0102551D4FD8018C930E94BB12ED
:1049B000F80180810E94AC13109243068E010B5BBC
:1049C0001D4FC8010E94C614C80164E34FEF0E9446
:1049D000D014DE01AD5ABD4F9C91953048F4FE01D4
:1049E000E90FF11DE25BFD4F8EE380839F5F9C9397
:1049F000FE01E258FD4F80E011928F5F8832E1F7AF
:104A0000FE01EA55FD4F81E08083C955DD4F1882D4
:104A1000C75AD240F816B1F4C158DD4F8AE08883F6
:104A200082E08083C955D0408881C652D240882315
:104A300009F0FBC0C058DD4FF882C058D24083E077
:104A40008083F3C092E0F91609F0A2C0C158DD4F8F
:104A500086E0899387E08883C058D24083E08083D2
:104A6000DE01AA55BD4F9C91983248F4FE01E90F32
:104A7000F11DE258FD4F88E080839F5F9C93DE012B
:104A8000AA55BD4F9C91983248F4FE01E90FF11DE3
:104A9000E258FD4F89E080839F5F9C93DE01AA5519
:104AA000BD4F9C91983248F4FE01E90FF11DE25888
:104AB000FD4F8BE080839F5F9C93DE01AA55BD4F25
:104AC0009C91983248F4FE01E90FF11DE258FD4F28
:104AD0008CE080839F5F9C93DE01AA55BD4F9C9123
:104AE000983248F4FE01E90FF11DE258FD4F8DE0C8
:104AF00080839F5F9C93DE01AA55BD4F9C919832A5
:104B000048F4FE01E90FF11DE258FD4F8EE080836D
:104B10009F5F9C93DE01AA55BD4F9C91983248F44B
:104B2000FE01E90FF11DE258FD4F8FE080839F5F8A
:104B30009C93DE01AA55BD4F9C91983248F4FE012A
:104B4000E90FF11DE258FD4F80E180839F5F9C9348
:104B5000DE01AA55BD4F9C91983248F4FE01E90F41
:104B6000F11DE258FD4F81E180839F5F9C93DE0140
:104B7000AA55BD4F9C91983208F057C0FE01E90F2D
:104B8000F11DE258FD4F82E180839F5F9C934DC0F1
:104B9000A4E0FA1621F5C158DD4F82E0899383E045
:104BA00088838083CA5ED0402881C659D14093E172
:104BB000DE01AA55BD4F0EC08C91883250F494335B
:104BC00040F4FE01E80FF11DE258FD4F90838F5F26
:104BD0008C939F5F892F8351821770F326C0B3E0B7
:104BE000FB1619F5C158DD4F888382E08083C95ECA
:104BF000D0402881C659D14093E1DF010EC08C918D
:104C0000883250F4943340F4FE01E80FF11DE2586D
:104C1000FD4F90838F5F8C939F5F892F8351821705
:104C200070F30DC0E3E0FE1651F0CE0162E04CE0FF
:104C30000E944D1BCE0163E04DE00E944D1B00D051
:104C400000D000D0EDB7FEB7319689EC95E0ADB756
:104C5000BEB712969C938E93119705E110E01383D3
:104C6000028384E498E0958384830E94DE93EDB709
:104C7000FEB73196C255DD4F8881CE5AD24024E12D
:104C8000829FC001112487539A4FADB7BEB71296C9
:104C90009C938E9311971383028380E398E095830E
:104CA00084830E94DE93FE01EF5DFC4F8DB79EB7BB
:104CB00006960FB6F8949EBF0FBE8DBF80818B30D5
:104CC00008F01082CF5DDC4F8881C152D340882329
:104CD00009F493C0CE010E94BF21893009F0CDC0F4
:104CE000CF5EDC4FE881F981249688819981C55196
:104CF000D340E80FF91FE0818E2F8351803210F4EA
:104D0000E05105C08E2F8250843018F4E15090E0BD
:104D10002AC0E63011F491E025C0E73011F492E0AA
:104D200021C0E83011F491E003C0E93019F492E0B9
:104D3000E2E019C0EA3011F491E011C08E2F8F50DB
:104D4000843018F4EC5092E00EC08E2F8B508430DB
:104D500018F4E85091E007C0E13019F090E0E0E08D
:104D600002C090E0E1E0CB5ADD4F81E08993E88317
:104D7000C354DF4F2881CE5CD0408881C554D240D7
:104D8000882319F4E0E0F0E009C0CA5BDD4F8881B8
:104D9000C654D240882339F4E1E0F0E0EC0FFD1F67
:104DA000EB5BFD4F2083C95ADD4F82E089939883E6
:104DB000C554DF4F9881CE5CD0408881C554D24025
:104DC000882319F4E0E0F0E009C0CA5BDD4F888178
:104DD000C654D240882339F4E1E0F0E0EC0FFD1F27
:104DE000EB5BFD4F9083CF5DDC4F18822D978FE0FA
:104DF00088831A92C351D34040C000D000D000D065
:104E0000EDB7FEB731968DE296E0ADB7BEB712961C
:104E10009C938E93119785E190E0938382838DEB31
:104E200095E0958384830E94DE93EDB7FEB73196BB
:104E30008C5990E087539A4FADB7BEB712969C93AA
:104E40008E9311978BE090E093838283C955DD4F59
:104E50008881C75AD2402BE0829FC0011124885319
:104E60009A4F958384830E94DE93EDB7FEB7369602
:104E70000FB6F894FEBF0FBEEDBFC25FDD4F888155
:104E8000CE50D240843071F0809143068F5F809382
:104E90004306853048F0C855DD4F84E08883C85A02
:104EA000D24002C010924306C855DD4F8881C85ACF
:104EB000D240843031F0893021F1833009F05BC079
:104EC0002CC0CB5BDD4F8881C554D240882319F4B8
:104ED000E0E0F0E009C0CA5BDD4F8881C654D240F3
:104EE000882341F4E1E0F0E0EC0FFD1FEB5BFD4FA8
:104EF00080E78083C85DDC4F1982188281EC97E2DD
:104F000006C0C85DDC4F1982188289EF93E79A9337
:104F10008A93C657D04081E02DC0FE01EB5EFC4F66
:104F2000C75EDC4F88819981C951D34091838083CA
:104F30008E01015F1C4FC80163E00E944515CA55F0
:104F4000DD4F4881C65AD24050E041505040C80120
:104F500060E070E00E946215CE0182589D4FCF5EE6
:104F6000DC4F9983888388EC95E0D8018D939C93DE
:104F700022968EE78883DF91CF911F910F91FF904A
:104F80000895AF92BF92CF92DF92EF92FF920F936C
:104F90001F93CF93DF93EC01FC01E055FD4F80811F
:104FA000882309F470C01082C355DD4F81E08883E7
:104FB0008A93CC5AD2408E0102551D4FD8018C9352
:104FC0000E94BB12F80180810E94AC13C254DD4FD5
:104FD0001882C952D1408881C559D140882339F4FB
:104FE000CC57DF4F8881C458D0408823A1F0C154EA
:104FF000DD4F82E998E099838883CF5BD240DE0160
:10500000A254BD4F8C91FE01E80FF11DE550FD4FFC
:1050100010828F5F8C93C050DF4F8881C050D14089
:10502000882339F4CC57DF4F8881C458D040882377
:10503000E1F0AE0142545D4FDA012C912431A8F425
:10504000E22FF0E0DF01AA0FBB1FAC0FBD1FA15480
:10505000BD4F8FE798E08D939C93EC0FFD1FE550BB
:10506000FD4F10822F5FFA0120838E010B5B1D4FD5
:10507000C8010E94C6148981813029F4C80167E300
:105080004FEF0E94D014C355DD4FE881E150619687
:105090008881CE5BD240E81718F0AA24BB2409C04F
:1050A000F0E0EE0FFF1FEC0FFD1FE154FD4FA0805D
:1050B000B18000D000D000D0EDB7FEB7319689ECBA
:1050C00095E0ADB7BEB712969C938E93119784E18D
:1050D00090E09383828387EA98E0958384830E949B
:1050E000DE93CF54DD4FEDB7FEB736960FB6F8948A
:1050F000FEBF0FBEEDBF8881C15BD2408F3008F08C
:1051000046C0C255DD4F0881CE5AD24004C0CE0100
:10511000602F0E94391B0F5F0730C8F300D000D00A
:1051200000D0EDB7FEB7319631EFE32E35E0F32E28
:10513000ADB7BEB71296FC92EE92119725E1C22E42
:10514000D12CD382C28205E518E0158304830E9426
:10515000DE93EDB7FEB7319684E190E0E80EF91EDC
:10516000ADB7BEB71296FC92EE921197D382C2826F
:105170000B5E1F4F158304830E94DE93EDB7FEB7CD
:1051800036960FB6F894FEBF0FBEEDBF03C0CE013A
:105190000E945C1DC25FDD4F9881C656DF4F88813B
:1051A000C85AD2408530E9F0863030F48330E9F1D6
:1051B000843009F0AFC025C0883021F0893009F073
:1051C000A9C026C0C355DD4F8881CD5AD240823058
:1051D00010F0815013C0C254DD4F8881CE5BD240A5
:1051E0000DC0C355DD4F988161968881CE5BD2405A
:1051F000981710F081E002C0892F8F5FC355DD4FF3
:1052000012C0C85DDC4F1982188282EF92E706C097
:10521000C85DDC4F1982188289EF93E79A938A93CD
:10522000C657D04081E0888375C0F2E9AF16F8E038
:10523000BF0649F5992311F09530E1F4CB5ADD4FC3
:10524000188260978881C554D240882319F4E0E021
:10525000F0E009C0CA5BDD4F8881C654D240882384
:1052600059F4E1E0F0E0EC0FFD1FEB5BFD4F8EE742
:10527000808302C09430D1F5C85DDC4F198218825A
:1052800085EB94E22BC02FE7A21628E0B20671F559
:10529000992311F09430D1F4CB5BDD4F8881C55454
:1052A000D240882319F4E0E0F0E009C0CA5BDD4F8A
:1052B0008881C654D240882359F4E1E0F0E0EC0F35
:1052C000FD1FEB5BFD4F8DE7808302C0953071F4CD
:1052D000C85DDC4F1982188282EA93E29A938A931E
:1052E000C657D04081E08883C05BD240CA5DDC4FA6
:1052F00088819981C652D340815C974259F4C85D38
:10530000DC4F88819981C852D340892B19F4CF543E
:10531000DD4F1882DF91CF911F910F91FF90EF9099
:10532000DF90CF90BF90AF900895CF92DF92EF9231
:10533000FF920F931F93CF93DF93EC01FC01E05595
:10534000FD4F8081882309F494C01082C355DD4F3E
:10535000FF24F394F882FA92CC5AD2408E0102557F
:105360001D4FD801FC920E94BB12F80180810E945F
:10537000AC13FE01E254FD4FC154DD4F88EF99E0BC
:1053800099838883EC961882F082CB5BD040888129
:10539000C054D240813009F067C0CF53DD4F8FEE4B
:1053A00099E099838883EB961882E9978DED99E0CF
:1053B00099838883EA961882CD5FD24083E0808308
:1053C000AE0142545D4FDA012C912431A8F4E22F52
:1053D000F0E0DF01AA0FBB1FAC0FBD1FA154BD4FF2
:1053E00081ED99E08D939C93EC0FFD1FE550FD4FEF
:1053F00010822F5FFA012083AE0142545D4FDA0123
:105400002C912431A8F4E22FF0E0DF01AA0FBB1F9A
:10541000AC0FBD1FA154BD4F88EC99E08D939C93B8
:10542000EC0FFD1FE550FD4F10822F5FFA01208326
:10543000AE0142545D4FDA012C912431A8F4E22FE1
:10544000F0E0DF01AA0FBB1FAC0FBD1FA154BD4F81
:105450008AEB99E08D939C93EC0FFD1FE550FD4F77
:1054600010822F5FFA012083CE018B5B9D4F0E943B
:10547000C614C355DD4FE881E15061968881CE5B4B
:10548000D240E81718F0CC24DD2409C0F0E0EE0F7C
:10549000FF1FEC0FFD1FE154FD4FC080D18000D0F5
:1054A00000D000D0EDB7FEB7319609EC15E0ADB7EE
:1054B000BEB712961C930E93119775E1E72EF12C4F
:1054C000F382E28288E09AE0958384830E94DE93EF
:1054D00000D000D0EDB7FEB731960C5E1F4FADB7D0
:1054E000BEB712961C930E931197F382E28287EB5C
:1054F00098E095838483C355DD4F88818683178226
:1055000061968881CE5BD240808711860E94DE93AF
:105510000F900F900F900F90EDB7FEB731960C5E85
:105520001F4FADB7BEB712961C930E931197F3821F
:10553000E282D582C4820E94DE93EDB7FEB7319637
:1055400089E196E0ADB7BEB712969C938E93119702
:105550000BE010E0138302838CEC98E09583848346
:105560000E94DE93EDB7FEB73196805B90E08753E3
:105570009A4FADB7BEB712969C938E931197138333
:10558000028387ED98E0958384830E94DE93FE0179
:10559000EF5DFC4F2DB73EB72A5F3F4F0FB6F89433
:1055A0003EBF0FBE2DBF80818B3008F01082CF5DD3
:1055B000DC4F8881C152D340882309F479C0CE01E1
:1055C0000E94BF21893009F068C138EFC31639E065
:1055D000D306B9F4CE01815F9C4F0E947715982FB6
:1055E000FE01E05CFD4F8081981709F457C09230AE
:1055F00008F49083C055DD4F81E08883C05BD240C2
:105600004DC08FEEC81689E0D80609F447C09DED5D
:10561000C91699E0D90669F4CE01815F9C4F0E94BA
:1056200077158730D8F5CF5BDD4F8883C154D240E2
:1056300035C0A1EDCA16A9E0DA0669F4CE01815F92
:105640009C4F0E947715882349F5CE5BDD4F188269
:10565000C254D24023C0B8ECCB16B9E0DB0669F4E3
:10566000CE01815F9C4F0E9477158330B8F4CD5BEB
:10567000DD4F8883C354D24011C0EAEBCE16E9E077
:10568000DE0661F4CE01815F9C4F0E947715823067
:1056900028F4CC5BDD4F8883C454D240CF5DDC4F0F
:1056A00018822D978FE088831A92C351D340F5C09A
:1056B00000D000D000D0EDB7FEB731968DE296E075
:1056C000ADB7BEB712969C938E9311970BE010E086
:1056D000138302838DEB95E0958384830E94DE9390
:1056E0008C59EDB7FEB736960FB6F894FEBF0FBED5
:1056F000EDBFF8EFCF16F9E0DF0611F500D000D0CE
:1057000000D0EDB7FEB7319690E087539A4FADB712
:10571000BEB712969C938E93119713830283C05C3D
:10572000DD4F8881C054D24090E09C01209FC00191
:10573000219F900D309F900D11248252974FA1C050
:105740009FEEC91699E0D90609F4A7C0ADEDCA16B7
:10575000A9E0DA0611F500D000D000D0EDB7FEB711
:10576000319690E087539A4FADB7BEB712969C938F
:105770008E93119713830283CF5BDD4F8881C154D1
:10578000D24090E09C01209FC001219F900D309F4E
:10579000900D11248150974F74C091EDC91699E076
:1057A000D90611F500D000D000D0EDB7FEB7319684
:1057B00090E087539A4FADB7BEB712969C938E93E5
:1057C000119713830283CE5BDD4F8881C254D24090
:1057D00090E09C01209FC001219F900D309F900D73
:1057E0001124895A964F4DC098ECC91699E0D906F4
:1057F00011F500D000D000D0EDB7FEB7319690E0A3
:1058000087539A4FADB7BEB712969C938E9311975C
:1058100013830283CD5BDD4F8881C354D24090E077
:105820009C01209FC001219F900D309F900D11245D
:105830008359964F26C09AEBC91699E0D90669F5A7
:1058400000D000D000D0EDB7FEB7319690E087537E
:105850009A4FADB7BEB712969C938E931197138350
:105860000283CC5BDD4F8881C454D24090E09C0120
:10587000209FC001219F900D309F900D11248756CD
:10588000964F958384830E94DE938DB79EB70696CC
:105890000FB6F8949EBF0FBE8DBFC855DD4F8881EF
:1058A000C85AD2408530E9F0863030F48330E9F1CF
:1058B000843009F04CC125C0883021F0893009F0CE
:1058C00046C12CC0C355DD4F8881CD5AD2408230AD
:1058D00010F0815013C0C254DD4F8881CE5BD2409E
:1058E0000DC0C355DD4F988161968881CE5BD24053
:1058F000981710F081E002C0892F8F5FC355DD4FEC
:105900000BC0C85DDC4F198218828AED9DE59A9321
:105910008A93C657D04081E0888319C1C85DDC4FA7
:105920001982188289EF93E7F2CFCC5DDC4F1982A0
:1059300018828FEB91E29A938A93C252D34098EFE8
:10594000C91699E0D90671F58E01015F1C4FC80197
:1059500062E00E944515C80160E070E041E050E05F
:105960000E946215C05CDD4F8881282F30E0C7524D
:10597000DF4F48815981C951D3402417350748F07A
:10598000C95EDC4F88819981C751D3408217930744
:1059900008F49A01CB5EDC4F3983288326978EED7D
:1059A00098E0D1C0AFEECA16A9E0DA0609F4CFC07C
:1059B000BDEDCB16B9E0DB0671F58E01015F1C4F22
:1059C000C80162E00E944515C80160E070E046E051
:1059D00050E00E946215CF5BDD4F8881282F30E0B8
:1059E000C852DF4F48815981C951D3402417350728
:1059F00048F0C95EDC4F88819981C751D340821736
:105A0000930708F49A01CB5EDC4F398328832697ED
:105A10008FEF98E098C0E1EDCE16E9E0DE0671F573
:105A20008E01015F1C4FC80162E00E944515C8014C
:105A300060E070E040E050E00E946215CE5BDD4F18
:105A40008881282F30E0C952DF4F48815981C951E0
:105A5000D3402417350748F0C95EDC4F888199810F
:105A6000C751D3408217930708F49A01CB5EDC4FED
:105A700039832883269787E599E065C0F8ECCF162F
:105A8000F9E0DF0671F58E01015F1C4FC80162E08D
:105A90000E944515C80160E070E042E050E00E94BD
:105AA0006215CD5BDD4F8881282F30E0CA52DF4F71
:105AB00048815981C951D3402417350748F0C95E40
:105AC000DC4F88819981C751D3408217930708F42E
:105AD0009A01CB5EDC4F3983288326978DE699E0C7
