:100000000C94710E0C94D80E0C94D80E0C94D80E3F
:100010000C94D80E0C94D80E0C94D80E0C94D80EC8
:100020000C94D80E0C94D80E0C94D80E0C94D80EB8
:100030000C9490730C94D80E0C94D80E0C94C67338
:100040000C94D80E0C94D80E0C9427730C94C57293
:100050000C94FE720C94D80E0C94D80E0C94D80EFE
:100060000C94D80E0C94D80E0C94D80E0C94D80E78
:100070000C94D80E0C94D80E0C9491720C942F7290
:100080000C9468720C94D80E0C94D80E00000000EA
:100090000000004F00000007000700147F147F14C9
:1000A000242A7F2A1223130864623649552240000D
:1000B00005030000001C2241000041221C0014081E
:1000C0003E081408083E08080050300000080808E0
:1000D0000808006060000020100804023E514945F5
:1000E0003E00427F400042615149462141454B312B
:1000F0001814127F1027454545393C4A49493001BB
:10010000710905033649494936064949291E003611
:100110003600000056360000081422410014141462
:100120001414004122140802015109063249714198
:100130003E7E1111117E7F494949363E414141229F
:100140007F4141221C7F494949417F090909013EFC
:100150004149493A7F0808087F00417F410020401B
:10016000413F017F081422417F404040407F020C04
:10017000027F7F0408107F3E4141413E7F0909090B
:10018000063E4151215E7F091929464649494931B8
:1001900001017F01013F4040403F1F2040201F3FA1
:1001A0004070403F631408146307087008076151EA
:1001B000494543007F4141000204081020004141AD
:1001C0007F0004020102044040404040000102045C
:1001D0000020545454787F484444383844444420E0
:1001E000384444487F3854545418087E0901020C9E
:1001F0005252523E7F0804047800447D4000204063
:10020000443D007F1028440000417F40007C0418DA
:1002100004787C0804047838444444387C1414146A
:1002200008081414187C7C0804040848545454200A
:10023000043F4440203C4040207C1C2040201C3C8B
:100240004030403C44281028440C5050503C4464FA
:10025000544C44000836410000007F000000413645
:100260000800020102020114141414147E11111169
:100270007E7F494949337F494949367F010101035E
:10028000E0514F41FF7F4949494177087F08774155
:10029000494949367F1008047F7C2112097C7F0878
:1002A00014224120413F017F7F020C027F7F08081A
:1002B000087F3E4141413E7F0101017F7F090909DD
:1002C000063E4141412201017F01014728100807F4
:1002D0001C227F221C63140814637F404040FF07E8
:1002E0000808087F7F407F407F7F407F40FF017F7D
:1002F0004848307F4830007F007F484830224149DD
:10030000493E7F083E413E462919097F20545454F6
:10031000783C4A4A49317C545428007C0404040C3B
:10032000E0544C44FC38545454186C107C106C4409
:10033000445454287C2010087C7C4122117C7C1081
:1003400028440020443C047C7C0810087C7C10106D
:10035000107C38444444387C0404047C7C14141419
:1003600008384444442004047C04040C5050503C9D
:100370003048FC483044281028447C404040FC0C65
:100380001010107C7C407C407C7C407C40FC047CD9
:100390005050207C5050207C7C50502000284454E9
:1003A00054387C10384438085434147CCDEEE2FBC9
:1003B000E920EFE0F0EEEBFC3A202530347500CF79
:1003C000E0F0EEEBFC3A20253034750020202020B0
:1003D000202020C2E2E5E4E5ED202020202020209E
:1003E0000020202020EDE5EFF0E0E2E8EBFCEDFB63
:1003F000E9202020200020202020202020EFE0F0F5
:10040000EEEBFC202020202020200020C8E7ECE597
:10041000EDE8F2FC20EFE0F0E0ECE5F2F020200067
:100420002020ECEEE6EDEE20F2EEEBFCEAEE20E230
:1004300020202020002020F0E5E6E8ECE520C2DBCB
:10044000C2C5C4C5CD2020202000C2E2EEE43A207F
:10045000253031752E2530317500C2E2EEE43A20A8
:100460002530317500C2E2EEE43A20255300C7ED95
:10047000E0F7E5EDE8E53A2000E2FBEAEB2E0000CC
:1004800000000000CAD7000000000000000000CA01
:10049000D7310000000000000000CAD73200000081
:1004A0000000000000CAD733000000000000000078
:1004B000CAD7340000000000000000CAD720E1E5E0
:1004C000E720E1EBEA00CAD720F120E1EBEEEA00F9
:1004D00000D0C7000000000000000000CAEEEC31B0
:1004E0002BE1EBEEEA0000CAEEEC322BE1EBEEEA98
:1004F0000000CAEEEC332BE1EBEEEA0000CAEEECB2
:10050000342BE1EBEEEA0000CAEEECE0EDE4E03182
:10051000000000CAEEECE0EDE4E032000000CAEEBC
:10052000ECE0EDE4E033000000CAEEECE0EDE4E0E6
:1005300034000000CAEEECE0EDE4E035000000CA53
:10054000EEECE0EDE4E036000000CAEEECE0EDE4B5
:10055000E037000000CAEEECE0EDE4E03800000017
:10056000CAEEECE0EDE4E039000000CAEEECE0EDAC
:10057000E4E031300000CAEEECE0EDE4E0313100BF
:1005800000CAEEECE0EDE4E031320000CAEEECE04F
:10059000EDE4E031330000CAEEECE0EDE4E03134AC
:1005A0000000CAEEECE0EDE4E031350000CAEEEC0C
:1005B000E0EDE4E031360000CAEEECE0EDE4E031DD
:1005C000370000CAEEECE0EDE4E031380000CAEE9E
:1005D000ECE0EDE4E031390000CAEEECE0EDE4E0FF
:1005E00032300000CAEEECE0EDE4E032310000CA47
:1005F000EEECE0EDE4E032320000CAEEECE0EDE4D7
:10060000E032330000CAEEECE0EDE4E0323400000A
:10061000CAEEECE0EDE4E032350000CAEEECE0EDCD
:10062000E4E032360000CAEEECE0EDE4E032370000
:1006300000CAEEECE0EDE4E032380000CAEEECE097
:10064000EDE4E032390000CAEEECE0EDE4E03330F6
:100650000000CAEEECE0EDE4E033310000CAEEEC5D
:10066000E0EDE4E033320000EEF8E8E1EAE000001B
:10067000000000D1E8E3EDE0EB20EDE020E2F5EE54
:10068000E4E500CCE5EDFE5CD2E5F1F2203200D1EC
:10069000E8E3EDE0EB20EDE020E2FBF5EEE4E50041
:1006A000CCE5EDFE5CD2E5F1F220310025642E2090
:1006B000D1E5EAF3EDE4FB0025642E20CCE8EDF370
:1006C000F2FB0025642E20D7E0F1FB0025642E20EC
:1006D000C4E5EDFC0025642E20CCE5F1FFF60025F5
:1006E000642E20C3EEE400CDE0F1F2F0EEE9EAE0A2
:1006F0005CC2F0E5ECFF26E4E0F2E000CFE0F0E0E1
:10070000ECE5F2F03A257520C2F1E5E3EE3A257505
:1007100000C4E8E0EFE0E7EEED3A2000E2EAEB2E7D
:100720002FE2FBEAEB2E0025642E2E2564257300B4
:10073000F1EFE8F1EEEA00E2FBEAEB2E0000000048
:100740000000E2EAEB2E00000000000000EEF8E8F6
:10075000E1EAE00000000000C0C2C0CDD220D034E9
:10076000303000CFC2C72D39300000000000C0C2B9
:10077000C7CA2D383000000000CFC2C7D32DC50036
:1007800000000000CFC2C7CB00000000000000EE58
:10079000F8E8E1EAE00000000000EEF8E8E1EAE055
:1007A0000000000000E1FBF1F2F0FBE900000000B6
:1007B000ECE5E4EBE5EDEDFBE90000EEF8E8E1EA5D
:1007C000E00000000000EEF8E8E1EAE000000000D0
:1007D00000E2EAEB2E00000000000000E2FBEAEB82
:1007E0002E000000000000EEF8E8E1EAE000000062
:1007F0000000EEF8E8E1EAE00000000000F2F0E5B9
:10080000E2EEE6EDFBE90000EDEEF0ECE0EBFCEDF6
:10081000FBE900F1EFEEEAEEE9EDFBE90000EEF8AE
:10082000E8E1EAE00000000000D1EEE2ECE5F1F2E0
:10083000E8ECEEF1F2FC00D2E8EF20E0E2F2EEEAC2
:10084000EEEDF2F0EEEBFF00C4EEEFF3F1F2E8ECC8
:10085000E0FF20EFEEECE5F5E000CFEEF0EEE32078
:10086000EFEE20EFEEECE5F5E500C4EEEFF3F1F28C
:10087000E8ECFBE520EFF0EEE2E0EBFB00CFF0E888
:10088000E7EDE0EA20F7E5F2EDEEF1F2E800CFF077
:10089000EEF2EEEAEEEB20EEE1ECE5EDE000CAEE82
:1008A000F0F0E5EAF6E8FF20F2EEEAE000CAEEF04A
:1008B000F0E5EAF6E8FF20EDE0EFF0FFE6E5EDE831
:1008C000FF00D2E8EF20E4E5F2E5EAF2EEF0E00026
:1008D000D1EDE8E6E5EDE8E520EEF2E2E5F2E02034
:1008E000C0CA00D1EEE2ECE5F1F2E8ECEEF1F2FC88
:1008F00000D7E0F1F2EEF2E00055E2FBF520EDEE7C
:10090000ECE8EDE0EBFCEDEEE500D1E5F2E5E2EE42
:10091000E920E0E4F0E5F100C7E0E3F0F3E1EB2EDD
:1009200020F7F3E2F1F2E22E20CFD0CC00D3E4E5C1
:10093000F0E62E20F0E5EBE520EAEEEC2E20CFD01D
:10094000CC00D3E4E5F0E62E20F0E5EBE520EAEE7E
:10095000EC2E20CFD0C400C2F0E5ECFF20EFE5F094
:10096000E5E7E0EFF3F1EAE000CFEEF0EEE320EFB1
:10097000F0E5E4F3EFF02E20EFEE20CAD700CAEE48
:10098000EDF2F0EEEBFC20E2FBF52EF1E8E3EDE01A
:10099000EBE000CDEEECE5F020E0EFEFE0F0E0F290
:1009A000E000D1E8EDF5F0EEEDE8E7E0F6E8FF2055
:1009B000F7E0F1EEE200CFE0F0E0ECE5F2F0FB5C16
:1009C000CEE1F9E8E500CDEEECE5F020EAEEECE072
:1009D000EDE4FB3A2025752F257500C1EBEEEAE822
:1009E000F0EEE22E20EAEEECE0EDE4FB00D1EBE5E8
:1009F000E4FFF9E8E520EAEEECE0EDE4FB00D2E507
:100A0000F1F2EEE2E0FF20EAEEECE0EDE4E000C41B
:100A1000EBE8F2E5EBFCEDEEF1F2FC20EAEEECE0C7
:100A2000EDE4FB00C7E0E4E5F0E6EAE020F1F0E009
:100A3000E1E0F22E20CFD0C400CFE0F0E0ECE5F210
:100A4000F0FB5CCFE5F0E5E4E0F2F7E8EA00C7E0B0
:100A5000E4E5F0E6EAE020EDE020E2FBEAEB2EEA56
:100A6000EEEC00C1EBEEEAE8F0EEE22E20EAEEEC6E
:100A7000E0EDE4FB00C7E0E4E5F0E6EAE020EDE0CD
:100A800020F4E8EAF12EEAEEEC00CFE0F0E0ECE54D
:100A9000F2F0FB5CCFF0E8E5ECEDE8EA00C4D4C787
:100AA0002DCFF0CFE4000000C4D4C72DCCCA310054
:100AB000000000C4D4C72DCCCA3200000000C4D44A
:100AC000C72D4C363000000000CDC72DCFF0CFE44D
:100AD00000000000CDC72DCCCA000000000000CFF0
:100AE000CFC72DCFF0CFE4000000CFCFC72DCCCAA9
:100AF0000000000000EEF8E8E1EAE000000000007D
:100B0000EEF8E8E1EAE000000000003220EAEEED55
:100B1000F6E5E2E0FF003320EAEEEDF6E5E2E0FF85
:100B200000EEF8E8E1EAE00000000000E0EAF22B65
:100B3000EFE0F1F1000000E0EAF2E8E2EDFBE900AD
:100B40000000EFE0F1F1E8E2EDFBE90000EEF8E88B
:100B5000E1EAE000000000002D31303030C3F60043
:100B60000000002D353030C3F6000000000030C317
:100B7000F600000000000000002B353030C3F60006
:100B8000000000002B31303030C3F600000000EED2
:100B9000F8E8E1EAE00000000000D7E0F1F2EEF250
:100BA000E020CFD0CC00D7E0F1F2EEF2E020CFD0C1
:100BB000C400D1EDE8E6E5EDE8E520F3F0EEE2ED86
:100BC000FF20C0CA00D2E8EF20EFF0E8E5ECEDE846
:100BD000EAE000C7E0E3F0F3E12EF7F3E2F1F2E23E
:100BE0002E20EFEE20D0C700CFEEF0EEE320EFF0A6
:100BF000E5E4F3EFF020EFEE20D0C700CAEEECEF13
:100C0000E5EDF1E0F6E8FF20E7E0E4E5F0E6EAE80C
:100C100000CFE5F0E5EAF0FBF2E8E520E8ECEFF3E1
:100C2000EBFCF1EEE200C4EEEF2E20E2F0E5ECFF8B
:100C300020E1E5E720ECE0ED2E00D2E8EF20EBE844
:100C4000EDE8E800D2E8EF20E7E0F9E8F2FB00CFBA
:100C5000E0F0E0ECE5F2F0FB5CC7E0F9E8F2FB0065
:100C600025642E20CEE1F9E8E50025642E20CFE5AD
:100C7000F0E5E4E0F2F7E8EA0025642E20CFF0E8A2
:100C8000E5ECEDE8EA0025642E20C7E0F9E8F2E0A3
:100C900000CDE0F1F2F0EEE9EAE05CCFE0F0E0EC6C
:100CA000E5F2F0FB00C2FBE2E5E4E5ED0000000048
:100CB000C2E2E5E4E5ED0000000000D2E5F1F2203B
:100CC000310000000000D2E5F1F220320000000007
:100CD00000CDE0F1F2F0EEE9EAE05CD0E5E6E8EC28
:100CE0000025642E20CFE0F0EEEBFC0025642E20E2
:100CF000CFE0F0E0ECE5F2F0FB0025642E20C2F03E
:100D0000E5ECFF20E820E4E0F2E00025642E20D0AE
:100D1000E5E6E8EC00CCE5EDFE5CCDE0F1F2F0EECE
:100D2000E9EAE00025642E20C0CA20E2EAEBFEF7E3
:100D3000E5ED0025642E20CFF3F1EA20F3E4E0EBAB
:100D40002DFBF520CCC0CD0025642E20CFF3F1EA99
:100D500020F3E4E0EB2E20CCC0CD20330025642E20
:100D600020CFF3F1EA20F3E4E0EB2E20CCC0CD203D
:100D7000320025642E20CFF3F1EA20F3E4E0EB2EDD
:100D800020CCC0CD20310025642E20CFF3F1EA2005
:100D9000F3E4E0EBE5EDEDFBF50025642E20CFF369
:100DA000F1EA20F3E4E0EBE5EDED2E2033002564DD
:100DB0002E20CFF3F1EA20F3E4E0EBE5EDED2E2079
:100DC000320025642E20CFF3F1EA20F3E4E0EBE5D6
:100DD000EDED2E20310025642E20D1E1F0EEF12042
:100DE000F3E4E0EBE5EDEDFBF50025642E20C0CA51
:100DF00020E1E5E3EBFBE90025642E20C0CA20EDED
:100E0000EEF0ECE0EBFCEDFBE90025642E20C0CA1F
:100E100020E8F1EFFBF2E0EDE8FF0025642E20C0B2
:100E2000CA20E2FBEAEBFEF7E5ED0025642E20C0C8
:100E3000CA20F3F1EAEEF0E5EDEDFBE90025642EC2
:100E400020CFF3F1EA20CFD0C40025642E20CFF3C9
:100E5000F1EA20C0CA20F3E4E0EBE5EDED2E002539
:100E6000642E20CFF3F1EA20C0CA20F1E2EEE900BF
:100E700025642E20D1E1F0EEF120C0CA0025642EB9
:100E800020C0CA20EAEEEDF2F02EEFF0EEE2E5F03F
:100E90002E0025642E20CFF3F1EA20F3E4E0EBE509
:100EA000ED2E20CCC0CD0025642E20C0CA20EFF34B
:100EB000F1EA0025642E20CFF3F1EA20EDE0EBE02B
:100EC000E42E20E2FBEAEB0025642E20CFF3F1EACA
:100ED00020EDE0EBE0E42E20E2EAEB2E0025642E8C
:100EE00020C2FBE7EEE20025642E20D1E1F0EEF116
:100EF00020F3E4E0EBE5EDEDEEE3EE0025642E20DB
:100F0000D1E1F0EEF120F1E2EEE5E3EE0025642E12
:100F100020CFF3F1EA20F3E4E0EBE5EDEDEEE3EED4
:100F200000CCE5EDFE5CD3EFF0E0E2EBE5EDE8E5CB
:100F300000C7E0EFE8F1FC202575202F2025750083
:100F4000C6D3D0CDC0CB20CFD3D1D200D1D7C8D239
:100F5000DBC2C0CDC8C520C7C0CFC8D1C800CAEE4B
:100F6000ECE0EDE4E03A20257500C4E0F2E03A2040
:100F7000253032752E253032752E2530327500C25F
:100F8000F0E5ECFF3A20253032753A253032753ADB
:100F9000253032752E2530337500CEEAEEEDF7E0C0
:100FA000EDE8E520EAEEECE0EDE4FB00000000CD2A
:100FB000E0F7E0EBEE20EAEEECE0EDE4FB00000011
:100FC00000000000CEF8E8E1EEF7EDEEE520E7EDF9
:100FD000E0F7E5EDE8E5000000C6F3F0EDE0EB5CDE
:100FE000CFE5F0E5E4E0F2F7E8EA00C6F3F0EDE083
:100FF000EB5CCFF0E8E5ECEDE8EA00D1EEF1F2EEE3
:10100000FFEDE8E53A00CF2564D12564CC256420C6
:10101000CFC42564CFCC2564C2DBD5256400C6F3DC
:10102000F0EDE0EB5CC7E0F9E8F2E000D0E5E6E8DF
:10103000EC3A00C2FBE2E5E4E5ED00C3EEF2EEE2DD
:10104000000000C2E2E5E4E5ED0000D0E5F7FC00B9
:10105000000000D2E5F1F231000000D2E5F1F232F9
:10106000000000EEF8E8E1EAE00000D1EEE1FBF27A
:10107000E8E5202D202564000000000000000000AD
:10108000CDE5E8F1EFF020F7F2E5EDE8FF20464C82
:101090004153480000CDE5E8F1EFF020E7E0EFE84C
:1010A000F1E820464C4153480000CDE5E8F1EFF06F
:1010B00020F7F2E5EDE8FF20CFCBC8D1000000CD4E
:1010C000E5E8F1EFF020E7E0EFE8F1E820CFCBC86A
:1010D000D1000000CDE5E8F1EFF020E7E0EFE8F126
:1010E000E8203252414D000000CDE5E8F1EFF0205C
:1010F000F7F2E5EDE8FF203252414D000000CDE56A
:10110000E8F1EFF020F0E0E1EEF2FB204453500074
:10111000000000C2EEF1F1F2E0ED2DE520F0E0E19B
:10112000EEF2FB2044535000CDE8E7EAEEE520ED77
:10113000E0EFF02E20E2FBF5EEE4E00000C2FBF170
:10114000EEEAEEE520EDE0EFF02E20E2FBF5EEE436
:10115000E000CDE0F0F3F8E5ED20EEE1ECE5ED2088
:10116000F120D3CC000000CDE5E8F1EFF0E0E2EDB6
:10117000EEF1F2FC20F7E0F1EEE20000CDE5F22026
:10118000E1EBEEEAE020C1D1C70000000000000062
:1011900000CDE5E8F1EFF020E2E5F0F1E8E820C16C
:1011A000D1C700000000CDE5E8F1EFF020EFE5F059
:1011B000E5EAEB2DE5E920C1D1C700CDE5F220F14C
:1011C000E8E3EDE0EBE020CCC0CD00000000000043
:1011D000CFE5F0E5E7E0EFF3F1EA00000000000002
:1011E0000000000000C8E7ECE5EDE5EDE8E520F0E3
:1011F000E5E6E8ECE020F0E0E100CEF8E8E1EAE046
:1012000020E7E0EFE8F1E80000000000000000CE79
:10121000F8E8E1EAE020EAEEEDF2F0EEEBFF0000A4
:1012200000000000D1EDE8E6E5EDE8E520F3F0EEA2
:10123000E2EDFF20CFD0CC0000CDE5F220F1E8E3D5
:10124000EDE0EBE020CFD0CC000000000000CEF2BB
:10125000F1F3F22DE520F1E8E3EDE0EBE020CFF350
:10126000F1EA00CEF2F1F3F22DE520F1E8E3EDE052
:10127000EBE020D1F2EEEF00C2FBEAEBFEF7E5ED8A
:10128000E8E520EFE8F2E0EDE8FF000000D1EEE154
:10129000FBF2E8E5202D202564000000000000009E
:1012A0000000D1EEE1FBF2E8E5202D2025640000EE
:1012B00000000000000000D1EEE1FBF2E8E5202D87
:1012C000202564000000000000000000D1EEE1FBDA
:1012D000F2E8E5202D202564000000000000000059
:1012E00000D1EEE1FBF2E8E5202D202564000000AE
:1012F000000000000000D1EEE1FBF2E8E5202D2027
:101300002564000000000000000000D1EEE1FBF2C7
:10131000E8E5202D2025640000000000000000000A
:10132000D1EEE1FBF2E8E5202D202564000000006D
:101330000000000000D1EEE1FBF2E8E5202D2025C1
:1013400064000000000000000000C2EAEB2E20EF65
:10135000E8F2E0EDE8FF2FEFE5F0E5E7E0EF00C2AF
:10136000FBEAEBFEF7E5EDE8E520EFE8F2E0EDE87B
:10137000FF000000C8E7ECE5EDE5EDE8E520F0E56D
:10138000E6E8ECE020F0E0E100D1EEE1FBF2E8E598
:10139000202D202564000000000000000000CDE5A5
:1013A000E8F1EFF020F2E5F1F2E020CFD0C4000048
:1013B000000000CDE5E8F1EFF020F2E5F1F2E020E9
:1013C000CFD0CC0000000000CDE5E8F1EFF020E147
:1013D000EBEEEAE020C1D1C70000000000CDE5E857
:1013E000F1EFF020E1EBEEEAE020C1D1CA0000000D
:1013F0000000CDE5E8F1EFF020EFE5F0E5EAEB2DB8
:10140000E5E920C1D1C700CDE5F220F1E8E3EDE048
:10141000EBE020ECE0EDE8EFF3EB2E00CDE5E8F1BA
:10142000EFF020E2FBF5EEE4EDEEE920F6E5EFE883
:1014300000CDE5F220F1E8E3EDE0EBE020D0C700DD
:10144000000000000000CEF2F1F3F22DE520F1E8FB
:10145000E3EDE0EBE020CFF3F1EA00CEF2F1F3F2BE
:101460002DE520F1E8E3EDE0EBE020D1F2EEEF0036
:10147000CDE5E8F1EFF020F7F2E5EDE8FF20EAEE48
:10148000ECE0EDE400D1EEE1FBF2E8E5202D2025D3
:1014900064000000000000000000CDE5E8F1EFF07E
:1014A0002E20F0E0E1EEF2FB20445350000000C299
:1014B000EEF1F1F2E0ED2DE520F0E0E1EEF2FB20BF
:1014C00044535000CDE8E7EAEEE520EDE0EFF02EE2
:1014D00020E2FBF5EEE4E00000C2FBF1EEEAEEE50F
:1014E00020EDE0EFF02E20E2FBF5EEE4E000CDE5AC
:1014F000F220CAD7203520F1E5EA20EDE020CFD058
:10150000CC3100CDE5F220CAD7203520F1E5EA2024
:10151000EDE020CFD0CC3200C2EEF1F1F2E0ED2DC3
:10152000E520CAD720EDE020CFD0CC3100C2EEF1CB
:10153000F1F2E0ED2DE520CAD720EDE020CFD0CCB0
:101540003200CDE5E8F1EFF020F7F22FE7E0EF20F1
:101550003252414D000000CDE5E8F1EFF020F7F206
:101560002FE7E0EF20CFCBC8D1000000CDE5E8F1B8
:10157000EFF020F7F22FE7E0EF20464C4153480010
:1015800000CDE5E8F1EFF0E0E2EDEEF1F2FC20F75E
:10159000E0F1EEE20000D1EEE1FBF2E8E5202D20E3
:1015A0002564000000000000000000D1EEE1FBF225
:1015B000E8E5202D20256400000000000000000068
:1015C000D1EEE1FBF2E8E5202D20256400000000CB
:1015D0000000000000D1EEE1FBF2E8E5202D20251F
:1015E00064000000000000000000D1EEE1FBF2E822
:1015F000E5202D202564000000000000000000C64A
:10160000F3F0EDE0EB5CD1EEE1FBF2E8FF002564E6
:101610002E20CFE5F0E5E4E0F2F7E8EA0025642EBD
:1016200020CFF0E8E5ECEDE8EA0025642E20C7E0E5
:10163000F9E8F2E00025642E20D1EEE1FBF2E8FFAC
:1016400000CCE5EDFE5CC6F3F0EDE0EB00CFC8208A
:10165000204D4355203A20253032582E25303278FF
:1016600000C1D1CF20445350203A20253032582E8B
:101670002530327800C1D1CF204D4355203A202566
:101680003032582E2530327800CCE5EDFE5CC8EDC6
:10169000F4EEF0ECE0F6E8FF0020202020CFE5F0AB
:1016A000E5E9E4E8F2E520E22020202020002020E7
:1016B00020F2E5F1F2EEE2FBE920F0E5E6E8EC20CD
:1016C00020200025642E20C8EDF4EEF0ECE0F6E8D2
:1016D000FF0025642E20D2E5F1F20025642E20CDF6
:1016E000E0F1F2F0EEE9EAE00025642E20D3EFF01D
:1016F000E0E2EBE5EDE8E50025642E20C6F3F0ED31
:10170000E0EB00CCE5EDFE00C0CA2DEEF8E8E1000C
:1017100000C0CA2DEDEEF0EC0000C0CA2DEDEEF0D9
:10172000EC0000C0CA2DF3F1EAEEF000C0CA2DE2D1
:10173000FBEAEB0000C0CA2DE1E5E3EB0000C0CA04
:101740002DE8F1EFFBF200C0CA2DEFF3F1EA000043
:10175000C0CA2DEEF8E8E10000253032643A2530A9
:1017600032643A2530326400202020EDE520EEEF8F
:10177000F0E5E4E5EBE5ED2121212020002020200B
:1017800020D2E8EF20E0EFEFE0F0E0F2E0202020D0
:101790002000CDE5E8F1EFF02E2025632D25303433
:1017A0005800CFF0E5E4F3EFF02E2025632D25302F
:1017B000345800253032752E253032752E253032C2
:1017C0007500253032753A253032753A253032753C
:1017D0000055E73D25303264E4C10055E7313D2531
:1017E000303264E4C10055E7323D25303264E4C153
:1017F0000055EA3D25303264E4C10055EA313D250B
:10180000303264E4C10055EA323D25303264E4C12F
:1018100000553D253032752E25303175C200493DC9
:1018200025303375ECC000523D25303375CEEC00C9
:1018300055F83D25303264E4C10055F8313D25307E
:101840003264E4C10055F8323D25303264E4C10011
:10185000CDE5E8F1EFF0E0E2EDEEF1F2FC00CFF0E3
:10186000E5E4F3EFF0E5E6E4E5EDE8E500CDE5E8F5
:10187000F1EFF02EF7F22E20464C41534800CDE513
:10188000E8F1EFF02EE7E0EF2E464C41534800CD53
:10189000E5E8F1EFF02EF7F22E20504C495300CD41
:1018A000E5E8F1EFF02EE7E0EF2E504C495300CD84
:1018B000E5E8F1EFF02EE7E0EF2E3252414D00CD9A
:1018C000E5E8F1EFF02E445350203252414D200014
:1018D000CDE5E8F1EFF02EF7F22E203252414D2007
:1018E00000CDE8E7EAEEE520EDE0EFF02EE2FBF5D3
:1018F00000C2FBF1EEEAEEE520EDE0EFF02EE2FBB8
:10190000F500D3F1F2E0EDEEE2E8F2E520F7E0F1E8
:10191000FB00CDE5F220E1EBEEEAE020C1D1CA0008
:10192000CDE5E8F1EFF02EE2E5F0F12E20C1D1CACD
:1019300000CDE5F220CAD700CDE5E8F1EFF02EE7C3
:10194000E0EF2E20C1D1CA00CDE5E8F1EFF02EE2A4
:10195000FBEAEB2E20CAD1CA00CDE5E8F1EFF02E6C
:10196000E2EAEB2E20CAD1CA00CDE5E8F1EFF02E75
:10197000EAEEEDF2F02ECAD1CA00D1EDE8E62E2053
:10198000F3F0EEE2EDFF20CFD0CC00CDE5F220E188
:10199000EBEEEAE020C1D1CA00CDE5E8F1EFF02E90
:1019A000E2E5F0F12E20C1D1CA00CDE5E8F1EFF07B
:1019B0002EF7F22EEAEEECE0EDE400CDE5E8F1EFF3
:1019C000F02EE2FBEAEB2ED2E5F1F200CDE5E8F1F4
:1019D000EFF02EE2EAEB2E20D2E5F1F200CDE5E8C1
:1019E000F1EFF02EE2F5EEE42E20CAD1CA00CDE5EB
:1019F000F220E1EBEEEAE020C1D1C700CDE5E8F14D
:101A0000EFF02EE2E5F0F12EC1D1C700CDE5E8F10F
:101A1000EFF02EEFE5F0E5EAEB2E00CDE5E8F1EF93
:101A2000F02EE2F5EEE42ECFD3D1CA00CDE5E8F1F9
:101A3000EFF02EE2F5EEE42ED1D2CECF00CDE5E8E8
:101A4000F1EFF02EF6E5EFFC2E20C2DBD500CDE560
:101A5000E8F1EFF02EE7E0EF2E20C2DBD500CDE578
:101A6000F220F1E8E3EDE0EBE020D0C700CDE8E7BD
:101A7000EAE8E920F3F0EEE22E20D0C700CDE5F24F
:101A800020F1E8E3EDE0EBE020CCC0CD00C0CA2DB2
:101A9000CDE5F220EEF2E2E5F2E000C0CA2DD1ED94
:101AA000E8E6E5ED2EE7E0EFE0F1E000CFEEECE573
:101AB000F5E020E220EBE8EDE8E800D2EEEA20EFE6
:101AC000EEEAEEFF00CDE5E8F1EFF02E20CCCA20E3
:101AD000D3CC00C2D720F2F0E0EAF220E2EEF1F13E
:101AE000F22E00C0CA2DCDE5F220EEF2E2E5F2E0E2
:101AF00000CDE5E8F1EFF02EF3E4E0EB2E20C4D4C6
:101B0000C700CDE5E8F1EFF02EF3E4E0EB2E20C2C4
:101B1000DBD500D3E42ECFCED1D220E1E5E720EE15
:101B2000F2E22E00D3E42ECFCED1D220EEE1ED2E84
:101B3000EFEEEC2E00C4EBE8F2E5EBFCED2E20EF2F
:101B4000EEECE5F5E000CDE5E8F1EFF02E20C4D4B1
:101B5000C700C0CA2DD1EDE8E6E5ED2EE7E0EFE0E5
:101B6000F1E000CFEEF0EEE320EFEE20EFEEECE55B
:101B7000F5E500C0E2F2EEEAEEEDF2F0EEEBFC008D
:101B8000CDE5F220F1E8E3EDE0EBE020CFD0CC00B2
:101B9000CDE5F220CAD700CDE5F220CAD70020CD8E
:101BA000E5F220F1E2FFE7E820F120C1D1CF2121C9
:101BB000212000C8F1F5EEE4ED2E00CAEEEDF2F0C2
:101BC000EEEBFC00CFF3F1EA00D0E0E1EEF2E00052
:101BD000CDE5E8F1EFF02E00CF2EEDE5E8F1EFF0E6
:101BE00000CEE6E8E4E0EDE8E500CDE0EB2EEFF333
:101BF000F1EA00D3E42EEFF3F1EA00CDE5F220D0D4
:101C0000C700D0E5F7FC00D2E5F1F200CEF8E8E13C
:101C1000EAE000C8F1F5EEE4ED2E00CFD0CC20CA0A
:101C2000D72530317500CFD0CC20CFC025303275CC
:101C300000CDE5F220CAD700CDE5E8F1EFF02E00A7
:101C4000CF2EEDE5E8F1EFF000CEE6E8E4E0EDE8D8
:101C5000E500C1CBCA20CACC25303275003F3078B0
:101C600030383F003F307830393F00D0E5F7FC0096
:101C7000D2E5F1F200C8F1F5EEE4ED2E00CFD0C4CC
:101C800020CAD72530317500CFD0C420CFC0253031
:101C9000327500CDE5F220CAD700CDE5E8F1EFF0CE
:101CA0002E00CF2EEDE5E8F1EFF000CEE6E8E4E01F
:101CB000EDE8E5003F307830373F003F307830388E
:101CC0003F00D1E8F1F2E5EC2E00D0E5F7FC00D2C0
:101CD000E5F1F200C7C0D900CFD0CC00CFD0C4000E
:101CE0005A7311241FBECFEFD0E1DEBFCDBF80B548
:101CF0008B7F80BD9FEF9ABB1BBA17BA98BB80EE53
:101D000084BB8FE185BB88E381BB8CEC82BB80EC1C
:101D100082B98CEF83B98EE08093610081EF80936C
:101D20006200109264009093650017BE8BE083BF41
:101D300088E181BF87B7826087BF1FBC8CE08EBD02
:101D400010927A001DBC1CBC80E792E09BBD8ABD4E
:101D500087B7806187BF2CE088E190E00FB6F894E8
:101D6000A89581BD0FBE21BD11E0A0E0B1E0E0E08B
:101D7000F1EF00E00BBF02C007900D92A837B1074A
:101D8000D9F71AE0A8E7B1E001C01D92A831B10768
:101D9000E1F71CE1C2EEDCE104C02297FE010E94E3
:101DA0002B75C03ED107C9F70E9443740C947E780E
:101DB0000C94000090917801813039F4913011F445
:101DC00090E003C0933009F491E010927801892FDC
:101DD000089580B38095807C87FF02C090E801C0A1
:101DE00090E086FF02C0916023C0809163008095DF
:101DF000837041F080FF02C094601AC081FF18C058
:101E0000986016C083B380958F7191F080FF02C0F7
:101E100099600EC081FF02C095600AC082FF02C0B7
:101E2000966006C083FF02C0926002C084FD93608A
:101E300080917901981721F09093790183E007C090
:101E400080910001882339F0992341F081508093DB
:101E5000000190E003C084E6809300018091780146
:101E6000882311F4909378010895809162008D7F0A
:101E7000809362001ABA85B3806C85BB8091620042
:101E8000846080936200000000008091620088609E
:101E9000809362000000000089B390916200977FF8
:101EA0009093620095E19A95F1F795B39F7395BB76
:101EB000909162009860909362009FEF9ABB80952A
:101EC000881F8827881F089595B3962B95BBE2E657
:101ED000F0E090819D7F908390819B7F90830000B4
:101EE0000000E2E6F0E09081986090838BBB0000F8
:101EF0000000E2E6F0E08081877F808385E08A95BC
:101F0000F1F785B36095862385BB0895EAE7F1E094
:101F1000119285E0EA37F807D9F7089595B3962B23
:101F200095BBE2E6F0E090819260908390819B7F88
:101F30009083000000008BBBE2E6F0E080818860C7
:101F4000808300000000E2E6F0E08081877F8083EC
:101F50008AE08A95F1F785B36095862385BB08955D
:101F600020917E0530917F05F901E658FE4F808370
:101F70002F5F3F4F30937F0520937E0508951F9379
:101F8000AD9905C0AD9A80E49CE90197F1F78FEF18
:101F90009FEF90937F0580937E051AE0812F8A95AD
:101FA000F1F784EC60EC0E94640F1A95F1F78FE36F
:101FB00060EC0E94640F8AE18A95F1F71F91089501
:101FC00090E0019770E07695762F66277795679574
:101FD000860F971F90937F0580937E05089581E07B
:101FE00080937B0508950F931F93CF93DF93809188
:101FF0007B05882309F442C000917D05002389F404
:1020000080917C05885460EC0E94640F1AE1812F56
:102010008A95F1F780E460EC0E94640F1A95F1F75D
:1020200002C00034D8F480917C05C82FD0E0D6954A
:10203000DC2FCC27D795C795C658DE4FC00FD11DD2
:10204000888160E80E948E0FC05CDF4F888160E469
:102050000E948E0F0F5F00937D0510C080917C055C
:10206000873030F48F5F80937C0510927D0506C029
:1020700010927C0510927D0510927B05DF91CF9127
:102080001F910F910895823039F480E797E1909382
:10209000020180930101089580937A05089580914B
:1020A0007A05813029F482B390E2892782BB0895B2
:1020B000209101013091020121153105B1F082B367
:1020C00090E2892782BB80910301882321F081500F
:1020D00080930301089583E68093030121503040EB
:1020E0003093020120930101089595980895982F47
:1020F000873010F080E00895ADE7B1E08AE58D9378
:1021000021E0A73FB207D9F71396E7E7F2E08FEF98
:102110008C9312968C93129780838283A058BF4F22
:10212000E058FF4F25E0AA37B20791F78093F901F5
:1021300080937A0188E18093F80180937B018BED95
:102140008093F70180937C01892F90E0019696950A
:10215000982F882797958795FC01E358FE4F4AE50D
:102160009C0129503E4F4193E217F307E1F7FC0130
:10217000E658FE4FE258FF4F88E18083EE57F0406B
:102180008183E358FF4F8BED8083ED57F0408283CE
:1021900081E00895CF93DF93DC01603240F067FD6A
:1021A00002C0605205C0603C10F0605601C060E0A3
:1021B000ED01C658DE4F20E030E085E0689FB001B9
:1021C0001124F901E60FF71FE457FF4FE491E9935B
:1021D0002F5F3F4F25303105A1F7A658BE4F15960A
:1021E0001C92DF91CF910895AF92BF92CF92DF9270
:1021F000EF92FF920F931F93CF93DF93E82E492F17
:10220000683010F080E046C0A62EBB2484E190E048
:10221000A89E6001A99ED00CB89ED00C11242E2D32
:10222000342FC9018C01C4E8D0E00FC0CE01F80101
:1022300060810E94CA108F2D64E10E94C77493319F
:1022400009F428960F5F1F4F2696F02EFE188F2D4B
:1022500090E08C159D0554F3E501D695DC2FCC2735
:10226000D795C795CC5FDE4FFC2C10C0CE01F8018E
:1022700060810E94CA108F2D64E10E94C77493315F
:1022800009F428960F5F1F4FF3942696F7E7FF1582
:1022900068F781E0DF91CF911F910F91FF90EF9050
:1022A000DF90CF90BF90AF900895FC01E959FF4FA8
:1022B00010823B97119211921192119211921192E8
:1022C0001192119286E081938CE08193108208959F
:1022D000FC01178A1682108E1782108210861182D6
:1022E0000895CF93DF93EC018E81853010F080E06C
:1022F00017C0A82FB0E0141664F4E42FFF27E7FD01
:10230000F095AE17BF070CF44E83EC0FFD1F6183F1
:1023100006C0AC0FBD1F11966C938F5F8E8381E05A
:10232000DF91CF910895FC0184E08087818781E26D
:10233000828786E08387148E138E14861586168610
:102340001786108A118A138A128A158A148A168AA5
:10235000108E178A81E090E0928F818F158E0895FC
:10236000FC01818D928D2789308D820F931F6289A8
:10237000738901970E94E0740895FC01862F8150B3
:102380008630B8F48150823038F481E090E0908B50
:10239000878781E0818B0CC0862F8550823040F486
:1023A00017821682138612868FE097E291878087C4
:1023B000628B08951F93FC01518740877387628762
:1023C00010E007C01F5FCA016AE070E00E94E0747D
:1023D000AB0141155105B1F714871F910895FC0118
:1023E0002785308986819781B9010E94E0744189EF
:1023F000629FC001639F900D729F900D1124642F06
:1024000070E00E94E074862F08950F931F93CF937E
:10241000DF93FC019289913011F0943091F4468160
:1024200057812785308980859185821B930B84177E
:10243000950720F0C901840F951F13C082859385ED
:1024400010C0892F8250823078F4268137818285AE
:1024500093858217930718F4C901019702C08085FC
:1024600091859783868326C09550923018F5068112
:10247000178127853089B901660F771FE90183E04D
:10248000CC0FDD1F8A95E1F76C0F7D1FC8010E94FC
:10249000E074B9010E94E0746930710539F4C20F2B
:1024A000D31F0C1B1D0B1783068304C0200F311F85
:1024B0003783268386819781DF91CF911F910F917A
:1024C00008951F93CF93DF93EC0180E197E29B8304
:1024D0008A8380ED98E19D838C831E861F86188AEF
:1024E0001A8A198A1C8A1B8A1E8A1D8ACE0147965F
:1024F0000E945511C158DF4F199283E089931992B8
:1025000082E18993199219921992199281E0899323
:102510001982188223961992199219821882239788
:1025200018822596199285E089938883C159D040F5
:10253000CE018E569F4F0E945511C650DF4F199203
:102540001882CB5FD040FE01E450FF4F80E0108244
:1025500014828F5F31968430D1F7C05EDE4F1992BE
:102560001992199219921882C452D140CE018B5DF2
:102570009E4F0E945511C357DE4F199285E0888304
:10258000CE58D140FE01E157FE4F10E01082148278
:102590001F5F31961430D1F7C856DE4F84E188832F
:1025A0001A92229619921992199219921882CD595B
:1025B000D140CE0182569E4F0E945511CA5FDD4F19
:1025C00033E0388322961883259685E08883249704
:1025D00019921992198218822496199221E029934E
:1025E00019921992199219921992188223968AE1D6
:1025F00090E09983888382E18A931A9229972883AD
:1026000027972883649619923993399319921992CE
:102610008993199389E19CEF8993999380E79EEFC1
:1026200099838883C452D240CE018A5D9D4F0E9417
:102630006811CE018B5B9D4F0E949311FE01ED59F5
:10264000FD4F80E011928F5F8832E1F7C557DD4F73
:1026500081E089931882DF91CF911F910895CF93E4
:10266000DF93DC01FC01EB5FFD4F8081813011F0D5
:1026700081E08083662309F046C0A85FBD4F8C913E
:10268000A850B240813039F5A258BF4F8C91AE5757
:10269000B040882379F0A750BF4F8C91A95FB0401C
:1026A0008823C1F4A457BE4F8C91AC58B140882305
:1026B00089F471C5A457BE4F8C91AC58B1408823A2
:1026C00039F4A750BF4F8C91A95FB040882319F00F
:1026D00064E001C062E011968C911197681709F4CB
:1026E0001AC511966C931197A552BD4F11961C9265
:1026F0001E9282E19CE59E938E93A454B04081E0AB
:102700008C93A559B240FD01E256FE4F20E080E5D2
:1027100098E1819391932F5F2031D9F7FD0120E05B
:10272000382F492F378B408F2F5F32962031D1F7CA
:10273000FD01EE56FF4F20E0832F942F819391935C
:102740002F5F2031D9F7FD01EB5DFE4F20E0819333
:1027500091932F5F2031D9F7FD01E254FE4F80E0C5
:102760002EE538E1219331938F5F8031D9F7FD0158
:10277000F79680E0219331938F5F8031D9F7FD0187
:10278000EE54FF4F80E0219331938F5F8031D9F772
:10279000FD01EB5BFE4F80E0219331938F5F803131
:1027A000D9F7FD01E956FD4F90E011929F5F9C30F3
:1027B000E1F7643009F0DDC011966C931197A956CA
:1027C000BD4F82E08C93169681E08C9312969C9379
:1027D00016979C9318968DE08C9316978C9315966C
:1027E00086E08C9316978C93189689E08C931697B5
:1027F0008C93AE5FB0408DE698E18D939D938EE70C
:1028000098E18D939D938FE898E18D939D938FE947
:1028100098E18D939D938FEA98E111969C938E9306
:1028200018968FEB98E18D939D9380ED98E111962A
:102830009C938E93149681EE98E18D939D9381EFF6
:1028400098E111969C938E93189682E099E11196E7
:102850009C938E93AE5BB140FD01E258FF4F8081A7
:1028600081111082FD01E750FF4F8081813011F00E
:1028700081E08083AE56BF4F82E199E18D939D93B5
:1028800080E299E18D939D9381E399E111969C9368
:102890008E931C9688E399E18D939D9388E499E14A
:1028A0008D939D9389E599E18D939D9389E699E1B7
:1028B00011969C938E931A968AE799E111969C93B0
:1028C0008E93A25BB040FD01E457FE4F80818130C2
:1028D00011F081E08083AB5DBE4F8BE899E18D9371
:1028E0009D9389E999E111969C938E931E968AEAAD
:1028F00099E18D939D938BEB99E18D939D938CEC56
:1029000099E18D939D938DED99E111969C938E9312
:10291000AB53B140FD01ED59FD4F80E011928F5F47
:102920008832E1F7FD01E557FD4FA457BD4F1C92DA
:10293000989782E08D9383E08C938083A85DB0406C
:102940002C91AD58B1409DE0EF010EC088818832D6
:1029500050F49D3240F4FD01E80FF11DED59FD4F9B
:1029600090838F5F88839F5F892F8D50821770F3CC
:10297000D4C3623009F080C111966C931197A956A7
:10298000BD4F6C93169621E02C9312969C9316974C
:102990009C9318968DE08C9316978C93139683E0F6
:1029A0008C9316978C93189686E08C9316978C933D
:1029B000189689E08C9316978C93AE5FB0408DE6A5
:1029C00098E18D939D938EE798E18D939D938FE889
:1029D00098E18D939D938FE998E18D939D938FEA74
:1029E00098E111969C938E9318968FEB98E18D93B6
:1029F0009D9380ED98E111969C938E93149681EEB1
:102A000098E18D939D9381EF98E111969C938E931D
:102A10005C9682E099E111969C938E93A25DB14001
:102A2000FD01E258FF4F8081813009F020838EEE56
:102A300099E158969C938E9357978CEF99E15A960B
:102A40009C938E9359978CE09AE15C969C938E931D
:102A50005B978BE19AE198969C938E9397978CE283
:102A60009AE19A969C938E9399978DE39AE19E961C
:102A70009C938E939D978EE49AE1D2969C938E932D
:102A8000D1978EE59AE1D4969C938E93D3978DE659
:102A90009AE1D8969C938E93D7978DE79AE1DA9630
:102AA0009C938E93D997FD01E750FF4F8081813031
:102AB00011F081E08083AE56BF4F82E199E18D93A2
:102AC0009D9380E299E18D939D9381E399E1119625
:102AD0009C938E931C9688E399E18D939D9388E453
:102AE00099E18D939D9389E599E18D939D9389E675
:102AF00099E111969C938E931A968AE799E1119623
:102B00009C938E93A25BB040FD01E457FE4F808101
:102B1000813011F081E08083AB5DBE4F8BE899E19D
:102B20008D939D9389E999E111969C938E931E96BE
:102B30008AEA99E18D939D938BEB99E18D939D9317
:102B40008CEC99E18D939D938DED99E111969C9379
:102B50008E93AB53B140FD01ED59FD4F80E01192D2
:102B60008F5F8832E1F7FD01E557FD4FA457BD4F58
:102B70001C92989781E08D9386E08D9387E08C93EB
:102B8000A656B24084E08083FD01E80FF11DED59A7
:102B9000FD4F9DE090838F5FA557BD4F8C93AB5841
:102BA000B240ED01C557DD4F9881983248F4FD01E0
:102BB000E90FF11DED59FD4F8EE080839F5F9883F3
:102BC000ED01C557DD4F9881983248F4FD01E90FBA
:102BD000F11DED59FD4F8FE080839F5F9883ED01DC
:102BE000C557DD4F9881983248F4FD01E90FF11D7A
:102BF000ED59FD4F80E180839F5F9883ED01C557BC
:102C0000DD4F9881983248F4FD01E90FF11DED592F
:102C1000FD4F89E080839F5F9883ED01C557DD4FAD
:102C20009881983248F4FD01E90FF11DED59FD4FEF
:102C30008AE080839F5F9883ED01C557DD4F9881BF
:102C4000983248F4FD01E90FF11DED59FD4F8BE07D
:102C500080839F5F9883ED01C557DD4F988198323F
:102C600008F05BC2FD01E90FF11DED59FD4F8CE04D
:102C700080839F5F988351C2613009F0EAC011964A
:102C80006C931197A956BD4F82E08C9316966C9366
:102C900012969C9316979C9318968DE08C9316979A
:102CA0008C93139683E08C9316978C93189686E0FA
:102CB0008C9316978C93189689E08C9316978C9327
:102CC000AE5FB0408DE698E18D939D938EE798E1DD
:102CD0008D939D938FE898E18D939D938FE998E173
:102CE0008D939D938FEA98E18D939D938DE89AE162
:102CF0008D939D938BE99AE18D939D938CEA9AE154
:102D00008D939D938FEB98E18D939D9380ED98E14A
:102D10008D939D938BEB9AE18D939D9381EE98E13A
:102D20008D939D9381EF98E18D939D9385EC9AE12E
:102D30008D939D9383ED9AE111969C938E931496B7
:102D400082E099E111969C938E93AE5BB140FD01B8
:102D5000E258FF4F8081813009F060838EEE99E167
:102D600058969C938E9357978CEF99E15A969C9323
:102D70008E9359978CE09AE15C969C938E935B9727
:102D800083EE9AE190969C938E935F9781EF9AE100
:102D900094969C938E93939782E09BE196969C9356
:102DA0008E9395978BE19AE198969C938E93979743
:102DB0008CE29AE19A969C938E93999783E19BE19A
:102DC0009C969C938E939B978DE39AE19E969C9301
:102DD0008E939D9784E29BE1D0969C938E939F97D0
:102DE0008EE49AE1D2969C938E93D19785E39BE1F2
:102DF000D4969C938E93D39786E49BE1D6969C932E
:102E00008E93D59782E59BE1D8969C938E93D79726
:102E10008DE79AE1DA969C938E93D99783E69BE1AE
:102E2000DC969C938E93DB9783E79BE1DE969C93E5
:102E30008E93DD97FD01E750FF4F80818111108255
:102E4000FD01E457FE4F8081882309F466C110829A
:102E500064C1633009F0AEC111966C931197A3560B
:102E6000BD4F82E08C9316978C93179621E02C939C
:102E700016972C93AA5FB0408DE698E18D939D93B1
:102E80008EE798E18D939D938FE898E18D939D93C4
:102E90008FE998E18D939D938FEA98E111969C9329
:102EA0008E931A9680ED98E111969C938E931E96C0
:102EB00082E099E111969C938E93AE5BB140FD0147
:102EC000E258FF4F8081813009F020838EEE99E136
:102ED00058969C938E9357978CEF99E15A969C93B2
:102EE0008E9359978CE09AE15C969C938E935B97B6
:102EF00080E89BE190969C938E935F978BE19AE19B
:102F000098969C938E9397978CE29AE19A969C93CD
:102F10008E9399978DE39AE19E969C938E939D97BD
:102F20008EE49AE1D2969C938E93D19780E99BE1AF
:102F3000D8969C938E93D7978DE79AE1DA969C93D7
:102F40008E93D997FD01E750FF4F8081813011F0BA
:102F500081E08083AE56BF4F82E199E18D939D93CE
:102F600080E299E18D939D9381E399E111969C9381
:102F70008E931C9688E399E18D939D9388E499E163
:102F80008D939D9389E599E18D939D9389E699E1D0
:102F900011969C938E931A9687E99BE111969C93C8
:102FA0008E93A25BB040FD01E457FE4F80818130DB
:102FB00011F081E08083AB5DBE4F8BE899E18D938A
:102FC0009D9389E999E111969C938E931E968AEAC6
:102FD00099E18D939D938BEB99E18D939D938CEC6F
:102FE00099E18D939D938DED99E111969C938E932C
:102FF000AB53B140FD01ED59FD4F80E011928F5F61
:103000008832E1F7FD01E557FD4FA457BD4F1C92F3
:10301000989781E08D9386E08D9387E08C93A656F8
:10302000B24084E08083FD01E80FF11DED59FD4FB2
:103030009DE090838F5FA557BD4F8C93AB58B240F6
:10304000ED01C557DD4F9881983248F4FD01E90F35
:10305000F11DED59FD4F8EE080839F5F9883ED0158
:10306000C557DD4F9881983248F4FD01E90FF11DF5
:10307000ED59FD4F8FE080839F5F9883ED01C55729
:10308000DD4F9881983248F4FD01E90FF11DED59AB
:10309000FD4F80E180839F5F9883ED01C557DD4F31
:1030A0009881983248F4FD01E90FF11DED59FD4F6B
:1030B00089E080839F5F9883ED01C557DD4F98813C
:1030C000983248F4FD01E90FF11DED59FD4F8AE0FA
:1030D00080839F5F9883ED01C557DD4F98819832BB
:1030E00048F4FD01E90FF11DED59FD4F8BE08083A0
:1030F0009F5F9883ED01C557DD4F9881983208F0A6
:1031000059C0FD01E90FF11DED59FD4F8CE08083A1
:103110009F5F98834FC0662311F021E036C021E005
:1031200011961C921197FD01E956FD4F80E0119216
:103130008F5F8C30E1F7A356BD4F82E08C931697DA
:103140008C93179681E08C9316978C93A859B24074
:10315000FD01E258FF4F808181111082FD01E7508F
:10316000FF4F808181111082FD01E457FE4F808165
:1031700081111082A552BD4F11961C921E9281E5BD
:1031800094E39E938E93A95DB24081E08C93822F4D
:10319000DF91CF910895A75FBD4F8D919C911197BD
:1031A000A950B2408070907F8050904F09F093CA30
:1031B00061E091CA20E0B4CFCF93DF93EC01FC0132
:1031C000EA5DFD4F9081992311F0108240C020915B
:1031D000F9052F5F2093F905213011F490E337C0F2
:1031E0002230D1F4FE01E35DFD4FC45DDD4F9081DF
:1031F0008881CC52D240981708F01082DE01A35D7E
:10320000BD4F8C91FE01E80FF11DE95DFD4F9081EE
:103210008F5F8C939923D9F4FE01E25CFD4FC35C70
:10322000DD4F90818881CD53D240981708F01082ED
:10323000FE01E25CFD4F8081C80FD11DC25DDD4FF4
:1032400098818F5F8083243010F01092F905892FC8
:10325000DF91CF910895E0E8F5E080E2819395E079
:10326000E93FF907D9F70895862F8150863078F421
:1032700084E1689F602D1124962F945180E2E92FFC
:10328000F0E0E058FA4F80839F5F9617C1F70895EA
:1032900080E003C08F5F7695679560FFFBCF089550
:1032A000AF92BF92CF92DF92EF92FF920F931F9354
:1032B000CF93DF93EC01CD56DD4F088176E0F72EFA
:1032C000F01A2A91C259D240F21610F010E041C013
:1032D000122F1F193EC0212F30E08DB79EB70897DF
:1032E0000FB6F8949EBF0FBE8DBFADB7BEB7119697
:1032F0000E9DC001112480589A4FEDB7FEB79283FE
:1033000081831396BC92AE9212972E5A3E4FF901CA
:10331000EE0FFF1FEC0FFD1F8081918115969C938E
:103320008E9314972155314017963C932E93169700
:103330000E946D751F5F8DB79EB708960FB6F89403
:103340009EBF0FBE8DBFF6018081181780F40F5FFE
:103350000BC054E1E52E45E1A42EB12C33EAC32E77
:1033600032E0D32ECC0EDD1E063008F4B4CFCF569B
:10337000DD4F8881C159D2408823F1F0CE56DD4F10
:103380008881C259D240F81620F48AE28093E6057B
:1033900013C0CD56DD4F288190E0820F911D24E1AE
:1033A00030E0829FF001839FF00D929FF00D112479
:1033B000E259FA4F8AE28083DF91CF911F910F91FA
:1033C000FF90EF90DF90CF90BF90AF900895BF92A5
:1033D000CF92DF92EF92FF920F931F93CF93DF93E1
:1033E000EC01CC52DD4FB880C45DD2408AE0B81603
:1033F00009F054C0CD56DD4F1881C359D24004C0E6
:10340000CE01612F0E9434191F5F1730C8F3FE01EF
:10341000E953FD4F8081DE01A357BD4F8F30D8F5B2
:103420008F5F80831C9200E010E0F8E2EF2EF12C19
:10343000E5E1CE2ED12C00D000D000D0EDB7FEB704
:103440003196C70180589A4FADB7BEB712969C937C
:103450008E931197D382C2820C9DC0010D9D900D59
:103460001C9D900D112484539C4F958384830E944E
:103470006D750F5F1F4F84E190E0E80EF91EADB748
:10348000BEB716960FB6F894BEBF0FBEADBF0330E1
:10349000110589F659C081E08C9356C0CE0166E0D3
:1034A0000E943419C853DD4F28813981C85CD2404D
:1034B000B5E0BB16D1F48DB79EB708970FB6F89458
:1034C0009EBF0FBE8DBFEDB7FEB7319684EE95E07F
:1034D000ADB7BEB712969C938E93119785E190E09D
:1034E000938382838FEB93E01AC096E0B91631F58F
:1034F000ADB7BEB718970FB6F894BEBF0FBEADBF3D
:10350000EDB7FEB7319684EE95E012969C938E93BC
:10351000119785E190E0938382838CEA93E0958311
:103520008483378326830E946D758DB79EB7089676
:103530000FB6F8949EBF0FBE8DBF06C0C357DD4FB8
:1035400081E08883CD58D240C357DD4F8881CD5864
:10355000D240843009F43FC0853030F4813059F0D6
:10356000823009F045C032C0863059F1863040F0D3
:103570008830F1F521C0CC52DD4F18822D9716C04E
:1035800095E0B91639F4CC52DD4F87E08883C45DED
:10359000D2402EC0FE01EC52FD4FA6E0BA1619F43F
:1035A00088E0808325C01082C953DD4F8FE0888377
:1035B0001A92C65CD2401CC0CF52DD4F88EE93E019
:1035C0000EC0CF52DD4F84E690E009C0CF52DD4FF0
:1035D0008AE090E004C0CF52DD4F81E090E0998313
:1035E0008883C15DD240CE018E539D4F0E9405124B
:1035F000C357DD4F1882C95BDF4F8881DF91CF91C0
:103600001F910F91FF90EF90DF90CF90BF900895A2
:10361000CF92DF92EF92FF920F931F93CF93DF939E
:10362000EC01CC52DD4F9881C45DD2409A3009F054
:1036300054C0CD56DD4F0881C359D24004C0CE01DD
:10364000602F0E9434190F5F0730C8F3FE01E95361
:10365000FD4F8081DE01A357BD4F8F30D8F58F5FBE
:1036600080831C9200E010E0B8E2EB2EF12CA5E183
:10367000CA2ED12C00D000D000D0EDB7FEB73196C5
:10368000C70180589A4FADB7BEB712969C938E93E0
:103690001197D382C2820C9DC0010D9D900D1C9D7F
:1036A000900D1124855F9B4F958384830E946D75D7
:1036B0000F5F1F4F84E190E0E80EF91EADB7BEB773
:1036C00016960FB6F894BEBF0FBEADBF03301105FE
:1036D00089F6CFC081E08C93CCC0913089F5C85376
:1036E000DD4F0881198126968881CE5CD2408150B9
:1036F000843020F0C357DD4F9883B9C0CE0166E017
:103700000E9434198DB79EB708970FB6F8949EBFE4
:103710000FBE8DBFEDB7FEB7319684EE95E0ADB725
:10372000BEB712969C938E93119785E190E0938398
:1037300082838AE594E0958384831783068388C017
:103740009430E9F5C853DD4F0881198126968881A8
:10375000CE5CD2408150843008F085C0CE0166E056
:103760000E943419ADB7BEB71A970FB6F894BEBF12
:103770000FBEADBFEDB7FEB7319684EE95E0129661
:103780009C938E93119785E190E0938382838AE4E2
:1037900094E095838483C8016AE070E00E94E0743D
:1037A00077836683C8016AE070E00E94E0749187C5
:1037B00080870E946D758DB79EB70A964EC0923075
:1037C00039F4C853DD4F08811981C85CD24010C05C
:1037D000933009F048C0CC53DD4FE881F98124963D
:1037E00088819981C85CD240E80FF91F008110E000
:1037F000CE0166E00E943419ADB7BEB718970FB678
:10380000F894BEBF0FBEADBFEDB7FEB7319684EEE4
:1038100095E012969C938E93119785E190E09383A7
:10382000828385E694E095838483CE53DD4F8BE0DD
:1038300090E0089F9001099F300D189F300D1124D2
:1038400088819981C25CD240820F931F97838683BF
:103850000E946D758DB79EB708960FB6F8949EBFFF
:103860000FBE8DBF06C0C357DD4F81E08883CD58A2
:10387000D240C357DD4F8881CD58D2408230E9F025
:10388000833020F4813009F061C007C0853009F42D
:1038900057C0883009F05AC00AC0CC52DD4F188298
:1038A0002D978FE088831A92C65CD2404FC0CE011C
:1038B0008E539D4F0E94051249C0CC52DD4F888126
:1038C000C45DD240813011F08430E1F4C853DD4F43
:1038D0004881598129962881398125978881998144
:1038E000CC5CD240820F931F4817590720F0CA01C1
:1038F000821B930B1EC0C653DD4F88819981CA5C21
:10390000D24017C08250823008F5C853DD4F29914C
:10391000399188819981CA5CD2402817390718F4F7
:10392000C901019606C0C453DD4F88819981CC5CE2
:10393000D240C853DD4F99838883C85CD24006C00B
:10394000CC52DD4F89E08883C45DD240C357DD4F40
:103950001882C95BDF4F8881DF91CF911F910F9152
:10396000FF90EF90DF90CF900895CF93DF93DC012D
:10397000663008F0E2C18AE0689F602D11246F5F15
:10398000473009F4E1C0483098F4433009F47CC072
:10399000443030F4413019F1423009F0CEC147C013
:1039A000453009F49FC070E0463008F0B7C084C0CD
:1039B0004B3009F498C14C3040F4493009F465C1EA
:1039C00070E04A3008F079C1D7C04D3009F421C108
:1039D0004D3008F4EBC04E3009F0AFC138C18DB79F
:1039E0009EB70C970FB6F8949EBF0FBE8DBFEDB774
:1039F000FEB73196862F90E080589A4FCDB7DEB74C
:103A00009A8389838BE090E09383828383EB97E1B1
:103A1000958384831B968C911B97868317821C96B3
:103A20008C911C97808711861D968C9125C0CDB7EF
:103A3000DEB72C970FB6F894DEBF0FBECDBFEDB743
:103A4000FEB73196862F90E080589A4F9A838983EB
:103A50008BE090E09383828382EC97E1958384836B
:103A60001A968C911A978683178219968C911997BA
:103A70008087118618968C91828713860E946D75B7
:103A80008DB79EB70C9654C1CDB7DEB728970FB649
:103A9000F894DEBF0FBECDBFEDB7FEB73196862FCF
:103AA00090E080589A4F9A8389838BE090E09383CB
:103AB000828381ED97E12DC0CDB7DEB728970FB691
:103AC000F894DEBF0FBECDBFEDB7FEB7319660589C
:103AD0007A4F7A8369838BE090E0938382838BEDC6
:103AE00097E117C0CDB7DEB728970FB6F894DEBFC1
:103AF0000FBECDBFEDB7FEB73196862F90E0805850
:103B00009A4F9A8389838BE090E09383828386EE39
:103B100097E1958384831E968C9100C1CDB7DEB763
:103B200028970FB6F894DEBF0FBECDBFEDB7FEB736
:103B3000319660587A4F7A8369838BE090E0938363
:103B4000828381EF97E12DC0CDB7DEB728970FB6FE
:103B5000F894DEBF0FBECDBFEDB7FEB73196862F0E
:103B600090E080589A4F9A8389838BE090E093830A
:103B700082838BEF97E115C0CDB7DEB728970FB6DC
:103B8000F894DEBF0FBECDBFEDB7FEB731966058DB
:103B90007A4F7A8369838BE090E09383828386E017
:103BA00098E1958384831F968C91B8C051962D918E
:103BB0003C915297ADB7BEB71A970FB6F894BEBFF7
:103BC0000FBEADBFEDB7FEB73196862F90E080589F
:103BD0009A4FCDB7DEB79A8389838BE090E09383C9
:103BE000828381E198E195838483C9016AE070E072
:103BF0000E94E07466831782C9016AE070E00E9447
:103C0000E074808711860E946D758DB79EB70A9605
:103C10008FC0CDB7DEB728970FB6F894DEBF0FBEC2
:103C2000CDBFEDB7FEB73196862F90E080589A4F02
:103C30009A8389838BE090E0938382838EE198E17D
:103C40009583848353968D919C9154976AC0CDB788
:103C5000DEB728970FB6F894DEBF0FBECDBFEDB725
:103C6000FEB73196862F90E080589A4F9A838983C9
:103C70008BE090E09383828387E298E1958384834D
:103C800055968D919C9156974CC0CDB7DEB728972D
:103C90000FB6F894DEBF0FBECDBFEDB7FEB73196BD
:103CA000862F90E080589A4F9A8389838BE090E02A
:103CB0009383828380E398E12DC0CDB7DEB7289748
:103CC0000FB6F894DEBF0FBECDBFEDB7FEB731968D
:103CD00060587A4F7A8369838BE090E09383828384
:103CE0008AE398E117C0CDB7DEB728970FB6F894EE
:103CF000DEBF0FBECDBFEDB7FEB73196862F90E089
:103D000080589A4F9A8389838BE090E093838283D3
:103D100085E498E19583848350968C91992787FD5B
:103D20009095978386830E946D758DB79EB7089690
:103D30000FB6F8949EBF0FBE8DBFDF91CF9108954F
:103D4000FF920F931F93CF93DF93EC01FC01EB568F
:103D5000FD4F8081882369F11082CE56DD4FFF240C
:103D6000F394F882FA92C159D2408E010D561D4F3C
:103D7000D801FC920E94860FF80180810E94771082
:103D8000CD55DD4FF882C35AD240CE018A5D9D4F9A
:103D90000E946811DE01A35CBD4F9C919F3048F4E6
:103DA000FE01E90FF11DE25DFD4F8EE380839F5F11
:103DB0009C9300D000D000D0EDB7FEB7319680E8DC
:103DC00095E0ADB7BEB712969C938E93119705E11F
:103DD00010E01383028383E896E0958384830E9436
:103DE0006D75EDB7FEB73196CD56DD4F888124E174
:103DF000829FC001112480589A4FADB7BEB712966A
:103E00009C938E9311971383028383E796E09583A7
:103E100084830E946D75EDB7FEB7319684EE95E010
:103E2000ADB7BEB712969C938E93119713830283FE
:103E30008EE694E0958384830E946D75EDB7FEB79E
:103E400031968C5990E080589A4FADB7BEB7129614
:103E50009C938E9311978BE090E0938382832797B6
:103E600088812BE0829FC001112487589B4F958346
:103E700084830E946D75CA58D040EDB7FEB7369660
:103E80000FB6F894FEBF0FBEEDBF8881C250D2407E
:103E9000853031F0C357DD4F81E08883CD58D24063
:103EA000C357DD4F2881CD58D240213059F4C55237
:103EB000DD4F1982188286E093E39A938A93C45463
:103EC000D0402883DF91CF911F910F91FF900895EB
:103ED000FF920F931F93CF93DF93EC01FC01EB56FE
:103EE000FD4F8081882309F452C01082CE56DD4FE9
:103EF000FF24F394F882FA92C159D2408E010D56F4
:103F00001D4FD801FC920E94860FF80180810E940B
:103F10007710CD55DD4FF882C35AD240CE018A5D6D
:103F20009D4F0E946811DE01A35CBD4F9C919F30A4
:103F300048F4FE01E90FF11DE25DFD4F8EE3808341
:103F40009F5F9C938981813011F5FE01ED59FD4FF2
:103F500080E011928F5F8832E1F7FE01E557FD4F57
:103F6000C457DD4F1882A89788E0888382E0808359
:103F7000C755D0408881CD50D240882341F4CB59D9
:103F8000DD4F81E08883C556D24083E0808300D036
:103F900000D000D0EDB7FEB7319680E895E0ADB720
:103FA000BEB712969C938E93119705E110E0138390
:103FB000028380EA96E0958384830E946D75EDB755
:103FC000FEB73196CD56DD4F8881C359D24024E1EA
:103FD000829FC001112480589A4FADB7BEB7129688
:103FE0009C938E931197138302838FE896E09583B9
:103FF00084830E946D75FE01EC52FD4F8DB79EB714
:1040000006960FB6F8949EBF0FBE8DBF80818B3091
:1040100008F01082CC52DD4F8881C45DD2408823E5
:1040200009F450C0CE010E94081B893009F08AC0F3
:10403000CC53DD4FE881F981249688819981C85C51
:10404000D240E80FF91FE0818E2F8D50DE01A15C78
:10405000BD4F9E01205C3D4F803210F4EA5017C0E6
:104060008E2F8250843010F4E15011C0E63009F4F4
:10407000BCC0E73009F4BBC0E83009F4B6C08E2FED
:104080008950843008F4B3C0E13041F402C0EE231B
:1040900029F081E08C93D901EC9303C01C92F901C3
:1040A0001082FE01EA53FD4F8081CA5DDD4F888397
:1040B000C255DF4F18822D978FE08883C75CD240AE
:1040C000108240C000D000D000D0EDB7FEB73196CE
:1040D00084EE95E0ADB7BEB712969C938E93119780
:1040E00085E190E0938382838EE694E095838483D8
:1040F0000E946D75EDB7FEB731968C5990E08058EF
:104100009A4FADB7BEB712969C938E9311978BE0E2
:1041100090E093838283C457DD4F8881CC58D2408E
:104120002BE0829FC001112487589B4F9583848385
:104130000E946D75EDB7FEB736960FB6F894FEBFC8
:104140000FBEEDBFCE5FDD4F8881C250D2408430BC
:1041500031F0C357DD4F81E08883CD58D240C3573B
:10416000DD4F2881CD58D240213021F0253009F093
:1041700047C00CC0C552DD4F1982188286E093E318
:104180009A938A93C454D04028833AC0FE01E853DE
:10419000FD4FC453DD4F88819981CC5CD24091831F
:1041A00080838E010E531D4FC80163E00E94BD1134
:1041B000C557DD4F4881CB58D24050E04150504068
:1041C000C80160E070E00E94DA11CE018D599D4F68
:1041D000CC53DD4F9983888389E794E0D8018D9390
:1041E0009C9322968EE788830BC091E001C092E0F9
:1041F000C15CDD4F82E089939883C054D24051CF97
:10420000DF91CF911F910F91FF900895FF920F932F
:104210001F93CF93DF93EC01FC01EB56FD4F8081A0
:10422000882309F447C01082CE56DD4F81E0888391
:104230008A93C159D2408E010D561D4F82E0D8019C
:104240008C930E94860FF80180810E947710CC55D4
:10425000DD4F8FED96E08993999385ED96E08993F4
:1042600099938CEC96E08993999383EC96E08993EB
:10427000999388EB96E0899399938CEA96E09983D9
:1042800088832B9786E08883C35AD240CE018A5D0B
:104290009D4F0E946811DE01A35CBD4F9C919F3031
:1042A00048F4FE01E90FF11DE25DFD4F82E38083DA
:1042B0009F5F9C9300D000D000D0EDB7FEB7319641
:1042C00084E995E0ADB7BEB712969C938E93119793
:1042D00085E190E09383828387EE96E095838483E3
:1042E0000E946D75EDB7FEB736960FB6F894FEBF17
:1042F0000FBEEDBFCE0160E041E00E94B51CCE01D3
:1043000061E042E00E94B51CFE01EC52FD4F80814D
:104310008B3008F01082CC52DD4F8881C45DD240D2
:10432000882309F476C0CE56DD4F499150E08DB711
:104330009EB708970FB6F8949EBF0FBE8DBFADB75E
:10434000BEB711968881C359D24024E1829FC00133
:10435000112480589A4FEDB7FEB79283818385E18F
:1043600090E013969C938E931297FA01EF5AFE4FAA
:10437000EE0FFF1FEC0FFD1F8081918115969C931E
:104380008E93149717965C934E9316970E946D75B3
:104390008DB79EB708960FB6F8949EBF0FBE8DBF1F
:1043A000CE010E94081B8930B9F58E010E531D4FB6
:1043B000C8010E94EF11F82EC8010E94EF11382F9A
:1043C000C153DD4F8881CF5CD240863088F4FE0136
:1043D000E80FF11DE15CFD4F8F2D6AE00E94C7746C
:1043E000282F2295207F832F0E94C774290F2083B6
:1043F000FE01EA53FD4F8081CA5DDD4F8883C255BF
:10440000DF4F18822D978FE08883C75CD2401082DF
:1044100003C0CE010E945019C357DD4F2881CD58EB
:10442000D2402230D1F0233020F4213009F0F3C102
:10443000E7C1253019F1283009F0EDC1CE56DD4F26
:104440008881C259D240823010F0815013C0CD55BE
:10445000DD4F8881C35AD2400DC0CE56DD4F9881C2
:1044600061968881C35AD240981710F081E002C04B
:10447000892F8F5FCE56DD4F8883CDC1C952DD4F66
:104480001982188288E09BE19A938A93C354D040A2
:10449000E881C259D240F0E0EF5AFE4FEE0FFF1F05
:1044A000EC0FFD1F0190F081E02D96E0EF3DF90744
:1044B00061F58E010E531D4FC80161E00E94BD11D0
:1044C000C80160E070E043E650E00E94DA118D859B
:1044D000282F30E0C453DD4F48815981CC5CD24055
:1044E0002417350748F0C653DD4F88819981CA5C8F
:1044F000D2408217930708F49A01C853DD4F3983DD
:1045000028832796198218820DC1A6E0E53DFA0797
:1045100061F58E010E531D4FC80161E00E94BD116F
:10452000C80161E070E04CE050E00E94DA118C8537
:10453000282F30E0C453DD4F48815981CC5CD240F4
:104540002417350748F0C653DD4F88819981CA5C2E
:10455000D2408217930708F49A01C853DD4F39837C
:104560002883279681E090E0DBC0B6E0EC3CFB07B7
:1045700009F048C08E010E531D4FC80161E00E9432
:10458000BD118C858430C9F08630B9F08930A9F02E
:104590008B3099F0823051F48D8590E0837090706B
:1045A000892B11F04CE10AC04DE108C081508C30DC
:1045B00010F44FE103C040E001C04EE1C80161E0EA
:1045C00070E050E00E94DA118B85282F30E0C45350
:1045D000DD4F48815981CC5CD2402417350748F023
:1045E000C653DD4F88819981CA5CD24082179307F8
:1045F00008F49A01C853DD4F39832883279682E057
:1046000090E08EC086E0E33CF80761F58E010E5322
:104610001D4FC80161E00E94BD11C80160E070E05B
:1046200047E150E00E94DA118A85282F30E0C45318
:10463000DD4F48815981CC5CD2402417350748F0C2
:10464000C653DD4F88819981CA5CD2408217930797
:1046500008F49A01C853DD4F39832883279683E0F5
:1046600090E05EC096E0E83BF90761F58E010E53DD
:104670001D4FC80161E00E94BD11C80160E070E0FB
:104680004BE350E00E94DA118985282F30E0C453B3
:10469000DD4F48815981CC5CD2402417350748F062
:1046A000C653DD4F88819981CA5CD2408217930737
:1046B00008F49A01C853DD4F39832883279684E094
:1046C00090E02EC0EC5AF64079F58E010E531D4F46
:1046D000C80161E00E94BD11C80160E070E04BE3D9
:1046E00050E00E94DA118885282F30E0C453DD4F56
:1046F00048815981CC5CD2402417350748F0C65315
:10470000DD4F88819981CA5CD2408217930708F4F3
:104710009A01C853DD4F39832883279685E090E0BE
:1047200099838883CF5CD240CA53DD4F82EB888364
:104730002B9681E090E08993999381E08883C35D13
:10474000D2403D85C15CDD4F832F6AE00E94C77473
:10475000282F2295207F832F0E94C774290F28833A
:10476000CF53D2403C85C05CDD4F832F0E94C7747D
:10477000282F2295207F832F0E94C774290F28831A
:10478000C054D2403B85CF5BDD4F832F0E94C7745E
:10479000282F2295207F832F0E94C774290F2883FA
:1047A000C154D2403A85CE5BDD4F832F0E94C7743F
:1047B000282F2295207F832F0E94C774290F2883DA
:1047C000C254D2403985CD5BDD4F832F0E94C77420
:1047D000282F2295207F832F0E94C774290F2883BA
:1047E000C354D2403885CC5BDD4F832F0E94C77401
:1047F000282F2295207F832F0E94C774290F0AC07B
:10480000C552DD4F198218828CE195E29A938A9302
:10481000C454D0402883DF91CF911F910F91FF9016
:1048200008950F931F93CF93DF93EC01FC01EB5698
:10483000FD4F8081882309F45BC01082CE56DD4F86
:1048400081E088838A93C159D2408E010D561D4F55
:10485000D8018C930E94860FF80180810E94771006
:104860008981813071F4CC55DD4F86E89CE08993D5
:10487000999380E69CE099838883C65AD24082E06F
:104880002DC08230B1F4CC55DD4F86E89CE0899391
:10489000999389E79CE0899399938AE69CE08993B0
:1048A000999380E69CE099838883CA5AD24084E039
:1048B00015C0843011F080E011C0CC55DD4F89E780
:1048C0009CE0899399938AE69CE08993999380E68A
:1048D0009CE099838883C85AD24083E0CD55DD4F50
:1048E0008883C35AD240CE018A5D9D4F0E946811D1
:1048F00000D000D000D0EDB7FEB7319680E895E04B
:10490000ADB7BEB712969C938E93119784E190E059
:104910009383828381E99CE0958384830E946D75F3
:10492000EDB7FEB736960FB6F894FEBF0FBEEDBFDB
:10493000CE010E945019C357DD4F2881CD58D24077
:104940002230D1F0233020F4213009F070C024C08F
:10495000253071F1283009F06AC0CE56DD4F8881CC
:10496000C259D240823010F0815013C0CD55DD4F76
:104970008881C35AD2400DC0CE56DD4F98816196D2
:104980008881C35AD240981710F081E002C0892F65
:104990008F5FCE56DD4F4AC0C552DD4F1982188257
:1049A0008CE195E29A938A93C454D04028833FC007
:1049B000CE56DD4FE881C259D240F0E0EF5AFE4FAB
:1049C000EE0FFF1FEC0FFD1F0190F081E02D8CE03A
:1049D000E638F80739F4C552DD4F198218828AEAA1
:1049E0009FE41FC09CE0E937F90739F4C552DD4F59
:1049F000198218828BE19BE414C0ACE0EA36FA0716
:104A000039F4C552DD4F198218828AE395E409C052
:104A1000E056FC4061F4C552DD4F1982188280EEE9
:104A200094E39A938A93C454D04081E08883DF91C1
:104A3000CF911F910F9108950F931F93CF93DF9301
:104A4000EC01FC01EB56FD4F8081882379F1108247
:104A5000CE56DD4F81E088838A93C159D2408E01C2
:104A60000D561D4FD8018C930E94860FF80180814E
:104A70000E947710CC55DD4F8BE09DE08993999390
:104A80008AEF9CE0899399938CEE9CE089939993AB
:104A900081EE9CE099838883279784E08883C35ABA
:104AA000D240CE018A5D9D4F0E94681100D000D097
:104AB00000D0EDB7FEB7319680E895E0ADB7BEB750
:104AC00012969C938E93119785E190E09383828355
:104AD00085E19DE0958384830E946D75EDB7FEB7F7
:104AE00036960FB6F894FEBF0FBEEDBFCE010E9402
:104AF0005019FE01EC52FD4F80818B3008F010827E
:104B0000CC52DD4F0881C45DD240002309F44BC074
:104B1000C952DD4F28813981C75DD240DE01AB52D9
:104B2000BD4F20FF10C0F901F595E795EC0FFD1F73
:104B30000190F081E02D8D919C91E80FF91F01907B
:104B4000F081E02D02C0ED91FC9135952795CE01C5
:104B5000820F931F09950730C1F4C853DD4F288198
:104B60003981C85CD2408A819B812817390731F08E
:104B70008C819D812817390709F09FC0CE018E5383
:104B80009D4F66E00E94BD110EC0083061F4C8530D
:104B9000DD4F88819981C85CD240F7E280319F0760
:104BA00010F49B838A83C357DD4F2881CD58D240B0
:104BB0002230D1F0233020F4213009F088C024C005
:104BC000253071F1283009F082C0CE56DD4F888142
:104BD000C259D240823010F0815013C0CD55DD4F04
:104BE0008881C35AD2400DC0CE56DD4F9881619660
:104BF0008881C35AD240981710F081E002C0892FF3
:104C00008F5FCE56DD4F40C0C552DD4F19821882EE
:104C100086E093E39A938A93C454D040288357C084
:104C2000CE56DD4FE881C259D240F0E0EF5AFE4F38
:104C3000EE0FFF1FEC0FFD1F0190F081E02D2DE026
:104C4000EB30F20739F4C552DD4F1982188284E542
:104C500098E515C08CE0EA3FF80739F4C552DD4FFE
:104C60001982188286E091E20AC09CE0EC3EF907C6
:104C700069F4C552DD4F1982188281E194E29A935A
:104C80008A93C454D04081E0888321C0E15EFC4017
:104C9000F1F4C952DD4F1982188287EE99E19A9397
:104CA0008A93C55DD240CE018E539D4F65E00E9430
:104CB000BD11CA53DD4F18820AC0CC52DD4F188295
:104CC0002D978FE088831A92C65CD2406CCFDF911B
:104CD000CF911F910F910895FF920F931F93CF9340
:104CE000DF93EC01F980FC01EB56FD4F80818823B6
:104CF00009F4A2C11082CE56DD4F81E088838A93E9
:104D0000C159D2408E010D561D4FD8018C930E947F
:104D1000860FF80180810E947710C25FDD4F1882F4
:104D200027971882C750D240F1E0FF1609F031C131
:104D3000C058DF4F3881C357DE4F2881C956DF4F37
:104D400083EB9EE0899399938CEF9EE0998388830F
:104D5000C65AD240222309F059C0313031F5C85526
:104D6000DD4F87EE9EE0899399938DE09FE08993D4
:104D7000999380E79EE0899399938FE59EE08993CC
:104D800099938AE49EE08993999388EF9DE08993B3
:104D900099938BE29EE0899399938BE19EE09983AE
:104DA0008883C65BD2402AE0E5C0323009F0E1C01A
:104DB000C855DD4F86ED9DE08993999382EC9DE087
:104DC000899399938EEA9DE08993999387E89DE072
:104DD0008993999380E79EE0899399938FE59EE06C
:104DE000899399938AE49EE08993999388EF9DE053
:104DF000899399938BE29EE0899399938BE19EE04E
:104E000099838883CA5BD2402CE0B4C02130C9F4B6
:104E1000C855DD4F87EE9EE08993999388EF9DE01A
:104E2000899399938BE29EE0899399938BE19EE01D
:104E3000899399938AE09EE08993999387EA9EE00B
:104E400092C0233009F059C0313011F5C855DD4FFB
:104E50008DE09FE08993999382E99EE089939993ED
:104E600088EF9DE0899399938BE29EE089939993D3
:104E70008AEE9DE0899399938DE79EE089939993BB
:104E80008BE19EE099838883C45BD24029E072C0A5
:104E9000323009F06EC0C855DD4F82EC9DE0899339
:104EA00099938EEA9DE08993999387E89DE0899391
:104EB000999382E79DE0899399938DE59DE089938D
:104EC000999383E39DE08993999388EF9DE089937B
:104ED00099938BE29EE0899399938AEE9DE0899362
:104EE00099938DE79EE0899399938BE19EE0998356
:104EF0008883CC5BD2402DE03DC02230D1F4C85530
:104F0000DD4F88EF9DE0899399938BE29EE0899332
:104F100099938BE19EE0899399938AE09EE089932F
:104F2000999387EA9EE099838883C05BD24027E00B
:104F300021C02430F1F4C855DD4F80E79EE089930D
:104F400099938FE59EE0899399938AE49EE08993F3
:104F500099938DE39EE08993999384E29DE08993F0
:104F600099938BE19EE099838883C25BD24028E0CD
:104F700001C022E0E22FF0E0EE5AFE4FEE0FFF1FDD
:104F8000EC0FFD1F8DED9EE091838083E22FEF5F9C
:104F900022C08981823091F4CC55DD4F83EB9EE0B5
:104FA000899399938CEF9EE0899399938DED9EE080
:104FB00099838883C85AD240E3E00DC0843011F051
:104FC000E0E009C0CC55DD4F8CEF9EE099838883EB
:104FD000C45AD240E1E0CD55DD4FE883C35AD240F8
:104FE0008E010A5D1D4FC8010E94681189818130C0
:104FF00019F5C80167E34FEF0E947111DE01A35C50
:10500000BD4F9C919F3048F4FE01E90FF11DE25D18
:10501000FD4F82E080839F5F9C93DE01A35CBD4FC8
:105020009C919F3048F4FE01E90FF11DE25DFD4FB8
:105030008BE380839F5F9C9381E0F816C9F4FE01A7
:10504000E25FFD4F80811082882329F0CB56DD4F2F
:10505000F882C559D240FE01E95FFD4F8081108280
:10506000882331F0CB56DD4F81E08883C559D2408B
:10507000FA9491E09F1590F0C458DF4F8881CC5787
:10508000D040873019F483EB9EE002C088EC9EE0AC
:10509000CC55DD4F99838883C45AD24000D000D0CC
:1050A00000D0EDB7FEB7319680E895E0ADB7BEB75A
:1050B00012969C938E93119785E190E0938382835F
:1050C00081E29FE0958384830E946D75EDB7FEB702
:1050D00036960FB6F894FEBF0FBEEDBFCE010E940C
:1050E0005019C357DD4F2881CD58D2402230D1F01E
:1050F000233020F4213009F0F0C024C0253071F1B4
:10510000283009F0EAC0CE56DD4F8881C259D2401E
:10511000823010F0815013C0CD55DD4F8881C35AC5
:10512000D2400DC0CE56DD4F988161968881C35A1A
:10513000D240981710F081E002C0892F8F5FCE56C1
:10514000DD4FCAC0C552DD4F1982188286E093E355
:105150009A938A93C454D0402883BFC0CE56DD4F63
:10516000E881C259D240F0E0EF5AFE4FEE0FFF1F28
:10517000EC0FFD1F0190F081E02D8FE0ED30F8077E
:1051800009F462C09EE0EC3FF90721F4C15CDD4FF9
:1051900081E095C0AEE0E73EFA0709F44DC0BEE0FD
:1051A000ED3DFB0721F4C15CDD4F87E088C08EE058
:1051B000E83CF80721F4C15CDD4F88E080C09EE048
:1051C000E33BF90721F4C15CDD4F89E078C0AEE034
:1051D000E037FA0721F4C15CDD4F83E070C0BEE028
:1051E000EF35FB0721F4C15CDD4F86E072C08EE035
:1051F000EA34F80721F4C15CDD4F8AE060C09EE02C
:10520000ED33F90709F1AEE0EB32FA0721F4C15CA6
:10521000DD4F83E05EC0BEE0EB31FB0709F456C012
:105220008DE0E83FF80721F4C15CDD4F81E051C01B
:105230009DE0E63DF90721F4C15CDD4F82E03FC00F
:10524000ADE0E23CFA0721F4C15CDD4F84E037C0F9
:10525000BDE0EE3AFB0721F4C15CDD4F85E02FC0D5
:105260008DE0EA39F80721F4C15CDD4F8DE027C0FD
:105270009DE0E738F90721F4C15CDD4F86E01FC0EF
:10528000ADE0E237FA0721F4C15CDD4F80E117C0E1
:10529000BDE0ED35FB0721F4C15CDD4F81E10FC0BE
:1052A0008DE0E834F80721F4C15CDD4F82E107C0EE
:1052B0009DE0E333F90739F4C15CDD4F83E1888376
:1052C000699782E709C0E452FD4039F4C15CDD4FC3
:1052D00084E0888369978AE88883DF91CF911F9162
:1052E0000F91FF900895AF92BF92CF92DF92EF920D
:1052F000FF920F931F93CF93DF93EC01FC01EB56CA
:10530000FD4F8081882309F44FC01082CF56DD4FB6
:105310001882C159D2408E010D561D4F81E0D8012F
:105320008C930E94860FF80180810E94771015E40B
:10533000C12E12E0D12ECC0EDD1EC6010E949311AB
:10534000C35BDD4F82E08883CD54D24089818430B5
:1053500041F4C75ADD4F80E092E099838883C955B4
:10536000D2408E010A5D1D4FC8010E946811C8011C
:1053700061EE4FEF0E947111DE01A35CBD4F9C9165
:105380009F3048F4FE01E90FF11DE25DFD4F82EE12
:1053900080839F5F9C93C6010E94B011C05CDD4F6B
:1053A00099838883C054D240C25ADD4FE880F98087
:1053B000279708811981C755D24000D000D000D06E
:1053C000EDB7FEB73196B0E8CB2EB5E0DB2EADB72A
:1053D000BEB71296DC92CE921197A5E1AA2EB12CFF
:1053E000B382A28289ED9FE0958384830E946D75CC
:1053F00000D000D0EDB7FEB7319684E190E0C80E42
:10540000D91EADB7BEB71296DC92CE9211978CEE34
:105410009FEFC80ED91EB382A28281E39FE09583DD
:105420008483F782E682118700870E946D75ADB78D
:10543000BEB71A960FB6F894BEBF0FBEADBF012B14
:10544000A9F400D000D000D0EDB7FEB7319680ECC3
:1054500095E0ADB7BEB712969C938E9311978CE0F2
:1054600090E09383828380E49FE01DC0CE59DD4F9E
:105470008881C256D2408823F1F400D000D000D0F9
:10548000EDB7FEB731968DE390E0C80ED91EADB7EB
:10549000BEB71296DC92CE92119784E190E093838E
:1054A00082838CE49FE0958384830E946D75EDB7C1
:1054B000FEB736968FC08DB79EB708970FB6F89493
:1054C0009EBF0FBE8DBFEDB7FEB73196A8E2B0E02C
:1054D000CA0EDB1EADB7BEB71296DC92CE92119704
:1054E000B382A2828EE59FE095838483C05ADD4F0C
:1054F0008881868317820E946D7500D000D0EDB739
:10550000FEB7319684E190E0C80ED91EADB7BEB7A4
:105510001296DC92CE921197B382A2828AE69FE025
:105520009583848366978991868317828991808782
:1055300011868881828713860E946D7500D0EDB731
:10554000FEB7319680ED95E0ADB7BEB712969C934D
:105550008E931197B382A2828FE79FE09583848315
:1055600023978881868317828A91808711868A9102
:10557000828713869A918A91958784870E946D7598
:105580002A962881CF54D24030E0EDB7FEB7369648
:105590000FB6F894FEBF0FBEEDBF319684EE95E0D6
:1055A000ADB7BEB712969C938E931197B382A28229
:1055B0002A9DC0012B9D900D3A9D900D1124865679
:1055C000904F95838483378326830E946D75EDB752
:1055D000FEB738960FB6F894FEBF0FBEEDBFC357A7
:1055E000DD4F2881CD58D2402230C9F0283021F03B
:1055F000213009F041C033C0C25ADD4F28813981C2
:10560000CE55D2402230310518F0C901019718C09B
:10561000C95ADD4F88819981C755D24011C0C25AFD
:10562000DD4F28813981279788819981C755D240DC
:105630002817390718F081E090E002C0C9010196EF
:1056400082179307C9F0C25ADD4F99838883249645
:105650001882EC9782EE8883C652D2400DC0C552A4
:10566000DD4F1982188281E591E39A938A93C4549D
:10567000D0402883C559D240CE018B5B9D4F0E94FC
:10568000B011C05CDD4F99838883DF91CF911F916A
:105690000F91FF90EF90DF90CF90BF90AF90089563
:1056A000AF92BF92CF92DF92EF92FF920F931F9330
:1056B000CF93DF93EC01FC01EB56FD4F80818823F3
:1056C00009F44FC01082CF56DD4F1882C159D24025
:1056D0008E010D561D4FFF24F394D801FC920E94B9
:1056E000860FF80180810E94771025E4C22E22E007
:1056F000D22ECC0EDD1EC6010E949311C35BDD4F7E
:10570000F882CD54D2408981843041F4C75ADD4FAC
:1057100080E092E099838883C955D2408E010A5D6A
:105720001D4FC8010E946811C80161ED4FEF0E9432
:105730007111DE01A35CBD4F9C919F3048F4FE01C6
:10574000E90FF11DE25DFD4F82ED80839F5F9C9329
:10575000C6010E94B011C05CDD4F99838883C0549C
:10576000D240C25ADD4FE880F9802797088119811D
:10577000C755D24000D000D000D0EDB7FEB731966B
:1057800090E8C92E95E0D92EADB7BEB71296DC923F
:10579000CE92119785E1A82EB12CB382A2828BEE16
:1057A0009FE0958384830E946D7500D000D0EDB793
:1057B000FEB7319684E190E0C80ED91EADB7BEB7F2
:1057C0001296DC92CE9211978CEE9FEFC80ED91EE6
:1057D000B382A28281E39FE095838483F782E6828D
:1057E000118700870E946D75ADB7BEB71A960FB6C8
:1057F000F894BEBF0FBEADBF012BA9F400D000D0FE
:1058000000D0EDB7FEB7319680EC95E0ADB7BEB7EE
:1058100012969C938E9311978CE090E093838283F1
:1058200080E49FE01DC0CE59DD4F8881C256D24032
:105830008823F1F400D000D000D0EDB7FEB7319648
:105840008DE390E0C80ED91EADB7BEB71296DC92BC
:10585000CE92119784E190E0938382838CE49FE061
:10586000958384830E946D75EDB7FEB736968FC021
:105870008DB79EB708970FB6F8949EBF0FBE8DBF29
:10588000EDB7FEB73196A8E2B0E0CA0EDB1EADB7A9
:10589000BEB71296DC92CE921197B382A2828EE5A9
:1058A0009FE095838483C05ADD4F88818683178269
:1058B0000E946D7500D000D0EDB7FEB7319684E13F
:1058C00090E0C80ED91EADB7BEB71296DC92CE924C
:1058D0001197B382A2828AE69FE0958384836697BC
:1058E0008991868317828991808711868881828732
:1058F00013860E946D7500D0EDB7FEB7319680ED2E
:1059000095E0ADB7BEB712969C938E931197B38274
:10591000A2828FE79FE09583848323978881868383
:1059200017828A91808711868A91828713869A913D
:105930008A91958784870E946D752A962881CF5415
:10594000D24030E0EDB7FEB736960FB6F894FEBF02
:105950000FBEEDBF319684EE95E0ADB7BEB712969F
:105960009C938E931197B382A2822A9DC0012B9D96
:10597000900D3A9D900D11248656904F9583848307
:10598000378326830E946D75EDB7FEB738960FB644
:10599000F894FEBF0FBEEDBFC357DD4F2881CD5831
:1059A000D2402230C9F0283021F0213009F041C026
:1059B00033C0C25ADD4F28813981CE55D2402230C2
:1059C000310518F0C901019718C0C95ADD4F888107
:1059D0009981C755D24011C0C25ADD4F2881398103
:1059E000279788819981C755D2402817390718F021
:1059F00081E090E002C0C901019682179307C9F0C7
:105A0000C25ADD4F9983888324961882EC9782EDE1
:105A10008883C652D2400DC0C552DD4F198218820C
:105A200081E591E39A938A93C454D0402883C55961
:105A3000D240CE018B5B9D4F0E94B011C05CDD4F08
:105A400099838883DF91CF911F910F91FF90EF9001
:105A5000DF90CF90BF90AF900895AF92BF92CF925A
:105A6000DF92EF92FF920F931F93CF93DF93EC019E
:105A7000FC01EB56FD4F8081882309F451C0108250
:105A8000CF56DD4F1882C159D2408E010D561D4FA1
:105A900081E0D8018C930E94860FF80180810E94DA
:105AA000771065E4C62E62E0D62ECC0EDD1EC60150
:105AB0000E949311C35BDD4F1882CD54D24089817F
:105AC000813019F480E094E002C080E090E0C75A91
:105AD000DD4F99838883C955D2408E010A5D1D4FE1
