:100000000C94DB200C9441210C9441210C9441214F
:100010000C9441210C9441210C9441210C944121D8
:100020000C9441210C9441210C9441210C944121C8
:100030000C94F3AD0C9441210C9441210C9426AE08
:100040000C9441210C9441210C9493AC0C9428AC59
:100050000C9468AC0C9441210C9441210C944121E6
:100060000C9441210C9441210C9441210C94412188
:100070000C9441210C9441210C9453AD0C94E8ABA9
:100080000C949EAD0C94C6AC0C944121F259155AB7
:100090003D5A555A705A8B5AA35ABE5A405B585B08
:1000A000735BD95A085B245B8E5BAA5BC55BE05B24
:1000B00000C1814001C0804101C0804100C1814038
:1000C00001C0804100C1814000C1814001C0804128
:1000D00001C0804100C1814000C1814001C0804118
:1000E00000C1814001C0804101C0804100C1814008
:1000F00001C0804100C1814000C1814001C08041F8
:1001000000C1814001C0804101C0804100C18140E7
:1001100000C1814001C0804101C0804100C18140D7
:1001200001C0804100C1814000C1814001C08041C7
:1001300001C0804100C1814000C1814001C08041B7
:1001400000C1814001C0804101C0804100C18140A7
:1001500000C1814001C0804101C0804100C1814097
:1001600001C0804100C1814000C1814001C0804187
:1001700000C1814001C0804101C0804100C1814077
:1001800001C0804100C1814000C1814001C0804167
:1001900001C0804100C1814000C1814001C0804157
:1001A00000C1814001C0804101C0804100C1814047
:1001B00000C0C101C30302C2C60607C705C5C40407
:1001C000CC0C0DCD0FCFCE0E0ACACB0BC90908C877
:1001D000D81819D91BDBDA1A1EDEDF1FDD1D1CDC67
:1001E00014D4D515D71716D6D21213D311D1D010D7
:1001F000F03031F133F3F23236F6F737F53534F4C7
:100200003CFCFD3DFF3F3EFEFA3A3BFB39F9F83836
:1002100028E8E929EB2B2AEAEE2E2FEF2DEDEC2C26
:10022000E42425E527E7E62622E2E323E12120E096
:10023000A06061A163A3A26266A6A767A56564A486
:100240006CACAD6DAF6F6EAEAA6A6BAB69A9A868F6
:1002500078B8B979BB7B7ABABE7E7FBF7DBDBC7CE6
:10026000B47475B577B7B67672B2B373B17170B056
:100270005090915193535292965657975595945446
:100280009C5C5D9D5F9F9E5E5A9A9B5B99595898B6
:10029000884849894B8B8A4A4E8E8F4F8D4D4C8CA6
:1002A0004484854587474686824243834181804016
:1002B0005669727475616C00C0C2C0CDD220CECFB9
:1002C000D2CE2D2564256425642DCE00C0C2C0CDBC
:1002D000D220CA3430302D25642564C200C0C2C08B
:1002E000CDD220D0C7D1CA2D2564256425642DC266
:1002F00000C0C2C0CDD220D0343030EC2D313030EF
:100300002DC20020C8E7ECE5EDE8F2FC20EFE0F0BC
:10031000E0ECE5F2F02020002020ECEEE6EDEE200F
:10032000F2EEEBFCEAEE20E220202020002020F07C
:10033000E5E6E8ECE520C2DBC2C5C4C5CD2020203F
:1003400020000000000000ECC0000000C000000021
:1003500000EAC0000000C200000000EAC200000085
:10036000ECF10000006300000000F7E0F10000E4A1
:10037000C1000000C3F6000000EAC3F60000E3F08D
:10038000E0E400002D25642E256425530025642E0D
:1003900025642553002564255300F7F2E5EDE8E5D3
:1003A0002E2E00F7F2E5EDE8E52E00256400EEF8CC
:1003B000E8E1EAE021212100C7EDE0F7E5EDE8E51D
:1003C0003A200025642E2EB1256425530025642E85
:1003D0002EB1256425530025642E2E256400256446
:1003E0002E2E2564255300E2EAEB2E2FE2FBEAEBEA
:1003F0002E00F1EFE8F1EEEA00C4E8E0EFE0E7EE0E
:10040000ED3A2000CDEEECE5F03A2025752F25756C
:1004100000CFE0F0E0ECE5F2F03A257520C2F1E51E
:10042000E3EE3A257500C2FBE2E5E4E5ED00C3EE3C
:10043000F2EEE2000000C2E2E5E4E5ED0000D0E506
:10044000F7FC00000000D2E5F1F200000000D2E568
:10045000F1F200000000EEF8E8E1EAE00000202000
:1004600020000000000000000000203120000000FB
:10047000000000000000203220000000000000000A
:100480000000312032000000000000000000203396
:1004900020000000000000000000312033000000B8
:1004A00000000000000032203300000000000000C7
:1004B0000000203F20000000000000000000CFF0FE
:1004C000E5E4F3EFF02E2025632D2530345800CDE0
:1004D000E5E8F1EFF02E2025632D25303458006437
:1004E000463D25303264C3F600543D25303264B0B9
:1004F0004300443D25303264E4C100253032753A72
:10050000253032753A2530327500253032752E256A
:100510003032752E253032750053E43D253032756A
:10052000B00055F8323D25303264E4C10055F83151
:100530003D25303264E4C10055F83D25303264E495
:10054000C10055EA323D25303264E4C10055EA313C
:100550003D25303264E4C10055EA3D25303264E483
:10056000C10055E7323D25303264E4C10055E73122
:100570003D25303264E4C10055E73D25303264E466
:10058000C100523D25303375CEEC00493D25303356
:1005900075ECC000553D253032752E25303175C2C1
:1005A00000CDEEE2FBE920EFE0F0EEEBFC3A202597
:1005B00030347500CFE0F0EEEBFC3A202530347596
:1005C0000020202020202020C2E2E5E4E5ED2020CC
:1005D00020202020200020202020EDE5EFF0E0E288
:1005E000E8EBFCEDFBE9202020200020202020204B
:1005F0002020EFE0F0EEEBFC202020202020200047
:10060000C2E2EEE43A20253031752E2530317500F6
:10061000C2E2EEE43A202530316400C2E2EEE43A70
:1006200020255300E2FBEAEB2E0000000000000052
:10063000CAD700000000000000000000CAD7310047
:100640000000000000000000CAD7320000000000D7
:1006500000000000CAD733000000000000000000C6
:10066000CAD734000000000000000000CAD73100E3
:100670000000000000000000CAD73120F120E1EBAB
:10068000EEEA0000CAD732000000000000000000BF
:10069000CAD73220F120E1EBEEEA0000D0C700001B
:1006A0000000000000000000CAEEECE0EDE4E031E4
:1006B00000000000CAEEECE0EDE4E03200000000D3
:1006C000CAEEECE0EDE4E03300000000CAEEECE03E
:1006D000EDE4E03400000000CAEEEC312BE1EBEE7B
:1006E000EA000000CAEEEC322BE1EBEEEA0000007B
:1006F000CAEEEC332BE1EBEEEA000000CAEEEC347C
:100700002BE1EBEEEA000000CAEEECE0EDE4E031B4
:1007100000000000CAEEECE0EDE4E0320000000072
:10072000CAEEECE0EDE4E03300000000CAEEECE0DD
:10073000EDE4E03400000000CAEEECE0EDE4E0356A
:1007400000000000CAEEECE0EDE4E036000000003E
:10075000CAEEECE0EDE4E03700000000CAEEECE0A9
:10076000EDE4E03800000000CAEEECE0EDE4E03932
:1007700000000000CAEEECE0EDE4E03130000000E3
:10078000CAEEECE0EDE4E03131000000CAEEECE04E
:10079000EDE4E03132000000CAEEECE0EDE4E031DF
:1007A00033000000CAEEECE0EDE4E031340000007C
:1007B000CAEEECE0EDE4E03135000000CAEEECE01A
:1007C000EDE4E03136000000CAEEECE0EDE4E031AB
:1007D00037000000CAEEECE0EDE4E0313800000044
:1007E000CAEEECE0EDE4E03139000000CAEEECE0E6
:1007F000EDE4E03230000000CAEEECE0EDE4E0327F
:1008000031000000CAEEECE0EDE4E032320000001E
:10081000CAEEECE0EDE4E03233000000CAEEECE0BA
:10082000EDE4E03234000000CAEEECE0EDE4E0324A
:1008300035000000CAEEECE0EDE4E03236000000E6
:10084000CAEEECE0EDE4E03237000000CAEEECE086
:10085000EDE4E03238000000CAEEECE0EDE4E03216
:1008600039000000CAEEECE0EDE4E03330000000B7
:10087000CAEEECE0EDE4E03331000000CAEEECE05B
:10088000EDE4E03332000000CAD720E820D0C700F2
:1008900000000000CAD73120E820D0C700000000C7
:1008A000CAD73220E820D0C700000000CAD73320C2
:1008B000E820D0C700000000CAD73420E820D0C705
:1008C00000000000CAD1000000000000000000008D
:1008D000EEF8E8E1EAE0000000000000C7EDE0F714
:1008E000E5EDE8E53A2000CFD0CC323A2000CFD079
:1008F000CC313A2000D1E8E3EDE0EBFB20EFF0E86B
:10090000E5ECEDE8EAE000D2E5F1F2FB5CCFF0E8DF
:10091000E5ECEDE8EA00D1E8E3EDE0EBFB20EFE504
:10092000F0E5E4E0F2F7E8EAE000D2E5F1F2FB5CA2
:10093000CFE5F0E5E4E0F2F7E8EA0020202020CF60
:10094000E5F0E5E9E4E8F2E520E2202020202000BF
:10095000202020F0E5E6E8EC20C2DBC2C5C4C5CD0E
:10096000202020200025642E20D2E5F1F220EFF097
:10097000E8E5ECEDE8EAE00025642E20D2E5F1F2AE
:1009800020EFE5F0E5E4E0F2F7E8EAE000CDE0F1A1
:10099000F2F0EEE9EAE05CD2E5F1F2FB00CCE5ED45
:1009A000FE5CC8E7ECE5F0E5EDE8FF0025642E20ED
:1009B000D1E5EAF3EDE4FB0025642E20CCE8EDF36D
:1009C000F2FB0025642E20D7E0F1FB0025642E20E9
:1009D000C4E5EDFC0025642E20CCE5F1FFF60025F2
:1009E000642E20C3EEE400CDE0F1F2F0EEE9EAE09F
:1009F0005CC2F0E5ECFF26E4E0F2E000CDE0F1F2CD
:100A0000F0EEE9EAE05CC8EDF2E5F0F4E5E9F100CA
:100A1000CFE0F0E0ECE5F2F0FB5CCAEEEBFCF6EECA
:100A200000CFE0F0E0ECE5F2F0FB5CCEE1F9E8E5C8
:100A300000CFE0F0E0ECE5F2F0FB5CCFE5F0E5E4C0
:100A4000E0F2F7E8EA00CFE0F0E0ECE5F2F0FB5C82
:100A5000CFF0E8E5ECEDE8EA00CFE0F0E0ECE5F21D
:100A6000F0FB5CC7E0F9E8F2E00025642E20CAEE56
:100A7000EBFCF6EE0025642E20CEE1F9E8E500253A
:100A8000642E20CFE5F0E5E4E0F2F7E8EA00256423
:100A90002E20CFF0E8E5ECEDE8EA0025642E20C733
:100AA000E0F9E8F2E000CDE0F1F2F0EEE9EAE05C36
:100AB000CFE0F0E0ECE5F2F0FB00C2FBE2E5E4E5BC
:100AC000ED0000000000C2E2E5E4E5ED00000000FA
:100AD0000000D2E5F1F22031000000000000D2E574
:100AE000F1F22032000000000000CDE0F1F2F0EE63
:100AF000E9EAE05CD0E5E6E8EC0025642E20C8EDEC
:100B0000F2E5F0F4E5E9F10025642E20CFE0F0EE07
:100B1000EBFC0025642E20CFE0F0E0ECE5F2F0FBEA
:100B20000025642E20C2F0E5ECFF20E820E4E0F28E
:100B3000E00025642E20D0E5E6E8EC00CCE5EDFEF3
:100B40005CCDE0F1F2F0EEE9EAE00025642E20D180
:100B5000E1F0EEF120E2F1E5F50025642E20D1E18F
:100B6000F0EEF120E8EDE4E8EAE0F6E8E8002564DC
:100B70002E20D1E1F0EEF120F3E4E0EBE5ED2E20C4
:100B8000330025642E20D1E1F0EEF120F3E4E0EB18
:100B9000E5ED2E20320025642E20D1E1F0EEF1208B
:100BA000F3E4E0EBE5ED2E20310025642E20C0CAF1
:100BB00020E2EAEBFEF7E5ED0025642E20CFF3F10D
:100BC000EA20F3E4E0EB2DFBF520CCC0CD0025645A
:100BD0002E20CFF3F1EA20F3E4E0EB2E20CCC0CDC1
:100BE00020330025642E20CFF3F1EA20F3E4E0EB7C
:100BF0002E20CCC0CD20320025642E20CFF3F1EA88
:100C000020F3E4E0EB2E20CCC0CD20310025642E73
:100C100020CFF3F1EA20F3E4E0EBE5EDEDFBF500A6
:100C200025642E20CFF3F1EA20F3E4E0EBE5EDEDCF
:100C30002E20330025642E20CFF3F1EA20F3E4E0E8
:100C4000EBE5EDED2E20320025642E20CFF3F1EA06
:100C500020F3E4E0EBE5EDED2E20310025642E20BD
:100C6000D1E1F0EEF120F3E4E0EBE5EDEDFBF50092
:100C700025642E20C0CA20E1E5E3EBFBE9002564F2
:100C80002E20C0CA20EDEEF0ECE0EBFCEDFBE9001D
:100C900025642E20C0CA20E8F1EFFBF2E0EDE8FF6A
:100CA0000025642E20C0CA20E2FBEAEBFEF7E5ED4A
:100CB0000025642E20C0CA20F3F1EAEEF0E5EDED48
:100CC000FBE90025642E20C0CA20E0E2F2EEECE051
:100CD000F2E8F7E5F1EA2E0025642E20CFF3F1EAE1
:100CE00020CFD0C40025642E20CFF3F1EA20C0CA63
:100CF00020F3E4E0EBE5EDED2E0025642E20CFF3AC
:100D0000F1EA20C0CA20F1E2EEE90025642E20D1EC
:100D1000E1F0EEF120C0CA0025642E20C0CA20EA0E
:100D2000EEEDF2F02EEFF0EEE2E5F02E0025642E6F
:100D300020CFF3F1EA20F3E4E0EBE5ED2E20CCC088
:100D4000CD0025642E20C0CA20EFF3F1EA0025640F
:100D50002E20CFF3F1EA20EDE0EBE0E42E20E2FBE1
:100D6000EAEB0025642E20CFF3F1EA20EDE0EBE082
:100D7000E42E20E2EAEB2E0025642E20C2FBE7EEF3
:100D8000E20025642E20D1E1F0EEF120F3E4E0EB67
:100D9000E5EDEDEEE3EE0025642E20D1E1F0EEF17D
:100DA00020F1E2EEE5E3EE0025642E20CFF3F1EA38
:100DB00020F3E4E0EBE5EDEDEEE3EE00CCE5EDFE57
:100DC0005CD3EFF0E0E2EBE5EDE8E500C7E0EFE84B
:100DD000F1FC202575202F20257520282575290058
:100DE000C7E0EFE8F1FC202575202F20257500C60F
:100DF000D3D0CDC0CB20CFD3D1D200D1D7C8D2DB76
:100E0000C2C0CDC8C520C7C0CFC8D1C800CAEEEC8B
:100E1000E0EDE4E03A20257500000000000028D64F
:100E2000CF290028CED82900C4E0F2E03A202530AE
:100E300032752E253032752E2530327500C2F0E520
:100E4000ECFF3A20253032753A253032753A25309C
:100E500032752E2530337500CAEEECE0EDE4E0206B
:100E6000EFE5F0E5E4E0E5F2F1FF00CAEEECE0EDDD
:100E7000E420EDE5F200CEEAEEEDF7E0EDE8E52066
:100E8000EAEEECE0EDE4FB00000000CDE0F7E0EB83
:100E9000EE20EAEEECE0EDE4FB00000000000000D4
:100EA000CEF8E8E1EEF7EDEEE520E7EDE0F7E5ED71
:100EB000E8E5000000C6F3F0EDE0EB5CCFE5F0E51F
:100EC000E4E0F2F7E8EA00C6F3F0EDE0EB5CCFF027
:100ED000E8E5ECEDE8EA00D1EEF1F2EEFFEDE8E551
:100EE0003A00CF2564D12564CC256420CFC4256485
:100EF000CFCC2564C2DBD5256400C6F3F0EDE0EB72
:100F00005CC7E0F9E8F2E000D0E5E6E8EC3A00D1B1
:100F1000EEE1FBF2E8E5202D202564000000000052
:100F200000000000CDE5E8F1EFF020F7F22FE7E058
:100F3000EF20464C4153480000C2D720F2F0E0EACF
:100F4000F220E2EEF1F1F2E0EDEEE2EB2E00CDE583
:100F5000E8F1EFF020F7F22FE7E0EF20CFCBC8D198
:100F6000000000C0E2F2EEEAEEEDF2F0EEEBFC0083
:100F70000000000000000000D2EEEA20EFEEEAEEF2
:100F8000FF000000000000000000000000CDE5E8C8
:100F9000F1EFF020F7F22FE7E0EF203252414D0061
:100FA0000000CDE5E8F1EFF020F0E0E1EEF2FB200B
:100FB00044535000000000C2EEF1F1F2E0ED2DE5E7
:100FC00020F0E0E1EEF2FB2044535000CDE8E7EAE8
:100FD000EEE520EDE0EFF02E20E2FBF5EEE4E000A0
:100FE00000C2FBF1EEEAEEE520EDE0EFF02E20E2AC
:100FF000FBF5EEE4E000CDE0F0F3F8E5ED20EEE106
:10100000ECE5ED20F120D3CC000000CDE5E8F1EFD8
:10101000F0E0E2EDEEF1F2FC20F7E0F1EEE20000AC
:10102000CDE5F220E1EBEEEAE020C1D1C7000000FF
:101030000000000000CEF8E8E1EAE020E2E5F0F18F
:10104000E8E820C1D1C700000000CDE5E8F1EFF0ED
:1010500020EFE5F0E5EAEB2DE5E920C1D1C700CDB1
:10106000E5F220F1E8E3EDE0EBE020CCC0CD0000BC
:1010700000000000C2EAEB2EEFE8F22FCFE5F0E52A
:10108000E7E0EFF3F1EA000000C8E7ECE5EDE5ED9D
:10109000E8E520F0E5E6E8ECE00000000000CDE542
:1010A000E8F1EFF020E7E0EF2E20E2FBF52EF6E589
:1010B000EFE800CEF8E8E120EAEEEDF2F02E20E2D3
:1010C000FBF52EF6E5EFE800C0CA202D20D1EDE8B3
:1010D000E6E5EDE8E520E7E0EFE0F1E000C0CA205A
:1010E0002D20CDE5F220EEF2E2E5F2E00000000076
:1010F0000000CEF2F1F3F22DE520F1E8E3EDE0EBB4
:10110000E020CFF3F1EA00CEF2F1F3F22DE520F189
:10111000E8E3ED20CEF1F2E0EDEEE200C2FBEAEB17
:10112000FEF7E5EDE8E520E0EFEFE0F0E0F2E000CB
:1011300000CFEEECE5F5E020E220EBE8EDE8E8009A
:10114000000000000000CDE5E8F1EFF0E0E2EDEE98
:10115000F1F2FC20C4D4C700000000D3E43A20C060
:10116000CA202D20EDE5F220EEF2E2E5F2E00000EB
:10117000D3E43A20CFEEECE5F5E020E220EBE8ED19
:10118000E8E8000000D3E43A20CDE5E8F1EFF02EE6
:1011900020C4D4C7000000000000D3E43A20CDE50D
:1011A000E8F1EFF02E20F6E5EFE820E2FBF500CFC6
:1011B000EEF0EEE320EFEE20EFEEECE5F5E50000DB
:1011C00000000000D1EEE1FBF2E8E5202D202564CF
:1011D000000000000000000000D1EEE1FBF2E8E5B5
:1011E000202D202564000000000000000000D1EE4A
:1011F000E1FBF2E8E5202D2025640000000000005E
:10120000000000D1EEE1FBF2E8E5202D202564008E
:101210000000000000000000D1EEE1FBF2E8E52054
:101220002D202564000000000000000000D1EEE148
:10123000FBF2E8E5202D20256400000000000000FE
:101240000000D1EEE1FBF2E8E5202D2030000000A7
:1012500000000000000000C2EAEB2E20EFE8F2E000
:10126000EDE8FF2FEFE5F0E5E7E0EF00C2FBEAEB8A
:10127000FEF7E5EDE8E520EFE8F2E0EDE8FF00003D
:1012800000C8E7ECE5EDE5EDE8E520F0E5E6E8ECA3
:10129000E020F0E0E100C8E7ECE5EDE5EDE8E52071
:1012A000EFE0F0E0ECE5F2F0EEE200CDE5E8F1EFA2
:1012B000F020F2E5F1F2E020CFD0C4000000000001
:1012C000CDE5E8F1EFF020F2E5F1F2E020CFD0CC6F
:1012D0000000000000D1EEE1FBF2E8E5202D203710
:1012E00000000000000000000000CDE5E8F1EFF094
:1012F00020E1EBEEEAE020C1D1CA0000000000C806
:10130000E7ECE5EDE5EDE8E520E4E0F2E02FE2F0E2
:10131000E5ECFF00D1EEE1FBF2E8E5202D203130D5
:10132000000000000000000000D1EEE1FBF2E8E563
:10133000202D203131000000000000000000D1EE1F
:10134000E1FBF2E8E5202D20313200000000000032
:10135000000000C0E2E0F0E8FF20EFEE20440000D3
:101360000000000000000000CFF0E5E4F3EFF0E53E
:10137000E6E4E5EDE8E520EFEE20440000CDE5E809
:10138000F1EFF020F7F2E5EDE8FF20EAEEECE0ED1A
:10139000E400C2EEF1F1F2E0EDEEE2EBE5EDE8E5BE
:1013A00020440000000000CDE5E8F1EFF02E20F031
:1013B000E0E1EEF2FB20445350000000C2EEF1F1F8
:1013C000F2E0ED2DE520F0E0E1EEF2FB2044535099
:1013D00000CDE8E7EAEEE520EDE0EFF02E20E2FBBD
:1013E000F5EEE4E00000C2FBF1EEEAEEE520EDE010
:1013F000EFF02E20E2FBF5EEE4E000CDE5F220CAAE
:10140000D7203520F1E5EA20EDE02025530000004B
:10141000CDE5F220CAD720EDE020255300000000E2
:101420000000000000C2EEF1F1F2E0ED2DE520CA6F
:10143000D720EDE0202553000000C2EEF1F1F22E9E
:10144000F3F02E20CAD720EDE0202553000000CD78
:10145000E5E8F1EFF020F7F22FE7E0EF203252411C
:101460004D000000CDE5E8F1EFF020F7F22FE7E0C6
:10147000EF20CFCBC8D1000000CDE5E8F1EFF020A0
:10148000F7F22FE7E0EF20464C4153480000CDE54E
:10149000E8F1EFF0E0E2EDEEF1F2FC20F7E0F1EE42
:1014A000E20000D1EDE8E62EF3F02E20CAD720EDC1
:1014B000E020255300000000CEF8E8E1EAE020F04B
:1014C000E0E1EEF2FB20D6CF0000000000C2F5EE16
:1014D000E420525820D6CF20EFF3F1F200000000B4
:1014E0000000D0E0E1EEF2E020D6CF20E2EEF1F114
:1014F000F2E0EDEEE2EB00C2FBF1EEEAE0FF20F2FB
:10150000E5ECEFE5F0E0F2F3F0E00000CDE8E7EA2B
:10151000E0FF20F2E5ECEFE5F0E0F2F3F0E00000B0
:1015200000CDEEF0ECE0EB2E20F2E5ECEFE5F0E0A4
:10153000F2F3F0E00000CDE5E8F1EFF02EE4E0F2A8
:10154000F7E8EA20F2E5ECEFE5F000C8F1EFF0E0B3
:10155000E22EE4E0F2F7E8EA20F2E5ECEFE5F00055
:10156000D1EEE1FBF2E8E5202D202564000000002B
:101570000000000000C7C0D90000CFD0CC3100CFA0
:10158000D0CC3200CFD0C40000CEC1D90000CF31C2
:101590002C3200CED8C10000D1EEE1FBF2E8E5200C
:1015A0002D202564000000000000000000C2EAEBCE
:1015B0002E20EFE8F2E0EDE8FF2FEFE5F0E5E7E0C1
:1015C000EF00C2FBEAEBFEF7E5EDE8E520EFE8F21D
:1015D000E0EDE8FF000000C8E7ECE5EDE5EDE8E54B
:1015E00020F0E5E6E8ECE020F0E0E100D3E4E0EB19
:1015F000E5EDEDFBE920EDE5E8F1EFF0E0E2E5ED0A
:1016000000CDE5E8F1EFF020F2E5F1F2E020CFD0F7
:10161000C40000000000CDE5E8F1EFF020F2E5F1B4
:10162000F2E020CFD0CC0000000000CDE5E8F1EFE3
:10163000F020E1EBEEEAE020C1D1C700000000009D
:10164000CDE5E8F1EFF020E1EBEEEAE020C1D1CA10
:101650000000000000CDE5E8F1EFF020EFE5F0E557
:10166000EAEB2DE5E920C1D1C700CDE5F220F1E894
:10167000E3EDE0EBE020ECE0EDE8EFF3EB2E00CD66
:10168000E5E8F1EFF020E2FBF5EEE4EDEEE920F61F
:10169000E5EFE800CDE5F220D0C7203520F1E5EAFE
:1016A00020EDE0202553000000CEF2F1F3F22DE50D
:1016B00020F1E8E3EDE0EBE020CFF3F1EA00CEF239
:1016C000F1F3F22DE520F1E8E3EDE0EBE020D1F2DB
:1016D000EEEF00CDE5E8F1EFF020F7F2E5EDE8FF01
:1016E00020EAEEECE0EDE400D1EDE8E62E20F3F0A8
:1016F0002E20CAD720EDE0202553000000CDE5E8DC
:10170000F1EFF02E20F0E0E1EEF2FB204453500028
:101710000000C2EEF1F1F2E0ED2DE520F0E0E1EEA7
:10172000F2FB2044535000CDE8E7EAEEE520EDE07F
:10173000EFF02E20E2FBF5EEE4E00000C2FBF1EE5C
:10174000EAEEE520EDE0EFF02E20E2FBF5EEE4E03E
:1017500000CDE5F220CAD7203520F1E5EA20EDE002
:10176000202553000000CDE5F220CAD720EDE0206F
:101770002553000000000000000000C2EEF1F1F26D
:10178000E0ED2DE520CAD720EDE020255300000034
:10179000C2EEF1F1F22E20F3F02ECAD720EDE020B8
:1017A0002553000000CDE5E8F1EFF020F7F22FE738
:1017B000E0EF203252414D000000CDE5E8F1EFF0BE
:1017C00020F7F22FE7E0EF20CFCBC8D1000000CD0B
:1017D000E5E8F1EFF020F7F22FE7E0EF20464C418B
:1017E00053480000CDE5E8F1EFF0E0E2EDEEF1F274
:1017F000FC20F7E0F1EEE20000D1EDE8E62E20F368
:10180000F02E20D0C720EDE0202553000000C2EECE
:10181000F1F1F2E0ED2DE520D0C720EDE0202553D9
:10182000000000CDE5F220D0C720EDE020255300D8
:101830000000000000000000C2EEF1F1F22E20F3E3
:10184000F02ED0C720EDE0202553000000D1EEE1BE
:10185000FBF2E8E5202D20256400000000000000D8
:101860000000D1EEE1FBF2E8E5202D202564000028
:1018700000000000000000D1EEE1FBF2E8E5202DC1
:10188000202564000000000000000000D1EEE1FB14
:10189000F2E8E5202D202564000000000000000093
:1018A00000D1EEE1FBF2E8E5202D202564000000E8
:1018B000000000000000D1EEE1FBF2E8E5202D2061
:1018C0002564000000000000000000D1EEE1FBF202
:1018D000E8E5202D20256400000000000000000045
:1018E000CDE5E8F1EFF020F7F22FE7E0EF20464CEE
:1018F0004153480000CDE5E8F1EFF020F7F22FE783
:10190000E0EF203252414D000000CDE5E8F1EFF06C
:1019100020F7F22FE7E0EF20CFCBC8D1000000CABC
:10192000EEEBFCF6EE20EDE0F0F3F8E5EDEE000076
:1019300000000000CDE5E8F1EFF020F2E5F1F2E083
:1019400020CFD0C40000000000CDE5E8F1EFF0208A
:10195000E2FBEAEB2EF2E5F1F220CFD0C400CDE5B8
:10196000E8F1EFF020F2E5F1F2E020CFD0CC00007A
:10197000000000CDE5E8F1EFF020F7F22EEAEEEC02
:10198000E0EDE420C1D1CA00CDE5F220E1EBEEEAC2
:10199000E020C1D1CA0000000000000000CEF8E83D
:1019A000E1EAE020E2E5F0F1E8E820C1D1CA000078
:1019B0000000CEF2EAE0E720F0E5E7E5F0E22E20D5
:1019C000EBE8EDE8E80000CDE5E8F1EFF0E0E2ED6E
:1019D000EEF1F2FC20F7E0F1EEE20000CAEEEBFCE3
:1019E000F6EE20E2EEF1F1F2E0EDEEE2EBE5EDEE07
:1019F00000C4E8F1F2E0EDF6E8EEEDEDFBE920F1F0
:101A0000E1F0EEF10000CAEEECE0EDE4E020EDE5FF
:101A100020E2E5F0EDF3EBE0F1FC00CDE5F220F1A2
:101A2000E8E3EDE0EBE020CCC0CD000000000000DA
:101A3000C2EAEB2EEFE8F22FCFE5F0E5E7E0EFF3B7
:101A4000F1EA000000C8E7ECE5EDE5EDE8E520F09F
:101A5000E5E6E8ECE00000000000CDE5E8F1EFF09D
:101A600020F6E5EFE820E2FBF52E0000000000C2C2
:101A7000EEF1F1F2E0ED2DE520CAD120EDE020CF2E
:101A8000D0CC0000C2EEF1F1F2E0ED2DE520CAD19C
:101A900020C1D6CA3100000000C2EEF1F1F2E0ED43
:101AA0002DE520CAD120C1D6CA3200000000CDE504
:101AB000F220CAD120C1D6CA3100000000000000C7
:101AC000000000CDE5F220CAD120C1D6CA32000004
:101AD0000000000000000000C2FBEAEBFEF7E5EDAD
:101AE000E8E520EFE8F2E0EDE8FF000000CDE5F2E8
:101AF00020CAD1000000000000000000000000002B
:101B00000000CDE5F220CAD1203520F1E5EAF3ED61
:101B1000E4000000000000D3E43A20EFEEF1F220F0
:101B2000EDE5E8F1EFF0E0E2E5ED0000D3E43A2086
:101B3000CFD0C420EDE5E8F1EFF0E0E2E5ED000004
:101B400000D3E43A20CFD0CC20EDE5E8F1EFF0E08F
:101B5000E2E5ED000000C8E7ECE5EDE5EDE8E520A5
:101B6000E4E0F2E02FE2F0E5ECFF00C8E7ECE5EDA1
:101B7000E5EDE8E520EFE0F0E0ECE5F2F0EEE20084
:101B8000D1EEE1FBF2E8E5202D2025640000000005
:101B90000000000000D1EEE1FBF2E8E5202D202559
:101BA00064000000000000000000D1EEE1FBF2E85C
:101BB000E5202D202564000000000000000000D179
:101BC000EEE1FBF2E8E5202D202564000000000096
:101BD00000000000D1EEE1FBF2E8E5202D202564B5
:101BE000000000000000000000D1EEE1FBF2E8E59B
:101BF000202D202564000000000000000000D1EE30
:101C0000E1FBF2E8E5202D20256400000000000043
:101C1000000000CDE5E8F1EFF020F7F22FE7E0EF6C
:101C200020464C4153480000CDE5E8F1EFF020F7A5
:101C3000F22FE7E0EF203252414D000000CDE5E801
:101C4000F1EFF020F7F22FE7E0EF20CFCBC8D10083
:101C50000000D1EEE1FBF2E8E5202D202564000034
:101C600000000000000000CDE5E8F1EFF020F2E513
:101C7000F1F2E020CFD0C40000000000CDE5E8F193
:101C8000EFF020E2FBEAEB2EF2E5F1F220CFD0C438
:101C900000CDE5E8F1EFF020F2E5F1F2E020CFD061
:101CA000CC0000000000CDE5E8F1EFF020F7F22EC7
:101CB000EAEEECE0EDE420C1D1CA00CDE5F220E18E
:101CC000EBEEEAE020C1D1CA0000000000000000F5
:101CD000CEF8E8E1EAE020E2E5F0F1E8E820C1D161
:101CE000CA00000000CEF2EAE0E720F0E5E7E5F008
:101CF000E22E20EBE8EDE8E80000CDE5E8F1EFF0BA
:101D0000E0E2EDEEF1F2FC20F7E0F1EEE20000CDD2
:101D1000E5F220E1EBEEEAE020C1D1C700000000CF
:101D200000000000CEF8E8E1EAE020E2E5F0F1E8AA
:101D3000E820C1D1C700000000CDE5E8F1EFF020B8
:101D4000EFE5F0E5EAEB2DE5E920C1D1C700CDE5EF
:101D5000F220F1E8E3EDE0EBE020CCC0CD000000A4
:101D6000000000C2EAEB2EEFE8F22FCFE5F0E5E746
:101D7000E0EFF3F1EA000000C8E7ECE5EDE5EDE89F
:101D8000E520F0E5E6E8ECE00000000000CDE5E845
:101D9000F1EFF020F6E5EFE820E2FBF52E00000081
:101DA0000000C2EEF1F1F2E0ED2DE520CAD120ED08
:101DB000E020CFD0CC0000CEF8E8E1EAE020F0E06F
:101DC000E1EEF2FB20D6CF0000000000C2EEF1F100
:101DD000F2E0ED2DE520F0E0E1EEF2FB20D6CF00C1
:101DE00000CEF2F1F3F22DE520F1E8E3EDE0EBE0D7
:101DF00020CFF3F1EA00CEF2F1F3F22DE520F1E885
:101E0000E3ED20CEF1F2E0EDEEE200C2FBEAEBFE04
:101E1000F7E5EDE8E520EFE8F2E0EDE8FF0000008F
:101E2000CDE5F220CAD10000000000000000000053
:101E30000000000000CDE5F220CAD1203520F1E5F8
:101E4000EAF3EDE4000000000000D3E43A20EFEEF6
:101E5000F1F220EDE5E8F1EFF0E0E2E5ED0000D38E
:101E6000E43A20CFD0C420EDE5E8F1EFF0E0E2E580
:101E7000ED000000D3E43A20CFD0CC20EDE5E8F12E
:101E8000EFF0E0E2E5ED000000C8E7ECE5EDE5EDA0
:101E9000E8E520E4E0F2E02FE2F0E5ECFF00C8E73F
:101EA000ECE5EDE5EDE8E520EFE0F0E0ECE5F2F063
:101EB000EEE200D1EEE1FBF2E8E5202D2025640002
:101EC0000000000000000000D1EEE1FBF2E8E52098
:101ED0002D202564000000000000000000D1EEE18C
:101EE000FBF2E8E5202D2025640000000000000042
:101EF0000000D1EEE1FBF2E8E5202D202564000092
:101F000000000000000000D1EEE1FBF2E8E5202D2A
:101F1000202564000000000000000000D1EEE1FB7D
:101F2000F2E8E5202D2025640000000000000000FC
:101F300000C6F3F0EDE0EB5CD1EEE1FBF2E8FF0070
:101F400025642E20CFE5F0E5E4E0F2F7E8EA00258D
:101F5000642E20CFF0E8E5ECEDE8EA0025642E20C1
:101F6000C7E0F9E8F2E00025642E20D1EEE1FBF2B3
:101F7000E8FF00CCE5EDFE5CC6F3F0EDE0EB00C160
:101F8000D1CF20CCCA202000C1D1CF20D6D1CF20A4
:101F900000D6D1CF20CFCBC8D100CFC82020CCCA0B
:101FA000202000C1D1CA20CFD0C43100C1D1CA2065
:101FB000CFD0C43200C1D1CA20CFD0CC3100C1D1E2
:101FC000CA20CFD0CC3200C1D1C720CFCBC8D100DE
:101FD000EEF8E8E1EAE000000025533A202530322F
:101FE000582E2530325800CCE5EDFE5CC8EDF4EEFD
:101FF000F0ECE0F6E8FF0025642E20C8E7ECE5F001
:10200000E5EDE8FF0025642E20C8EDF4EEF0ECE0ED
:10201000F6E8FF0025642E20D2E5F1F2FB002564EE
:102020002E20CDE0F1F2F0EEE9EAE00025642E206A
:10203000D3EFF0E0E2EBE5EDE8E50025642E20C605
:10204000F3F0EDE0EB00CCE5EDFE00C0C2C0CDD278
:1020500020D03430300000CFC2C72D39300000000E
:10206000000000C0C2C7CA2D38300000000000CFF9
:10207000C2C7D32DC5000000000000CFC2C7CB00EF
:1020800000000000000000CBC8CDC8DF2DD000004C
:10209000000000CFC2C7CA0000000000000000C05E
:1020A000CA2DEEF8E8E10000C0CA2DEDEEF0EC001C
:1020B00000C0CA2DEDEEF0EC0000C0CA2DF3F1EA2D
:1020C000EEF000C0CA2DE2FBEAEB0000C0CA2DE131
:1020D000E5E3EB0000C0CA2DE8F1EFFBF200C0CA57
:1020E0002DEFF3F1EA0000C0CA2DEEE4EDEEF100B1
:1020F000C0CA2DEEF8E8E10000C0CA2DE0E2F2EE21
:102100000000C0CA2DEFF0EEE20000D1EEE2ECE5F7
:10211000F1F2E8EC2E20255300253032643A2530C8
:1021200032643A253032640020202020C8EDE8F6E1
:10213000E8E0EBE8E7E0F6E8FF20202000202020A0
:10214000EDE520EEEFF0E5E4E5EBE5ED21212120E2
:10215000200020202020D2E8EF20E0EFEFE0F0E0A8
:10216000F2E02020202000CFF0E5E4F3EFF0E5E6F8
:10217000E4E5EDE8E500CDE5E8F1EFF0E0E2EDEED5
:10218000F1F2FC00CDE5F220CAD100CFD0C420CAC4
:10219000D12530317500CDE5F220CAD100CFD0CCA9
:1021A00020CAD12530317500CDE5F220CAD100CD4D
:1021B000E5E8F1EFF02EF7F22E20464C41534800AF
:1021C000CDE5E8F1EFF02EE7E0EF2E464C41534825
:1021D00000CDE5E8F1EFF02EF7F22E20504C4953F8
:1021E00000CDE5E8F1EFF02EE7E0EF2E504C49533B
:1021F00000CDE5E8F1EFF02EE7E0EF2E3252414D51
:1022000000CDE5E8F1EFF02EF7F22E203252414DED
:102210002000D3F1F2E0EDEEE2E8F2E520F7E0F1A4
:10222000FB00CEF2EAE0E720F0E5E7E5F0E22EEB96
:10223000E8ED00CAEEEC2EEDE520E2E5F0EDF3EB83
:10224000E0F1FC00CAEEEBFCF6EE20EDE0F0F3F876
:10225000E5EDEE00CAEEEBFCF6EE203120EDE0F00D
:10226000F3F82E00CAEEEBFCF6EE203220EDE0F0A3
:10227000F3F82E00D3E4E0EB2ECFCED1D220EDE563
:10228000E8F1EFF000D3E4E0EB2ECFD0C420EDE591
:10229000E8F1EFF000D3E4E0EB2ECFD0CC20EDE579
:1022A000E8F1EFF000CDE5F220CAD120EDE020C149
:1022B000D6CA3100CDE5F220CAD120EDE020C1D64A
:1022C000CA3200CEF8E8E1EAE020F0E0E1EEF2FB0D
:1022D00020D6CF00CDE5F220E1EBEEEAE020C1D13F
:1022E000C700CDE5E8F1EFF02EE2E5F0F12EC1D127
:1022F000C700CDE5E8F1EFF02EEFE5F0E5EAEB2ED3
:1023000000CDE5F220CAD100CDE5E8F1EFF02EE2F4
:10231000F5EEE42ECFD3D1CA00CDE5E8F1EFF02EF3
:10232000E2F5EEE42ED1D2CECF00CDE5E8F1EFF02C
:102330002EF6E5EFFC20C2DBD500CDE5E8F1EFF0AD
:102340002EE7E0EF2E20C2DBD500CDE5F220CAD18A
:1023500000CDE5F220F1E8E3EDE0EBE020CCC0CDEC
:1023600000CDE5F220E1EBEEEAE020C1D1CA00CDDC
:10237000E5E8F1EFF02EE2E5F0F12E20C1D1CA0040
:10238000CDE5F220CAD100CDE5E8F1EFF02EE7E08F
:10239000EF2E20C1D1CA00CDE5E8F1EFF02EE2FB2F
:1023A000EAEB2EEAEEEC2E00CDE5E8F1EFF02EE2BE
:1023B000EAEB2E20EAEEEC2E00CDE5E8F1EFF02E70
:1023C000EAEEEDF2F02EEAEEEC00CDE5F220CAD115
:1023D00000CDE5F220E1EBEEEAE020C1D1CA00CD6C
:1023E000E5E8F1EFF02EE2E5F0F12E20C1D1CA00D0
:1023F000CDE5E8F1EFF02EF7F22EEAEEECE0EDE4B9
:1024000000CDE5E8F1EFF02EE2FBEAEB2ED2E5F1AC
:10241000F200CDE5E8F1EFF02EE2EAEB2E20D2E576
:10242000F1F200CDE5E8F1EFF02EE2F5EEE42E203A
:10243000EAEEEC00CDE5F220D0C700CFD0C420CA30
:10244000D72530317500CDE5F220CAD700CFD0CCEA
:1024500020CAD72530317500CDE5F220CAD700C09B
:10246000CA2DCDE5F220EEF2E2E5F2E000C0CA2D81
:10247000D1EDE8E6E5ED2EE7E0EFE0F1E000CFEEAC
:10248000ECE5F5E020E220EBE8EDE8E800CDE5E85A
:10249000F1EFF02E445350203252414D2000D2EE45
:1024A000EA20EFEEEAEEFF00CDE8E7EAEEE520ED08
:1024B000E0EFF02EE2FBF500C2FBF1EEEAEEE520E4
:1024C000EDE0EFF02EE2FBF500CDE5E8F1EFF02EC8
:1024D00020CCCA20D3CC00C2D720F2F0E0EAF22010
:1024E000E2EEF1F1F22E00C0CA2DCDE5F220EEF2BF
:1024F000E2E5F2E0255300CDE5E8F1EFF02EF3E45C
:102500002EC4D4C7255300CDE5E8F1EFF02EF3E457
:102510002EC2DBD5255300D3E4E0EB2EE1E5E72026
:10252000EEF2E22E255300D3E4E0EB2EEEE1ED2EA9
:10253000EFEEEC2E255300CFEEECE5F5E020E220A7
:10254000EBE8EDE8E800CDE5E8F1EFF02E20C4D4AB
:10255000C700C0CA2DD1ED2EE7E0EFE0F1E0202565
:102560005300CFEEF0EEE320EFEE20EFEEECE5F5DA
:10257000E500C0E2F2EEEAEEEDF2F0EEEBFC00CDAB
:10258000E5F220F1E8E3EDE0EBE020D0C700D3E492
:10259000E0EB2E20EDE5E8F1EFF0E0E2E5ED00CD37
:1025A000E8E7EAE8E920F3F0EEE22E20D0C700CD1C
:1025B000E5F220CAD700D1EDE8E62E20F3F0EEE2F6
:1025C000EDFF20CFD0CC00CEF8E8E1EAE020F0E04B
:1025D000E1EEF2FB20D6CF00C2F5EEE42052582007
:1025E000D6CF20EFF3F1F200C2FBF1EEEAE0FF20DC
:1025F000F2E5ECEFE5F0E0F200CDE8E7EAE0FF20FD
:10260000F2E5ECEFE5F0E0F200CDE5E8F1EFF02ED9
:1026100020E4E0F22EF2E5ECEF00CDE8E7EAE8E9AD
:1026200020F3F0EEE2E5EDFC204400CEF8E8E1EA2C
:10263000E020F0E0E1EEF2FB20D6CF00C2F5EEE4C0
:1026400020525820D6CF20EFF3F1F200CDE8E7EA90
:10265000E8E920F3F0EEE2E5EDFC20440020CDE5D2
:10266000F220F1E2FFE7E820F120C1D1CF212121C2
:102670002000C8F1F5EEE4ED2E00CAEEEDF2F0EE2A
:10268000EBFC00CFF3F1EA00CEF1F2E0EDEEE20078
:10269000CDE5E8F1EFF02E00CF2EEDE5E8F1EFF01B
:1026A00000CEE6E8E4E0EDE8E500CDE0EB2EEFF368
:1026B000F1EA00D3E42EEFF3F1EA00D0E5F7FC00F5
:1026C000CFD0C400CFD0CC00D3EFF02E20D2CC009E
:1026D000CEF8E8E1EAE000C8F1F5EEE4ED2E00CF37
:1026E000D0CC20CFC02530327500CDE5E8F1EFF039
:1026F0002E00CF2EEDE5E8F1EFF000CEE6E8E4E0C5
:10270000EDE8E500C1CBCA20CACC25303275003FC8
:10271000307830383F003F307830393F00D0E5F72F
:10272000FC00CFD0C400CFD0CC00D3EFF02E20D20D
:10273000CC00C8F1F5EEE4ED2E00CFD0C420CFC020
:102740002530327500CDE5E8F1EFF02E00CF2EED0B
:10275000E5E8F1EFF000CEE6E8E4E0EDE8E5003F83
:10276000307830373F00CFD0C420D6CF25303275F7
:1027700000D1E8F1F2E5EC2E00D0E5F7FC00CFD077
:10278000C400CFD0CC00D3EFF02E20D2CC005A28FA
:102790008128A828CF28F6281D2944296B299229A9
:1027A000B929E029072A2E2A552A7C2AA32ACA2ACF
:1027B000F12A182B3F2B662B8D2BB42BDB2B022CF5
:1027C000292C502C772C9E2CC52CEC2C132D3A2D1B
:1027D000612D882DAF2DD62DFD2D242E4B2E722E42
:1027E000992EC02EE72E0E2F352F5C2F832FAA2F68
:1027F000D12FF82F1F3046306D309430BB30E2308F
:102800000931303157317E31A531CC31F3311A32B3
:10281000413268328F32B632DD3204332B335233D9
:102820007933A033C733EE3315343C3463348A3400
:10283000B134D834FF3426354D3574359B35C23527
:10284000E935103637365E368536CFD0C400CFD066
:10285000CC00C7C0D900CDC5D200000000000000E8
:102860000000000000000000000000000000000068
:1028700000010083030100000100010100010000CC
:1028800001D1E8EDF5F0EEEDE8E7E0F6E8FF20F73E
:10289000E0F1EEE2000035010100AC36010000027B
:1028A0000001010201000001CDEEECE5F020E0EFB7
:1028B000EFE0F0E0F2E0000000000000003B020268
:1028C000008303010100030001010101020001CDA9
:1028D000EEECE5F020E0EFEFE0F0E0F2E0000000E9
:1028E000000000003B0202008303010100FF000121
:1028F000010101000001CAEEEDF2F0EEEBFC20E276
:10290000FBF52EF1E8E3EDE0EBE0003D010100AC6A
:1029100036010000020001010101000001CFEEF0CC
:10292000EEE320EFF0E5E4F3EFF0E5E6E4E5EDE8D3
:10293000FF003C02020983030100001600010103AD
:1029400001000001CFEEF0EEE320EFF0E5E4F3EF5D
:10295000F02E20EFEE20CA43003C0202098303015F
:102960000000160001010301000001C2F0E5ECFFC8
:1029700020EFE5F0E5E7E0EFF3F1EAE0000000002A
:102980003902020783030100000500010101010073
:102990000001D3E4E5F0E62E20F0E5EBE520EAEED9
:1029A000EC2E20CFD0C40037010100AC360100006E
:1029B000020001010201000001D3E4E5F0E62E204F
:1029C000F0E5EBE520EAEEEC2E20CFD0CC0036018E
:1029D0000100AC360100000200010101010000010C
:1029E000C7E0E3F0F3E1EB2E20F7F3E2F1F2E22EA1
:1029F00020CFD0CC003C0202098303020000160065
:102A000001010302000101D1E5F2E5E2EEE920E077
:102A1000E4F0E5F1000000000000000038020200D0
:102A20008303010100F7000101010100000055E2EC
:102A3000FBF520EDEEECE8EDE0EBFCEDEEE5000063
:102A4000000000360202048303011200320001017B
:102A50000101000001D7E0F1F2EEF2E00000000019
:102A6000000000000000000000003A02030B830396
:102A7000011000E80301010401000001D1EEE2ECC5
:102A8000E5F1F2E8ECEEF1F2FC00000000000000DD
:102A900000370100004B2001000007000101020186
:102AA000000001D1EDE8E6E5EDE8E520EEF2E2E533
:102AB000F2E020C0CA0000003902020983030100CD
:102AC00000140001010301000001D2E8EF20E4E559
:102AD000F2E5EAF2EEF0E000000000000000003550
:102AE0000202008303010100030001010202000051
:102AF00001CAEEF0F0E5EAF6E8FF20EDE0EFF0FFC6
:102B0000E6E5EDE8FF0033030404830301A8FD5864
:102B10000201010701000000CAEEF0F0E5EAF6E864
:102B2000FF20F2EEEAE000000000000000330405A0
:102B30000183030119FCE70301010802000000CF33
:102B4000F0EEF2EEEAEEEB20EEE1ECE5EDE0000077
:102B50000000000039010000C4360101000200013C
:102B6000010301000001CFF0E8E7EDE0EA20F7E51E
:102B7000F2EDEEF1F2E8000000000039010000DCA7
:102B800036010100020001010302000001C4EEEF62
:102B9000F3F1F2E8ECFBE520EFF0EEE2E0EBFB0016
:102BA00000003902020C83030100005000020103FF
:102BB00003000001CFEEF0EEE320EFEE20EFEEECAD
:102BC000E5F5E5000000000000390202078303017B
:102BD0000000FF0001010304000001C4EEEFF3F167
:102BE000F2E8ECE0FF20EFEEECE5F5E0000000009D
:102BF0003902020C83030114005000140103050084
:102C00000001D2E8EF20E0E2F2EEEAEEEDF2F0EEC3
:102C1000EBFF000000000039010000F43601010064
:102C2000030001010306000001CFE5F0E8EEE42017
:102C3000E1E5E3EBEEE3EE20C0CA0000000039025C
:102C400002078303010100FF0001010307000001E7
:102C5000CFE5F0E8EEE420EFEEE2F22EE1E5E3EB83
:102C60002E20C0CA00390202078303010100FF00C1
:102C700001010308000001D0E5E7E5F0E2E8F0EE2D
:102C8000E2E0EDE8E5000000000000003301010093
:102C9000AC36010000020001010301000001D1EE89
:102CA000E2ECE5F1F2E8ECEEF1F2FC0000000000ED
:102CB0000000003701000018370100000B0001017F
:102CC0000202000001D2E8EF20EBE8EDE8E80000A6
:102CD00000000000000000000000020100009C371E
:102CE000010100020001010101000001D2E5EBE554
:102CF000ECE5F5E0EDE8EAE000000000000000008F
:102D00000037010100AC360100000200010102039E
:102D1000000001CFEEF0EEE320EFF0E5E4F3EFF09A
:102D20002E20EFEE2044000037020209830301C089
:102D3000FF400001010204000001CFEEF0EEE320AD
:102D4000E0E2E0F0E8E820EFEE2044000000003789
:102D5000020209830301C0FF4000010102050000D7
:102D600001CAEEEDF2F0EEEBFC20F2E5ECEFE5F05F
:102D7000E0F2F3F0FB0037010100AC360100000285
:102D80000001010206000001C2E5F0F52EE7EDE0CA
:102D9000F7E5EDE8E520F2E5ECEFE5F000370202BB
:102DA0000C8303010000640001010207000001CD53
:102DB000E8E6ED2EE7EDE0F7E5EDE8E520F2E5ECFD
:102DC000EFE5F0003702020C83030100006400010C
:102DD000010208000001D1EAEEF0EEF1F2FC20D28F
:102DE000CC0000000000000000000037010000B42B
:102DF00037010000020001010209000001D2E8EFE2
:102E000020E7E0F9E8F2FB0000000000000000000D
:102E1000000001010000CC370100000800010101A1
:102E200001000001C4EEEF2E20E2F0E5ECFF20E10E
:102E3000E5E720ECE0ED2E00000302020883030129
:102E40000000630001010101000001CFE5F0E5EAA7
:102E5000F0FBF2E8E520E8ECEFF3EBFCF1EEE2004A
:102E60000502020C8303010000360002010101008B
:102E70000001CFE5F0E5EAF0FBF2E8E520E8ECEF51
:102E8000F3EBFCF1EEE2000502020C8303011200F9
:102E9000360002010101000001CFE5F0E5EAF0FB98
:102EA000F2E8E520E8ECEFF3EBFCF1EEE2000502DE
:102EB000020C830301000036000101010100000142
:102EC000CAEEECEFE5EDF1E0F6E8FF20E7E0E4E53F
:102ED000F0E6EAE8000402020C830302000012009C
:102EE00002010201000101CAEEECEFE5EDF1E0F6AE
:102EF000E8FF20E7E0E4E5F0E6EAE8000402020C7F
:102F00008303020000120001010201000101CFEE63
:102F1000F0EEE320EFF0E5E4F3EFF02E20EFEE200B
:102F2000D0C700090202098303010000100001015B
:102F30000101000001C7E0E3F0F3E1EBE5EDE8E5B6
:102F400020F7F3E2F1F2E2E8F2000602020983035D
:102F5000010000200001010101000001C7E0E3F0D1
:102F6000F3E1EB2E20F7F3E2F1F2E22E20D0C700DE
:102F70000006020209830302000020000101030190
:102F8000000101D2E8EF20EFF0E8E5ECEDE8EAE03F
:102F90000000000000000000070100002C380100C4
:102FA00000030001010101000001D1EDE8E6E5EDBB
:102FB000E8E520F3F0EEE2EDFF20C0CA00000007D4
:102FC000010100AC36010000020001010101000016
:102FD00001D7E0F1F2EEF2E020CFD0C40000000013
:102FE000000000000000080100005038010000054A
:102FF0000001010101000001D7E0F1F2EEF2E02052
:10300000CFD0CC000000000000000000000901004B
:10301000005038010000050001010101000001D14C
:10302000E4E2E8E320EFE5F02EF4F0EEEDF2E0204C
:10303000CFD0C4000502020C8303010000FF000191
:10304000010201000001D1E4E2E8E320E7E0E42E20
:10305000F4F0EEEDF2E020CFD0C4000502020C83C4
:1030600003010000FF0001010202000001D1E4E2BF
:10307000E8E320CFD0CC00000000000000000000FA
:1030800000000502020C8303010000FF00010102A1
:1030900003000001D1E4E2E8E320C2D720CFD0C48E
:1030A00020EEF220CFD3D1CA000502020C83030127
:1030B0000000FF0001010204000001CEE3F0E0ED9A
:1030C000E8F72E20EFEEEBEEF1FB20CFD0C40000AE
:1030D0000B010100AC3601000002000101020100F9
:1030E0000001C7E0E4E5F0E6EAE020E2FBEAEB2ECF
:1030F00020CFD0CC0000000B02020C8303010000A3
:10310000FF0001010202000001C7E0E4E5F0E6EA89
:10311000E020E2EAEB2E20CFD0CC000000000B0232
:10312000020C8303010000FF000101020300000103
:10313000C7E0E4E5F0E6EAE020E2EAEB2E20CFD0BB
:10314000C4000000000B02020C8303010000FF001A
:1031500001010204000001CCE8ED2E20E4EBE8F2CE
:103160002E20CFD0C4000000000000000B02020C93
:103170008303010000FF0001010205000001C7E018
:10318000E4E5F0E6EAE020F1F0E0E1E0F22E20CF25
:10319000D0C40021020206830301000014000101D3
:1031A0000101000001C4EBE8F2E5EBFCEDEEF1F209
:1031B000FC20EAEEECE0EDE4FB00220202068303D1
:1031C000011E00640001010101000001C4EBE8F2EE
:1031D000E5EBFCEDEEF1F2FC20EAEEECE0EDE4FBD9
:1031E00000220202068303011E00F4010A0A010103
:1031F000000001D2E5F1F2EEE2E0FF20EAEEECE0C1
:10320000EDE4E0000000000026010100AC36010002
:1032100000020001010101000001D1EBE5E4FFF92A
:10322000E8E520EAEEECE0EDE4FB0000000000251C
:10323000050100AC3620000002000101050100027A
:1032400001C1EBEEEAE8F0EEE22E20EAEEECE0ED72
:10325000E4FB0000000024050100AC362000000261
:103260000001010501000201D2F0E0EDF1EBFFF6F3
:10327000E8FF20D6CF000000000000000027010179
:1032800000AC36010000020001010101000001C193
:10329000EBEEEAE8F0EEE22E20EAEEECE0EDE4FB05
:1032A00020D6CF0028050100AC3620000002000126
:1032B000010501000201CAEEEBE8F7E5F1F2E2EEEA
:1032C00020EAEEECE0EDE4000000002C02020083B6
:1032D00003010400200004040101000001CAEEEB18
:1032E000E8F7E5F1F2E2EE20EAEEECE0EDE420C0F2
:1032F00000002902020083030100002000010101F7
:1033000001010001CAEEF0F0E5EAF6E8FF20F7E07F
:10331000F1F2EEF2FB000000002302020A83030137
:103320009CFF640001010101000001D1EDE8E6E528
:10333000EDE8E520F3F0EEE2EDFF20CAD100000059
:103340002D020209830301000014000101030100A2
:103350000001D1EDE8E6E5EDE8E520F3F0EEE2ED81
:10336000FF20D2CC0000002D0202098303010000DF
:10337000140001010302000001CAD120EFEE20F386
:10338000ECEEEBF7E0EDE8FE0000000000002D01A0
:1033900000008C380100000200010103030000015D
:1033A000C7E0E4E5F0E6EAE020EDE020F4E8EAF149
:1033B0002EEAEEEC00110202068303010000050074
:1033C00001010101000001C7E0E4E5F0E6EAE020C8
:1033D000EDE020F4E8EAF12EEAEEEC00110202063C
:1033E00083030100000A0001010101000001C1EB9B
:1033F000EEEAE8F0EEE22E20EAEEECE0EDE4FB008F
:1034000000000014050100AC36200000020001019C
:103410000501000301C7E0E4E5F0E6EAE020EDE0A5
:1034200020E2FBEAEB2EEAEEEC0013020206830335
:10343000200000E803320A0301000301D2F0E0EDAE
:10344000F1EBFFF6E8FF20D6CF00000000000000FF
:103450000017010100AC360100000200010101016A
:10346000000001C1EBEEEAE8F0EEE22E20EAEEEC1D
:10347000E0EDE4FB20D6CF0018050100AC362000BB
:1034800000020001010501000301CAEEECE0EDE4D9
:10349000E020CFD0CC20E220D6CF000000000019E1
:1034A0000202008303200100200001010301000348
:1034B00001CAEEEBE8F7E5F1F2E2EE20EAEEECE02D
:1034C000EDE4000000001C02020083030104002060
:1034D0000004040101000001CFF0E8E5EC20F2E572
:1034E000F1F2EEE2EEE920EAEEEC2E00001201012C
:1034F00000AC36010000020001010101000001CA18
:10350000EEF0F0E5EAF6E8FF20F7E0F1F2EEF2FB8C
:10351000000000001502020A8303019CFF64000101
:10352000010101000001C8EDF2E5F0F4E5E9F12048
:10353000F1E2FFE7E800000000000000010000A445
:1035400038010000020001010001000000CFF0EE90
:10355000F2EEEAEEEB0000000000000000000000C8
:10356000000000010000BC38010000030001010060
:1035700001000000D1EAEEF0EEF1F2FC20EFE5F000
:10358000E5E4E0F7E80000000000010000E0380199
:103590000000060001010001000000C1E8F2FB206C
:1035A000E4E0EDEDFBF5000000000000000000008D
:1035B00000010000283901000001000101000100A4
:1035C0000000D7E5F2EDEEF1F2FC00000000000093
:1035D000000000000000000001000034390100007C
:1035E000030001010001000000D1F2EEEFEEE2FB6A
:1035F000E520E1E8F2FB000000000000000000010F
:103600000000583901000002000101000100000023
:10361000C2F0E5ECFF20EEE6E8E4E0EDE8FF20EAAA
:10362000EEEC2E0000370202068303010000FF00CB
:103630000101020A000001D2F0E0EDE7E8F2EDFB43
:10364000E520EAEEECE0EDE4FB00000037050100C8
:10365000AC3660000002000101060B000001CFE55E
:10366000F0E5EDE0E7EDE0F7E5EDE8E520CFD0CCE3
:103670000000001B01000070392000006100010102
:103680000301000301CFE5F0E5EDE0E7EDE0F7E54C
:10369000EDE8E520CFD0C40000002B010000703918
:1036A000200000610001010301000301E2FBEAEBDD
:1036B0002E00000000000000E2EAEB2E00000000F7
:1036C00000000000E1FBF1F2F0FBE9000000000067
:1036D000ECE5E4EBE5EDEDFBE9000000E2EAEB2EC2
:1036E0000000000000000000E2FBEAEB2E000000FA
:1036F00000000000F2F0E5E2EEE6EDFBE90000007C
:10370000EDEEF0ECE0EBFCEDFBE90000F1EFEEEAB2
:10371000EEE9EDFBE9000000C0C2C0CDD200000020
:1037200000000000C0C2C0CDD220CFD0C400000035
:10373000C0C2C0CDD220CFD0CC000000C0CACFC004
:1037400020CFD0C400000000C0CACFC020CFD0CC52
:1037500000000000CAC5C4D020CFD0C400000000C3
:10376000CAC5C4D020CFD0CC00000000D3CFCA2D12
:10377000D620CFD0C4000000D3CFCA2DD620CFD0C2
:10378000CC000000C2D7D2CE20CFD0C400000000B1
:10379000C2D7D2CE20CFD0CC000000003220EAEE3B
:1037A000EDF6E5E2E0FF00003320EAEEEDF6E5E2BB
:1037B000E0FF000032303000000000000000000098
:1037C000343030000000000000000000C4D4C72DD9
:1037D000CFF0CFE400000000C4D4C72DCCCA310024
:1037E00000000000C4D4C72DCCCA32000000000085
:1037F000C4D4C72D4C36300000000000CDC72DCFFB
:10380000F0CFE40000000000CDC72DCCCA000000BE
:1038100000000000CFCFC72DCFF0CFE400000000A4
:10382000CFCFC72DCCCA000000000000E0EAF22B89
:10383000EFE0F1F100000000E0EAF2E8E2EDFBE980
:1038400000000000EFE0F1F1E8E2EDFBE90000002C
:103850002D31303030C3F600000000002D353030FF
:10386000C3F600000000000030C3F60000000000B6
:10387000000000002B353030C3F6000000000000CF
:103880002B31303030C3F60000000000CAD13100C7
:103890000000000000000000CAD13200000000005B
:1038A000000000005553420000000000000000002E
:1038B000525334383500000000000000D1D2C0CD92
:1038C000C4C0D0D2000000004D4F44425553000008
:1038D00000000000CCDDCA2D3130310000000000B6
:1038E000363030000000000000000000313230307F
:1038F0000000000000000000323430300000000002
:1039000000000000343830300000000000000000EB
:10391000393630300000000000000000313932300C
:10392000300000000000000038000000000000002F
:1039300000000000EDE5F2000000000000000000C3
:10394000F7E5F2000000000000000000EDE5F7E5FB
:10395000F200000000000000310000000000000044
:103960000000000032000000000000000000000025
:1039700030000000000000000000000031410000A5
:1039800000000000000000003241000000000000C4
:1039900000000000334100000000000000000000B3
:1039A000344100000000000000000000354100002C
:1039B0000000000000000000364100000000000090
:1039C000000000003741000000000000000000007F
:1039D00038410000000000000000000039410000F4
:1039E0000000000000000000313041000000000035
:1039F0000000000031314100000000000000000024
:103A0000313241000000000000000000313341006D
:103A10000000000000000000313441000000000000
:103A200000000000313541000000000000000000EF
:103A30003136410000000000000000003137410035
:103A400000000000000000003138410000000000CC
:103A500000000000313941000000000000000000BB
:103A6000323041000000000000000000323141000F
:103A700000000000000000003232410000000000A1
:103A80000000000032334100000000000000000090
:103A900032344100000000000000000032354100D7
:103AA000000000000000000032364100000000006D
:103AB000000000003237410000000000000000005C
:103AC000323841000000000000000000323941009F
:103AD0000000000000000000333041000000000042
:103AE0000000000033314100000000000000000031
:103AF00033324100000000000000000031420000AD
:103B00000000000000000000324200000000000041
:103B10000000000033420000000000000000000030
:103B200034420000000000000000000035420000A8
:103B3000000000000000000036420000000000000D
:103B400000000000374200000000000000000000FC
:103B50003842000000000000000000003942000070
:103B600000000000000000003130420000000000B2
:103B700000000000313142000000000000000000A1
:103B800031324200000000000000000031334200EA
:103B9000000000000000000031344200000000007E
:103BA000000000003135420000000000000000006D
:103BB00031364200000000000000000031374200B2
:103BC000000000000000000031384200000000004A
:103BD0000000000031394200000000000000000039
:103BE000323042000000000000000000323142008C
:103BF000000000000000000032324200000000001F
:103C0000000000003233420000000000000000000D
:103C10003234420000000000000000003235420053
:103C200000000000000000003236420000000000EA
:103C300000000000323742000000000000000000D9
:103C4000323842000000000000000000323942001B
:103C500000000000000000003330420000000000BF
:103C600000000000333142000000000000000000AE
:103C70003332420000000000000000003143000029
:103C800000000000000000003243000000000000BF
:103C900000000000334300000000000000000000AE
:103CA0003443000000000000000000003543000025
:103CB000000000000000000036430000000000008B
:103CC000000000003743000000000000000000007A
:103CD00038430000000000000000000039430000ED
:103CE0000000000000000000313043000000000030
:103CF000000000003131430000000000000000001F
:103D00003132430000000000000000003133430066
:103D100000000000000000003134430000000000FB
:103D200000000000313543000000000000000000EA
:103D3000313643000000000000000000313743002E
:103D400000000000000000003138430000000000C7
:103D500000000000313943000000000000000000B6
:103D60003230430000000000000000003231430008
:103D7000000000000000000032324300000000009C
:103D8000000000003233430000000000000000008B
:103D900032344300000000000000000032354300D0
:103DA0000000000000000000323643000000000068
:103DB0000000000032374300000000000000000057
:103DC0003238430000000000000000003239430098
:103DD000000000000000000033304300000000003D
:103DE000000000003331430000000000000000002C
:103DF000333243000000000000000000010801060B
:103E0000030704050101010E0B090101010A010864
:103E100001060307010504010F0C10091112130D0F
:103E2000010801060307010504010F0C0B090D0E23
:103E3000010101080106030704050101010E0B0938
:103E40000101010A000000000000004F000000070F
:103E5000000700147F147F14242A7F2A12231308DA
:103E6000646236495522400005030000001C2241CF
:103E7000000041221C0014083E081408083E0808EF
:103E800000503000000808080808006060000020AA
:103E9000100804023E5149453E00427F4000426105
:103EA0005149462141454B311814127F1027454591
:103EB00045393C4A494930017109050336494949A8
:103EC00036064949291E00363600000056360000E5
:103ED000081422410014141414140041221408027E
:103EE00001510906324971413E7E1111117E7F490F
:103EF0004949363E414141227F4141221C7F494987
:103F000049417F090909013E4149493A7F080808AA
:103F10007F00417F41002040413F017F0814224142
:103F20007F404040407F020C027F7F0408107F3EAC
:103F30004141413E7F090909063E4151215E7F0909
:103F4000192946464949493101017F01013F404055
:103F5000403F1F2040201F3F4070403F6314081423
:103F60006307087008076151494543007F414100DC
:103F700002040810200041417F00040201020440B5
:103F800040404040000102040020545454787F48CF
:103F90004444383844444420384444487F385454D6
:103FA0005418087E0901020C5252523E7F08040444
:103FB0007800447D40002040443D007F10284400AC
:103FC00000417F40007C041804787C0804047838A1
:103FD000444444387C14141408081414187C7C08D5
:103FE0000404084854545420043F4440203C4040BA
:103FF000207C1C2040201C3C4030403C44281028A1
:10400000440C5050503C4464544C44000836410029
:1040100000007F0000004136080002010202011486
:10402000141414140E0A0E000024242F24247F7F5D
:104030007F7F7F7F7F7F7F7F7F7F7F7F7F7F7F7F90
:104040007F7F7F7F7F7F7F7F7F7F7F7F7F7F7F7F80
:104050007F7F7F7F7F7F7F7F7F7F7F7F7F7F7F7F70
:104060007F7F7F7F7F7F7F7F7F7F7F7F7F7F7F7F60
:104070007F7F7F7F7E1111117E7F494949337F49C0
:104080004949367F01010103E0514F41FF7F494912
:10409000494177087F087741494949367F1008042C
:1040A0007F7C2112097C7F0814224120413F017F3F
:1040B0007F020C027F7F0808087F3E4141413E7F1E
:1040C0000101017F7F090909063E414141220101A9
:1040D0007F010147281008071C227F221C63140857
:1040E00014637F404040FF070808087F7F407F40FF
:1040F0007F7F407F40FF017F4848307F4830007F0E
:10410000007F484830224149493E7F083E413E46B3
:104110002919097F20545454783C4A4A49317C5427
:104120005428007C0404040CE0544C44FC385454DF
:1041300054186C107C106C44445454287C20100893
:104140007C7C4122117C7C1028440020443C047C6F
:104150007C0810087C7C1010107C38444444387C67
:104160000404047C7C1414140838444444200404DB
:104170007C04040C5050503C3048FC48304428101B
:1041800028447C404040FC0C1010107C7C407C405B
:104190007C7C407C40FC047C5050207C5050207C37
:1041A0007C5050200028445454387C10384438083F
:1041B0005434147C0EAD11241FBECFEFD0E1DEBF0E
:1041C000CDBF80B58B7F80BD9FEF9ABB1BBA17BA5E
:1041D00098BB80EE84BB8FE185BB80E381BB8FEC15
:1041E00082BB80EC82B993B98EE08093610081EF4D
:1041F00080936200109264009093650017BE8BE07C
:1042000083BF88E181BF87B7826087BF1FBC8CE016
:104210008EBD10927A001DBC1CBC80E792E09BBD55
:104220008ABD87B7806187BF2CE088E190E00FB638
:10423000F894A89581BD0FBE21BD11E0A0E0B1E0CA
:10424000E6EAF8E601E00BBF02C007900D92AA353E
:10425000B107D9F71BE0AAE5B1E001C01D92AB316F
:10426000B107E1F711E4C6EBD1E404C02297FE01E7
:104270000E940AB1C43BD107C9F70E9460AF0C94F9
:1042800051B40C940000FC01662311F12085818556
:104290002430C1F02630B1F02930A1F02B3091F05C
:1042A000223049F490E083709070892B11F08CE1FA
:1042B0000AC08DE108C021502C3010F48FE103C0FA
:1042C00080E001C08EE1861718F0678381E00895D1
:1042D00080E2878380E00895FC01CB0120E005C0E7
:1042E00080FD05C02F5F969587950097C9F7E05A26
:1042F000FF4F219371836083E156F04080E004C05A
:1043000060FD8F5F7695679561157105C9F7ED5969
:10431000FF4F808381E00895FC01CB0120E005C0C0
:1043200080FD05C02F5F969587950097C9F7EC59DA
:10433000FF4F219371836083E556F04080E004C015
:1043400060FD8F5F7695679561157105C9F7E9592D
:10435000FF4F808381E00895FC0185A5833019F427
:1043600091E086E208C0823091F0813081F08823AC
:1043700061F09FEF80E0691728F0861718F067A7B3
:1043800081E0089587A780E008958EE0F6CF82E06F
:10439000F4CF1F93CF93DF93FC01EB01DC01D896A0
:1043A00010E050E089918C9341E020E030E0682FEC
:1043B00070E0842F90E086239723892B09F01F5FFC
:1043C000440F2F5F3F4F2830310599F75F5F1196FB
:1043D000543041F7E05CFF4F108381E0DF91CF91D3
:1043E0001F910895FC01262F30E0C90144E0969505
:1043F00087954A95E1F7817081ABC901B5E0969543
:104400008795BA95E1F7817082ABC901A6E09695D0
:104410008795AA95E1F7817083ABC901817090708F
:1044200084ABC90196958795817085AB16AA2370D8
:104430003070232B11F081E086AB67AB81E00895EB
:10444000FC0120E0CB018070907C892B09F021E0F9
:10445000EA5BFF4F20837F7392918291E454F04096
:104460008617970710F480E00895DF01AE5BBF4F19
:10447000E95BFF4F222331F08D939C93718360831E
:1044800081E008956D937C931182108281E00895FC
:10449000FC01633069F4818D928D892B31F4878919
:1044A000908D892B11F4528F418F508F478B089537
:1044B000662369F483A594A5892B31F481A592A57F
:1044C000892B11F454A743A752A741A7089561303F
:1044D00069F485A196A1892B31F483A194A1892B3C
:1044E00011F456A345A354A343A30895623061F485
:1044F000878D90A1892B31F4858D968D892B11F4B0
:1045000050A3478F568F458F0895662379F020E09A
:1045100031E070E02F5F832F90E086239723892B73
:1045200011F0822F0895330F2830A1F780E008950D
:10453000EF92FF920F931F93CF93DF93EC01FB0158
:10454000808180FF02C082E02CC081FF02C083E036
:1045500028C07B010894E11CF11CCE016181D5DFEC
:10456000882311F08E5E1DC087010F5F1F4FCE01A3
:10457000F7016181CADF882311F0865E12C07801DD
:104580000894E11CF11CCE01F8016181BEDF882393
:1045900011F08E5D06C0CE01F7016181B6DF811199
:1045A000865DDF91CF911F910F91FF90EF9008955D
:1045B0001F93FB0110811F7061816F7049F0A5DFAF
:1045C00012FF02C0865F24C013FF21C0825F20C09B
:1045D0001123E9F0E12FF0E0CF018670907006978B
:1045E00011F488E015C0CF018A7090700A9711F419
:1045F00089E00EC0CF0185709070059711F486E0B8
:1046000007C0E970F070399711F487E001C080E0CD
:104610001F910895FC01673010F084E00895633025
:1046200021F0623011F0613041F4EE57FF4F80818C
:10463000E258F040823009F465E0E158FF4F808194
:10464000861711F481E00895608382E00895FC01EB
:104650008285868380E00895FF920F931F93CF9306
:10466000DF93EC016230C1F5AC81BD81EA81FB8151
:104670008481882349F0833038F4A756BF4F8C9348
:10468000A959B04021E002C083E020E0A756BF4F07
:104690008C934C815D81EA81FB819481892F8150CB
:1046A000823010F094E00AC0FA01EF5EFD4F808185
:1046B000891711F491E002C0908392E0EC81FD81B2
:1046C000EF5EFD4F80818F5FBA96808391FF54C269
:1046D000EC81FD81108250C26A30D1F5AC81BD8180
:1046E000EA81FB819481892F8150893010F0FF2469
:1046F00005C0A656BF4F9C93FF24F3940C811D81E7
:10470000EA81FB81658176818781908528EE33E09F
:1047100040E050E00E94E6B0C901DA0181362AEE9D
:10472000920720E0A20720E0B20710F080E006C068
:1047300005561F4FF8019183808381E090E02F2D73
:1047400030E0822B932B20E0892B09F415C224C181
:10475000613C69F5AA81BB8114960D911C91159756
:10476000EC81FD81E054FD4F11830083E05CF24059
:1047700013968C911397843048F016964D915C9166
:104780001797CF0187569D4F60E082DEEC81FD8157
:10479000EA53FD4F8081E65CF240882309F0EBC1CB
:1047A000CF0187569D4FB8014BDE282FE5C1623CF3
:1047B00009F0E1C1EC81FD81EA53FD4F8081E65CA7
:1047C000F240882309F0D7C1442309F0D4C1818184
:1047D000AA81BB81853009F0E1C016968C91282F03
:1047E00030E074E0359527957A95E1F7A90163E00B
:1047F000440F551F6A95E1F7220F331F420F531FD5
:104800008F70840FEE55FD4F843610F4808301C005
:104810001082AC81BD81EA81FB814781842F90E0C9
:1048200004E0959587950A95E1F79C0113E0220F26
:10483000331F1A95E1F7880F991F280F391F4F7002
:10484000420F842F8150AF55BD4F8C3010F44C93E4
:1048500002C08DE08C93EA81FB8160858C819D8113
:10486000262F30E0E4E035952795EA95E1F7A90198
:1048700073E0440F551F7A95E1F7220F331F420F63
:10488000531F6F70640F87569D4FFDDCAC81BD8157
:10489000EA81FB814185842F90E014E0959587950E
:1048A0001A95E1F79C01F3E0220F331FFA95E1F727
:1048B000880F991F280F391F4F70420FA256BD4F06
:1048C000483110F44C9302C089E18C93AC81BD81D6
:1048D000EA81FB814285842F90E074E0959587956D
:1048E0007A95E1F79C0163E0220F331F6A95E1F7A7
:1048F000880F991F280F391F4F70420FA356BD4FC5
:104900004C3310F44C9302C08DE38C93AC81BD8189
:10491000EA81FB814385842F90E024E0959587957B
:104920002A95E1F79C0103E0220F331F0A95E1F776
:10493000880F991F280F391F4F70420FA456BD4F83
:104940004C3310F44C9302C08DE38C93EA81FB81CD
:10495000948580E02585820F911DEC81FD81E656CE
:10496000FD4F23E0883E920710F088EE93E091839C
:104970008083EA81FB818C819D8165816F702481B8
:104980002295207F620F87569D4F2CDDEC81FD81A3
:10499000E951FD4F81E0808321E0EEC053968C9178
:1049A000282F30E0A4E035952795AA95E1F7A901D5
:1049B00073E0440F551F7A95E1F7220F331F420F22
:1049C000531F8F70840FEE55FD4F843610F4808393
:1049D00001C01082AC81BD81EA81FB814289842FB4
:1049E00090E024E0959587952A95E1F79C0103E0F6
:1049F000220F331F0A95E1F7880F991F280F391FDF
:104A00004F70420F842F8150AF55BD4F8C3010F442
:104A10004C9302C08DE08C93EA81FB8161898C818B
:104A20009D81262F30E0F4E035952795FA95E1F742
:104A3000A901E3E0440F551FEA95E1F7220F331F68
:104A4000420F531F6F70640F87569D4F1CDCAC8163
:104A5000BD81EA81FB814785842F90E064E09595D4
:104A600087956A95E1F79C0153E0220F331F5A9511
:104A7000E1F7880F991F280F391F4F70420FA25678
:104A8000BD4F483110F44C9302C089E18C93AC8146
:104A9000BD81EA81FB814685842F90E014E09595E5
:104AA00087951A95E1F79C01F3E0220F331FFA95E1
:104AB000E1F7880F991F280F391F4F70420FA35637
:104AC000BD4F4C3310F44C9302C08DE38C93AC81FA
:104AD000BD81EA81FB814585842F90E074E0959546
:104AE00087957A95E1F79C0163E0220F331F6A9561
:104AF000E1F7880F991F280F391F4F70420FA456F6
:104B0000BD4F4C3310F44C9302C08DE38C93EA817B
:104B1000FB81948580E02385820F911DEC81FD81CE
:104B2000E656FD4F23E0883E920710F088EE93E0B2
:104B300091838083AC81BD81EA81FB818481A9530B
:104B4000BD4F863008F086E08C93EA81FB818C8132
:104B50009D8167816F7025812295207F620F875626
:104B60009D4F40DC8C819D81EA81FB8187569D4F62
:104B70006681F2DB0BCF20E0822FDF91CF911F9176
:104B80000F91FF9008950F931F93CF93DF93EC0144
:104B9000613DD9F1623D09F464C06C3109F03EC257
:104BA000AC81BD8111968C911197833011F090E00A
:104BB00026C0EA81FB819481990F990F913210F000
:104BC00024E001C020E0FD01E15FFE4F80818917F4
:104BD00019F4922F91600BC09083FD01E25FFE4FAC
:104BE0001082992311F081E08083922F9260EC81F2
:104BF000FD81E15FFE4F8081E65DFE4F808391FF86
:104C00000DC2EC81FD81108209C2AA81BB8114967C
:104C10000D911C911597EC81FD81E654FD4F118398
:104C20000083EA5BF24013968C911397843048F02E
:104C300016964D915C911797CF0187569D4F61E075
:104C400027DCEC81FD81EA53FD4F8081E65CF24078
:104C5000813009F0E3C1CF0187569D4FB801F0DBE9
:104C6000DEC1EC81FD81EA53FD4F8081E65CF240BC
:104C7000813009F0D3C1442309F0D0C18181AA81D8
:104C8000BB81853009F0D6C018968C91282F30E072
:104C900074E0359527957A95E1F7A90163E0440F13
:104CA000551F6A95E1F7220F331F420F531F8F7074
:104CB000840FEE55FD4F843610F4808301C01082BE
:104CC000AC81BD81EA81FB814185842F90E004E0C5
:104CD000959587950A95E1F79C0113E0220F331F04
:104CE0001A95E1F7880F991F280F391F4F70420F4F
:104CF000842F8150AF55BD4F8C3010F44C9302C0BF
:104D00008DE08C93EA81FB8162858C819D81262FC9
:104D100030E0E4E035952795EA95E1F7A90173E0E5
:104D2000440F551F7A95E1F7220F331F420F531F8F
:104D30006F70640F87569D4FA6DAAC81BD81EA8102
:104D4000FB814385842F90E014E0959587951A9513
:104D5000E1F79C01F3E0220F331FFA95E1F7880F8A
:104D6000991F280F391F4F70420FA256BD4F48316F
:104D700010F44C9302C089E18C93AC81BD81EA812F
:104D8000FB814485842F90E074E0959587957A9512
:104D9000E1F79C0163E0220F331F6A95E1F7880F6A
:104DA000991F280F391F4F70420FA356BD4F4C3328
:104DB00010F44C9302C08DE38C93AC81BD81EA81E9
:104DC000FB814585842F90E024E0959587952A9571
:104DD000E1F79C0103E0220F331F0A95E1F7880FEA
:104DE000991F280F391F4F70420FA456BD4F4C33E7
:104DF00010F44C9302C08DE38C93EA81FB8196857D
:104E000080E02785820F911DEC81FD81E656FD4FE4
:104E100023E0883E920710F088EE93E09183808330
:104E20008C819D816A817B816C5F7F4F87569D4F0E
:104E3000B0DAEDC053968C91282F30E0B4E0359570
:104E40002795BA95E1F7A901A3E0440F551FAA954C
:104E5000E1F7220F331F420F531F8F70840FEE555F
:104E6000FD4F843610F4808301C01082AC81BD8177
:104E7000EA81FB814289842F90E064E095958795D3
:104E80006A95E1F79C0153E0220F331F5A95E1F731
:104E9000880F991F280F391F4F70420F842F8150A0
:104EA000AF55BD4F8C3010F44C9302C08DE08C9305
:104EB000EA81FB8161898C819D81262F30E014E09D
:104EC000359527951A95E1F7A901B3E0440F551FD1
:104ED000BA95E1F7220F331F420F531F6F70640F13
:104EE00087569D4FD0D9AC81BD81EA81FB81478532
:104EF000842F90E0F4E095958795FA95E1F79C0171
:104F0000E3E0220F331FEA95E1F7880F991F280F7E
:104F1000391F4F70420FA256BD4F483110F44C93C9
:104F200002C089E18C93AC81BD81EA81FB81468519
:104F3000842F90E064E0959587956A95E1F79C0150
:104F400053E0220F331F5A95E1F7880F991F280F5E
:104F5000391F4F70420FA356BD4F4C3310F44C9382
:104F600002C08DE38C93AC81BD81EA81FB814585D4
:104F7000842F90E014E0959587951A95E1F79C01B0
:104F8000F3E0220F331FFA95E1F7880F991F280FDE
:104F9000391F4F70420FA456BD4F4C3310F44C9341
:104FA00002C08DE38C93EA81FB81948580E02385A8
:104FB000820F911DEC81FD81E656FD4F23E0883E76
:104FC000920710F088EE93E091838083AC81BD81DD
:104FD000EA81FB818481A953BD4F863008F086E0C9
:104FE0008C932C813D81EA81FB819581892F8150B1
:104FF000803228F4F901EC51FD4F908311828C81AD
:105000009D81EA81FB8187569D4F6681A5D9EC8100
:10501000FD81E951FD4F81E0808301C080E0DF9197
:10502000CF911F910F910895CF92DF92EF92FF924F
:105030000F931F93CF93DF93EC01613EE1F1623E4A
:1050400009F465C06C3209F07EC2AC81BD81119655
:105050008C911197833011F090E027C0EA81FB8199
:105060009481990F990F913218F024E090E001C0DB
:1050700020E0FD01EA57FE4F8081891719F4922F35
:1050800091600BC09083FD01EB57FE4F1082992376
:1050900011F081E08083922F9260EC81FD81EA57CC
:1050A000FE4F8081EC54FF4F808391FF4CC2EC8116
:1050B000FD81108248C2AA81BB8114960D911C917A
:1050C0001597EC81FD81EC54FD4F11830083E45B67
:1050D000F24013968C911397843048F016964D91B8
:1050E0005C911797CF0187569D4F62E0D1D9EC8133
:1050F000FD81EA53FD4F8081E65CF240823009F089
:1051000022C2CF0187569D4FB8019AD91DC2EC81AA
:10511000FD81EA53FD4F8081E65CF240823009F068
:1051200012C2442309F00FC28181AA81BB8185305C
:1051300009F008C118968C91282F30E0A4E035952D
:105140002795AA95E1F7A90173E0440F551F7A95B9
:10515000E1F7220F331F420F531F8F70840FEE555C
:10516000FD4F843610F4808301C01082AC81BD8174
:10517000EA81FB814185842F90E024E09595879515
:105180002A95E1F79C0103E0220F331F0A95E1F70E
:10519000880F991F280F391F4F70420F842F81509D
:1051A000AF55BD4F8C3010F44C9302C08DE08C9302
:1051B000EA81FB8162858C819D81262F30E0F4E0BD
:1051C00035952795FA95E1F7A901E3E0440F551FBE
:1051D000EA95E1F7220F331F420F531F6F70640FE0
:1051E00087569D4F50D8AC81BD81EA81FB814385B4
:1051F000842F90E024E0959587952A95E1F79C010E
:1052000003E0220F331F0A95E1F7880F991F280F3B
:10521000391F4F70420FA256BD4F483110F44C93C6
:1052200002C089E18C93AC81BD81EA81FB81448518
:10523000842F90E0F4E095958795FA95E1F79C012D
:10524000E3E0220F331FEA95E1F7880F991F280F3B
:10525000391F4F70420FA356BD4F4C3310F44C937F
:1052600002C08DE38C93AC81BD81EA81FB814585D1
:10527000842F90E064E0959587956A95E1F79C010D
:1052800053E0220F331F5A95E1F7880F991F280F1B
:10529000391F4F70420FA456BD4F4C3310F44C933E
:1052A00002C08DE38C93EA81FB81968580E027859F
:1052B000820F911DEC81FD81E656FD4F23E0883E73
:1052C000920710F088EE93E0918380838C819D811A
:1052D0006A817B816C5F7F4F87569D4F5AD8EA81E8
:1052E000FB818381803108F427C1CC80DD80A60159
:1052F0004B525D4F70E014E0E12EF12CEE0EFF1EDC
:105300008089DA018C9361E020E030E0082F10E022
:10531000862F90E080239123892B09F07F5F660F11
:105320002F5F3F4F2830310599F731964F5F5F4F20
:10533000EE15FF0529F7EAEDF2E0CE0EDF1ED601ED
:105340007C93FAC053968C91282F30E0B4E03595C9
:105350002795BA95E1F7A901A3E0440F551FAA9537
:10536000E1F7220F331F420F531F8F70840FEE554A
:10537000FD4F843610F4808301C01082AC81BD8162
:10538000EA81FB814289842F90E064E095958795BE
:105390006A95E1F79C0153E0220F331F5A95E1F71C
:1053A000880F991F280F391F4F70420F842F81508B
:1053B000AF55BD4F8C3010F44C9302C08DE08C93F0
:1053C000EA81FB8161898C819D81262F30E014E088
:1053D000359527951A95E1F7A901B3E0440F551FBC
:1053E000BA95E1F7220F331F420F531F6F70640FFE
:1053F00087569D4F0E944321AC81BD81EA81FB818C
:105400004785842F90E0F4E095958795FA95E1F72C
:105410009C01E3E0220F331FEA95E1F7880F991F03
:10542000280F391F4F70420FA256BD4F483110F45C
:105430004C9302C089E18C93AC81BD81EA81FB81F0
:105440004685842F90E064E0959587956A95E1F70D
:105450009C0153E0220F331F5A95E1F7880F991FE3
:10546000280F391F4F70420FA356BD4F4C3310F415
:105470004C9302C08DE38C93AC81BD81EA81FB81AA
:105480004585842F90E014E0959587951A95E1F76E
:105490009C01F3E0220F331FFA95E1F7880F991F63
:1054A000280F391F4F70420FA456BD4F4C3310F4D4
:1054B0004C9302C08DE38C93EA81FB81948580E05C
:1054C0002385820F911DEC81FD81E656FD4FB3E0EF
:1054D000883E9B0710F088EE93E091838083AC8137
:1054E000BD81EA81FB818481A953BD4F863008F0DC
:1054F00086E08C932C813D81EA81FB819581892F07
:105500008150803228F4F901EC51FD4F90831182D3
:105510008C819D81EA81FB8187569D4F66810E9427
:10552000AC21AC81BD81EA81FB818781833008F0A9
:1055300082E0AA51BD4F8C93EC81FD81E951FD4F72
:1055400081E0808301C080E0DF91CF911F910F91B6
:10555000FF90EF90DF90CF9008958F929F92AF923F
:10556000BF92CF92DF92EF92FF920F931F93DF9340
:10557000CF930F92CDB7DEB78C01DC011496ED907E
:10558000FC901597F701B180683309F411C66933AF
:10559000A0F4623339F1633340F4603309F40AC193
:1055A000613311F00C9421346BC2643309F416C3D7
:1055B000673311F00C942134C2C56F3309F4D3C39F
:1055C000603440F46B3309F498C56E3311F00C94D9
:1055D000213401C6613F09F4B0C6623F11F00C945A
:1055E0002134DCC6DC011296ED91FC9113974481C5
:1055F000842F90E0A4E095958795AA95E1F79C010A
:10560000F3E0220F331FFA95E1F7880F991F280F57
:10561000391F4F70420F443618F4F701408B03C016
:10562000D70150961C92F801A481B58182819381A3
:10563000FC014581842F90E074E0959587957A95DB
:10564000E1F79C0163E0220F331F6A95E1F7880FB1
:10565000991F280F391F4F70420F842F81508C30B3
:1056600018F41F964C9303C08DE01F968C93D801BD
:105670001296ED91FC911397668114968D919C91F1
:105680001597262F30E0A4E035952795AA95E1F7E8
:10569000A901F3E0440F551FFA95E1F7220F331FDC
:1056A000420F531F6F70640F07960E944321F80149
:1056B000A481B58182819381FC014781842F90E090
:1056C00074E0959587957A95E1F79C0163E0220F48
:1056D000331F6A95E1F7880F991F280F391F4F7004
:1056E000420F483118F41C964C9303C089E11C9674
:1056F0008C93F801A481B58182819381FC0140855E
:10570000842F90E024E0959587952A95E1F79C01F8
:10571000F3E0220F331FFA95E1F7880F991F280F46
:10572000391F4F70420F4C3318F41B964C9303C033
:105730008DE31B968C93F801A481B58182819381BE
:10574000FC014185842F90E074E0959587957A95CA
:10575000E1F79C0163E0220F331F6A95E1F7880FA0
:10576000991F280F391F4F70420F4C3318F41A96A7
:105770004C9303C08DE31A968C93D8011296ED9149
:10578000FC9113978381883018F480E090E002C088
:1057900082859385D8011496ED91FC911597B3E01D
:1057A000883E9B0710F088EE93E09187808781E028
:1057B0000C942234DC011296ED91FC911397D701E1
:1057C000AB56BF4F8481873008F086E08C93F80198
:1057D000A481B58182819381FC0185818E3008F09E
:1057E0008EE0AA56BF4F8C93D8011496ED91FC9190
:1057F0001597E956FF4F12968D919C911397DC01F6
:1058000016968C918083F80182819381A481B58161
:10581000A55FBE4FFC018781873008F086E08C933E
:10582000F801A481B58182819381FC0180858E304D
:1058300008F08EE0A45FBE4F8C93D8011496ED91D2
:10584000FC911597E35FFE4F12968D919C911397F3
:10585000DC0119968C918083F80182819381A48167
:10586000B581AE57BE4FFC018285873008F086E0D7
:105870008C93F801A481B58182819381FC01838599
:105880008E3008F08EE0AD57BE4F8C93D801149641
:10589000ED91FC911597EC57FE4F12968D919C91CE
:1058A0001397DC011C968C918083F801228133814F
:1058B000D90113969C91B3E0BB1621F0E5E0BE162A
:1058C00009F08FC0D8011496ED91FC911597E25F15
:1058D000FE4F8081EE50F1408823D9F19D30C8F110
:1058E000E05FFE4FD90150968C9180839D3089F105
:1058F000D8011496ED91FC911597EF5EFE4F12962C
:105900002D913C911397D90151968C9180839E30B3
:1059100001F1D8011496ED91FC911597EE5EFE4FC2
:1059200012962D913C911397D90152968C918083B8
:105930009F3079F0D8011496ED91FC911597ED5EAA
:10594000FE4F12962D913C911397D90153968C914D
:105950008083F801A481B581AB57BE4F8C91A558C7
:10596000B1408823F1F1913108F44AC0A957BE4FE4
:1059700022813381F90184898C93913109F440C0EB
:10598000D8011496ED91FC911597E857FE4F1296A9
:105990002D913C911397D90155968C91808392312A
:1059A00079F1D8011496ED91FC911597E757FE4FC8
:1059B00012962D913C911397D90156968C91808324
:1059C0009331F1F0D8011496ED91FC911597E657BB
:1059D000FE4F12962D913C911397D90157968C91B9
:1059E0008083953168F0F801A481B581A95EBD4F2F
:1059F00090E022813381F901808D811191E09C93A7
:105A0000D8011496ED91FC911597EB57FE4F8081CC
:105A1000E558F140882311F496E005C0EE57FE4F9B
:105A20009081E258F140E25FFE4F8081EE50F140FC
:105A3000882359F0E55FFE4F8081EB50F1409630AE
:105A400011F4982F02C0981392E0E856FF4F80811E
:105A5000E859F040882369F0EB56FF4F8081E55903
:105A6000F040963011F4982F04C0981711F092E08E
:105A700003C0973008F096E0E750FE4F908397CE32
:105A8000DC011296ED91FC911397748160E08581A1
:105A9000680F711DC7018C960E946C21D801129667
:105AA000ED91FC91139714968D919C9115977681A9
:105AB00060E02781620F711D8C960E948C21B1E0FD
:105AC000BB1619F0E4E0BE1681F4D8011496ED91EE
:105AD000FC911597ED5EFD4F8081833031F4129675
