:100000000C9486260C94EC260C94EC260C94EC268E
:100010000C94EC260C94EC260C94EC260C94EC2618
:100020000C94EC260C94EC260C94EC260C94EC2608
:100030000C94EEBF0C94EC260C94EC260C9426C089
:100040000C94EC260C94EC260C941ABF0C9480BEF5
:100050000C9449BF0C94EC260C94EC260C94EC26E2
:100060000C94EC260C94EC260C94EC260C94EC26C8
:100070000C94EC260C94EC260C9483BF0C9440BE9C
:100080000C94B4BF0C94C0BE0C94EC263B6B5E6B1E
:10009000866B9E6BB96BD46BEC6B076C896CA16C37
:1000A000BC6C226C516C6D6CD76CF36C0E6D296D51
:1000B0007400003000003100003200003400007392
:1000C00000017001017101017E01017D0101B20198
:1000D000013F00013E0101F10001F20001F30201C4
:1000E000F40201D10001D20001E10001E20001C1EE
:1000F0000001C200017200019A0001AA000137004C
:10010000012B00011B00013500010000011000015E
:10011000200001B00101800101A00101900101BC9A
:100120000101AB01019B0101A70101A80101970198
:1001300001980101CFC800CFCA00CED800C0E2F2BA
:10014000EE2E20E7E0E2E5F0F82E20F1E5E0EDF11B
:10015000E000C8E7ECE5EDE5EDE8E520EDE0F1F2E3
:10016000F0EEE5EA000000C8E7ECE5EDE5EDE8E5D6
:1001700020E4E0F2FB2FE2F0E5EC0000C8E7ECE55C
:10018000EDE5EDE8E520F0E5E6E8ECE00000000054
:1001900000C8E7ECE5EDE5ED2E20EDE020CEEFE543
:1001A000F0E0F2EEF000C8E7ECE5EDE5ED2E20ED35
:1001B000E020C8EDE6E5EDE5F00000C8E7ECE5ED90
:1001C000E5ED2E20EDE020C0E4ECE8ED2E0000008F
:1001D000C1EBEEEAE8F0EEE2EAE020C8EDE6E5ED9C
:1001E000E5F0E00000C1EBEEEAE8F0EEE2EAE02044
:1001F000C0E4ECE8ED2E00000000C8E7EC2E20EF94
:10020000E0F0EEEBFF20C8EDE6E5EDE5F0E000C83C
:10021000E7EC2E20EFE0F0EEEBFF20C0E4ECE8EDA1
:100220002E000000CEF82E20EFE0F0EEEBFC20C810
:10023000EDE6E5EDE5F0E00000CEF82E20EFE0F091
:10024000EEEBFC20C0E4ECE8ED2E00000000D1E174
:10025000F0EEF120EFE0F0EEEBE5E9000000000049
:10026000000000D1EEE1FBF2E8E5202D202564003E
:10027000000000000000000000C1814001C080417A
:1002800001C0804100C1814001C0804100C1814066
:1002900000C1814001C0804101C0804100C1814056
:1002A00000C1814001C0804100C1814001C0804146
:1002B00001C0804100C1814001C0804100C1814036
:1002C00000C1814001C0804100C1814001C0804126
:1002D00001C0804100C1814000C1814001C0804116
:1002E00001C0804100C1814001C0804100C1814006
:1002F00000C1814001C0804101C0804100C18140F6
:1003000000C1814001C0804100C1814001C08041E5
:1003100001C0804100C1814000C1814001C08041D5
:1003200001C0804100C1814001C0804100C18140C5
:1003300000C1814001C0804100C1814001C08041B5
:1003400001C0804100C1814001C0804100C18140A5
:1003500000C1814001C0804101C0804100C1814095
:1003600000C1814001C0804100C1814001C0804185
:1003700001C0804100C1814000C0C101C30302C26D
:10038000C60607C705C5C404CC0C0DCD0FCFCE0ED5
:100390000ACACB0BC90908C8D81819D91BDBDA1A45
:1003A0001EDEDF1FDD1D1CDC14D4D515D71716D6B5
:1003B000D21213D311D1D010F03031F133F3F23225
:1003C00036F6F737F53534F43CFCFD3DFF3F3EFE95
:1003D000FA3A3BFB39F9F83828E8E929EB2B2AEA05
:1003E000EE2E2FEF2DEDEC2CE42425E527E7E62675
:1003F00022E2E323E12120E0A06061A163A3A262E5
:1004000066A6A767A56564A46CACAD6DAF6F6EAE54
:10041000AA6A6BAB69A9A86878B8B979BB7B7ABAC4
:10042000BE7E7FBF7DBDBC7CB47475B577B7B67634
:1004300072B2B373B17170B05090915193535292A4
:1004400096565797559594549C5C5D9D5F9F9E5E14
:100450005A9A9B5B99595898884849894B8B8A4A84
:100460004E8E8F4F8D4D4C8C4484854587474686F4
:1004700082424383418180405669727475616C0089
:10048000C0C2C0CDD220CECFD2CE2D2564256425CA
:10049000642DCE00C0C2C0CDD220CA3430302D254C
:1004A000642564C200C0C2C0CDD220D0C7D1CA2D3D
:1004B0002564256425642DC200C0C2C0CDD220D0E1
:1004C000343030EC2D3130302DC200C900CA00CBA1
:1004D00000CC00CD00CE00CF002D012E012F013029
:1004E0000131013201330134013501360137013860
:1004F0000139013A013B013C013D013E013F014010
:1005000001410142014301440145014601470148BF
:100510000149014A014B014C019001910192019363
:10052000019401950196019701980199019A019B07
:10053000019C019D019E019F01A001A101A201A3B7
:1005400001A401A501A601A701A801A901AA01AB67
:1005500001AC01AD01AE01AF01B001C201C301C4E4
:1005600001C501C601C701C801C901CA01CB01CC3F
:1005700001CD01CE01CF01D001D101D201D301D4EF
:1005800001D501D601D701D801D901DA01DB01DC9F
:1005900001DD01DE01DF01E001E101E501E601E746
:1005A00001F401F501F601F701F801F901FA01FB87
:1005B00001FC01FD01FE01FF010002010202020334
:1005C000020402050206020702080209020A020BDF
:1005D000020C020D020E020F02100211021202138F
:1005E00002140226022702280229022A022B022CC8
:1005F000022D022E022F0230023102320233023467
:1006000002350236023702380239023A023B023C16
:10061000023D023E023F02400241024202430244C6
:1006200002450249024A024B024C02580259025A40
:10063000025B025C025D025E025F026002610262B6
:100640000263026402650266026702680269026A66
:10065000026B026C026D026E026F02700271027216
:1006600002730274027502760277027802C4E0F225
:10067000E03A20253032582E253032582E2530329F
:100680005800C2F0E5ECFF3A20253032583A2530C8
:1006900032583A253032582E25303375000000008C
:1006A0000000ECC0000000C000000000EAC0000034
:1006B00000C200000000EAC2000000ECF1000000EF
:1006C0006300000000F7E0F10000E4C1000000C397
:1006D000F6000000EAC3F60000E3F0E0E400002DBD
:1006E00025642E256425530025642E25642553009A
:1006F0002564255300F7F2E5EDE8E52E2E00F7F22C
:10070000E5EDE8E52E00256400EEF8E8E1EAE021F9
:10071000212100C7EDE0F7E5EDE8E53A20003939A1
:100720003939393939390025642E2EB125642553DC
:100730000025642E2EB1256425530025642E2E2518
:10074000640025642E2E2564255300E2EAEB2E2F4B
:10075000E2FBEAEB2E00F1EFE8F1EEEA00C4E8E09C
:10076000EFE0E7EEED3A2000CDEEECE5F03A2025A3
:10077000752F257500CDEEECE5F03A2025532F2599
:100780005300CFE0F0E0ECE5F2F03A257520C2F13D
:10079000E5E3EE3A257500C2FBE2E5E4E5ED00C3D2
:1007A000EEF2EEE2000000C2E2E5E4E5ED0000D08A
:1007B000E5F7FC00000000D2E5F1F200000000D2F5
:1007C000E5F1F200000000EEF8E8E1EAE0000020C8
:1007D0002020000000000000000000203120000068
:1007E0000000000000000020322000000000000097
:1007F0000000003120320000000000000000002056
:100800003320000000000000000000312033000011
:100810000000000000000032203300000000000053
:10082000000000203F20000000000000000000CF7A
:10083000F0E5E4F3EFF02E2025632D253034580049
:10084000CDE5E8F1EFF02E2025632D25303458005A
:1008500064463D25303264C3F600543D2530326491
:10086000B04300443D25303264E4C1002530327588
:100870003A253032753A2530327500253032752EE2
:10088000253032752E253032750053E43D25303247
:1008900075B00055F8323D25303264E4C10055F89A
:1008A000313D25303264E4C10055F83D25303264D5
:1008B000E4C10055EA323D25303264E4C10055EA16
:1008C000313D25303264E4C10055EA3D25303264C3
:1008D000E4C10055E7323D25303264E4C10055E7FC
:1008E000313D25303264E4C10055E73D25303264A6
:1008F000E4C100523D25303375CEEC00493D253032
:100900003375ECC000553D253032752E25303175DC
:10091000C200253031752E25303175002573002534
:1009200030346400253033640025303264002530D3
:10093000316400255300CFE0F0EEEBFC3A2000C21A
:10094000E2EEE43A2000CCE5EDFE5CCFEEEBFCE716
:10095000EEE2E0F2E5EBFC00E2FBEAEB2E00000049
:1009600000000000CAD700000000000000000000E6
:10097000CAD731000000000000000000CAD73200D2
:100980000000000000000000CAD733000000000093
:1009900000000000CAD73400000000000000000082
:1009A000CAD731000000000000000000CAD7312083
:1009B000F120E1EBEEEA0000CAD7320000000000AF
:1009C00000000000CAD73220F120E1EBEEEA00007F
:1009D000D0C700000000000000000000CAEEECE0FC
:1009E000EDE4E03100000000CAEEECE0EDE4E032BE
:1009F00000000000CAEEECE0EDE4E033000000008F
:100A0000CAEEECE0EDE4E03400000000CAEEEC31A8
:100A10002BE1EBEEEA000000CAEEEC322BE1EBEE4C
:100A2000EA000000CAEEEC332BE1EBEEEA00000036
:100A3000CAEEEC342BE1EBEEEA000000CAEEECE08B
:100A4000EDE4E03100000000CAEEECE0EDE4E0325D
:100A500000000000CAEEECE0EDE4E033000000002E
:100A6000CAEEECE0EDE4E03400000000CAEEECE099
:100A7000EDE4E03500000000CAEEECE0EDE4E03625
:100A800000000000CAEEECE0EDE4E03700000000FA
:100A9000CAEEECE0EDE4E03800000000CAEEECE065
:100AA000EDE4E03900000000CAEEECE0EDE4E031F6
:100AB00030000000CAEEECE0EDE4E031310000006F
:100AC000CAEEECE0EDE4E03132000000CAEEECE00A
:100AD000EDE4E03133000000CAEEECE0EDE4E0319B
:100AE00034000000CAEEECE0EDE4E0313500000037
:100AF000CAEEECE0EDE4E03136000000CAEEECE0D6
:100B0000EDE4E03137000000CAEEECE0EDE4E03166
:100B100038000000CAEEECE0EDE4E03139000000FE
:100B2000CAEEECE0EDE4E03230000000CAEEECE0AA
:100B3000EDE4E03231000000CAEEECE0EDE4E0323A
:100B400032000000CAEEECE0EDE4E03233000000D9
:100B5000CAEEECE0EDE4E03234000000CAEEECE076
:100B6000EDE4E03235000000CAEEECE0EDE4E03206
:100B700036000000CAEEECE0EDE4E03237000000A1
:100B8000CAEEECE0EDE4E03238000000CAEEECE042
:100B9000EDE4E03239000000CAEEECE0EDE4E033D1
:100BA00030000000CAEEECE0EDE4E033310000007C
:100BB000CAEEECE0EDE4E03332000000CAD720E8F2
:100BC00020D0C70000000000CAD73120E820D0C7DD
:100BD00000000000CAD73220E820D0C70000000083
:100BE000CAD73320E820D0C700000000CAD734207D
:100BF000E820D0C700000000CAD1000000000000BB
:100C000000000000CAEEECE0EDE4E031410000003D
:100C1000CAEEECE0EDE4E03241000000CAEEECE0A8
:100C2000EDE4E03341000000CAEEECE0EDE4E03436
:100C300041000000CAEEECE0EDE4E03541000000C8
:100C4000CAEEECE0EDE4E03641000000CAEEECE074
:100C5000EDE4E03741000000CAEEECE0EDE4E038FE
:100C600041000000CAEEECE0EDE4E0394100000094
:100C7000CAEEECE0EDE4E03130410000CAEEECE019
:100C8000EDE4E03131410000CAEEECE0EDE4E031AA
:100C900032410000CAEEECE0EDE4E0313341000007
:100CA000CAEEECE0EDE4E03134410000CAEEECE0E5
:100CB000EDE4E03135410000CAEEECE0EDE4E03176
:100CC00036410000CAEEECE0EDE4E03137410000CF
:100CD000CAEEECE0EDE4E03138410000CAEEECE0B1
:100CE000EDE4E03139410000CAEEECE0EDE4E03241
:100CF00030410000CAEEECE0EDE4E03231410000AA
:100D0000CAEEECE0EDE4E03232410000CAEEECE085
:100D1000EDE4E03233410000CAEEECE0EDE4E03215
:100D200034410000CAEEECE0EDE4E0323541000071
:100D3000CAEEECE0EDE4E03236410000CAEEECE051
:100D4000EDE4E03237410000CAEEECE0EDE4E032E1
:100D500038410000CAEEECE0EDE4E0323941000039
:100D6000CAEEECE0EDE4E03330410000CAEEECE026
:100D7000EDE4E03331410000CAEEECE0EDE4E033B5
:100D800032410000CAEEECE0EDE4E0314200000048
:100D9000CAEEECE0EDE4E03242000000CAEEECE026
:100DA000EDE4E03342000000CAEEECE0EDE4E034B4
:100DB00042000000CAEEECE0EDE4E0354200000045
:100DC000CAEEECE0EDE4E03642000000CAEEECE0F2
:100DD000EDE4E03742000000CAEEECE0EDE4E0387C
:100DE00042000000CAEEECE0EDE4E0394200000011
:100DF000CAEEECE0EDE4E03130420000CAEEECE097
:100E0000EDE4E03131420000CAEEECE0EDE4E03127
:100E100032420000CAEEECE0EDE4E0313342000083
:100E2000CAEEECE0EDE4E03134420000CAEEECE062
:100E3000EDE4E03135420000CAEEECE0EDE4E031F3
:100E400036420000CAEEECE0EDE4E031374200004B
:100E5000CAEEECE0EDE4E03138420000CAEEECE02E
:100E6000EDE4E03139420000CAEEECE0EDE4E032BE
:100E700030420000CAEEECE0EDE4E0323142000026
:100E8000CAEEECE0EDE4E03232420000CAEEECE003
:100E9000EDE4E03233420000CAEEECE0EDE4E03293
:100EA00034420000CAEEECE0EDE4E03235420000EE
:100EB000CAEEECE0EDE4E03236420000CAEEECE0CF
:100EC000EDE4E03237420000CAEEECE0EDE4E0325F
:100ED00038420000CAEEECE0EDE4E03239420000B6
:100EE000CAEEECE0EDE4E03330420000CAEEECE0A4
:100EF000EDE4E03331420000CAEEECE0EDE4E03333
:100F000032420000CAEEECE0EDE4E03143000000C4
:100F1000CAEEECE0EDE4E03243000000CAEEECE0A3
:100F2000EDE4E03343000000CAEEECE0EDE4E03431
:100F300043000000CAEEECE0EDE4E03543000000C1
:100F4000CAEEECE0EDE4E03643000000CAEEECE06F
:100F5000EDE4E03743000000CAEEECE0EDE4E038F9
:100F600043000000CAEEECE0EDE4E039430000008D
:100F7000CAEEECE0EDE4E03130430000CAEEECE014
:100F8000EDE4E03131430000CAEEECE0EDE4E031A5
:100F900032430000CAEEECE0EDE4E0313343000000
:100FA000CAEEECE0EDE4E03134430000CAEEECE0E0
:100FB000EDE4E03135430000CAEEECE0EDE4E03171
:100FC00036430000CAEEECE0EDE4E03137430000C8
:100FD000CAEEECE0EDE4E03138430000CAEEECE0AC
:100FE000EDE4E03139430000CAEEECE0EDE4E0323C
:100FF00030430000CAEEECE0EDE4E03231430000A3
:10100000CAEEECE0EDE4E03232430000CAEEECE080
:10101000EDE4E03233430000CAEEECE0EDE4E03210
:1010200034430000CAEEECE0EDE4E032354300006A
:10103000CAEEECE0EDE4E03236430000CAEEECE04C
:10104000EDE4E03237430000CAEEECE0EDE4E032DC
:1010500038430000CAEEECE0EDE4E0323943000032
:10106000CAEEECE0EDE4E03330430000CAEEECE021
:10107000EDE4E03331430000CAEEECE0EDE4E033B0
:1010800032430000EEF8E8E1EAE000000000000072
:10109000C7EDE0F7E5EDE8E53A2000CFD0CC323AF5
:1010A0002000CFD0CC313A2000D1E8E3EDE0EBFBDB
:1010B00020EFF0E8E5ECEDE8EAE000D2E5F1F2FB44
:1010C0005CCFF0E8E5ECEDE8EA00D1E8E3EDE0EB39
:1010D000FB20EFE5F0E5E4E0F2F7E8EAE000D2E536
:1010E000F1F2FB5CCFE5F0E5E4E0F2F7E8EA002599
:1010F000642E20D2E5F1F220EFF0E8E5ECEDE8EA2D
:10110000E00025642E20D2E5F1F220EFE5F0E5E4E1
:10111000E0F2F7E8EAE000CDE0F1F2F0EEE9EAE033
:101120005CD2E5F1F2FB00CCE5EDFE5CC8E7ECE556
:10113000F0E5EDE8FF0025642E20D1E5EAF3EDE4CB
:10114000FB0025642E20CCE8EDF3F2FB0025642E95
:1011500020D7E0F1FB0025642E20C4E5EDFC00253E
:10116000642E20CCE5F1FFF60025642E20C3EEE4CA
:1011700000CDE0F1F2F0EEE9EAE05CC2F0E5ECFF70
:1011800026E4E0F2E000CDE0F1F2F0EEE9EAE05C26
:10119000C8EDF2E5F0F4E5E9F100CFE0F0E0ECE5D0
:1011A000F2F0FB5CCAEEEBFCF6EE00CFE0F0E0EC18
:1011B000E5F2F0FB5CCEE1F9E8E500CFE0F0E0EC31
:1011C000E5F2F0FB5CCFE5F0E5E4E0F2F7E8EA00F9
:1011D000CFE0F0E0ECE5F2F0FB5CCFF0E8E5ECED21
:1011E000E8EA00CFE0F0E0ECE5F2F0FB5CC7E0F904
:1011F000E8F2E00025642E20CAEEEBFCF6EE0025B6
:10120000642E20CEE1F9E8E50025642E20CFE5F03C
:10121000E5E4E0F2F7E8EA0025642E20CFF0E8E507
:10122000ECEDE8EA0025642E20C7E0F9E8F2E000E2
:10123000CDE0F1F2F0EEE9EAE05CCFE0F0E0ECE5E1
:10124000F2F0FB00C2FBE2E5E4E5ED000000000087
:10125000C2E2E5E4E5ED000000000000D2E5F1F2B5
:101260002031000000000000D2E5F1F22032000041
:1012700000000000CDE0F1F2F0EEE9EAE05CD0E53C
:10128000E6E8EC0025642E20C8EDF2E5F0F4E5E98F
:10129000F10025642E20CFEEEBFCE7EEE2E0F2E574
:1012A000EBFC0025642E20CFE0F0E0ECE5F2F0FB53
:1012B0000025642E20C2F0E5ECFF20E820E4E0F2F7
:1012C000E00025642E20D0E5E6E8EC00CCE5EDFE5C
:1012D0005CCDE0F1F2F0EEE9EAE00025642E20D1E9
:1012E000E1F0EEF120E2F1E5F50025642E20D1E1F8
:1012F000F0EEF120E8EDE4E8EAE0F6E8E800256445
:101300002E20D1E1F0EEF120F3E4E0EBE5ED2E202C
:10131000330025642E20D1E1F0EEF120F3E4E0EB80
:10132000E5ED2E20320025642E20D1E1F0EEF120F3
:10133000F3E4E0EBE5ED2E20310025642E20C0CA59
:1013400020E2EAEBFEF7E5ED0025642E20CFF3F175
:10135000EA20F3E4E0EB2DFBF520CCC0CD002564C2
:101360002E20CFF3F1EA20F3E4E0EB2E20CCC0CD29
:1013700020330025642E20CFF3F1EA20F3E4E0EBE4
:101380002E20CCC0CD20320025642E20CFF3F1EAF0
:1013900020F3E4E0EB2E20CCC0CD20310025642EDC
:1013A00020CFF3F1EA20F3E4E0EBE5EDEDFBF5000F
:1013B00025642E20CFF3F1EA20F3E4E0EBE5EDED38
:1013C0002E20330025642E20CFF3F1EA20F3E4E051
:1013D000EBE5EDED2E20320025642E20CFF3F1EA6F
:1013E00020F3E4E0EBE5EDED2E20310025642E2026
:1013F000D1E1F0EEF120F3E4E0EBE5EDEDFBF500FB
:1014000025642E20C0CA20E1E5E3EBFBE90025645A
:101410002E20C0CA20EDEEF0ECE0EBFCEDFBE90085
:1014200025642E20C0CA20E8F1EFFBF2E0EDE8FFD2
:101430000025642E20C0CA20E2FBEAEBFEF7E5EDB2
:101440000025642E20C0CA20F3F1EAEEF0E5EDEDB0
:10145000FBE90025642E20C0CA20E0E2F2EEECE0B9
:10146000F2E8F7E5F1EA2E0025642E20CFF3F1EA49
:1014700020CFD0C40025642E20CFF3F1EA20C0CACB
:1014800020F3E4E0EBE5EDED2E0025642E20CFF314
:10149000F1EA20C0CA20F1E2EEE90025642E20D155
:1014A000E1F0EEF120C0CA0025642E20C0CA20EA77
:1014B000EEEDF2F02EEFF0EEE2E5F02E0025642ED8
:1014C00020CFF3F1EA20F3E4E0EBE5ED2E20CCC0F1
:1014D000CD0025642E20C0CA20EFF3F1EA00256478
:1014E0002E20CFF3F1EA20EDE0EBE0E42E20E2FB4A
:1014F000EAEB0025642E20CFF3F1EA20EDE0EBE0EB
:10150000E42E20E2EAEB2E0025642E20C2FBE7EE5B
:10151000E20025642E20D1E1F0EEF120F3E4E0EBCF
:10152000E5EDEDEEE3EE0025642E20D1E1F0EEF1E5
:1015300020F1E2EEE5E3EE0025642E20CFF3F1EAA0
:1015400020F3E4E0EBE5EDEDEEE3EE00CCE5EDFEBF
:101550005CD3EFF0E0E2EBE5EDE8E500C7E0EFE8B3
:10156000F1FC202575202F20257500C6D3D0CDC0D5
:10157000CB20CFD3D1D200D1D7C8D2DBC2C0CDC807
:10158000C520C7C0CFC8D1C800CEEFE5F0E0F2EE6D
:10159000F000000000C8EDE6E5EDE5F00000000019
:1015A00000C0E4ECE8ED2E000000000000EEF8E8DA
:1015B000E1EAE0000000000000255320282553291F
:1015C00000C6F3F0EDE0EB5CC1E5E7EEEFE0F1ED36
:1015D000EEF1F2FC00C7E0EFE8F1FC202575202FCA
:1015E000202575202825752900CAEEECE0EDE4E001
:1015F0003A20257500000000000028D6CF290028D9
:10160000CED82900CAEEECE0EDE4E020EFE5F0E50D
:10161000E4E0E5F2F1FF00CAEEECE0EDE420EDE5F8
:10162000F200CEEAEEEDF7E0EDE8E520EAEEECE0E0
:10163000EDE4FB00000000CDE0F7E0EBEE20EAEE89
:10164000ECE0EDE4FB00000000000000CEF8E8E173
:10165000EEF7EDEEE520E7EDE0F7E5EDE8E500007B
:1016600000C6F3F0EDE0EB5CCFE5F0E5E4E0F2F787
:10167000E8EA002020202020200028CFD0CC3229EA
:101680000028CFD0CC33290020202020202000208B
:1016900020202020200028CF322C33290020202099
:1016A0002020200020202020202000CAEEECE0EDA9
:1016B000E4E03A202575202553002020202020201A
:1016C0000028CFD0CC31290028CFD0CC332900201E
:1016D0002020202020002020202020200028CF3182
:1016E0002C33290020202020202000202020202012
:1016F00020002020202020200028CFD0CC3129001D
:1017000028CFD0CC322900202020202020002020EB
:10171000202020200028CF312C322900202020201A
:1017200020200020202020202000CAEEECE0EDE464
:10173000E020EFF0E8EDE8ECE0E5F2F1FF00C6F3C1
:10174000F0EDE0EB5CCFF0E8E5ECEDE8EA00D1EE9F
:10175000F1F2EEFFEDE8E53A00CF2564D12564CC47
:10176000256420CFC42564CFCC2564C2DBD5256495
:1017700000C6F3F0EDE0EB5CC7E0F9E8F2E000D082
:10178000E5E6E8EC3A00D1EEE1FBF2E8E5202D20B9
:101790002564000000000000000000CDE5E8F1EF46
:1017A000F020F7F22FE7E0EF20464C4153480000CD
:1017B000C2D720F2F0E0EAF220E2EEF1F1F2E0ED41
:1017C000EEE2EB2E00CDE5E8F1EFF020F7F22FE7A7
:1017D000E0EF20CFCBC8D1000000C0E2F2EEEAEE8D
:1017E000EDF2F0EEEBFC000000000000000000D283
:1017F000EEEA20EFEEEAEEFF00000000000000003D
:1018000000000000CDE5E8F1EFF020F7F22FE7E06F
:10181000EF203252414D000000CDE5E8F1EFF0201D
:10182000F0E0E1EEF2FB2044535000000000C2EE75
:10183000F1F1F2E0ED2DE520F0E0E1EEF2FB2044E5
:10184000535000CDE8E7EAEEE520EDE0EFF02E2082
:10185000E2FBF5EEE4E00000C2FBF1EEEAEEE5208B
:10186000EDE0EFF02E20E2FBF5EEE4E000CDE0F05D
:10187000F3F8E5ED20EEE1ECE5ED20F120D3CC002E
:101880000000CDE5E8F1EFF0E0E2EDEEF1F2FC2052
:10189000F7E0F1EEE20000CDE5F220E1EBEEEAE068
:1018A00020C1D1C70000000000000000CEF8E8E130
:1018B000EAE020E2E5F0F1E8E820C1D1C70000004D
:1018C00000CDE5E8F1EFF020EFE5F0E5EAEB2DE5FE
:1018D000E920C1D1C700CDE5F220F1E8E3EDE0EB6E
:1018E000E020CCC0CD000000000000C2EAEB2EEFEB
:1018F000E8F22FCFE5F0E5E7E0EFF3F1EA000000D2
:10190000C8E7ECE5EDE5EDE8E520F0E5E6E8ECE03C
:101910000000000000CDE5E8F1EFF020E7E0EF2E59
:1019200020E2FBF52EF6E5EFE800CEF8E8E120EA4C
:10193000EEEDF2F02E20E2FBF52EF6E5EFE800C02A
:10194000CA202D20D1EDE8E6E5EDE8E520E7E0EF5F
:10195000E0F1E000C0CA202D20CDE5F220EEF2E259
:10196000E5F2E0000000000000CEF2F1F3F22DE518
:1019700020F1E8E3EDE0EBE020CFF3F1EA00CEF276
:10198000F1F3F22DE520F1E8E3ED20CEF1F2E0ED08
:10199000EEE200C2FBEAEBFEF7E5EDE8E520E0EF62
:1019A000EFE0F0E0F2E00000CFEEECE5F5E020E261
:1019B00020EBE8EDE8E800000000000000CDE5E8DD
:1019C000F1EFF0E0E2EDEEF1F2FC20C4D4C700004C
:1019D0000000D3E43A20C0CA202D20EDE5F220EE2D
:1019E000F2E2E5F2E00000D3E43A20CFEEECE5F5D8
:1019F000E020E220EBE8EDE8E8000000D3E43A2044
:101A0000CDE5E8F1EFF02E20C4D4C70000000000BF
:101A100000D3E43A20CDE5E8F1EFF02E20F6E5EF33
:101A2000E820E2FBF500CFEEF0EEE320EFEE20EF52
:101A3000EEECE5F5E5000000000000D1EEE1FBF280
:101A4000E8E5202D202564000000000000000000D3
:101A5000D1EEE1FBF2E8E5202D2025640000000036
:101A60000000000000D1EEE1FBF2E8E5202D20258A
:101A700064000000000000000000D1EEE1FBF2E88D
:101A8000E5202D202564000000000000000000D1AA
:101A9000EEE1FBF2E8E5202D2025640000000000C7
:101AA00000000000D1EEE1FBF2E8E5202D202564E6
:101AB000000000000000000000D1EEE1FBF2E8E5CC
:101AC000202D203000000000000000000000C2EACD
:101AD000EB2E20EFE8F2E0EDE8FF2FEFE5F0E5E791
:101AE000E0EF00C2FBEAEBFEF7E5EDE8E520EFE80A
:101AF000F2E0EDE8FF000000C8E7ECE5EDE5EDE819
:101B0000E520F0E5E6E8ECE020F0E0E100C8E7ECF5
:101B1000E5EDE5EDE8E520EFE0F0E0ECE5F2F0EEF4
:101B2000E200CDE5E8F1EFF020F2E5F1F2E020CFC0
:101B3000D0C40000000000CDE5E8F1EFF020F2E5B0
:101B4000F1F2E020CFD0CC0000000000D1EEE1FBAC
:101B5000F2E8E5202D203700000000000000000022
:101B600000CDE5E8F1EFF020E1EBEEEAE020C1D1B5
:101B7000CA0000000000C8E7ECE5EDE5EDE8E5206F
:101B8000E4E0F2E02FE2F0E5ECFF00D1EEE1FBF261
:101B9000E8E5202D203130000000000000000000AA
:101BA000D1EEE1FBF2E8E5202D203131000000000C
:101BB0000000000000D1EEE1FBF2E8E5202D20312D
:101BC00032000000000000000000C0E2E0F0E8FF8A
:101BD00020EFEE204400000000000000000000CFD5
:101BE000F0E5E4F3EFF0E5E6E4E5EDE8E520EFEE1F
:101BF00020440000CDE5E8F1EFF020F7F2E5EDE854
:101C0000FF20EAEEECE0EDE400C2EEF1F1F2E0EDEF
:101C1000EEE2EBE5EDE8E520440000000000CDE554
:101C2000E8F1EFF02E20F0E0E1EEF2FB204453501B
:101C3000000000C2EEF1F1F2E0ED2DE520F0E0E170
:101C4000EEF2FB2044535000CDE8E7EAEEE520ED4C
:101C5000E0EFF02E20E2FBF5EEE4E00000C2FBF145
:101C6000EEEAEEE520EDE0EFF02E20E2FBF5EEE40B
:101C7000E000CDE5F220CAD7203520F1E5EA20EDDD
:101C8000E0202553000000CDE5F220CAD720EDE08A
:101C9000202553000000000000000000C2EEF1F11A
:101CA000F2E0ED2DE520CAD720EDE020255300001D
:101CB00000C2EEF1F1F22EF3F02E20CAD720EDE0B3
:101CC000202553000000CDE5E8F1EFF020F7F22FDA
:101CD000E7E0EF203252414D000000CDE5E8F1EFA2
:101CE000F020F7F22FE7E0EF20CFCBC8D1000000C3
:101CF000CDE5E8F1EFF020F7F22FE7E0EF20464CDA
:101D00004153480000CDE5E8F1EFF0E0E2EDEEF1FF
:101D1000F2FC20F7E0F1EEE20000D1EDE8E62EF370
:101D2000F02E20CAD720EDE020255300000000CE81
:101D3000F8E8E1EAE020F0E0E1EEF2FB20D6CF00A7
:101D400000000000C2F5EEE420525820D6CF20EF6C
:101D5000F3F1F2000000000000D0E0E1EEF2E0203C
:101D6000D6CF20E2EEF1F1F2E0EDEEE2EB00C2FBC5
:101D7000F1EEEAE0FF20F2E5ECEFE5F0E0F2F3F05F
:101D8000E00000CDE8E7EAE0FF20F2E5ECEFE5F067
:101D9000E0F2F3F0E0000000CDEEF0ECE0EB2E20FE
:101DA000F2E5ECEFE5F0E0F2F3F0E00000CDE5E87D
:101DB000F1EFF02EE4E0F2F7E8EA20F2E5ECEFE5EF
:101DC000F000C8F1EFF0E0E22EE4E0F2F7E8EA20FC
:101DD000F2E5ECEFE5F000D1EEE1FBF2E8E5202DD5
:101DE000202564000000000000000000C7C0D900EA
:101DF00000CFD0CC3100CFD0CC3200CFD0C4000047
:101E0000CEC1D90000CF312C3200CED8C10000D1D4
:101E1000EEE1FBF2E8E5202D202564000000000043
:101E200000000000C2EAEB2E20EFE8F2E0EDE8FF50
:101E30002FEFE5F0E5E7E0EF00C2FBEAEBFEF7E5A8
:101E4000EDE8E520EFE8F2E0EDE8FF000000C8E78C
:101E5000ECE5EDE5EDE8E520F0E5E6E8ECE020F086
:101E6000E0E100D3E4E0EBE5EDEDFBE920EDE5E8B2
:101E7000F1EFF0E0E2E5ED00CDE5E8F1EFF020F282
:101E8000E5F1F2E020CFD0C40000000000CDE5E88D
:101E9000F1EFF020F2E5F1F2E020CFD0CC0000002D
:101EA0000000CDE5E8F1EFF020E1EBEEEAE020C143
:101EB000D1C70000000000CDE5E8F1EFF020E1EB34
:101EC000EEEAE020C1D1CA0000000000CDE5E8F153
:101ED000EFF020EFE5F0E5EAEB2DE5E920C1D1C711
:101EE00000CDE5F220F1E8E3EDE0EBE020ECE0ED01
:101EF000E8EFF3EB2E00CDE5E8F1EFF020E2FBF5A3
:101F0000EEE4EDEEE920F6E5EFE800CDE5F220D0D5
:101F1000C7203520F1E5EA20EDE020255300000040
:101F2000CEF2F1F3F22DE520F1E8E3EDE0EBE02075
:101F3000CFF3F1EA00CEF2F1F3F22DE520F1E8E380
:101F4000EDE0EBE020D1F2EEEF00CDE5E8F1EFF0CF
:101F500020F7F2E5EDE8FF20EAEEECE0EDE400D159
:101F6000EDE8E62E20F3F02E20CAD720EDE0202564
:101F700053000000CDE5E8F1EFF02E20F0E0E1EEB7
:101F8000F2FB20445350000000C2EEF1F1F2E0ED0C
:101F90002DE520F0E0E1EEF2FB2044535000CDE8C7
:101FA000E7EAEEE520EDE0EFF02E20E2FBF5EEE4CF
:101FB000E00000C2FBF1EEEAEEE520EDE0EFF02EEE
:101FC00020E2FBF5EEE4E000CDE5F220CAD72035B3
:101FD00020F1E5EA20EDE0202553000000CDE5F2F8
:101FE00020CAD720EDE020255300000000000000AB
:101FF0000000C2EEF1F1F2E0ED2DE520CAD720EDB0
:10200000E0202553000000C2EEF1F1F22E20F3F0A3
:102010002ECAD720EDE0202553000000CDE5E8F1E1
:10202000EFF020F7F22FE7E0EF203252414D0000B1
:1020300000CDE5E8F1EFF020F7F22FE7E0EF20CF59
:10204000CBC8D1000000CDE5E8F1EFF020F7F22F8A
:10205000E7E0EF20464C4153480000CDE5E8F1EFC2
:10206000F0E0E2EDEEF1F2FC20F7E0F1EEE200004C
:10207000D1EDE8E62E20F3F02E20D0C720EDE020B1
:102080002553000000C2EEF1F1F2E0ED2DE520D085
:10209000C720EDE0202553000000CDE5F220D0C799
:1020A00020EDE0202553000000000000000000C2E9
:1020B000EEF1F1F22E20F3F02ED0C720EDE0202536
:1020C00053000000D1EEE1FBF2E8E5202D2025646D
:1020D000000000000000000000D1EEE1FBF2E8E5A6
:1020E000202D202564000000000000000000D1EE3B
:1020F000E1FBF2E8E5202D2025640000000000004F
:10210000000000D1EEE1FBF2E8E5202D202564007F
:102110000000000000000000D1EEE1FBF2E8E52045
:102120002D202564000000000000000000D1EEE139
:10213000FBF2E8E5202D20256400000000000000EF
:102140000000D1EEE1FBF2E8E5202D20256400003F
:1021500000000000000000CDE5E8F1EFF020F7F20C
:102160002FE7E0EF20464C4153480000CDE5E8F171
:10217000EFF020F7F22FE7E0EF203252414D000060
:1021800000CDE5E8F1EFF020F7F22FE7E0EF20CF08
:10219000CBC8D1000000CAEEEBFCF6EE20EDE0F07B
:1021A000F3F8E5EDEE000000000000CDE5E8F1EF0A
:1021B000F020F2E5F1F2E020CFD0C40000000000F2
:1021C000CDE5E8F1EFF020E2FBEAEB2EF2E5F1F2EB
:1021D00020CFD0C400CDE5E8F1EFF020F2E5F1F238
:1021E000E020CFD0CC0000000000CDE5E8F1EFF01A
:1021F00020F7F22EEAEEECE0EDE420C1D1CA00CDEA
:10220000E5F220E1EBEEEAE020C1D1CA00000000D7
:1022100000000000CEF8E8E1EAE020E2E5F0F1E8B5
:10222000E820C1D1CA00000000CEF2EAE0E720F0C9
:10223000E5E7E5F0E22E20EBE8EDE8E80000CDE58B
:10224000E8F1EFF0E0E2EDEEF1F2FC20F7E0F1EE84
:10225000E20000CAEEEBFCF6EE20E2EEF1F1F2E075
:10226000EDEEE2EBE5EDEE00C4E8F1F2E0EDF6E8CC
:10227000EEEDEDFBE920F1E1F0EEF10000CAEEEC4D
:10228000E0EDE4E020EDE520E2E5F0EDF3EBE0F158
:10229000FC00CDE5F220F1E8E3EDE0EBE020CCC07E
:1022A000CD000000000000C2EAEB2EEFE8F22FCFD5
:1022B000E5F0E5E7E0EFF3F1EA000000C8E7ECE560
:1022C000EDE5EDE8E520F0E5E6E8ECE000000000F3
:1022D00000CDE5E8F1EFF020F6E5EFE820E2FBF5D0
:1022E0002E0000000000C2EEF1F1F2E0ED2DE5203D
:1022F000CAD120EDE020CFD0CC0000C2EEF1F1F247
:10230000E0ED2DE520CAD120C1D6CA310000000081
:10231000C2EEF1F1F2E0ED2DE520CAD120C1D6CA1E
:102320003200000000CDE5F220CAD120C1D6CA316A
:1023300000000000000000000000CDE5F220CAD13E
:1023400020C1D6CA3200000000000000000000C218
:10235000FBEAEBFEF7E5EDE8E520EFE8F2E0EDE87B
:10236000FF000000CDE5F220CAD10000000000000F
:10237000000000000000000000CDE5F220CAD120DE
:102380003520F1E5EAF3EDE4000000000000D3E4BD
:102390003A20EFEEF1F220EDE5E8F1EFF0E0E2E5D2
:1023A000ED0000D3E43A20CFD0C420EDE5E8F1EF12
:1023B000F0E0E2E5ED000000D3E43A20CFD0CC20FD
:1023C000EDE5E8F1EFF0E0E2E5ED000000C8E7EC54
:1023D000E5EDE5EDE8E520E4E0F2E02FE2F0E5EC04
:1023E000FF00C8E7ECE5EDE5EDE8E520EFE0F0E023
:1023F000ECE5F2F0EEE200D1EEE1FBF2E8E5202DB3
:10240000202564000000000000000000D1EEE1FB88
:10241000F2E8E5202D202564000000000000000007
:1024200000D1EEE1FBF2E8E5202D2025640000005C
:10243000000000000000D1EEE1FBF2E8E5202D20D5
:102440002564000000000000000000D1EEE1FBF276
:10245000E8E5202D202564000000000000000000B9
:10246000D1EEE1FBF2E8E5202D202564000000001C
:102470000000000000D1EEE1FBF2E8E5202D202570
:1024800064000000000000000000CDE5E8F1EFF07E
:1024900020F7F22FE7E0EF20464C4153480000CDF3
:1024A000E5E8F1EFF020F7F22FE7E0EF20325241BC
:1024B0004D000000CDE5E8F1EFF020F7F22FE7E066
:1024C000EF20CFCBC8D1000000D1EEE1FBF2E8E570
:1024D000202D202564000000000000000000CDE554
:1024E000E8F1EFF020F2E5F1F2E020CFD0C40000F7
:1024F000000000CDE5E8F1EFF020E2FBEAEB2EF280
:10250000E5F1F220CFD0C400CDE5E8F1EFF020F204
:10251000E5F1F2E020CFD0CC0000000000CDE5E8EE
:10252000F1EFF020F7F22EEAEEECE0EDE420C1D17D
:10253000CA00CDE5F220E1EBEEEAE020C1D1CA000D
:1025400000000000000000CEF8E8E1EAE020E2E54B
:10255000F0F1E8E820C1D1CA00000000CEF2EAE0C4
:10256000E720F0E5E7E5F0E22E20EBE8EDE8E80013
:1025700000CDE5E8F1EFF0E0E2EDEEF1F2FC20F75E
:10258000E0F1EEE20000CDE5F220E1EBEEEAE02042
:10259000C1D1C70000000000000000CEF8E8E1EA69
:1025A000E020E2E5F0F1E8E820C1D1C7000000003A
:1025B000CDE5E8F1EFF020EFE5F0E5EAEB2DE5E918
:1025C00020C1D1C700CDE5F220F1E8E3EDE0EBE07A
:1025D00020CCC0CD000000000000C2EAEB2EEFE8E6
:1025E000F22FCFE5F0E5E7E0EFF3F1EA000000C8F5
:1025F000E7ECE5EDE5EDE8E520F0E5E6E8ECE00008
:1026000000000000CDE5E8F1EFF020F6E5EFE8206E
:10261000E2FBF52E0000000000C2EEF1F1F2E0ED69
:102620002DE520CAD120EDE020CFD0CC0000CEF89F
:10263000E8E1EAE020F0E0E1EEF2FB20D6CF000096
:10264000000000C2EEF1F1F2E0ED2DE520F0E0E156
:10265000EEF2FB20D6CF0000CEF2F1F3F22DE52012
:10266000F1E8E3EDE0EBE020CFF3F1EA00CEF2F1A8
:10267000F3F22DE520F1E8E3ED20CEF1F2E0EDEE0E
:10268000E200C2FBEAEBFEF7E5EDE8E520EFE8F259
:10269000E0EDE8FF000000CDE5F220CAD100000027
:1026A000000000000000000000000000CDE5F22066
:1026B000CAD1203520F1E5EAF3EDE4000000000086
:1026C00000D3E43A20EFEEF1F220EDE5E8F1EFF08F
:1026D000E0E2E5ED0000D3E43A20CFD0C420EDE500
:1026E000E8F1EFF0E0E2E5ED000000D3E43A20CFBE
:1026F000D0CC20EDE5E8F1EFF0E0E2E5ED00000000
:10270000C8E7ECE5EDE5EDE8E520E4E0F2E02FE2F6
:10271000F0E5ECFF00C8E7ECE5EDE5EDE8E520EFDE
:10272000E0F0E0ECE5F2F0EEE200D1EEE1FBF2E801
:10273000E5202D202564000000000000000000D1ED
:10274000EEE1FBF2E8E5202D20256400000000000A
:1027500000000000D1EEE1FBF2E8E5202D20256429
:10276000000000000000000000D1EEE1FBF2E8E50F
:10277000202D202564000000000000000000D1EEA4
:10278000E1FBF2E8E5202D202564000000000000B8
:10279000000000D1EEE1FBF2E8E5202D20256400E9
:1027A0000000000000000000C6F3F0EDE0EB5CD19B
:1027B000EEE1FBF2E8FF0025642E20C1E5E7EEEF35
:1027C000E0F1EDEEF1F2FC0025642E20CFE5F0E51E
:1027D000E4E0F2F7E8EA0025642E20CFF0E8E5EC2B
:1027E000EDE8EA0025642E20C7E0F9E8F2E00025D4
:1027F000642E20D1EEE1FBF2E8FF00CCE5EDFE5CBB
:10280000C6F3F0EDE0EB00C1D1CF20CCCA20200010
:10281000C1D1CF20D6D1CF2000D6D1CF20CFCBC8A9
:10282000D100CFC82020CCCA202000C1D1CA20CFDF
:10283000D0C43100C1D1CA20CFD0C43200C1D1CA66
:1028400020CFD0CC3100C1D1CA20CFD0CC3200C1F2
:10285000D1C720CFCBC8D100EEF8E8E1EAE0000014
:102860000025533A20253032582E2530325800CCDE
:10287000E5EDFE5CC8EDF4EEF0ECE0F6E8FF0025D7
:10288000642E20C8E7ECE5F0E5EDE8FF0025642EB6
:1028900020C8EDF4EEF0ECE0F6E8FF0025642E2011
:1028A000D2E5F1F2FB0025642E20CDE0F1F2F0EE4E
:1028B000E9EAE00025642E20D3EFF0E0E2EBE5ED5D
:1028C000E8E50025642E20C6F3F0EDE0EB00CCE552
:1028D000EDFE00C0C2C0CDD220D03430300000CFD9
:1028E000C2C72D3930000000000000C0C2C7CA2D89
:1028F00038300000000000CFC2C7D32DC500000053
:10290000000000CFC2C7CB0000000000000000CBD9
:10291000C8CDC8DF2DD00000000000CFC2C7CA005C
:1029200000000000000000C0CA2DEEF8E8E1000041
:10293000C0CA2DEDEEF0EC0000C0CA2DEDEEF0ECBB
:102940000000C0CA2DF3F1EAEEF000C0CA2DE2FB90
:10295000EAEB0000C0CA2DE1E5E3EB0000C0CA2DA0
:10296000E8F1EFFBF200C0CA2DEFF3F1EA0000C07E
:10297000CA2DEEE4EDEEF100C0CA2DEEF8E8E1005C
:1029800000C0CA2DE0E2F2EE0000C0CA2DEFF0EE6A
:10299000E20000D1EEE2ECE5F1F2E8EC2E20255366
:1029A00000253032643A253032643A2530326400F2
:1029B000202020D1E1F0EEF120EFE0F0EEEBE5E9B0
:1029C000202020000020202020EA20E7E0E2EEE4A2
:1029D000F1EAE8EC20202020000020202020EDE07B
:1029E000F1F2F0EEE9EAE0EC2020202020000020C7
:1029F000202020C8EDE8F6E8E0EBE8E7E0F6E8FFA5
:102A00002020200020202020CFE5F0E5E9E4E8F2B6
:102A1000E520E2202020202000202020F0E5E6E82C
:102A2000EC20C2DBC2C5C4C5CD2020202000202060
:102A3000202020C2FBE1EEF020F0EEEBE820202089
:102A400020200020202020E7E0E1EBEEEAE8F0EE95
:102A5000E2E0ED202020200020202020D2E8EF20FE
:102A6000E0EFEFE0F0E0F2E0202020200020202046
:102A7000EDE520EEEFF0E5E4E5EBE5ED21212120A9
:102A8000200020202020202020C2E2E5E4E5ED20E7
:102A90002020202020200020202020EDE5EFF0E065
:102AA000E2E8EBFCEDFBE9202020200020202020A4
:102AB000202020EFE0F0EEEBFC2020202020202042
:102AC0000020C8E7ECE5EDE8F2FC20EFE0F0E0ECF8
:102AD000E5F2F02020002020ECEEE6EDEE20F2EE14
:102AE000EBFCEAEE20E220202020002020F0E5E6AA
:102AF000E8ECE520C2DBC2C5C4C5CD202020200003
:102B000020CDE5E4EEF1F2E0F2EEF7EDEE20EFF0AD
:102B1000E0E2202000202020E4EBFF20E8E7ECE5C5
:102B2000EDE5EDE8FF2020202000CFF0E5E4F3EF15
:102B3000F0E5E6E4E5EDE8E500CDE5E8F1EFF0E00D
:102B4000E2EDEEF1F2FC00CDE5F220CAD100CFD0EB
:102B5000C420CAD12530317500CDE5F220CAD1009C
:102B6000CFD0CC20CAD12530317500CDE5F220CAB6
:102B7000D100CDE5E8F1EFF02EF7F22E20464C41E2
:102B8000534800CDE5E8F1EFF02EE7E0EF2E464C9C
:102B900041534800CDE5E8F1EFF02EF7F22E20503A
:102BA0004C495300CDE5E8F1EFF02EE7E0EF2E5071
:102BB0004C495300CDE5E8F1EFF02EE7E0EF2E327F
:102BC00052414D00CDE5E8F1EFF02EF7F22E203224
:102BD00052414D2000D3F1F2E0EDEEE2E8F2E520C3
:102BE000F7E0F1FB00CEF2EAE0E720F0E5E7E5F000
:102BF000E22EEBE8ED00CAEEEC2EEDE520E2E5F08A
:102C0000EDF3EBE0F1FC00CAEEEBFCF6EE20EDE0BC
:102C1000F0F3F8E5EDEE00CAEEEBFCF6EE20312025
:102C2000EDE0F0F3F82E00CAEEEBFCF6EE203220D9
:102C3000EDE0F0F3F82E00D3E4E0EB2ECFCED1D2CE
:102C400020EDE5E8F1EFF000D3E4E0EB2ECFD0C4C7
:102C500020EDE5E8F1EFF000D3E4E0EB2ECFD0CCAF
:102C600020EDE5E8F1EFF000CDE5F220CAD120ED4E
:102C7000E020C1D6CA3100CDE5F220CAD120EDE076
:102C800020C1D6CA3200CEF8E8E1EAE020F0E0E167
:102C9000EEF2FB20D6CF00CDE5F220E1EBEEEAE04C
:102CA00020C1D1C700CDE5E8F1EFF02EE2E5F0F16B
:102CB0002EC1D1C700CDE5E8F1EFF02EEFE5F0E54C
:102CC000EAEB2E00CDE5F220CAD100CDE5E8F1EF28
:102CD000F02EE2F5EEE42ECFD3D1CA00CDE5E8F137
:102CE000EFF02EE2F5EEE42ED1D2CECF00CDE5E826
:102CF000F1EFF02EF6E5EFFC20C2DBD500CDE5E8E4
:102D0000F1EFF02EE7E0EF2E20C2DBD500CDE5F2AB
:102D100020CAD100CDE5F220F1E8E3EDE0EBE020C0
:102D2000CCC0CD00CDE5F220E1EBEEEAE020C1D150
:102D3000CA00CDE5E8F1EFF02EE2E5F0F12E20C17A
:102D4000D1CA00CDE5F220CAD100CDE5E8F1EFF01F
:102D50002EE7E0EF2E20C1D1CA00CDE5E8F1EFF07B
:102D60002EE2FBEAEB2EEAEEEC2E00CDE5E8F1EFE9
:102D7000F02EE2EAEB2E20EAEEEC2E00CDE5E8F1B3
:102D8000EFF02EEAEEEDF2F02EEAEEEC00CDE5F2F9
:102D900020CAD100CDE5F220E1EBEEEAE020C1D17E
:102DA000CA00CDE5E8F1EFF02EE2E5F0F12E20C10A
:102DB000D1CA00CDE5E8F1EFF02EF7F22EEAEEEC05
:102DC000E0EDE400CDE5E8F1EFF02EE2FBEAEB2EDA
:102DD000D2E5F1F200CDE5E8F1EFF02EE2EAEB2EDC
:102DE00020D2E5F1F200CDE5E8F1EFF02EE2F5EECC
:102DF000E42E20EAEEEC00CDE5F220D0C700CFD0E3
:102E0000C420CAD72530317500CDE5F220CAD700DD
:102E1000CFD0CC20CAD72530317500CDE5F220CAFD
:102E2000D700C0CA2DCDE5F220EEF2E2E5F2E000D7
:102E3000C0CA2DD1EDE8E6E5ED2EE7E0EFE0F1E0E8
:102E400000CFEEECE5F5E020E220EBE8EDE8E8006D
:102E5000CDE5E8F1EFF02E445350203252414D20A1
:102E600000D2EEEA20EFEEEAEEFF00CDE8E7EAEE70
:102E7000E520EDE0EFF02EE2FBF500C2FBF1EEEA1B
:102E8000EEE520EDE0EFF02EE2FBF500CDE5E8F118
:102E9000EFF02E20CCCA20D3CC00C2D720F2F0E035
:102EA000EAF220E2EEF1F1F22E00C0CA2DCDE5F2F9
:102EB00020EEF2E2E5F2E0255300CDE5E8F1EFF097
:102EC0002EF3E42EC4D4C7255300CDE5E8F1EFF08E
:102ED0002EF3E42EC2DBD5255300D3E4E0EB2EE144
:102EE000E5E720EEF2E22E255300D3E4E0EB2EEEF0
:102EF000E1ED2EEFEEEC2E255300CFEEECE5F5E004
:102F000020E220EBE8EDE8E800CDE5E8F1EFF02E77
:102F100020C4D4C700C0CA2DD1ED2EE7E0EFE0F108
:102F2000E020255300CFEEF0EEE320EFEE20EFEEB1
:102F3000ECE5F5E500C0E2F2EEEAEEEDF2F0EEEBE4
:102F4000FC00CDE5F220F1E8E3EDE0EBE020D0C7B6
:102F500000D3E4E0EB2E20EDE5E8F1EFF0E0E2E570
:102F6000ED00CDE8E7EAE8E920F3F0EEE22E20D02C
:102F7000C700CDE5F220CAD700D1EDE8E62E20F358
:102F8000F0EEE2EDFF20CFD0CC00CEF8E8E1EAE0B1
:102F900020F0E0E1EEF2FB20D6CF00C2F5EEE42017
:102FA000525820D6CF20EFF3F1F200C2FBF1EEEA47
:102FB000E0FF20F2E5ECEFE5F0E0F200CDE8E7EA33
:102FC000E0FF20F2E5ECEFE5F0E0F200CDE5E8F11E
:102FD000EFF02E20E4E0F22EF2E5ECEF00CDE8E792
:102FE000EAE8E920F3F0EEE2E5EDFC204400CEF85B
:102FF000E8E1EAE020F0E0E1EEF2FB20D6CF00C20B
:10300000F5EEE420525820D6CF20EFF3F1F200CDB8
:10301000E8E7EAE8E920F3F0EEE2E5EDFC20440021
:1030200020CDE5F220F1E2FFE7E820F120C1D1CF89
:103030002121212000C8F1F5EEE4ED2E00CAEEEDCD
:10304000F2F0EEEBFC00CFF3F1EA00CEF1F2E0EDAE
:10305000EEE200CDE5E8F1EFF02E00CF2EEDE5E851
:10306000F1EFF000CEE6E8E4E0EDE8E500CDE0EBDE
:103070002EEFF3F1EA00D3E42EEFF3F1EA00D0E50E
:10308000F7FC00CFD0C400CFD0CC00D3EFF02E207F
:10309000D2CC00CEF8E8E1EAE000C8F1F5EEE4EDCC
:1030A0002E00CFD0CC20CFC02530327500CDE5E842
:1030B000F1EFF02E00CF2EEDE5E8F1EFF000CEE6D7
:1030C000E8E4E0EDE8E500C1CBCA20CACC25303207
:1030D00075003F307830383F003F307830393F005E
:1030E000D0E5F7FC00CFD0C400CFD0CC00D3EFF0B8
:1030F0002E20D2CC00C8F1F5EEE4ED2E00CFD0C4E6
:1031000020CFC02530327500CDE5E8F1EFF02E007C
:10311000CF2EEDE5E8F1EFF000CEE6E8E4E0EDE8F3
:10312000E5003F307830373F00CFD0C420D6CF25E0
:1031300030327500D1E8F1F2E5EC2E00D0E5F7FC75
:1031400000CFD0C400CFD0CC00D3EFF02E20D2CC13
:1031500000CFD0C400CFD0CC00C7C0D900CDC5D2DD
:103160000001080106030704050101010E0B090116
:1031700001010A010801060307010504010F0C10F3
:10318000091112130D010801060307010504010FBF
:103190000C0B090D0E0101010801060307040501CE
:1031A00001010E0B090101010A00000000000000EE
:1031B0004F00000007000700147F147F14242A7FAB
:1031C0002A12231308646236495522400005030081
:1031D00000001C2241000041221C0014083E08147B
:1031E00008083E08080050300000080808080800D9
:1031F0006060000020100804023E5149453E004234
:103200007F400042615149462141454B311814121B
:103210007F1027454545393C4A4949300171090528
:10322000033649494936064949291E003636000009
:10323000005636000008142241001414141414001F
:10324000412214080201510906324971413E7E11A2
:1032500011117E7F494949363E414141227F41411A
:10326000221C7F494949417F090909013E414949D9
:103270003A7F0808087F00417F41002040413F011C
:103280007F081422417F404040407F020C027F7F34
:103290000408107F3E4141413E7F090909063E4135
:1032A00051215E7F09192946464949493101017F6B
:1032B00001013F4040403F1F2040201F3F407040E1
:1032C0003F631408146307087008076151494543B8
:1032D000007F41410002040810200041417F0004AA
:1032E000020102044040404040000102040020541A
:1032F0005454787F48444438384444442038444443
:10330000487F3854545418087E0901020C52525216
:103310003E7F0804047800447D40002040443D0086
:103320007F1028440000417F40007C041804787C12
:103330000804047838444444387C141414080814ED
:1033400014187C7C080404084854545420043F4456
:1033500040203C4040207C1C2040201C3C40304011
:103360003C44281028440C5050503C4464544C4475
:10337000000836410000007F0000004136080002CE
:103380000102020114141414140E0A0E0000242465
:103390002F24247F7F7F7F7F7F7F7F7F7F7F7F7F43
:1033A0007F7F7F7F7F7F7F7F7F7F7F7F7F7F7F7F2D
:1033B0007F7F7F7F7F7F7F7F7F7F7F7F7F7F7F7F1D
:1033C0007F7F7F7F7F7F7F7F7F7F7F7F7F7F7F7F0D
:1033D0007F7F7F7F7F7F7F7F7F7E1111117E7F497F
:1033E0004949337F494949367F01010103E0514F83
:1033F00041FF7F4949494177087F08774149494959
:10340000367F1008047F7C2112097C7F081422413A
:1034100020413F017F7F020C027F7F0808087F3E2A
:103420004141413E7F0101017F7F090909063E417B
:1034300041412201017F010147281008071C227F1A
:10344000221C63140814637F404040FF07080808EB
:103450007F7F407F407F7F407F40FF017F48483033
:103460007F4830007F007F484830224149493E7FF5
:10347000083E413E462919097F20545454783C4A5D
:103480004A49317C545428007C0404040CE0544C18
:1034900044FC38545454186C107C106C44445454FC
:1034A000287C2010087C7C4122117C7C1028440060
:1034B00020443C047C7C0810087C7C1010107C3874
:1034C000444444387C0404047C7C141414083844B8
:1034D00044442004047C04040C5050503C3048FC0C
:1034E000483044281028447C404040FC0C10101008
:1034F0007C7C407C407C7C407C40FC047C505020A8
:103500007C5050207C7C5050200028445454387CFF
:1035100010384438085434147CDB3503362B3653CA
:10352000367B36A336CB36F3361B3743376B3793B0
:1035300037BB37E3370B3833385B388338AB38D396
:1035400038FB3823394B3973399B39C339EB39137D
:103550003A3B3A633A8B3AB33ADB3A033B2B3B5361
:103560003B7B3BA33BCB3BF33B1B3C433C6B3C9348
:103570003CBB3CE33C0B3D333D5B3D833DAB3DD32E
:103580003DFB3D233E4B3E733E9B3EC33EEB3E1315
:103590003F3B3F633F8B3FB33FDB3F03402B4053F9
:1035A000407B40A340CB40F3401B4143416B4193E0
:1035B00041BB41E3410B4233425B428342AB42D3C6
:1035C00042FB4223434B4373439B43C343EB4313AD
:1035D000443B4463448B44B344DB4400000000009C
:1035E00000000000000000000000000000000000DB
:1035F000000001000345010000010001010001007D
:10360000000100D1E8EDF5F0EEEDE8E7E0F6E8FFC7
:1036100020F7E0F1EEE20000350100000445010072
:103620000003000101030100000101CDEEECE5F013
:1036300020E0EFEFE0F0E0F2E0000000000000002A
:103640003B020200034501010003000101020102E7
:10365000000101CDEEECE5F020E0EFEFE0F0E0F26C
:10366000E0000000000000003B02020003450101F1
:1036700000FF000101020100000101CAEEEDF2F0BD
:10368000EEEBFC20E2FBF52EF1E8E3EDE0EBE000F1
:103690003D01010028450100000200010102010076
:1036A000000101CFEEF0EEE320EFF0E5E4F3EFF000
:1036B000E5E6E4E5EDE8FF003C0202090345010010
:1036C0000016000101040100000101CFEEF0EEE35D
:1036D00020EFF0E5E4F3EFF02E20EFEE20CA4300F8
:1036E0003C0202090345010000160001010401002B
:1036F000000101C2F0E5ECFF20EFE5F0E5E7E0EFC7
:10370000F3F1EAE00000000039020207034501007E
:103710000005000101020100000101D3E4E5F0E62B
:103720002E20F0E5EBE520EAEEEC2E20CFD0C40011
:1037300037010100284501000002000101030100DA
:10374000000101D3E4E5F0E62E20F0E5EBE520EA08
:10375000EEEC2E20CFD0CC00360101002845010030
:103760000002000101020100000101C7E0E3F0F3E3
:10377000E1EB2E20F7F3E2F1F2E22E20CFD0CC00E5
:103780003C02020903450200001600010104020088
:10379000010101D1E5F2E5E2EEE920E0E4F0E5F136
:1037A0000000000000000000380202000345010193
:1037B00000F700010104010000000155E2FBF520C3
:1037C000EDEEECE8EDE0EBFCEDEEE50000000000D6
:1037D0003602020403450112003200010102010019
:1037E000000101D7E0F1F2EEF2E00000000000007D
:1037F00000000000000000003A02030B0345010036
:1038000000E8030101050100000101D1EEE2ECE551
:10381000F1F2E8ECEEF1F2FC000000000000000024
:1038200037010000404501000007000101030100CD
:10383000000101D1EDE8E6E5EDE8E520EEF2E2E594
:10384000F2E020C0CA00000039020209034501006D
:103850000014000101040100000101D2E8EF20E49E
:10386000E5F2E5EAF2EEF0E0000000000000000002
:1038700035020200034501010003000101030200BB
:10388000000101CAEEF0F0E5EAF6E8FF20EDE0EF16
:10389000F0FFE6E5EDE8FF0033030404034501A86B
:1038A000FD58020101080100000000CAEEF0F0E539
:1038B000EAF6E8FF20F2EEEAE00000000000000077
:1038C0003304050103450119FCE703010109020066
:1038D000000000CFF0EEF2EEEAEEEB20EEE1ECE5D8
:1038E000EDE00000000000003901000094450101F6
:1038F0000002000101040100000101CFF0E8E7ED42
:10390000E0EA20F7E5F2EDEEF1F2E8000000000059
:1039100039010000AC450101000200010104020070
:10392000000101C4EEEFF3F1F2E8ECFBE520EFF06B
:10393000EEE2E0EBFB0000003902020C034501005F
:103940000050000201040300000101CFEEF0EEE39D
:1039500020EFEE20EFEEECE5F5E5000000000000C2
:10396000390202070345010000FF000101040400C1
:10397000000101C4EEEFF3F1F2E8ECE0FF20EFEE1E
:10398000ECE5F5E0000000003902020C03450114EB
:103990000050001401040500000101D2E8EF20E00E
:1039A000E2F2EEEAEEEDF2F0EEEBFF0000000000D6
:1039B00039010000C44501010003000101040600B3
:1039C000000101CFE5F0E8EEE420E1E5E3EBEEE312
:1039D000EE20C0CA000000003902020703450101C1
:1039E00000FF000101040700000101CFE5F0E8EE4F
:1039F000E420EFEEE2F22EE1E5E3EB2E20C0CA0078
:103A0000390202070345010100FF0001010408001B
:103A1000000101D0E5E7E5F0E2E8F0EEE2E0EDE8F4
:103A2000E50000000000000033010100284501000E
:103A30000002000101040100000101D1EEE2ECE509
:103A4000F1F2E8ECEEF1F2FC0000000000000000F2
:103A500037010000E8450100000D000101030200EC
:103A6000000101D2E8EF20EBE8EDE8E800000000FB
:103A70000000000000000000020100008446010177
:103A80000002000101020100000101D2E5EBE5ECBA
:103A9000E5F5E0EDE8EAE0000000000000000000CD
:103AA0003701010028450100000200010103030065
:103AB000000101CFEEF0EEE320EFF0E5E4F3EFF0EC
:103AC0002E20EFEE2044000037020209034501C01A
:103AD000FF40000101030400000101CFEEF0EEE31E
:103AE00020E0E2E0F0E8E820EFEE204400000000F3
:103AF00037020209034501C0FF4000010103050030
:103B0000000101CAEEEDF2F0EEEBFC20F2E5ECEF85
:103B1000E5F0E0F2F3F0FB00370101002845010079
:103B20000002000101030600000101C2E5F0F52ECC
:103B3000E7EDE0F7E5EDE8E520F2E5ECEFE5F00094
:103B40003702020C03450100006400010103070075
:103B5000000101CDE8E6ED2EE7EDE0F7E5EDE8E563
:103B600020F2E5ECEFE5F0003702020C034501001E
:103B70000064000101030800000101D1EAEEF0EE4B
:103B8000F1F2FC20D2CC0000000000000000000098
:103B9000370100009C4601000002000101030900FA
:103BA000000101D2E8EF20E7E0F9E8F2FB000000B5
:103BB000000000000000000001010000B446010008
:103BC0000008000101020100000101C4EEEF2E20F7
:103BD000E2F0E5ECFF20E1E5E720ECE0ED2E00006F
:103BE0000302020803450100006300010102010015
:103BF000000101CFE5F0E5EAF0FBF2E8E520E8ECB2
:103C0000EFF3EBFCF1EEE2000502020C03450100CC
:103C10000036000201020100000101CFE5F0E5EAF3
:103C2000F0FBF2E8E520E8ECEFF3EBFCF1EEE2006C
:103C30000502020C034501120036000201020100D8
:103C4000000101CFE5F0E5EAF0FBF2E8E520E8EC61
:103C5000EFF3EBFCF1EEE2000502020C034501007C
:103C60000036000101020100000101CAEEECEFE59F
:103C7000EDF1E0F6E8FF20E7E0E4E5F0E6EAE80051
:103C80000402020C034502000012000201030100BD
:103C9000010101CAEEECEFE5EDF1E0F6E8FF20E707
:103CA000E0E4E5F0E6EAE8000402020C0345020065
:103CB0000012000101030100010101CFEEF0EEE36B
:103CC00020EFF0E5E4F3EFF02E20EFEE20D0C70078
:103CD0000902020903450100001000010102010070
:103CE000000101C7E0E3F0F3E1EBE5EDE8E520F7E3
:103CF000F3E2F1F2E2E8F2000602020903450100F4
:103D00000020000101020100000101C7E0E3F0F31F
:103D1000E1EB2E20F7F3E2F1F2E22E20D0C7000013
:103D2000060202090345020000200001010401000F
:103D3000010101D2E8EF20EFF0E8E5ECEDE8EAE080
:103D4000000000000000000007010000144701000F
:103D50000003000101020100000101D1EDE8E6E5E8
:103D6000EDE8E520F3F0EEE2EDFF20C0CA00000030
:103D700007010100284501000002000101020100C5
:103D8000000101D7E0F1F2EEF2E020CFD0C4000054
:103D9000000000000000000008010000384701009A
:103DA0000005000101020100000101D7E0F1F2EE7F
:103DB000F2E020CFD0CC00000000000000000000A6
:103DC000090100003847010000050001010201005F
:103DD000000101D1E4E2E8E320EFE5F02EF4F0EE9B
:103DE000EDF2E020CFD0C4000502020C0345010033
:103DF00000FF000101030100000101D1E4E2E8E35A
:103E000020E7E0E42EF4F0EEEDF2E020CFD0C400A5
:103E10000502020C0345010000FF0001010302003E
:103E2000000101D1E4E2E8E320CFD0CC00000000A3
:103E300000000000000000000502020C0345010024
:103E400000FF000101030300000101D1E4E2E8E307
:103E500020C2D720CFD0C420EEF220CFD3D1CA00C9
:103E60000502020C0345010000FF000101030400EC
:103E7000000101C7E0E4E5F0E6EAE020F1F0E0E16E
:103E8000E0F22E20CFD0C40021020206034501003B
:103E90000014000101020100000101C4EBE8F2E599
:103EA000EBFCEDEEF1F2FC20EAEEECE0EDE4FB00E1
:103EB000220202060345011E006400010102010006
:103EC000000101C4EBE8F2E5EBFCEDEEF1F2FC20C1
:103ED000EAEEECE0EDE4FB00220202060345011EDF
:103EE00000F4010A0A020100000101D2E5F1F2EE3C
:103EF000E2E0FF20EAEEECE0EDE4E000000000008C
:103F00002601010028450100000200010102010014
:103F1000000101D1EBE5E4FFF9E8E520EAEEECE091
:103F2000EDE4FB000000000025050100284520000D
:103F30000002000101060100020101C1EBEEEAE806
:103F4000F0EEE22E20EAEEECE0EDE4FB00000000F3
:103F5000240501002845200000020001010601009F
:103F6000020101D2F0E0EDF1EBFFF6E8FF20D6CF41
:103F700000000000000000002701010028450100AA
:103F80000002000101020100000101C1EBEEEAE8BC
:103F9000F0EEE22E20EAEEECE0EDE4FB20D6CF00DE
:103FA000280501002845200000020001010601004B
:103FB000020101CAEEEBE8F7E5F1F2E2EE20EAEEEB
:103FC000ECE0EDE4000000002C02020003450104D7
:103FD0000020000404020100000101CAEEEBE8F732
:103FE000E5F1F2E2EE20EAEEECE0EDE420C00000C4
:103FF0002902020003450100002000010102010125
:10400000000101CAEEF0F0E5EAF6E8FF20F7E0F182
:10401000F2EEF2FB000000002302020A0345019CBD
:10402000FF64000101020100000101D1EDE8E6E5B5
:10403000EDE8E520F3F0EEE2EDFF20CAD10000004C
:104040002D020209034501000014000101040100D2
:10405000000101D1EDE8E6E5EDE8E520F3F0EEE260
:10406000EDFF20D2CC0000002D0202090345010023
:104070000014000101040200000101D1E8E3EDE0B9
:10408000EBE8E7E0F6E8FF20EAEEECE0EDE4000024
:104090002E05010028452000000200010106010054
:1040A000020101C7E0E4E5F0E6EAE020EDE020F4FB
:1040B000E8EAF12EEAEEEC001102020603450100E7
:1040C000000A000101020100000101C1EBEEEAE873
:1040D000F0EEE22E20EAEEECE0EDE4FB0000000062
:1040E000140501002845200000020001010601001E
:1040F000030101C7E0E4E5F0E6EAE020EDE020E2BC
:10410000FBEAEB2EEAEEEC00130202060345200068
:1041100000E803320A040100030101D2F0E0EDF1EE
:10412000EBFFF6E8FF20D6CF000000000000000003
:1041300017010100284501000002000101020100F1
:10414000000101C1EBEEEAE8F0EEE22E20EAEEEC2F
:10415000E0EDE4FB20D6CF00180501002845200043
:104160000002000101060100030101CAEEECE0EDCE
:10417000E4E020CFD0CC20E220D6CF000000000029
:104180001902020003452001002000010104010082
:10419000030101CAEEEBE8F7E5F1F2E2EE20EAEE08
:1041A000ECE0EDE4000000001C0202000345010405
:1041B0000020000404020100000101CFF0E8E5EC5A
:1041C00020F2E5F1F2EEE2EEE920EAEEEC2E00005C
:1041D0001201010028450100000200010102010056
:1041E000000101CAEEF0F0E5EAF6E8FF20F7E0F1A1
:1041F000F2EEF2FB000000001502020A0345019CEA
:10420000FF64000101020100000101D1E8E3EDE0DB
:10421000EBE8E7E0F6E8FF20EAEEECE0EDE4000092
:104220001D050100284520000002000101060100D3
:10423000000101CFEEE2FBF8E5EDE8E520E1E5E77E
:10424000EEEFE0F12DF2E800160100002845010034
:104250000002000101020100000101C8EDF2E5F0D9
:10426000F4E5E9F120F1E2FFE7E8000000000000DA
:10427000380100007447010000020001010402003F
:10428000000001CFF0EEF2EEEAEEEB0000000000DD
:104290000000000000000000380100008C47010011
:1042A0000003000101040300000001D1EAEEF0EE7A
:1042B000F1F2FC20EFE5F0E5E4E0F7E800000000B3
:1042C00038010000B04701000006000101040400AD
:1042D000000001C1E8F2FB20E4E0EDEDFBF5000099
:1042E000000000000000000038010000F847010055
:1042F0000001000101040500000001D7E5F2EDEE28
:10430000F1F2FC00000000000000000000000000CE
:104310003801000004480100000300010104060008
:10432000000001D1F2EEEFEEE2FBE520E1E8F2FB66
:1043300000000000000000003801000028480100D3
:104340000002000101040700000001C2F0E5ECFFDB
:1043500020EEE6E8E4E0EDE8FF20EAEEEC2E0000D7
:10436000370202060345010000FF000101030A00B5
:10437000000101D2F0E0EDE7E8F2EDFBE520EAEE26
:10438000ECE0EDE4FB00000037050100284560008B
:104390000002000101070B00000101CFE5F0E5ED8F
:1043A000E0E7EDE0F7E5EDE8E520CFD0CC00000058
:1043B0001B010000404820000061000101040100D1
:1043C000030101CFE5F0E5EDE0E7EDE0F7E5EDE82D
:1043D000E520CFD0C40000002B01000040482000A1
:1043E0000061000101040100030101D0EEEBFC00BB
:1043F00000000000000000000000000000000000BD
:1044000000010000CC4C010000030001010001008C
:10441000000000CFE0F0EEEBFC0000000000000028
:104420000000000000000000000606000345010136
:104430000008000101000900000000CFE0F0EEEBF1
:10444000FC20E8EDE6E5EDE5F0E00000000000000E
:10445000380606000345010100080001010A0800B2
:10446000000001CFE0F0EEEBFC20E0E4ECE8EDE84A
:10447000F1F2F02E000000003806060003450101AD
:1044800000080001010A0900000002CEF82E20E217
:10449000E2EEE4E020E8EDE6E5EDE5F0E000000026
:1044A00038020200034501000006000101040A0071
:1044B000000003CEF82E20E2E2EEE4E020E0E4EC9F
:1044C000E8EDE000000000003802020003450100B2
:1044D0000006000101040B00000003D1E1F0EEF141
:1044E00020EFE0F0EEEBE5E9000000000000000046
:1044F00000010000FC4C010000010001010001006E
:1045000000000000E2FBEAEB2E00000000000000CB
:10451000EAE0EDE0EB20F1E22E000000C0D1D32074
:10452000D2CF000000000000E2FBEAEB2E0000000A
:1045300000000000E2EAEB2E000000000000000096
:10454000C0C2C0CDD220D03430300000CFC2C72D81
:104550003930000000000000C0C2C7CA2D3830004A
:1045600000000000CFC2C7D32DC50000000000002E
:10457000CFC2C7CB0000000000000000CBC8CDC8F0
:10458000DF2DD00000000000CFC2C7CA000000002D
:1045900000000000E1FBF1F2F0FBE9000000000088
:1045A000ECE5E4EBE5EDEDFBE9000000E2EAEB2EE3
:1045B0000000000000000000E2FBEAEB2E0000001B
:1045C00000000000F2F0E5E2EEE6EDFBE90000009D
:1045D000EDEEF0ECE0EBFCEDFBE90000F1EFEEEAD4
:1045E000EEE9EDFBE9000000C0C2C0CDD200000042
:1045F00000000000C0C2C0CDD220CFD0C400000057
:10460000C0C2C0CDD220CFD0CC000000C0CACFC025
:1046100020CFD0C400000000C0CACFC020CFD0CC73
:1046200000000000CAC5C4D020CFD0C400000000E4
:10463000CAC5C4D020CFD0CC00000000D3CFCA2D33
:10464000D620CFD0C4000000D3CFCA2DD620CFD0E3
:10465000CC000000C2D7D2CE20CFD0C400000000D2
:10466000C2D7D2CE20CFD0CC00000000C0CDCAC06F
:1046700020CFD0C400000000C0CDCAC020CFD0CC15
:10468000000000003220EAEEEDF6E5E2E0FF000077
:104690003320EAEEEDF6E5E2E0FF000032303000D4
:1046A0000000000000000000343030000000000076
:1046B00000000000C4D4C72DCFF0CFE400000000FC
:1046C000C4D4C72DCCCA310000000000C4D4C72D0B
:1046D000CCCA320000000000C4D4C72D4C363000D4
:1046E00000000000CDC72DCFF0CFE4000000000097
:1046F000CDC72DCCCA00000000000000CFCFC72DD1
:10470000CFF0CFE400000000CFCFC72DCCCA00000F
:1047100000000000E0EAF22BEFE0F1F10000000001
:10472000E0EAF2E8E2EDFBE900000000EFE0F1F181
:10473000E8E2EDFBE90000002D31303030C3F60037
:10474000000000002D353030C3F6000000000000EE
:1047500030C3F60000000000000000002B353030B0
:10476000C3F60000000000002B31303030C3F600EB
:10477000000000005553420000000000000000004F
:10478000525334383500000000000000D1D2C0CDB3
:10479000C4C0D0D2000000004D4F44425553000029
:1047A00000000000CCDDCA2D3130310000000000D7
:1047B00036303000000000000000000031323030A0
:1047C0000000000000000000323430300000000023
:1047D000000000003438303000000000000000000D
:1047E000393630300000000000000000313932302E
:1047F0003000000000000000380000000000000051
:1048000000000000EDE5F2000000000000000000E4
:10481000F7E5F2000000000000000000EDE5F7E51C
:10482000F200000000000000310000000000000065
:104830000000000032000000000000000000000046
:1048400030000000000000000000000031410000C6
:1048500000000000000000003241000000000000E5
:1048600000000000334100000000000000000000D4
:10487000344100000000000000000000354100004D
:1048800000000000000000003641000000000000B1
:1048900000000000374100000000000000000000A0
:1048A0003841000000000000000000003941000015
:1048B0000000000000000000313041000000000056
:1048C0000000000031314100000000000000000045
:1048D000313241000000000000000000313341008F
:1048E0000000000000000000313441000000000022
:1048F0000000000031354100000000000000000011
:104900003136410000000000000000003137410056
:1049100000000000000000003138410000000000ED
:1049200000000000313941000000000000000000DC
:104930003230410000000000000000003231410030
:1049400000000000000000003232410000000000C2
:1049500000000000323341000000000000000000B1
:1049600032344100000000000000000032354100F8
:10497000000000000000000032364100000000008E
:10498000000000003237410000000000000000007D
:1049900032384100000000000000000032394100C0
:1049A0000000000000000000333041000000000063
:1049B0000000000033314100000000000000000052
:1049C00033324100000000000000000031420000CE
:1049D0000000000000000000324200000000000063
:1049E0000000000033420000000000000000000052
:1049F00034420000000000000000000035420000CA
:104A0000000000000000000036420000000000002E
:104A1000000000003742000000000000000000001D
:104A20003842000000000000000000003942000091
:104A300000000000000000003130420000000000D3
:104A400000000000313142000000000000000000C2
:104A5000313242000000000000000000313342000B
:104A6000000000000000000031344200000000009F
:104A7000000000003135420000000000000000008E
:104A800031364200000000000000000031374200D3
:104A9000000000000000000031384200000000006B
:104AA000000000003139420000000000000000005A
:104AB00032304200000000000000000032314200AD
:104AC0000000000000000000323242000000000040
:104AD000000000003233420000000000000000002F
:104AE0003234420000000000000000003235420075
:104AF000000000000000000032364200000000000C
:104B000000000000323742000000000000000000FA
:104B1000323842000000000000000000323942003C
:104B200000000000000000003330420000000000E0
:104B300000000000333142000000000000000000CF
:104B4000333242000000000000000000314300004A
:104B500000000000000000003243000000000000E0
:104B600000000000334300000000000000000000CF
:104B70003443000000000000000000003543000046
:104B800000000000000000003643000000000000AC
:104B9000000000003743000000000000000000009B
:104BA000384300000000000000000000394300000E
:104BB0000000000000000000313043000000000051
:104BC0000000000031314300000000000000000040
:104BD0003132430000000000000000003133430088
:104BE000000000000000000031344300000000001D
:104BF000000000003135430000000000000000000C
:104C0000313643000000000000000000313743004F
:104C100000000000000000003138430000000000E8
:104C200000000000313943000000000000000000D7
:104C30003230430000000000000000003231430029
:104C400000000000000000003232430000000000BD
:104C500000000000323343000000000000000000AC
:104C600032344300000000000000000032354300F1
:104C70000000000000000000323643000000000089
:104C80000000000032374300000000000000000078
:104C900032384300000000000000000032394300B9
:104CA000000000000000000033304300000000005E
:104CB000000000003331430000000000000000004D
:104CC000333243000000000000000000CEEFE5F0AA
:104CD000E0F2EEF000000000C8EDE6E5EDE5F000E2
:104CE00000000000C0E4ECE8ED2E00000000000031
:104CF000EEF8E8E1EAE0000000000000D1E1F0EEAB
:104D0000F100000000000000A76008BF11241FBED2
:104D1000CFEFD0E1DEBFCDBF80B58B7F80BD9FEFF1
:104D20009ABB1BBA17BA98BB80EE84BB8FE185BBD8
:104D300080E381BB8FEC82BB80EC82B993B98EE0BB
:104D40008093610081EF80936200109264009093E1
:104D5000650017BE8BE083BF88E181BF87B78260A3
:104D600087BF1FBC8CE08EBD10927A001DBC1CBC9E
:104D700080E792E09BBD8ABD87B7806187BF2CE04A
:104D800088E190E00FB6F894A89581BD0FBE21BDD3
:104D900011E0A0E0B1E0E6E5F8E801E00BBF02C0F9
:104DA00007900D92AC37B107D9F71DE0ACE7B1E041
:104DB00001C01D92A831B107E1F71DE4CCE0DDE4AC
:104DC00004C02297FE010E9412C1C830D107C9F762
:104DD0000E945EC00C9429C40C940000613019F04C
:104DE000623019F404C08CE5089581E608958DE5DC
:104DF00008951F93162F4230A8F4CF96642F4AD7F8
:104E0000982F113029F0113058F0123059F405C0A4
:104E100080E09150923038F403C080E0923019F471
:104E200081E001C080E01F9108950F931F93CF93FD
:104E3000DF93EC01062F142FA901DFD3882359F04B
:104E4000CE01CF96612F26D7682FCE014D96412FE8
:104E5000202F0AD781E0DF91CF911F910F91089504
:104E60009A016C3511F461E005C06D3511F080E0F8
:104E7000089562E040E0D9CF0F931F93CF93DF9363
:104E80008C0180E090E0EC01CC0FDD1FC80FD91F32
:104E9000FE01E055FF4FE491E617B1F4FE01EF5437
:104EA000FF4FE491C8016E2F41E0A3DF882381F01A
:104EB000FE01EE54FF4FE491EE2321F0C801CF969E
:104EC00061E01DD780E005C001968C329105D9F6CE
:104ED00081E0DF91CF911F910F910895EF92FF92A2
:104EE0000F931F93CF93DF93EC01162F042FA9018B
:104EF000D8D4E82E8823D1F41430C1F0CE01CF9657
:104F0000602FC8D6F82ECE01612F68D29E01235E95
:104F10003F4F882331F0C9016F2D402F212FAFD68D
:104F200005C0C9016F2D402F212F91D68E2DDF9105
:104F3000CF911F910F91FF90EF900895CF92DF9244
:104F4000EF92FF920F931F93CF93DF93EC01162FF5
:104F50007A016901CF9661E09DD6082FCE01C9D2B2
:104F6000882309F51330F8F4CE01602F37D2882357
:104F7000D1F4CE01612F41E03CDF8823A1F0CE01C6
:104F8000602F41E09701AADF882311F482E00CC072
:104F9000CE01612F41E0960148DF882311F483E0C0
:104FA00003C080E001C081E0DF91CF911F910F919C
:104FB000FF90EF90DF90CF9008959F92AF92BF92B5
:104FC000CF92DF92EF92FF920F931F93CF93DF93D5
:104FD0007C01162F042FEC01EF96CE01642F5AD6D8
:104FE000A82ECE01602F412F9AD6982ECE01602F89
:104FF00051D6B82E882329F13DE1C32ED12CCE0CF9
:10500000DF1C002371F0CE0160E044D6182F882306
:1050100041F0CE0160E040E082D6C601612F40E061
:1050200005D6013071F0CE0161E034D6182F882307
:1050300041F0CE0161E040E072D6C601612F41E04F
:10504000F5D5AB1431F0C7014D966A2D402F2B2DAD
:10505000EFD5892DDF91CF911F910F91FF90EF90A8
:10506000DF90CF90BF90AF909F900895EF92FF9206
:105070001F93CF93DF93EC01162F7A01662311F46F
:1050800060E010C0633090F4A9D1882379F4CE0198
:10509000612F41E0970122DF882311F482E007C0ED
:1050A000CE01612F41E089DF80E001C081E0DF9126
:1050B000CF911F91FF90EF9008959F92AF92BF9272
:1050C000CF92DF92EF92FF920F931F93DF93CF93D4
:1050D0000F92CDB7DEB78C01962E6A015FE3E52E05
:1050E000F12CE80EF91EC7017CD64DE1A42EB12C9F
:1050F000A00EB11E83E08983C70160E0AE014F5F5F
:105100005F4FD6D5882321F0C501698140E08ED557
:1051100083E08983C70161E0AE014F5F5F4FC8D56F
:10512000882321F0C501698141E080D5C801E1D122
:105130008823A1F0C801692D66D2C801DFD1882378
:1051400011F080E705C0C801E1D1882321F081E793
:10515000F601808305C0F601108202C0C801A2D406
:105160000F90CF91DF911F910F91FF90EF90DF9003
:10517000CF90BF90AF909F9008950F931F938C0195
:105180002BD1C8014D9699D4015C1F4FC801F8D5A9
:10519000C80160E040E0C3D5C80161E040E0BFD590
:1051A0001F910F9108959C016150623018F060E0EA
:1051B00070E00AC087E06802B00111246F5F7F4F82
:1051C000660F771F620F731FCB010895DC016150DA
:1051D000623008F056C0772767FD7095CB01880FC5
:1051E000991FFC0123E0EE0FFF1F2A95E1F7E81B52
:1051F000F90BEA0FFB1F81818823A9F5242F473083
:1052000008F026E0CB01880F991FFC0133E0EE0F78
:10521000FF1F3A95E1F7E81BF90BEA0FFB1F228706
:1052200081E08183222319F420E030E00DC08C91CD
:10523000833019F425E030E007C0882319F428E50D
:1052400032E002C021E030E0CB01880F991FFC0161
:1052500053E0EE0FFF1F5A95E1F7E81BF90BEA0F39
:10526000FB1F35872487CB01880F991FFC0123E0A2
:10527000EE0FFF1F2A95E1F7E81BF90BEA0FFB1F62
:10528000438708959C01862F8150823008F08FEF6C
:10529000633010F086E008958F3F11F480E00895A8
:1052A000992787FD9095880F991FFC0143E0EE0F29
:1052B000FF1F4A95E1F7E81BF90BE20FF31F828508
:1052C0000895AC016150623010F020E015C0862FC7
:1052D000992787FD909520E0880F991FFC0163E0D6
:1052E000EE0FFF1F6A95E1F7E81BF90BE40FF51FBE
:1052F00092858385981321E0822F0895DC01615007
:10530000623008F06FEF1C926F3F09F454C07727AA
:1053100067FD7095CB01880F991FFC0143E0EE0FEC
:10532000FF1F4A95E1F7E81BF90BEA0FFB1F1182FB
:1053300086E0828783876F5F7F4FCB01880F991F3D
:1053400061507040FC0123E0EE0FFF1F2A95E1F74A
:10535000E81BF90BEA0FFB1F10828C91833019F4C4
:1053600025E030E007C0882319F428E532E002C0C8
:1053700021E030E0CB01880F991FFC0143E0EE0FE4
:10538000FF1F4A95E1F7E81BF90BEA0FFB1F358772
:105390002487FB0193E0EE0FFF1F9A95E1F7E61BD0
:1053A000F70B3196EE0FFF1FEA0FFB1F80E0119203
:1053B0008F5F8830E1F708950F931F938C01FC01F4
:1053C000108260E09BDFC80161E098DFC80162E005
:1053D00095DF1F910F910895EFCF0895AC016623DB
:1053E000D9F06430C9F061506230A0F420E0862F1B
:1053F000992787FD9095880F991FFC01A3E0EE0F78
:10540000FF1FAA95E1F7E81BF90BE40FF51F828552
:10541000833018F021E001C020E0822F08951F930F
:10542000CF93DF93EC01862F8150823010F01FEF75
:1054300001C0182FCE01D2DF882319F440E050E0DC
:1054400029C01F3F19F44FE057E224C0812F99274C
:1054500087FD9095880F991FFC0113E0EE0FFF1F49
:105460001A95E1F7E81BF90BEC0FFD1F44855585F4
:105470008285853078F04056594090E028E532E04A
:10548000BC01629FC001639F900D729F900D11241B
:10549000480F591FCA01DF91CF911F9108959C01B8
:1054A0006150623010F080E00895862F992787FDC3
:1054B00090950196880F991FFC0143E0EE0FFF1FA6
:1054C0004A95E1F7E81BF90BE20FF31F808108957D
:1054D000613019F0623019F404C08EE5089581E658
:1054E00008958FE50895FC0181E080831586148678
:1054F0000895FC018081811181E00895FC0190E014
:105500008081823009F491E0892F0895FC0190E0B8
:105510008081863009F491E0892F089581E040E090
:1055200050E0282F30E0A0E0B0E0FB01E40FF51FD1
:10553000808180538A3010F4A1E0B0E02A233B231D
:1055400080E0232B09F081E04F5F5F4F4830510529
:1055500041F70895FF920F931F93CF93DF93EC01D0
:10556000F62E8A01BA01DADF882309F440C06F2DD4
:10557000772767FD7095DB0193E0AA0FBB1F9A9513
:10558000E1F7A61BB70B1196AA0FBB1FAC0FBD1FEF
:1055900020E030E0F801E20FF31FE0818C918E13E0
:1055A000EC932F5F3F4F11962830310599F7CB01CF
:1055B000880F991FFC01A3E0EE0FFF1FAA95E1F7EA
:1055C000E81BF90BEC0FFD1F818181111286CB01C5
:1055D0000196880F991FFC0143E0EE0FFF1F4A95CB
:1055E000E1F7E81BF90BEC0FFD1F81E08083DF91F1
:1055F000CF911F910F91FF9008956150623010F08C
:1056000080E00895A7CFCF93DF93EC0188818830A5
:1056100008F018828C859D85009719F001979D8769
:105620008C878881843009F441C0853040F4823011
:10563000D9F0833000F5813009F06AC009C08630A6
:1056400009F457C08630A0F1873009F061C053C01B
:10565000662319F483E0888343C08C859D85892B5C
:1056600009F056C082E051C081E0888381E090E07B
:105670009D878C874DC0662329F081E088831D8635
:105680001C8610C08C859D85892B61F484E08883FD
:10569000CE0160E046E151E05DDFCE0161E046E130
:1056A00051E058DF8881833089F532C085E0DDCF55
:1056B0008C859D85892B61F520E030E08E858823DF
:1056C00011F021E030E08C8D90E0282B392B232B3A
:1056D00011F486E001C084E088838881833019F466
:1056E00085E090E0C5CF882309F0C0CF88E592E03F
:1056F000BFCF87E0BACF623019F4CE015DDE08C0BB
:105700008C859D85892B21F486E088831D861C86E7
:10571000DF91CF910895DF92EF92FF920F931F9345
:10572000CF93DF938C01F62EE42ED52EFA9481E0F0
:105730008F1508F458C0C801642F752FEFDE882339
:1057400009F451C04F2D552747FD5095FA01B3E09C
:10575000EE0FFF1FBA95E1F7E41BF50B3196EE0F44
:10576000FF1FE00FF11F2E2D3D2DC901EC0120E0A0
:105770004F5F5F4FCA01880F991F41505040DC01B5
:1057800063E0AA0FBB1F6A95E1F7A81BB90BA00F36
:10579000B11F8EE09F2D9802B0011124665F7F4FEC
:1057A000600F711F98818081891729F08C9188235F
:1057B00009F4908321E031962196E617F70791F7D7
:1057C000222379F4CA010196880F991FFC0123E076
:1057D000EE0FFF1F2A95E1F7E81BF90BE00FF11F11
:1057E000108281E001C080E0DF91CF911F910F9185
:1057F000FF90EF90DF900895DC01772767FD7095AB
:10580000CB01880F991FFC0123E0EE0FFF1F2A95A3
:10581000E1F7E81BF90BEA0FFB1F42854423E1F493
:105820008C91833019F425E030E007C0882319F407
:1058300028E532E002C021E030E0CB01880F991F5B
:10584000FC0153E0EE0FFF1F5A95E1F7E81BF90B3F
:10585000EA0FFB1F35872487CB01880F991FFC01B6
:1058600053E0EE0FFF1F5A95E1F7E81BF90BEA0F23
:10587000FB1F8181882331F0433018F44F5F4330A0
:1058800009F446E0CB01880F991FFC0123E0EE0FDD
:10589000FF1F2A95E1F7E81BF90BEA0FFB1F428770
:1058A0000895CF92DF92EF92FF920F931F93CF93C1
:1058B000DF937C016A01662311F411E070C0411589
:1058C000510509F46BC06430D9F4FA01A0E0B1E0ED
:1058D00011E09C91212F30E040E050E08081891759
:1058E00011F441E050E02423352310E0232B09F08C
:1058F00011E03196119681E0A830B80751F74FC0FA
:10590000062F0150023008F049C068DD882309F0F5
:1059100045C0C02FDD27C7FDD095DE0173E0AA0F7B
:10592000BB1F7A95E1F7AC1BBD0B1196AA0FBB1FED
:10593000AE0DBF1D11E040E050E0212F30E060E0EF
:1059400070E0F601E40FF51F9C918081981711F427
:1059500061E070E02623372310E0232B09F011E0EB
:105960004F5F5F4F11964830510539F7112391F081
:10597000CE01880F991FFC0143E0EE0FFF1F4A95EF
:10598000E1F7E81BF90BEE0DFF1D8181882339F04B
:10599000128605C0C701602F2FDF01C010E0812FE4
:1059A000DF91CF911F910F91FF90EF90DF90CF90FB
:1059B0000895DC01772767FD7095CB01880F991F4B
:1059C000FC0123E0EE0FFF1F2A95E1F7E81BF90B1E
:1059D000EA0FFB1F8181882309F463C042854330AD
:1059E00011F446E003C0442309F44DC0CB01880FF5
:1059F000991FFC0153E0EE0FFF1F5A95E1F7E81BDA
:105A0000F90BEA0FFB1F84859585009719F0019724
:105A100095878487CB01880F991FFC0123E0EE0F47
:105A2000FF1F2A95E1F7E81BF90BEA0FFB1F84859E
:105A30009585892B41F54150433021F420E030E039
:105A400040E012C0442319F420E030E00DC08C91F6
:105A5000833019F425E030E007C0882319F428E5E5
:105A600032E002C021E030E0CB01880F991FFC0139
:105A700053E0EE0FFF1F5A95E1F7E81BF90BEA0F11
:105A8000FB1F35872487CB01880F991FFC0163E03A
:105A9000EE0FFF1F6A95E1F7E81BF90BEA0FFB1FFA
:105AA000428708950F931F938C0160E082DFC80145
:105AB00061E07FDF1F910F910895FC01178E168E14
:105AC00011A210A208958F3008F08EE0282F30E048
:105AD00085E190E0A901489F9001499F300D589FB2
