:100000000C9461230C94C7230C94C7230C94C7232E
:100010000C94C7230C94C7230C94C7230C94C723B8
:100020000C94C7230C94C7230C94C7230C94C723A8
:100030000C9415B10C94C7230C94C7230C9448B1AD
:100040000C94C7230C94C7230C94B5AF0C944AAFFF
:100050000C948AAF0C94C7230C94C7230C94C72329
:100060000C94C7230C94C7230C94C7230C94C72368
:100070000C94C7230C94C7230C9475B00C940AAF4E
:100080000C94C0B00C94E8AF0C94C7239F5CC25C86
:10009000EA5C025D1D5D385D505D6B5DED5D055E8A
:1000A000205E865DB55DD15D3B5E575E725E8D5EA6
:1000B00000C1814001C0804101C0804100C1814038
:1000C00001C0804100C1814000C1814001C0804128
:1000D00001C0804100C1814000C1814001C0804118
:1000E00000C1814001C0804101C0804100C1814008
:1000F00001C0804100C1814000C1814001C08041F8
:1001000000C1814001C0804101C0804100C18140E7
:1001100000C1814001C0804101C0804100C18140D7
:1001200001C0804100C1814000C1814001C08041C7
:1001300001C0804100C1814000C1814001C08041B7
:1001400000C1814001C0804101C0804100C18140A7
:1001500000C1814001C0804101C0804100C1814097
:1001600001C0804100C1814000C1814001C0804187
:1001700000C1814001C0804101C0804100C1814077
:1001800001C0804100C1814000C1814001C0804167
:1001900001C0804100C1814000C1814001C0804157
:1001A00000C1814001C0804101C0804100C1814047
:1001B00000C0C101C30302C2C60607C705C5C40407
:1001C000CC0C0DCD0FCFCE0E0ACACB0BC90908C877
:1001D000D81819D91BDBDA1A1EDEDF1FDD1D1CDC67
:1001E00014D4D515D71716D6D21213D311D1D010D7
:1001F000F03031F133F3F23236F6F737F53534F4C7
:100200003CFCFD3DFF3F3EFEFA3A3BFB39F9F83836
:1002100028E8E929EB2B2AEAEE2E2FEF2DEDEC2C26
:10022000E42425E527E7E62622E2E323E12120E096
:10023000A06061A163A3A26266A6A767A56564A486
:100240006CACAD6DAF6F6EAEAA6A6BAB69A9A868F6
:1002500078B8B979BB7B7ABABE7E7FBF7DBDBC7CE6
:10026000B47475B577B7B67672B2B373B17170B056
:100270005090915193535292965657975595945446
:100280009C5C5D9D5F9F9E5E5A9A9B5B99595898B6
:10029000884849894B8B8A4A4E8E8F4F8D4D4C8CA6
:1002A0004484854587474686824243834181804016
:1002B0005669727475616C00C0C2C0CDD220CECFB9
:1002C000D2CE2D2564256425642DCE00C0C2C0CDBC
:1002D000D220CA3430302D25642564C200C0C2C08B
:1002E000CDD220D0C7D1CA2D2564256425642DC266
:1002F00000C0C2C0CDD220D0343030EC2D313030EF
:100300002DC20020C8E7ECE5EDE8F2FC20EFE0F0BC
:10031000E0ECE5F2F02020002020ECEEE6EDEE200F
:10032000F2EEEBFCEAEE20E220202020002020F07C
:10033000E5E6E8ECE520C2DBC2C5C4C5CD2020203F
:1003400020000000000000ECC0000000C000000021
:1003500000EAC0000000C200000000EAC200000085
:10036000ECF10000006300000000F7E0F10000E4A1
:10037000C1000000C3F6000000EAC3F60000E3F08D
:10038000E0E400002D25642E256425530025642E0D
:1003900025642553002564255300F7F2E5EDE8E5D3
:1003A0002E2E00F7F2E5EDE8E52E00256400EEF8CC
:1003B000E8E1EAE021212100C7EDE0F7E5EDE8E51D
:1003C0003A200025642E2EB1256425530025642E85
:1003D0002EB1256425530025642E2E256400256446
:1003E0002E2E2564255300E2EAEB2E2FE2FBEAEBEA
:1003F0002E00F1EFE8F1EEEA00C4E8E0EFE0E7EE0E
:10040000ED3A2000FF2C262D4D2D742D9B2DC22D55
:10041000E92D102E372E5E2E852EAC2ED32EFA2EE1
:10042000212F482F6F2F962FBD2FE42F0B30323006
:1004300059308030A730CE30F5301C3143316A312D
:100440009131B831DF3106322D3254327B32A23253
:10045000C932F03217333E3365338C33B333DA337A
:10046000013428344F3476349D34C434EB3412359F
:10047000393560358735AE35D535FC3523364A36C6
:1004800071369836BF36E6360D3734375B378237EC
:10049000A937D037F7371E3845386C389338BA3813
:1004A000E13808392F3956397D39A439CB39F23939
:1004B000193A403A673A8E3AB53ADC3A033B2A3B5E
:1004C000513B783BCDEEECE5F03A2025752F2575B4
:1004D00000CDEEECE5F03A2025532F255300C0C2A5
:1004E000C0CDD220D03430300000CFC2C72D39303B
:1004F000000000000000C0C2C7CA2D383000000054
:100500000000CFC2C7D32DC5000000000000CFC23D
:10051000C7CB0000000000000000CBC8CDC8DF2D15
:10052000D00000000000CFC2C7CA000000000000D9
:100530000000CFE0F0E0ECE5F2F03A257520C2F1E2
:10054000E5E3EE3A257500C2FBE2E5E4E5ED00C324
:10055000EEF2EEE2000000C2E2E5E4E5ED0000D0DC
:10056000E5F7FC00000000D2E5F1F200000000D247
:10057000E5F1F200000000EEF8E8E1EAE00000201A
:1005800020200000000000000000002031200000BA
:1005900000000000000000203220000000000000E9
:1005A00000000031203200000000000000000020A8
:1005B0003320000000000000000000312033000064
:1005C00000000000000000322033000000000000A6
:1005D000000000203F20000000000000000000CFCD
:1005E000F0E5E4F3EFF02E2025632D25303458009C
:1005F000CDE5E8F1EFF02E2025632D2530345800AD
:1006000064463D25303264C3F600543D25303264E3
:10061000B04300443D25303264E4C10025303275DA
:100620003A253032753A2530327500253032752E34
:10063000253032752E253032750053E43D25303299
:1006400075B00055F8323D25303264E4C10055F8EC
:10065000313D25303264E4C10055F83D2530326427
:10066000E4C10055EA323D25303264E4C10055EA68
:10067000313D25303264E4C10055EA3D2530326415
:10068000E4C10055E7323D25303264E4C10055E74E
:10069000313D25303264E4C10055E73D25303264F8
:1006A000E4C100523D25303375CEEC00493D253084
:1006B0003375ECC000553D253032752E253031752F
:1006C000C200CDEEE2FBE920EFE0F0EEEBFC3A20D9
:1006D0002530347500CFE0F0EEEBFC3A20253034C5
:1006E000750020202020202020C2E2E5E4E5ED2056
:1006F0002020202020200020202020EDE5EFF0E029
:10070000E2E8EBFCEDFBE920202020002020202067
:10071000202020EFE0F0EEEBFC2020202020202005
:1007200000C2E2EEE43A20253031752E25303175D5
:1007300000C2E2EEE43A202530316400C2E2EEE489
:100740003A20255300E2FBEAEB2E000000000000F7
:1007500000CAD700000000000000000000CAD73126
:10076000000000000000000000CAD73200000000B6
:100770000000000000CAD7330000000000000000A5
:1007800000CAD734000000000000000000CAD731C2
:10079000000000000000000000CAD73120F120E175
:1007A000EBEEEA0000CAD7320000000000000000B3
:1007B00000CAD73220F120E1EBEEEA0000D0C700FA
:1007C000000000000000000000CAEEECE0EDE4E0F4
:1007D0003100000000CAEEECE0EDE4E03200000081
:1007E00000CAEEECE0EDE4E03300000000CAEEECFD
:1007F000E0EDE4E03400000000CAEEEC312BE1EB68
:10080000EEEA000000CAEEEC322BE1EBEEEA00006B
:1008100000CAEEEC332BE1EBEEEA000000CAEEEC8E
:10082000342BE1EBEEEA000000CAEEECE0EDE4E090
:100830003100000000CAEEECE0EDE4E03200000020
:1008400000CAEEECE0EDE4E03300000000CAEEEC9C
:10085000E0EDE4E03400000000CAEEECE0EDE4E09E
:100860003500000000CAEEECE0EDE4E036000000E8
:1008700000CAEEECE0EDE4E03700000000CAEEEC68
:10088000E0EDE4E03800000000CAEEECE0EDE4E06A
:100890003900000000CAEEECE0EDE4E03130000089
:1008A00000CAEEECE0EDE4E03131000000CAEEEC0D
:1008B000E0EDE4E03132000000CAEEECE0EDE4E00F
:1008C0003133000000CAEEECE0EDE4E0313400002A
:1008D00000CAEEECE0EDE4E03135000000CAEEECD9
:1008E000E0EDE4E03136000000CAEEECE0EDE4E0DB
:1008F0003137000000CAEEECE0EDE4E031380000F2
:1009000000CAEEECE0EDE4E03139000000CAEEECA4
:10091000E0EDE4E03230000000CAEEECE0EDE4E0AF
:100920003231000000CAEEECE0EDE4E032320000CB
:1009300000CAEEECE0EDE4E03233000000CAEEEC79
:10094000E0EDE4E03234000000CAEEECE0EDE4E07B
:100950003235000000CAEEECE0EDE4E03236000093
:1009600000CAEEECE0EDE4E03237000000CAEEEC45
:10097000E0EDE4E03238000000CAEEECE0EDE4E047
:100980003239000000CAEEECE0EDE4E03330000064
:1009900000CAEEECE0EDE4E03331000000CAEEEC1A
:1009A000E0EDE4E03332000000CAD720E820D0C7F1
:1009B0000000000000CAD73120E820D0C7000000A6
:1009C00000CAD73220E820D0C700000000CAD733C1
:1009D00020E820D0C700000000CAD73420E820D08B
:1009E000C700000000CAD1000000000000000000A5
:1009F00000CAEEECE0EDE4E03141000000CAEEECAC
:100A0000E0EDE4E03241000000CAEEECE0EDE4E0AD
:100A10003341000000CAEEECE0EDE4E034410000B8
:100A200000CAEEECE0EDE4E03541000000CAEEEC77
:100A3000E0EDE4E03641000000CAEEECE0EDE4E079
:100A40003741000000CAEEECE0EDE4E03841000080
:100A500000CAEEECE0EDE4E03941000000CAEEEC43
:100A6000E0EDE4E03130410000CAEEECE0EDE4E01E
:100A70003131410000CAEEECE0EDE4E031324100FA
:100A800000CAEEECE0EDE4E03133410000CAEEECE8
:100A9000E0EDE4E03134410000CAEEECE0EDE4E0EA
:100AA0003135410000CAEEECE0EDE4E031364100C2
:100AB00000CAEEECE0EDE4E03137410000CAEEECB4
:100AC000E0EDE4E03138410000CAEEECE0EDE4E0B6
:100AD0003139410000CAEEECE0EDE4E03230410093
:100AE00000CAEEECE0EDE4E03231410000CAEEEC89
:100AF000E0EDE4E03232410000CAEEECE0EDE4E08B
:100B00003233410000CAEEECE0EDE4E03234410063
:100B100000CAEEECE0EDE4E03235410000CAEEEC54
:100B2000E0EDE4E03236410000CAEEECE0EDE4E056
:100B30003237410000CAEEECE0EDE4E0323841002B
:100B400000CAEEECE0EDE4E03239410000CAEEEC20
:100B5000E0EDE4E03330410000CAEEECE0EDE4E02B
:100B60003331410000CAEEECE0EDE4E03332410005
:100B700000CAEEECE0EDE4E03142000000CAEEEC29
:100B8000E0EDE4E03242000000CAEEECE0EDE4E02B
:100B90003342000000CAEEECE0EDE4E03442000035
:100BA00000CAEEECE0EDE4E03542000000CAEEECF5
:100BB000E0EDE4E03642000000CAEEECE0EDE4E0F7
:100BC0003742000000CAEEECE0EDE4E038420000FD
:100BD00000CAEEECE0EDE4E03942000000CAEEECC1
:100BE000E0EDE4E03130420000CAEEECE0EDE4E09C
:100BF0003131420000CAEEECE0EDE4E03132420077
:100C000000CAEEECE0EDE4E03133420000CAEEEC65
:100C1000E0EDE4E03134420000CAEEECE0EDE4E067
:100C20003135420000CAEEECE0EDE4E0313642003E
:100C300000CAEEECE0EDE4E03137420000CAEEEC31
:100C4000E0EDE4E03138420000CAEEECE0EDE4E033
:100C50003139420000CAEEECE0EDE4E0323042000F
:100C600000CAEEECE0EDE4E03231420000CAEEEC06
:100C7000E0EDE4E03232420000CAEEECE0EDE4E008
:100C80003233420000CAEEECE0EDE4E032344200E0
:100C900000CAEEECE0EDE4E03235420000CAEEECD2
:100CA000E0EDE4E03236420000CAEEECE0EDE4E0D4
:100CB0003237420000CAEEECE0EDE4E032384200A8
:100CC00000CAEEECE0EDE4E03239420000CAEEEC9E
:100CD000E0EDE4E03330420000CAEEECE0EDE4E0A9
:100CE0003331420000CAEEECE0EDE4E03332420082
:100CF00000CAEEECE0EDE4E03143000000CAEEECA7
:100D0000E0EDE4E03243000000CAEEECE0EDE4E0A8
:100D10003343000000CAEEECE0EDE4E034430000B1
:100D200000CAEEECE0EDE4E03543000000CAEEEC72
:100D3000E0EDE4E03643000000CAEEECE0EDE4E074
:100D40003743000000CAEEECE0EDE4E03843000079
:100D500000CAEEECE0EDE4E03943000000CAEEEC3E
:100D6000E0EDE4E03130430000CAEEECE0EDE4E019
:100D70003131430000CAEEECE0EDE4E031324300F3
:100D800000CAEEECE0EDE4E03133430000CAEEECE3
:100D9000E0EDE4E03134430000CAEEECE0EDE4E0E5
:100DA0003135430000CAEEECE0EDE4E031364300BB
:100DB00000CAEEECE0EDE4E03137430000CAEEECAF
:100DC000E0EDE4E03138430000CAEEECE0EDE4E0B1
:100DD0003139430000CAEEECE0EDE4E0323043008C
:100DE00000CAEEECE0EDE4E03231430000CAEEEC84
:100DF000E0EDE4E03232430000CAEEECE0EDE4E086
:100E00003233430000CAEEECE0EDE4E0323443005C
:100E100000CAEEECE0EDE4E03235430000CAEEEC4F
:100E2000E0EDE4E03236430000CAEEECE0EDE4E051
:100E30003237430000CAEEECE0EDE4E03238430024
:100E400000CAEEECE0EDE4E03239430000CAEEEC1B
:100E5000E0EDE4E03330430000CAEEECE0EDE4E026
:100E60003331430000CAEEECE0EDE4E033324300FE
:100E700000EEF8E8E1EAE0000000000000C7EDE065
:100E8000F7E5EDE8E53A2000CFD0CC323A2000CFAC
:100E9000D0CC313A2000D1E8E3EDE0EBFB20EFF0DD
:100EA000E8E5ECEDE8EAE000D2E5F1F2FB5CCFF03A
:100EB000E8E5ECEDE8EA00D1E8E3EDE0EBFB20EF5C
:100EC000E5F0E5E4E0F2F7E8EAE000D2E5F1F2FB74
:100ED0005CCFE5F0E5E4E0F2F7E8EA00202020202E
:100EE000CFE5F0E5E9E4E8F2E520E220202020204B
:100EF00000202020F0E5E6E8EC20C2DBC2C5C4C536
:100F0000CD202020200025642E20D2E5F1F220EF14
:100F1000F0E8E5ECEDE8EAE00025642E20D2E5F10A
:100F2000F220EFE5F0E5E4E0F2F7E8EAE000CDE0FA
:100F3000F1F2F0EEE9EAE05CD2E5F1F2FB00CCE59B
:100F4000EDFE5CC8E7ECE5F0E5EDE8FF0025642E7A
:100F500020D1E5EAF3EDE4FB0025642E20CCE8ED9A
:100F6000F3F2FB0025642E20D7E0F1FB0025642E70
:100F700020C4E5EDFC0025642E20CCE5F1FFF60051
:100F800025642E20C3EEE400CDE0F1F2F0EEE9EAB4
:100F9000E05CC2F0E5ECFF26E4E0F2E000CDE0F139
:100FA000F2F0EEE9EAE05CC8EDF2E5F0F4E5E9F133
:100FB00000CFE0F0E0ECE5F2F0FB5CCAEEEBFCF613
:100FC000EE00CFE0F0E0ECE5F2F0FB5CCEE1F9E81A
:100FD000E500CFE0F0E0ECE5F2F0FB5CCFE5F0E51A
:100FE000E4E0F2F7E8EA00CFE0F0E0ECE5F2F0FB55
:100FF0005CCFF0E8E5ECEDE8EA00CFE0F0E0ECE50E
:10100000F2F0FB5CC7E0F9E8F2E00025642E20CAAC
:10101000EEEBFCF6EE0025642E20CEE1F9E8E500CB
:1010200025642E20CFE5F0E5E4E0F2F7E8EA0025BC
:10103000642E20CFF0E8E5ECEDE8EA0025642E20F0
:10104000C7E0F9E8F2E000CDE0F1F2F0EEE9EAE025
:101050005CCFE0F0E0ECE5F2F0FB00C2FBE2E5E49F
:10106000E5ED0000000000C2E2E5E4E5ED0000006F
:10107000000000D2E5F1F22031000000000000D2B3
:10108000E5F1F22032000000000000CDE0F1F2F0C6
:10109000EEE9EAE05CD0E5E6E8EC0025642E20C845
:1010A000EDF2E5F0F4E5E9F10025642E20CFE0F063
:1010B000EEEBFC0025642E20CFE0F0E0ECE5F2F052
:1010C000FB0025642E20C2F0E5ECFF20E820E4E0E0
:1010D000F2E00025642E20D0E5E6E8EC00CCE5ED5A
:1010E000FE5CCDE0F1F2F0EEE9EAE00025642E20AE
:1010F000D1E1F0EEF120E2F1E5F50025642E20D1FA
:10110000E1F0EEF120E8EDE4E8EAE0F6E8E80025B9
:10111000642E20D1E1F0EEF120F3E4E0EBE5ED2EDA
:1011200020330025642E20D1E1F0EEF120F3E4E03D
:10113000EBE5ED2E20320025642E20D1E1F0EEF11A
:1011400020F3E4E0EBE5ED2E20310025642E20C0F5
:10115000CA20E2EAEBFEF7E5ED0025642E20CFF38E
:10116000F1EA20F3E4E0EB2DFBF520CCC0CD002527
:10117000642E20CFF3F1EA20F3E4E0EB2E20CCC084
:10118000CD20330025642E20CFF3F1EA20F3E4E0F4
:10119000EB2E20CCC0CD20320025642E20CFF3F1E1
:1011A000EA20F3E4E0EB2E20CCC0CD203100256412
:1011B0002E20CFF3F1EA20F3E4E0EBE5EDEDFBF5D3
:1011C0000025642E20CFF3F1EA20F3E4E0EBE5ED17
:1011D000ED2E20330025642E20CFF3F1EA20F3E436
:1011E000E0EBE5EDED2E20320025642E20CFF3F16B
:1011F000EA20F3E4E0EBE5EDED2E20310025642E4E
:1012000020D1E1F0EEF120F3E4E0EBE5EDEDFBF5CC
:101210000025642E20C0CA20E1E5E3EBFBE90025B0
:10122000642E20C0CA20EDEEF0ECE0EBFCEDFBE913
:101230000025642E20C0CA20E8F1EFFBF2E0EDE8C3
:10124000FF0025642E20C0CA20E2FBEAEBFEF7E592
:10125000ED0025642E20C0CA20F3F1EAEEF0E5EDA2
:10126000EDFBE90025642E20C0CA20E0E2F2EEEC9E
:10127000E0F2E8F7E5F1EA2E0025642E20CFF3F145
:10128000EA20CFD0C40025642E20CFF3F1EA20C09D
:10129000CA20F3E4E0EBE5EDED2E0025642E20CF2F
:1012A000F3F1EA20C0CA20F1E2EEE90025642E2025
:1012B000D1E1F0EEF120C0CA0025642E20C0CA2082
:1012C000EAEEEDF2F02EEFF0EEE2E5F02E0025640E
:1012D0002E20CFF3F1EA20F3E4E0EBE5ED2E20CC75
:1012E000C0CD0025642E20C0CA20EFF3F1EA00250E
:1012F000642E20CFF3F1EA20EDE0EBE0E42E20E2D3
:10130000FBEAEB0025642E20CFF3F1EA20EDE0EBC1
:10131000E0E42E20E2EAEB2E0025642E20C2FBE75B
:10132000EEE20025642E20D1E1F0EEF120F3E4E0BE
:10133000EBE5EDEDEEE3EE0025642E20D1E1F0EEDD
:10134000F120F1E2EEE5E3EE0025642E20CFF3F18B
:10135000EA20F3E4E0EBE5EDEDEEE3EE00CCE5EDC5
:10136000FE5CD3EFF0E0E2EBE5EDE8E500C7E0EF8F
:10137000E8F1FC202575202F2025752028257529CA
:1013800000C7E0EFE8F1FC202575202F202575002F
:10139000C6D3D0CDC0CB20CFD3D1D200D1D7C8D2E5
:1013A000DBC2C0CDC8C520C7C0CFC8D1C800CAEEF7
:1013B000ECE0EDE4E03A2025750000000000002894
:1013C000D6CF290028CED82900C4E0F2E03A202563
:1013D0003032752E253032752E2530327500C2F030
:1013E000E5ECFF3A20253032753A253032753A2542
:1013F0003032752E2530337500CAEEECE0EDE4E0B6
:1014000020EFE5F0E5E4E0E5F2F1FF00CAEEECE004
:10141000EDE420EDE5F200CEEAEEEDF7E0EDE8E5F3
:1014200020EAEEECE0EDE4FB00000000CDE0F7E0A8
:10143000EBEE20EAEEECE0EDE4FB00000000000043
:1014400000CEF8E8E1EEF7EDEEE520E7EDE0F7E5B8
:10145000EDE8E5000000C6F3F0EDE0EB5CCFE5F071
:10146000E5E4E0F2F7E8EA00CAEEECE0EDE4E020C3
:10147000EFF0E8EDE8ECE0E5F2F1FF00C6F3F0EDA7
:10148000E0EB5CCFF0E8E5ECEDE8EA00D1EEF1F25C
:10149000EEFFEDE8E53A00CF2564D12564CC256464
:1014A00020CFC42564CFCC2564C2DBD5256400C61B
:1014B000F3F0EDE0EB5CC7E0F9E8F2E000D0E5E640
:1014C000E8EC3A00D1EEE1FBF2E8E5202D202564BE
:1014D000000000000000000000CDE5E8F1EFF02082
:1014E000F7F22FE7E0EF20464C4153480000C2D707
:1014F00020F2F0E0EAF220E2EEF1F1F2E0EDEEE2CD
:10150000EB2E00CDE5E8F1EFF020F7F22FE7E0EF6A
:1015100020CFCBC8D1000000C0E2F2EEEAEEEDF23F
:10152000F0EEEBFC000000000000000000D2EEEA4C
:1015300020EFEEEAEEFF00000000000000000000D7
:101540000000CDE5E8F1EFF020F7F22FE7E0EF2023
:101550003252414D000000CDE5E8F1EFF020F0E01F
:10156000E1EEF2FB2044535000000000C2EEF1F126
:10157000F2E0ED2DE520F0E0E1EEF2FB20445350E7
:1015800000CDE8E7EAEEE520EDE0EFF02E20E2FB0B
:10159000F5EEE4E00000C2FBF1EEEAEEE520EDE05E
:1015A000EFF02E20E2FBF5EEE4E000CDE0F0F3F802
:1015B000E5ED20EEE1ECE5ED20F120D3CC000000DC
:1015C000CDE5E8F1EFF0E0E2EDEEF1F2FC20F7E03E
:1015D000F1EEE20000CDE5F220E1EBEEEAE020C121
:1015E000D1C70000000000000000CEF8E8E1EAE00A
:1015F00020E2E5F0F1E8E820C1D1C700000000CD0D
:10160000E5E8F1EFF020EFE5F0E5EAEB2DE5E92084
:10161000C1D1C700CDE5F220F1E8E3EDE0EBE02039
:10162000CCC0CD000000000000C2EAEB2EEFE8F2D3
:101630002FCFE5F0E5E7E0EFF3F1EA000000C8E7BF
:10164000ECE5EDE5EDE8E520F0E5E6E8ECE00000AE
:10165000000000CDE5E8F1EFF020E7E0EF2E20E21A
:10166000FBF52EF6E5EFE800CEF8E8E120EAEEED36
:10167000F2F02E20E2FBF52EF6E5EFE800C0CA20DE
:101680002D20D1EDE8E6E5EDE8E520E7E0EFE0F13B
:10169000E000C0CA202D20CDE5F220EEF2E2E5F216
:1016A000E0000000000000CEF2F1F3F22DE520F1A1
:1016B000E8E3EDE0EBE020CFF3F1EA00CEF2F1F366
:1016C000F22DE520F1E8E3ED20CEF1F2E0EDEEE2DF
:1016D00000C2FBEAEBFEF7E5EDE8E520E0EFEFE026
:1016E000F0E0F2E00000CFEEECE5F5E020E220EBE8
:1016F000E8EDE8E800000000000000CDE5E8F1EFCB
:10170000F0E0E2EDEEF1F2FC20C4D4C700000000EE
:10171000D3E43A20C0CA202D20EDE5F220EEF2E21B
:10172000E5F2E00000D3E43A20CFEEECE5F5E0206E
:10173000E220EBE8EDE8E8000000D3E43A20CDE554
:10174000E8F1EFF02E20C4D4C7000000000000D361
:10175000E43A20CDE5E8F1EFF02E20F6E5EFE820C1
:10176000E2FBF500CFEEF0EEE320EFEE20EFEEEC43
:10177000E5F5E5000000000000D1EEE1FBF2E8E550
:10178000202D202564000000000000000000D1EEA4
:10179000E1FBF2E8E5202D202564000000000000B8
:1017A000000000D1EEE1FBF2E8E5202D20256400E9
:1017B0000000000000000000D1EEE1FBF2E8E520AF
:1017C0002D202564000000000000000000D1EEE1A3
:1017D000FBF2E8E5202D2025640000000000000059
:1017E0000000D1EEE1FBF2E8E5202D2025640000A9
:1017F00000000000000000D1EEE1FBF2E8E5202D42
:10180000203000000000000000000000C2EAEB2EC3
:1018100020EFE8F2E0EDE8FF2FEFE5F0E5E7E0EF9D
:1018200000C2FBEAEBFEF7E5EDE8E520EFE8F2E0C9
:10183000EDE8FF000000C8E7ECE5EDE5EDE8E520A8
:10184000F0E5E6E8ECE020F0E0E100C8E7ECE5EDEB
:10185000E5EDE8E520EFE0F0E0ECE5F2F0EEE200A7
:10186000CDE5E8F1EFF020F2E5F1F2E020CFD0C4D1
:101870000000000000CDE5E8F1EFF020F2E5F1F224
:10188000E020CFD0CC0000000000D1EEE1FBF2E878
:10189000E5202D203700000000000000000000CDF2
:1018A000E5E8F1EFF020E1EBEEEAE020C1D1CA007B
:1018B00000000000C8E7ECE5EDE5EDE8E520E4E038
:1018C000F2E02FE2F0E5ECFF00D1EEE1FBF2E8E51B
:1018D000202D203130000000000000000000D1EE7B
:1018E000E1FBF2E8E5202D2031310000000000008E
:1018F000000000D1EEE1FBF2E8E5202D20313200BE
:101900000000000000000000C0E2E0F0E8FF20EF6F
:10191000EE204400000000000000000000CFF0E5D1
:10192000E4F3EFF0E5E6E4E5EDE8E520EFEE204452
:101930000000CDE5E8F1EFF020F7F2E5EDE8FF205B
:10194000EAEEECE0EDE400C2EEF1F1F2E0EDEEE201
:10195000EBE5EDE8E520440000000000CDE5E8F10E
:10196000EFF02E20F0E0E1EEF2FB204453500000B7
:1019700000C2EEF1F1F2E0ED2DE520F0E0E1EEF253
:10198000FB2044535000CDE8E7EAEEE520EDE0EF20
:10199000F02E20E2FBF5EEE4E00000C2FBF1EEEAFF
:1019A000EEE520EDE0EFF02E20E2FBF5EEE4E000C6
:1019B000CDE5F220CAD7203520F1E5EA20EDE02080
:1019C0002553000000CDE5F220CAD720EDE0202508
:1019D00053000000000000000000C2EEF1F1F2E050
:1019E000ED2DE520CAD720EDE0202553000000C2F0
:1019F000EEF1F1F22EF3F02E20CAD720EDE02025F3
:101A000053000000CDE5E8F1EFF020F7F22FE7E01A
:101A1000EF203252414D000000CDE5E8F1EFF0201B
:101A2000F7F22FE7E0EF20CFCBC8D1000000CDE5E3
:101A3000E8F1EFF020F7F22FE7E0EF20464C4153BA
:101A4000480000CDE5E8F1EFF0E0E2EDEEF1F2FC68
:101A500020F7E0F1EEE20000D1EDE8E62EF3F02E03
:101A600020CAD720EDE020255300000000CEF8E882
:101A7000E1EAE020F0E0E1EEF2FB20D6CF0000004A
:101A80000000C2F5EEE420525820D6CF20EFF3F14B
:101A9000F2000000000000D0E0E1EEF2E020D6CF3E
:101AA00020E2EEF1F1F2E0EDEEE2EB00C2FBF1EE4E
:101AB000EAE0FF20F2E5ECEFE5F0E0F2F3F0E00021
:101AC00000CDE8E7EAE0FF20F2E5ECEFE5F0E0F238
:101AD000F3F0E0000000CDEEF0ECE0EB2E20F2E5BC
:101AE000ECEFE5F0E0F2F3F0E00000CDE5E8F1EF37
:101AF000F02EE4E0F2F7E8EA20F2E5ECEFE5F000A2
:101B0000C8F1EFF0E0E22EE4E0F2F7E8EA20F2E5D7
:101B1000ECEFE5F000D1EEE1FBF2E8E5202D202529
:101B200064000000000000000000C7C0D90000CF22
:101B3000D0CC3100CFD0CC3200CFD0C40000CEC149
:101B4000D90000CF312C3200CED8C10000D1EEE157
:101B5000FBF2E8E5202D20256400000000000000D5
:101B60000000C2EAEB2E20EFE8F2E0EDE8FF2FEFF5
:101B7000E5F0E5E7E0EF00C2FBEAEBFEF7E5EDE8B4
:101B8000E520EFE8F2E0EDE8FF000000C8E7ECE553
:101B9000EDE5EDE8E520F0E5E6E8ECE020F0E0E159
:101BA00000D3E4E0EBE5EDEDFBE920EDE5E8F1EF56
:101BB000F0E0E2E5ED00CDE5E8F1EFF020F2E5F14F
:101BC000F2E020CFD0C40000000000CDE5E8F1EF46
:101BD000F020F2E5F1F2E020CFD0CC0000000000D0
:101BE000CDE5E8F1EFF020E1EBEEEAE020C1D1C76E
:101BF0000000000000CDE5E8F1EFF020E1EBEEEAB7
:101C0000E020C1D1CA0000000000CDE5E8F1EFF00E
:101C100020EFE5F0E5EAEB2DE5E920C1D1C700CDE5
:101C2000E5F220F1E8E3EDE0EBE020ECE0EDE8EFB9
:101C3000F3EB2E00CDE5E8F1EFF020E2FBF5EEE46A
:101C4000EDEEE920F6E5EFE800CDE5F220D0C72083
:101C50003520F1E5EA20EDE0202553000000CEF22A
:101C6000F1F3F22DE520F1E8E3EDE0EBE020CFF336
:101C7000F1EA00CEF2F1F3F22DE520F1E8E3EDE038
:101C8000EBE020D1F2EEEF00CDE5E8F1EFF020F748
:101C9000F2E5EDE8FF20EAEEECE0EDE400D1EDE85E
:101CA000E62E20F3F02E20CAD720EDE020255300A9
:101CB0000000CDE5E8F1EFF02E20F0E0E1EEF2FBE0
:101CC00020445350000000C2EEF1F1F2E0ED2DE5AA
:101CD00020F0E0E1EEF2FB2044535000CDE8E7EACB
:101CE000EEE520EDE0EFF02E20E2FBF5EEE4E00083
:101CF00000C2FBF1EEEAEEE520EDE0EFF02E20E28F
:101D0000FBF5EEE4E000CDE5F220CAD7203520F166
:101D1000E5EA20EDE0202553000000CDE5F220CAE1
:101D2000D720EDE020255300000000000000000057
:101D3000C2EEF1F1F2E0ED2DE520CAD720EDE02072
:101D40002553000000C2EEF1F1F22E20F3F02ECA6E
:101D5000D720EDE0202553000000CDE5E8F1EFF0BD
:101D600020F7F22FE7E0EF203252414D000000CD86
:101D7000E5E8F1EFF020F7F22FE7E0EF20CFCBC856
:101D8000D1000000CDE5E8F1EFF020F7F22FE7E019
:101D9000EF20464C4153480000CDE5E8F1EFF0E07C
:101DA000E2EDEEF1F2FC20F7E0F1EEE20000D1ED21
:101DB000E8E62E20F3F02E20D0C720EDE0202553BA
:101DC000000000C2EEF1F1F2E0ED2DE520D0C720D9
:101DD000EDE0202553000000CDE5F220D0C720ED36
:101DE000E0202553000000000000000000C2EEF1DA
:101DF000F1F22E20F3F02ED0C720EDE02025530085
:101E00000000D1EEE1FBF2E8E5202D202564000082
:101E100000000000000000D1EEE1FBF2E8E5202D1B
:101E2000202564000000000000000000D1EEE1FB6E
:101E3000F2E8E5202D2025640000000000000000ED
:101E400000D1EEE1FBF2E8E5202D20256400000042
:101E5000000000000000D1EEE1FBF2E8E5202D20BB
:101E60002564000000000000000000D1EEE1FBF25C
:101E7000E8E5202D2025640000000000000000009F
:101E8000D1EEE1FBF2E8E5202D2025640000000002
:101E90000000000000CDE5E8F1EFF020F7F22FE7B9
:101EA000E0EF20464C4153480000CDE5E8F1EFF06B
:101EB00020F7F22FE7E0EF203252414D000000CD35
:101EC000E5E8F1EFF020F7F22FE7E0EF20CFCBC805
:101ED000D1000000CAEEEBFCF6EE20EDE0F0F3F8E6
:101EE000E5EDEE000000000000CDE5E8F1EFF020A8
:101EF000F2E5F1F2E020CFD0C40000000000CDE513
:101F0000E8F1EFF020E2FBEAEB2EF2E5F1F220CF70
:101F1000D0C400CDE5E8F1EFF020F2E5F1F2E020E9
:101F2000CFD0CC0000000000CDE5E8F1EFF020F7C5
:101F3000F22EEAEEECE0EDE420C1D1CA00CDE5F2EC
:101F400020E1EBEEEAE020C1D1CA00000000000071
:101F50000000CEF8E8E1EAE020E2E5F0F1E8E82070
:101F6000C1D1CA00000000CEF2EAE0E720F0E5E7C8
:101F7000E5F0E22E20EBE8EDE8E80000CDE5E8F141
:101F8000EFF0E0E2EDEEF1F2FC20F7E0F1EEE2003E
:101F900000CAEEEBFCF6EE20E2EEF1F1F2E0EDEE3F
:101FA000E2EBE5EDEE00C4E8F1F2E0EDF6E8EEED8F
:101FB000EDFBE920F1E1F0EEF10000CAEEECE0ED1E
:101FC000E4E020EDE520E2E5F0EDF3EBE0F1FC00EC
:101FD000CDE5F220F1E8E3EDE0EBE020CCC0CD0070
:101FE0000000000000C2EAEB2EEFE8F22FCFE5F090
:101FF000E5E7E0EFF3F1EA000000C8E7ECE5EDE526
:10200000EDE8E520F0E5E6E8ECE00000000000CDBA
:10201000E5E8F1EFF020F6E5EFE820E2FBF52E0031
:1020200000000000C2EEF1F1F2E0ED2DE520CAD192
:1020300020EDE020CFD0CC0000C2EEF1F1F2E0EDD7
:102040002DE520CAD120C1D6CA3100000000C2EE61
:10205000F1F1F2E0ED2DE520CAD120C1D6CA32005F
:10206000000000CDE5F220CAD120C1D6CA3100005F
:102070000000000000000000CDE5F220CAD120C120
:10208000D6CA3200000000000000000000C2FBEAD7
:10209000EBFEF7E5EDE8E520EFE8F2E0EDE8FF0024
:1020A0000000CDE5F220CAD10000000000000000D1
:1020B00000000000000000CDE5F220CAD12035204C
:1020C000F1E5EAF3EDE4000000000000D3E43A207B
:1020D000EFEEF1F220EDE5E8F1EFF0E0E2E5ED0002
:1020E00000D3E43A20CFD0C420EDE5E8F1EFF0E0F2
:1020F000E2E5ED000000D3E43A20CFD0CC20EDE5BE
:10210000E8F1EFF0E0E2E5ED000000C8E7ECE5ED16
:10211000E5EDE8E520E4E0F2E02FE2F0E5ECFF0099
:10212000C8E7ECE5EDE5EDE8E520EFE0F0E0ECE513
:10213000F2F0EEE200D1EEE1FBF2E8E5202D202501
:1021400064000000000000000000D1EEE1FBF2E8B6
:10215000E5202D202564000000000000000000D1D3
:10216000EEE1FBF2E8E5202D2025640000000000F0
:1021700000000000D1EEE1FBF2E8E5202D2025640F
:10218000000000000000000000D1EEE1FBF2E8E5F5
:10219000202D202564000000000000000000D1EE8A
:1021A000E1FBF2E8E5202D2025640000000000009E
:1021B000000000D1EEE1FBF2E8E5202D20256400CF
:1021C0000000000000000000CDE5E8F1EFF020F78E
:1021D000F22FE7E0EF20464C4153480000CDE5E800
:1021E000F1EFF020F7F22FE7E0EF203252414D00FF
:1021F0000000CDE5E8F1EFF020F7F22FE7E0EF2067
:10220000CFCBC8D1000000D1EEE1FBF2E8E5202DF4
:10221000202564000000000000000000CDE5E8F18A
:10222000EFF020F2E5F1F2E020CFD0C40000000092
:1022300000CDE5E8F1EFF020E2FBEAEB2EF2E5F16C
:10224000F220CFD0C400CDE5E8F1EFF020F2E5F1C7
:10225000F2E020CFD0CC0000000000CDE5E8F1EFA7
:10226000F020F7F22EEAEEECE0EDE420C1D1CA0056
:10227000CDE5F220E1EBEEEAE020C1D1CA0000009A
:102280000000000000CEF8E8E1EAE020E2E5F0F12D
:10229000E8E820C1D1CA00000000CEF2EAE0E72061
:1022A000F0E5E7E5F0E22E20EBE8EDE8E80000CD10
:1022B000E5E8F1EFF0E0E2EDEEF1F2FC20F7E0F11D
:1022C000EEE20000CDE5F220E1EBEEEAE020C1D144
:1022D000C70000000000000000CEF8E8E1EAE020BE
:1022E000E2E5F0F1E8E820C1D1C700000000CDE54B
:1022F000E8F1EFF020EFE5F0E5EAEB2DE5E920C1AC
:10230000D1C700CDE5F220F1E8E3EDE0EBE020CC31
:10231000C0CD000000000000C2EAEB2EEFE8F22F73
:10232000CFE5F0E5E7E0EFF3F1EA000000C8E7EC05
:10233000E5EDE5EDE8E520F0E5E6E8ECE00000009D
:102340000000CDE5E8F1EFF020F6E5EFE820E2FB54
:10235000F52E0000000000C2EEF1F1F2E0ED2DE5F7
:1023600020CAD120EDE020CFD0CC0000CEF8E8E1AB
:10237000EAE020F0E0E1EEF2FB20D6CF0000000022
:1023800000C2EEF1F1F2E0ED2DE520F0E0E1EEF239
:10239000FB20D6CF0000CEF2F1F3F22DE520F1E8DC
:1023A000E3EDE0EBE020CFF3F1EA00CEF2F1F3F25F
:1023B0002DE520F1E8E3ED20CEF1F2E0EDEEE200D4
:1023C000C2FBEAEBFEF7E5EDE8E520EFE8F2E0ED31
:1023D000E8FF000000CDE5F220CAD10000000000B7
:1023E00000000000000000000000CDE5F220CAD18E
:1023F000203520F1E5EAF3EDE4000000000000D311
:10240000E43A20EFEEF1F220EDE5E8F1EFF0E0E262
:10241000E5ED0000D3E43A20CFD0C420EDE5E8F1AB
:10242000EFF0E0E2E5ED000000D3E43A20CFD0CCBD
:1024300020EDE5E8F1EFF0E0E2E5ED000000C8E7AF
:10244000ECE5EDE5EDE8E520E4E0F2E02FE2F0E593
:10245000ECFF00C8E7ECE5EDE5EDE8E520EFE0F0A6
:10246000E0ECE5F2F0EEE200D1EEE1FBF2E8E5208F
:102470002D202564000000000000000000D1EEE1E6
:10248000FBF2E8E5202D202564000000000000009C
:102490000000D1EEE1FBF2E8E5202D2025640000EC
:1024A00000000000000000D1EEE1FBF2E8E5202D85
:1024B000202564000000000000000000D1EEE1FBD8
:1024C000F2E8E5202D202564000000000000000057
:1024D00000D1EEE1FBF2E8E5202D202564000000AC
:1024E000000000000000C6F3F0EDE0EB5CD1EEE18F
:1024F000FBF2E8FF0025642E20CFE5F0E5E4E0F2F2
:10250000F7E8EA0025642E20CFF0E8E5ECEDE8EAF4
:102510000025642E20C7E0F9E8F2E00025642E20B3
:10252000D1EEE1FBF2E8FF00CCE5EDFE5CC6F3F096
:10253000EDE0EB00C1D1CF20CCCA202000C1D1CF2B
:1025400020D6D1CF2000D6D1CF20CFCBC8D100CF3D
:10255000C82020CCCA202000C1D1CA20CFD0C4318D
:1025600000C1D1CA20CFD0C43200C1D1CA20CFD03F
:10257000CC3100C1D1CA20CFD0CC3200C1D1C720CC
:10258000CFCBC8D100EEF8E8E1EAE0000000255327
:102590003A20253032582E2530325800CCE5EDFE59
:1025A0005CC8EDF4EEF0ECE0F6E8FF0025642E20C8
:1025B000C8E7ECE5F0E5EDE8FF0025642E20C8ED66
:1025C000F4EEF0ECE0F6E8FF0025642E20D2E5F111
:1025D000F2FB0025642E20CDE0F1F2F0EEE9EAE016
:1025E0000025642E20D3EFF0E0E2EBE5EDE8E50016
:1025F00025642E20C6F3F0EDE0EB00CCE5EDFE0007
:10260000C0CA2DEEF8E8E10000C0CA2DEDEEF0ECF6
:102610000000C0CA2DEDEEF0EC0000C0CA2DF3F1B1
:10262000EAEEF000C0CA2DE2FBEAEB0000C0CA2DC2
:10263000E1E5E3EB0000C0CA2DE8F1EFFBF200C0DA
:10264000CA2DEFF3F1EA0000C0CA2DEEE4EDEEF181
:1026500000C0CA2DEEF8E8E10000C0CA2DE0E2F2A9
:10266000EE0000C0CA2DEFF0EEE20000D1EEE2EC89
:10267000E5F1F2E8EC2E20255300253032643A25AE
:102680003032643A253032640020202020C8EDE842
:10269000F6E8E0EBE8E7E0F6E8FF20202000202065
:1026A00020EDE520EEEFF0E5E4E5EBE5ED2121217D
:1026B00020200020202020D2E8EF20E0EFEFE0F003
:1026C000E0F2E02020202000CFF0E5E4F3EFF0E599
:1026D000E6E4E5EDE8E500CDE5E8F1EFF0E0E2ED78
:1026E000EEF1F2FC00CDE5F220CAD100CFD0C4203B
:1026F000CAD12530317500CDE5F220CAD100CFD046
:10270000CC20CAD12530317500CDE5F220CAD100E8
:10271000CDE5E8F1EFF02EF7F22E20464C4153487C
:1027200000CDE5E8F1EFF02EE7E0EF2E464C415307
:102730004800CDE5E8F1EFF02EF7F22E20504C499D
:102740005300CDE5E8F1EFF02EE7E0EF2E504C49D5
:102750005300CDE5E8F1EFF02EE7E0EF2E325241E5
:102760004D00CDE5E8F1EFF02EF7F22E2032524188
:102770004D2000D3F1F2E0EDEEE2E8F2E520F7E0E3
:10278000F1FB00CEF2EAE0E720F0E5E7E5F0E22E2B
:10279000EBE8ED00CAEEEC2EEDE520E2E5F0EDF31E
:1027A000EBE0F1FC00CAEEEBFCF6EE20EDE0F0F31E
:1027B000F8E5EDEE00CAEEEBFCF6EE203120EDE0A0
:1027C000F0F3F82E00CAEEEBFCF6EE203220EDE03E
:1027D000F0F3F82E00D3E4E0EB2ECFCED1D220EDF3
:1027E000E5E8F1EFF000D3E4E0EB2ECFD0C420ED2C
:1027F000E5E8F1EFF000D3E4E0EB2ECFD0CC20ED14
:10280000E5E8F1EFF000CDE5F220CAD120EDE020BF
:10281000C1D6CA3100CDE5F220CAD120EDE020C1F9
:10282000D6CA3200CEF8E8E1EAE020F0E0E1EEF2CC
:10283000FB20D6CF00CDE5F220E1EBEEEAE020C1AF
:10284000D1C700CDE5E8F1EFF02EE2E5F0F12EC1C1
:10285000D1C700CDE5E8F1EFF02EEFE5F0E5EAEBCA
:102860002E00CDE5F220CAD100CDE5E8F1EFF02E43
:10287000E2F5EEE42ECFD3D1CA00CDE5E8F1EFF0DA
:102880002EE2F5EEE42ED1D2CECF00CDE5E8F1EF89
:10289000F02EF6E5EFFC20C2DBD500CDE5E8F1EF48
:1028A000F02EE7E0EF2E20C2DBD500CDE5F220CA06
:1028B000D100CDE5F220F1E8E3EDE0EBE020CCC083
:1028C000CD00CDE5F220E1EBEEEAE020C1D1CA0077
:1028D000CDE5E8F1EFF02EE2E5F0F12E20C1D1CA0E
:1028E00000CDE5F220CAD100CDE5E8F1EFF02EE70A
:1028F000E0EF2E20C1D1CA00CDE5E8F1EFF02EE2E5
:10290000FBEAEB2EEAEEEC2E00CDE5E8F1EFF02E3F
:10291000E2EAEB2E20EAEEEC2E00CDE5E8F1EFF056
:102920002EEAEEEDF2F02EEAEEEC00CDE5F220CA52
:10293000D100CDE5F220E1EBEEEAE020C1D1CA0002
:10294000CDE5E8F1EFF02EE2E5F0F12E20C1D1CA9D
:1029500000CDE5E8F1EFF02EF7F22EEAEEECE0ED37
:10296000E400CDE5E8F1EFF02EE2FBEAEB2ED2E554
:10297000F1F200CDE5E8F1EFF02EE2EAEB2E20D205
:10298000E5F1F200CDE5E8F1EFF02EE2F5EEE42E10
:1029900020EAEEEC00CDE5F220D0C700CFD0C42075
:1029A000CAD72530317500CDE5F220CAD700CFD087
:1029B000CC20CAD72530317500CDE5F220CAD7002A
:1029C000C0CA2DCDE5F220EEF2E2E5F2E000C0CA89
:1029D0002DD1EDE8E6E5ED2EE7E0EFE0F1E000CF08
:1029E000EEECE5F5E020E220EBE8EDE8E800CDE5EF
:1029F000E8F1EFF02E445350203252414D2000D2E6
:102A0000EEEA20EFEEEAEEFF00CDE8E7EAEEE520A1
:102A1000EDE0EFF02EE2FBF500C2FBF1EEEAEEE5B1
:102A200020EDE0EFF02EE2FBF500CDE5E8F1EFF070
:102A30002E20CCCA20D3CC00C2D720F2F0E0EAF29C
:102A400020E2EEF1F1F22E00C0CA2DCDE5F220EE2B
:102A5000F2E2E5F2E0255300CDE5E8F1EFF02EF3E8
:102A6000E42EC4D4C7255300CDE5E8F1EFF02EF3F2
:102A7000E42EC2DBD5255300D3E4E0EB2EE1E5E7FD
:102A800020EEF2E22E255300D3E4E0EB2EEEE1ED52
:102A90002EEFEEEC2E255300CFEEECE5F5E020E234
:102AA00020EBE8EDE8E800CDE5E8F1EFF02E20C4FA
:102AB000D4C700C0CA2DD1ED2EE7E0EFE0F1E02051
:102AC000255300CFEEF0EEE320EFEE20EFEEECE545
:102AD000F5E500C0E2F2EEEAEEEDF2F0EEEBFC001E
:102AE000CDE5F220F1E8E3EDE0EBE020D0C700D344
:102AF000E4E0EB2E20EDE5E8F1EFF0E0E2E5ED00BB
:102B0000CDE8E7EAE8E920F3F0EEE22E20D0C700B6
:102B1000CDE5F220CAD700D1EDE8E62E20F3F0EEA5
:102B2000E2EDFF20CFD0CC00CEF8E8E1EAE020F0E3
:102B3000E0E1EEF2FB20D6CF00C2F5EEE4205258E1
:102B400020D6CF20EFF3F1F200C2FBF1EEEAE0FF76
:102B500020F2E5ECEFE5F0E0F200CDE8E7EAE0FF97
:102B600020F2E5ECEFE5F0E0F200CDE5E8F1EFF082
:102B70002E20E4E0F22EF2E5ECEF00CDE8E7EAE803
:102B8000E920F3F0EEE2E5EDFC204400CEF8E8E1C8
:102B9000EAE020F0E0E1EEF2FB20D6CF00C2F5EE55
:102BA000E420525820D6CF20EFF3F1F200CDE8E731
:102BB000EAE8E920F3F0EEE2E5EDFC20440020CD68
:102BC000E5F220F1E2FFE7E820F120C1D1CF212199
:102BD000212000C8F1F5EEE4ED2E00CAEEEDF2F092
:102BE000EEEBFC00CFF3F1EA00CEF1F2E0EDEEE225
:102BF00000CDE5E8F1EFF02E00CF2EEDE5E8F1EFA6
:102C0000F000CEE6E8E4E0EDE8E500CDE0EB2EEF05
:102C1000F3F1EA00D3E42EEFF3F1EA00D0E5F7FC9C
:102C200000CFD0C400CFD0CC00D3EFF02E20D2CC38
:102C300000CEF8E8E1EAE000C8F1F5EEE4ED2E00A0
:102C4000CFD0CC20CFC02530327500CDE5E8F1EFF4
:102C5000F02E00CF2EEDE5E8F1EFF000CEE6E8E44F
:102C6000E0EDE8E500C1CBCA20CACC2530327500C2
:102C70003F307830383F003F307830393F00D0E582
:102C8000F7FC00CFD0C400CFD0CC00D3EFF02E2083
:102C9000D2CC00C8F1F5EEE4ED2E00CFD0C420CFA9
:102CA000C02530327500CDE5E8F1EFF02E00CF2ED3
:102CB000EDE5E8F1EFF000CEE6E8E4E0EDE8E50070
:102CC0003F307830373F00CFD0C420D6CF253032C8
:102CD0007500D1E8F1F2E5EC2E00D0E5F7FC00CF6D
:102CE000D0C400CFD0CC00D3EFF02E20D2CC00CF78
:102CF000D0C400CFD0CC00C7C0D900CDC5D2000011
:102D000000000000000000000000000000000000C3
:102D10000000000000000100830301000001000129
:102D2000010001000001D1E8EDF5F0EEEDE8E7E08B
:102D3000F6E8FF20F7E0F1EEE20000350101009F28
:102D40003B010000020001010201000001CDEEEC98
:102D5000E5F020E0EFEFE0F0E0F2E000000000003E
:102D600000003B0202008303010100030001010196
:102D700001020001CDEEECE5F020E0EFEFE0F0E045
:102D8000F2E0000000000000003B020200830301AB
:102D90000100FF0001010101000001CAEEEDF2F0A7
:102DA000EEEBFC20E2FBF52EF1E8E3EDE0EBE000DA
:102DB0003D0101009F3B01000002000101010100F3
:102DC0000001CFEEF0EEE320EFF0E5E4F3EFF0E505
:102DD000E6E4E5EDE8FF003C0202098303010000A0
:102DE000160001010301000001CFEEF0EEE320EF39
:102DF000F0E5E4F3EFF02E20EFEE20CA43003C02B2
:102E00000209830301000016000101030100000113
:102E1000C2F0E5ECFF20EFE5F0E5E7E0EFF3F1EAE3
:102E2000E0000000003902020783030100000500F2
:102E300001010101000001D3E4E5F0E62E20F0E5F8
:102E4000EBE520EAEEEC2E20CFD0C40037010100E4
:102E50009F3B010000020001010201000001D3E4D8
:102E6000E5F0E62E20F0E5EBE520EAEEEC2E20CFB3
:102E7000D0CC00360101009F3B010000020001019F
:102E80000101000001C7E0E3F0F3E1EB2E20F7F3CE
:102E9000E2F1F2E22E20CFD0CC003C020209830303
:102EA000020000160001010302000101D1E5F2E574
:102EB000E2EEE920E0E4F0E5F100000000000000AF
:102EC00000380202008303010100F7000101010143
:102ED00000000055E2FBF520EDEEECE8EDE0EBFC48
:102EE000EDEEE5000000000036020204830301124B
:102EF00000320001010101000001D7E0F1F2EEF221
:102F0000E000000000000000000000000000003AA7
:102F100002030B8303011000E80301010401000018
:102F200001D1EEE2ECE5F1F2E8ECEEF1F2FC0000AA
:102F300000000000000037010000DE04010000076F
:102F40000001010201000001D1EDE8E6E5EDE8E550
:102F500020EEF2E2E5F2E020C0CA000000390202F1
:102F6000098303010000140001010301000001D2E4
:102F7000E8EF20E4E5F2E5EAF2EEF0E00000000020
:102F8000000000003502020083030101000300017C
:102F9000010202000001CAEEF0F0E5EAF6E8FF20C7
:102FA000EDE0EFF0FFE6E5EDE8FF00330304048316
:102FB0000301A8FD580201010701000000CAEEF05C
:102FC000F0E5EAF6E8FF20F2EEEAE000000000009B
:102FD00000003304050183030119FCE70301010824
:102FE00002000000CFF0EEF2EEEAEEEB20EEE1ECB4
:102FF000E5EDE000000000000039010000B73B01F2
:103000000100020001010301000001CFF0E8E7ED3B
:10301000E0EA20F7E5F2EDEEF1F2E8000000000052
:1030200039010000CF3B0101000200010103020051
:103030000001C4EEEFF3F1F2E8ECFBE520EFF0EE77
:10304000E2E0EBFB0000003902020C830301000008
:10305000500002010303000001CFEEF0EEE320EF89
:10306000EE20EFEEECE5F5E500000000000039028F
:1030700002078303010000FF0001010304000001B7
:10308000C4EEEFF3F1F2E8ECE0FF20EFEEECE5F553
:10309000E0000000003902020C830301140050001C
:1030A00014010305000001D2E8EF20E0E2F2EEEAAD
:1030B000EEEDF2F0EEEBFF00000000003901000041
:1030C000E73B010100030001010306000001CFE519
:1030D000F0E8EEE420E1E5E3EBEEE3EE20C0CA0029
:1030E000000000390202078303010100FF00010113
:1030F0000307000001CFE5F0E8EEE420EFEEE2F296
:103100002EE1E5E3EB2E20C0CA003902020783035B
:10311000010100FF0001010308000001D0E5E7E51F
:10312000F0E2E8F0EEE2E0EDE8E50000000000008B
:1031300000330101009F3B01000002000101030177
:10314000000001D1EEE2ECE5F1F2E8ECEEF1F2FC88
:103150000000000000000000370100000B3C0100EF
:10316000000D0001010202000001D2E8EF20EBE8AF
:10317000EDE8E80000000000000000000000000290
:10318000010000A73C010100020001010101000053
:1031900001D2E5EBE5ECE5F5E0EDE8EAE000000062
:1031A000000000000000370101009F3B0100000209
:1031B0000001010203000001CFEEF0EEE320EFF08A
:1031C000E5E4F3EFF02E20EFEE204400003702029A
:1031D00009830301C0FF400001010204000001CF88
:1031E000EEF0EEE320E0E2E0F0E8E820EFEE20444D
:1031F0000000000037020209830301C0FF40000104
:10320000010205000001CAEEEDF2F0EEEBFC20F247
:10321000E5ECEFE5F0E0F2F3F0FB00370101009F91
:103220003B010000020001010206000001C2E5F0BE
:10323000F52EE7EDE0F7E5EDE8E520F2E5ECEFE56A
:10324000F0003702020C8303010000640001010258
:1032500007000001CDE8E6ED2EE7EDE0F7E5EDE84B
:10326000E520F2E5ECEFE5F0003702020C83030104
:103270000000640001010208000001D1EAEEF0EE56
:10328000F1F2FC20D2CC00000000000000000000A1
:1032900037010000BF3C01000002000101020900EB
:1032A0000001D2E8EF20E7E0F9E8F2FB00000000BF
:1032B0000000000000000001010000D73C010000F8
:1032C000080001010101000001C4EEEF2E20E2F030
:1032D000E5ECFF20E1E5E720ECE0ED2E0000030245
:1032E00002088303010000630001010101000001E5
:1032F000CFE5F0E5EAF0FBF2E8E520E8ECEFF3EBF0
:10330000FCF1EEE2000502020C830301000036002E
:1033100002010101000001CFE5F0E5EAF0FBF2E86F
:10332000E520E8ECEFF3EBFCF1EEE2000502020C25
:103330008303011200360002010101000001CFE504
:10334000F0E5EAF0FBF2E8E520E8ECEFF3EBFCF166
:10335000EEE2000502020C830301000036000101C9
:103360000101000001CAEEECEFE5EDF1E0F6E8FF47
:1033700020E7E0E4E5F0E6EAE8000402020C83035B
:10338000020000120002010201000101CAEEECEF8E
:10339000E5EDF1E0F6E8FF20E7E0E4E5F0E6EAE855
:1033A000000402020C83030200001200010102016A
:1033B000000101CFEEF0EEE320EFF0E5E4F3EFF0F3
:1033C0002E20EFEE20D0C70009020209830301007E
:1033D00000100001010101000001C7E0E3F0F3E18A
:1033E000EBE5EDE8E520F7F3E2F1F2E2E8F20006C2
:1033F0000202098303010000200001010101000015
:1034000001C7E0E3F0F3E1EB2E20F7F3E2F1F2E2A3
:103410002E20D0C70000060202098303020000200C
:103420000001010301000101D2E8EF20EFF0E8E51F
:10343000ECEDE8EAE00000000000000000070100F9
:1034400000373D010000030001010101000001D12E
:10345000EDE8E6E5EDE8E520F3F0EEE2EDFF20C073
:10346000CA000000070101009F3B010000020001AB
:10347000010101000001D7E0F1F2EEF2E020CFD02F
:10348000C400000000000000000000080100005B14
:103490003D010000050001010101000001D7E0F13C
:1034A000F2EEF2E020CFD0CC0000000000000000DF
:1034B0000000090100005B3D010000050001010161
:1034C00001000001D1E4E2E8E320EFE5F02EF4F0A2
:1034D000EEEDF2E020CFD0C4000502020C83030120
:1034E0000000FF0001010201000001D1E4E2E8E375
:1034F00020E7E0E42EF4F0EEEDF2E020CFD0C400BF
:103500000502020C8303010000FF0001010202001A
:103510000001D1E4E2E8E320CFD0CC0000000000BD
:10352000000000000000000502020C8303010000FF
:10353000FF0001010203000001D1E4E2E8E320C240
:10354000D720CFD0C420EEF220CFD3D1CA000502BD
:10355000020C8303010000FF0001010204000001CE
:10356000CEE3F0E0EDE8F72E20EFEEEBEEF1FB20FE
:10357000CFD0C400000B0101009F3B0100000200FE
:1035800001010201000001C7E0E4E5F0E6EAE02005
:10359000E2FBEAEB2E20CFD0CC0000000B02020CA5
:1035A0008303010000FF0001010202000001C7E0E7
:1035B000E4E5F0E6EAE020E2EAEB2E20CFD0CC0012
:1035C0000000000B02020C8303010000FF00010158
:1035D0000203000001C7E0E4E5F0E6EAE020E2EAE9
:1035E000EB2E20CFD0C4000000000B02020C83039E
:1035F000010000FF0001010204000001CCE8ED2EF3
:1036000020E4EBE8F22E20CFD0C400000000000040
:10361000000B02020C8303010000FF000101020500
:10362000000001C7E0E4E5F0E6EAE020F1F0E0E1C7
:10363000E0F22E20CFD0C400210202068303010055
:1036400000140001010101000001C4EBE8F2E5EB08
:10365000FCEDEEF1F2FC20EAEEECE0EDE4FB002202
:103660000202068303011E00640001010101000043
:1036700001C4EBE8F2E5EBFCEDEEF1F2FC20EAEE42
:10368000ECE0EDE4FB00220202068303011E00F4DD
:10369000010A0A0101000001D2E5F1F2EEE2E0FFC9
:1036A00020EAEEECE0EDE4E000000000002601017D
:1036B000009F3B010000020001010101000001D157
:1036C000EBE5E4FFF9E8E520EAEEECE0EDE4FB00F1
:1036D00000000000250501009F3B200000020001C2
:1036E000010501000201C1EBEEEAE8F0EEE22E2056
:1036F000EAEEECE0EDE4FB00000000240501009F91
:103700003B200000020001010501000201D2F0E0AF
:10371000EDF1EBFFF6E8FF20D6CF0000000000003F
:103720000000270101009F3B010000020001010190
:1037300001000001C1EBEEEAE8F0EEE22E20EAEE35
:10374000ECE0EDE4FB20D6CF00280501009F3B20F4
:103750000000020001010501000201CAEEEBE8F7DA
:10376000E5F1F2E2EE20EAEEECE0EDE4000000002C
:103770002C02020083030104002000040401010064
:103780000001CAEEEBE8F7E5F1F2E2EE20EAEEEC3A
:10379000E0EDE420C00000290202008303010000E4
:1037A000200001010101010001CAEEF0F0E5EAF696
:1037B000E8FF20F7E0F1F2EEF2FB00000000230248
:1037C000020A8303019CFF64000101010100000162
:1037D000D1EDE8E6E5EDE8E520F3F0EEE2EDFF20DF
:1037E000CAD10000002D0202098303010000140069
:1037F00001010301000001D1EDE8E6E5EDE8E52077
:10380000F3F0EEE2EDFF20D2CC0000002D02020921
:103810008303010000140001010302000001CAD16A
:1038200020EFEE20F3ECEEEBF7E0EDE8FE00000019
:103830000000002D010000973D0100000200010181
:103840000303000001D1E8E3EDE0EBE8E7E0F6E890
:10385000FF20EAEEECE0EDE400002E0501009F3BC6
:10386000200000020001010501000201C7E0E4E5BB
:10387000F0E6EAE020EDE020F4E8EAF12EEAEEECF2
:10388000001102020683030100000500010101018D
:10389000000001C7E0E4E5F0E6EAE020EDE020F416
:1038A000E8EAF12EEAEEEC001102020683030100C1
:1038B000000A0001010101000001C1EBEEEAE8F09D
:1038C000EEE22E20EAEEECE0EDE4FB000000001456
:1038D0000501009F3B2000000200010105010003DB
:1038E00001C7E0E4E5F0E6EAE020EDE020E2FBEAF3
:1038F000EB2EEAEEEC00130202068303200000E840
:1039000003320A0301000301D2F0E0EDF1EBFFF610
:10391000E8FF20D6CF0000000000000000170101E2
:10392000009F3B010000020001010101000001C1F4
:10393000EBEEEAE8F0EEE22E20EAEEECE0EDE4FB5E
:1039400020D6CF00180501009F3B20000002000197
:10395000010501000301CAEEECE0EDE4E020CFD068
:10396000CC20E220D6CF0000000000190202008324
:1039700003200100200001010301000301CAEEEB56
:10398000E8F7E5F1F2E2EE20EAEEECE0EDE400002B
:1039900000001C0202008303010400200004040153
:1039A00001000001CFF0E8E5EC20F2E5F1F2EEE2F3
:1039B000EEE920EAEEEC2E0000120101009F3B012F
:1039C0000000020001010101000001CAEEF0F0E573
:1039D000EAF6E8FF20F7E0F1F2EEF2FB000000006B
:1039E0001502020A8303019CFF640001010101002A
:1039F0000001D1E8E3EDE0EBE8E7E0F6E8FF20EADC
:103A0000EEECE0EDE400001D0501009F3B2000000E
:103A1000020001010501000301C8EDF2E5F0F4E543
:103A2000E9F120F1E2FFE7E80000000000000001FA
:103A30000000AF3D01000002000101000100000094
:103A4000CFF0EEF2EEEAEEEB000000000000000026
:103A5000000000000000010000C73D01000003005D
:103A600001010001000000D1EAEEF0EEF1F2FC20CD
:103A7000EFE5F0E5E4E0F7E80000000000010000F9
:103A8000EB3D010000060001010001000000C1E85B
:103A9000F2FB20E4E0EDEDFBF5000000000000008B
:103AA00000000000010000333E01000001000101A0
:103AB0000001000000D7E5F2EDEEF1F2FC0000009D
:103AC00000000000000000000000000100003F3E78
:103AD000010000030001010001000000D1F2EEEF3F
:103AE000EEE2FBE520E1E8F2FB0000000000000050
:103AF0000000010000633E0100000200010100011E
:103B0000000000C2F0E5ECFF20EEE6E8E4E0EDE8BE
:103B1000FF20EAEEEC2E00003702020683030100CC
:103B200000FF000101020A000001D2F0E0EDE7E829
:103B3000F2EDFBE520EAEEECE0EDE4FB00000037FF
:103B40000501009F3B60000002000101060B000020
:103B500001CFE5F0E5EDE0E7EDE0F7E5EDE8E520A4
:103B6000CFD0CC0000001B0100007B3E2000006194
:103B70000001010301000301CFE5F0E5EDE0E7ED11
:103B8000E0F7E5EDE8E520CFD0C40000002B010010
:103B9000007B3E200000610001010301000301E2FF
:103BA000FBEAEB2E00000000000000E2EAEB2E0032
:103BB00000000000000000E1FBF1F2F0FBE9000072
:103BC000000000ECE5E4EBE5EDEDFBE9000000E2D0
:103BD000EAEB2E0000000000000000E2FBEAEB2E02
:103BE00000000000000000F2F0E5E2EEE6EDFBE987
:103BF000000000EDEEF0ECE0EBFCEDFBE90000F185
:103C0000EFEEEAEEE9EDFBE9000000C0C2C0CDD264
:103C100000000000000000C0C2C0CDD220CFD0C440
:103C2000000000C0C2C0CDD220CFD0CC000000C068
:103C3000CACFC020CFD0C400000000C0CACFC0206F
:103C4000CFD0CC00000000CAC5C4D020CFD0C40063
:103C5000000000CAC5C4D020CFD0CC00000000D3E3
:103C6000CFCA2DD620CFD0C4000000D3CFCA2DD6C6
:103C700020CFD0CC000000C2D7D2CE20CFD0C400FD
:103C8000000000C2D7D2CE20CFD0CC00000000C0B0
:103C9000CDCAC020CFD0C400000000C0CDCAC02013
:103CA000CFD0CC000000003220EAEEEDF6E5E2E0F5
:103CB000FF00003320EAEEEDF6E5E2E0FF0000321F
:103CC0003030000000000000000000343030000000
:103CD00000000000000000C4D4C72DCFF0CFE400E6
:103CE000000000C4D4C72DCCCA310000000000C4BD
:103CF000D4C72DCCCA320000000000C4D4C72D4C5C
:103D000036300000000000CDC72DCFF0CFE400001A
:103D1000000000CDC72DCCCA00000000000000CF7D
:103D2000CFC72DCFF0CFE400000000CFCFC72DCC00
:103D3000CA000000000000E0EAF22BEFE0F1F10021
:103D4000000000E0EAF2E8E2EDFBE900000000EF2D
:103D5000E0F1F1E8E2EDFBE90000002D3130303018
:103D6000C3F600000000002D353030C3F60000001F
:103D700000000030C3F60000000000000000002B2F
:103D8000353030C3F60000000000002B31303030F9
:103D9000C3F60000000000CAD1310000000000009E
:103DA000000000CAD13200000000000000000055F1
:103DB0005342000000000000000000525334383528
:103DC00000000000000000D1D2C0CDC4C0D0D2009D
:103DD0000000004D4F44425553000000000000CC4D
:103DE000DDCA2D31303100000000003630300000D7
:103DF0000000000000000031323030000000000000
:103E000000000032343030000000000000000034B8
:103E1000383030000000000000000039363030003B
:103E20000000000000000031393230300000000096
:103E3000000000380000000000000000000000ED5D
:103E4000E5F2000000000000000000F7E5F20000CD
:103E500000000000000000EDE5F7E5F200000000C2
:103E600000000031000000000000000000000032EF
:103E70000000000000000000000000300000000012
:103E800000000000000000314100000000000000C0
:103E9000000000324100000000000000000000337C
:103EA000410000000000000000000034410000005C
:103EB000000000000000003541000000000000008C
:103EC0000000003641000000000000000000003744
:103ED0004100000000000000000000384100000028
:103EE0000000000000000039410000000000000058
:103EF00000000031304100000000000000000031EF
:103F0000314100000000000000000031324100009B
:103F100000000000000000313341000000000000FC
:103F200000000031344100000000000000000031BA
:103F30003541000000000000000000313641000063
:103F400000000000000000313741000000000000C8
:103F50000000003138410000000000000000003186
:103F60003941000000000000000000323041000034
:103F7000000000000000003231410000000000009D
:103F8000000000323241000000000000000000325A
:103F90003341000000000000000000323441000006
:103FA0000000000000000032354100000000000069
:103FB0000000003236410000000000000000003226
:103FC00037410000000000000000003238410000CE
:103FD0000000000000000032394100000000000035
:103FE00000000033304100000000000000000033FA
:103FF00031410000000000000000003332410000A9
:10400000000000000000003142000000000000003D
:1040100000000032420000000000000000000033F9
:1040200042000000000000000000003442000000D8
:104030000000000000000035420000000000000009
:1040400000000036420000000000000000000037C1
:1040500042000000000000000000003842000000A4
:1040600000000000000000394200000000000000D5
:10407000000000313042000000000000000000316C
:104080003142000000000000000000313242000018
:10409000000000000000003133420000000000007A
:1040A0000000003134420000000000000000003138
:1040B00035420000000000000000003136420000E0
:1040C0000000000000000031374200000000000046
:1040D0000000003138420000000000000000003104
:1040E00039420000000000000000003230420000B1
:1040F000000000000000003231420000000000001B
:1041000000000032324200000000000000000032D7
:104110003342000000000000000000323442000082
:1041200000000000000000323542000000000000E6
:1041300000000032364200000000000000000032A3
:10414000374200000000000000000032384200004A
:1041500000000000000000323942000000000000B2
:104160000000003330420000000000000000003377
:104170003142000000000000000000333242000025
:1041800000000000000000314300000000000000BB
:104190000000003243000000000000000000003377
:1041A0004300000000000000000000344300000055
:1041B0000000000000000035430000000000000087
:1041C000000000364300000000000000000000373F
:1041D0004300000000000000000000384300000021
:1041E0000000000000000039430000000000000053
:1041F00000000031304300000000000000000031EA
:104200003143000000000000000000313243000094
:1042100000000000000000313343000000000000F7
:1042200000000031344300000000000000000031B5
:10423000354300000000000000000031364300005C
:1042400000000000000000313743000000000000C3
:104250000000003138430000000000000000003181
:10426000394300000000000000000032304300002D
:104270000000000000000032314300000000000098
:104280000000003232430000000000000000003255
:1042900033430000000000000000003234430000FF
:1042A0000000000000000032354300000000000064
:1042B0000000003236430000000000000000003221
:1042C00037430000000000000000003238430000C7
:1042D0000000000000000032394300000000000030
:1042E00000000033304300000000000000000033F5
:1042F00031430000000000000000003332430000A2
:104300000000000000000001080106030704050189
:1043100001010E0B090101010A0108010603070151
:104320000504010F0C10091112130D0108010603F9
:1043300007010504010F0C0B090D0E010101080115
:1043400006030704050101010E0B090101010A0022
:104350000000000000004F00000007000700147F6D
:10436000147F14242A7F2A122313086462364955C5
:1043700022400005030000001C2241000041221CD5
:104380000014083E081408083E08080050300000D9
:104390000808080808006060000020100804023EB9
:1043A0005149453E00427F4000426151494621410A
:1043B000454B311814127F1027454545393C4A4971
:1043C00049300171090503364949493606494929E9
:1043D0001E00363600000056360000081422410048
:1043E0001414141414004122140802015109063255
:1043F0004971413E7E1111117E7F494949363E4146
:104400004141227F4141221C7F494949417F09099D
:1044100009013E4149493A7F0808087F00417F4130
:10442000002040413F017F081422417F404040402E
:104430007F020C027F7F0408107F3E4141413E7F96
:10444000090909063E4151215E7F0919294646495D
:1044500049493101017F01013F4040403F1F204059
:10446000201F3F4070403F63140814630708700822
:10447000076151494543007F414100020408102073
:104480000041417F000402010204404040404000DE
:104490000102040020545454787F4844443838447E
:1044A000444420384444487F3854545418087E0902
:1044B00001020C5252523E7F0804047800447D40B1
:1044C000002040443D007F1028440000417F400010
:1044D0007C041804787C0804047838444444387C0C
:1044E00014141408081414187C7C08040408485494
:1044F000545420043F4440203C4040207C1C204039
:10450000201C3C4030403C44281028440C50505063
:104510003C4464544C44000836410000007F0000D5
:104520000041360800020102020114141414140E92
:104530000A0E000024242F24247F7F7F7F7F7F7F2B
:104540007F7F7F7F7F7F7F7F7F7F7F7F7F7F7F7F7B
:104550007F7F7F7F7F7F7F7F7F7F7F7F7F7F7F7F6B
:104560007F7F7F7F7F7F7F7F7F7F7F7F7F7F7F7F5B
:104570007F7F7F7F7F7F7F7F7F7F7F7F7F7F7F7E4C
:104580001111117E7F494949337F494949367F01DD
:10459000010103E0514F41FF7F4949494177087FBD
:1045A000087741494949367F1008047F7C21120968
:1045B0007C7F0814224120413F017F7F020C027F53
:1045C0007F0808087F3E4141413E7F0101017F7F16
:1045D000090909063E4141412201017F01014728A5
:1045E0001008071C227F221C63140814637F4040BC
:1045F00040FF070808087F7F407F407F7F407F4063
:10460000FF017F4848307F4830007F007F484830B6
:10461000224149493E7F083E413E462919097F20F3
:10462000545454783C4A4A49317C545428007C0400
:1046300004040CE0544C44FC38545454186C107C62
:10464000106C44445454287C2010087C7C41221176
:104650007C7C1028440020443C047C7C0810087CAE
:104660007C1010107C38444444387C0404047C7C66
:1046700014141408384444442004047C04040C50EA
:1046800050503C3048FC483044281028447C40407E
:1046900040FC0C1010107C7C407C407C7C407C40BA
:1046A000FC047C5050207C5050207C7C50502000DA
:1046B00028445454387C10384438085434147C004E
:1046C00030B011241FBECFEFD0E1DEBFCDBF80B52B
:1046D0008B7F80BD9FEF9ABB1BBA17BA98BB80EE49
:1046E00084BB8FE185BB80E381BB8FEC82BB80EC18
:1046F00082B993B98EE08093610081EF809362006C
:10470000109264009093650017BE8BE083BF88E130
:1047100081BF87B7826087BF1FBC8CE08EBD1092BF
:104720007A001DBC1CBC80E792E09BBD8ABD87B7A8
:10473000806187BF2CE088E190E00FB6F894A895DF
:1047400081BD0FBE21BD11E0A0E0B1E0EAEEFEE6C2
:1047500001E00BBF02C007900D92AA35B107D9F74F
:104760001BE0AAE5B1E001C01D92A735B107E1F752
:1047700016E4C2ECD6E404C02297FE010E942CB4D9
:10478000C03CD107C9F70E9482B20C9473B70C9455
:104790000000FC01662311F1208581852430C1F0E1
:1047A0002630B1F02930A1F02B3091F0223049F4BD
:1047B00090E083709070892B11F08CE10AC08DE13C
:1047C00008C021502C3010F48FE103C080E001C0FC
:1047D0008EE1861718F0678381E0089580E2878371
:1047E00080E00895FC01CB0120E005C080FD05C0FC
:1047F0002F5F969587950097C9F7E05AFF4F219351
:1048000071836083E156F04080E004C060FD8F5FFB
:104810007695679561157105C9F7ED59FF4F80834E
:1048200081E00895FC01CB0120E005C080FD05C0BA
:104830002F5F969587950097C9F7EC59FF4F219305
:1048400071836083E556F04080E004C060FD8F5FB7
:104850007695679561157105C9F7E959FF4F808312
:1048600081E00895FC0185A5833019F491E086E28A
:1048700008C0823091F0813081F0882361F09FEF91
:1048800080E0691728F0861718F067A781E008957F
:1048900087A780E008958EE0F6CF82E0F4CF1F93E3
:1048A000CF93DF93FC01EB01DC01D89610E050E0E0
:1048B00089918C9341E020E030E0682F70E0842FF4
:1048C00090E086239723892B09F01F5F440F2F5F09
:1048D0003F4F2830310599F75F5F1196543041F70B
:1048E000E05CFF4F108381E0DF91CF911F9108952D
:1048F000FC01262F30E0C90144E0969587954A9542
:10490000E1F7817081ABC901B5E096958795BA95BD
:10491000E1F7817082ABC901A6E096958795AA95CB
:10492000E1F7817083ABC9018170907084ABC901DC
:1049300096958795817085AB16AA23703070232BCE
:1049400011F081E086AB67AB81E00895FC0120E0C7
:10495000CB018070907C892B09F021E0EA5BFF4F4E
:1049600020837F7392918291E454F04086179707D9
:1049700010F480E00895DF01AE5BBF4FE95BFF4FAD
:10498000222331F08D939C937183608381E008959D
:104990006D937C931182108281E00895FC01633055
:1049A00069F4818D928D892B31F48789908D892BC3
:1049B00011F4528F418F508F478B0895662369F40D
:1049C00083A594A5892B31F481A592A5892B11F497
:1049D00054A743A752A741A70895613069F485A160
:1049E00096A1892B31F483A194A1892B11F456A3AC
:1049F00045A354A343A30895623061F4878D90A129
:104A0000892B31F4858D968D892B11F450A3478F16
:104A1000568F458F0895662379F031E020E070E0ED
:104A20002F5F832F90E086239723892B11F0822F0D
:104A30000895330F2830A1F780E00895EF92FF9298
:104A40000F931F93CF93DF93EC01FB01808180FFD5
:104A500002C082E02CC081FF02C083E028C07B013D
:104A60000894E11CF11CCE016181D5DF882311F08F
:104A70008E5E1DC087010F5F1F4FCE01F701618160
:104A8000CADF882311F0865E12C078010894E11C09
:104A9000F11CCE01F8016181BEDF882311F08E5D2B
:104AA00006C0CE01F7016181B6DF8111865DDF911D
:104AB000CF911F910F91FF90EF9008951F93FB01ED
:104AC00010811F7061816F7049F0A5DF12FF02C075
:104AD000865F24C013FF21C0825F20C01123E9F04C
:104AE000E12FF0E0CF0186709070069711F488E016
:104AF00015C0CF018A7090700A9711F489E00EC03A
:104B0000CF0185709070059711F486E007C0E970B9
:104B1000F070399711F487E001C080E01F9108958B
:104B2000FC01673010F084E00895633021F06230BA
:104B300011F0613041F4EE57FF4F8081E258F040B0
:104B4000823009F465E0E158FF4F8081861711F447
:104B500081E00895608382E00895FC018285868368
:104B600080E00895FF920F931F93CF93DF93EC01A2
:104B70006230C1F5AC81BD81EA81FB8184818823EB
:104B800049F0833038F4A756BF4F8C93A959B040F1
:104B900021E002C083E020E0A756BF4F8C934C81F8
:104BA0005D81EA81FB819481892F8150823010F0F0
:104BB00094E00AC0FA01EF5EFD4F8081891711F47D
:104BC00091E002C0908392E0EC81FD81EF5EFD4FA9
:104BD00080818F5FBA96808391FF54C2EC81FD8102
:104BE000108250C26A30D1F5AC81BD81EA81FB816F
:104BF0009481892F8150893010F0FF2405C0A6567A
:104C0000BF4F9C93FF24F3940C811D81EA81FB81AB
:104C1000658176818781908528EE33E040E050E021
:104C20000E9408B4C901DA0181362AEE920720E019
:104C3000A20720E0B20710F080E006C005561F4F23
:104C4000F8019183808381E090E02F2D30E0822B6A
:104C5000932B20E0892B09F415C224C1613C69F52E
:104C6000AA81BB8114960D911C911597EC81FD8151
:104C7000E054FD4F11830083E05CF24013968C9169
:104C80001397843048F016964D915C911797CF0199
:104C900087569D4F60E082DEEC81FD81EA53FD4F37
:104CA0008081E65CF240882309F0EBC1CF01875692
:104CB0009D4FB8014BDE282FE5C1623C09F0E1C1F0
:104CC000EC81FD81EA53FD4F8081E65CF240882350
:104CD00009F0D7C1442309F0D4C18181AA81BB81E5
:104CE000853009F0E1C016968C91282F30E074E0F1
:104CF000359527957A95E1F7A90163E0440F551F93
:104D00006A95E1F7220F331F420F531F8F70840FF4
:104D1000EE55FD4F843610F4808301C01082AC81C3
:104D2000BD81EA81FB814781842F90E004E0959565
:104D300087950A95E1F79C0113E0220F331F1A951E
:104D4000E1F7880F991F280F391F4F70420F842FEA
:104D50008150AF55BD4F8C3010F44C9302C08DE0A4
:104D60008C93EA81FB8160858C819D81262F30E0C8
:104D7000E4E035952795EA95E1F7A90173E0440F42
:104D8000551F7A95E1F7220F331F420F531F6F70A3
:104D9000640F87569D4FFDDCAC81BD81EA81FB81AC
:104DA0004185842F90E014E0959587951A95E1F759
:104DB0009C01F3E0220F331FFA95E1F7880F991F4A
:104DC000280F391F4F70420FA256BD4F483110F4C3
:104DD0004C9302C089E18C93AC81BD81EA81FB8157
:104DE0004285842F90E074E0959587957A95E1F758
:104DF0009C0163E0220F331F6A95E1F7880F991F2A
:104E0000280F391F4F70420FA356BD4F4C3310F47B
:104E10004C9302C08DE38C93AC81BD81EA81FB8110
:104E20004385842F90E024E0959587952A95E1F7B6
:104E30009C0103E0220F331F0A95E1F7880F991FA9
:104E4000280F391F4F70420FA456BD4F4C3310F43A
:104E50004C9302C08DE38C93EA81FB81948580E0C2
:104E60002585820F911DEC81FD81E656FD4F23E0E3
:104E7000883E920710F088EE93E091838083EA8168
:104E8000FB818C819D8165816F7024812295207FBB
:104E9000620F87569D4F2CDDEC81FD81E951FD4F5E
:104EA00081E0808321E0EEC053968C91282F30E082
:104EB000A4E035952795AA95E1F7A90173E0440F81
:104EC000551F7A95E1F7220F331F420F531F8F7042
:104ED000840FEE55FD4F843610F4808301C010829C
:104EE000AC81BD81EA81FB814289842F90E024E07E
:104EF000959587952A95E1F79C0103E0220F331FD2
:104F00000A95E1F7880F991F280F391F4F70420F3C
:104F1000842F8150AF55BD4F8C3010F44C9302C09C
:104F20008DE08C93EA81FB8161898C819D81262FA4
:104F300030E0F4E035952795FA95E1F7A901E3E033
:104F4000440F551FEA95E1F7220F331F420F531FFD
:104F50006F70640F87569D4F1CDCAC81BD81EA8168
:104F6000FB814785842F90E064E0959587956A954D
:104F7000E1F79C0153E0220F331F5A95E1F7880FA8
:104F8000991F280F391F4F70420FA256BD4F48314D
:104F900010F44C9302C089E18C93AC81BD81EA810D
:104FA000FB814685842F90E014E0959587951A95AE
:104FB000E1F79C01F3E0220F331FFA95E1F7880F28
:104FC000991F280F391F4F70420FA356BD4F4C3306
:104FD00010F44C9302C08DE38C93AC81BD81EA81C7
:104FE000FB814585842F90E074E0959587957A95AF
:104FF000E1F79C0163E0220F331F6A95E1F7880F08
:10500000991F280F391F4F70420FA456BD4F4C33C4
:1050100010F44C9302C08DE38C93EA81FB8194855C
:1050200080E02385820F911DEC81FD81E656FD4FC6
:1050300023E0883E920710F088EE93E0918380830E
:10504000AC81BD81EA81FB818481A953BD4F86304B
:1050500008F086E08C93EA81FB818C819D816781D9
:105060006F7025812295207F620F87569D4F40DC0F
:105070008C819D81EA81FB8187569D4F6681F2DBA1
:105080000BCF20E0822FDF91CF911F910F91FF90E6
:1050900008950F931F93CF93DF93EC01613DD9F1F6
:1050A000623D09F464C06C3109F03EC2AC81BD813F
:1050B00011968C911197833011F090E026C0EA810F
:1050C000FB819481990F990F913210F024E001C077
:1050D00020E0FD01E15FFE4F8081891719F4922FD6
:1050E00091600BC09083FD01E25FFE4F1082992317
:1050F00011F081E08083922F9260EC81FD81E15F6D
:10510000FE4F8081E65DFE4F808391FF0DC2EC81F2
:10511000FD81108209C2AA81BB8114960D911C9158
:105120001597EC81FD81E654FD4F11830083EA5B06
:10513000F24013968C911397843048F016964D9157
:105140005C911797CF0187569D4F61E027DCEC817A
:10515000FD81EA53FD4F8081E65CF240813009F029
:10516000E3C1CF0187569D4FB801F0DBDEC1EC8172
:10517000FD81EA53FD4F8081E65CF240813009F009
:10518000D3C1442309F0D0C18181AA81BB8185307C
:1051900009F0D6C018968C91282F30E074E0359530
:1051A00027957A95E1F7A90163E0440F551F6A95A9
:1051B000E1F7220F331F420F531F8F70840FEE55FC
:1051C000FD4F843610F4808301C01082AC81BD8114
:1051D000EA81FB814185842F90E004E095958795D5
:1051E0000A95E1F79C0113E0220F331F1A95E1F7AE
:1051F000880F991F280F391F4F70420F842F81503D
:10520000AF55BD4F8C3010F44C9302C08DE08C93A1
:10521000EA81FB8162858C819D81262F30E0E4E06C
:1052200035952795EA95E1F7A90173E0440F551FDD
:105230007A95E1F7220F331F420F531F6F70640FEF
:1052400087569D4FA6DAAC81BD81EA81FB814385FB
:10525000842F90E014E0959587951A95E1F79C01CD
:10526000F3E0220F331FFA95E1F7880F991F280FFB
:10527000391F4F70420FA256BD4F483110F44C9366
:1052800002C089E18C93AC81BD81EA81FB814485B8
:10529000842F90E074E0959587957A95E1F79C01CD
:1052A00063E0220F331F6A95E1F7880F991F280FDB
:1052B000391F4F70420FA356BD4F4C3310F44C931F
:1052C00002C08DE38C93AC81BD81EA81FB81458571
:1052D000842F90E024E0959587952A95E1F79C012D
:1052E00003E0220F331F0A95E1F7880F991F280F5B
:1052F000391F4F70420FA456BD4F4C3310F44C93DE
:1053000002C08DE38C93EA81FB81968580E027853E
:10531000820F911DEC81FD81E656FD4F23E0883E12
:10532000920710F088EE93E0918380838C819D81B9
:105330006A817B816C5F7F4F87569D4FB0DAEDC0ED
:1053400053968C91282F30E0B4E035952795BA9587
:10535000E1F7A901A3E0440F551FAA95E1F7220F39
:10536000331F420F531F8F70840FEE55FD4F84364D
:1053700010F4808301C01082AC81BD81EA81FB8181
:105380004289842F90E064E0959587956A95E1F7CE
:105390009C0153E0220F331F5A95E1F7880F991FA4
:1053A000280F391F4F70420F842F8150AF55BD4FCA
:1053B0008C3010F44C9302C08DE08C93EA81FB8119
:1053C00061898C819D81262F30E014E035952795E9
:1053D0001A95E1F7A901B3E0440F551FBA95E1F71B
:1053E000220F331F420F531F6F70640F87569D4F5C
:1053F000D0D9AC81BD81EA81FB814785842F90E0C3
:10540000F4E095958795FA95E1F79C01E3E0220F8A
:10541000331FEA95E1F7880F991F280F391F4F7046
:10542000420FA256BD4F483110F44C9302C089E19F
:105430008C93AC81BD81EA81FB814685842F90E00D
:1054400064E0959587956A95E1F79C0153E0220FFA
:10545000331F5A95E1F7880F991F280F391F4F7096
:10546000420FA356BD4F4C3310F44C9302C08DE352
:105470008C93AC81BD81EA81FB814585842F90E0CE
:1054800014E0959587951A95E1F79C01F3E0220FBA
:10549000331FFA95E1F7880F991F280F391F4F70B6
:1054A000420FA456BD4F4C3310F44C9302C08DE311
:1054B0008C93EA81FB81948580E02385820F911D86
:1054C000EC81FD81E656FD4F23E0883E920710F007
:1054D00088EE93E091838083AC81BD81EA81FB817A
:1054E0008481A953BD4F863008F086E08C932C81CF
:1054F0003D81EA81FB819581892F8150803228F49A
:10550000F901EC51FD4F908311828C819D81EA81DC
:10551000FB8187569D4F6681A5D9EC81FD81E951BC
:10552000FD4F81E0808301C080E0DF91CF911F912A
:105530000F910895CF92DF92EF92FF920F931F93F6
:10554000CF93DF93EC01613EE1F1623E09F465C067
:105550006C3209F07EC2AC81BD8111968C9111979D
:10556000833011F090E027C0EA81FB819481990F8C
:10557000990F913218F024E090E001C020E0FD0185
:10558000EA57FE4F8081891719F4922F91600BC062
:105590009083FD01EB57FE4F1082992311F081E0BB
:1055A0008083922F9260EC81FD81EA57FE4F8081CB
:1055B000EC54FF4F808391FF4CC2EC81FD8110823F
:1055C00048C2AA81BB8114960D911C911597EC815C
:1055D000FD81EC54FD4F11830083E45BF240139690
:1055E0008C911397843048F016964D915C911797E3
:1055F000CF0187569D4F62E0D1D9EC81FD81EA53FE
:10560000FD4F8081E65CF240823009F022C2CF017A
:1056100087569D4FB8019AD91DC2EC81FD81EA538E
:10562000FD4F8081E65CF240823009F012C24423D3
:1056300009F00FC28181AA81BB81853009F008C1C0
:1056400018968C91282F30E0A4E035952795AA95DF
:10565000E1F7A90173E0440F551F7A95E1F7220F96
:10566000331F420F531F8F70840FEE55FD4F84364A
:1056700010F4808301C01082AC81BD81EA81FB817E
:105680004185842F90E024E0959587952A95E1F750
:105690009C0103E0220F331F0A95E1F7880F991F41
:1056A000280F391F4F70420F842F8150AF55BD4FC7
:1056B0008C3010F44C9302C08DE08C93EA81FB8116
:1056C00062858C819D81262F30E0F4E03595279509
:1056D000FA95E1F7A901E3E0440F551FEA95E1F7D8
:1056E000220F331F420F531F6F70640F87569D4F59
:1056F00050D8AC81BD81EA81FB814385842F90E045
:1057000024E0959587952A95E1F79C0103E0220F07
:10571000331F0A95E1F7880F991F280F391F4F7023
:10572000420FA256BD4F483110F44C9302C089E19C
:105730008C93AC81BD81EA81FB814485842F90E00C
:10574000F4E095958795FA95E1F79C01E3E0220F47
:10575000331FEA95E1F7880F991F280F391F4F7003
:10576000420FA356BD4F4C3310F44C9302C08DE34F
:105770008C93AC81BD81EA81FB814585842F90E0CB
:1057800064E0959587956A95E1F79C0153E0220FB7
:10579000331F5A95E1F7880F991F280F391F4F7053
:1057A000420FA456BD4F4C3310F44C9302C08DE30E
:1057B0008C93EA81FB81968580E02785820F911D7D
:1057C000EC81FD81E656FD4F23E0883E920710F004
:1057D00088EE93E0918380838C819D816A817B81B7
:1057E0006C5F7F4F87569D4F5AD8EA81FB8183813A
:1057F000803108F427C1CC80DD80A6014B525D4F7B
:1058000070E014E0E12EF12CEE0EFF1E8089DA012B
:105810008C9361E020E030E0082F10E0862F90E0CC
:1058200080239123892B09F07F5F660F2F5F3F4F05
:105830002830310599F731964F5F5F4FEE15FF0520
:1058400029F7EAEDF2E0CE0EDF1ED6017C93FAC016
:1058500053968C91282F30E0B4E035952795BA9572
:10586000E1F7A901A3E0440F551FAA95E1F7220F24
:10587000331F420F531F8F70840FEE55FD4F843638
:1058800010F4808301C01082AC81BD81EA81FB816C
:105890004289842F90E064E0959587956A95E1F7B9
:1058A0009C0153E0220F331F5A95E1F7880F991F8F
:1058B000280F391F4F70420F842F8150AF55BD4FB5
:1058C0008C3010F44C9302C08DE08C93EA81FB8104
:1058D00061898C819D81262F30E014E035952795D4
:1058E0001A95E1F7A901B3E0440F551FBA95E1F706
:1058F000220F331F420F531F6F70640F87569D4F47
:105900000E94C923AC81BD81EA81FB814785842F38
:1059100090E0F4E095958795FA95E1F79C01E3E036
:10592000220F331FEA95E1F7880F991F280F391FBF
:105930004F70420FA256BD4F483110F44C9302C035
:1059400089E18C93AC81BD81EA81FB814685842FFE
:1059500090E064E0959587956A95E1F79C0153E0A6
:10596000220F331F5A95E1F7880F991F280F391F0F
:105970004F70420FA356BD4F4C3310F44C9302C0EE
:105980008DE38C93AC81BD81EA81FB814585842FB9
:1059900090E014E0959587951A95E1F79C01F3E066
:1059A000220F331FFA95E1F7880F991F280F391F2F
:1059B0004F70420FA456BD4F4C3310F44C9302C0AD
:1059C0008DE38C93EA81FB81948580E02385820FAF
:1059D000911DEC81FD81E656FD4FB3E0883E9B07AB
:1059E00010F088EE93E091838083AC81BD81EA81E1
:1059F000FB818481A953BD4F863008F086E08C93EB
:105A00002C813D81EA81FB819581892F81508032F3
:105A100028F4F901EC51FD4F908311828C819D8116
:105A2000EA81FB8187569D4F66810E943224AC81BA
:105A3000BD81EA81FB818781833008F082E0AA5131
:105A4000BD4F8C93EC81FD81E951FD4F81E0808356
:105A500001C080E0DF91CF911F910F91FF90EF90F7
:105A6000DF90CF9008958F929F92AF92BF92CF9286
:105A7000DF92EF92FF920F931F93DF93CF930F92DA
:105A8000CDB7DEB78C01DC011496ED90FC90159734
:105A9000F701B180683309F411C66933A0F46233A9
:105AA00039F1633340F4603309F40AC1613311F012
:105AB0000C94CE366BC2643309F416C3673311F00D
:105AC0000C94CE36C2C56F3309F4D3C3603440F4AE
:105AD0006B3309F498C56E3311F00C94CE3601C6C1
